{
	"Voting.sol": {
		"Voting": {
			"abi": [
				{
					"inputs": [],
					"stateMutability": "nonpayable",
					"type": "constructor"
				},
				{
					"inputs": [
						{
							"internalType": "address",
							"name": "invalidVoter",
							"type": "address"
						}
					],
					"name": "AlreadyRegisterVoter",
					"type": "error"
				},
				{
					"inputs": [
						{
							"internalType": "address",
							"name": "invalidVote",
							"type": "address"
						}
					],
					"name": "AlreadyVoted",
					"type": "error"
				},
				{
					"inputs": [
						{
							"internalType": "address",
							"name": "invalidVoter",
							"type": "address"
						}
					],
					"name": "MissingVoteOfVoter",
					"type": "error"
				},
				{
					"inputs": [
						{
							"internalType": "address",
							"name": "invalidVoter",
							"type": "address"
						}
					],
					"name": "UnRegisteredVoter",
					"type": "error"
				},
				{
					"inputs": [],
					"name": "VotersNotYetRegistered",
					"type": "error"
				},
				{
					"inputs": [
						{
							"internalType": "enum WorkflowStatus",
							"name": "requiredStatus",
							"type": "uint8"
						},
						{
							"internalType": "enum WorkflowStatus",
							"name": "status",
							"type": "uint8"
						}
					],
					"name": "WrongPhaseStatus",
					"type": "error"
				},
				{
					"inputs": [
						{
							"internalType": "uint256",
							"name": "invalidProposal",
							"type": "uint256"
						}
					],
					"name": "WrongProposal",
					"type": "error"
				},
				{
					"anonymous": false,
					"inputs": [
						{
							"indexed": true,
							"internalType": "address",
							"name": "previousOwner",
							"type": "address"
						},
						{
							"indexed": true,
							"internalType": "address",
							"name": "newOwner",
							"type": "address"
						}
					],
					"name": "OwnershipTransferred",
					"type": "event"
				},
				{
					"anonymous": false,
					"inputs": [
						{
							"indexed": false,
							"internalType": "uint256",
							"name": "proposalId",
							"type": "uint256"
						}
					],
					"name": "ProposalRegistered",
					"type": "event"
				},
				{
					"anonymous": false,
					"inputs": [
						{
							"indexed": false,
							"internalType": "address",
							"name": "voter",
							"type": "address"
						},
						{
							"indexed": false,
							"internalType": "uint256",
							"name": "proposalId",
							"type": "uint256"
						}
					],
					"name": "Voted",
					"type": "event"
				},
				{
					"anonymous": false,
					"inputs": [
						{
							"indexed": false,
							"internalType": "address",
							"name": "voterAddress",
							"type": "address"
						}
					],
					"name": "VoterRegistered",
					"type": "event"
				},
				{
					"anonymous": false,
					"inputs": [
						{
							"indexed": false,
							"internalType": "enum WorkflowStatus",
							"name": "previousStatus",
							"type": "uint8"
						},
						{
							"indexed": false,
							"internalType": "enum WorkflowStatus",
							"name": "newStatus",
							"type": "uint8"
						}
					],
					"name": "WorkflowStatusChange",
					"type": "event"
				},
				{
					"inputs": [],
					"name": "endProposalRegistration",
					"outputs": [],
					"stateMutability": "nonpayable",
					"type": "function"
				},
				{
					"inputs": [],
					"name": "endVoteSession",
					"outputs": [],
					"stateMutability": "nonpayable",
					"type": "function"
				},
				{
					"inputs": [],
					"name": "getAllProposals",
					"outputs": [
						{
							"components": [
								{
									"internalType": "string",
									"name": "description",
									"type": "string"
								},
								{
									"internalType": "uint256",
									"name": "voteCount",
									"type": "uint256"
								}
							],
							"internalType": "struct Voting.Proposal[]",
							"name": "",
							"type": "tuple[]"
						}
					],
					"stateMutability": "view",
					"type": "function"
				},
				{
					"inputs": [],
					"name": "getAllVoters",
					"outputs": [
						{
							"internalType": "address[]",
							"name": "",
							"type": "address[]"
						}
					],
					"stateMutability": "view",
					"type": "function"
				},
				{
					"inputs": [
						{
							"internalType": "address",
							"name": "_voter",
							"type": "address"
						}
					],
					"name": "getVoteOfVoter",
					"outputs": [
						{
							"internalType": "uint256",
							"name": "",
							"type": "uint256"
						}
					],
					"stateMutability": "view",
					"type": "function"
				},
				{
					"inputs": [],
					"name": "getWinner",
					"outputs": [
						{
							"internalType": "uint256",
							"name": "",
							"type": "uint256"
						}
					],
					"stateMutability": "view",
					"type": "function"
				},
				{
					"inputs": [],
					"name": "owner",
					"outputs": [
						{
							"internalType": "address",
							"name": "",
							"type": "address"
						}
					],
					"stateMutability": "view",
					"type": "function"
				},
				{
					"inputs": [
						{
							"internalType": "string",
							"name": "description",
							"type": "string"
						}
					],
					"name": "registerProposal",
					"outputs": [],
					"stateMutability": "nonpayable",
					"type": "function"
				},
				{
					"inputs": [
						{
							"internalType": "address",
							"name": "_voter",
							"type": "address"
						}
					],
					"name": "registerVoter",
					"outputs": [],
					"stateMutability": "nonpayable",
					"type": "function"
				},
				{
					"inputs": [
						{
							"internalType": "address[]",
							"name": "_voters",
							"type": "address[]"
						}
					],
					"name": "registerVoters",
					"outputs": [],
					"stateMutability": "nonpayable",
					"type": "function"
				},
				{
					"inputs": [],
					"name": "renounceOwnership",
					"outputs": [],
					"stateMutability": "nonpayable",
					"type": "function"
				},
				{
					"inputs": [],
					"name": "resetProposals",
					"outputs": [],
					"stateMutability": "nonpayable",
					"type": "function"
				},
				{
					"inputs": [],
					"name": "resetSession",
					"outputs": [],
					"stateMutability": "nonpayable",
					"type": "function"
				},
				{
					"inputs": [],
					"name": "resetVotes",
					"outputs": [],
					"stateMutability": "nonpayable",
					"type": "function"
				},
				{
					"inputs": [],
					"name": "startProposalRegistration",
					"outputs": [],
					"stateMutability": "nonpayable",
					"type": "function"
				},
				{
					"inputs": [],
					"name": "startVoteSession",
					"outputs": [],
					"stateMutability": "nonpayable",
					"type": "function"
				},
				{
					"inputs": [],
					"name": "tallyVotes",
					"outputs": [],
					"stateMutability": "nonpayable",
					"type": "function"
				},
				{
					"inputs": [
						{
							"internalType": "address",
							"name": "newOwner",
							"type": "address"
						}
					],
					"name": "transferOwnership",
					"outputs": [],
					"stateMutability": "nonpayable",
					"type": "function"
				},
				{
					"inputs": [
						{
							"internalType": "uint256",
							"name": "proposalId",
							"type": "uint256"
						}
					],
					"name": "vote",
					"outputs": [],
					"stateMutability": "nonpayable",
					"type": "function"
				}
			],
			"devdoc": {
				"kind": "dev",
				"methods": {
					"owner()": {
						"details": "Returns the address of the current owner."
					},
					"renounceOwnership()": {
						"details": "Leaves the contract without owner. It will not be possible to call `onlyOwner` functions. Can only be called by the current owner. NOTE: Renouncing ownership will leave the contract without an owner, thereby disabling any functionality that is only available to the owner."
					},
					"transferOwnership(address)": {
						"details": "Transfers ownership of the contract to a new account (`newOwner`). Can only be called by the current owner."
					}
				},
				"version": 1
			},
			"evm": {
				"assembly": "    /* \"Voting.sol\":653:8868  contract Voting is Ownable {... */\n  mstore(0x40, 0x80)\n    /* \"Voting.sol\":1474:1554  constructor() {... */\n  callvalue\n  dup1\n  iszero\n  tag_1\n  jumpi\n  0x00\n  dup1\n  revert\ntag_1:\n  pop\n    /* \"@openzeppelin/contracts/access/Ownable.sol\":936:968  _transferOwnership(_msgSender()) */\n  tag_5\n    /* \"@openzeppelin/contracts/access/Ownable.sol\":955:967  _msgSender() */\n  tag_6\n    /* \"@openzeppelin/contracts/access/Ownable.sol\":955:965  _msgSender */\n  shl(0x20, tag_7)\n    /* \"@openzeppelin/contracts/access/Ownable.sol\":955:967  _msgSender() */\n  0x20\n  shr\n  jump\t// in\ntag_6:\n    /* \"@openzeppelin/contracts/access/Ownable.sol\":936:954  _transferOwnership */\n  shl(0x20, tag_8)\n    /* \"@openzeppelin/contracts/access/Ownable.sol\":936:968  _transferOwnership(_msgSender()) */\n  0x20\n  shr\n  jump\t// in\ntag_5:\n    /* \"Voting.sol\":1515:1547  WorkflowStatus.RegisteringVoters */\n  0x00\n    /* \"Voting.sol\":1498:1505  session */\n  0x01\n    /* \"Voting.sol\":1498:1512  session.status */\n  0x00\n  add\n  0x00\n    /* \"Voting.sol\":1498:1547  session.status = WorkflowStatus.RegisteringVoters */\n  0x0100\n  exp\n  dup2\n  sload\n  dup2\n  0xff\n  mul\n  not\n  and\n  swap1\n  dup4\n  0x05\n  dup2\n  gt\n  iszero\n  tag_10\n  jumpi\n  tag_11\n  tag_12\n  jump\t// in\ntag_11:\ntag_10:\n  mul\n  or\n  swap1\n  sstore\n  pop\n    /* \"Voting.sol\":653:8868  contract Voting is Ownable {... */\n  jump(tag_13)\n    /* \"@openzeppelin/contracts/utils/Context.sol\":640:736  function _msgSender() internal view virtual returns (address) {... */\ntag_7:\n    /* \"@openzeppelin/contracts/utils/Context.sol\":693:700  address */\n  0x00\n    /* \"@openzeppelin/contracts/utils/Context.sol\":719:729  msg.sender */\n  caller\n    /* \"@openzeppelin/contracts/utils/Context.sol\":712:729  return msg.sender */\n  swap1\n  pop\n    /* \"@openzeppelin/contracts/utils/Context.sol\":640:736  function _msgSender() internal view virtual returns (address) {... */\n  swap1\n  jump\t// out\n    /* \"@openzeppelin/contracts/access/Ownable.sol\":2426:2613  function _transferOwnership(address newOwner) internal virtual {... */\ntag_8:\n    /* \"@openzeppelin/contracts/access/Ownable.sol\":2499:2515  address oldOwner */\n  0x00\n    /* \"@openzeppelin/contracts/access/Ownable.sol\":2518:2524  _owner */\n  dup1\n  0x00\n  swap1\n  sload\n  swap1\n  0x0100\n  exp\n  swap1\n  div\n  0xffffffffffffffffffffffffffffffffffffffff\n  and\n    /* \"@openzeppelin/contracts/access/Ownable.sol\":2499:2524  address oldOwner = _owner */\n  swap1\n  pop\n    /* \"@openzeppelin/contracts/access/Ownable.sol\":2543:2551  newOwner */\n  dup2\n    /* \"@openzeppelin/contracts/access/Ownable.sol\":2534:2540  _owner */\n  0x00\n  dup1\n    /* \"@openzeppelin/contracts/access/Ownable.sol\":2534:2551  _owner = newOwner */\n  0x0100\n  exp\n  dup2\n  sload\n  dup2\n  0xffffffffffffffffffffffffffffffffffffffff\n  mul\n  not\n  and\n  swap1\n  dup4\n  0xffffffffffffffffffffffffffffffffffffffff\n  and\n  mul\n  or\n  swap1\n  sstore\n  pop\n    /* \"@openzeppelin/contracts/access/Ownable.sol\":2597:2605  newOwner */\n  dup2\n    /* \"@openzeppelin/contracts/access/Ownable.sol\":2566:2606  OwnershipTransferred(oldOwner, newOwner) */\n  0xffffffffffffffffffffffffffffffffffffffff\n  and\n    /* \"@openzeppelin/contracts/access/Ownable.sol\":2587:2595  oldOwner */\n  dup2\n    /* \"@openzeppelin/contracts/access/Ownable.sol\":2566:2606  OwnershipTransferred(oldOwner, newOwner) */\n  0xffffffffffffffffffffffffffffffffffffffff\n  and\n  0x8be0079c531659141344cd1fd0a4f28419497f9722a3daafe3b4186f6b6457e0\n  mload(0x40)\n  mload(0x40)\n  dup1\n  swap2\n  sub\n  swap1\n  log3\n    /* \"@openzeppelin/contracts/access/Ownable.sol\":2489:2613  {... */\n  pop\n    /* \"@openzeppelin/contracts/access/Ownable.sol\":2426:2613  function _transferOwnership(address newOwner) internal virtual {... */\n  pop\n  jump\t// out\n    /* \"#utility.yul\":7:187   */\ntag_12:\n    /* \"#utility.yul\":55:132   */\n  0x4e487b7100000000000000000000000000000000000000000000000000000000\n    /* \"#utility.yul\":52:53   */\n  0x00\n    /* \"#utility.yul\":45:133   */\n  mstore\n    /* \"#utility.yul\":152:156   */\n  0x21\n    /* \"#utility.yul\":149:150   */\n  0x04\n    /* \"#utility.yul\":142:157   */\n  mstore\n    /* \"#utility.yul\":176:180   */\n  0x24\n    /* \"#utility.yul\":173:174   */\n  0x00\n    /* \"#utility.yul\":166:181   */\n  revert\n    /* \"Voting.sol\":653:8868  contract Voting is Ownable {... */\ntag_13:\n  dataSize(sub_0)\n  dup1\n  dataOffset(sub_0)\n  0x00\n  codecopy\n  0x00\n  return\nstop\n\nsub_0: assembly {\n        /* \"Voting.sol\":653:8868  contract Voting is Ownable {... */\n      mstore(0x40, 0x80)\n      callvalue\n      dup1\n      iszero\n      tag_1\n      jumpi\n      0x00\n      dup1\n      revert\n    tag_1:\n      pop\n      jumpi(tag_2, lt(calldatasize, 0x04))\n      shr(0xe0, calldataload(0x00))\n      dup1\n      0x8da5cb5b\n      gt\n      tag_22\n      jumpi\n      dup1\n      0xd55ec9c1\n      gt\n      tag_23\n      jumpi\n      dup1\n      0xd55ec9c1\n      eq\n      tag_17\n      jumpi\n      dup1\n      0xe85a8f2a\n      eq\n      tag_18\n      jumpi\n      dup1\n      0xf2fde38b\n      eq\n      tag_19\n      jumpi\n      dup1\n      0xf74c168d\n      eq\n      tag_20\n      jumpi\n      dup1\n      0xf8a3ce82\n      eq\n      tag_21\n      jumpi\n      jump(tag_2)\n    tag_23:\n      dup1\n      0x8da5cb5b\n      eq\n      tag_12\n      jumpi\n      dup1\n      0x8e7ea5b2\n      eq\n      tag_13\n      jumpi\n      dup1\n      0xaaa98346\n      eq\n      tag_14\n      jumpi\n      dup1\n      0xb9830ff1\n      eq\n      tag_15\n      jumpi\n      dup1\n      0xcceb68f5\n      eq\n      tag_16\n      jumpi\n      jump(tag_2)\n    tag_22:\n      dup1\n      0x35bbe70e\n      gt\n      tag_24\n      jumpi\n      dup1\n      0x35bbe70e\n      eq\n      tag_7\n      jumpi\n      dup1\n      0x378a2178\n      eq\n      tag_8\n      jumpi\n      dup1\n      0x38db6dd3\n      eq\n      tag_9\n      jumpi\n      dup1\n      0x6edb2860\n      eq\n      tag_10\n      jumpi\n      dup1\n      0x715018a6\n      eq\n      tag_11\n      jumpi\n      jump(tag_2)\n    tag_24:\n      dup1\n      0x0121b93f\n      eq\n      tag_3\n      jumpi\n      dup1\n      0x0b9bc2a0\n      eq\n      tag_4\n      jumpi\n      dup1\n      0x0f7e2838\n      eq\n      tag_5\n      jumpi\n      dup1\n      0x2f95355b\n      eq\n      tag_6\n      jumpi\n    tag_2:\n      0x00\n      dup1\n      revert\n        /* \"Voting.sol\":5753:6261  function vote(uint256 proposalId) external onlyVoters {... */\n    tag_3:\n      tag_25\n      0x04\n      dup1\n      calldatasize\n      sub\n      dup2\n      add\n      swap1\n      tag_26\n      swap2\n      swap1\n      tag_27\n      jump\t// in\n    tag_26:\n      tag_28\n      jump\t// in\n    tag_25:\n      stop\n        /* \"Voting.sol\":8368:8618  function resetProposals() external onlyOwner {... */\n    tag_4:\n      tag_29\n      tag_30\n      jump\t// in\n    tag_29:\n      stop\n        /* \"Voting.sol\":4212:4607  function startProposalRegistration()... */\n    tag_5:\n      tag_31\n      tag_32\n      jump\t// in\n    tag_31:\n      stop\n        /* \"Voting.sol\":4906:5229  function registerProposal(string memory description)... */\n    tag_6:\n      tag_33\n      0x04\n      dup1\n      calldatasize\n      sub\n      dup2\n      add\n      swap1\n      tag_34\n      swap2\n      swap1\n      tag_35\n      jump\t// in\n    tag_34:\n      tag_36\n      jump\t// in\n    tag_33:\n      stop\n        /* \"Voting.sol\":7108:7261  function getAllVoters()... */\n    tag_7:\n      tag_37\n      tag_38\n      jump\t// in\n    tag_37:\n      mload(0x40)\n      tag_39\n      swap2\n      swap1\n      tag_40\n      jump\t// in\n    tag_39:\n      mload(0x40)\n      dup1\n      swap2\n      sub\n      swap1\n      return\n        /* \"Voting.sol\":6297:6884  function tallyVotes() external voteSessionDone {... */\n    tag_8:\n      tag_41\n      tag_42\n      jump\t// in\n    tag_41:\n      stop\n        /* \"Voting.sol\":3581:3938  function registerVoter(address _voter)... */\n    tag_9:\n      tag_43\n      0x04\n      dup1\n      calldatasize\n      sub\n      dup2\n      add\n      swap1\n      tag_44\n      swap2\n      swap1\n      tag_45\n      jump\t// in\n    tag_44:\n      tag_46\n      jump\t// in\n    tag_43:\n      stop\n        /* \"Voting.sol\":7590:8089  function getVoteOfVoter(address _voter) external view onlyVoters returns (uint256) {... */\n    tag_10:\n      tag_47\n      0x04\n      dup1\n      calldatasize\n      sub\n      dup2\n      add\n      swap1\n      tag_48\n      swap2\n      swap1\n      tag_45\n      jump\t// in\n    tag_48:\n      tag_49\n      jump\t// in\n    tag_47:\n      mload(0x40)\n      tag_50\n      swap2\n      swap1\n      tag_51\n      jump\t// in\n    tag_50:\n      mload(0x40)\n      dup1\n      swap2\n      sub\n      swap1\n      return\n        /* \"@openzeppelin/contracts/access/Ownable.sol\":1824:1925  function renounceOwnership() public virtual onlyOwner {... */\n    tag_11:\n      tag_52\n      tag_53\n      jump\t// in\n    tag_52:\n      stop\n        /* \"@openzeppelin/contracts/access/Ownable.sol\":1201:1286  function owner() public view virtual returns (address) {... */\n    tag_12:\n      tag_54\n      tag_55\n      jump\t// in\n    tag_54:\n      mload(0x40)\n      tag_56\n      swap2\n      swap1\n      tag_57\n      jump\t// in\n    tag_56:\n      mload(0x40)\n      dup1\n      swap2\n      sub\n      swap1\n      return\n        /* \"Voting.sol\":6890:7060  function getWinner()... */\n    tag_13:\n      tag_58\n      tag_59\n      jump\t// in\n    tag_58:\n      mload(0x40)\n      tag_60\n      swap2\n      swap1\n      tag_51\n      jump\t// in\n    tag_60:\n      mload(0x40)\n      dup1\n      swap2\n      sub\n      swap1\n      return\n        /* \"Voting.sol\":5260:5504  function startVoteSession() external onlyOwner registerProposalDone {... */\n    tag_14:\n      tag_61\n      tag_62\n      jump\t// in\n    tag_61:\n      stop\n        /* \"Voting.sol\":8624:8866  function resetVotes() external onlyOwner {... */\n    tag_15:\n      tag_63\n      tag_64\n      jump\t// in\n    tag_63:\n      stop\n        /* \"Voting.sol\":7267:7584  function getAllProposals()... */\n    tag_16:\n      tag_65\n      tag_66\n      jump\t// in\n    tag_65:\n      mload(0x40)\n      tag_67\n      swap2\n      swap1\n      tag_68\n      jump\t// in\n    tag_67:\n      mload(0x40)\n      dup1\n      swap2\n      sub\n      swap1\n      return\n        /* \"Voting.sol\":3944:4173  function registerVoters(address[] memory _voters)... */\n    tag_17:\n      tag_69\n      0x04\n      dup1\n      calldatasize\n      sub\n      dup2\n      add\n      swap1\n      tag_70\n      swap2\n      swap1\n      tag_71\n      jump\t// in\n    tag_70:\n      tag_72\n      jump\t// in\n    tag_69:\n      stop\n        /* \"Voting.sol\":4613:4900  function endProposalRegistration()... */\n    tag_18:\n      tag_73\n      tag_74\n      jump\t// in\n    tag_73:\n      stop\n        /* \"@openzeppelin/contracts/access/Ownable.sol\":2074:2272  function transferOwnership(address newOwner) public virtual onlyOwner {... */\n    tag_19:\n      tag_75\n      0x04\n      dup1\n      calldatasize\n      sub\n      dup2\n      add\n      swap1\n      tag_76\n      swap2\n      swap1\n      tag_45\n      jump\t// in\n    tag_76:\n      tag_77\n      jump\t// in\n    tag_75:\n      stop\n        /* \"Voting.sol\":5510:5747  function endVoteSession() external onlyOwner voteSessionActive {... */\n    tag_20:\n      tag_78\n      tag_79\n      jump\t// in\n    tag_78:\n      stop\n        /* \"Voting.sol\":8120:8362  function resetSession() external onlyOwner {... */\n    tag_21:\n      tag_80\n      tag_81\n      jump\t// in\n    tag_80:\n      stop\n        /* \"Voting.sol\":5753:6261  function vote(uint256 proposalId) external onlyVoters {... */\n    tag_28:\n        /* \"Voting.sol\":2568:2575  session */\n      0x01\n        /* \"Voting.sol\":2568:2582  session.voters */\n      dup1\n      add\n        /* \"Voting.sol\":2568:2594  session.voters[msg.sender] */\n      0x00\n        /* \"Voting.sol\":2583:2593  msg.sender */\n      caller\n        /* \"Voting.sol\":2568:2594  session.voters[msg.sender] */\n      0xffffffffffffffffffffffffffffffffffffffff\n      and\n      0xffffffffffffffffffffffffffffffffffffffff\n      and\n      dup2\n      mstore\n      0x20\n      add\n      swap1\n      dup2\n      mstore\n      0x20\n      add\n      0x00\n      keccak256\n        /* \"Voting.sol\":2568:2607  session.voters[msg.sender].isRegistered */\n      0x00\n      add\n      0x00\n      swap1\n      sload\n      swap1\n      0x0100\n      exp\n      swap1\n      div\n      0xff\n      and\n        /* \"Voting.sol\":2563:2670  if (!session.voters[msg.sender].isRegistered) {... */\n      tag_83\n      jumpi\n        /* \"Voting.sol\":2648:2658  msg.sender */\n      caller\n        /* \"Voting.sol\":2630:2659  UnRegisteredVoter(msg.sender) */\n      mload(0x40)\n      0xaffa818a00000000000000000000000000000000000000000000000000000000\n      dup2\n      mstore\n      0x04\n      add\n      tag_84\n      swap2\n      swap1\n      tag_57\n      jump\t// in\n    tag_84:\n      mload(0x40)\n      dup1\n      swap2\n      sub\n      swap1\n      revert\n        /* \"Voting.sol\":2563:2670  if (!session.voters[msg.sender].isRegistered) {... */\n    tag_83:\n        /* \"Voting.sol\":5835:5842  session */\n      0x01\n        /* \"Voting.sol\":5835:5852  session.proposals */\n      0x03\n      add\n        /* \"Voting.sol\":5835:5859  session.proposals.length */\n      dup1\n      sload\n      swap1\n      pop\n        /* \"Voting.sol\":5821:5831  proposalId */\n      dup2\n        /* \"Voting.sol\":5821:5859  proposalId >= session.proposals.length */\n      lt\n      iszero\n        /* \"Voting.sol\":5821:5878  proposalId >= session.proposals.length && proposalId == 0 */\n      dup1\n      iszero\n      tag_86\n      jumpi\n      pop\n        /* \"Voting.sol\":5877:5878  0 */\n      0x00\n        /* \"Voting.sol\":5863:5873  proposalId */\n      dup2\n        /* \"Voting.sol\":5863:5878  proposalId == 0 */\n      eq\n        /* \"Voting.sol\":5821:5878  proposalId >= session.proposals.length && proposalId == 0 */\n    tag_86:\n        /* \"Voting.sol\":5817:5937  if (proposalId >= session.proposals.length && proposalId == 0) {... */\n      iszero\n      tag_87\n      jumpi\n        /* \"Voting.sol\":5915:5925  proposalId */\n      dup1\n        /* \"Voting.sol\":5901:5926  WrongProposal(proposalId) */\n      mload(0x40)\n      0x442633c800000000000000000000000000000000000000000000000000000000\n      dup2\n      mstore\n      0x04\n      add\n      tag_88\n      swap2\n      swap1\n      tag_51\n      jump\t// in\n    tag_88:\n      mload(0x40)\n      dup1\n      swap2\n      sub\n      swap1\n      revert\n        /* \"Voting.sol\":5817:5937  if (proposalId >= session.proposals.length && proposalId == 0) {... */\n    tag_87:\n        /* \"Voting.sol\":5950:5957  session */\n      0x01\n        /* \"Voting.sol\":5950:5964  session.voters */\n      dup1\n      add\n        /* \"Voting.sol\":5950:5976  session.voters[msg.sender] */\n      0x00\n        /* \"Voting.sol\":5965:5975  msg.sender */\n      caller\n        /* \"Voting.sol\":5950:5976  session.voters[msg.sender] */\n      0xffffffffffffffffffffffffffffffffffffffff\n      and\n      0xffffffffffffffffffffffffffffffffffffffff\n      and\n      dup2\n      mstore\n      0x20\n      add\n      swap1\n      dup2\n      mstore\n      0x20\n      add\n      0x00\n      keccak256\n        /* \"Voting.sol\":5950:5985  session.voters[msg.sender].hasVoted */\n      0x00\n      add\n      0x01\n      swap1\n      sload\n      swap1\n      0x0100\n      exp\n      swap1\n      div\n      0xff\n      and\n        /* \"Voting.sol\":5946:6043  if (session.voters[msg.sender].hasVoted) {... */\n      iszero\n      tag_89\n      jumpi\n        /* \"Voting.sol\":6021:6031  msg.sender */\n      caller\n        /* \"Voting.sol\":6008:6032  AlreadyVoted(msg.sender) */\n      mload(0x40)\n      0xd449d67400000000000000000000000000000000000000000000000000000000\n      dup2\n      mstore\n      0x04\n      add\n      tag_90\n      swap2\n      swap1\n      tag_57\n      jump\t// in\n    tag_90:\n      mload(0x40)\n      dup1\n      swap2\n      sub\n      swap1\n      revert\n        /* \"Voting.sol\":5946:6043  if (session.voters[msg.sender].hasVoted) {... */\n    tag_89:\n        /* \"Voting.sol\":6090:6094  true */\n      0x01\n        /* \"Voting.sol\":6052:6059  session */\n      dup1\n        /* \"Voting.sol\":6052:6066  session.voters */\n      0x01\n      add\n        /* \"Voting.sol\":6052:6078  session.voters[msg.sender] */\n      0x00\n        /* \"Voting.sol\":6067:6077  msg.sender */\n      caller\n        /* \"Voting.sol\":6052:6078  session.voters[msg.sender] */\n      0xffffffffffffffffffffffffffffffffffffffff\n      and\n      0xffffffffffffffffffffffffffffffffffffffff\n      and\n      dup2\n      mstore\n      0x20\n      add\n      swap1\n      dup2\n      mstore\n      0x20\n      add\n      0x00\n      keccak256\n        /* \"Voting.sol\":6052:6087  session.voters[msg.sender].hasVoted */\n      0x00\n      add\n      0x01\n        /* \"Voting.sol\":6052:6094  session.voters[msg.sender].hasVoted = true */\n      0x0100\n      exp\n      dup2\n      sload\n      dup2\n      0xff\n      mul\n      not\n      and\n      swap1\n      dup4\n      iszero\n      iszero\n      mul\n      or\n      swap1\n      sstore\n      pop\n        /* \"Voting.sol\":6149:6159  proposalId */\n      dup1\n        /* \"Voting.sol\":6104:6111  session */\n      0x01\n        /* \"Voting.sol\":6104:6118  session.voters */\n      dup1\n      add\n        /* \"Voting.sol\":6104:6130  session.voters[msg.sender] */\n      0x00\n        /* \"Voting.sol\":6119:6129  msg.sender */\n      caller\n        /* \"Voting.sol\":6104:6130  session.voters[msg.sender] */\n      0xffffffffffffffffffffffffffffffffffffffff\n      and\n      0xffffffffffffffffffffffffffffffffffffffff\n      and\n      dup2\n      mstore\n      0x20\n      add\n      swap1\n      dup2\n      mstore\n      0x20\n      add\n      0x00\n      keccak256\n        /* \"Voting.sol\":6104:6146  session.voters[msg.sender].votedProposalId */\n      0x01\n      add\n        /* \"Voting.sol\":6104:6159  session.voters[msg.sender].votedProposalId = proposalId */\n      dup2\n      swap1\n      sstore\n      pop\n        /* \"Voting.sol\":6169:6176  session */\n      0x01\n        /* \"Voting.sol\":6169:6186  session.proposals */\n      0x03\n      add\n        /* \"Voting.sol\":6187:6197  proposalId */\n      dup2\n        /* \"Voting.sol\":6169:6198  session.proposals[proposalId] */\n      dup2\n      sload\n      dup2\n      lt\n      tag_91\n      jumpi\n      tag_92\n      tag_93\n      jump\t// in\n    tag_92:\n    tag_91:\n      swap1\n      0x00\n      mstore\n      keccak256(0x00, 0x20)\n      swap1\n      0x02\n      mul\n      add\n        /* \"Voting.sol\":6169:6208  session.proposals[proposalId].voteCount */\n      0x01\n      add\n      0x00\n        /* \"Voting.sol\":6169:6210  session.proposals[proposalId].voteCount++ */\n      dup2\n      sload\n      dup1\n      swap3\n      swap2\n      swap1\n      tag_95\n      swap1\n      tag_96\n      jump\t// in\n    tag_95:\n      swap2\n      swap1\n      pop\n      sstore\n      pop\n        /* \"Voting.sol\":6225:6254  Voted(msg.sender, proposalId) */\n      0x4d99b957a2bc29a30ebd96a7be8e68fe50a3c701db28a91436490b7d53870ca4\n        /* \"Voting.sol\":6231:6241  msg.sender */\n      caller\n        /* \"Voting.sol\":6243:6253  proposalId */\n      dup3\n        /* \"Voting.sol\":6225:6254  Voted(msg.sender, proposalId) */\n      mload(0x40)\n      tag_97\n      swap3\n      swap2\n      swap1\n      tag_98\n      jump\t// in\n    tag_97:\n      mload(0x40)\n      dup1\n      swap2\n      sub\n      swap1\n      log1\n        /* \"Voting.sol\":5753:6261  function vote(uint256 proposalId) external onlyVoters {... */\n      pop\n      jump\t// out\n        /* \"Voting.sol\":8368:8618  function resetProposals() external onlyOwner {... */\n    tag_30:\n        /* \"@openzeppelin/contracts/access/Ownable.sol\":1094:1107  _checkOwner() */\n      tag_100\n        /* \"@openzeppelin/contracts/access/Ownable.sol\":1094:1105  _checkOwner */\n      tag_101\n        /* \"@openzeppelin/contracts/access/Ownable.sol\":1094:1107  _checkOwner() */\n      jump\t// in\n    tag_100:\n        /* \"Voting.sol\":8423:8444  WorkflowStatus status */\n      0x00\n        /* \"Voting.sol\":8447:8454  session */\n      0x01\n        /* \"Voting.sol\":8447:8461  session.status */\n      0x00\n      add\n      0x00\n      swap1\n      sload\n      swap1\n      0x0100\n      exp\n      swap1\n      div\n      0xff\n      and\n        /* \"Voting.sol\":8423:8461  WorkflowStatus status = session.status */\n      swap1\n      pop\n        /* \"Voting.sol\":8488:8523  WorkflowStatus.VotingSessionStarted */\n      0x03\n        /* \"Voting.sol\":8471:8478  session */\n      0x01\n        /* \"Voting.sol\":8471:8485  session.status */\n      0x00\n      add\n      0x00\n        /* \"Voting.sol\":8471:8523  session.status = WorkflowStatus.VotingSessionStarted */\n      0x0100\n      exp\n      dup2\n      sload\n      dup2\n      0xff\n      mul\n      not\n      and\n      swap1\n      dup4\n      0x05\n      dup2\n      gt\n      iszero\n      tag_103\n      jumpi\n      tag_104\n      tag_105\n      jump\t// in\n    tag_104:\n    tag_103:\n      mul\n      or\n      swap1\n      sstore\n      pop\n        /* \"Voting.sol\":8534:8551  _resetProposals() */\n      tag_106\n        /* \"Voting.sol\":8534:8549  _resetProposals */\n      tag_107\n        /* \"Voting.sol\":8534:8551  _resetProposals() */\n      jump\t// in\n    tag_106:\n        /* \"Voting.sol\":8567:8611  WorkflowStatusChange(status, session.status) */\n      0x0a97a4ee45751e2abf3e4fc8946939630b11b371ea8ae39ccdc3056e98f5cc3f\n        /* \"Voting.sol\":8588:8594  status */\n      dup2\n        /* \"Voting.sol\":8596:8603  session */\n      0x01\n        /* \"Voting.sol\":8596:8610  session.status */\n      0x00\n      add\n      0x00\n      swap1\n      sload\n      swap1\n      0x0100\n      exp\n      swap1\n      div\n      0xff\n      and\n        /* \"Voting.sol\":8567:8611  WorkflowStatusChange(status, session.status) */\n      mload(0x40)\n      tag_108\n      swap3\n      swap2\n      swap1\n      tag_109\n      jump\t// in\n    tag_108:\n      mload(0x40)\n      dup1\n      swap2\n      sub\n      swap1\n      log1\n        /* \"Voting.sol\":8413:8618  {... */\n      pop\n        /* \"Voting.sol\":8368:8618  function resetProposals() external onlyOwner {... */\n      jump\t// out\n        /* \"Voting.sol\":4212:4607  function startProposalRegistration()... */\n    tag_32:\n        /* \"@openzeppelin/contracts/access/Ownable.sol\":1094:1107  _checkOwner() */\n      tag_111\n        /* \"@openzeppelin/contracts/access/Ownable.sol\":1094:1105  _checkOwner */\n      tag_101\n        /* \"@openzeppelin/contracts/access/Ownable.sol\":1094:1107  _checkOwner() */\n      jump\t// in\n    tag_111:\n        /* \"Voting.sol\":2919:2964  _wrongPhase(WorkflowStatus.RegisteringVoters) */\n      tag_113\n        /* \"Voting.sol\":2931:2963  WorkflowStatus.RegisteringVoters */\n      0x00\n        /* \"Voting.sol\":2919:2930  _wrongPhase */\n      tag_114\n        /* \"Voting.sol\":2919:2964  _wrongPhase(WorkflowStatus.RegisteringVoters) */\n      jump\t// in\n    tag_113:\n        /* \"Voting.sol\":4326:4347  WorkflowStatus status */\n      0x00\n        /* \"Voting.sol\":4350:4357  session */\n      0x01\n        /* \"Voting.sol\":4350:4364  session.status */\n      0x00\n      add\n      0x00\n      swap1\n      sload\n      swap1\n      0x0100\n      exp\n      swap1\n      div\n      0xff\n      and\n        /* \"Voting.sol\":4326:4364  WorkflowStatus status = session.status */\n      swap1\n      pop\n        /* \"Voting.sol\":4391:4434  WorkflowStatus.ProposalsRegistrationStarted */\n      0x01\n        /* \"Voting.sol\":4374:4381  session */\n      dup1\n        /* \"Voting.sol\":4374:4388  session.status */\n      0x00\n      add\n      0x00\n        /* \"Voting.sol\":4374:4434  session.status = WorkflowStatus.ProposalsRegistrationStarted */\n      0x0100\n      exp\n      dup2\n      sload\n      dup2\n      0xff\n      mul\n      not\n      and\n      swap1\n      dup4\n      0x05\n      dup2\n      gt\n      iszero\n      tag_116\n      jumpi\n      tag_117\n      tag_105\n      jump\t// in\n    tag_117:\n    tag_116:\n      mul\n      or\n      swap1\n      sstore\n      pop\n        /* \"Voting.sol\":4512:4540  Proposal(\"void bulletin\", 0) */\n      mload(0x40)\n      dup1\n      0x40\n      add\n      0x40\n      mstore\n      dup1\n      mload(0x40)\n      dup1\n      0x40\n      add\n      0x40\n      mstore\n      dup1\n      0x0d\n      dup2\n      mstore\n      0x20\n      add\n      0x766f69642062756c6c6574696e00000000000000000000000000000000000000\n      dup2\n      mstore\n      pop\n      dup2\n      mstore\n      0x20\n      add\n        /* \"Voting.sol\":4538:4539  0 */\n      0x00\n        /* \"Voting.sol\":4512:4540  Proposal(\"void bulletin\", 0) */\n      dup2\n      mstore\n      pop\n        /* \"Voting.sol\":4489:4496  session */\n      0x01\n        /* \"Voting.sol\":4489:4506  session.proposals */\n      0x03\n      add\n        /* \"Voting.sol\":4507:4508  0 */\n      0x00\n        /* \"Voting.sol\":4489:4509  session.proposals[0] */\n      dup2\n      sload\n      dup2\n      lt\n      tag_118\n      jumpi\n      tag_119\n      tag_93\n      jump\t// in\n    tag_119:\n    tag_118:\n      swap1\n      0x00\n      mstore\n      keccak256(0x00, 0x20)\n      swap1\n      0x02\n      mul\n      add\n        /* \"Voting.sol\":4489:4540  session.proposals[0] = Proposal(\"void bulletin\", 0) */\n      0x00\n      dup3\n      add\n      mload\n      dup2\n      0x00\n      add\n      swap1\n      dup2\n      tag_121\n      swap2\n      swap1\n      tag_122\n      jump\t// in\n    tag_121:\n      pop\n      0x20\n      dup3\n      add\n      mload\n      dup2\n      0x01\n      add\n      sstore\n      swap1\n      pop\n      pop\n        /* \"Voting.sol\":4556:4600  WorkflowStatusChange(status, session.status) */\n      0x0a97a4ee45751e2abf3e4fc8946939630b11b371ea8ae39ccdc3056e98f5cc3f\n        /* \"Voting.sol\":4577:4583  status */\n      dup2\n        /* \"Voting.sol\":4585:4592  session */\n      0x01\n        /* \"Voting.sol\":4585:4599  session.status */\n      0x00\n      add\n      0x00\n      swap1\n      sload\n      swap1\n      0x0100\n      exp\n      swap1\n      div\n      0xff\n      and\n        /* \"Voting.sol\":4556:4600  WorkflowStatusChange(status, session.status) */\n      mload(0x40)\n      tag_123\n      swap3\n      swap2\n      swap1\n      tag_109\n      jump\t// in\n    tag_123:\n      mload(0x40)\n      dup1\n      swap2\n      sub\n      swap1\n      log1\n        /* \"Voting.sol\":4316:4607  {... */\n      pop\n        /* \"Voting.sol\":4212:4607  function startProposalRegistration()... */\n      jump\t// out\n        /* \"Voting.sol\":4906:5229  function registerProposal(string memory description)... */\n    tag_36:\n        /* \"Voting.sol\":2568:2575  session */\n      0x01\n        /* \"Voting.sol\":2568:2582  session.voters */\n      dup1\n      add\n        /* \"Voting.sol\":2568:2594  session.voters[msg.sender] */\n      0x00\n        /* \"Voting.sol\":2583:2593  msg.sender */\n      caller\n        /* \"Voting.sol\":2568:2594  session.voters[msg.sender] */\n      0xffffffffffffffffffffffffffffffffffffffff\n      and\n      0xffffffffffffffffffffffffffffffffffffffff\n      and\n      dup2\n      mstore\n      0x20\n      add\n      swap1\n      dup2\n      mstore\n      0x20\n      add\n      0x00\n      keccak256\n        /* \"Voting.sol\":2568:2607  session.voters[msg.sender].isRegistered */\n      0x00\n      add\n      0x00\n      swap1\n      sload\n      swap1\n      0x0100\n      exp\n      swap1\n      div\n      0xff\n      and\n        /* \"Voting.sol\":2563:2670  if (!session.voters[msg.sender].isRegistered) {... */\n      tag_125\n      jumpi\n        /* \"Voting.sol\":2648:2658  msg.sender */\n      caller\n        /* \"Voting.sol\":2630:2659  UnRegisteredVoter(msg.sender) */\n      mload(0x40)\n      0xaffa818a00000000000000000000000000000000000000000000000000000000\n      dup2\n      mstore\n      0x04\n      add\n      tag_126\n      swap2\n      swap1\n      tag_57\n      jump\t// in\n    tag_126:\n      mload(0x40)\n      dup1\n      swap2\n      sub\n      swap1\n      revert\n        /* \"Voting.sol\":2563:2670  if (!session.voters[msg.sender].isRegistered) {... */\n    tag_125:\n        /* \"Voting.sol\":3031:3087  _wrongPhase(WorkflowStatus.ProposalsRegistrationStarted) */\n      tag_128\n        /* \"Voting.sol\":3043:3086  WorkflowStatus.ProposalsRegistrationStarted */\n      0x01\n        /* \"Voting.sol\":3031:3042  _wrongPhase */\n      tag_114\n        /* \"Voting.sol\":3031:3087  _wrongPhase(WorkflowStatus.ProposalsRegistrationStarted) */\n      jump\t// in\n    tag_128:\n        /* \"Voting.sol\":5074:5092  uint256 proposalId */\n      0x00\n        /* \"Voting.sol\":5095:5102  session */\n      0x01\n        /* \"Voting.sol\":5095:5112  session.proposals */\n      0x03\n      add\n        /* \"Voting.sol\":5095:5119  session.proposals.length */\n      dup1\n      sload\n      swap1\n      pop\n        /* \"Voting.sol\":5074:5119  uint256 proposalId = session.proposals.length */\n      swap1\n      pop\n        /* \"Voting.sol\":5129:5136  session */\n      0x01\n        /* \"Voting.sol\":5129:5146  session.proposals */\n      0x03\n      add\n        /* \"Voting.sol\":5152:5176  Proposal(description, 0) */\n      mload(0x40)\n      dup1\n      0x40\n      add\n      0x40\n      mstore\n      dup1\n        /* \"Voting.sol\":5161:5172  description */\n      dup5\n        /* \"Voting.sol\":5152:5176  Proposal(description, 0) */\n      dup2\n      mstore\n      0x20\n      add\n        /* \"Voting.sol\":5174:5175  0 */\n      0x00\n        /* \"Voting.sol\":5152:5176  Proposal(description, 0) */\n      dup2\n      mstore\n      pop\n        /* \"Voting.sol\":5129:5177  session.proposals.push(Proposal(description, 0)) */\n      swap1\n      dup1\n      0x01\n      dup2\n      sload\n      add\n      dup1\n      dup3\n      sstore\n      dup1\n      swap2\n      pop\n      pop\n      0x01\n      swap1\n      sub\n      swap1\n      0x00\n      mstore\n      keccak256(0x00, 0x20)\n      swap1\n      0x02\n      mul\n      add\n      0x00\n      swap1\n      swap2\n      swap1\n      swap2\n      swap1\n      swap2\n      pop\n      0x00\n      dup3\n      add\n      mload\n      dup2\n      0x00\n      add\n      swap1\n      dup2\n      tag_131\n      swap2\n      swap1\n      tag_122\n      jump\t// in\n    tag_131:\n      pop\n      0x20\n      dup3\n      add\n      mload\n      dup2\n      0x01\n      add\n      sstore\n      pop\n      pop\n        /* \"Voting.sol\":5192:5222  ProposalRegistered(proposalId) */\n      0x92e393e9b54e2f801d3ea4beb0c5e71a21cc34a5d34b77d0fb8a3aa1650dc18f\n        /* \"Voting.sol\":5211:5221  proposalId */\n      dup2\n        /* \"Voting.sol\":5192:5222  ProposalRegistered(proposalId) */\n      mload(0x40)\n      tag_132\n      swap2\n      swap1\n      tag_51\n      jump\t// in\n    tag_132:\n      mload(0x40)\n      dup1\n      swap2\n      sub\n      swap1\n      log1\n        /* \"Voting.sol\":5030:5229  {... */\n      pop\n        /* \"Voting.sol\":4906:5229  function registerProposal(string memory description)... */\n      pop\n      jump\t// out\n        /* \"Voting.sol\":7108:7261  function getAllVoters()... */\n    tag_38:\n        /* \"Voting.sol\":7198:7214  address[] memory */\n      0x60\n        /* \"Voting.sol\":2568:2575  session */\n      0x01\n        /* \"Voting.sol\":2568:2582  session.voters */\n      dup1\n      add\n        /* \"Voting.sol\":2568:2594  session.voters[msg.sender] */\n      0x00\n        /* \"Voting.sol\":2583:2593  msg.sender */\n      caller\n        /* \"Voting.sol\":2568:2594  session.voters[msg.sender] */\n      0xffffffffffffffffffffffffffffffffffffffff\n      and\n      0xffffffffffffffffffffffffffffffffffffffff\n      and\n      dup2\n      mstore\n      0x20\n      add\n      swap1\n      dup2\n      mstore\n      0x20\n      add\n      0x00\n      keccak256\n        /* \"Voting.sol\":2568:2607  session.voters[msg.sender].isRegistered */\n      0x00\n      add\n      0x00\n      swap1\n      sload\n      swap1\n      0x0100\n      exp\n      swap1\n      div\n      0xff\n      and\n        /* \"Voting.sol\":2563:2670  if (!session.voters[msg.sender].isRegistered) {... */\n      tag_134\n      jumpi\n        /* \"Voting.sol\":2648:2658  msg.sender */\n      caller\n        /* \"Voting.sol\":2630:2659  UnRegisteredVoter(msg.sender) */\n      mload(0x40)\n      0xaffa818a00000000000000000000000000000000000000000000000000000000\n      dup2\n      mstore\n      0x04\n      add\n      tag_135\n      swap2\n      swap1\n      tag_57\n      jump\t// in\n    tag_135:\n      mload(0x40)\n      dup1\n      swap2\n      sub\n      swap1\n      revert\n        /* \"Voting.sol\":2563:2670  if (!session.voters[msg.sender].isRegistered) {... */\n    tag_134:\n        /* \"Voting.sol\":7237:7244  session */\n      0x01\n        /* \"Voting.sol\":7237:7254  session.idxVoters */\n      0x02\n      add\n        /* \"Voting.sol\":7230:7254  return session.idxVoters */\n      dup1\n      sload\n      dup1\n      0x20\n      mul\n      0x20\n      add\n      mload(0x40)\n      swap1\n      dup2\n      add\n      0x40\n      mstore\n      dup1\n      swap3\n      swap2\n      swap1\n      dup2\n      dup2\n      mstore\n      0x20\n      add\n      dup3\n      dup1\n      sload\n      dup1\n      iszero\n      tag_137\n      jumpi\n      0x20\n      mul\n      dup3\n      add\n      swap2\n      swap1\n      0x00\n      mstore\n      keccak256(0x00, 0x20)\n      swap1\n    tag_138:\n      dup2\n      0x00\n      swap1\n      sload\n      swap1\n      0x0100\n      exp\n      swap1\n      div\n      0xffffffffffffffffffffffffffffffffffffffff\n      and\n      0xffffffffffffffffffffffffffffffffffffffff\n      and\n      dup2\n      mstore\n      0x20\n      add\n      swap1\n      0x01\n      add\n      swap1\n      dup1\n      dup4\n      gt\n      tag_138\n      jumpi\n    tag_137:\n      pop\n      pop\n      pop\n      pop\n      pop\n      swap1\n      pop\n        /* \"Voting.sol\":7108:7261  function getAllVoters()... */\n      swap1\n      jump\t// out\n        /* \"Voting.sol\":6297:6884  function tallyVotes() external voteSessionDone {... */\n    tag_42:\n        /* \"Voting.sol\":3379:3427  _wrongPhase(WorkflowStatus.VotingSessionStarted) */\n      tag_140\n        /* \"Voting.sol\":3391:3426  WorkflowStatus.VotingSessionStarted */\n      0x03\n        /* \"Voting.sol\":3379:3390  _wrongPhase */\n      tag_114\n        /* \"Voting.sol\":3379:3427  _wrongPhase(WorkflowStatus.VotingSessionStarted) */\n      jump\t// in\n    tag_140:\n        /* \"Voting.sol\":6354:6374  uint256 maxVoteCount */\n      0x00\n        /* \"Voting.sol\":6388:6408  uint256 mainProposal */\n      dup1\n        /* \"Voting.sol\":6427:6436  uint256 i */\n      0x00\n        /* \"Voting.sol\":6439:6440  1 */\n      0x01\n        /* \"Voting.sol\":6427:6440  uint256 i = 1 */\n      swap1\n      pop\n        /* \"Voting.sol\":6422:6664  for (uint256 i = 1; i < session.proposals.length; i++) {... */\n    tag_142:\n        /* \"Voting.sol\":6446:6453  session */\n      0x01\n        /* \"Voting.sol\":6446:6463  session.proposals */\n      0x03\n      add\n        /* \"Voting.sol\":6446:6470  session.proposals.length */\n      dup1\n      sload\n      swap1\n      pop\n        /* \"Voting.sol\":6442:6443  i */\n      dup2\n        /* \"Voting.sol\":6442:6470  i < session.proposals.length */\n      lt\n        /* \"Voting.sol\":6422:6664  for (uint256 i = 1; i < session.proposals.length; i++) {... */\n      iszero\n      tag_143\n      jumpi\n        /* \"Voting.sol\":6528:6540  maxVoteCount */\n      dup3\n        /* \"Voting.sol\":6495:6502  session */\n      0x01\n        /* \"Voting.sol\":6495:6512  session.proposals */\n      0x03\n      add\n        /* \"Voting.sol\":6513:6514  i */\n      dup3\n        /* \"Voting.sol\":6495:6515  session.proposals[i] */\n      dup2\n      sload\n      dup2\n      lt\n      tag_145\n      jumpi\n      tag_146\n      tag_93\n      jump\t// in\n    tag_146:\n    tag_145:\n      swap1\n      0x00\n      mstore\n      keccak256(0x00, 0x20)\n      swap1\n      0x02\n      mul\n      add\n        /* \"Voting.sol\":6495:6525  session.proposals[i].voteCount */\n      0x01\n      add\n      sload\n        /* \"Voting.sol\":6495:6540  session.proposals[i].voteCount > maxVoteCount */\n      gt\n        /* \"Voting.sol\":6491:6654  if (session.proposals[i].voteCount > maxVoteCount) {... */\n      iszero\n      tag_148\n      jumpi\n        /* \"Voting.sol\":6575:6582  session */\n      0x01\n        /* \"Voting.sol\":6575:6592  session.proposals */\n      0x03\n      add\n        /* \"Voting.sol\":6593:6594  i */\n      dup2\n        /* \"Voting.sol\":6575:6595  session.proposals[i] */\n      dup2\n      sload\n      dup2\n      lt\n      tag_149\n      jumpi\n      tag_150\n      tag_93\n      jump\t// in\n    tag_150:\n    tag_149:\n      swap1\n      0x00\n      mstore\n      keccak256(0x00, 0x20)\n      swap1\n      0x02\n      mul\n      add\n        /* \"Voting.sol\":6575:6605  session.proposals[i].voteCount */\n      0x01\n      add\n      sload\n        /* \"Voting.sol\":6560:6605  maxVoteCount = session.proposals[i].voteCount */\n      swap3\n      pop\n        /* \"Voting.sol\":6638:6639  i */\n      dup1\n        /* \"Voting.sol\":6623:6639  mainProposal = i */\n      swap2\n      pop\n        /* \"Voting.sol\":6491:6654  if (session.proposals[i].voteCount > maxVoteCount) {... */\n    tag_148:\n        /* \"Voting.sol\":6472:6475  i++ */\n      dup1\n      dup1\n      tag_152\n      swap1\n      tag_96\n      jump\t// in\n    tag_152:\n      swap2\n      pop\n      pop\n        /* \"Voting.sol\":6422:6664  for (uint256 i = 1; i < session.proposals.length; i++) {... */\n      jump(tag_142)\n    tag_143:\n      pop\n        /* \"Voting.sol\":6702:6714  mainProposal */\n      dup1\n        /* \"Voting.sol\":6674:6681  session */\n      0x01\n        /* \"Voting.sol\":6674:6699  session.winningProposalId */\n      0x04\n      add\n        /* \"Voting.sol\":6674:6714  session.winningProposalId = mainProposal */\n      dup2\n      swap1\n      sstore\n      pop\n        /* \"Voting.sol\":6725:6746  WorkflowStatus status */\n      0x00\n        /* \"Voting.sol\":6749:6756  session */\n      0x01\n        /* \"Voting.sol\":6749:6763  session.status */\n      0x00\n      add\n      0x00\n      swap1\n      sload\n      swap1\n      0x0100\n      exp\n      swap1\n      div\n      0xff\n      and\n        /* \"Voting.sol\":6725:6763  WorkflowStatus status = session.status */\n      swap1\n      pop\n        /* \"Voting.sol\":6790:6817  WorkflowStatus.VotesTallied */\n      0x05\n        /* \"Voting.sol\":6773:6780  session */\n      0x01\n        /* \"Voting.sol\":6773:6787  session.status */\n      0x00\n      add\n      0x00\n        /* \"Voting.sol\":6773:6817  session.status = WorkflowStatus.VotesTallied */\n      0x0100\n      exp\n      dup2\n      sload\n      dup2\n      0xff\n      mul\n      not\n      and\n      swap1\n      dup4\n      0x05\n      dup2\n      gt\n      iszero\n      tag_153\n      jumpi\n      tag_154\n      tag_105\n      jump\t// in\n    tag_154:\n    tag_153:\n      mul\n      or\n      swap1\n      sstore\n      pop\n        /* \"Voting.sol\":6833:6877  WorkflowStatusChange(status, session.status) */\n      0x0a97a4ee45751e2abf3e4fc8946939630b11b371ea8ae39ccdc3056e98f5cc3f\n        /* \"Voting.sol\":6854:6860  status */\n      dup2\n        /* \"Voting.sol\":6862:6869  session */\n      0x01\n        /* \"Voting.sol\":6862:6876  session.status */\n      0x00\n      add\n      0x00\n      swap1\n      sload\n      swap1\n      0x0100\n      exp\n      swap1\n      div\n      0xff\n      and\n        /* \"Voting.sol\":6833:6877  WorkflowStatusChange(status, session.status) */\n      mload(0x40)\n      tag_155\n      swap3\n      swap2\n      swap1\n      tag_109\n      jump\t// in\n    tag_155:\n      mload(0x40)\n      dup1\n      swap2\n      sub\n      swap1\n      log1\n        /* \"Voting.sol\":6344:6884  {... */\n      pop\n      pop\n      pop\n        /* \"Voting.sol\":6297:6884  function tallyVotes() external voteSessionDone {... */\n      jump\t// out\n        /* \"Voting.sol\":3581:3938  function registerVoter(address _voter)... */\n    tag_46:\n        /* \"@openzeppelin/contracts/access/Ownable.sol\":1094:1107  _checkOwner() */\n      tag_157\n        /* \"@openzeppelin/contracts/access/Ownable.sol\":1094:1105  _checkOwner */\n      tag_101\n        /* \"@openzeppelin/contracts/access/Ownable.sol\":1094:1107  _checkOwner() */\n      jump\t// in\n    tag_157:\n        /* \"Voting.sol\":2919:2964  _wrongPhase(WorkflowStatus.RegisteringVoters) */\n      tag_159\n        /* \"Voting.sol\":2931:2963  WorkflowStatus.RegisteringVoters */\n      0x00\n        /* \"Voting.sol\":2919:2930  _wrongPhase */\n      tag_114\n        /* \"Voting.sol\":2919:2964  _wrongPhase(WorkflowStatus.RegisteringVoters) */\n      jump\t// in\n    tag_159:\n        /* \"Voting.sol\":3700:3707  session */\n      0x01\n        /* \"Voting.sol\":3700:3714  session.voters */\n      dup1\n      add\n        /* \"Voting.sol\":3700:3722  session.voters[_voter] */\n      0x00\n        /* \"Voting.sol\":3715:3721  _voter */\n      dup3\n        /* \"Voting.sol\":3700:3722  session.voters[_voter] */\n      0xffffffffffffffffffffffffffffffffffffffff\n      and\n      0xffffffffffffffffffffffffffffffffffffffff\n      and\n      dup2\n      mstore\n      0x20\n      add\n      swap1\n      dup2\n      mstore\n      0x20\n      add\n      0x00\n      keccak256\n        /* \"Voting.sol\":3700:3735  session.voters[_voter].isRegistered */\n      0x00\n      add\n      0x00\n      swap1\n      sload\n      swap1\n      0x0100\n      exp\n      swap1\n      div\n      0xff\n      and\n        /* \"Voting.sol\":3695:3797  if (!session.voters[_voter].isRegistered) {... */\n      tag_161\n      jumpi\n        /* \"Voting.sol\":3779:3785  _voter */\n      dup1\n        /* \"Voting.sol\":3758:3786  AlreadyRegisterVoter(_voter) */\n      mload(0x40)\n      0x7ecf313d00000000000000000000000000000000000000000000000000000000\n      dup2\n      mstore\n      0x04\n      add\n      tag_162\n      swap2\n      swap1\n      tag_57\n      jump\t// in\n    tag_162:\n      mload(0x40)\n      dup1\n      swap2\n      sub\n      swap1\n      revert\n        /* \"Voting.sol\":3695:3797  if (!session.voters[_voter].isRegistered) {... */\n    tag_161:\n        /* \"Voting.sol\":3807:3814  session */\n      0x01\n        /* \"Voting.sol\":3807:3824  session.idxVoters */\n      0x02\n      add\n        /* \"Voting.sol\":3830:3836  _voter */\n      dup2\n        /* \"Voting.sol\":3807:3837  session.idxVoters.push(_voter) */\n      swap1\n      dup1\n      0x01\n      dup2\n      sload\n      add\n      dup1\n      dup3\n      sstore\n      dup1\n      swap2\n      pop\n      pop\n      0x01\n      swap1\n      sub\n      swap1\n      0x00\n      mstore\n      keccak256(0x00, 0x20)\n      add\n      0x00\n      swap1\n      swap2\n      swap1\n      swap2\n      swap1\n      swap2\n      0x0100\n      exp\n      dup2\n      sload\n      dup2\n      0xffffffffffffffffffffffffffffffffffffffff\n      mul\n      not\n      and\n      swap1\n      dup4\n      0xffffffffffffffffffffffffffffffffffffffff\n      and\n      mul\n      or\n      swap1\n      sstore\n      pop\n        /* \"Voting.sol\":3872:3893  Voter(true, false, 0) */\n      mload(0x40)\n      dup1\n      0x60\n      add\n      0x40\n      mstore\n      dup1\n        /* \"Voting.sol\":3878:3882  true */\n      0x01\n        /* \"Voting.sol\":3872:3893  Voter(true, false, 0) */\n      iszero\n      iszero\n      dup2\n      mstore\n      0x20\n      add\n        /* \"Voting.sol\":3884:3889  false */\n      0x00\n        /* \"Voting.sol\":3872:3893  Voter(true, false, 0) */\n      iszero\n      iszero\n      dup2\n      mstore\n      0x20\n      add\n        /* \"Voting.sol\":3891:3892  0 */\n      0x00\n        /* \"Voting.sol\":3872:3893  Voter(true, false, 0) */\n      dup2\n      mstore\n      pop\n        /* \"Voting.sol\":3847:3854  session */\n      0x01\n        /* \"Voting.sol\":3847:3861  session.voters */\n      dup1\n      add\n        /* \"Voting.sol\":3847:3869  session.voters[_voter] */\n      0x00\n        /* \"Voting.sol\":3862:3868  _voter */\n      dup4\n        /* \"Voting.sol\":3847:3869  session.voters[_voter] */\n      0xffffffffffffffffffffffffffffffffffffffff\n      and\n      0xffffffffffffffffffffffffffffffffffffffff\n      and\n      dup2\n      mstore\n      0x20\n      add\n      swap1\n      dup2\n      mstore\n      0x20\n      add\n      0x00\n      keccak256\n        /* \"Voting.sol\":3847:3893  session.voters[_voter] = Voter(true, false, 0) */\n      0x00\n      dup3\n      add\n      mload\n      dup2\n      0x00\n      add\n      exp(0x0100, 0x00)\n      dup2\n      sload\n      dup2\n      0xff\n      mul\n      not\n      and\n      swap1\n      dup4\n      iszero\n      iszero\n      mul\n      or\n      swap1\n      sstore\n      pop\n      0x20\n      dup3\n      add\n      mload\n      dup2\n      0x00\n      add\n      exp(0x0100, 0x01)\n      dup2\n      sload\n      dup2\n      0xff\n      mul\n      not\n      and\n      swap1\n      dup4\n      iszero\n      iszero\n      mul\n      or\n      swap1\n      sstore\n      pop\n      0x40\n      dup3\n      add\n      mload\n      dup2\n      0x01\n      add\n      sstore\n      swap1\n      pop\n      pop\n        /* \"Voting.sol\":3908:3931  VoterRegistered(_voter) */\n      0xb6be2187d059cc2a55fe29e0e503b566e1e0f8c8780096e185429350acffd3dd\n        /* \"Voting.sol\":3924:3930  _voter */\n      dup2\n        /* \"Voting.sol\":3908:3931  VoterRegistered(_voter) */\n      mload(0x40)\n      tag_164\n      swap2\n      swap1\n      tag_57\n      jump\t// in\n    tag_164:\n      mload(0x40)\n      dup1\n      swap2\n      sub\n      swap1\n      log1\n        /* \"Voting.sol\":3581:3938  function registerVoter(address _voter)... */\n      pop\n      jump\t// out\n        /* \"Voting.sol\":7590:8089  function getVoteOfVoter(address _voter) external view onlyVoters returns (uint256) {... */\n    tag_49:\n        /* \"Voting.sol\":7664:7671  uint256 */\n      0x00\n        /* \"Voting.sol\":2568:2575  session */\n      0x01\n        /* \"Voting.sol\":2568:2582  session.voters */\n      dup1\n      add\n        /* \"Voting.sol\":2568:2594  session.voters[msg.sender] */\n      0x00\n        /* \"Voting.sol\":2583:2593  msg.sender */\n      caller\n        /* \"Voting.sol\":2568:2594  session.voters[msg.sender] */\n      0xffffffffffffffffffffffffffffffffffffffff\n      and\n      0xffffffffffffffffffffffffffffffffffffffff\n      and\n      dup2\n      mstore\n      0x20\n      add\n      swap1\n      dup2\n      mstore\n      0x20\n      add\n      0x00\n      keccak256\n        /* \"Voting.sol\":2568:2607  session.voters[msg.sender].isRegistered */\n      0x00\n      add\n      0x00\n      swap1\n      sload\n      swap1\n      0x0100\n      exp\n      swap1\n      div\n      0xff\n      and\n        /* \"Voting.sol\":2563:2670  if (!session.voters[msg.sender].isRegistered) {... */\n      tag_166\n      jumpi\n        /* \"Voting.sol\":2648:2658  msg.sender */\n      caller\n        /* \"Voting.sol\":2630:2659  UnRegisteredVoter(msg.sender) */\n      mload(0x40)\n      0xaffa818a00000000000000000000000000000000000000000000000000000000\n      dup2\n      mstore\n      0x04\n      add\n      tag_167\n      swap2\n      swap1\n      tag_57\n      jump\t// in\n    tag_167:\n      mload(0x40)\n      dup1\n      swap2\n      sub\n      swap1\n      revert\n        /* \"Voting.sol\":2563:2670  if (!session.voters[msg.sender].isRegistered) {... */\n    tag_166:\n        /* \"Voting.sol\":7704:7736  WorkflowStatus.RegisteringVoters */\n      0x00\n        /* \"Voting.sol\":7686:7736  session.status == WorkflowStatus.RegisteringVoters */\n      0x05\n      dup2\n      gt\n      iszero\n      tag_169\n      jumpi\n      tag_170\n      tag_105\n      jump\t// in\n    tag_170:\n    tag_169:\n        /* \"Voting.sol\":7686:7693  session */\n      0x01\n        /* \"Voting.sol\":7686:7700  session.status */\n      0x00\n      add\n      0x00\n      swap1\n      sload\n      swap1\n      0x0100\n      exp\n      swap1\n      div\n      0xff\n      and\n        /* \"Voting.sol\":7686:7736  session.status == WorkflowStatus.RegisteringVoters */\n      0x05\n      dup2\n      gt\n      iszero\n      tag_171\n      jumpi\n      tag_172\n      tag_105\n      jump\t// in\n    tag_172:\n    tag_171:\n      sub\n        /* \"Voting.sol\":7683:7794  if(session.status == WorkflowStatus.RegisteringVoters) {... */\n      tag_173\n      jumpi\n        /* \"Voting.sol\":7759:7783  VotersNotYetRegistered() */\n      mload(0x40)\n      0xfdc03ce900000000000000000000000000000000000000000000000000000000\n      dup2\n      mstore\n      0x04\n      add\n      mload(0x40)\n      dup1\n      swap2\n      sub\n      swap1\n      revert\n        /* \"Voting.sol\":7683:7794  if(session.status == WorkflowStatus.RegisteringVoters) {... */\n    tag_173:\n        /* \"Voting.sol\":7809:7816  session */\n      0x01\n        /* \"Voting.sol\":7809:7823  session.voters */\n      dup1\n      add\n        /* \"Voting.sol\":7809:7831  session.voters[_voter] */\n      0x00\n        /* \"Voting.sol\":7824:7830  _voter */\n      dup4\n        /* \"Voting.sol\":7809:7831  session.voters[_voter] */\n      0xffffffffffffffffffffffffffffffffffffffff\n      and\n      0xffffffffffffffffffffffffffffffffffffffff\n      and\n      dup2\n      mstore\n      0x20\n      add\n      swap1\n      dup2\n      mstore\n      0x20\n      add\n      0x00\n      keccak256\n        /* \"Voting.sol\":7809:7844  session.voters[_voter].isRegistered */\n      0x00\n      add\n      0x00\n      swap1\n      sload\n      swap1\n      0x0100\n      exp\n      swap1\n      div\n      0xff\n      and\n        /* \"Voting.sol\":7804:7903  if (!session.voters[_voter].isRegistered) {... */\n      tag_174\n      jumpi\n        /* \"Voting.sol\":7885:7891  _voter */\n      dup2\n        /* \"Voting.sol\":7867:7892  UnRegisteredVoter(_voter) */\n      mload(0x40)\n      0xaffa818a00000000000000000000000000000000000000000000000000000000\n      dup2\n      mstore\n      0x04\n      add\n      tag_175\n      swap2\n      swap1\n      tag_57\n      jump\t// in\n    tag_175:\n      mload(0x40)\n      dup1\n      swap2\n      sub\n      swap1\n      revert\n        /* \"Voting.sol\":7804:7903  if (!session.voters[_voter].isRegistered) {... */\n    tag_174:\n        /* \"Voting.sol\":7958:7959  0 */\n      0x00\n        /* \"Voting.sol\":7916:7923  session */\n      0x01\n        /* \"Voting.sol\":7916:7930  session.voters */\n      dup1\n      add\n        /* \"Voting.sol\":7916:7938  session.voters[_voter] */\n      0x00\n        /* \"Voting.sol\":7931:7937  _voter */\n      dup5\n        /* \"Voting.sol\":7916:7938  session.voters[_voter] */\n      0xffffffffffffffffffffffffffffffffffffffff\n      and\n      0xffffffffffffffffffffffffffffffffffffffff\n      and\n      dup2\n      mstore\n      0x20\n      add\n      swap1\n      dup2\n      mstore\n      0x20\n      add\n      0x00\n      keccak256\n        /* \"Voting.sol\":7916:7954  session.voters[_voter].votedProposalId */\n      0x01\n      add\n      sload\n        /* \"Voting.sol\":7916:7959  session.voters[_voter].votedProposalId == 0 */\n      sub\n        /* \"Voting.sol\":7913:8019  if(session.voters[_voter].votedProposalId == 0) {... */\n      tag_176\n      jumpi\n        /* \"Voting.sol\":8001:8007  _voter */\n      dup2\n        /* \"Voting.sol\":7982:8008  MissingVoteOfVoter(_voter) */\n      mload(0x40)\n      0x61f8aead00000000000000000000000000000000000000000000000000000000\n      dup2\n      mstore\n      0x04\n      add\n      tag_177\n      swap2\n      swap1\n      tag_57\n      jump\t// in\n    tag_177:\n      mload(0x40)\n      dup1\n      swap2\n      sub\n      swap1\n      revert\n        /* \"Voting.sol\":7913:8019  if(session.voters[_voter].votedProposalId == 0) {... */\n    tag_176:\n        /* \"Voting.sol\":8044:8051  session */\n      0x01\n        /* \"Voting.sol\":8044:8058  session.voters */\n      dup1\n      add\n        /* \"Voting.sol\":8044:8066  session.voters[_voter] */\n      0x00\n        /* \"Voting.sol\":8059:8065  _voter */\n      dup4\n        /* \"Voting.sol\":8044:8066  session.voters[_voter] */\n      0xffffffffffffffffffffffffffffffffffffffff\n      and\n      0xffffffffffffffffffffffffffffffffffffffff\n      and\n      dup2\n      mstore\n      0x20\n      add\n      swap1\n      dup2\n      mstore\n      0x20\n      add\n      0x00\n      keccak256\n        /* \"Voting.sol\":8044:8082  session.voters[_voter].votedProposalId */\n      0x01\n      add\n      sload\n        /* \"Voting.sol\":8037:8082  return session.voters[_voter].votedProposalId */\n      swap1\n      pop\n        /* \"Voting.sol\":7590:8089  function getVoteOfVoter(address _voter) external view onlyVoters returns (uint256) {... */\n      swap2\n      swap1\n      pop\n      jump\t// out\n        /* \"@openzeppelin/contracts/access/Ownable.sol\":1824:1925  function renounceOwnership() public virtual onlyOwner {... */\n    tag_53:\n        /* \"@openzeppelin/contracts/access/Ownable.sol\":1094:1107  _checkOwner() */\n      tag_179\n        /* \"@openzeppelin/contracts/access/Ownable.sol\":1094:1105  _checkOwner */\n      tag_101\n        /* \"@openzeppelin/contracts/access/Ownable.sol\":1094:1107  _checkOwner() */\n      jump\t// in\n    tag_179:\n        /* \"@openzeppelin/contracts/access/Ownable.sol\":1888:1918  _transferOwnership(address(0)) */\n      tag_181\n        /* \"@openzeppelin/contracts/access/Ownable.sol\":1915:1916  0 */\n      0x00\n        /* \"@openzeppelin/contracts/access/Ownable.sol\":1888:1906  _transferOwnership */\n      tag_182\n        /* \"@openzeppelin/contracts/access/Ownable.sol\":1888:1918  _transferOwnership(address(0)) */\n      jump\t// in\n    tag_181:\n        /* \"@openzeppelin/contracts/access/Ownable.sol\":1824:1925  function renounceOwnership() public virtual onlyOwner {... */\n      jump\t// out\n        /* \"@openzeppelin/contracts/access/Ownable.sol\":1201:1286  function owner() public view virtual returns (address) {... */\n    tag_55:\n        /* \"@openzeppelin/contracts/access/Ownable.sol\":1247:1254  address */\n      0x00\n        /* \"@openzeppelin/contracts/access/Ownable.sol\":1273:1279  _owner */\n      dup1\n      0x00\n      swap1\n      sload\n      swap1\n      0x0100\n      exp\n      swap1\n      div\n      0xffffffffffffffffffffffffffffffffffffffff\n      and\n        /* \"@openzeppelin/contracts/access/Ownable.sol\":1266:1279  return _owner */\n      swap1\n      pop\n        /* \"@openzeppelin/contracts/access/Ownable.sol\":1201:1286  function owner() public view virtual returns (address) {... */\n      swap1\n      jump\t// out\n        /* \"Voting.sol\":6890:7060  function getWinner()... */\n    tag_59:\n        /* \"Voting.sol\":6998:7005  uint256 */\n      0x00\n        /* \"Voting.sol\":2568:2575  session */\n      0x01\n        /* \"Voting.sol\":2568:2582  session.voters */\n      dup1\n      add\n        /* \"Voting.sol\":2568:2594  session.voters[msg.sender] */\n      0x00\n        /* \"Voting.sol\":2583:2593  msg.sender */\n      caller\n        /* \"Voting.sol\":2568:2594  session.voters[msg.sender] */\n      0xffffffffffffffffffffffffffffffffffffffff\n      and\n      0xffffffffffffffffffffffffffffffffffffffff\n      and\n      dup2\n      mstore\n      0x20\n      add\n      swap1\n      dup2\n      mstore\n      0x20\n      add\n      0x00\n      keccak256\n        /* \"Voting.sol\":2568:2607  session.voters[msg.sender].isRegistered */\n      0x00\n      add\n      0x00\n      swap1\n      sload\n      swap1\n      0x0100\n      exp\n      swap1\n      div\n      0xff\n      and\n        /* \"Voting.sol\":2563:2670  if (!session.voters[msg.sender].isRegistered) {... */\n      tag_185\n      jumpi\n        /* \"Voting.sol\":2648:2658  msg.sender */\n      caller\n        /* \"Voting.sol\":2630:2659  UnRegisteredVoter(msg.sender) */\n      mload(0x40)\n      0xaffa818a00000000000000000000000000000000000000000000000000000000\n      dup2\n      mstore\n      0x04\n      add\n      tag_186\n      swap2\n      swap1\n      tag_57\n      jump\t// in\n    tag_186:\n      mload(0x40)\n      dup1\n      swap2\n      sub\n      swap1\n      revert\n        /* \"Voting.sol\":2563:2670  if (!session.voters[msg.sender].isRegistered) {... */\n    tag_185:\n        /* \"Voting.sol\":3485:3525  _wrongPhase(WorkflowStatus.VotesTallied) */\n      tag_188\n        /* \"Voting.sol\":3497:3524  WorkflowStatus.VotesTallied */\n      0x05\n        /* \"Voting.sol\":3485:3496  _wrongPhase */\n      tag_114\n        /* \"Voting.sol\":3485:3525  _wrongPhase(WorkflowStatus.VotesTallied) */\n      jump\t// in\n    tag_188:\n        /* \"Voting.sol\":7028:7035  session */\n      0x01\n        /* \"Voting.sol\":7028:7053  session.winningProposalId */\n      0x04\n      add\n      sload\n        /* \"Voting.sol\":7021:7053  return session.winningProposalId */\n      swap1\n      pop\n        /* \"Voting.sol\":6890:7060  function getWinner()... */\n      swap1\n      jump\t// out\n        /* \"Voting.sol\":5260:5504  function startVoteSession() external onlyOwner registerProposalDone {... */\n    tag_62:\n        /* \"@openzeppelin/contracts/access/Ownable.sol\":1094:1107  _checkOwner() */\n      tag_191\n        /* \"@openzeppelin/contracts/access/Ownable.sol\":1094:1105  _checkOwner */\n      tag_101\n        /* \"@openzeppelin/contracts/access/Ownable.sol\":1094:1107  _checkOwner() */\n      jump\t// in\n    tag_191:\n        /* \"Voting.sol\":3153:3207  _wrongPhase(WorkflowStatus.ProposalsRegistrationEnded) */\n      tag_193\n        /* \"Voting.sol\":3165:3206  WorkflowStatus.ProposalsRegistrationEnded */\n      0x02\n        /* \"Voting.sol\":3153:3164  _wrongPhase */\n      tag_114\n        /* \"Voting.sol\":3153:3207  _wrongPhase(WorkflowStatus.ProposalsRegistrationEnded) */\n      jump\t// in\n    tag_193:\n        /* \"Voting.sol\":5338:5359  WorkflowStatus status */\n      0x00\n        /* \"Voting.sol\":5362:5369  session */\n      0x01\n        /* \"Voting.sol\":5362:5376  session.status */\n      0x00\n      add\n      0x00\n      swap1\n      sload\n      swap1\n      0x0100\n      exp\n      swap1\n      div\n      0xff\n      and\n        /* \"Voting.sol\":5338:5376  WorkflowStatus status = session.status */\n      swap1\n      pop\n        /* \"Voting.sol\":5403:5438  WorkflowStatus.VotingSessionStarted */\n      0x03\n        /* \"Voting.sol\":5386:5393  session */\n      0x01\n        /* \"Voting.sol\":5386:5400  session.status */\n      0x00\n      add\n      0x00\n        /* \"Voting.sol\":5386:5438  session.status = WorkflowStatus.VotingSessionStarted */\n      0x0100\n      exp\n      dup2\n      sload\n      dup2\n      0xff\n      mul\n      not\n      and\n      swap1\n      dup4\n      0x05\n      dup2\n      gt\n      iszero\n      tag_195\n      jumpi\n      tag_196\n      tag_105\n      jump\t// in\n    tag_196:\n    tag_195:\n      mul\n      or\n      swap1\n      sstore\n      pop\n        /* \"Voting.sol\":5453:5497  WorkflowStatusChange(status, session.status) */\n      0x0a97a4ee45751e2abf3e4fc8946939630b11b371ea8ae39ccdc3056e98f5cc3f\n        /* \"Voting.sol\":5474:5480  status */\n      dup2\n        /* \"Voting.sol\":5482:5489  session */\n      0x01\n        /* \"Voting.sol\":5482:5496  session.status */\n      0x00\n      add\n      0x00\n      swap1\n      sload\n      swap1\n      0x0100\n      exp\n      swap1\n      div\n      0xff\n      and\n        /* \"Voting.sol\":5453:5497  WorkflowStatusChange(status, session.status) */\n      mload(0x40)\n      tag_197\n      swap3\n      swap2\n      swap1\n      tag_109\n      jump\t// in\n    tag_197:\n      mload(0x40)\n      dup1\n      swap2\n      sub\n      swap1\n      log1\n        /* \"Voting.sol\":5328:5504  {... */\n      pop\n        /* \"Voting.sol\":5260:5504  function startVoteSession() external onlyOwner registerProposalDone {... */\n      jump\t// out\n        /* \"Voting.sol\":8624:8866  function resetVotes() external onlyOwner {... */\n    tag_64:\n        /* \"@openzeppelin/contracts/access/Ownable.sol\":1094:1107  _checkOwner() */\n      tag_199\n        /* \"@openzeppelin/contracts/access/Ownable.sol\":1094:1105  _checkOwner */\n      tag_101\n        /* \"@openzeppelin/contracts/access/Ownable.sol\":1094:1107  _checkOwner() */\n      jump\t// in\n    tag_199:\n        /* \"Voting.sol\":8675:8696  WorkflowStatus status */\n      0x00\n        /* \"Voting.sol\":8699:8706  session */\n      0x01\n        /* \"Voting.sol\":8699:8713  session.status */\n      0x00\n      add\n      0x00\n      swap1\n      sload\n      swap1\n      0x0100\n      exp\n      swap1\n      div\n      0xff\n      and\n        /* \"Voting.sol\":8675:8713  WorkflowStatus status = session.status */\n      swap1\n      pop\n        /* \"Voting.sol\":8740:8775  WorkflowStatus.VotingSessionStarted */\n      0x03\n        /* \"Voting.sol\":8723:8730  session */\n      0x01\n        /* \"Voting.sol\":8723:8737  session.status */\n      0x00\n      add\n      0x00\n        /* \"Voting.sol\":8723:8775  session.status = WorkflowStatus.VotingSessionStarted */\n      0x0100\n      exp\n      dup2\n      sload\n      dup2\n      0xff\n      mul\n      not\n      and\n      swap1\n      dup4\n      0x05\n      dup2\n      gt\n      iszero\n      tag_201\n      jumpi\n      tag_202\n      tag_105\n      jump\t// in\n    tag_202:\n    tag_201:\n      mul\n      or\n      swap1\n      sstore\n      pop\n        /* \"Voting.sol\":8786:8799  _resetVotes() */\n      tag_203\n        /* \"Voting.sol\":8786:8797  _resetVotes */\n      tag_204\n        /* \"Voting.sol\":8786:8799  _resetVotes() */\n      jump\t// in\n    tag_203:\n        /* \"Voting.sol\":8815:8859  WorkflowStatusChange(status, session.status) */\n      0x0a97a4ee45751e2abf3e4fc8946939630b11b371ea8ae39ccdc3056e98f5cc3f\n        /* \"Voting.sol\":8836:8842  status */\n      dup2\n        /* \"Voting.sol\":8844:8851  session */\n      0x01\n        /* \"Voting.sol\":8844:8858  session.status */\n      0x00\n      add\n      0x00\n      swap1\n      sload\n      swap1\n      0x0100\n      exp\n      swap1\n      div\n      0xff\n      and\n        /* \"Voting.sol\":8815:8859  WorkflowStatusChange(status, session.status) */\n      mload(0x40)\n      tag_205\n      swap3\n      swap2\n      swap1\n      tag_109\n      jump\t// in\n    tag_205:\n      mload(0x40)\n      dup1\n      swap2\n      sub\n      swap1\n      log1\n        /* \"Voting.sol\":8665:8866  {... */\n      pop\n        /* \"Voting.sol\":8624:8866  function resetVotes() external onlyOwner {... */\n      jump\t// out\n        /* \"Voting.sol\":7267:7584  function getAllProposals()... */\n    tag_66:\n        /* \"Voting.sol\":7360:7377  Proposal[] memory */\n      0x60\n        /* \"Voting.sol\":2568:2575  session */\n      0x01\n        /* \"Voting.sol\":2568:2582  session.voters */\n      dup1\n      add\n        /* \"Voting.sol\":2568:2594  session.voters[msg.sender] */\n      0x00\n        /* \"Voting.sol\":2583:2593  msg.sender */\n      caller\n        /* \"Voting.sol\":2568:2594  session.voters[msg.sender] */\n      0xffffffffffffffffffffffffffffffffffffffff\n      and\n      0xffffffffffffffffffffffffffffffffffffffff\n      and\n      dup2\n      mstore\n      0x20\n      add\n      swap1\n      dup2\n      mstore\n      0x20\n      add\n      0x00\n      keccak256\n        /* \"Voting.sol\":2568:2607  session.voters[msg.sender].isRegistered */\n      0x00\n      add\n      0x00\n      swap1\n      sload\n      swap1\n      0x0100\n      exp\n      swap1\n      div\n      0xff\n      and\n        /* \"Voting.sol\":2563:2670  if (!session.voters[msg.sender].isRegistered) {... */\n      tag_207\n      jumpi\n        /* \"Voting.sol\":2648:2658  msg.sender */\n      caller\n        /* \"Voting.sol\":2630:2659  UnRegisteredVoter(msg.sender) */\n      mload(0x40)\n      0xaffa818a00000000000000000000000000000000000000000000000000000000\n      dup2\n      mstore\n      0x04\n      add\n      tag_208\n      swap2\n      swap1\n      tag_57\n      jump\t// in\n    tag_208:\n      mload(0x40)\n      dup1\n      swap2\n      sub\n      swap1\n      revert\n        /* \"Voting.sol\":2563:2670  if (!session.voters[msg.sender].isRegistered) {... */\n    tag_207:\n        /* \"Voting.sol\":7432:7464  WorkflowStatus.RegisteringVoters */\n      0x00\n        /* \"Voting.sol\":7414:7464  session.status != WorkflowStatus.RegisteringVoters */\n      0x05\n      dup2\n      gt\n      iszero\n      tag_210\n      jumpi\n      tag_211\n      tag_105\n      jump\t// in\n    tag_211:\n    tag_210:\n        /* \"Voting.sol\":7414:7421  session */\n      0x01\n        /* \"Voting.sol\":7414:7428  session.status */\n      0x00\n      add\n      0x00\n      swap1\n      sload\n      swap1\n      0x0100\n      exp\n      swap1\n      div\n      0xff\n      and\n        /* \"Voting.sol\":7414:7464  session.status != WorkflowStatus.RegisteringVoters */\n      0x05\n      dup2\n      gt\n      iszero\n      tag_212\n      jumpi\n      tag_213\n      tag_105\n      jump\t// in\n    tag_213:\n    tag_212:\n      sub\n        /* \"Voting.sol\":7393:7542  require(... */\n      tag_214\n      jumpi\n      mload(0x40)\n      0x08c379a000000000000000000000000000000000000000000000000000000000\n      dup2\n      mstore\n      0x04\n      add\n      tag_215\n      swap1\n      tag_216\n      jump\t// in\n    tag_215:\n      mload(0x40)\n      dup1\n      swap2\n      sub\n      swap1\n      revert\n    tag_214:\n        /* \"Voting.sol\":7560:7567  session */\n      0x01\n        /* \"Voting.sol\":7560:7577  session.proposals */\n      0x03\n      add\n        /* \"Voting.sol\":7553:7577  return session.proposals */\n      dup1\n      sload\n      dup1\n      0x20\n      mul\n      0x20\n      add\n      mload(0x40)\n      swap1\n      dup2\n      add\n      0x40\n      mstore\n      dup1\n      swap3\n      swap2\n      swap1\n      dup2\n      dup2\n      mstore\n      0x20\n      add\n      0x00\n      swap1\n    tag_217:\n      dup3\n      dup3\n      lt\n      iszero\n      tag_218\n      jumpi\n      dup4\n      dup3\n      swap1\n      0x00\n      mstore\n      keccak256(0x00, 0x20)\n      swap1\n      0x02\n      mul\n      add\n      mload(0x40)\n      dup1\n      0x40\n      add\n      0x40\n      mstore\n      swap1\n      dup2\n      0x00\n      dup3\n      add\n      dup1\n      sload\n      tag_220\n      swap1\n      tag_221\n      jump\t// in\n    tag_220:\n      dup1\n      0x1f\n      add\n      0x20\n      dup1\n      swap2\n      div\n      mul\n      0x20\n      add\n      mload(0x40)\n      swap1\n      dup2\n      add\n      0x40\n      mstore\n      dup1\n      swap3\n      swap2\n      swap1\n      dup2\n      dup2\n      mstore\n      0x20\n      add\n      dup3\n      dup1\n      sload\n      tag_222\n      swap1\n      tag_221\n      jump\t// in\n    tag_222:\n      dup1\n      iszero\n      tag_223\n      jumpi\n      dup1\n      0x1f\n      lt\n      tag_224\n      jumpi\n      0x0100\n      dup1\n      dup4\n      sload\n      div\n      mul\n      dup4\n      mstore\n      swap2\n      0x20\n      add\n      swap2\n      jump(tag_223)\n    tag_224:\n      dup3\n      add\n      swap2\n      swap1\n      0x00\n      mstore\n      keccak256(0x00, 0x20)\n      swap1\n    tag_225:\n      dup2\n      sload\n      dup2\n      mstore\n      swap1\n      0x01\n      add\n      swap1\n      0x20\n      add\n      dup1\n      dup4\n      gt\n      tag_225\n      jumpi\n      dup3\n      swap1\n      sub\n      0x1f\n      and\n      dup3\n      add\n      swap2\n    tag_223:\n      pop\n      pop\n      pop\n      pop\n      pop\n      dup2\n      mstore\n      0x20\n      add\n      0x01\n      dup3\n      add\n      sload\n      dup2\n      mstore\n      pop\n      pop\n      dup2\n      mstore\n      0x20\n      add\n      swap1\n      0x01\n      add\n      swap1\n      jump(tag_217)\n    tag_218:\n      pop\n      pop\n      pop\n      pop\n      swap1\n      pop\n        /* \"Voting.sol\":7267:7584  function getAllProposals()... */\n      swap1\n      jump\t// out\n        /* \"Voting.sol\":3944:4173  function registerVoters(address[] memory _voters)... */\n    tag_72:\n        /* \"@openzeppelin/contracts/access/Ownable.sol\":1094:1107  _checkOwner() */\n      tag_227\n        /* \"@openzeppelin/contracts/access/Ownable.sol\":1094:1105  _checkOwner */\n      tag_101\n        /* \"@openzeppelin/contracts/access/Ownable.sol\":1094:1107  _checkOwner() */\n      jump\t// in\n    tag_227:\n        /* \"Voting.sol\":2919:2964  _wrongPhase(WorkflowStatus.RegisteringVoters) */\n      tag_229\n        /* \"Voting.sol\":2931:2963  WorkflowStatus.RegisteringVoters */\n      0x00\n        /* \"Voting.sol\":2919:2930  _wrongPhase */\n      tag_114\n        /* \"Voting.sol\":2919:2964  _wrongPhase(WorkflowStatus.RegisteringVoters) */\n      jump\t// in\n    tag_229:\n        /* \"Voting.sol\":4076:4085  uint256 i */\n      0x00\n        /* \"Voting.sol\":4071:4167  for (uint256 i = 0; i <= _voters.length; i++) {... */\n    tag_231:\n        /* \"Voting.sol\":4096:4103  _voters */\n      dup2\n        /* \"Voting.sol\":4096:4110  _voters.length */\n      mload\n        /* \"Voting.sol\":4091:4092  i */\n      dup2\n        /* \"Voting.sol\":4091:4110  i <= _voters.length */\n      gt\n        /* \"Voting.sol\":4071:4167  for (uint256 i = 0; i <= _voters.length; i++) {... */\n      tag_232\n      jumpi\n        /* \"Voting.sol\":4131:4156  registerVoter(_voters[i]) */\n      tag_234\n        /* \"Voting.sol\":4145:4152  _voters */\n      dup3\n        /* \"Voting.sol\":4153:4154  i */\n      dup3\n        /* \"Voting.sol\":4145:4155  _voters[i] */\n      dup2\n      mload\n      dup2\n      lt\n      tag_235\n      jumpi\n      tag_236\n      tag_93\n      jump\t// in\n    tag_236:\n    tag_235:\n      0x20\n      mul\n      0x20\n      add\n      add\n      mload\n        /* \"Voting.sol\":4131:4144  registerVoter */\n      tag_46\n        /* \"Voting.sol\":4131:4156  registerVoter(_voters[i]) */\n      jump\t// in\n    tag_234:\n        /* \"Voting.sol\":4112:4115  i++ */\n      dup1\n      dup1\n      tag_237\n      swap1\n      tag_96\n      jump\t// in\n    tag_237:\n      swap2\n      pop\n      pop\n        /* \"Voting.sol\":4071:4167  for (uint256 i = 0; i <= _voters.length; i++) {... */\n      jump(tag_231)\n    tag_232:\n      pop\n        /* \"Voting.sol\":3944:4173  function registerVoters(address[] memory _voters)... */\n      pop\n      jump\t// out\n        /* \"Voting.sol\":4613:4900  function endProposalRegistration()... */\n    tag_74:\n        /* \"@openzeppelin/contracts/access/Ownable.sol\":1094:1107  _checkOwner() */\n      tag_239\n        /* \"@openzeppelin/contracts/access/Ownable.sol\":1094:1105  _checkOwner */\n      tag_101\n        /* \"@openzeppelin/contracts/access/Ownable.sol\":1094:1107  _checkOwner() */\n      jump\t// in\n    tag_239:\n        /* \"Voting.sol\":3031:3087  _wrongPhase(WorkflowStatus.ProposalsRegistrationStarted) */\n      tag_241\n        /* \"Voting.sol\":3043:3086  WorkflowStatus.ProposalsRegistrationStarted */\n      0x01\n        /* \"Voting.sol\":3031:3042  _wrongPhase */\n      tag_114\n        /* \"Voting.sol\":3031:3087  _wrongPhase(WorkflowStatus.ProposalsRegistrationStarted) */\n      jump\t// in\n    tag_241:\n        /* \"Voting.sol\":4728:4749  WorkflowStatus status */\n      0x00\n        /* \"Voting.sol\":4752:4759  session */\n      0x01\n        /* \"Voting.sol\":4752:4766  session.status */\n      0x00\n      add\n      0x00\n      swap1\n      sload\n      swap1\n      0x0100\n      exp\n      swap1\n      div\n      0xff\n      and\n        /* \"Voting.sol\":4728:4766  WorkflowStatus status = session.status */\n      swap1\n      pop\n        /* \"Voting.sol\":4793:4834  WorkflowStatus.ProposalsRegistrationEnded */\n      0x02\n        /* \"Voting.sol\":4776:4783  session */\n      0x01\n        /* \"Voting.sol\":4776:4790  session.status */\n      0x00\n      add\n      0x00\n        /* \"Voting.sol\":4776:4834  session.status = WorkflowStatus.ProposalsRegistrationEnded */\n      0x0100\n      exp\n      dup2\n      sload\n      dup2\n      0xff\n      mul\n      not\n      and\n      swap1\n      dup4\n      0x05\n      dup2\n      gt\n      iszero\n      tag_243\n      jumpi\n      tag_244\n      tag_105\n      jump\t// in\n    tag_244:\n    tag_243:\n      mul\n      or\n      swap1\n      sstore\n      pop\n        /* \"Voting.sol\":4849:4893  WorkflowStatusChange(status, session.status) */\n      0x0a97a4ee45751e2abf3e4fc8946939630b11b371ea8ae39ccdc3056e98f5cc3f\n        /* \"Voting.sol\":4870:4876  status */\n      dup2\n        /* \"Voting.sol\":4878:4885  session */\n      0x01\n        /* \"Voting.sol\":4878:4892  session.status */\n      0x00\n      add\n      0x00\n      swap1\n      sload\n      swap1\n      0x0100\n      exp\n      swap1\n      div\n      0xff\n      and\n        /* \"Voting.sol\":4849:4893  WorkflowStatusChange(status, session.status) */\n      mload(0x40)\n      tag_245\n      swap3\n      swap2\n      swap1\n      tag_109\n      jump\t// in\n    tag_245:\n      mload(0x40)\n      dup1\n      swap2\n      sub\n      swap1\n      log1\n        /* \"Voting.sol\":4718:4900  {... */\n      pop\n        /* \"Voting.sol\":4613:4900  function endProposalRegistration()... */\n      jump\t// out\n        /* \"@openzeppelin/contracts/access/Ownable.sol\":2074:2272  function transferOwnership(address newOwner) public virtual onlyOwner {... */\n    tag_77:\n        /* \"@openzeppelin/contracts/access/Ownable.sol\":1094:1107  _checkOwner() */\n      tag_247\n        /* \"@openzeppelin/contracts/access/Ownable.sol\":1094:1105  _checkOwner */\n      tag_101\n        /* \"@openzeppelin/contracts/access/Ownable.sol\":1094:1107  _checkOwner() */\n      jump\t// in\n    tag_247:\n        /* \"@openzeppelin/contracts/access/Ownable.sol\":2182:2183  0 */\n      0x00\n        /* \"@openzeppelin/contracts/access/Ownable.sol\":2162:2184  newOwner != address(0) */\n      0xffffffffffffffffffffffffffffffffffffffff\n      and\n        /* \"@openzeppelin/contracts/access/Ownable.sol\":2162:2170  newOwner */\n      dup2\n        /* \"@openzeppelin/contracts/access/Ownable.sol\":2162:2184  newOwner != address(0) */\n      0xffffffffffffffffffffffffffffffffffffffff\n      and\n      sub\n        /* \"@openzeppelin/contracts/access/Ownable.sol\":2154:2227  require(newOwner != address(0), \"Ownable: new owner is the zero address\") */\n      tag_249\n      jumpi\n      mload(0x40)\n      0x08c379a000000000000000000000000000000000000000000000000000000000\n      dup2\n      mstore\n      0x04\n      add\n      tag_250\n      swap1\n      tag_251\n      jump\t// in\n    tag_250:\n      mload(0x40)\n      dup1\n      swap2\n      sub\n      swap1\n      revert\n    tag_249:\n        /* \"@openzeppelin/contracts/access/Ownable.sol\":2237:2265  _transferOwnership(newOwner) */\n      tag_252\n        /* \"@openzeppelin/contracts/access/Ownable.sol\":2256:2264  newOwner */\n      dup2\n        /* \"@openzeppelin/contracts/access/Ownable.sol\":2237:2255  _transferOwnership */\n      tag_182\n        /* \"@openzeppelin/contracts/access/Ownable.sol\":2237:2265  _transferOwnership(newOwner) */\n      jump\t// in\n    tag_252:\n        /* \"@openzeppelin/contracts/access/Ownable.sol\":2074:2272  function transferOwnership(address newOwner) public virtual onlyOwner {... */\n      pop\n      jump\t// out\n        /* \"Voting.sol\":5510:5747  function endVoteSession() external onlyOwner voteSessionActive {... */\n    tag_79:\n        /* \"@openzeppelin/contracts/access/Ownable.sol\":1094:1107  _checkOwner() */\n      tag_254\n        /* \"@openzeppelin/contracts/access/Ownable.sol\":1094:1105  _checkOwner */\n      tag_101\n        /* \"@openzeppelin/contracts/access/Ownable.sol\":1094:1107  _checkOwner() */\n      jump\t// in\n    tag_254:\n        /* \"Voting.sol\":3270:3318  _wrongPhase(WorkflowStatus.VotingSessionStarted) */\n      tag_256\n        /* \"Voting.sol\":3282:3317  WorkflowStatus.VotingSessionStarted */\n      0x03\n        /* \"Voting.sol\":3270:3281  _wrongPhase */\n      tag_114\n        /* \"Voting.sol\":3270:3318  _wrongPhase(WorkflowStatus.VotingSessionStarted) */\n      jump\t// in\n    tag_256:\n        /* \"Voting.sol\":5583:5604  WorkflowStatus status */\n      0x00\n        /* \"Voting.sol\":5607:5614  session */\n      0x01\n        /* \"Voting.sol\":5607:5621  session.status */\n      0x00\n      add\n      0x00\n      swap1\n      sload\n      swap1\n      0x0100\n      exp\n      swap1\n      div\n      0xff\n      and\n        /* \"Voting.sol\":5583:5621  WorkflowStatus status = session.status */\n      swap1\n      pop\n        /* \"Voting.sol\":5648:5681  WorkflowStatus.VotingSessionEnded */\n      0x04\n        /* \"Voting.sol\":5631:5638  session */\n      0x01\n        /* \"Voting.sol\":5631:5645  session.status */\n      0x00\n      add\n      0x00\n        /* \"Voting.sol\":5631:5681  session.status = WorkflowStatus.VotingSessionEnded */\n      0x0100\n      exp\n      dup2\n      sload\n      dup2\n      0xff\n      mul\n      not\n      and\n      swap1\n      dup4\n      0x05\n      dup2\n      gt\n      iszero\n      tag_258\n      jumpi\n      tag_259\n      tag_105\n      jump\t// in\n    tag_259:\n    tag_258:\n      mul\n      or\n      swap1\n      sstore\n      pop\n        /* \"Voting.sol\":5696:5740  WorkflowStatusChange(status, session.status) */\n      0x0a97a4ee45751e2abf3e4fc8946939630b11b371ea8ae39ccdc3056e98f5cc3f\n        /* \"Voting.sol\":5717:5723  status */\n      dup2\n        /* \"Voting.sol\":5725:5732  session */\n      0x01\n        /* \"Voting.sol\":5725:5739  session.status */\n      0x00\n      add\n      0x00\n      swap1\n      sload\n      swap1\n      0x0100\n      exp\n      swap1\n      div\n      0xff\n      and\n        /* \"Voting.sol\":5696:5740  WorkflowStatusChange(status, session.status) */\n      mload(0x40)\n      tag_260\n      swap3\n      swap2\n      swap1\n      tag_109\n      jump\t// in\n    tag_260:\n      mload(0x40)\n      dup1\n      swap2\n      sub\n      swap1\n      log1\n        /* \"Voting.sol\":5573:5747  {... */\n      pop\n        /* \"Voting.sol\":5510:5747  function endVoteSession() external onlyOwner voteSessionActive {... */\n      jump\t// out\n        /* \"Voting.sol\":8120:8362  function resetSession() external onlyOwner {... */\n    tag_81:\n        /* \"@openzeppelin/contracts/access/Ownable.sol\":1094:1107  _checkOwner() */\n      tag_262\n        /* \"@openzeppelin/contracts/access/Ownable.sol\":1094:1105  _checkOwner */\n      tag_101\n        /* \"@openzeppelin/contracts/access/Ownable.sol\":1094:1107  _checkOwner() */\n      jump\t// in\n    tag_262:\n        /* \"Voting.sol\":8173:8194  WorkflowStatus status */\n      0x00\n        /* \"Voting.sol\":8197:8204  session */\n      0x01\n        /* \"Voting.sol\":8197:8211  session.status */\n      0x00\n      add\n      0x00\n      swap1\n      sload\n      swap1\n      0x0100\n      exp\n      swap1\n      div\n      0xff\n      and\n        /* \"Voting.sol\":8173:8211  WorkflowStatus status = session.status */\n      swap1\n      pop\n        /* \"Voting.sol\":8238:8270  WorkflowStatus.RegisteringVoters */\n      0x00\n        /* \"Voting.sol\":8221:8228  session */\n      0x01\n        /* \"Voting.sol\":8221:8235  session.status */\n      0x00\n      add\n      0x00\n        /* \"Voting.sol\":8221:8270  session.status = WorkflowStatus.RegisteringVoters */\n      0x0100\n      exp\n      dup2\n      sload\n      dup2\n      0xff\n      mul\n      not\n      and\n      swap1\n      dup4\n      0x05\n      dup2\n      gt\n      iszero\n      tag_264\n      jumpi\n      tag_265\n      tag_105\n      jump\t// in\n    tag_265:\n    tag_264:\n      mul\n      or\n      swap1\n      sstore\n      pop\n        /* \"Voting.sol\":8281:8295  _resetVoters() */\n      tag_266\n        /* \"Voting.sol\":8281:8293  _resetVoters */\n      tag_267\n        /* \"Voting.sol\":8281:8295  _resetVoters() */\n      jump\t// in\n    tag_266:\n        /* \"Voting.sol\":8311:8355  WorkflowStatusChange(status, session.status) */\n      0x0a97a4ee45751e2abf3e4fc8946939630b11b371ea8ae39ccdc3056e98f5cc3f\n        /* \"Voting.sol\":8332:8338  status */\n      dup2\n        /* \"Voting.sol\":8340:8347  session */\n      0x01\n        /* \"Voting.sol\":8340:8354  session.status */\n      0x00\n      add\n      0x00\n      swap1\n      sload\n      swap1\n      0x0100\n      exp\n      swap1\n      div\n      0xff\n      and\n        /* \"Voting.sol\":8311:8355  WorkflowStatusChange(status, session.status) */\n      mload(0x40)\n      tag_268\n      swap3\n      swap2\n      swap1\n      tag_109\n      jump\t// in\n    tag_268:\n      mload(0x40)\n      dup1\n      swap2\n      sub\n      swap1\n      log1\n        /* \"Voting.sol\":8163:8362  {... */\n      pop\n        /* \"Voting.sol\":8120:8362  function resetSession() external onlyOwner {... */\n      jump\t// out\n        /* \"@openzeppelin/contracts/access/Ownable.sol\":1359:1489  function _checkOwner() internal view virtual {... */\n    tag_101:\n        /* \"@openzeppelin/contracts/access/Ownable.sol\":1433:1445  _msgSender() */\n      tag_270\n        /* \"@openzeppelin/contracts/access/Ownable.sol\":1433:1443  _msgSender */\n      tag_271\n        /* \"@openzeppelin/contracts/access/Ownable.sol\":1433:1445  _msgSender() */\n      jump\t// in\n    tag_270:\n        /* \"@openzeppelin/contracts/access/Ownable.sol\":1422:1445  owner() == _msgSender() */\n      0xffffffffffffffffffffffffffffffffffffffff\n      and\n        /* \"@openzeppelin/contracts/access/Ownable.sol\":1422:1429  owner() */\n      tag_272\n        /* \"@openzeppelin/contracts/access/Ownable.sol\":1422:1427  owner */\n      tag_55\n        /* \"@openzeppelin/contracts/access/Ownable.sol\":1422:1429  owner() */\n      jump\t// in\n    tag_272:\n        /* \"@openzeppelin/contracts/access/Ownable.sol\":1422:1445  owner() == _msgSender() */\n      0xffffffffffffffffffffffffffffffffffffffff\n      and\n      eq\n        /* \"@openzeppelin/contracts/access/Ownable.sol\":1414:1482  require(owner() == _msgSender(), \"Ownable: caller is not the owner\") */\n      tag_273\n      jumpi\n      mload(0x40)\n      0x08c379a000000000000000000000000000000000000000000000000000000000\n      dup2\n      mstore\n      0x04\n      add\n      tag_274\n      swap1\n      tag_275\n      jump\t// in\n    tag_274:\n      mload(0x40)\n      dup1\n      swap2\n      sub\n      swap1\n      revert\n    tag_273:\n        /* \"@openzeppelin/contracts/access/Ownable.sol\":1359:1489  function _checkOwner() internal view virtual {... */\n      jump\t// out\n        /* \"Voting.sol\":1560:1859  function _resetProposals() internal onlyOwner {... */\n    tag_107:\n        /* \"@openzeppelin/contracts/access/Ownable.sol\":1094:1107  _checkOwner() */\n      tag_277\n        /* \"@openzeppelin/contracts/access/Ownable.sol\":1094:1105  _checkOwner */\n      tag_101\n        /* \"@openzeppelin/contracts/access/Ownable.sol\":1094:1107  _checkOwner() */\n      jump\t// in\n    tag_277:\n        /* \"Voting.sol\":1623:1630  session */\n      0x01\n        /* \"Voting.sol\":1623:1640  session.proposals */\n      0x03\n      add\n      0x00\n        /* \"Voting.sol\":1616:1640  delete session.proposals */\n      tag_279\n      swap2\n      swap1\n      tag_280\n      jump\t// in\n    tag_279:\n        /* \"Voting.sol\":1655:1664  uint256 i */\n      0x00\n        /* \"Voting.sol\":1650:1853  for (uint256 i = 0; i < session.idxVoters.length; i++) {... */\n    tag_281:\n        /* \"Voting.sol\":1674:1681  session */\n      0x01\n        /* \"Voting.sol\":1674:1691  session.idxVoters */\n      0x02\n      add\n        /* \"Voting.sol\":1674:1698  session.idxVoters.length */\n      dup1\n      sload\n      swap1\n      pop\n        /* \"Voting.sol\":1670:1671  i */\n      dup2\n        /* \"Voting.sol\":1670:1698  i < session.idxVoters.length */\n      lt\n        /* \"Voting.sol\":1650:1853  for (uint256 i = 0; i < session.idxVoters.length; i++) {... */\n      iszero\n      tag_282\n      jumpi\n        /* \"Voting.sol\":1767:1772  false */\n      0x00\n        /* \"Voting.sol\":1719:1726  session */\n      0x01\n        /* \"Voting.sol\":1719:1733  session.voters */\n      dup1\n      add\n        /* \"Voting.sol\":1719:1755  session.voters[session.idxVoters[i]] */\n      0x00\n        /* \"Voting.sol\":1734:1741  session */\n      0x01\n        /* \"Voting.sol\":1734:1751  session.idxVoters */\n      0x02\n      add\n        /* \"Voting.sol\":1752:1753  i */\n      dup5\n        /* \"Voting.sol\":1734:1754  session.idxVoters[i] */\n      dup2\n      sload\n      dup2\n      lt\n      tag_284\n      jumpi\n      tag_285\n      tag_93\n      jump\t// in\n    tag_285:\n    tag_284:\n      swap1\n      0x00\n      mstore\n      keccak256(0x00, 0x20)\n      add\n      0x00\n      swap1\n      sload\n      swap1\n      0x0100\n      exp\n      swap1\n      div\n      0xffffffffffffffffffffffffffffffffffffffff\n      and\n        /* \"Voting.sol\":1719:1755  session.voters[session.idxVoters[i]] */\n      0xffffffffffffffffffffffffffffffffffffffff\n      and\n      0xffffffffffffffffffffffffffffffffffffffff\n      and\n      dup2\n      mstore\n      0x20\n      add\n      swap1\n      dup2\n      mstore\n      0x20\n      add\n      0x00\n      keccak256\n        /* \"Voting.sol\":1719:1764  session.voters[session.idxVoters[i]].hasVoted */\n      0x00\n      add\n      0x01\n        /* \"Voting.sol\":1719:1772  session.voters[session.idxVoters[i]].hasVoted = false */\n      0x0100\n      exp\n      dup2\n      sload\n      dup2\n      0xff\n      mul\n      not\n      and\n      swap1\n      dup4\n      iszero\n      iszero\n      mul\n      or\n      swap1\n      sstore\n      pop\n        /* \"Voting.sol\":1841:1842  0 */\n      0x00\n        /* \"Voting.sol\":1786:1793  session */\n      0x01\n        /* \"Voting.sol\":1786:1800  session.voters */\n      dup1\n      add\n        /* \"Voting.sol\":1786:1822  session.voters[session.idxVoters[i]] */\n      0x00\n        /* \"Voting.sol\":1801:1808  session */\n      0x01\n        /* \"Voting.sol\":1801:1818  session.idxVoters */\n      0x02\n      add\n        /* \"Voting.sol\":1819:1820  i */\n      dup5\n        /* \"Voting.sol\":1801:1821  session.idxVoters[i] */\n      dup2\n      sload\n      dup2\n      lt\n      tag_287\n      jumpi\n      tag_288\n      tag_93\n      jump\t// in\n    tag_288:\n    tag_287:\n      swap1\n      0x00\n      mstore\n      keccak256(0x00, 0x20)\n      add\n      0x00\n      swap1\n      sload\n      swap1\n      0x0100\n      exp\n      swap1\n      div\n      0xffffffffffffffffffffffffffffffffffffffff\n      and\n        /* \"Voting.sol\":1786:1822  session.voters[session.idxVoters[i]] */\n      0xffffffffffffffffffffffffffffffffffffffff\n      and\n      0xffffffffffffffffffffffffffffffffffffffff\n      and\n      dup2\n      mstore\n      0x20\n      add\n      swap1\n      dup2\n      mstore\n      0x20\n      add\n      0x00\n      keccak256\n        /* \"Voting.sol\":1786:1838  session.voters[session.idxVoters[i]].votedProposalId */\n      0x01\n      add\n        /* \"Voting.sol\":1786:1842  session.voters[session.idxVoters[i]].votedProposalId = 0 */\n      dup2\n      swap1\n      sstore\n      pop\n        /* \"Voting.sol\":1700:1703  i++ */\n      dup1\n      dup1\n      tag_290\n      swap1\n      tag_96\n      jump\t// in\n    tag_290:\n      swap2\n      pop\n      pop\n        /* \"Voting.sol\":1650:1853  for (uint256 i = 0; i < session.idxVoters.length; i++) {... */\n      jump(tag_281)\n    tag_282:\n      pop\n        /* \"Voting.sol\":1560:1859  function _resetProposals() internal onlyOwner {... */\n      jump\t// out\n        /* \"Voting.sol\":2693:2872  function _wrongPhase(WorkflowStatus _status) internal view {... */\n    tag_114:\n        /* \"Voting.sol\":2784:2791  _status */\n      dup1\n        /* \"Voting.sol\":2766:2791  session.status != _status */\n      0x05\n      dup2\n      gt\n      iszero\n      tag_292\n      jumpi\n      tag_293\n      tag_105\n      jump\t// in\n    tag_293:\n    tag_292:\n        /* \"Voting.sol\":2766:2773  session */\n      0x01\n        /* \"Voting.sol\":2766:2780  session.status */\n      0x00\n      add\n      0x00\n      swap1\n      sload\n      swap1\n      0x0100\n      exp\n      swap1\n      div\n      0xff\n      and\n        /* \"Voting.sol\":2766:2791  session.status != _status */\n      0x05\n      dup2\n      gt\n      iszero\n      tag_294\n      jumpi\n      tag_295\n      tag_105\n      jump\t// in\n    tag_295:\n    tag_294:\n      eq\n        /* \"Voting.sol\":2762:2866  if (session.status != _status) {... */\n      tag_296\n      jumpi\n        /* \"Voting.sol\":2831:2838  _status */\n      dup1\n        /* \"Voting.sol\":2840:2847  session */\n      0x01\n        /* \"Voting.sol\":2840:2854  session.status */\n      0x00\n      add\n      0x00\n      swap1\n      sload\n      swap1\n      0x0100\n      exp\n      swap1\n      div\n      0xff\n      and\n        /* \"Voting.sol\":2814:2855  WrongPhaseStatus(_status, session.status) */\n      mload(0x40)\n      0x586a712d00000000000000000000000000000000000000000000000000000000\n      dup2\n      mstore\n      0x04\n      add\n      tag_297\n      swap3\n      swap2\n      swap1\n      tag_109\n      jump\t// in\n    tag_297:\n      mload(0x40)\n      dup1\n      swap2\n      sub\n      swap1\n      revert\n        /* \"Voting.sol\":2762:2866  if (session.status != _status) {... */\n    tag_296:\n        /* \"Voting.sol\":2693:2872  function _wrongPhase(WorkflowStatus _status) internal view {... */\n      pop\n      jump\t// out\n        /* \"@openzeppelin/contracts/access/Ownable.sol\":2426:2613  function _transferOwnership(address newOwner) internal virtual {... */\n    tag_182:\n        /* \"@openzeppelin/contracts/access/Ownable.sol\":2499:2515  address oldOwner */\n      0x00\n        /* \"@openzeppelin/contracts/access/Ownable.sol\":2518:2524  _owner */\n      dup1\n      0x00\n      swap1\n      sload\n      swap1\n      0x0100\n      exp\n      swap1\n      div\n      0xffffffffffffffffffffffffffffffffffffffff\n      and\n        /* \"@openzeppelin/contracts/access/Ownable.sol\":2499:2524  address oldOwner = _owner */\n      swap1\n      pop\n        /* \"@openzeppelin/contracts/access/Ownable.sol\":2543:2551  newOwner */\n      dup2\n        /* \"@openzeppelin/contracts/access/Ownable.sol\":2534:2540  _owner */\n      0x00\n      dup1\n        /* \"@openzeppelin/contracts/access/Ownable.sol\":2534:2551  _owner = newOwner */\n      0x0100\n      exp\n      dup2\n      sload\n      dup2\n      0xffffffffffffffffffffffffffffffffffffffff\n      mul\n      not\n      and\n      swap1\n      dup4\n      0xffffffffffffffffffffffffffffffffffffffff\n      and\n      mul\n      or\n      swap1\n      sstore\n      pop\n        /* \"@openzeppelin/contracts/access/Ownable.sol\":2597:2605  newOwner */\n      dup2\n        /* \"@openzeppelin/contracts/access/Ownable.sol\":2566:2606  OwnershipTransferred(oldOwner, newOwner) */\n      0xffffffffffffffffffffffffffffffffffffffff\n      and\n        /* \"@openzeppelin/contracts/access/Ownable.sol\":2587:2595  oldOwner */\n      dup2\n        /* \"@openzeppelin/contracts/access/Ownable.sol\":2566:2606  OwnershipTransferred(oldOwner, newOwner) */\n      0xffffffffffffffffffffffffffffffffffffffff\n      and\n      0x8be0079c531659141344cd1fd0a4f28419497f9722a3daafe3b4186f6b6457e0\n      mload(0x40)\n      mload(0x40)\n      dup1\n      swap2\n      sub\n      swap1\n      log3\n        /* \"@openzeppelin/contracts/access/Ownable.sol\":2489:2613  {... */\n      pop\n        /* \"@openzeppelin/contracts/access/Ownable.sol\":2426:2613  function _transferOwnership(address newOwner) internal virtual {... */\n      pop\n      jump\t// out\n        /* \"Voting.sol\":2105:2489  function _resetVotes() internal onlyOwner {... */\n    tag_204:\n        /* \"@openzeppelin/contracts/access/Ownable.sol\":1094:1107  _checkOwner() */\n      tag_300\n        /* \"@openzeppelin/contracts/access/Ownable.sol\":1094:1105  _checkOwner */\n      tag_101\n        /* \"@openzeppelin/contracts/access/Ownable.sol\":1094:1107  _checkOwner() */\n      jump\t// in\n    tag_300:\n        /* \"Voting.sol\":2162:2171  uint256 i */\n      0x00\n        /* \"Voting.sol\":2157:2360  for (uint256 i = 0; i < session.idxVoters.length; i++) {... */\n    tag_302:\n        /* \"Voting.sol\":2181:2188  session */\n      0x01\n        /* \"Voting.sol\":2181:2198  session.idxVoters */\n      0x02\n      add\n        /* \"Voting.sol\":2181:2205  session.idxVoters.length */\n      dup1\n      sload\n      swap1\n      pop\n        /* \"Voting.sol\":2177:2178  i */\n      dup2\n        /* \"Voting.sol\":2177:2205  i < session.idxVoters.length */\n      lt\n        /* \"Voting.sol\":2157:2360  for (uint256 i = 0; i < session.idxVoters.length; i++) {... */\n      iszero\n      tag_303\n      jumpi\n        /* \"Voting.sol\":2274:2279  false */\n      0x00\n        /* \"Voting.sol\":2226:2233  session */\n      0x01\n        /* \"Voting.sol\":2226:2240  session.voters */\n      dup1\n      add\n        /* \"Voting.sol\":2226:2262  session.voters[session.idxVoters[i]] */\n      0x00\n        /* \"Voting.sol\":2241:2248  session */\n      0x01\n        /* \"Voting.sol\":2241:2258  session.idxVoters */\n      0x02\n      add\n        /* \"Voting.sol\":2259:2260  i */\n      dup5\n        /* \"Voting.sol\":2241:2261  session.idxVoters[i] */\n      dup2\n      sload\n      dup2\n      lt\n      tag_305\n      jumpi\n      tag_306\n      tag_93\n      jump\t// in\n    tag_306:\n    tag_305:\n      swap1\n      0x00\n      mstore\n      keccak256(0x00, 0x20)\n      add\n      0x00\n      swap1\n      sload\n      swap1\n      0x0100\n      exp\n      swap1\n      div\n      0xffffffffffffffffffffffffffffffffffffffff\n      and\n        /* \"Voting.sol\":2226:2262  session.voters[session.idxVoters[i]] */\n      0xffffffffffffffffffffffffffffffffffffffff\n      and\n      0xffffffffffffffffffffffffffffffffffffffff\n      and\n      dup2\n      mstore\n      0x20\n      add\n      swap1\n      dup2\n      mstore\n      0x20\n      add\n      0x00\n      keccak256\n        /* \"Voting.sol\":2226:2271  session.voters[session.idxVoters[i]].hasVoted */\n      0x00\n      add\n      0x01\n        /* \"Voting.sol\":2226:2279  session.voters[session.idxVoters[i]].hasVoted = false */\n      0x0100\n      exp\n      dup2\n      sload\n      dup2\n      0xff\n      mul\n      not\n      and\n      swap1\n      dup4\n      iszero\n      iszero\n      mul\n      or\n      swap1\n      sstore\n      pop\n        /* \"Voting.sol\":2348:2349  0 */\n      0x00\n        /* \"Voting.sol\":2293:2300  session */\n      0x01\n        /* \"Voting.sol\":2293:2307  session.voters */\n      dup1\n      add\n        /* \"Voting.sol\":2293:2329  session.voters[session.idxVoters[i]] */\n      0x00\n        /* \"Voting.sol\":2308:2315  session */\n      0x01\n        /* \"Voting.sol\":2308:2325  session.idxVoters */\n      0x02\n      add\n        /* \"Voting.sol\":2326:2327  i */\n      dup5\n        /* \"Voting.sol\":2308:2328  session.idxVoters[i] */\n      dup2\n      sload\n      dup2\n      lt\n      tag_308\n      jumpi\n      tag_309\n      tag_93\n      jump\t// in\n    tag_309:\n    tag_308:\n      swap1\n      0x00\n      mstore\n      keccak256(0x00, 0x20)\n      add\n      0x00\n      swap1\n      sload\n      swap1\n      0x0100\n      exp\n      swap1\n      div\n      0xffffffffffffffffffffffffffffffffffffffff\n      and\n        /* \"Voting.sol\":2293:2329  session.voters[session.idxVoters[i]] */\n      0xffffffffffffffffffffffffffffffffffffffff\n      and\n      0xffffffffffffffffffffffffffffffffffffffff\n      and\n      dup2\n      mstore\n      0x20\n      add\n      swap1\n      dup2\n      mstore\n      0x20\n      add\n      0x00\n      keccak256\n        /* \"Voting.sol\":2293:2345  session.voters[session.idxVoters[i]].votedProposalId */\n      0x01\n      add\n        /* \"Voting.sol\":2293:2349  session.voters[session.idxVoters[i]].votedProposalId = 0 */\n      dup2\n      swap1\n      sstore\n      pop\n        /* \"Voting.sol\":2207:2210  i++ */\n      dup1\n      dup1\n      tag_311\n      swap1\n      tag_96\n      jump\t// in\n    tag_311:\n      swap2\n      pop\n      pop\n        /* \"Voting.sol\":2157:2360  for (uint256 i = 0; i < session.idxVoters.length; i++) {... */\n      jump(tag_302)\n    tag_303:\n      pop\n        /* \"Voting.sol\":2374:2383  uint256 j */\n      0x00\n        /* \"Voting.sol\":2369:2483  for (uint256 j = 0; j < session.proposals.length; j++) {... */\n    tag_312:\n        /* \"Voting.sol\":2393:2400  session */\n      0x01\n        /* \"Voting.sol\":2393:2410  session.proposals */\n      0x03\n      add\n        /* \"Voting.sol\":2393:2417  session.proposals.length */\n      dup1\n      sload\n      swap1\n      pop\n        /* \"Voting.sol\":2389:2390  j */\n      dup2\n        /* \"Voting.sol\":2389:2417  j < session.proposals.length */\n      lt\n        /* \"Voting.sol\":2369:2483  for (uint256 j = 0; j < session.proposals.length; j++) {... */\n      iszero\n      tag_313\n      jumpi\n        /* \"Voting.sol\":2471:2472  0 */\n      0x00\n        /* \"Voting.sol\":2438:2445  session */\n      0x01\n        /* \"Voting.sol\":2438:2455  session.proposals */\n      0x03\n      add\n        /* \"Voting.sol\":2456:2457  j */\n      dup3\n        /* \"Voting.sol\":2438:2458  session.proposals[j] */\n      dup2\n      sload\n      dup2\n      lt\n      tag_315\n      jumpi\n      tag_316\n      tag_93\n      jump\t// in\n    tag_316:\n    tag_315:\n      swap1\n      0x00\n      mstore\n      keccak256(0x00, 0x20)\n      swap1\n      0x02\n      mul\n      add\n        /* \"Voting.sol\":2438:2468  session.proposals[j].voteCount */\n      0x01\n      add\n        /* \"Voting.sol\":2438:2472  session.proposals[j].voteCount = 0 */\n      dup2\n      swap1\n      sstore\n      pop\n        /* \"Voting.sol\":2419:2422  j++ */\n      dup1\n      dup1\n      tag_318\n      swap1\n      tag_96\n      jump\t// in\n    tag_318:\n      swap2\n      pop\n      pop\n        /* \"Voting.sol\":2369:2483  for (uint256 j = 0; j < session.proposals.length; j++) {... */\n      jump(tag_312)\n    tag_313:\n      pop\n        /* \"Voting.sol\":2105:2489  function _resetVotes() internal onlyOwner {... */\n      jump\t// out\n        /* \"Voting.sol\":1865:2099  function _resetVoters() internal onlyOwner {... */\n    tag_267:\n        /* \"@openzeppelin/contracts/access/Ownable.sol\":1094:1107  _checkOwner() */\n      tag_320\n        /* \"@openzeppelin/contracts/access/Ownable.sol\":1094:1105  _checkOwner */\n      tag_101\n        /* \"@openzeppelin/contracts/access/Ownable.sol\":1094:1107  _checkOwner() */\n      jump\t// in\n    tag_320:\n        /* \"Voting.sol\":1925:1932  session */\n      0x01\n        /* \"Voting.sol\":1925:1942  session.proposals */\n      0x03\n      add\n      0x00\n        /* \"Voting.sol\":1918:1942  delete session.proposals */\n      tag_322\n      swap2\n      swap1\n      tag_280\n      jump\t// in\n    tag_322:\n        /* \"Voting.sol\":1957:1966  uint256 i */\n      0x00\n        /* \"Voting.sol\":1952:2093  for (uint256 i = 0; i < session.idxVoters.length; i++) {... */\n    tag_323:\n        /* \"Voting.sol\":1976:1983  session */\n      0x01\n        /* \"Voting.sol\":1976:1993  session.idxVoters */\n      0x02\n      add\n        /* \"Voting.sol\":1976:2000  session.idxVoters.length */\n      dup1\n      sload\n      swap1\n      pop\n        /* \"Voting.sol\":1972:1973  i */\n      dup2\n        /* \"Voting.sol\":1972:2000  i < session.idxVoters.length */\n      lt\n        /* \"Voting.sol\":1952:2093  for (uint256 i = 0; i < session.idxVoters.length; i++) {... */\n      iszero\n      tag_324\n      jumpi\n        /* \"Voting.sol\":2060:2082  Voter(false, false, 0) */\n      mload(0x40)\n      dup1\n      0x60\n      add\n      0x40\n      mstore\n      dup1\n        /* \"Voting.sol\":2066:2071  false */\n      0x00\n        /* \"Voting.sol\":2060:2082  Voter(false, false, 0) */\n      iszero\n      iszero\n      dup2\n      mstore\n      0x20\n      add\n        /* \"Voting.sol\":2073:2078  false */\n      0x00\n        /* \"Voting.sol\":2060:2082  Voter(false, false, 0) */\n      iszero\n      iszero\n      dup2\n      mstore\n      0x20\n      add\n        /* \"Voting.sol\":2080:2081  0 */\n      0x00\n        /* \"Voting.sol\":2060:2082  Voter(false, false, 0) */\n      dup2\n      mstore\n      pop\n        /* \"Voting.sol\":2021:2028  session */\n      0x01\n        /* \"Voting.sol\":2021:2035  session.voters */\n      dup1\n      add\n        /* \"Voting.sol\":2021:2057  session.voters[session.idxVoters[i]] */\n      0x00\n        /* \"Voting.sol\":2036:2043  session */\n      0x01\n        /* \"Voting.sol\":2036:2053  session.idxVoters */\n      0x02\n      add\n        /* \"Voting.sol\":2054:2055  i */\n      dup5\n        /* \"Voting.sol\":2036:2056  session.idxVoters[i] */\n      dup2\n      sload\n      dup2\n      lt\n      tag_326\n      jumpi\n      tag_327\n      tag_93\n      jump\t// in\n    tag_327:\n    tag_326:\n      swap1\n      0x00\n      mstore\n      keccak256(0x00, 0x20)\n      add\n      0x00\n      swap1\n      sload\n      swap1\n      0x0100\n      exp\n      swap1\n      div\n      0xffffffffffffffffffffffffffffffffffffffff\n      and\n        /* \"Voting.sol\":2021:2057  session.voters[session.idxVoters[i]] */\n      0xffffffffffffffffffffffffffffffffffffffff\n      and\n      0xffffffffffffffffffffffffffffffffffffffff\n      and\n      dup2\n      mstore\n      0x20\n      add\n      swap1\n      dup2\n      mstore\n      0x20\n      add\n      0x00\n      keccak256\n        /* \"Voting.sol\":2021:2082  session.voters[session.idxVoters[i]] = Voter(false, false, 0) */\n      0x00\n      dup3\n      add\n      mload\n      dup2\n      0x00\n      add\n      exp(0x0100, 0x00)\n      dup2\n      sload\n      dup2\n      0xff\n      mul\n      not\n      and\n      swap1\n      dup4\n      iszero\n      iszero\n      mul\n      or\n      swap1\n      sstore\n      pop\n      0x20\n      dup3\n      add\n      mload\n      dup2\n      0x00\n      add\n      exp(0x0100, 0x01)\n      dup2\n      sload\n      dup2\n      0xff\n      mul\n      not\n      and\n      swap1\n      dup4\n      iszero\n      iszero\n      mul\n      or\n      swap1\n      sstore\n      pop\n      0x40\n      dup3\n      add\n      mload\n      dup2\n      0x01\n      add\n      sstore\n      swap1\n      pop\n      pop\n        /* \"Voting.sol\":2002:2005  i++ */\n      dup1\n      dup1\n      tag_329\n      swap1\n      tag_96\n      jump\t// in\n    tag_329:\n      swap2\n      pop\n      pop\n        /* \"Voting.sol\":1952:2093  for (uint256 i = 0; i < session.idxVoters.length; i++) {... */\n      jump(tag_323)\n    tag_324:\n      pop\n        /* \"Voting.sol\":1865:2099  function _resetVoters() internal onlyOwner {... */\n      jump\t// out\n        /* \"@openzeppelin/contracts/utils/Context.sol\":640:736  function _msgSender() internal view virtual returns (address) {... */\n    tag_271:\n        /* \"@openzeppelin/contracts/utils/Context.sol\":693:700  address */\n      0x00\n        /* \"@openzeppelin/contracts/utils/Context.sol\":719:729  msg.sender */\n      caller\n        /* \"@openzeppelin/contracts/utils/Context.sol\":712:729  return msg.sender */\n      swap1\n      pop\n        /* \"@openzeppelin/contracts/utils/Context.sol\":640:736  function _msgSender() internal view virtual returns (address) {... */\n      swap1\n      jump\t// out\n    tag_280:\n      pop\n      dup1\n      sload\n      0x00\n      dup3\n      sstore\n      0x02\n      mul\n      swap1\n      0x00\n      mstore\n      keccak256(0x00, 0x20)\n      swap1\n      dup2\n      add\n      swap1\n      tag_332\n      swap2\n      swap1\n      tag_333\n      jump\t// in\n    tag_332:\n      pop\n      jump\t// out\n    tag_333:\n    tag_334:\n      dup1\n      dup3\n      gt\n      iszero\n      tag_335\n      jumpi\n      0x00\n      dup1\n      dup3\n      add\n      0x00\n      tag_336\n      swap2\n      swap1\n      tag_337\n      jump\t// in\n    tag_336:\n      0x01\n      dup3\n      add\n      0x00\n      swap1\n      sstore\n      pop\n      0x02\n      add\n      jump(tag_334)\n    tag_335:\n      pop\n      swap1\n      jump\t// out\n    tag_337:\n      pop\n      dup1\n      sload\n      tag_338\n      swap1\n      tag_221\n      jump\t// in\n    tag_338:\n      0x00\n      dup3\n      sstore\n      dup1\n      0x1f\n      lt\n      tag_340\n      jumpi\n      pop\n      jump(tag_339)\n    tag_340:\n      0x1f\n      add\n      0x20\n      swap1\n      div\n      swap1\n      0x00\n      mstore\n      keccak256(0x00, 0x20)\n      swap1\n      dup2\n      add\n      swap1\n      tag_341\n      swap2\n      swap1\n      tag_342\n      jump\t// in\n    tag_341:\n    tag_339:\n      pop\n      jump\t// out\n    tag_342:\n    tag_343:\n      dup1\n      dup3\n      gt\n      iszero\n      tag_344\n      jumpi\n      0x00\n      dup2\n      0x00\n      swap1\n      sstore\n      pop\n      0x01\n      add\n      jump(tag_343)\n    tag_344:\n      pop\n      swap1\n      jump\t// out\n        /* \"#utility.yul\":7:82   */\n    tag_345:\n        /* \"#utility.yul\":40:46   */\n      0x00\n        /* \"#utility.yul\":73:75   */\n      0x40\n        /* \"#utility.yul\":67:76   */\n      mload\n        /* \"#utility.yul\":57:76   */\n      swap1\n      pop\n        /* \"#utility.yul\":7:82   */\n      swap1\n      jump\t// out\n        /* \"#utility.yul\":88:205   */\n    tag_346:\n        /* \"#utility.yul\":197:198   */\n      0x00\n        /* \"#utility.yul\":194:195   */\n      dup1\n        /* \"#utility.yul\":187:199   */\n      revert\n        /* \"#utility.yul\":211:328   */\n    tag_347:\n        /* \"#utility.yul\":320:321   */\n      0x00\n        /* \"#utility.yul\":317:318   */\n      dup1\n        /* \"#utility.yul\":310:322   */\n      revert\n        /* \"#utility.yul\":334:411   */\n    tag_348:\n        /* \"#utility.yul\":371:378   */\n      0x00\n        /* \"#utility.yul\":400:405   */\n      dup2\n        /* \"#utility.yul\":389:405   */\n      swap1\n      pop\n        /* \"#utility.yul\":334:411   */\n      swap2\n      swap1\n      pop\n      jump\t// out\n        /* \"#utility.yul\":417:539   */\n    tag_349:\n        /* \"#utility.yul\":490:514   */\n      tag_424\n        /* \"#utility.yul\":508:513   */\n      dup2\n        /* \"#utility.yul\":490:514   */\n      tag_348\n      jump\t// in\n    tag_424:\n        /* \"#utility.yul\":483:488   */\n      dup2\n        /* \"#utility.yul\":480:515   */\n      eq\n        /* \"#utility.yul\":470:533   */\n      tag_425\n      jumpi\n        /* \"#utility.yul\":529:530   */\n      0x00\n        /* \"#utility.yul\":526:527   */\n      dup1\n        /* \"#utility.yul\":519:531   */\n      revert\n        /* \"#utility.yul\":470:533   */\n    tag_425:\n        /* \"#utility.yul\":417:539   */\n      pop\n      jump\t// out\n        /* \"#utility.yul\":545:684   */\n    tag_350:\n        /* \"#utility.yul\":591:596   */\n      0x00\n        /* \"#utility.yul\":629:635   */\n      dup2\n        /* \"#utility.yul\":616:636   */\n      calldataload\n        /* \"#utility.yul\":607:636   */\n      swap1\n      pop\n        /* \"#utility.yul\":645:678   */\n      tag_427\n        /* \"#utility.yul\":672:677   */\n      dup2\n        /* \"#utility.yul\":645:678   */\n      tag_349\n      jump\t// in\n    tag_427:\n        /* \"#utility.yul\":545:684   */\n      swap3\n      swap2\n      pop\n      pop\n      jump\t// out\n        /* \"#utility.yul\":690:1019   */\n    tag_27:\n        /* \"#utility.yul\":749:755   */\n      0x00\n        /* \"#utility.yul\":798:800   */\n      0x20\n        /* \"#utility.yul\":786:795   */\n      dup3\n        /* \"#utility.yul\":777:784   */\n      dup5\n        /* \"#utility.yul\":773:796   */\n      sub\n        /* \"#utility.yul\":769:801   */\n      slt\n        /* \"#utility.yul\":766:885   */\n      iszero\n      tag_429\n      jumpi\n        /* \"#utility.yul\":804:883   */\n      tag_430\n      tag_346\n      jump\t// in\n    tag_430:\n        /* \"#utility.yul\":766:885   */\n    tag_429:\n        /* \"#utility.yul\":924:925   */\n      0x00\n        /* \"#utility.yul\":949:1002   */\n      tag_431\n        /* \"#utility.yul\":994:1001   */\n      dup5\n        /* \"#utility.yul\":985:991   */\n      dup3\n        /* \"#utility.yul\":974:983   */\n      dup6\n        /* \"#utility.yul\":970:992   */\n      add\n        /* \"#utility.yul\":949:1002   */\n      tag_350\n      jump\t// in\n    tag_431:\n        /* \"#utility.yul\":939:1002   */\n      swap2\n      pop\n        /* \"#utility.yul\":895:1012   */\n      pop\n        /* \"#utility.yul\":690:1019   */\n      swap3\n      swap2\n      pop\n      pop\n      jump\t// out\n        /* \"#utility.yul\":1025:1142   */\n    tag_351:\n        /* \"#utility.yul\":1134:1135   */\n      0x00\n        /* \"#utility.yul\":1131:1132   */\n      dup1\n        /* \"#utility.yul\":1124:1136   */\n      revert\n        /* \"#utility.yul\":1148:1265   */\n    tag_352:\n        /* \"#utility.yul\":1257:1258   */\n      0x00\n        /* \"#utility.yul\":1254:1255   */\n      dup1\n        /* \"#utility.yul\":1247:1259   */\n      revert\n        /* \"#utility.yul\":1271:1373   */\n    tag_353:\n        /* \"#utility.yul\":1312:1318   */\n      0x00\n        /* \"#utility.yul\":1363:1365   */\n      0x1f\n        /* \"#utility.yul\":1359:1366   */\n      not\n        /* \"#utility.yul\":1354:1356   */\n      0x1f\n        /* \"#utility.yul\":1347:1352   */\n      dup4\n        /* \"#utility.yul\":1343:1357   */\n      add\n        /* \"#utility.yul\":1339:1367   */\n      and\n        /* \"#utility.yul\":1329:1367   */\n      swap1\n      pop\n        /* \"#utility.yul\":1271:1373   */\n      swap2\n      swap1\n      pop\n      jump\t// out\n        /* \"#utility.yul\":1379:1559   */\n    tag_354:\n        /* \"#utility.yul\":1427:1504   */\n      0x4e487b7100000000000000000000000000000000000000000000000000000000\n        /* \"#utility.yul\":1424:1425   */\n      0x00\n        /* \"#utility.yul\":1417:1505   */\n      mstore\n        /* \"#utility.yul\":1524:1528   */\n      0x41\n        /* \"#utility.yul\":1521:1522   */\n      0x04\n        /* \"#utility.yul\":1514:1529   */\n      mstore\n        /* \"#utility.yul\":1548:1552   */\n      0x24\n        /* \"#utility.yul\":1545:1546   */\n      0x00\n        /* \"#utility.yul\":1538:1553   */\n      revert\n        /* \"#utility.yul\":1565:1846   */\n    tag_355:\n        /* \"#utility.yul\":1648:1675   */\n      tag_437\n        /* \"#utility.yul\":1670:1674   */\n      dup3\n        /* \"#utility.yul\":1648:1675   */\n      tag_353\n      jump\t// in\n    tag_437:\n        /* \"#utility.yul\":1640:1646   */\n      dup2\n        /* \"#utility.yul\":1636:1676   */\n      add\n        /* \"#utility.yul\":1778:1784   */\n      dup2\n        /* \"#utility.yul\":1766:1776   */\n      dup2\n        /* \"#utility.yul\":1763:1785   */\n      lt\n        /* \"#utility.yul\":1742:1760   */\n      0xffffffffffffffff\n        /* \"#utility.yul\":1730:1740   */\n      dup3\n        /* \"#utility.yul\":1727:1761   */\n      gt\n        /* \"#utility.yul\":1724:1786   */\n      or\n        /* \"#utility.yul\":1721:1809   */\n      iszero\n      tag_438\n      jumpi\n        /* \"#utility.yul\":1789:1807   */\n      tag_439\n      tag_354\n      jump\t// in\n    tag_439:\n        /* \"#utility.yul\":1721:1809   */\n    tag_438:\n        /* \"#utility.yul\":1829:1839   */\n      dup1\n        /* \"#utility.yul\":1825:1827   */\n      0x40\n        /* \"#utility.yul\":1818:1840   */\n      mstore\n        /* \"#utility.yul\":1608:1846   */\n      pop\n        /* \"#utility.yul\":1565:1846   */\n      pop\n      pop\n      jump\t// out\n        /* \"#utility.yul\":1852:1981   */\n    tag_356:\n        /* \"#utility.yul\":1886:1892   */\n      0x00\n        /* \"#utility.yul\":1913:1933   */\n      tag_441\n      tag_345\n      jump\t// in\n    tag_441:\n        /* \"#utility.yul\":1903:1933   */\n      swap1\n      pop\n        /* \"#utility.yul\":1942:1975   */\n      tag_442\n        /* \"#utility.yul\":1970:1974   */\n      dup3\n        /* \"#utility.yul\":1962:1968   */\n      dup3\n        /* \"#utility.yul\":1942:1975   */\n      tag_355\n      jump\t// in\n    tag_442:\n        /* \"#utility.yul\":1852:1981   */\n      swap2\n      swap1\n      pop\n      jump\t// out\n        /* \"#utility.yul\":1987:2295   */\n    tag_357:\n        /* \"#utility.yul\":2049:2053   */\n      0x00\n        /* \"#utility.yul\":2139:2157   */\n      0xffffffffffffffff\n        /* \"#utility.yul\":2131:2137   */\n      dup3\n        /* \"#utility.yul\":2128:2158   */\n      gt\n        /* \"#utility.yul\":2125:2181   */\n      iszero\n      tag_444\n      jumpi\n        /* \"#utility.yul\":2161:2179   */\n      tag_445\n      tag_354\n      jump\t// in\n    tag_445:\n        /* \"#utility.yul\":2125:2181   */\n    tag_444:\n        /* \"#utility.yul\":2199:2228   */\n      tag_446\n        /* \"#utility.yul\":2221:2227   */\n      dup3\n        /* \"#utility.yul\":2199:2228   */\n      tag_353\n      jump\t// in\n    tag_446:\n        /* \"#utility.yul\":2191:2228   */\n      swap1\n      pop\n        /* \"#utility.yul\":2283:2287   */\n      0x20\n        /* \"#utility.yul\":2277:2281   */\n      dup2\n        /* \"#utility.yul\":2273:2288   */\n      add\n        /* \"#utility.yul\":2265:2288   */\n      swap1\n      pop\n        /* \"#utility.yul\":1987:2295   */\n      swap2\n      swap1\n      pop\n      jump\t// out\n        /* \"#utility.yul\":2301:2447   */\n    tag_358:\n        /* \"#utility.yul\":2398:2404   */\n      dup3\n        /* \"#utility.yul\":2393:2396   */\n      dup2\n        /* \"#utility.yul\":2388:2391   */\n      dup4\n        /* \"#utility.yul\":2375:2405   */\n      calldatacopy\n        /* \"#utility.yul\":2439:2440   */\n      0x00\n        /* \"#utility.yul\":2430:2436   */\n      dup4\n        /* \"#utility.yul\":2425:2428   */\n      dup4\n        /* \"#utility.yul\":2421:2437   */\n      add\n        /* \"#utility.yul\":2414:2441   */\n      mstore\n        /* \"#utility.yul\":2301:2447   */\n      pop\n      pop\n      pop\n      jump\t// out\n        /* \"#utility.yul\":2453:2878   */\n    tag_359:\n        /* \"#utility.yul\":2531:2536   */\n      0x00\n        /* \"#utility.yul\":2556:2622   */\n      tag_449\n        /* \"#utility.yul\":2572:2621   */\n      tag_450\n        /* \"#utility.yul\":2614:2620   */\n      dup5\n        /* \"#utility.yul\":2572:2621   */\n      tag_357\n      jump\t// in\n    tag_450:\n        /* \"#utility.yul\":2556:2622   */\n      tag_356\n      jump\t// in\n    tag_449:\n        /* \"#utility.yul\":2547:2622   */\n      swap1\n      pop\n        /* \"#utility.yul\":2645:2651   */\n      dup3\n        /* \"#utility.yul\":2638:2643   */\n      dup2\n        /* \"#utility.yul\":2631:2652   */\n      mstore\n        /* \"#utility.yul\":2683:2687   */\n      0x20\n        /* \"#utility.yul\":2676:2681   */\n      dup2\n        /* \"#utility.yul\":2672:2688   */\n      add\n        /* \"#utility.yul\":2721:2724   */\n      dup5\n        /* \"#utility.yul\":2712:2718   */\n      dup5\n        /* \"#utility.yul\":2707:2710   */\n      dup5\n        /* \"#utility.yul\":2703:2719   */\n      add\n        /* \"#utility.yul\":2700:2725   */\n      gt\n        /* \"#utility.yul\":2697:2809   */\n      iszero\n      tag_451\n      jumpi\n        /* \"#utility.yul\":2728:2807   */\n      tag_452\n      tag_352\n      jump\t// in\n    tag_452:\n        /* \"#utility.yul\":2697:2809   */\n    tag_451:\n        /* \"#utility.yul\":2818:2872   */\n      tag_453\n        /* \"#utility.yul\":2865:2871   */\n      dup5\n        /* \"#utility.yul\":2860:2863   */\n      dup3\n        /* \"#utility.yul\":2855:2858   */\n      dup6\n        /* \"#utility.yul\":2818:2872   */\n      tag_358\n      jump\t// in\n    tag_453:\n        /* \"#utility.yul\":2537:2878   */\n      pop\n        /* \"#utility.yul\":2453:2878   */\n      swap4\n      swap3\n      pop\n      pop\n      pop\n      jump\t// out\n        /* \"#utility.yul\":2898:3238   */\n    tag_360:\n        /* \"#utility.yul\":2954:2959   */\n      0x00\n        /* \"#utility.yul\":3003:3006   */\n      dup3\n        /* \"#utility.yul\":2996:3000   */\n      0x1f\n        /* \"#utility.yul\":2988:2994   */\n      dup4\n        /* \"#utility.yul\":2984:3001   */\n      add\n        /* \"#utility.yul\":2980:3007   */\n      slt\n        /* \"#utility.yul\":2970:3092   */\n      tag_455\n      jumpi\n        /* \"#utility.yul\":3011:3090   */\n      tag_456\n      tag_351\n      jump\t// in\n    tag_456:\n        /* \"#utility.yul\":2970:3092   */\n    tag_455:\n        /* \"#utility.yul\":3128:3134   */\n      dup2\n        /* \"#utility.yul\":3115:3135   */\n      calldataload\n        /* \"#utility.yul\":3153:3232   */\n      tag_457\n        /* \"#utility.yul\":3228:3231   */\n      dup5\n        /* \"#utility.yul\":3220:3226   */\n      dup3\n        /* \"#utility.yul\":3213:3217   */\n      0x20\n        /* \"#utility.yul\":3205:3211   */\n      dup7\n        /* \"#utility.yul\":3201:3218   */\n      add\n        /* \"#utility.yul\":3153:3232   */\n      tag_359\n      jump\t// in\n    tag_457:\n        /* \"#utility.yul\":3144:3232   */\n      swap2\n      pop\n        /* \"#utility.yul\":2960:3238   */\n      pop\n        /* \"#utility.yul\":2898:3238   */\n      swap3\n      swap2\n      pop\n      pop\n      jump\t// out\n        /* \"#utility.yul\":3244:3753   */\n    tag_35:\n        /* \"#utility.yul\":3313:3319   */\n      0x00\n        /* \"#utility.yul\":3362:3364   */\n      0x20\n        /* \"#utility.yul\":3350:3359   */\n      dup3\n        /* \"#utility.yul\":3341:3348   */\n      dup5\n        /* \"#utility.yul\":3337:3360   */\n      sub\n        /* \"#utility.yul\":3333:3365   */\n      slt\n        /* \"#utility.yul\":3330:3449   */\n      iszero\n      tag_459\n      jumpi\n        /* \"#utility.yul\":3368:3447   */\n      tag_460\n      tag_346\n      jump\t// in\n    tag_460:\n        /* \"#utility.yul\":3330:3449   */\n    tag_459:\n        /* \"#utility.yul\":3516:3517   */\n      0x00\n        /* \"#utility.yul\":3505:3514   */\n      dup3\n        /* \"#utility.yul\":3501:3518   */\n      add\n        /* \"#utility.yul\":3488:3519   */\n      calldataload\n        /* \"#utility.yul\":3546:3564   */\n      0xffffffffffffffff\n        /* \"#utility.yul\":3538:3544   */\n      dup2\n        /* \"#utility.yul\":3535:3565   */\n      gt\n        /* \"#utility.yul\":3532:3649   */\n      iszero\n      tag_461\n      jumpi\n        /* \"#utility.yul\":3568:3647   */\n      tag_462\n      tag_347\n      jump\t// in\n    tag_462:\n        /* \"#utility.yul\":3532:3649   */\n    tag_461:\n        /* \"#utility.yul\":3673:3736   */\n      tag_463\n        /* \"#utility.yul\":3728:3735   */\n      dup5\n        /* \"#utility.yul\":3719:3725   */\n      dup3\n        /* \"#utility.yul\":3708:3717   */\n      dup6\n        /* \"#utility.yul\":3704:3726   */\n      add\n        /* \"#utility.yul\":3673:3736   */\n      tag_360\n      jump\t// in\n    tag_463:\n        /* \"#utility.yul\":3663:3736   */\n      swap2\n      pop\n        /* \"#utility.yul\":3459:3746   */\n      pop\n        /* \"#utility.yul\":3244:3753   */\n      swap3\n      swap2\n      pop\n      pop\n      jump\t// out\n        /* \"#utility.yul\":3759:3873   */\n    tag_361:\n        /* \"#utility.yul\":3826:3832   */\n      0x00\n        /* \"#utility.yul\":3860:3865   */\n      dup2\n        /* \"#utility.yul\":3854:3866   */\n      mload\n        /* \"#utility.yul\":3844:3866   */\n      swap1\n      pop\n        /* \"#utility.yul\":3759:3873   */\n      swap2\n      swap1\n      pop\n      jump\t// out\n        /* \"#utility.yul\":3879:4063   */\n    tag_362:\n        /* \"#utility.yul\":3978:3989   */\n      0x00\n        /* \"#utility.yul\":4012:4018   */\n      dup3\n        /* \"#utility.yul\":4007:4010   */\n      dup3\n        /* \"#utility.yul\":4000:4019   */\n      mstore\n        /* \"#utility.yul\":4052:4056   */\n      0x20\n        /* \"#utility.yul\":4047:4050   */\n      dup3\n        /* \"#utility.yul\":4043:4057   */\n      add\n        /* \"#utility.yul\":4028:4057   */\n      swap1\n      pop\n        /* \"#utility.yul\":3879:4063   */\n      swap3\n      swap2\n      pop\n      pop\n      jump\t// out\n        /* \"#utility.yul\":4069:4201   */\n    tag_363:\n        /* \"#utility.yul\":4136:4140   */\n      0x00\n        /* \"#utility.yul\":4159:4162   */\n      dup2\n        /* \"#utility.yul\":4151:4162   */\n      swap1\n      pop\n        /* \"#utility.yul\":4189:4193   */\n      0x20\n        /* \"#utility.yul\":4184:4187   */\n      dup3\n        /* \"#utility.yul\":4180:4194   */\n      add\n        /* \"#utility.yul\":4172:4194   */\n      swap1\n      pop\n        /* \"#utility.yul\":4069:4201   */\n      swap2\n      swap1\n      pop\n      jump\t// out\n        /* \"#utility.yul\":4207:4333   */\n    tag_364:\n        /* \"#utility.yul\":4244:4251   */\n      0x00\n        /* \"#utility.yul\":4284:4326   */\n      0xffffffffffffffffffffffffffffffffffffffff\n        /* \"#utility.yul\":4277:4282   */\n      dup3\n        /* \"#utility.yul\":4273:4327   */\n      and\n        /* \"#utility.yul\":4262:4327   */\n      swap1\n      pop\n        /* \"#utility.yul\":4207:4333   */\n      swap2\n      swap1\n      pop\n      jump\t// out\n        /* \"#utility.yul\":4339:4435   */\n    tag_365:\n        /* \"#utility.yul\":4376:4383   */\n      0x00\n        /* \"#utility.yul\":4405:4429   */\n      tag_469\n        /* \"#utility.yul\":4423:4428   */\n      dup3\n        /* \"#utility.yul\":4405:4429   */\n      tag_364\n      jump\t// in\n    tag_469:\n        /* \"#utility.yul\":4394:4429   */\n      swap1\n      pop\n        /* \"#utility.yul\":4339:4435   */\n      swap2\n      swap1\n      pop\n      jump\t// out\n        /* \"#utility.yul\":4441:4549   */\n    tag_366:\n        /* \"#utility.yul\":4518:4542   */\n      tag_471\n        /* \"#utility.yul\":4536:4541   */\n      dup2\n        /* \"#utility.yul\":4518:4542   */\n      tag_365\n      jump\t// in\n    tag_471:\n        /* \"#utility.yul\":4513:4516   */\n      dup3\n        /* \"#utility.yul\":4506:4543   */\n      mstore\n        /* \"#utility.yul\":4441:4549   */\n      pop\n      pop\n      jump\t// out\n        /* \"#utility.yul\":4555:4734   */\n    tag_367:\n        /* \"#utility.yul\":4624:4634   */\n      0x00\n        /* \"#utility.yul\":4645:4691   */\n      tag_473\n        /* \"#utility.yul\":4687:4690   */\n      dup4\n        /* \"#utility.yul\":4679:4685   */\n      dup4\n        /* \"#utility.yul\":4645:4691   */\n      tag_366\n      jump\t// in\n    tag_473:\n        /* \"#utility.yul\":4723:4727   */\n      0x20\n        /* \"#utility.yul\":4718:4721   */\n      dup4\n        /* \"#utility.yul\":4714:4728   */\n      add\n        /* \"#utility.yul\":4700:4728   */\n      swap1\n      pop\n        /* \"#utility.yul\":4555:4734   */\n      swap3\n      swap2\n      pop\n      pop\n      jump\t// out\n        /* \"#utility.yul\":4740:4853   */\n    tag_368:\n        /* \"#utility.yul\":4810:4814   */\n      0x00\n        /* \"#utility.yul\":4842:4846   */\n      0x20\n        /* \"#utility.yul\":4837:4840   */\n      dup3\n        /* \"#utility.yul\":4833:4847   */\n      add\n        /* \"#utility.yul\":4825:4847   */\n      swap1\n      pop\n        /* \"#utility.yul\":4740:4853   */\n      swap2\n      swap1\n      pop\n      jump\t// out\n        /* \"#utility.yul\":4889:5621   */\n    tag_369:\n        /* \"#utility.yul\":5008:5011   */\n      0x00\n        /* \"#utility.yul\":5037:5091   */\n      tag_476\n        /* \"#utility.yul\":5085:5090   */\n      dup3\n        /* \"#utility.yul\":5037:5091   */\n      tag_361\n      jump\t// in\n    tag_476:\n        /* \"#utility.yul\":5107:5193   */\n      tag_477\n        /* \"#utility.yul\":5186:5192   */\n      dup2\n        /* \"#utility.yul\":5181:5184   */\n      dup6\n        /* \"#utility.yul\":5107:5193   */\n      tag_362\n      jump\t// in\n    tag_477:\n        /* \"#utility.yul\":5100:5193   */\n      swap4\n      pop\n        /* \"#utility.yul\":5217:5273   */\n      tag_478\n        /* \"#utility.yul\":5267:5272   */\n      dup4\n        /* \"#utility.yul\":5217:5273   */\n      tag_363\n      jump\t// in\n    tag_478:\n        /* \"#utility.yul\":5296:5303   */\n      dup1\n        /* \"#utility.yul\":5327:5328   */\n      0x00\n        /* \"#utility.yul\":5312:5596   */\n    tag_479:\n        /* \"#utility.yul\":5337:5343   */\n      dup4\n        /* \"#utility.yul\":5334:5335   */\n      dup2\n        /* \"#utility.yul\":5331:5344   */\n      lt\n        /* \"#utility.yul\":5312:5596   */\n      iszero\n      tag_481\n      jumpi\n        /* \"#utility.yul\":5413:5419   */\n      dup2\n        /* \"#utility.yul\":5407:5420   */\n      mload\n        /* \"#utility.yul\":5440:5503   */\n      tag_482\n        /* \"#utility.yul\":5499:5502   */\n      dup9\n        /* \"#utility.yul\":5484:5497   */\n      dup3\n        /* \"#utility.yul\":5440:5503   */\n      tag_367\n      jump\t// in\n    tag_482:\n        /* \"#utility.yul\":5433:5503   */\n      swap8\n      pop\n        /* \"#utility.yul\":5526:5586   */\n      tag_483\n        /* \"#utility.yul\":5579:5585   */\n      dup4\n        /* \"#utility.yul\":5526:5586   */\n      tag_368\n      jump\t// in\n    tag_483:\n        /* \"#utility.yul\":5516:5586   */\n      swap3\n      pop\n        /* \"#utility.yul\":5372:5596   */\n      pop\n        /* \"#utility.yul\":5359:5360   */\n      0x01\n        /* \"#utility.yul\":5356:5357   */\n      dup2\n        /* \"#utility.yul\":5352:5361   */\n      add\n        /* \"#utility.yul\":5347:5361   */\n      swap1\n      pop\n        /* \"#utility.yul\":5312:5596   */\n      jump(tag_479)\n    tag_481:\n        /* \"#utility.yul\":5316:5330   */\n      pop\n        /* \"#utility.yul\":5612:5615   */\n      dup6\n        /* \"#utility.yul\":5605:5615   */\n      swap4\n      pop\n        /* \"#utility.yul\":5013:5621   */\n      pop\n      pop\n      pop\n        /* \"#utility.yul\":4889:5621   */\n      swap3\n      swap2\n      pop\n      pop\n      jump\t// out\n        /* \"#utility.yul\":5627:6000   */\n    tag_40:\n        /* \"#utility.yul\":5770:5774   */\n      0x00\n        /* \"#utility.yul\":5808:5810   */\n      0x20\n        /* \"#utility.yul\":5797:5806   */\n      dup3\n        /* \"#utility.yul\":5793:5811   */\n      add\n        /* \"#utility.yul\":5785:5811   */\n      swap1\n      pop\n        /* \"#utility.yul\":5857:5866   */\n      dup2\n        /* \"#utility.yul\":5851:5855   */\n      dup2\n        /* \"#utility.yul\":5847:5867   */\n      sub\n        /* \"#utility.yul\":5843:5844   */\n      0x00\n        /* \"#utility.yul\":5832:5841   */\n      dup4\n        /* \"#utility.yul\":5828:5845   */\n      add\n        /* \"#utility.yul\":5821:5868   */\n      mstore\n        /* \"#utility.yul\":5885:5993   */\n      tag_485\n        /* \"#utility.yul\":5988:5992   */\n      dup2\n        /* \"#utility.yul\":5979:5985   */\n      dup5\n        /* \"#utility.yul\":5885:5993   */\n      tag_369\n      jump\t// in\n    tag_485:\n        /* \"#utility.yul\":5877:5993   */\n      swap1\n      pop\n        /* \"#utility.yul\":5627:6000   */\n      swap3\n      swap2\n      pop\n      pop\n      jump\t// out\n        /* \"#utility.yul\":6006:6128   */\n    tag_370:\n        /* \"#utility.yul\":6079:6103   */\n      tag_487\n        /* \"#utility.yul\":6097:6102   */\n      dup2\n        /* \"#utility.yul\":6079:6103   */\n      tag_365\n      jump\t// in\n    tag_487:\n        /* \"#utility.yul\":6072:6077   */\n      dup2\n        /* \"#utility.yul\":6069:6104   */\n      eq\n        /* \"#utility.yul\":6059:6122   */\n      tag_488\n      jumpi\n        /* \"#utility.yul\":6118:6119   */\n      0x00\n        /* \"#utility.yul\":6115:6116   */\n      dup1\n        /* \"#utility.yul\":6108:6120   */\n      revert\n        /* \"#utility.yul\":6059:6122   */\n    tag_488:\n        /* \"#utility.yul\":6006:6128   */\n      pop\n      jump\t// out\n        /* \"#utility.yul\":6134:6273   */\n    tag_371:\n        /* \"#utility.yul\":6180:6185   */\n      0x00\n        /* \"#utility.yul\":6218:6224   */\n      dup2\n        /* \"#utility.yul\":6205:6225   */\n      calldataload\n        /* \"#utility.yul\":6196:6225   */\n      swap1\n      pop\n        /* \"#utility.yul\":6234:6267   */\n      tag_490\n        /* \"#utility.yul\":6261:6266   */\n      dup2\n        /* \"#utility.yul\":6234:6267   */\n      tag_370\n      jump\t// in\n    tag_490:\n        /* \"#utility.yul\":6134:6273   */\n      swap3\n      swap2\n      pop\n      pop\n      jump\t// out\n        /* \"#utility.yul\":6279:6608   */\n    tag_45:\n        /* \"#utility.yul\":6338:6344   */\n      0x00\n        /* \"#utility.yul\":6387:6389   */\n      0x20\n        /* \"#utility.yul\":6375:6384   */\n      dup3\n        /* \"#utility.yul\":6366:6373   */\n      dup5\n        /* \"#utility.yul\":6362:6385   */\n      sub\n        /* \"#utility.yul\":6358:6390   */\n      slt\n        /* \"#utility.yul\":6355:6474   */\n      iszero\n      tag_492\n      jumpi\n        /* \"#utility.yul\":6393:6472   */\n      tag_493\n      tag_346\n      jump\t// in\n    tag_493:\n        /* \"#utility.yul\":6355:6474   */\n    tag_492:\n        /* \"#utility.yul\":6513:6514   */\n      0x00\n        /* \"#utility.yul\":6538:6591   */\n      tag_494\n        /* \"#utility.yul\":6583:6590   */\n      dup5\n        /* \"#utility.yul\":6574:6580   */\n      dup3\n        /* \"#utility.yul\":6563:6572   */\n      dup6\n        /* \"#utility.yul\":6559:6581   */\n      add\n        /* \"#utility.yul\":6538:6591   */\n      tag_371\n      jump\t// in\n    tag_494:\n        /* \"#utility.yul\":6528:6591   */\n      swap2\n      pop\n        /* \"#utility.yul\":6484:6601   */\n      pop\n        /* \"#utility.yul\":6279:6608   */\n      swap3\n      swap2\n      pop\n      pop\n      jump\t// out\n        /* \"#utility.yul\":6614:6732   */\n    tag_372:\n        /* \"#utility.yul\":6701:6725   */\n      tag_496\n        /* \"#utility.yul\":6719:6724   */\n      dup2\n        /* \"#utility.yul\":6701:6725   */\n      tag_348\n      jump\t// in\n    tag_496:\n        /* \"#utility.yul\":6696:6699   */\n      dup3\n        /* \"#utility.yul\":6689:6726   */\n      mstore\n        /* \"#utility.yul\":6614:6732   */\n      pop\n      pop\n      jump\t// out\n        /* \"#utility.yul\":6738:6960   */\n    tag_51:\n        /* \"#utility.yul\":6831:6835   */\n      0x00\n        /* \"#utility.yul\":6869:6871   */\n      0x20\n        /* \"#utility.yul\":6858:6867   */\n      dup3\n        /* \"#utility.yul\":6854:6872   */\n      add\n        /* \"#utility.yul\":6846:6872   */\n      swap1\n      pop\n        /* \"#utility.yul\":6882:6953   */\n      tag_498\n        /* \"#utility.yul\":6950:6951   */\n      0x00\n        /* \"#utility.yul\":6939:6948   */\n      dup4\n        /* \"#utility.yul\":6935:6952   */\n      add\n        /* \"#utility.yul\":6926:6932   */\n      dup5\n        /* \"#utility.yul\":6882:6953   */\n      tag_372\n      jump\t// in\n    tag_498:\n        /* \"#utility.yul\":6738:6960   */\n      swap3\n      swap2\n      pop\n      pop\n      jump\t// out\n        /* \"#utility.yul\":6966:7084   */\n    tag_373:\n        /* \"#utility.yul\":7053:7077   */\n      tag_500\n        /* \"#utility.yul\":7071:7076   */\n      dup2\n        /* \"#utility.yul\":7053:7077   */\n      tag_365\n      jump\t// in\n    tag_500:\n        /* \"#utility.yul\":7048:7051   */\n      dup3\n        /* \"#utility.yul\":7041:7078   */\n      mstore\n        /* \"#utility.yul\":6966:7084   */\n      pop\n      pop\n      jump\t// out\n        /* \"#utility.yul\":7090:7312   */\n    tag_57:\n        /* \"#utility.yul\":7183:7187   */\n      0x00\n        /* \"#utility.yul\":7221:7223   */\n      0x20\n        /* \"#utility.yul\":7210:7219   */\n      dup3\n        /* \"#utility.yul\":7206:7224   */\n      add\n        /* \"#utility.yul\":7198:7224   */\n      swap1\n      pop\n        /* \"#utility.yul\":7234:7305   */\n      tag_502\n        /* \"#utility.yul\":7302:7303   */\n      0x00\n        /* \"#utility.yul\":7291:7300   */\n      dup4\n        /* \"#utility.yul\":7287:7304   */\n      add\n        /* \"#utility.yul\":7278:7284   */\n      dup5\n        /* \"#utility.yul\":7234:7305   */\n      tag_373\n      jump\t// in\n    tag_502:\n        /* \"#utility.yul\":7090:7312   */\n      swap3\n      swap2\n      pop\n      pop\n      jump\t// out\n        /* \"#utility.yul\":7318:7457   */\n    tag_374:\n        /* \"#utility.yul\":7410:7416   */\n      0x00\n        /* \"#utility.yul\":7444:7449   */\n      dup2\n        /* \"#utility.yul\":7438:7450   */\n      mload\n        /* \"#utility.yul\":7428:7450   */\n      swap1\n      pop\n        /* \"#utility.yul\":7318:7457   */\n      swap2\n      swap1\n      pop\n      jump\t// out\n        /* \"#utility.yul\":7463:7672   */\n    tag_375:\n        /* \"#utility.yul\":7587:7598   */\n      0x00\n        /* \"#utility.yul\":7621:7627   */\n      dup3\n        /* \"#utility.yul\":7616:7619   */\n      dup3\n        /* \"#utility.yul\":7609:7628   */\n      mstore\n        /* \"#utility.yul\":7661:7665   */\n      0x20\n        /* \"#utility.yul\":7656:7659   */\n      dup3\n        /* \"#utility.yul\":7652:7666   */\n      add\n        /* \"#utility.yul\":7637:7666   */\n      swap1\n      pop\n        /* \"#utility.yul\":7463:7672   */\n      swap3\n      swap2\n      pop\n      pop\n      jump\t// out\n        /* \"#utility.yul\":7678:7835   */\n    tag_376:\n        /* \"#utility.yul\":7770:7774   */\n      0x00\n        /* \"#utility.yul\":7793:7796   */\n      dup2\n        /* \"#utility.yul\":7785:7796   */\n      swap1\n      pop\n        /* \"#utility.yul\":7823:7827   */\n      0x20\n        /* \"#utility.yul\":7818:7821   */\n      dup3\n        /* \"#utility.yul\":7814:7828   */\n      add\n        /* \"#utility.yul\":7806:7828   */\n      swap1\n      pop\n        /* \"#utility.yul\":7678:7835   */\n      swap2\n      swap1\n      pop\n      jump\t// out\n        /* \"#utility.yul\":7841:7940   */\n    tag_377:\n        /* \"#utility.yul\":7893:7899   */\n      0x00\n        /* \"#utility.yul\":7927:7932   */\n      dup2\n        /* \"#utility.yul\":7921:7933   */\n      mload\n        /* \"#utility.yul\":7911:7933   */\n      swap1\n      pop\n        /* \"#utility.yul\":7841:7940   */\n      swap2\n      swap1\n      pop\n      jump\t// out\n        /* \"#utility.yul\":7946:8105   */\n    tag_378:\n        /* \"#utility.yul\":8020:8031   */\n      0x00\n        /* \"#utility.yul\":8054:8060   */\n      dup3\n        /* \"#utility.yul\":8049:8052   */\n      dup3\n        /* \"#utility.yul\":8042:8061   */\n      mstore\n        /* \"#utility.yul\":8094:8098   */\n      0x20\n        /* \"#utility.yul\":8089:8092   */\n      dup3\n        /* \"#utility.yul\":8085:8099   */\n      add\n        /* \"#utility.yul\":8070:8099   */\n      swap1\n      pop\n        /* \"#utility.yul\":7946:8105   */\n      swap3\n      swap2\n      pop\n      pop\n      jump\t// out\n        /* \"#utility.yul\":8111:8357   */\n    tag_379:\n        /* \"#utility.yul\":8192:8193   */\n      0x00\n        /* \"#utility.yul\":8202:8315   */\n    tag_509:\n        /* \"#utility.yul\":8216:8222   */\n      dup4\n        /* \"#utility.yul\":8213:8214   */\n      dup2\n        /* \"#utility.yul\":8210:8223   */\n      lt\n        /* \"#utility.yul\":8202:8315   */\n      iszero\n      tag_511\n      jumpi\n        /* \"#utility.yul\":8301:8302   */\n      dup1\n        /* \"#utility.yul\":8296:8299   */\n      dup3\n        /* \"#utility.yul\":8292:8303   */\n      add\n        /* \"#utility.yul\":8286:8304   */\n      mload\n        /* \"#utility.yul\":8282:8283   */\n      dup2\n        /* \"#utility.yul\":8277:8280   */\n      dup5\n        /* \"#utility.yul\":8273:8284   */\n      add\n        /* \"#utility.yul\":8266:8305   */\n      mstore\n        /* \"#utility.yul\":8238:8240   */\n      0x20\n        /* \"#utility.yul\":8235:8236   */\n      dup2\n        /* \"#utility.yul\":8231:8241   */\n      add\n        /* \"#utility.yul\":8226:8241   */\n      swap1\n      pop\n        /* \"#utility.yul\":8202:8315   */\n      jump(tag_509)\n    tag_511:\n        /* \"#utility.yul\":8349:8350   */\n      0x00\n        /* \"#utility.yul\":8340:8346   */\n      dup5\n        /* \"#utility.yul\":8335:8338   */\n      dup5\n        /* \"#utility.yul\":8331:8347   */\n      add\n        /* \"#utility.yul\":8324:8351   */\n      mstore\n        /* \"#utility.yul\":8173:8357   */\n      pop\n        /* \"#utility.yul\":8111:8357   */\n      pop\n      pop\n      pop\n      jump\t// out\n        /* \"#utility.yul\":8363:8720   */\n    tag_380:\n        /* \"#utility.yul\":8441:8444   */\n      0x00\n        /* \"#utility.yul\":8469:8508   */\n      tag_513\n        /* \"#utility.yul\":8502:8507   */\n      dup3\n        /* \"#utility.yul\":8469:8508   */\n      tag_377\n      jump\t// in\n    tag_513:\n        /* \"#utility.yul\":8524:8585   */\n      tag_514\n        /* \"#utility.yul\":8578:8584   */\n      dup2\n        /* \"#utility.yul\":8573:8576   */\n      dup6\n        /* \"#utility.yul\":8524:8585   */\n      tag_378\n      jump\t// in\n    tag_514:\n        /* \"#utility.yul\":8517:8585   */\n      swap4\n      pop\n        /* \"#utility.yul\":8594:8659   */\n      tag_515\n        /* \"#utility.yul\":8652:8658   */\n      dup2\n        /* \"#utility.yul\":8647:8650   */\n      dup6\n        /* \"#utility.yul\":8640:8644   */\n      0x20\n        /* \"#utility.yul\":8633:8638   */\n      dup7\n        /* \"#utility.yul\":8629:8645   */\n      add\n        /* \"#utility.yul\":8594:8659   */\n      tag_379\n      jump\t// in\n    tag_515:\n        /* \"#utility.yul\":8684:8713   */\n      tag_516\n        /* \"#utility.yul\":8706:8712   */\n      dup2\n        /* \"#utility.yul\":8684:8713   */\n      tag_353\n      jump\t// in\n    tag_516:\n        /* \"#utility.yul\":8679:8682   */\n      dup5\n        /* \"#utility.yul\":8675:8714   */\n      add\n        /* \"#utility.yul\":8668:8714   */\n      swap2\n      pop\n        /* \"#utility.yul\":8445:8720   */\n      pop\n        /* \"#utility.yul\":8363:8720   */\n      swap3\n      swap2\n      pop\n      pop\n      jump\t// out\n        /* \"#utility.yul\":8726:8834   */\n    tag_381:\n        /* \"#utility.yul\":8803:8827   */\n      tag_518\n        /* \"#utility.yul\":8821:8826   */\n      dup2\n        /* \"#utility.yul\":8803:8827   */\n      tag_348\n      jump\t// in\n    tag_518:\n        /* \"#utility.yul\":8798:8801   */\n      dup3\n        /* \"#utility.yul\":8791:8828   */\n      mstore\n        /* \"#utility.yul\":8726:8834   */\n      pop\n      pop\n      jump\t// out\n        /* \"#utility.yul\":8896:9504   */\n    tag_382:\n        /* \"#utility.yul\":9005:9008   */\n      0x00\n        /* \"#utility.yul\":9041:9045   */\n      0x40\n        /* \"#utility.yul\":9036:9039   */\n      dup4\n        /* \"#utility.yul\":9032:9046   */\n      add\n        /* \"#utility.yul\":9135:9139   */\n      0x00\n        /* \"#utility.yul\":9128:9133   */\n      dup4\n        /* \"#utility.yul\":9124:9140   */\n      add\n        /* \"#utility.yul\":9118:9141   */\n      mload\n        /* \"#utility.yul\":9188:9191   */\n      dup5\n        /* \"#utility.yul\":9182:9186   */\n      dup3\n        /* \"#utility.yul\":9178:9192   */\n      sub\n        /* \"#utility.yul\":9171:9175   */\n      0x00\n        /* \"#utility.yul\":9166:9169   */\n      dup7\n        /* \"#utility.yul\":9162:9176   */\n      add\n        /* \"#utility.yul\":9155:9193   */\n      mstore\n        /* \"#utility.yul\":9214:9287   */\n      tag_520\n        /* \"#utility.yul\":9282:9286   */\n      dup3\n        /* \"#utility.yul\":9268:9280   */\n      dup3\n        /* \"#utility.yul\":9214:9287   */\n      tag_380\n      jump\t// in\n    tag_520:\n        /* \"#utility.yul\":9206:9287   */\n      swap2\n      pop\n        /* \"#utility.yul\":9056:9298   */\n      pop\n        /* \"#utility.yul\":9385:9389   */\n      0x20\n        /* \"#utility.yul\":9378:9383   */\n      dup4\n        /* \"#utility.yul\":9374:9390   */\n      add\n        /* \"#utility.yul\":9368:9391   */\n      mload\n        /* \"#utility.yul\":9404:9467   */\n      tag_521\n        /* \"#utility.yul\":9461:9465   */\n      0x20\n        /* \"#utility.yul\":9456:9459   */\n      dup7\n        /* \"#utility.yul\":9452:9466   */\n      add\n        /* \"#utility.yul\":9438:9450   */\n      dup3\n        /* \"#utility.yul\":9404:9467   */\n      tag_381\n      jump\t// in\n    tag_521:\n        /* \"#utility.yul\":9308:9477   */\n      pop\n        /* \"#utility.yul\":9494:9498   */\n      dup1\n        /* \"#utility.yul\":9487:9498   */\n      swap2\n      pop\n        /* \"#utility.yul\":9010:9504   */\n      pop\n        /* \"#utility.yul\":8896:9504   */\n      swap3\n      swap2\n      pop\n      pop\n      jump\t// out\n        /* \"#utility.yul\":9510:9766   */\n    tag_383:\n        /* \"#utility.yul\":9629:9639   */\n      0x00\n        /* \"#utility.yul\":9664:9760   */\n      tag_523\n        /* \"#utility.yul\":9756:9759   */\n      dup4\n        /* \"#utility.yul\":9748:9754   */\n      dup4\n        /* \"#utility.yul\":9664:9760   */\n      tag_382\n      jump\t// in\n    tag_523:\n        /* \"#utility.yul\":9650:9760   */\n      swap1\n      pop\n        /* \"#utility.yul\":9510:9766   */\n      swap3\n      swap2\n      pop\n      pop\n      jump\t// out\n        /* \"#utility.yul\":9772:9910   */\n    tag_384:\n        /* \"#utility.yul\":9867:9871   */\n      0x00\n        /* \"#utility.yul\":9899:9903   */\n      0x20\n        /* \"#utility.yul\":9894:9897   */\n      dup3\n        /* \"#utility.yul\":9890:9904   */\n      add\n        /* \"#utility.yul\":9882:9904   */\n      swap1\n      pop\n        /* \"#utility.yul\":9772:9910   */\n      swap2\n      swap1\n      pop\n      jump\t// out\n        /* \"#utility.yul\":9976:11087   */\n    tag_385:\n        /* \"#utility.yul\":10145:10148   */\n      0x00\n        /* \"#utility.yul\":10174:10253   */\n      tag_526\n        /* \"#utility.yul\":10247:10252   */\n      dup3\n        /* \"#utility.yul\":10174:10253   */\n      tag_374\n      jump\t// in\n    tag_526:\n        /* \"#utility.yul\":10269:10380   */\n      tag_527\n        /* \"#utility.yul\":10373:10379   */\n      dup2\n        /* \"#utility.yul\":10368:10371   */\n      dup6\n        /* \"#utility.yul\":10269:10380   */\n      tag_375\n      jump\t// in\n    tag_527:\n        /* \"#utility.yul\":10262:10380   */\n      swap4\n      pop\n        /* \"#utility.yul\":10406:10409   */\n      dup4\n        /* \"#utility.yul\":10451:10455   */\n      0x20\n        /* \"#utility.yul\":10443:10449   */\n      dup3\n        /* \"#utility.yul\":10439:10456   */\n      mul\n        /* \"#utility.yul\":10434:10437   */\n      dup6\n        /* \"#utility.yul\":10430:10457   */\n      add\n        /* \"#utility.yul\":10481:10562   */\n      tag_528\n        /* \"#utility.yul\":10556:10561   */\n      dup6\n        /* \"#utility.yul\":10481:10562   */\n      tag_376\n      jump\t// in\n    tag_528:\n        /* \"#utility.yul\":10585:10592   */\n      dup1\n        /* \"#utility.yul\":10616:10617   */\n      0x00\n        /* \"#utility.yul\":10601:11042   */\n    tag_529:\n        /* \"#utility.yul\":10626:10632   */\n      dup6\n        /* \"#utility.yul\":10623:10624   */\n      dup2\n        /* \"#utility.yul\":10620:10633   */\n      lt\n        /* \"#utility.yul\":10601:11042   */\n      iszero\n      tag_531\n      jumpi\n        /* \"#utility.yul\":10697:10706   */\n      dup5\n        /* \"#utility.yul\":10691:10695   */\n      dup5\n        /* \"#utility.yul\":10687:10707   */\n      sub\n        /* \"#utility.yul\":10682:10685   */\n      dup10\n        /* \"#utility.yul\":10675:10708   */\n      mstore\n        /* \"#utility.yul\":10748:10754   */\n      dup2\n        /* \"#utility.yul\":10742:10755   */\n      mload\n        /* \"#utility.yul\":10776:10890   */\n      tag_532\n        /* \"#utility.yul\":10885:10889   */\n      dup6\n        /* \"#utility.yul\":10870:10883   */\n      dup3\n        /* \"#utility.yul\":10776:10890   */\n      tag_383\n      jump\t// in\n    tag_532:\n        /* \"#utility.yul\":10768:10890   */\n      swap5\n      pop\n        /* \"#utility.yul\":10913:10998   */\n      tag_533\n        /* \"#utility.yul\":10991:10997   */\n      dup4\n        /* \"#utility.yul\":10913:10998   */\n      tag_384\n      jump\t// in\n    tag_533:\n        /* \"#utility.yul\":10903:10998   */\n      swap3\n      pop\n        /* \"#utility.yul\":11027:11031   */\n      0x20\n        /* \"#utility.yul\":11022:11025   */\n      dup11\n        /* \"#utility.yul\":11018:11032   */\n      add\n        /* \"#utility.yul\":11011:11032   */\n      swap10\n      pop\n        /* \"#utility.yul\":10661:11042   */\n      pop\n        /* \"#utility.yul\":10648:10649   */\n      0x01\n        /* \"#utility.yul\":10645:10646   */\n      dup2\n        /* \"#utility.yul\":10641:10650   */\n      add\n        /* \"#utility.yul\":10636:10650   */\n      swap1\n      pop\n        /* \"#utility.yul\":10601:11042   */\n      jump(tag_529)\n    tag_531:\n        /* \"#utility.yul\":10605:10619   */\n      pop\n        /* \"#utility.yul\":11058:11062   */\n      dup3\n        /* \"#utility.yul\":11051:11062   */\n      swap8\n      pop\n        /* \"#utility.yul\":11078:11081   */\n      dup8\n        /* \"#utility.yul\":11071:11081   */\n      swap6\n      pop\n        /* \"#utility.yul\":10150:11087   */\n      pop\n      pop\n      pop\n      pop\n      pop\n        /* \"#utility.yul\":9976:11087   */\n      swap3\n      swap2\n      pop\n      pop\n      jump\t// out\n        /* \"#utility.yul\":11093:11566   */\n    tag_68:\n        /* \"#utility.yul\":11286:11290   */\n      0x00\n        /* \"#utility.yul\":11324:11326   */\n      0x20\n        /* \"#utility.yul\":11313:11322   */\n      dup3\n        /* \"#utility.yul\":11309:11327   */\n      add\n        /* \"#utility.yul\":11301:11327   */\n      swap1\n      pop\n        /* \"#utility.yul\":11373:11382   */\n      dup2\n        /* \"#utility.yul\":11367:11371   */\n      dup2\n        /* \"#utility.yul\":11363:11383   */\n      sub\n        /* \"#utility.yul\":11359:11360   */\n      0x00\n        /* \"#utility.yul\":11348:11357   */\n      dup4\n        /* \"#utility.yul\":11344:11361   */\n      add\n        /* \"#utility.yul\":11337:11384   */\n      mstore\n        /* \"#utility.yul\":11401:11559   */\n      tag_535\n        /* \"#utility.yul\":11554:11558   */\n      dup2\n        /* \"#utility.yul\":11545:11551   */\n      dup5\n        /* \"#utility.yul\":11401:11559   */\n      tag_385\n      jump\t// in\n    tag_535:\n        /* \"#utility.yul\":11393:11559   */\n      swap1\n      pop\n        /* \"#utility.yul\":11093:11566   */\n      swap3\n      swap2\n      pop\n      pop\n      jump\t// out\n        /* \"#utility.yul\":11572:11883   */\n    tag_386:\n        /* \"#utility.yul\":11649:11653   */\n      0x00\n        /* \"#utility.yul\":11739:11757   */\n      0xffffffffffffffff\n        /* \"#utility.yul\":11731:11737   */\n      dup3\n        /* \"#utility.yul\":11728:11758   */\n      gt\n        /* \"#utility.yul\":11725:11781   */\n      iszero\n      tag_537\n      jumpi\n        /* \"#utility.yul\":11761:11779   */\n      tag_538\n      tag_354\n      jump\t// in\n    tag_538:\n        /* \"#utility.yul\":11725:11781   */\n    tag_537:\n        /* \"#utility.yul\":11811:11815   */\n      0x20\n        /* \"#utility.yul\":11803:11809   */\n      dup3\n        /* \"#utility.yul\":11799:11816   */\n      mul\n        /* \"#utility.yul\":11791:11816   */\n      swap1\n      pop\n        /* \"#utility.yul\":11871:11875   */\n      0x20\n        /* \"#utility.yul\":11865:11869   */\n      dup2\n        /* \"#utility.yul\":11861:11876   */\n      add\n        /* \"#utility.yul\":11853:11876   */\n      swap1\n      pop\n        /* \"#utility.yul\":11572:11883   */\n      swap2\n      swap1\n      pop\n      jump\t// out\n        /* \"#utility.yul\":11889:12006   */\n    tag_387:\n        /* \"#utility.yul\":11998:11999   */\n      0x00\n        /* \"#utility.yul\":11995:11996   */\n      dup1\n        /* \"#utility.yul\":11988:12000   */\n      revert\n        /* \"#utility.yul\":12029:12739   */\n    tag_388:\n        /* \"#utility.yul\":12125:12130   */\n      0x00\n        /* \"#utility.yul\":12150:12231   */\n      tag_541\n        /* \"#utility.yul\":12166:12230   */\n      tag_542\n        /* \"#utility.yul\":12223:12229   */\n      dup5\n        /* \"#utility.yul\":12166:12230   */\n      tag_386\n      jump\t// in\n    tag_542:\n        /* \"#utility.yul\":12150:12231   */\n      tag_356\n      jump\t// in\n    tag_541:\n        /* \"#utility.yul\":12141:12231   */\n      swap1\n      pop\n        /* \"#utility.yul\":12251:12256   */\n      dup1\n        /* \"#utility.yul\":12280:12286   */\n      dup4\n        /* \"#utility.yul\":12273:12278   */\n      dup3\n        /* \"#utility.yul\":12266:12287   */\n      mstore\n        /* \"#utility.yul\":12314:12318   */\n      0x20\n        /* \"#utility.yul\":12307:12312   */\n      dup3\n        /* \"#utility.yul\":12303:12319   */\n      add\n        /* \"#utility.yul\":12296:12319   */\n      swap1\n      pop\n        /* \"#utility.yul\":12367:12371   */\n      0x20\n        /* \"#utility.yul\":12359:12365   */\n      dup5\n        /* \"#utility.yul\":12355:12372   */\n      mul\n        /* \"#utility.yul\":12347:12353   */\n      dup4\n        /* \"#utility.yul\":12343:12373   */\n      add\n        /* \"#utility.yul\":12396:12399   */\n      dup6\n        /* \"#utility.yul\":12388:12394   */\n      dup2\n        /* \"#utility.yul\":12385:12400   */\n      gt\n        /* \"#utility.yul\":12382:12504   */\n      iszero\n      tag_543\n      jumpi\n        /* \"#utility.yul\":12415:12494   */\n      tag_544\n      tag_387\n      jump\t// in\n    tag_544:\n        /* \"#utility.yul\":12382:12504   */\n    tag_543:\n        /* \"#utility.yul\":12530:12536   */\n      dup4\n        /* \"#utility.yul\":12513:12733   */\n    tag_545:\n        /* \"#utility.yul\":12547:12553   */\n      dup2\n        /* \"#utility.yul\":12542:12545   */\n      dup2\n        /* \"#utility.yul\":12539:12554   */\n      lt\n        /* \"#utility.yul\":12513:12733   */\n      iszero\n      tag_547\n      jumpi\n        /* \"#utility.yul\":12622:12625   */\n      dup1\n        /* \"#utility.yul\":12651:12688   */\n      tag_548\n        /* \"#utility.yul\":12684:12687   */\n      dup9\n        /* \"#utility.yul\":12672:12682   */\n      dup3\n        /* \"#utility.yul\":12651:12688   */\n      tag_371\n      jump\t// in\n    tag_548:\n        /* \"#utility.yul\":12646:12649   */\n      dup5\n        /* \"#utility.yul\":12639:12689   */\n      mstore\n        /* \"#utility.yul\":12718:12722   */\n      0x20\n        /* \"#utility.yul\":12713:12716   */\n      dup5\n        /* \"#utility.yul\":12709:12723   */\n      add\n        /* \"#utility.yul\":12702:12723   */\n      swap4\n      pop\n        /* \"#utility.yul\":12589:12733   */\n      pop\n        /* \"#utility.yul\":12573:12577   */\n      0x20\n        /* \"#utility.yul\":12568:12571   */\n      dup2\n        /* \"#utility.yul\":12564:12578   */\n      add\n        /* \"#utility.yul\":12557:12578   */\n      swap1\n      pop\n        /* \"#utility.yul\":12513:12733   */\n      jump(tag_545)\n    tag_547:\n        /* \"#utility.yul\":12517:12538   */\n      pop\n        /* \"#utility.yul\":12131:12739   */\n      pop\n      pop\n        /* \"#utility.yul\":12029:12739   */\n      swap4\n      swap3\n      pop\n      pop\n      pop\n      jump\t// out\n        /* \"#utility.yul\":12762:13132   */\n    tag_389:\n        /* \"#utility.yul\":12833:12838   */\n      0x00\n        /* \"#utility.yul\":12882:12885   */\n      dup3\n        /* \"#utility.yul\":12875:12879   */\n      0x1f\n        /* \"#utility.yul\":12867:12873   */\n      dup4\n        /* \"#utility.yul\":12863:12880   */\n      add\n        /* \"#utility.yul\":12859:12886   */\n      slt\n        /* \"#utility.yul\":12849:12971   */\n      tag_550\n      jumpi\n        /* \"#utility.yul\":12890:12969   */\n      tag_551\n      tag_351\n      jump\t// in\n    tag_551:\n        /* \"#utility.yul\":12849:12971   */\n    tag_550:\n        /* \"#utility.yul\":13007:13013   */\n      dup2\n        /* \"#utility.yul\":12994:13014   */\n      calldataload\n        /* \"#utility.yul\":13032:13126   */\n      tag_552\n        /* \"#utility.yul\":13122:13125   */\n      dup5\n        /* \"#utility.yul\":13114:13120   */\n      dup3\n        /* \"#utility.yul\":13107:13111   */\n      0x20\n        /* \"#utility.yul\":13099:13105   */\n      dup7\n        /* \"#utility.yul\":13095:13112   */\n      add\n        /* \"#utility.yul\":13032:13126   */\n      tag_388\n      jump\t// in\n    tag_552:\n        /* \"#utility.yul\":13023:13126   */\n      swap2\n      pop\n        /* \"#utility.yul\":12839:13132   */\n      pop\n        /* \"#utility.yul\":12762:13132   */\n      swap3\n      swap2\n      pop\n      pop\n      jump\t// out\n        /* \"#utility.yul\":13138:13677   */\n    tag_71:\n        /* \"#utility.yul\":13222:13228   */\n      0x00\n        /* \"#utility.yul\":13271:13273   */\n      0x20\n        /* \"#utility.yul\":13259:13268   */\n      dup3\n        /* \"#utility.yul\":13250:13257   */\n      dup5\n        /* \"#utility.yul\":13246:13269   */\n      sub\n        /* \"#utility.yul\":13242:13274   */\n      slt\n        /* \"#utility.yul\":13239:13358   */\n      iszero\n      tag_554\n      jumpi\n        /* \"#utility.yul\":13277:13356   */\n      tag_555\n      tag_346\n      jump\t// in\n    tag_555:\n        /* \"#utility.yul\":13239:13358   */\n    tag_554:\n        /* \"#utility.yul\":13425:13426   */\n      0x00\n        /* \"#utility.yul\":13414:13423   */\n      dup3\n        /* \"#utility.yul\":13410:13427   */\n      add\n        /* \"#utility.yul\":13397:13428   */\n      calldataload\n        /* \"#utility.yul\":13455:13473   */\n      0xffffffffffffffff\n        /* \"#utility.yul\":13447:13453   */\n      dup2\n        /* \"#utility.yul\":13444:13474   */\n      gt\n        /* \"#utility.yul\":13441:13558   */\n      iszero\n      tag_556\n      jumpi\n        /* \"#utility.yul\":13477:13556   */\n      tag_557\n      tag_347\n      jump\t// in\n    tag_557:\n        /* \"#utility.yul\":13441:13558   */\n    tag_556:\n        /* \"#utility.yul\":13582:13660   */\n      tag_558\n        /* \"#utility.yul\":13652:13659   */\n      dup5\n        /* \"#utility.yul\":13643:13649   */\n      dup3\n        /* \"#utility.yul\":13632:13641   */\n      dup6\n        /* \"#utility.yul\":13628:13650   */\n      add\n        /* \"#utility.yul\":13582:13660   */\n      tag_389\n      jump\t// in\n    tag_558:\n        /* \"#utility.yul\":13572:13660   */\n      swap2\n      pop\n        /* \"#utility.yul\":13368:13670   */\n      pop\n        /* \"#utility.yul\":13138:13677   */\n      swap3\n      swap2\n      pop\n      pop\n      jump\t// out\n        /* \"#utility.yul\":13683:13863   */\n    tag_93:\n        /* \"#utility.yul\":13731:13808   */\n      0x4e487b7100000000000000000000000000000000000000000000000000000000\n        /* \"#utility.yul\":13728:13729   */\n      0x00\n        /* \"#utility.yul\":13721:13809   */\n      mstore\n        /* \"#utility.yul\":13828:13832   */\n      0x32\n        /* \"#utility.yul\":13825:13826   */\n      0x04\n        /* \"#utility.yul\":13818:13833   */\n      mstore\n        /* \"#utility.yul\":13852:13856   */\n      0x24\n        /* \"#utility.yul\":13849:13850   */\n      0x00\n        /* \"#utility.yul\":13842:13857   */\n      revert\n        /* \"#utility.yul\":13869:14049   */\n    tag_390:\n        /* \"#utility.yul\":13917:13994   */\n      0x4e487b7100000000000000000000000000000000000000000000000000000000\n        /* \"#utility.yul\":13914:13915   */\n      0x00\n        /* \"#utility.yul\":13907:13995   */\n      mstore\n        /* \"#utility.yul\":14014:14018   */\n      0x11\n        /* \"#utility.yul\":14011:14012   */\n      0x04\n        /* \"#utility.yul\":14004:14019   */\n      mstore\n        /* \"#utility.yul\":14038:14042   */\n      0x24\n        /* \"#utility.yul\":14035:14036   */\n      0x00\n        /* \"#utility.yul\":14028:14043   */\n      revert\n        /* \"#utility.yul\":14055:14288   */\n    tag_96:\n        /* \"#utility.yul\":14094:14097   */\n      0x00\n        /* \"#utility.yul\":14117:14141   */\n      tag_562\n        /* \"#utility.yul\":14135:14140   */\n      dup3\n        /* \"#utility.yul\":14117:14141   */\n      tag_348\n      jump\t// in\n    tag_562:\n        /* \"#utility.yul\":14108:14141   */\n      swap2\n      pop\n        /* \"#utility.yul\":14163:14229   */\n      0xffffffffffffffffffffffffffffffffffffffffffffffffffffffffffffffff\n        /* \"#utility.yul\":14156:14161   */\n      dup3\n        /* \"#utility.yul\":14153:14230   */\n      sub\n        /* \"#utility.yul\":14150:14253   */\n      tag_563\n      jumpi\n        /* \"#utility.yul\":14233:14251   */\n      tag_564\n      tag_390\n      jump\t// in\n    tag_564:\n        /* \"#utility.yul\":14150:14253   */\n    tag_563:\n        /* \"#utility.yul\":14280:14281   */\n      0x01\n        /* \"#utility.yul\":14273:14278   */\n      dup3\n        /* \"#utility.yul\":14269:14282   */\n      add\n        /* \"#utility.yul\":14262:14282   */\n      swap1\n      pop\n        /* \"#utility.yul\":14055:14288   */\n      swap2\n      swap1\n      pop\n      jump\t// out\n        /* \"#utility.yul\":14294:14626   */\n    tag_98:\n        /* \"#utility.yul\":14415:14419   */\n      0x00\n        /* \"#utility.yul\":14453:14455   */\n      0x40\n        /* \"#utility.yul\":14442:14451   */\n      dup3\n        /* \"#utility.yul\":14438:14456   */\n      add\n        /* \"#utility.yul\":14430:14456   */\n      swap1\n      pop\n        /* \"#utility.yul\":14466:14537   */\n      tag_566\n        /* \"#utility.yul\":14534:14535   */\n      0x00\n        /* \"#utility.yul\":14523:14532   */\n      dup4\n        /* \"#utility.yul\":14519:14536   */\n      add\n        /* \"#utility.yul\":14510:14516   */\n      dup6\n        /* \"#utility.yul\":14466:14537   */\n      tag_373\n      jump\t// in\n    tag_566:\n        /* \"#utility.yul\":14547:14619   */\n      tag_567\n        /* \"#utility.yul\":14615:14617   */\n      0x20\n        /* \"#utility.yul\":14604:14613   */\n      dup4\n        /* \"#utility.yul\":14600:14618   */\n      add\n        /* \"#utility.yul\":14591:14597   */\n      dup5\n        /* \"#utility.yul\":14547:14619   */\n      tag_372\n      jump\t// in\n    tag_567:\n        /* \"#utility.yul\":14294:14626   */\n      swap4\n      swap3\n      pop\n      pop\n      pop\n      jump\t// out\n        /* \"#utility.yul\":14632:14812   */\n    tag_105:\n        /* \"#utility.yul\":14680:14757   */\n      0x4e487b7100000000000000000000000000000000000000000000000000000000\n        /* \"#utility.yul\":14677:14678   */\n      0x00\n        /* \"#utility.yul\":14670:14758   */\n      mstore\n        /* \"#utility.yul\":14777:14781   */\n      0x21\n        /* \"#utility.yul\":14774:14775   */\n      0x04\n        /* \"#utility.yul\":14767:14782   */\n      mstore\n        /* \"#utility.yul\":14801:14805   */\n      0x24\n        /* \"#utility.yul\":14798:14799   */\n      0x00\n        /* \"#utility.yul\":14791:14806   */\n      revert\n        /* \"#utility.yul\":14818:14941   */\n    tag_391:\n        /* \"#utility.yul\":14909:14910   */\n      0x06\n        /* \"#utility.yul\":14902:14907   */\n      dup2\n        /* \"#utility.yul\":14899:14911   */\n      lt\n        /* \"#utility.yul\":14889:14935   */\n      tag_570\n      jumpi\n        /* \"#utility.yul\":14915:14933   */\n      tag_571\n      tag_105\n      jump\t// in\n    tag_571:\n        /* \"#utility.yul\":14889:14935   */\n    tag_570:\n        /* \"#utility.yul\":14818:14941   */\n      pop\n      jump\t// out\n        /* \"#utility.yul\":14947:15094   */\n    tag_392:\n        /* \"#utility.yul\":15002:15009   */\n      0x00\n        /* \"#utility.yul\":15031:15036   */\n      dup2\n        /* \"#utility.yul\":15020:15036   */\n      swap1\n      pop\n        /* \"#utility.yul\":15037:15088   */\n      tag_573\n        /* \"#utility.yul\":15082:15087   */\n      dup3\n        /* \"#utility.yul\":15037:15088   */\n      tag_391\n      jump\t// in\n    tag_573:\n        /* \"#utility.yul\":14947:15094   */\n      swap2\n      swap1\n      pop\n      jump\t// out\n        /* \"#utility.yul\":15100:15247   */\n    tag_393:\n        /* \"#utility.yul\":15166:15175   */\n      0x00\n        /* \"#utility.yul\":15199:15241   */\n      tag_575\n        /* \"#utility.yul\":15235:15240   */\n      dup3\n        /* \"#utility.yul\":15199:15241   */\n      tag_392\n      jump\t// in\n    tag_575:\n        /* \"#utility.yul\":15186:15241   */\n      swap1\n      pop\n        /* \"#utility.yul\":15100:15247   */\n      swap2\n      swap1\n      pop\n      jump\t// out\n        /* \"#utility.yul\":15253:15416   */\n    tag_394:\n        /* \"#utility.yul\":15356:15409   */\n      tag_577\n        /* \"#utility.yul\":15403:15408   */\n      dup2\n        /* \"#utility.yul\":15356:15409   */\n      tag_393\n      jump\t// in\n    tag_577:\n        /* \"#utility.yul\":15351:15354   */\n      dup3\n        /* \"#utility.yul\":15344:15410   */\n      mstore\n        /* \"#utility.yul\":15253:15416   */\n      pop\n      pop\n      jump\t// out\n        /* \"#utility.yul\":15422:15818   */\n    tag_109:\n        /* \"#utility.yul\":15575:15579   */\n      0x00\n        /* \"#utility.yul\":15613:15615   */\n      0x40\n        /* \"#utility.yul\":15602:15611   */\n      dup3\n        /* \"#utility.yul\":15598:15616   */\n      add\n        /* \"#utility.yul\":15590:15616   */\n      swap1\n      pop\n        /* \"#utility.yul\":15626:15713   */\n      tag_579\n        /* \"#utility.yul\":15710:15711   */\n      0x00\n        /* \"#utility.yul\":15699:15708   */\n      dup4\n        /* \"#utility.yul\":15695:15712   */\n      add\n        /* \"#utility.yul\":15686:15692   */\n      dup6\n        /* \"#utility.yul\":15626:15713   */\n      tag_394\n      jump\t// in\n    tag_579:\n        /* \"#utility.yul\":15723:15811   */\n      tag_580\n        /* \"#utility.yul\":15807:15809   */\n      0x20\n        /* \"#utility.yul\":15796:15805   */\n      dup4\n        /* \"#utility.yul\":15792:15810   */\n      add\n        /* \"#utility.yul\":15783:15789   */\n      dup5\n        /* \"#utility.yul\":15723:15811   */\n      tag_394\n      jump\t// in\n    tag_580:\n        /* \"#utility.yul\":15422:15818   */\n      swap4\n      swap3\n      pop\n      pop\n      pop\n      jump\t// out\n        /* \"#utility.yul\":15824:16004   */\n    tag_395:\n        /* \"#utility.yul\":15872:15949   */\n      0x4e487b7100000000000000000000000000000000000000000000000000000000\n        /* \"#utility.yul\":15869:15870   */\n      0x00\n        /* \"#utility.yul\":15862:15950   */\n      mstore\n        /* \"#utility.yul\":15969:15973   */\n      0x22\n        /* \"#utility.yul\":15966:15967   */\n      0x04\n        /* \"#utility.yul\":15959:15974   */\n      mstore\n        /* \"#utility.yul\":15993:15997   */\n      0x24\n        /* \"#utility.yul\":15990:15991   */\n      0x00\n        /* \"#utility.yul\":15983:15998   */\n      revert\n        /* \"#utility.yul\":16010:16330   */\n    tag_221:\n        /* \"#utility.yul\":16054:16060   */\n      0x00\n        /* \"#utility.yul\":16091:16092   */\n      0x02\n        /* \"#utility.yul\":16085:16089   */\n      dup3\n        /* \"#utility.yul\":16081:16093   */\n      div\n        /* \"#utility.yul\":16071:16093   */\n      swap1\n      pop\n        /* \"#utility.yul\":16138:16139   */\n      0x01\n        /* \"#utility.yul\":16132:16136   */\n      dup3\n        /* \"#utility.yul\":16128:16140   */\n      and\n        /* \"#utility.yul\":16159:16177   */\n      dup1\n        /* \"#utility.yul\":16149:16230   */\n      tag_583\n      jumpi\n        /* \"#utility.yul\":16215:16219   */\n      0x7f\n        /* \"#utility.yul\":16207:16213   */\n      dup3\n        /* \"#utility.yul\":16203:16220   */\n      and\n        /* \"#utility.yul\":16193:16220   */\n      swap2\n      pop\n        /* \"#utility.yul\":16149:16230   */\n    tag_583:\n        /* \"#utility.yul\":16277:16279   */\n      0x20\n        /* \"#utility.yul\":16269:16275   */\n      dup3\n        /* \"#utility.yul\":16266:16280   */\n      lt\n        /* \"#utility.yul\":16246:16264   */\n      dup2\n        /* \"#utility.yul\":16243:16281   */\n      sub\n        /* \"#utility.yul\":16240:16324   */\n      tag_584\n      jumpi\n        /* \"#utility.yul\":16296:16314   */\n      tag_585\n      tag_395\n      jump\t// in\n    tag_585:\n        /* \"#utility.yul\":16240:16324   */\n    tag_584:\n        /* \"#utility.yul\":16061:16330   */\n      pop\n        /* \"#utility.yul\":16010:16330   */\n      swap2\n      swap1\n      pop\n      jump\t// out\n        /* \"#utility.yul\":16336:16477   */\n    tag_396:\n        /* \"#utility.yul\":16385:16389   */\n      0x00\n        /* \"#utility.yul\":16408:16411   */\n      dup2\n        /* \"#utility.yul\":16400:16411   */\n      swap1\n      pop\n        /* \"#utility.yul\":16431:16434   */\n      dup2\n        /* \"#utility.yul\":16428:16429   */\n      0x00\n        /* \"#utility.yul\":16421:16435   */\n      mstore\n        /* \"#utility.yul\":16465:16469   */\n      0x20\n        /* \"#utility.yul\":16462:16463   */\n      0x00\n        /* \"#utility.yul\":16452:16470   */\n      keccak256\n        /* \"#utility.yul\":16444:16470   */\n      swap1\n      pop\n        /* \"#utility.yul\":16336:16477   */\n      swap2\n      swap1\n      pop\n      jump\t// out\n        /* \"#utility.yul\":16483:16576   */\n    tag_397:\n        /* \"#utility.yul\":16520:16526   */\n      0x00\n        /* \"#utility.yul\":16567:16569   */\n      0x20\n        /* \"#utility.yul\":16562:16564   */\n      0x1f\n        /* \"#utility.yul\":16555:16560   */\n      dup4\n        /* \"#utility.yul\":16551:16565   */\n      add\n        /* \"#utility.yul\":16547:16570   */\n      div\n        /* \"#utility.yul\":16537:16570   */\n      swap1\n      pop\n        /* \"#utility.yul\":16483:16576   */\n      swap2\n      swap1\n      pop\n      jump\t// out\n        /* \"#utility.yul\":16582:16689   */\n    tag_398:\n        /* \"#utility.yul\":16626:16634   */\n      0x00\n        /* \"#utility.yul\":16676:16681   */\n      dup3\n        /* \"#utility.yul\":16670:16674   */\n      dup3\n        /* \"#utility.yul\":16666:16682   */\n      shl\n        /* \"#utility.yul\":16645:16682   */\n      swap1\n      pop\n        /* \"#utility.yul\":16582:16689   */\n      swap3\n      swap2\n      pop\n      pop\n      jump\t// out\n        /* \"#utility.yul\":16695:17088   */\n    tag_399:\n        /* \"#utility.yul\":16764:16770   */\n      0x00\n        /* \"#utility.yul\":16814:16815   */\n      0x08\n        /* \"#utility.yul\":16802:16812   */\n      dup4\n        /* \"#utility.yul\":16798:16816   */\n      mul\n        /* \"#utility.yul\":16837:16934   */\n      tag_590\n        /* \"#utility.yul\":16867:16933   */\n      0xffffffffffffffffffffffffffffffffffffffffffffffffffffffffffffffff\n        /* \"#utility.yul\":16856:16865   */\n      dup3\n        /* \"#utility.yul\":16837:16934   */\n      tag_398\n      jump\t// in\n    tag_590:\n        /* \"#utility.yul\":16955:16994   */\n      tag_591\n        /* \"#utility.yul\":16985:16993   */\n      dup7\n        /* \"#utility.yul\":16974:16983   */\n      dup4\n        /* \"#utility.yul\":16955:16994   */\n      tag_398\n      jump\t// in\n    tag_591:\n        /* \"#utility.yul\":16943:16994   */\n      swap6\n      pop\n        /* \"#utility.yul\":17027:17031   */\n      dup1\n        /* \"#utility.yul\":17023:17032   */\n      not\n        /* \"#utility.yul\":17016:17021   */\n      dup5\n        /* \"#utility.yul\":17012:17033   */\n      and\n        /* \"#utility.yul\":17003:17033   */\n      swap4\n      pop\n        /* \"#utility.yul\":17076:17080   */\n      dup1\n        /* \"#utility.yul\":17066:17074   */\n      dup7\n        /* \"#utility.yul\":17062:17081   */\n      and\n        /* \"#utility.yul\":17055:17060   */\n      dup5\n        /* \"#utility.yul\":17052:17082   */\n      or\n        /* \"#utility.yul\":17042:17082   */\n      swap3\n      pop\n        /* \"#utility.yul\":16771:17088   */\n      pop\n      pop\n        /* \"#utility.yul\":16695:17088   */\n      swap4\n      swap3\n      pop\n      pop\n      pop\n      jump\t// out\n        /* \"#utility.yul\":17094:17154   */\n    tag_400:\n        /* \"#utility.yul\":17122:17125   */\n      0x00\n        /* \"#utility.yul\":17143:17148   */\n      dup2\n        /* \"#utility.yul\":17136:17148   */\n      swap1\n      pop\n        /* \"#utility.yul\":17094:17154   */\n      swap2\n      swap1\n      pop\n      jump\t// out\n        /* \"#utility.yul\":17160:17302   */\n    tag_401:\n        /* \"#utility.yul\":17210:17219   */\n      0x00\n        /* \"#utility.yul\":17243:17296   */\n      tag_594\n        /* \"#utility.yul\":17261:17295   */\n      tag_595\n        /* \"#utility.yul\":17270:17294   */\n      tag_596\n        /* \"#utility.yul\":17288:17293   */\n      dup5\n        /* \"#utility.yul\":17270:17294   */\n      tag_348\n      jump\t// in\n    tag_596:\n        /* \"#utility.yul\":17261:17295   */\n      tag_400\n      jump\t// in\n    tag_595:\n        /* \"#utility.yul\":17243:17296   */\n      tag_348\n      jump\t// in\n    tag_594:\n        /* \"#utility.yul\":17230:17296   */\n      swap1\n      pop\n        /* \"#utility.yul\":17160:17302   */\n      swap2\n      swap1\n      pop\n      jump\t// out\n        /* \"#utility.yul\":17308:17383   */\n    tag_402:\n        /* \"#utility.yul\":17351:17354   */\n      0x00\n        /* \"#utility.yul\":17372:17377   */\n      dup2\n        /* \"#utility.yul\":17365:17377   */\n      swap1\n      pop\n        /* \"#utility.yul\":17308:17383   */\n      swap2\n      swap1\n      pop\n      jump\t// out\n        /* \"#utility.yul\":17389:17658   */\n    tag_403:\n        /* \"#utility.yul\":17499:17538   */\n      tag_599\n        /* \"#utility.yul\":17530:17537   */\n      dup4\n        /* \"#utility.yul\":17499:17538   */\n      tag_401\n      jump\t// in\n    tag_599:\n        /* \"#utility.yul\":17560:17651   */\n      tag_600\n        /* \"#utility.yul\":17609:17650   */\n      tag_601\n        /* \"#utility.yul\":17633:17649   */\n      dup3\n        /* \"#utility.yul\":17609:17650   */\n      tag_402\n      jump\t// in\n    tag_601:\n        /* \"#utility.yul\":17601:17607   */\n      dup5\n        /* \"#utility.yul\":17594:17598   */\n      dup5\n        /* \"#utility.yul\":17588:17599   */\n      sload\n        /* \"#utility.yul\":17560:17651   */\n      tag_399\n      jump\t// in\n    tag_600:\n        /* \"#utility.yul\":17554:17558   */\n      dup3\n        /* \"#utility.yul\":17547:17652   */\n      sstore\n        /* \"#utility.yul\":17465:17658   */\n      pop\n        /* \"#utility.yul\":17389:17658   */\n      pop\n      pop\n      pop\n      jump\t// out\n        /* \"#utility.yul\":17664:17737   */\n    tag_404:\n        /* \"#utility.yul\":17709:17712   */\n      0x00\n        /* \"#utility.yul\":17664:17737   */\n      swap1\n      jump\t// out\n        /* \"#utility.yul\":17743:17932   */\n    tag_405:\n        /* \"#utility.yul\":17820:17852   */\n      tag_604\n      tag_404\n      jump\t// in\n    tag_604:\n        /* \"#utility.yul\":17861:17926   */\n      tag_605\n        /* \"#utility.yul\":17919:17925   */\n      dup2\n        /* \"#utility.yul\":17911:17917   */\n      dup5\n        /* \"#utility.yul\":17905:17909   */\n      dup5\n        /* \"#utility.yul\":17861:17926   */\n      tag_403\n      jump\t// in\n    tag_605:\n        /* \"#utility.yul\":17796:17932   */\n      pop\n        /* \"#utility.yul\":17743:17932   */\n      pop\n      pop\n      jump\t// out\n        /* \"#utility.yul\":17938:18124   */\n    tag_406:\n        /* \"#utility.yul\":17998:18118   */\n    tag_607:\n        /* \"#utility.yul\":18015:18018   */\n      dup2\n        /* \"#utility.yul\":18008:18013   */\n      dup2\n        /* \"#utility.yul\":18005:18019   */\n      lt\n        /* \"#utility.yul\":17998:18118   */\n      iszero\n      tag_609\n      jumpi\n        /* \"#utility.yul\":18069:18108   */\n      tag_610\n        /* \"#utility.yul\":18106:18107   */\n      0x00\n        /* \"#utility.yul\":18099:18104   */\n      dup3\n        /* \"#utility.yul\":18069:18108   */\n      tag_405\n      jump\t// in\n    tag_610:\n        /* \"#utility.yul\":18042:18043   */\n      0x01\n        /* \"#utility.yul\":18035:18040   */\n      dup2\n        /* \"#utility.yul\":18031:18044   */\n      add\n        /* \"#utility.yul\":18022:18044   */\n      swap1\n      pop\n        /* \"#utility.yul\":17998:18118   */\n      jump(tag_607)\n    tag_609:\n        /* \"#utility.yul\":17938:18124   */\n      pop\n      pop\n      jump\t// out\n        /* \"#utility.yul\":18130:18673   */\n    tag_407:\n        /* \"#utility.yul\":18231:18233   */\n      0x1f\n        /* \"#utility.yul\":18226:18229   */\n      dup3\n        /* \"#utility.yul\":18223:18234   */\n      gt\n        /* \"#utility.yul\":18220:18666   */\n      iszero\n      tag_612\n      jumpi\n        /* \"#utility.yul\":18265:18303   */\n      tag_613\n        /* \"#utility.yul\":18297:18302   */\n      dup2\n        /* \"#utility.yul\":18265:18303   */\n      tag_396\n      jump\t// in\n    tag_613:\n        /* \"#utility.yul\":18349:18378   */\n      tag_614\n        /* \"#utility.yul\":18367:18377   */\n      dup5\n        /* \"#utility.yul\":18349:18378   */\n      tag_397\n      jump\t// in\n    tag_614:\n        /* \"#utility.yul\":18339:18347   */\n      dup2\n        /* \"#utility.yul\":18335:18379   */\n      add\n        /* \"#utility.yul\":18532:18534   */\n      0x20\n        /* \"#utility.yul\":18520:18530   */\n      dup6\n        /* \"#utility.yul\":18517:18535   */\n      lt\n        /* \"#utility.yul\":18514:18563   */\n      iszero\n      tag_615\n      jumpi\n        /* \"#utility.yul\":18553:18561   */\n      dup2\n        /* \"#utility.yul\":18538:18561   */\n      swap1\n      pop\n        /* \"#utility.yul\":18514:18563   */\n    tag_615:\n        /* \"#utility.yul\":18576:18656   */\n      tag_616\n        /* \"#utility.yul\":18632:18654   */\n      tag_617\n        /* \"#utility.yul\":18650:18653   */\n      dup6\n        /* \"#utility.yul\":18632:18654   */\n      tag_397\n      jump\t// in\n    tag_617:\n        /* \"#utility.yul\":18622:18630   */\n      dup4\n        /* \"#utility.yul\":18618:18655   */\n      add\n        /* \"#utility.yul\":18605:18616   */\n      dup3\n        /* \"#utility.yul\":18576:18656   */\n      tag_406\n      jump\t// in\n    tag_616:\n        /* \"#utility.yul\":18235:18666   */\n      pop\n      pop\n        /* \"#utility.yul\":18220:18666   */\n    tag_612:\n        /* \"#utility.yul\":18130:18673   */\n      pop\n      pop\n      pop\n      jump\t// out\n        /* \"#utility.yul\":18679:18796   */\n    tag_408:\n        /* \"#utility.yul\":18733:18741   */\n      0x00\n        /* \"#utility.yul\":18783:18788   */\n      dup3\n        /* \"#utility.yul\":18777:18781   */\n      dup3\n        /* \"#utility.yul\":18773:18789   */\n      shr\n        /* \"#utility.yul\":18752:18789   */\n      swap1\n      pop\n        /* \"#utility.yul\":18679:18796   */\n      swap3\n      swap2\n      pop\n      pop\n      jump\t// out\n        /* \"#utility.yul\":18802:18971   */\n    tag_409:\n        /* \"#utility.yul\":18846:18852   */\n      0x00\n        /* \"#utility.yul\":18879:18930   */\n      tag_620\n        /* \"#utility.yul\":18927:18928   */\n      0x00\n        /* \"#utility.yul\":18923:18929   */\n      not\n        /* \"#utility.yul\":18915:18920   */\n      dup5\n        /* \"#utility.yul\":18912:18913   */\n      0x08\n        /* \"#utility.yul\":18908:18921   */\n      mul\n        /* \"#utility.yul\":18879:18930   */\n      tag_408\n      jump\t// in\n    tag_620:\n        /* \"#utility.yul\":18875:18931   */\n      not\n        /* \"#utility.yul\":18960:18964   */\n      dup1\n        /* \"#utility.yul\":18954:18958   */\n      dup4\n        /* \"#utility.yul\":18950:18965   */\n      and\n        /* \"#utility.yul\":18940:18965   */\n      swap2\n      pop\n        /* \"#utility.yul\":18853:18971   */\n      pop\n        /* \"#utility.yul\":18802:18971   */\n      swap3\n      swap2\n      pop\n      pop\n      jump\t// out\n        /* \"#utility.yul\":18976:19271   */\n    tag_410:\n        /* \"#utility.yul\":19052:19056   */\n      0x00\n        /* \"#utility.yul\":19198:19227   */\n      tag_622\n        /* \"#utility.yul\":19223:19226   */\n      dup4\n        /* \"#utility.yul\":19217:19221   */\n      dup4\n        /* \"#utility.yul\":19198:19227   */\n      tag_409\n      jump\t// in\n    tag_622:\n        /* \"#utility.yul\":19190:19227   */\n      swap2\n      pop\n        /* \"#utility.yul\":19260:19263   */\n      dup3\n        /* \"#utility.yul\":19257:19258   */\n      0x02\n        /* \"#utility.yul\":19253:19264   */\n      mul\n        /* \"#utility.yul\":19247:19251   */\n      dup3\n        /* \"#utility.yul\":19244:19265   */\n      or\n        /* \"#utility.yul\":19236:19265   */\n      swap1\n      pop\n        /* \"#utility.yul\":18976:19271   */\n      swap3\n      swap2\n      pop\n      pop\n      jump\t// out\n        /* \"#utility.yul\":19276:20671   */\n    tag_122:\n        /* \"#utility.yul\":19393:19430   */\n      tag_624\n        /* \"#utility.yul\":19426:19429   */\n      dup3\n        /* \"#utility.yul\":19393:19430   */\n      tag_377\n      jump\t// in\n    tag_624:\n        /* \"#utility.yul\":19495:19513   */\n      0xffffffffffffffff\n        /* \"#utility.yul\":19487:19493   */\n      dup2\n        /* \"#utility.yul\":19484:19514   */\n      gt\n        /* \"#utility.yul\":19481:19537   */\n      iszero\n      tag_625\n      jumpi\n        /* \"#utility.yul\":19517:19535   */\n      tag_626\n      tag_354\n      jump\t// in\n    tag_626:\n        /* \"#utility.yul\":19481:19537   */\n    tag_625:\n        /* \"#utility.yul\":19561:19599   */\n      tag_627\n        /* \"#utility.yul\":19593:19597   */\n      dup3\n        /* \"#utility.yul\":19587:19598   */\n      sload\n        /* \"#utility.yul\":19561:19599   */\n      tag_221\n      jump\t// in\n    tag_627:\n        /* \"#utility.yul\":19646:19713   */\n      tag_628\n        /* \"#utility.yul\":19706:19712   */\n      dup3\n        /* \"#utility.yul\":19698:19704   */\n      dup3\n        /* \"#utility.yul\":19692:19696   */\n      dup6\n        /* \"#utility.yul\":19646:19713   */\n      tag_407\n      jump\t// in\n    tag_628:\n        /* \"#utility.yul\":19740:19741   */\n      0x00\n        /* \"#utility.yul\":19764:19768   */\n      0x20\n        /* \"#utility.yul\":19751:19768   */\n      swap1\n      pop\n        /* \"#utility.yul\":19796:19798   */\n      0x1f\n        /* \"#utility.yul\":19788:19794   */\n      dup4\n        /* \"#utility.yul\":19785:19799   */\n      gt\n        /* \"#utility.yul\":19813:19814   */\n      0x01\n        /* \"#utility.yul\":19808:20426   */\n      dup2\n      eq\n      tag_630\n      jumpi\n        /* \"#utility.yul\":20470:20471   */\n      0x00\n        /* \"#utility.yul\":20487:20493   */\n      dup5\n        /* \"#utility.yul\":20484:20561   */\n      iszero\n      tag_631\n      jumpi\n        /* \"#utility.yul\":20536:20545   */\n      dup3\n        /* \"#utility.yul\":20531:20534   */\n      dup8\n        /* \"#utility.yul\":20527:20546   */\n      add\n        /* \"#utility.yul\":20521:20547   */\n      mload\n        /* \"#utility.yul\":20512:20547   */\n      swap1\n      pop\n        /* \"#utility.yul\":20484:20561   */\n    tag_631:\n        /* \"#utility.yul\":20587:20654   */\n      tag_632\n        /* \"#utility.yul\":20647:20653   */\n      dup6\n        /* \"#utility.yul\":20640:20645   */\n      dup3\n        /* \"#utility.yul\":20587:20654   */\n      tag_410\n      jump\t// in\n    tag_632:\n        /* \"#utility.yul\":20581:20585   */\n      dup7\n        /* \"#utility.yul\":20574:20655   */\n      sstore\n        /* \"#utility.yul\":20443:20665   */\n      pop\n        /* \"#utility.yul\":19778:20665   */\n      jump(tag_629)\n        /* \"#utility.yul\":19808:20426   */\n    tag_630:\n        /* \"#utility.yul\":19860:19864   */\n      0x1f\n        /* \"#utility.yul\":19856:19865   */\n      not\n        /* \"#utility.yul\":19848:19854   */\n      dup5\n        /* \"#utility.yul\":19844:19866   */\n      and\n        /* \"#utility.yul\":19894:19931   */\n      tag_633\n        /* \"#utility.yul\":19926:19930   */\n      dup7\n        /* \"#utility.yul\":19894:19931   */\n      tag_396\n      jump\t// in\n    tag_633:\n        /* \"#utility.yul\":19953:19954   */\n      0x00\n        /* \"#utility.yul\":19967:20175   */\n    tag_634:\n        /* \"#utility.yul\":19981:19988   */\n      dup3\n        /* \"#utility.yul\":19978:19979   */\n      dup2\n        /* \"#utility.yul\":19975:19989   */\n      lt\n        /* \"#utility.yul\":19967:20175   */\n      iszero\n      tag_636\n      jumpi\n        /* \"#utility.yul\":20060:20069   */\n      dup5\n        /* \"#utility.yul\":20055:20058   */\n      dup10\n        /* \"#utility.yul\":20051:20070   */\n      add\n        /* \"#utility.yul\":20045:20071   */\n      mload\n        /* \"#utility.yul\":20037:20043   */\n      dup3\n        /* \"#utility.yul\":20030:20072   */\n      sstore\n        /* \"#utility.yul\":20111:20112   */\n      0x01\n        /* \"#utility.yul\":20103:20109   */\n      dup3\n        /* \"#utility.yul\":20099:20113   */\n      add\n        /* \"#utility.yul\":20089:20113   */\n      swap2\n      pop\n        /* \"#utility.yul\":20158:20160   */\n      0x20\n        /* \"#utility.yul\":20147:20156   */\n      dup6\n        /* \"#utility.yul\":20143:20161   */\n      add\n        /* \"#utility.yul\":20130:20161   */\n      swap5\n      pop\n        /* \"#utility.yul\":20004:20008   */\n      0x20\n        /* \"#utility.yul\":20001:20002   */\n      dup2\n        /* \"#utility.yul\":19997:20009   */\n      add\n        /* \"#utility.yul\":19992:20009   */\n      swap1\n      pop\n        /* \"#utility.yul\":19967:20175   */\n      jump(tag_634)\n    tag_636:\n        /* \"#utility.yul\":20203:20209   */\n      dup7\n        /* \"#utility.yul\":20194:20201   */\n      dup4\n        /* \"#utility.yul\":20191:20210   */\n      lt\n        /* \"#utility.yul\":20188:20367   */\n      iszero\n      tag_637\n      jumpi\n        /* \"#utility.yul\":20261:20270   */\n      dup5\n        /* \"#utility.yul\":20256:20259   */\n      dup10\n        /* \"#utility.yul\":20252:20271   */\n      add\n        /* \"#utility.yul\":20246:20272   */\n      mload\n        /* \"#utility.yul\":20304:20352   */\n      tag_638\n        /* \"#utility.yul\":20346:20350   */\n      0x1f\n        /* \"#utility.yul\":20338:20344   */\n      dup10\n        /* \"#utility.yul\":20334:20351   */\n      and\n        /* \"#utility.yul\":20323:20332   */\n      dup3\n        /* \"#utility.yul\":20304:20352   */\n      tag_409\n      jump\t// in\n    tag_638:\n        /* \"#utility.yul\":20296:20302   */\n      dup4\n        /* \"#utility.yul\":20289:20353   */\n      sstore\n        /* \"#utility.yul\":20211:20367   */\n      pop\n        /* \"#utility.yul\":20188:20367   */\n    tag_637:\n        /* \"#utility.yul\":20413:20414   */\n      0x01\n        /* \"#utility.yul\":20409:20410   */\n      0x02\n        /* \"#utility.yul\":20401:20407   */\n      dup9\n        /* \"#utility.yul\":20397:20411   */\n      mul\n        /* \"#utility.yul\":20393:20415   */\n      add\n        /* \"#utility.yul\":20387:20391   */\n      dup9\n        /* \"#utility.yul\":20380:20416   */\n      sstore\n        /* \"#utility.yul\":19815:20426   */\n      pop\n      pop\n      pop\n        /* \"#utility.yul\":19778:20665   */\n    tag_629:\n      pop\n        /* \"#utility.yul\":19368:20671   */\n      pop\n      pop\n      pop\n        /* \"#utility.yul\":19276:20671   */\n      pop\n      pop\n      jump\t// out\n        /* \"#utility.yul\":20677:20846   */\n    tag_411:\n        /* \"#utility.yul\":20761:20772   */\n      0x00\n        /* \"#utility.yul\":20795:20801   */\n      dup3\n        /* \"#utility.yul\":20790:20793   */\n      dup3\n        /* \"#utility.yul\":20783:20802   */\n      mstore\n        /* \"#utility.yul\":20835:20839   */\n      0x20\n        /* \"#utility.yul\":20830:20833   */\n      dup3\n        /* \"#utility.yul\":20826:20840   */\n      add\n        /* \"#utility.yul\":20811:20840   */\n      swap1\n      pop\n        /* \"#utility.yul\":20677:20846   */\n      swap3\n      swap2\n      pop\n      pop\n      jump\t// out\n        /* \"#utility.yul\":20852:21084   */\n    tag_412:\n        /* \"#utility.yul\":20992:21026   */\n      0x506c65617365207761697420766f746572732720726567697374726174696f6e\n        /* \"#utility.yul\":20988:20989   */\n      0x00\n        /* \"#utility.yul\":20980:20986   */\n      dup3\n        /* \"#utility.yul\":20976:20990   */\n      add\n        /* \"#utility.yul\":20969:21027   */\n      mstore\n        /* \"#utility.yul\":21061:21076   */\n      0x20746f20626520636c6f73656400000000000000000000000000000000000000\n        /* \"#utility.yul\":21056:21058   */\n      0x20\n        /* \"#utility.yul\":21048:21054   */\n      dup3\n        /* \"#utility.yul\":21044:21059   */\n      add\n        /* \"#utility.yul\":21037:21077   */\n      mstore\n        /* \"#utility.yul\":20852:21084   */\n      pop\n      jump\t// out\n        /* \"#utility.yul\":21090:21456   */\n    tag_413:\n        /* \"#utility.yul\":21232:21235   */\n      0x00\n        /* \"#utility.yul\":21253:21320   */\n      tag_642\n        /* \"#utility.yul\":21317:21319   */\n      0x2d\n        /* \"#utility.yul\":21312:21315   */\n      dup4\n        /* \"#utility.yul\":21253:21320   */\n      tag_411\n      jump\t// in\n    tag_642:\n        /* \"#utility.yul\":21246:21320   */\n      swap2\n      pop\n        /* \"#utility.yul\":21329:21422   */\n      tag_643\n        /* \"#utility.yul\":21418:21421   */\n      dup3\n        /* \"#utility.yul\":21329:21422   */\n      tag_412\n      jump\t// in\n    tag_643:\n        /* \"#utility.yul\":21447:21449   */\n      0x40\n        /* \"#utility.yul\":21442:21445   */\n      dup3\n        /* \"#utility.yul\":21438:21450   */\n      add\n        /* \"#utility.yul\":21431:21450   */\n      swap1\n      pop\n        /* \"#utility.yul\":21090:21456   */\n      swap2\n      swap1\n      pop\n      jump\t// out\n        /* \"#utility.yul\":21462:21881   */\n    tag_216:\n        /* \"#utility.yul\":21628:21632   */\n      0x00\n        /* \"#utility.yul\":21666:21668   */\n      0x20\n        /* \"#utility.yul\":21655:21664   */\n      dup3\n        /* \"#utility.yul\":21651:21669   */\n      add\n        /* \"#utility.yul\":21643:21669   */\n      swap1\n      pop\n        /* \"#utility.yul\":21715:21724   */\n      dup2\n        /* \"#utility.yul\":21709:21713   */\n      dup2\n        /* \"#utility.yul\":21705:21725   */\n      sub\n        /* \"#utility.yul\":21701:21702   */\n      0x00\n        /* \"#utility.yul\":21690:21699   */\n      dup4\n        /* \"#utility.yul\":21686:21703   */\n      add\n        /* \"#utility.yul\":21679:21726   */\n      mstore\n        /* \"#utility.yul\":21743:21874   */\n      tag_645\n        /* \"#utility.yul\":21869:21873   */\n      dup2\n        /* \"#utility.yul\":21743:21874   */\n      tag_413\n      jump\t// in\n    tag_645:\n        /* \"#utility.yul\":21735:21874   */\n      swap1\n      pop\n        /* \"#utility.yul\":21462:21881   */\n      swap2\n      swap1\n      pop\n      jump\t// out\n        /* \"#utility.yul\":21887:22112   */\n    tag_414:\n        /* \"#utility.yul\":22027:22061   */\n      0x4f776e61626c653a206e6577206f776e657220697320746865207a65726f2061\n        /* \"#utility.yul\":22023:22024   */\n      0x00\n        /* \"#utility.yul\":22015:22021   */\n      dup3\n        /* \"#utility.yul\":22011:22025   */\n      add\n        /* \"#utility.yul\":22004:22062   */\n      mstore\n        /* \"#utility.yul\":22096:22104   */\n      0x6464726573730000000000000000000000000000000000000000000000000000\n        /* \"#utility.yul\":22091:22093   */\n      0x20\n        /* \"#utility.yul\":22083:22089   */\n      dup3\n        /* \"#utility.yul\":22079:22094   */\n      add\n        /* \"#utility.yul\":22072:22105   */\n      mstore\n        /* \"#utility.yul\":21887:22112   */\n      pop\n      jump\t// out\n        /* \"#utility.yul\":22118:22484   */\n    tag_415:\n        /* \"#utility.yul\":22260:22263   */\n      0x00\n        /* \"#utility.yul\":22281:22348   */\n      tag_648\n        /* \"#utility.yul\":22345:22347   */\n      0x26\n        /* \"#utility.yul\":22340:22343   */\n      dup4\n        /* \"#utility.yul\":22281:22348   */\n      tag_411\n      jump\t// in\n    tag_648:\n        /* \"#utility.yul\":22274:22348   */\n      swap2\n      pop\n        /* \"#utility.yul\":22357:22450   */\n      tag_649\n        /* \"#utility.yul\":22446:22449   */\n      dup3\n        /* \"#utility.yul\":22357:22450   */\n      tag_414\n      jump\t// in\n    tag_649:\n        /* \"#utility.yul\":22475:22477   */\n      0x40\n        /* \"#utility.yul\":22470:22473   */\n      dup3\n        /* \"#utility.yul\":22466:22478   */\n      add\n        /* \"#utility.yul\":22459:22478   */\n      swap1\n      pop\n        /* \"#utility.yul\":22118:22484   */\n      swap2\n      swap1\n      pop\n      jump\t// out\n        /* \"#utility.yul\":22490:22909   */\n    tag_251:\n        /* \"#utility.yul\":22656:22660   */\n      0x00\n        /* \"#utility.yul\":22694:22696   */\n      0x20\n        /* \"#utility.yul\":22683:22692   */\n      dup3\n        /* \"#utility.yul\":22679:22697   */\n      add\n        /* \"#utility.yul\":22671:22697   */\n      swap1\n      pop\n        /* \"#utility.yul\":22743:22752   */\n      dup2\n        /* \"#utility.yul\":22737:22741   */\n      dup2\n        /* \"#utility.yul\":22733:22753   */\n      sub\n        /* \"#utility.yul\":22729:22730   */\n      0x00\n        /* \"#utility.yul\":22718:22727   */\n      dup4\n        /* \"#utility.yul\":22714:22731   */\n      add\n        /* \"#utility.yul\":22707:22754   */\n      mstore\n        /* \"#utility.yul\":22771:22902   */\n      tag_651\n        /* \"#utility.yul\":22897:22901   */\n      dup2\n        /* \"#utility.yul\":22771:22902   */\n      tag_415\n      jump\t// in\n    tag_651:\n        /* \"#utility.yul\":22763:22902   */\n      swap1\n      pop\n        /* \"#utility.yul\":22490:22909   */\n      swap2\n      swap1\n      pop\n      jump\t// out\n        /* \"#utility.yul\":22915:23097   */\n    tag_416:\n        /* \"#utility.yul\":23055:23089   */\n      0x4f776e61626c653a2063616c6c6572206973206e6f7420746865206f776e6572\n        /* \"#utility.yul\":23051:23052   */\n      0x00\n        /* \"#utility.yul\":23043:23049   */\n      dup3\n        /* \"#utility.yul\":23039:23053   */\n      add\n        /* \"#utility.yul\":23032:23090   */\n      mstore\n        /* \"#utility.yul\":22915:23097   */\n      pop\n      jump\t// out\n        /* \"#utility.yul\":23103:23469   */\n    tag_417:\n        /* \"#utility.yul\":23245:23248   */\n      0x00\n        /* \"#utility.yul\":23266:23333   */\n      tag_654\n        /* \"#utility.yul\":23330:23332   */\n      0x20\n        /* \"#utility.yul\":23325:23328   */\n      dup4\n        /* \"#utility.yul\":23266:23333   */\n      tag_411\n      jump\t// in\n    tag_654:\n        /* \"#utility.yul\":23259:23333   */\n      swap2\n      pop\n        /* \"#utility.yul\":23342:23435   */\n      tag_655\n        /* \"#utility.yul\":23431:23434   */\n      dup3\n        /* \"#utility.yul\":23342:23435   */\n      tag_416\n      jump\t// in\n    tag_655:\n        /* \"#utility.yul\":23460:23462   */\n      0x20\n        /* \"#utility.yul\":23455:23458   */\n      dup3\n        /* \"#utility.yul\":23451:23463   */\n      add\n        /* \"#utility.yul\":23444:23463   */\n      swap1\n      pop\n        /* \"#utility.yul\":23103:23469   */\n      swap2\n      swap1\n      pop\n      jump\t// out\n        /* \"#utility.yul\":23475:23894   */\n    tag_275:\n        /* \"#utility.yul\":23641:23645   */\n      0x00\n        /* \"#utility.yul\":23679:23681   */\n      0x20\n        /* \"#utility.yul\":23668:23677   */\n      dup3\n        /* \"#utility.yul\":23664:23682   */\n      add\n        /* \"#utility.yul\":23656:23682   */\n      swap1\n      pop\n        /* \"#utility.yul\":23728:23737   */\n      dup2\n        /* \"#utility.yul\":23722:23726   */\n      dup2\n        /* \"#utility.yul\":23718:23738   */\n      sub\n        /* \"#utility.yul\":23714:23715   */\n      0x00\n        /* \"#utility.yul\":23703:23712   */\n      dup4\n        /* \"#utility.yul\":23699:23716   */\n      add\n        /* \"#utility.yul\":23692:23739   */\n      mstore\n        /* \"#utility.yul\":23756:23887   */\n      tag_657\n        /* \"#utility.yul\":23882:23886   */\n      dup2\n        /* \"#utility.yul\":23756:23887   */\n      tag_417\n      jump\t// in\n    tag_657:\n        /* \"#utility.yul\":23748:23887   */\n      swap1\n      pop\n        /* \"#utility.yul\":23475:23894   */\n      swap2\n      swap1\n      pop\n      jump\t// out\n\n    auxdata: 0xa264697066735822122081c80529fbd6b7767a82ccbd48aa2ea72f9f0df8db14f62a0d26060ed6a1623164736f6c63430008140033\n}\n",
				"bytecode": {
					"linkReferences": {},
					"object": "608060405234801562000010575f80fd5b5062000031620000256200006560201b60201c565b6200006c60201b60201c565b5f60015f015f6101000a81548160ff021916908360058111156200005a57620000596200012d565b5b02179055506200015a565b5f33905090565b5f805f9054906101000a900473ffffffffffffffffffffffffffffffffffffffff169050815f806101000a81548173ffffffffffffffffffffffffffffffffffffffff021916908373ffffffffffffffffffffffffffffffffffffffff1602179055508173ffffffffffffffffffffffffffffffffffffffff168173ffffffffffffffffffffffffffffffffffffffff167f8be0079c531659141344cd1fd0a4f28419497f9722a3daafe3b4186f6b6457e060405160405180910390a35050565b7f4e487b71000000000000000000000000000000000000000000000000000000005f52602160045260245ffd5b61286580620001685f395ff3fe608060405234801561000f575f80fd5b506004361061011f575f3560e01c80638da5cb5b116100ab578063d55ec9c11161006f578063d55ec9c11461025b578063e85a8f2a14610277578063f2fde38b14610281578063f74c168d1461029d578063f8a3ce82146102a75761011f565b80638da5cb5b146101ed5780638e7ea5b21461020b578063aaa9834614610229578063b9830ff114610233578063cceb68f51461023d5761011f565b806335bbe70e116100f257806335bbe70e1461016f578063378a21781461018d57806338db6dd3146101975780636edb2860146101b3578063715018a6146101e35761011f565b80630121b93f146101235780630b9bc2a01461013f5780630f7e2838146101495780632f95355b14610153575b5f80fd5b61013d60048036038101906101389190611c6d565b6102b1565b005b610147610542565b005b6101516105de565b005b61016d60048036038101906101689190611dd4565b610708565b005b610177610848565b6040516101849190611f02565b60405180910390f35b610195610965565b005b6101b160048036038101906101ac9190611f4c565b610a8e565b005b6101cd60048036038101906101c89190611f4c565b610c73565b6040516101da9190611f86565b60405180910390f35b6101eb610ecf565b005b6101f5610ee2565b6040516102029190611fae565b60405180910390f35b610213610f09565b6040516102209190611f86565b60405180910390f35b610231610fae565b005b61023b61104c565b005b6102456110e8565b6040516102529190612145565b60405180910390f35b61027560048036038101906102709190612229565b6112e5565b005b61027f61133a565b005b61029b60048036038101906102969190611f4c565b6113d8565b005b6102a561145a565b005b6102af6114f8565b005b600180015f3373ffffffffffffffffffffffffffffffffffffffff1673ffffffffffffffffffffffffffffffffffffffff1681526020019081526020015f205f015f9054906101000a900460ff1661034057336040517faffa818a0000000000000000000000000000000000000000000000000000000081526004016103379190611fae565b60405180910390fd5b600160030180549050811015801561035757505f81145b1561039957806040517f442633c80000000000000000000000000000000000000000000000000000000081526004016103909190611f86565b60405180910390fd5b600180015f3373ffffffffffffffffffffffffffffffffffffffff1673ffffffffffffffffffffffffffffffffffffffff1681526020019081526020015f205f0160019054906101000a900460ff161561042a57336040517fd449d6740000000000000000000000000000000000000000000000000000000081526004016104219190611fae565b60405180910390fd5b6001806001015f3373ffffffffffffffffffffffffffffffffffffffff1673ffffffffffffffffffffffffffffffffffffffff1681526020019081526020015f205f0160016101000a81548160ff02191690831515021790555080600180015f3373ffffffffffffffffffffffffffffffffffffffff1673ffffffffffffffffffffffffffffffffffffffff1681526020019081526020015f2060010181905550600160030181815481106104e2576104e1612270565b5b905f5260205f2090600202016001015f815480929190610501906122ca565b91905055507f4d99b957a2bc29a30ebd96a7be8e68fe50a3c701db28a91436490b7d53870ca43382604051610537929190612311565b60405180910390a150565b61054a611593565b5f60015f015f9054906101000a900460ff169050600360015f015f6101000a81548160ff0219169083600581111561058557610584612338565b5b0217905550610592611611565b7f0a97a4ee45751e2abf3e4fc8946939630b11b371ea8ae39ccdc3056e98f5cc3f8160015f015f9054906101000a900460ff166040516105d39291906123ab565b60405180910390a150565b6105e6611593565b6105ef5f61176d565b5f60015f015f9054906101000a900460ff1690506001805f015f6101000a81548160ff0219169083600581111561062957610628612338565b5b021790555060405180604001604052806040518060400160405280600d81526020017f766f69642062756c6c6574696e0000000000000000000000000000000000000081525081526020015f81525060016003015f8154811061068f5761068e612270565b5b905f5260205f2090600202015f820151815f0190816106ae91906125cc565b50602082015181600101559050507f0a97a4ee45751e2abf3e4fc8946939630b11b371ea8ae39ccdc3056e98f5cc3f8160015f015f9054906101000a900460ff166040516106fd9291906123ab565b60405180910390a150565b600180015f3373ffffffffffffffffffffffffffffffffffffffff1673ffffffffffffffffffffffffffffffffffffffff1681526020019081526020015f205f015f9054906101000a900460ff1661079757336040517faffa818a00000000000000000000000000000000000000000000000000000000815260040161078e9190611fae565b60405180910390fd5b6107a1600161176d565b5f6001600301805490509050600160030160405180604001604052808481526020015f815250908060018154018082558091505060019003905f5260205f2090600202015f909190919091505f820151815f01908161080091906125cc565b506020820151816001015550507f92e393e9b54e2f801d3ea4beb0c5e71a21cc34a5d34b77d0fb8a3aa1650dc18f8160405161083c9190611f86565b60405180910390a15050565b6060600180015f3373ffffffffffffffffffffffffffffffffffffffff1673ffffffffffffffffffffffffffffffffffffffff1681526020019081526020015f205f015f9054906101000a900460ff166108d957336040517faffa818a0000000000000000000000000000000000000000000000000000000081526004016108d09190611fae565b60405180910390fd5b600160020180548060200260200160405190810160405280929190818152602001828054801561095b57602002820191905f5260205f20905b815f9054906101000a900473ffffffffffffffffffffffffffffffffffffffff1673ffffffffffffffffffffffffffffffffffffffff1681526020019060010190808311610912575b5050505050905090565b61096f600361176d565b5f805f600190505b6001600301805490508110156109f557826001600301828154811061099f5761099e612270565b5b905f5260205f2090600202016001015411156109e257600160030181815481106109cc576109cb612270565b5b905f5260205f2090600202016001015492508091505b80806109ed906122ca565b915050610977565b50806001600401819055505f60015f015f9054906101000a900460ff169050600560015f015f6101000a81548160ff02191690836005811115610a3b57610a3a612338565b5b02179055507f0a97a4ee45751e2abf3e4fc8946939630b11b371ea8ae39ccdc3056e98f5cc3f8160015f015f9054906101000a900460ff16604051610a819291906123ab565b60405180910390a1505050565b610a96611593565b610a9f5f61176d565b600180015f8273ffffffffffffffffffffffffffffffffffffffff1673ffffffffffffffffffffffffffffffffffffffff1681526020019081526020015f205f015f9054906101000a900460ff16610b2e57806040517f7ecf313d000000000000000000000000000000000000000000000000000000008152600401610b259190611fae565b60405180910390fd5b600160020181908060018154018082558091505060019003905f5260205f20015f9091909190916101000a81548173ffffffffffffffffffffffffffffffffffffffff021916908373ffffffffffffffffffffffffffffffffffffffff16021790555060405180606001604052806001151581526020015f151581526020015f815250600180015f8373ffffffffffffffffffffffffffffffffffffffff1673ffffffffffffffffffffffffffffffffffffffff1681526020019081526020015f205f820151815f015f6101000a81548160ff0219169083151502179055506020820151815f0160016101000a81548160ff021916908315150217905550604082015181600101559050507fb6be2187d059cc2a55fe29e0e503b566e1e0f8c8780096e185429350acffd3dd81604051610c689190611fae565b60405180910390a150565b5f600180015f3373ffffffffffffffffffffffffffffffffffffffff1673ffffffffffffffffffffffffffffffffffffffff1681526020019081526020015f205f015f9054906101000a900460ff16610d0357336040517faffa818a000000000000000000000000000000000000000000000000000000008152600401610cfa9190611fae565b60405180910390fd5b5f6005811115610d1657610d15612338565b5b60015f015f9054906101000a900460ff166005811115610d3957610d38612338565b5b03610d70576040517ffdc03ce900000000000000000000000000000000000000000000000000000000815260040160405180910390fd5b600180015f8373ffffffffffffffffffffffffffffffffffffffff1673ffffffffffffffffffffffffffffffffffffffff1681526020019081526020015f205f015f9054906101000a900460ff16610dff57816040517faffa818a000000000000000000000000000000000000000000000000000000008152600401610df69190611fae565b60405180910390fd5b5f600180015f8473ffffffffffffffffffffffffffffffffffffffff1673ffffffffffffffffffffffffffffffffffffffff1681526020019081526020015f206001015403610e8557816040517f61f8aead000000000000000000000000000000000000000000000000000000008152600401610e7c9190611fae565b60405180910390fd5b600180015f8373ffffffffffffffffffffffffffffffffffffffff1673ffffffffffffffffffffffffffffffffffffffff1681526020019081526020015f20600101549050919050565b610ed7611593565b610ee05f6117fa565b565b5f805f9054906101000a900473ffffffffffffffffffffffffffffffffffffffff16905090565b5f600180015f3373ffffffffffffffffffffffffffffffffffffffff1673ffffffffffffffffffffffffffffffffffffffff1681526020019081526020015f205f015f9054906101000a900460ff16610f9957336040517faffa818a000000000000000000000000000000000000000000000000000000008152600401610f909190611fae565b60405180910390fd5b610fa3600561176d565b600160040154905090565b610fb6611593565b610fc0600261176d565b5f60015f015f9054906101000a900460ff169050600360015f015f6101000a81548160ff02191690836005811115610ffb57610ffa612338565b5b02179055507f0a97a4ee45751e2abf3e4fc8946939630b11b371ea8ae39ccdc3056e98f5cc3f8160015f015f9054906101000a900460ff166040516110419291906123ab565b60405180910390a150565b611054611593565b5f60015f015f9054906101000a900460ff169050600360015f015f6101000a81548160ff0219169083600581111561108f5761108e612338565b5b021790555061109c6118bb565b7f0a97a4ee45751e2abf3e4fc8946939630b11b371ea8ae39ccdc3056e98f5cc3f8160015f015f9054906101000a900460ff166040516110dd9291906123ab565b60405180910390a150565b6060600180015f3373ffffffffffffffffffffffffffffffffffffffff1673ffffffffffffffffffffffffffffffffffffffff1681526020019081526020015f205f015f9054906101000a900460ff1661117957336040517faffa818a0000000000000000000000000000000000000000000000000000000081526004016111709190611fae565b60405180910390fd5b5f600581111561118c5761118b612338565b5b60015f015f9054906101000a900460ff1660058111156111af576111ae612338565b5b036111ef576040517f08c379a00000000000000000000000000000000000000000000000000000000081526004016111e69061271b565b60405180910390fd5b6001600301805480602002602001604051908101604052809291908181526020015f905b828210156112dc578382905f5260205f2090600202016040518060400160405290815f82018054611243906123ff565b80601f016020809104026020016040519081016040528092919081815260200182805461126f906123ff565b80156112ba5780601f10611291576101008083540402835291602001916112ba565b820191905f5260205f20905b81548152906001019060200180831161129d57829003601f168201915b5050505050815260200160018201548152505081526020019060010190611213565b50505050905090565b6112ed611593565b6112f65f61176d565b5f5b815181116113365761132382828151811061131657611315612270565b5b6020026020010151610a8e565b808061132e906122ca565b9150506112f8565b5050565b611342611593565b61134c600161176d565b5f60015f015f9054906101000a900460ff169050600260015f015f6101000a81548160ff0219169083600581111561138757611386612338565b5b02179055507f0a97a4ee45751e2abf3e4fc8946939630b11b371ea8ae39ccdc3056e98f5cc3f8160015f015f9054906101000a900460ff166040516113cd9291906123ab565b60405180910390a150565b6113e0611593565b5f73ffffffffffffffffffffffffffffffffffffffff168173ffffffffffffffffffffffffffffffffffffffff160361144e576040517f08c379a0000000000000000000000000000000000000000000000000000000008152600401611445906127a9565b60405180910390fd5b611457816117fa565b50565b611462611593565b61146c600361176d565b5f60015f015f9054906101000a900460ff169050600460015f015f6101000a81548160ff021916908360058111156114a7576114a6612338565b5b02179055507f0a97a4ee45751e2abf3e4fc8946939630b11b371ea8ae39ccdc3056e98f5cc3f8160015f015f9054906101000a900460ff166040516114ed9291906123ab565b60405180910390a150565b611500611593565b5f60015f015f9054906101000a900460ff1690505f60015f015f6101000a81548160ff0219169083600581111561153a57611539612338565b5b0217905550611547611a58565b7f0a97a4ee45751e2abf3e4fc8946939630b11b371ea8ae39ccdc3056e98f5cc3f8160015f015f9054906101000a900460ff166040516115889291906123ab565b60405180910390a150565b61159b611b7d565b73ffffffffffffffffffffffffffffffffffffffff166115b9610ee2565b73ffffffffffffffffffffffffffffffffffffffff161461160f576040517f08c379a000000000000000000000000000000000000000000000000000000000815260040161160690612811565b60405180910390fd5b565b611619611593565b60016003015f6116299190611b84565b5f5b60016002018054905081101561176a575f600180015f6001600201848154811061165857611657612270565b5b905f5260205f20015f9054906101000a900473ffffffffffffffffffffffffffffffffffffffff1673ffffffffffffffffffffffffffffffffffffffff1673ffffffffffffffffffffffffffffffffffffffff1681526020019081526020015f205f0160016101000a81548160ff0219169083151502179055505f600180015f600160020184815481106116ef576116ee612270565b5b905f5260205f20015f9054906101000a900473ffffffffffffffffffffffffffffffffffffffff1673ffffffffffffffffffffffffffffffffffffffff1673ffffffffffffffffffffffffffffffffffffffff1681526020019081526020015f20600101819055508080611762906122ca565b91505061162b565b50565b8060058111156117805761177f612338565b5b60015f015f9054906101000a900460ff1660058111156117a3576117a2612338565b5b146117f7578060015f015f9054906101000a900460ff166040517f586a712d0000000000000000000000000000000000000000000000000000000081526004016117ee9291906123ab565b60405180910390fd5b50565b5f805f9054906101000a900473ffffffffffffffffffffffffffffffffffffffff169050815f806101000a81548173ffffffffffffffffffffffffffffffffffffffff021916908373ffffffffffffffffffffffffffffffffffffffff1602179055508173ffffffffffffffffffffffffffffffffffffffff168173ffffffffffffffffffffffffffffffffffffffff167f8be0079c531659141344cd1fd0a4f28419497f9722a3daafe3b4186f6b6457e060405160405180910390a35050565b6118c3611593565b5f5b600160020180549050811015611a04575f600180015f600160020184815481106118f2576118f1612270565b5b905f5260205f20015f9054906101000a900473ffffffffffffffffffffffffffffffffffffffff1673ffffffffffffffffffffffffffffffffffffffff1673ffffffffffffffffffffffffffffffffffffffff1681526020019081526020015f205f0160016101000a81548160ff0219169083151502179055505f600180015f6001600201848154811061198957611988612270565b5b905f5260205f20015f9054906101000a900473ffffffffffffffffffffffffffffffffffffffff1673ffffffffffffffffffffffffffffffffffffffff1673ffffffffffffffffffffffffffffffffffffffff1681526020019081526020015f206001018190555080806119fc906122ca565b9150506118c5565b505f5b600160030180549050811015611a55575f60016003018281548110611a2f57611a2e612270565b5b905f5260205f209060020201600101819055508080611a4d906122ca565b915050611a07565b50565b611a60611593565b60016003015f611a709190611b84565b5f5b600160020180549050811015611b7a5760405180606001604052805f151581526020015f151581526020015f815250600180015f60016002018481548110611abd57611abc612270565b5b905f5260205f20015f9054906101000a900473ffffffffffffffffffffffffffffffffffffffff1673ffffffffffffffffffffffffffffffffffffffff1673ffffffffffffffffffffffffffffffffffffffff1681526020019081526020015f205f820151815f015f6101000a81548160ff0219169083151502179055506020820151815f0160016101000a81548160ff021916908315150217905550604082015181600101559050508080611b72906122ca565b915050611a72565b50565b5f33905090565b5080545f8255600202905f5260205f2090810190611ba29190611ba5565b50565b5b80821115611bcd575f8082015f611bbd9190611bd1565b600182015f905550600201611ba6565b5090565b508054611bdd906123ff565b5f825580601f10611bee5750611c0b565b601f0160209004905f5260205f2090810190611c0a9190611c0e565b5b50565b5b80821115611c25575f815f905550600101611c0f565b5090565b5f604051905090565b5f80fd5b5f80fd5b5f819050919050565b611c4c81611c3a565b8114611c56575f80fd5b50565b5f81359050611c6781611c43565b92915050565b5f60208284031215611c8257611c81611c32565b5b5f611c8f84828501611c59565b91505092915050565b5f80fd5b5f80fd5b5f601f19601f8301169050919050565b7f4e487b71000000000000000000000000000000000000000000000000000000005f52604160045260245ffd5b611ce682611ca0565b810181811067ffffffffffffffff82111715611d0557611d04611cb0565b5b80604052505050565b5f611d17611c29565b9050611d238282611cdd565b919050565b5f67ffffffffffffffff821115611d4257611d41611cb0565b5b611d4b82611ca0565b9050602081019050919050565b828183375f83830152505050565b5f611d78611d7384611d28565b611d0e565b905082815260208101848484011115611d9457611d93611c9c565b5b611d9f848285611d58565b509392505050565b5f82601f830112611dbb57611dba611c98565b5b8135611dcb848260208601611d66565b91505092915050565b5f60208284031215611de957611de8611c32565b5b5f82013567ffffffffffffffff811115611e0657611e05611c36565b5b611e1284828501611da7565b91505092915050565b5f81519050919050565b5f82825260208201905092915050565b5f819050602082019050919050565b5f73ffffffffffffffffffffffffffffffffffffffff82169050919050565b5f611e6d82611e44565b9050919050565b611e7d81611e63565b82525050565b5f611e8e8383611e74565b60208301905092915050565b5f602082019050919050565b5f611eb082611e1b565b611eba8185611e25565b9350611ec583611e35565b805f5b83811015611ef5578151611edc8882611e83565b9750611ee783611e9a565b925050600181019050611ec8565b5085935050505092915050565b5f6020820190508181035f830152611f1a8184611ea6565b905092915050565b611f2b81611e63565b8114611f35575f80fd5b50565b5f81359050611f4681611f22565b92915050565b5f60208284031215611f6157611f60611c32565b5b5f611f6e84828501611f38565b91505092915050565b611f8081611c3a565b82525050565b5f602082019050611f995f830184611f77565b92915050565b611fa881611e63565b82525050565b5f602082019050611fc15f830184611f9f565b92915050565b5f81519050919050565b5f82825260208201905092915050565b5f819050602082019050919050565b5f81519050919050565b5f82825260208201905092915050565b5f5b8381101561202757808201518184015260208101905061200c565b5f8484015250505050565b5f61203c82611ff0565b6120468185611ffa565b935061205681856020860161200a565b61205f81611ca0565b840191505092915050565b61207381611c3a565b82525050565b5f604083015f8301518482035f8601526120938282612032565b91505060208301516120a8602086018261206a565b508091505092915050565b5f6120be8383612079565b905092915050565b5f602082019050919050565b5f6120dc82611fc7565b6120e68185611fd1565b9350836020820285016120f885611fe1565b805f5b85811015612133578484038952815161211485826120b3565b945061211f836120c6565b925060208a019950506001810190506120fb565b50829750879550505050505092915050565b5f6020820190508181035f83015261215d81846120d2565b905092915050565b5f67ffffffffffffffff82111561217f5761217e611cb0565b5b602082029050602081019050919050565b5f80fd5b5f6121a66121a184612165565b611d0e565b905080838252602082019050602084028301858111156121c9576121c8612190565b5b835b818110156121f257806121de8882611f38565b8452602084019350506020810190506121cb565b5050509392505050565b5f82601f8301126122105761220f611c98565b5b8135612220848260208601612194565b91505092915050565b5f6020828403121561223e5761223d611c32565b5b5f82013567ffffffffffffffff81111561225b5761225a611c36565b5b612267848285016121fc565b91505092915050565b7f4e487b71000000000000000000000000000000000000000000000000000000005f52603260045260245ffd5b7f4e487b71000000000000000000000000000000000000000000000000000000005f52601160045260245ffd5b5f6122d482611c3a565b91507fffffffffffffffffffffffffffffffffffffffffffffffffffffffffffffffff82036123065761230561229d565b5b600182019050919050565b5f6040820190506123245f830185611f9f565b6123316020830184611f77565b9392505050565b7f4e487b71000000000000000000000000000000000000000000000000000000005f52602160045260245ffd5b6006811061237657612375612338565b5b50565b5f81905061238682612365565b919050565b5f61239582612379565b9050919050565b6123a58161238b565b82525050565b5f6040820190506123be5f83018561239c565b6123cb602083018461239c565b9392505050565b7f4e487b71000000000000000000000000000000000000000000000000000000005f52602260045260245ffd5b5f600282049050600182168061241657607f821691505b602082108103612429576124286123d2565b5b50919050565b5f819050815f5260205f209050919050565b5f6020601f8301049050919050565b5f82821b905092915050565b5f6008830261248b7fffffffffffffffffffffffffffffffffffffffffffffffffffffffffffffffff82612450565b6124958683612450565b95508019841693508086168417925050509392505050565b5f819050919050565b5f6124d06124cb6124c684611c3a565b6124ad565b611c3a565b9050919050565b5f819050919050565b6124e9836124b6565b6124fd6124f5826124d7565b84845461245c565b825550505050565b5f90565b612511612505565b61251c8184846124e0565b505050565b5b8181101561253f576125345f82612509565b600181019050612522565b5050565b601f821115612584576125558161242f565b61255e84612441565b8101602085101561256d578190505b61258161257985612441565b830182612521565b50505b505050565b5f82821c905092915050565b5f6125a45f1984600802612589565b1980831691505092915050565b5f6125bc8383612595565b9150826002028217905092915050565b6125d582611ff0565b67ffffffffffffffff8111156125ee576125ed611cb0565b5b6125f882546123ff565b612603828285612543565b5f60209050601f831160018114612634575f8415612622578287015190505b61262c85826125b1565b865550612693565b601f1984166126428661242f565b5f5b8281101561266957848901518255600182019150602085019450602081019050612644565b868310156126865784890151612682601f891682612595565b8355505b6001600288020188555050505b505050505050565b5f82825260208201905092915050565b7f506c65617365207761697420766f746572732720726567697374726174696f6e5f8201527f20746f20626520636c6f73656400000000000000000000000000000000000000602082015250565b5f612705602d8361269b565b9150612710826126ab565b604082019050919050565b5f6020820190508181035f830152612732816126f9565b9050919050565b7f4f776e61626c653a206e6577206f776e657220697320746865207a65726f20615f8201527f6464726573730000000000000000000000000000000000000000000000000000602082015250565b5f61279360268361269b565b915061279e82612739565b604082019050919050565b5f6020820190508181035f8301526127c081612787565b9050919050565b7f4f776e61626c653a2063616c6c6572206973206e6f7420746865206f776e65725f82015250565b5f6127fb60208361269b565b9150612806826127c7565b602082019050919050565b5f6020820190508181035f830152612828816127ef565b905091905056fea264697066735822122081c80529fbd6b7767a82ccbd48aa2ea72f9f0df8db14f62a0d26060ed6a1623164736f6c63430008140033",
					"opcodes": "PUSH1 0x80 PUSH1 0x40 MSTORE CALLVALUE DUP1 ISZERO PUSH3 0x10 JUMPI PUSH0 DUP1 REVERT JUMPDEST POP PUSH3 0x31 PUSH3 0x25 PUSH3 0x65 PUSH1 0x20 SHL PUSH1 0x20 SHR JUMP JUMPDEST PUSH3 0x6C PUSH1 0x20 SHL PUSH1 0x20 SHR JUMP JUMPDEST PUSH0 PUSH1 0x1 PUSH0 ADD PUSH0 PUSH2 0x100 EXP DUP2 SLOAD DUP2 PUSH1 0xFF MUL NOT AND SWAP1 DUP4 PUSH1 0x5 DUP2 GT ISZERO PUSH3 0x5A JUMPI PUSH3 0x59 PUSH3 0x12D JUMP JUMPDEST JUMPDEST MUL OR SWAP1 SSTORE POP PUSH3 0x15A JUMP JUMPDEST PUSH0 CALLER SWAP1 POP SWAP1 JUMP JUMPDEST PUSH0 DUP1 PUSH0 SWAP1 SLOAD SWAP1 PUSH2 0x100 EXP SWAP1 DIV PUSH20 0xFFFFFFFFFFFFFFFFFFFFFFFFFFFFFFFFFFFFFFFF AND SWAP1 POP DUP2 PUSH0 DUP1 PUSH2 0x100 EXP DUP2 SLOAD DUP2 PUSH20 0xFFFFFFFFFFFFFFFFFFFFFFFFFFFFFFFFFFFFFFFF MUL NOT AND SWAP1 DUP4 PUSH20 0xFFFFFFFFFFFFFFFFFFFFFFFFFFFFFFFFFFFFFFFF AND MUL OR SWAP1 SSTORE POP DUP2 PUSH20 0xFFFFFFFFFFFFFFFFFFFFFFFFFFFFFFFFFFFFFFFF AND DUP2 PUSH20 0xFFFFFFFFFFFFFFFFFFFFFFFFFFFFFFFFFFFFFFFF AND PUSH32 0x8BE0079C531659141344CD1FD0A4F28419497F9722A3DAAFE3B4186F6B6457E0 PUSH1 0x40 MLOAD PUSH1 0x40 MLOAD DUP1 SWAP2 SUB SWAP1 LOG3 POP POP JUMP JUMPDEST PUSH32 0x4E487B7100000000000000000000000000000000000000000000000000000000 PUSH0 MSTORE PUSH1 0x21 PUSH1 0x4 MSTORE PUSH1 0x24 PUSH0 REVERT JUMPDEST PUSH2 0x2865 DUP1 PUSH3 0x168 PUSH0 CODECOPY PUSH0 RETURN INVALID PUSH1 0x80 PUSH1 0x40 MSTORE CALLVALUE DUP1 ISZERO PUSH2 0xF JUMPI PUSH0 DUP1 REVERT JUMPDEST POP PUSH1 0x4 CALLDATASIZE LT PUSH2 0x11F JUMPI PUSH0 CALLDATALOAD PUSH1 0xE0 SHR DUP1 PUSH4 0x8DA5CB5B GT PUSH2 0xAB JUMPI DUP1 PUSH4 0xD55EC9C1 GT PUSH2 0x6F JUMPI DUP1 PUSH4 0xD55EC9C1 EQ PUSH2 0x25B JUMPI DUP1 PUSH4 0xE85A8F2A EQ PUSH2 0x277 JUMPI DUP1 PUSH4 0xF2FDE38B EQ PUSH2 0x281 JUMPI DUP1 PUSH4 0xF74C168D EQ PUSH2 0x29D JUMPI DUP1 PUSH4 0xF8A3CE82 EQ PUSH2 0x2A7 JUMPI PUSH2 0x11F JUMP JUMPDEST DUP1 PUSH4 0x8DA5CB5B EQ PUSH2 0x1ED JUMPI DUP1 PUSH4 0x8E7EA5B2 EQ PUSH2 0x20B JUMPI DUP1 PUSH4 0xAAA98346 EQ PUSH2 0x229 JUMPI DUP1 PUSH4 0xB9830FF1 EQ PUSH2 0x233 JUMPI DUP1 PUSH4 0xCCEB68F5 EQ PUSH2 0x23D JUMPI PUSH2 0x11F JUMP JUMPDEST DUP1 PUSH4 0x35BBE70E GT PUSH2 0xF2 JUMPI DUP1 PUSH4 0x35BBE70E EQ PUSH2 0x16F JUMPI DUP1 PUSH4 0x378A2178 EQ PUSH2 0x18D JUMPI DUP1 PUSH4 0x38DB6DD3 EQ PUSH2 0x197 JUMPI DUP1 PUSH4 0x6EDB2860 EQ PUSH2 0x1B3 JUMPI DUP1 PUSH4 0x715018A6 EQ PUSH2 0x1E3 JUMPI PUSH2 0x11F JUMP JUMPDEST DUP1 PUSH4 0x121B93F EQ PUSH2 0x123 JUMPI DUP1 PUSH4 0xB9BC2A0 EQ PUSH2 0x13F JUMPI DUP1 PUSH4 0xF7E2838 EQ PUSH2 0x149 JUMPI DUP1 PUSH4 0x2F95355B EQ PUSH2 0x153 JUMPI JUMPDEST PUSH0 DUP1 REVERT JUMPDEST PUSH2 0x13D PUSH1 0x4 DUP1 CALLDATASIZE SUB DUP2 ADD SWAP1 PUSH2 0x138 SWAP2 SWAP1 PUSH2 0x1C6D JUMP JUMPDEST PUSH2 0x2B1 JUMP JUMPDEST STOP JUMPDEST PUSH2 0x147 PUSH2 0x542 JUMP JUMPDEST STOP JUMPDEST PUSH2 0x151 PUSH2 0x5DE JUMP JUMPDEST STOP JUMPDEST PUSH2 0x16D PUSH1 0x4 DUP1 CALLDATASIZE SUB DUP2 ADD SWAP1 PUSH2 0x168 SWAP2 SWAP1 PUSH2 0x1DD4 JUMP JUMPDEST PUSH2 0x708 JUMP JUMPDEST STOP JUMPDEST PUSH2 0x177 PUSH2 0x848 JUMP JUMPDEST PUSH1 0x40 MLOAD PUSH2 0x184 SWAP2 SWAP1 PUSH2 0x1F02 JUMP JUMPDEST PUSH1 0x40 MLOAD DUP1 SWAP2 SUB SWAP1 RETURN JUMPDEST PUSH2 0x195 PUSH2 0x965 JUMP JUMPDEST STOP JUMPDEST PUSH2 0x1B1 PUSH1 0x4 DUP1 CALLDATASIZE SUB DUP2 ADD SWAP1 PUSH2 0x1AC SWAP2 SWAP1 PUSH2 0x1F4C JUMP JUMPDEST PUSH2 0xA8E JUMP JUMPDEST STOP JUMPDEST PUSH2 0x1CD PUSH1 0x4 DUP1 CALLDATASIZE SUB DUP2 ADD SWAP1 PUSH2 0x1C8 SWAP2 SWAP1 PUSH2 0x1F4C JUMP JUMPDEST PUSH2 0xC73 JUMP JUMPDEST PUSH1 0x40 MLOAD PUSH2 0x1DA SWAP2 SWAP1 PUSH2 0x1F86 JUMP JUMPDEST PUSH1 0x40 MLOAD DUP1 SWAP2 SUB SWAP1 RETURN JUMPDEST PUSH2 0x1EB PUSH2 0xECF JUMP JUMPDEST STOP JUMPDEST PUSH2 0x1F5 PUSH2 0xEE2 JUMP JUMPDEST PUSH1 0x40 MLOAD PUSH2 0x202 SWAP2 SWAP1 PUSH2 0x1FAE JUMP JUMPDEST PUSH1 0x40 MLOAD DUP1 SWAP2 SUB SWAP1 RETURN JUMPDEST PUSH2 0x213 PUSH2 0xF09 JUMP JUMPDEST PUSH1 0x40 MLOAD PUSH2 0x220 SWAP2 SWAP1 PUSH2 0x1F86 JUMP JUMPDEST PUSH1 0x40 MLOAD DUP1 SWAP2 SUB SWAP1 RETURN JUMPDEST PUSH2 0x231 PUSH2 0xFAE JUMP JUMPDEST STOP JUMPDEST PUSH2 0x23B PUSH2 0x104C JUMP JUMPDEST STOP JUMPDEST PUSH2 0x245 PUSH2 0x10E8 JUMP JUMPDEST PUSH1 0x40 MLOAD PUSH2 0x252 SWAP2 SWAP1 PUSH2 0x2145 JUMP JUMPDEST PUSH1 0x40 MLOAD DUP1 SWAP2 SUB SWAP1 RETURN JUMPDEST PUSH2 0x275 PUSH1 0x4 DUP1 CALLDATASIZE SUB DUP2 ADD SWAP1 PUSH2 0x270 SWAP2 SWAP1 PUSH2 0x2229 JUMP JUMPDEST PUSH2 0x12E5 JUMP JUMPDEST STOP JUMPDEST PUSH2 0x27F PUSH2 0x133A JUMP JUMPDEST STOP JUMPDEST PUSH2 0x29B PUSH1 0x4 DUP1 CALLDATASIZE SUB DUP2 ADD SWAP1 PUSH2 0x296 SWAP2 SWAP1 PUSH2 0x1F4C JUMP JUMPDEST PUSH2 0x13D8 JUMP JUMPDEST STOP JUMPDEST PUSH2 0x2A5 PUSH2 0x145A JUMP JUMPDEST STOP JUMPDEST PUSH2 0x2AF PUSH2 0x14F8 JUMP JUMPDEST STOP JUMPDEST PUSH1 0x1 DUP1 ADD PUSH0 CALLER PUSH20 0xFFFFFFFFFFFFFFFFFFFFFFFFFFFFFFFFFFFFFFFF AND PUSH20 0xFFFFFFFFFFFFFFFFFFFFFFFFFFFFFFFFFFFFFFFF AND DUP2 MSTORE PUSH1 0x20 ADD SWAP1 DUP2 MSTORE PUSH1 0x20 ADD PUSH0 KECCAK256 PUSH0 ADD PUSH0 SWAP1 SLOAD SWAP1 PUSH2 0x100 EXP SWAP1 DIV PUSH1 0xFF AND PUSH2 0x340 JUMPI CALLER PUSH1 0x40 MLOAD PUSH32 0xAFFA818A00000000000000000000000000000000000000000000000000000000 DUP2 MSTORE PUSH1 0x4 ADD PUSH2 0x337 SWAP2 SWAP1 PUSH2 0x1FAE JUMP JUMPDEST PUSH1 0x40 MLOAD DUP1 SWAP2 SUB SWAP1 REVERT JUMPDEST PUSH1 0x1 PUSH1 0x3 ADD DUP1 SLOAD SWAP1 POP DUP2 LT ISZERO DUP1 ISZERO PUSH2 0x357 JUMPI POP PUSH0 DUP2 EQ JUMPDEST ISZERO PUSH2 0x399 JUMPI DUP1 PUSH1 0x40 MLOAD PUSH32 0x442633C800000000000000000000000000000000000000000000000000000000 DUP2 MSTORE PUSH1 0x4 ADD PUSH2 0x390 SWAP2 SWAP1 PUSH2 0x1F86 JUMP JUMPDEST PUSH1 0x40 MLOAD DUP1 SWAP2 SUB SWAP1 REVERT JUMPDEST PUSH1 0x1 DUP1 ADD PUSH0 CALLER PUSH20 0xFFFFFFFFFFFFFFFFFFFFFFFFFFFFFFFFFFFFFFFF AND PUSH20 0xFFFFFFFFFFFFFFFFFFFFFFFFFFFFFFFFFFFFFFFF AND DUP2 MSTORE PUSH1 0x20 ADD SWAP1 DUP2 MSTORE PUSH1 0x20 ADD PUSH0 KECCAK256 PUSH0 ADD PUSH1 0x1 SWAP1 SLOAD SWAP1 PUSH2 0x100 EXP SWAP1 DIV PUSH1 0xFF AND ISZERO PUSH2 0x42A JUMPI CALLER PUSH1 0x40 MLOAD PUSH32 0xD449D67400000000000000000000000000000000000000000000000000000000 DUP2 MSTORE PUSH1 0x4 ADD PUSH2 0x421 SWAP2 SWAP1 PUSH2 0x1FAE JUMP JUMPDEST PUSH1 0x40 MLOAD DUP1 SWAP2 SUB SWAP1 REVERT JUMPDEST PUSH1 0x1 DUP1 PUSH1 0x1 ADD PUSH0 CALLER PUSH20 0xFFFFFFFFFFFFFFFFFFFFFFFFFFFFFFFFFFFFFFFF AND PUSH20 0xFFFFFFFFFFFFFFFFFFFFFFFFFFFFFFFFFFFFFFFF AND DUP2 MSTORE PUSH1 0x20 ADD SWAP1 DUP2 MSTORE PUSH1 0x20 ADD PUSH0 KECCAK256 PUSH0 ADD PUSH1 0x1 PUSH2 0x100 EXP DUP2 SLOAD DUP2 PUSH1 0xFF MUL NOT AND SWAP1 DUP4 ISZERO ISZERO MUL OR SWAP1 SSTORE POP DUP1 PUSH1 0x1 DUP1 ADD PUSH0 CALLER PUSH20 0xFFFFFFFFFFFFFFFFFFFFFFFFFFFFFFFFFFFFFFFF AND PUSH20 0xFFFFFFFFFFFFFFFFFFFFFFFFFFFFFFFFFFFFFFFF AND DUP2 MSTORE PUSH1 0x20 ADD SWAP1 DUP2 MSTORE PUSH1 0x20 ADD PUSH0 KECCAK256 PUSH1 0x1 ADD DUP2 SWAP1 SSTORE POP PUSH1 0x1 PUSH1 0x3 ADD DUP2 DUP2 SLOAD DUP2 LT PUSH2 0x4E2 JUMPI PUSH2 0x4E1 PUSH2 0x2270 JUMP JUMPDEST JUMPDEST SWAP1 PUSH0 MSTORE PUSH1 0x20 PUSH0 KECCAK256 SWAP1 PUSH1 0x2 MUL ADD PUSH1 0x1 ADD PUSH0 DUP2 SLOAD DUP1 SWAP3 SWAP2 SWAP1 PUSH2 0x501 SWAP1 PUSH2 0x22CA JUMP JUMPDEST SWAP2 SWAP1 POP SSTORE POP PUSH32 0x4D99B957A2BC29A30EBD96A7BE8E68FE50A3C701DB28A91436490B7D53870CA4 CALLER DUP3 PUSH1 0x40 MLOAD PUSH2 0x537 SWAP3 SWAP2 SWAP1 PUSH2 0x2311 JUMP JUMPDEST PUSH1 0x40 MLOAD DUP1 SWAP2 SUB SWAP1 LOG1 POP JUMP JUMPDEST PUSH2 0x54A PUSH2 0x1593 JUMP JUMPDEST PUSH0 PUSH1 0x1 PUSH0 ADD PUSH0 SWAP1 SLOAD SWAP1 PUSH2 0x100 EXP SWAP1 DIV PUSH1 0xFF AND SWAP1 POP PUSH1 0x3 PUSH1 0x1 PUSH0 ADD PUSH0 PUSH2 0x100 EXP DUP2 SLOAD DUP2 PUSH1 0xFF MUL NOT AND SWAP1 DUP4 PUSH1 0x5 DUP2 GT ISZERO PUSH2 0x585 JUMPI PUSH2 0x584 PUSH2 0x2338 JUMP JUMPDEST JUMPDEST MUL OR SWAP1 SSTORE POP PUSH2 0x592 PUSH2 0x1611 JUMP JUMPDEST PUSH32 0xA97A4EE45751E2ABF3E4FC8946939630B11B371EA8AE39CCDC3056E98F5CC3F DUP2 PUSH1 0x1 PUSH0 ADD PUSH0 SWAP1 SLOAD SWAP1 PUSH2 0x100 EXP SWAP1 DIV PUSH1 0xFF AND PUSH1 0x40 MLOAD PUSH2 0x5D3 SWAP3 SWAP2 SWAP1 PUSH2 0x23AB JUMP JUMPDEST PUSH1 0x40 MLOAD DUP1 SWAP2 SUB SWAP1 LOG1 POP JUMP JUMPDEST PUSH2 0x5E6 PUSH2 0x1593 JUMP JUMPDEST PUSH2 0x5EF PUSH0 PUSH2 0x176D JUMP JUMPDEST PUSH0 PUSH1 0x1 PUSH0 ADD PUSH0 SWAP1 SLOAD SWAP1 PUSH2 0x100 EXP SWAP1 DIV PUSH1 0xFF AND SWAP1 POP PUSH1 0x1 DUP1 PUSH0 ADD PUSH0 PUSH2 0x100 EXP DUP2 SLOAD DUP2 PUSH1 0xFF MUL NOT AND SWAP1 DUP4 PUSH1 0x5 DUP2 GT ISZERO PUSH2 0x629 JUMPI PUSH2 0x628 PUSH2 0x2338 JUMP JUMPDEST JUMPDEST MUL OR SWAP1 SSTORE POP PUSH1 0x40 MLOAD DUP1 PUSH1 0x40 ADD PUSH1 0x40 MSTORE DUP1 PUSH1 0x40 MLOAD DUP1 PUSH1 0x40 ADD PUSH1 0x40 MSTORE DUP1 PUSH1 0xD DUP2 MSTORE PUSH1 0x20 ADD PUSH32 0x766F69642062756C6C6574696E00000000000000000000000000000000000000 DUP2 MSTORE POP DUP2 MSTORE PUSH1 0x20 ADD PUSH0 DUP2 MSTORE POP PUSH1 0x1 PUSH1 0x3 ADD PUSH0 DUP2 SLOAD DUP2 LT PUSH2 0x68F JUMPI PUSH2 0x68E PUSH2 0x2270 JUMP JUMPDEST JUMPDEST SWAP1 PUSH0 MSTORE PUSH1 0x20 PUSH0 KECCAK256 SWAP1 PUSH1 0x2 MUL ADD PUSH0 DUP3 ADD MLOAD DUP2 PUSH0 ADD SWAP1 DUP2 PUSH2 0x6AE SWAP2 SWAP1 PUSH2 0x25CC JUMP JUMPDEST POP PUSH1 0x20 DUP3 ADD MLOAD DUP2 PUSH1 0x1 ADD SSTORE SWAP1 POP POP PUSH32 0xA97A4EE45751E2ABF3E4FC8946939630B11B371EA8AE39CCDC3056E98F5CC3F DUP2 PUSH1 0x1 PUSH0 ADD PUSH0 SWAP1 SLOAD SWAP1 PUSH2 0x100 EXP SWAP1 DIV PUSH1 0xFF AND PUSH1 0x40 MLOAD PUSH2 0x6FD SWAP3 SWAP2 SWAP1 PUSH2 0x23AB JUMP JUMPDEST PUSH1 0x40 MLOAD DUP1 SWAP2 SUB SWAP1 LOG1 POP JUMP JUMPDEST PUSH1 0x1 DUP1 ADD PUSH0 CALLER PUSH20 0xFFFFFFFFFFFFFFFFFFFFFFFFFFFFFFFFFFFFFFFF AND PUSH20 0xFFFFFFFFFFFFFFFFFFFFFFFFFFFFFFFFFFFFFFFF AND DUP2 MSTORE PUSH1 0x20 ADD SWAP1 DUP2 MSTORE PUSH1 0x20 ADD PUSH0 KECCAK256 PUSH0 ADD PUSH0 SWAP1 SLOAD SWAP1 PUSH2 0x100 EXP SWAP1 DIV PUSH1 0xFF AND PUSH2 0x797 JUMPI CALLER PUSH1 0x40 MLOAD PUSH32 0xAFFA818A00000000000000000000000000000000000000000000000000000000 DUP2 MSTORE PUSH1 0x4 ADD PUSH2 0x78E SWAP2 SWAP1 PUSH2 0x1FAE JUMP JUMPDEST PUSH1 0x40 MLOAD DUP1 SWAP2 SUB SWAP1 REVERT JUMPDEST PUSH2 0x7A1 PUSH1 0x1 PUSH2 0x176D JUMP JUMPDEST PUSH0 PUSH1 0x1 PUSH1 0x3 ADD DUP1 SLOAD SWAP1 POP SWAP1 POP PUSH1 0x1 PUSH1 0x3 ADD PUSH1 0x40 MLOAD DUP1 PUSH1 0x40 ADD PUSH1 0x40 MSTORE DUP1 DUP5 DUP2 MSTORE PUSH1 0x20 ADD PUSH0 DUP2 MSTORE POP SWAP1 DUP1 PUSH1 0x1 DUP2 SLOAD ADD DUP1 DUP3 SSTORE DUP1 SWAP2 POP POP PUSH1 0x1 SWAP1 SUB SWAP1 PUSH0 MSTORE PUSH1 0x20 PUSH0 KECCAK256 SWAP1 PUSH1 0x2 MUL ADD PUSH0 SWAP1 SWAP2 SWAP1 SWAP2 SWAP1 SWAP2 POP PUSH0 DUP3 ADD MLOAD DUP2 PUSH0 ADD SWAP1 DUP2 PUSH2 0x800 SWAP2 SWAP1 PUSH2 0x25CC JUMP JUMPDEST POP PUSH1 0x20 DUP3 ADD MLOAD DUP2 PUSH1 0x1 ADD SSTORE POP POP PUSH32 0x92E393E9B54E2F801D3EA4BEB0C5E71A21CC34A5D34B77D0FB8A3AA1650DC18F DUP2 PUSH1 0x40 MLOAD PUSH2 0x83C SWAP2 SWAP1 PUSH2 0x1F86 JUMP JUMPDEST PUSH1 0x40 MLOAD DUP1 SWAP2 SUB SWAP1 LOG1 POP POP JUMP JUMPDEST PUSH1 0x60 PUSH1 0x1 DUP1 ADD PUSH0 CALLER PUSH20 0xFFFFFFFFFFFFFFFFFFFFFFFFFFFFFFFFFFFFFFFF AND PUSH20 0xFFFFFFFFFFFFFFFFFFFFFFFFFFFFFFFFFFFFFFFF AND DUP2 MSTORE PUSH1 0x20 ADD SWAP1 DUP2 MSTORE PUSH1 0x20 ADD PUSH0 KECCAK256 PUSH0 ADD PUSH0 SWAP1 SLOAD SWAP1 PUSH2 0x100 EXP SWAP1 DIV PUSH1 0xFF AND PUSH2 0x8D9 JUMPI CALLER PUSH1 0x40 MLOAD PUSH32 0xAFFA818A00000000000000000000000000000000000000000000000000000000 DUP2 MSTORE PUSH1 0x4 ADD PUSH2 0x8D0 SWAP2 SWAP1 PUSH2 0x1FAE JUMP JUMPDEST PUSH1 0x40 MLOAD DUP1 SWAP2 SUB SWAP1 REVERT JUMPDEST PUSH1 0x1 PUSH1 0x2 ADD DUP1 SLOAD DUP1 PUSH1 0x20 MUL PUSH1 0x20 ADD PUSH1 0x40 MLOAD SWAP1 DUP2 ADD PUSH1 0x40 MSTORE DUP1 SWAP3 SWAP2 SWAP1 DUP2 DUP2 MSTORE PUSH1 0x20 ADD DUP3 DUP1 SLOAD DUP1 ISZERO PUSH2 0x95B JUMPI PUSH1 0x20 MUL DUP3 ADD SWAP2 SWAP1 PUSH0 MSTORE PUSH1 0x20 PUSH0 KECCAK256 SWAP1 JUMPDEST DUP2 PUSH0 SWAP1 SLOAD SWAP1 PUSH2 0x100 EXP SWAP1 DIV PUSH20 0xFFFFFFFFFFFFFFFFFFFFFFFFFFFFFFFFFFFFFFFF AND PUSH20 0xFFFFFFFFFFFFFFFFFFFFFFFFFFFFFFFFFFFFFFFF AND DUP2 MSTORE PUSH1 0x20 ADD SWAP1 PUSH1 0x1 ADD SWAP1 DUP1 DUP4 GT PUSH2 0x912 JUMPI JUMPDEST POP POP POP POP POP SWAP1 POP SWAP1 JUMP JUMPDEST PUSH2 0x96F PUSH1 0x3 PUSH2 0x176D JUMP JUMPDEST PUSH0 DUP1 PUSH0 PUSH1 0x1 SWAP1 POP JUMPDEST PUSH1 0x1 PUSH1 0x3 ADD DUP1 SLOAD SWAP1 POP DUP2 LT ISZERO PUSH2 0x9F5 JUMPI DUP3 PUSH1 0x1 PUSH1 0x3 ADD DUP3 DUP2 SLOAD DUP2 LT PUSH2 0x99F JUMPI PUSH2 0x99E PUSH2 0x2270 JUMP JUMPDEST JUMPDEST SWAP1 PUSH0 MSTORE PUSH1 0x20 PUSH0 KECCAK256 SWAP1 PUSH1 0x2 MUL ADD PUSH1 0x1 ADD SLOAD GT ISZERO PUSH2 0x9E2 JUMPI PUSH1 0x1 PUSH1 0x3 ADD DUP2 DUP2 SLOAD DUP2 LT PUSH2 0x9CC JUMPI PUSH2 0x9CB PUSH2 0x2270 JUMP JUMPDEST JUMPDEST SWAP1 PUSH0 MSTORE PUSH1 0x20 PUSH0 KECCAK256 SWAP1 PUSH1 0x2 MUL ADD PUSH1 0x1 ADD SLOAD SWAP3 POP DUP1 SWAP2 POP JUMPDEST DUP1 DUP1 PUSH2 0x9ED SWAP1 PUSH2 0x22CA JUMP JUMPDEST SWAP2 POP POP PUSH2 0x977 JUMP JUMPDEST POP DUP1 PUSH1 0x1 PUSH1 0x4 ADD DUP2 SWAP1 SSTORE POP PUSH0 PUSH1 0x1 PUSH0 ADD PUSH0 SWAP1 SLOAD SWAP1 PUSH2 0x100 EXP SWAP1 DIV PUSH1 0xFF AND SWAP1 POP PUSH1 0x5 PUSH1 0x1 PUSH0 ADD PUSH0 PUSH2 0x100 EXP DUP2 SLOAD DUP2 PUSH1 0xFF MUL NOT AND SWAP1 DUP4 PUSH1 0x5 DUP2 GT ISZERO PUSH2 0xA3B JUMPI PUSH2 0xA3A PUSH2 0x2338 JUMP JUMPDEST JUMPDEST MUL OR SWAP1 SSTORE POP PUSH32 0xA97A4EE45751E2ABF3E4FC8946939630B11B371EA8AE39CCDC3056E98F5CC3F DUP2 PUSH1 0x1 PUSH0 ADD PUSH0 SWAP1 SLOAD SWAP1 PUSH2 0x100 EXP SWAP1 DIV PUSH1 0xFF AND PUSH1 0x40 MLOAD PUSH2 0xA81 SWAP3 SWAP2 SWAP1 PUSH2 0x23AB JUMP JUMPDEST PUSH1 0x40 MLOAD DUP1 SWAP2 SUB SWAP1 LOG1 POP POP POP JUMP JUMPDEST PUSH2 0xA96 PUSH2 0x1593 JUMP JUMPDEST PUSH2 0xA9F PUSH0 PUSH2 0x176D JUMP JUMPDEST PUSH1 0x1 DUP1 ADD PUSH0 DUP3 PUSH20 0xFFFFFFFFFFFFFFFFFFFFFFFFFFFFFFFFFFFFFFFF AND PUSH20 0xFFFFFFFFFFFFFFFFFFFFFFFFFFFFFFFFFFFFFFFF AND DUP2 MSTORE PUSH1 0x20 ADD SWAP1 DUP2 MSTORE PUSH1 0x20 ADD PUSH0 KECCAK256 PUSH0 ADD PUSH0 SWAP1 SLOAD SWAP1 PUSH2 0x100 EXP SWAP1 DIV PUSH1 0xFF AND PUSH2 0xB2E JUMPI DUP1 PUSH1 0x40 MLOAD PUSH32 0x7ECF313D00000000000000000000000000000000000000000000000000000000 DUP2 MSTORE PUSH1 0x4 ADD PUSH2 0xB25 SWAP2 SWAP1 PUSH2 0x1FAE JUMP JUMPDEST PUSH1 0x40 MLOAD DUP1 SWAP2 SUB SWAP1 REVERT JUMPDEST PUSH1 0x1 PUSH1 0x2 ADD DUP2 SWAP1 DUP1 PUSH1 0x1 DUP2 SLOAD ADD DUP1 DUP3 SSTORE DUP1 SWAP2 POP POP PUSH1 0x1 SWAP1 SUB SWAP1 PUSH0 MSTORE PUSH1 0x20 PUSH0 KECCAK256 ADD PUSH0 SWAP1 SWAP2 SWAP1 SWAP2 SWAP1 SWAP2 PUSH2 0x100 EXP DUP2 SLOAD DUP2 PUSH20 0xFFFFFFFFFFFFFFFFFFFFFFFFFFFFFFFFFFFFFFFF MUL NOT AND SWAP1 DUP4 PUSH20 0xFFFFFFFFFFFFFFFFFFFFFFFFFFFFFFFFFFFFFFFF AND MUL OR SWAP1 SSTORE POP PUSH1 0x40 MLOAD DUP1 PUSH1 0x60 ADD PUSH1 0x40 MSTORE DUP1 PUSH1 0x1 ISZERO ISZERO DUP2 MSTORE PUSH1 0x20 ADD PUSH0 ISZERO ISZERO DUP2 MSTORE PUSH1 0x20 ADD PUSH0 DUP2 MSTORE POP PUSH1 0x1 DUP1 ADD PUSH0 DUP4 PUSH20 0xFFFFFFFFFFFFFFFFFFFFFFFFFFFFFFFFFFFFFFFF AND PUSH20 0xFFFFFFFFFFFFFFFFFFFFFFFFFFFFFFFFFFFFFFFF AND DUP2 MSTORE PUSH1 0x20 ADD SWAP1 DUP2 MSTORE PUSH1 0x20 ADD PUSH0 KECCAK256 PUSH0 DUP3 ADD MLOAD DUP2 PUSH0 ADD PUSH0 PUSH2 0x100 EXP DUP2 SLOAD DUP2 PUSH1 0xFF MUL NOT AND SWAP1 DUP4 ISZERO ISZERO MUL OR SWAP1 SSTORE POP PUSH1 0x20 DUP3 ADD MLOAD DUP2 PUSH0 ADD PUSH1 0x1 PUSH2 0x100 EXP DUP2 SLOAD DUP2 PUSH1 0xFF MUL NOT AND SWAP1 DUP4 ISZERO ISZERO MUL OR SWAP1 SSTORE POP PUSH1 0x40 DUP3 ADD MLOAD DUP2 PUSH1 0x1 ADD SSTORE SWAP1 POP POP PUSH32 0xB6BE2187D059CC2A55FE29E0E503B566E1E0F8C8780096E185429350ACFFD3DD DUP2 PUSH1 0x40 MLOAD PUSH2 0xC68 SWAP2 SWAP1 PUSH2 0x1FAE JUMP JUMPDEST PUSH1 0x40 MLOAD DUP1 SWAP2 SUB SWAP1 LOG1 POP JUMP JUMPDEST PUSH0 PUSH1 0x1 DUP1 ADD PUSH0 CALLER PUSH20 0xFFFFFFFFFFFFFFFFFFFFFFFFFFFFFFFFFFFFFFFF AND PUSH20 0xFFFFFFFFFFFFFFFFFFFFFFFFFFFFFFFFFFFFFFFF AND DUP2 MSTORE PUSH1 0x20 ADD SWAP1 DUP2 MSTORE PUSH1 0x20 ADD PUSH0 KECCAK256 PUSH0 ADD PUSH0 SWAP1 SLOAD SWAP1 PUSH2 0x100 EXP SWAP1 DIV PUSH1 0xFF AND PUSH2 0xD03 JUMPI CALLER PUSH1 0x40 MLOAD PUSH32 0xAFFA818A00000000000000000000000000000000000000000000000000000000 DUP2 MSTORE PUSH1 0x4 ADD PUSH2 0xCFA SWAP2 SWAP1 PUSH2 0x1FAE JUMP JUMPDEST PUSH1 0x40 MLOAD DUP1 SWAP2 SUB SWAP1 REVERT JUMPDEST PUSH0 PUSH1 0x5 DUP2 GT ISZERO PUSH2 0xD16 JUMPI PUSH2 0xD15 PUSH2 0x2338 JUMP JUMPDEST JUMPDEST PUSH1 0x1 PUSH0 ADD PUSH0 SWAP1 SLOAD SWAP1 PUSH2 0x100 EXP SWAP1 DIV PUSH1 0xFF AND PUSH1 0x5 DUP2 GT ISZERO PUSH2 0xD39 JUMPI PUSH2 0xD38 PUSH2 0x2338 JUMP JUMPDEST JUMPDEST SUB PUSH2 0xD70 JUMPI PUSH1 0x40 MLOAD PUSH32 0xFDC03CE900000000000000000000000000000000000000000000000000000000 DUP2 MSTORE PUSH1 0x4 ADD PUSH1 0x40 MLOAD DUP1 SWAP2 SUB SWAP1 REVERT JUMPDEST PUSH1 0x1 DUP1 ADD PUSH0 DUP4 PUSH20 0xFFFFFFFFFFFFFFFFFFFFFFFFFFFFFFFFFFFFFFFF AND PUSH20 0xFFFFFFFFFFFFFFFFFFFFFFFFFFFFFFFFFFFFFFFF AND DUP2 MSTORE PUSH1 0x20 ADD SWAP1 DUP2 MSTORE PUSH1 0x20 ADD PUSH0 KECCAK256 PUSH0 ADD PUSH0 SWAP1 SLOAD SWAP1 PUSH2 0x100 EXP SWAP1 DIV PUSH1 0xFF AND PUSH2 0xDFF JUMPI DUP2 PUSH1 0x40 MLOAD PUSH32 0xAFFA818A00000000000000000000000000000000000000000000000000000000 DUP2 MSTORE PUSH1 0x4 ADD PUSH2 0xDF6 SWAP2 SWAP1 PUSH2 0x1FAE JUMP JUMPDEST PUSH1 0x40 MLOAD DUP1 SWAP2 SUB SWAP1 REVERT JUMPDEST PUSH0 PUSH1 0x1 DUP1 ADD PUSH0 DUP5 PUSH20 0xFFFFFFFFFFFFFFFFFFFFFFFFFFFFFFFFFFFFFFFF AND PUSH20 0xFFFFFFFFFFFFFFFFFFFFFFFFFFFFFFFFFFFFFFFF AND DUP2 MSTORE PUSH1 0x20 ADD SWAP1 DUP2 MSTORE PUSH1 0x20 ADD PUSH0 KECCAK256 PUSH1 0x1 ADD SLOAD SUB PUSH2 0xE85 JUMPI DUP2 PUSH1 0x40 MLOAD PUSH32 0x61F8AEAD00000000000000000000000000000000000000000000000000000000 DUP2 MSTORE PUSH1 0x4 ADD PUSH2 0xE7C SWAP2 SWAP1 PUSH2 0x1FAE JUMP JUMPDEST PUSH1 0x40 MLOAD DUP1 SWAP2 SUB SWAP1 REVERT JUMPDEST PUSH1 0x1 DUP1 ADD PUSH0 DUP4 PUSH20 0xFFFFFFFFFFFFFFFFFFFFFFFFFFFFFFFFFFFFFFFF AND PUSH20 0xFFFFFFFFFFFFFFFFFFFFFFFFFFFFFFFFFFFFFFFF AND DUP2 MSTORE PUSH1 0x20 ADD SWAP1 DUP2 MSTORE PUSH1 0x20 ADD PUSH0 KECCAK256 PUSH1 0x1 ADD SLOAD SWAP1 POP SWAP2 SWAP1 POP JUMP JUMPDEST PUSH2 0xED7 PUSH2 0x1593 JUMP JUMPDEST PUSH2 0xEE0 PUSH0 PUSH2 0x17FA JUMP JUMPDEST JUMP JUMPDEST PUSH0 DUP1 PUSH0 SWAP1 SLOAD SWAP1 PUSH2 0x100 EXP SWAP1 DIV PUSH20 0xFFFFFFFFFFFFFFFFFFFFFFFFFFFFFFFFFFFFFFFF AND SWAP1 POP SWAP1 JUMP JUMPDEST PUSH0 PUSH1 0x1 DUP1 ADD PUSH0 CALLER PUSH20 0xFFFFFFFFFFFFFFFFFFFFFFFFFFFFFFFFFFFFFFFF AND PUSH20 0xFFFFFFFFFFFFFFFFFFFFFFFFFFFFFFFFFFFFFFFF AND DUP2 MSTORE PUSH1 0x20 ADD SWAP1 DUP2 MSTORE PUSH1 0x20 ADD PUSH0 KECCAK256 PUSH0 ADD PUSH0 SWAP1 SLOAD SWAP1 PUSH2 0x100 EXP SWAP1 DIV PUSH1 0xFF AND PUSH2 0xF99 JUMPI CALLER PUSH1 0x40 MLOAD PUSH32 0xAFFA818A00000000000000000000000000000000000000000000000000000000 DUP2 MSTORE PUSH1 0x4 ADD PUSH2 0xF90 SWAP2 SWAP1 PUSH2 0x1FAE JUMP JUMPDEST PUSH1 0x40 MLOAD DUP1 SWAP2 SUB SWAP1 REVERT JUMPDEST PUSH2 0xFA3 PUSH1 0x5 PUSH2 0x176D JUMP JUMPDEST PUSH1 0x1 PUSH1 0x4 ADD SLOAD SWAP1 POP SWAP1 JUMP JUMPDEST PUSH2 0xFB6 PUSH2 0x1593 JUMP JUMPDEST PUSH2 0xFC0 PUSH1 0x2 PUSH2 0x176D JUMP JUMPDEST PUSH0 PUSH1 0x1 PUSH0 ADD PUSH0 SWAP1 SLOAD SWAP1 PUSH2 0x100 EXP SWAP1 DIV PUSH1 0xFF AND SWAP1 POP PUSH1 0x3 PUSH1 0x1 PUSH0 ADD PUSH0 PUSH2 0x100 EXP DUP2 SLOAD DUP2 PUSH1 0xFF MUL NOT AND SWAP1 DUP4 PUSH1 0x5 DUP2 GT ISZERO PUSH2 0xFFB JUMPI PUSH2 0xFFA PUSH2 0x2338 JUMP JUMPDEST JUMPDEST MUL OR SWAP1 SSTORE POP PUSH32 0xA97A4EE45751E2ABF3E4FC8946939630B11B371EA8AE39CCDC3056E98F5CC3F DUP2 PUSH1 0x1 PUSH0 ADD PUSH0 SWAP1 SLOAD SWAP1 PUSH2 0x100 EXP SWAP1 DIV PUSH1 0xFF AND PUSH1 0x40 MLOAD PUSH2 0x1041 SWAP3 SWAP2 SWAP1 PUSH2 0x23AB JUMP JUMPDEST PUSH1 0x40 MLOAD DUP1 SWAP2 SUB SWAP1 LOG1 POP JUMP JUMPDEST PUSH2 0x1054 PUSH2 0x1593 JUMP JUMPDEST PUSH0 PUSH1 0x1 PUSH0 ADD PUSH0 SWAP1 SLOAD SWAP1 PUSH2 0x100 EXP SWAP1 DIV PUSH1 0xFF AND SWAP1 POP PUSH1 0x3 PUSH1 0x1 PUSH0 ADD PUSH0 PUSH2 0x100 EXP DUP2 SLOAD DUP2 PUSH1 0xFF MUL NOT AND SWAP1 DUP4 PUSH1 0x5 DUP2 GT ISZERO PUSH2 0x108F JUMPI PUSH2 0x108E PUSH2 0x2338 JUMP JUMPDEST JUMPDEST MUL OR SWAP1 SSTORE POP PUSH2 0x109C PUSH2 0x18BB JUMP JUMPDEST PUSH32 0xA97A4EE45751E2ABF3E4FC8946939630B11B371EA8AE39CCDC3056E98F5CC3F DUP2 PUSH1 0x1 PUSH0 ADD PUSH0 SWAP1 SLOAD SWAP1 PUSH2 0x100 EXP SWAP1 DIV PUSH1 0xFF AND PUSH1 0x40 MLOAD PUSH2 0x10DD SWAP3 SWAP2 SWAP1 PUSH2 0x23AB JUMP JUMPDEST PUSH1 0x40 MLOAD DUP1 SWAP2 SUB SWAP1 LOG1 POP JUMP JUMPDEST PUSH1 0x60 PUSH1 0x1 DUP1 ADD PUSH0 CALLER PUSH20 0xFFFFFFFFFFFFFFFFFFFFFFFFFFFFFFFFFFFFFFFF AND PUSH20 0xFFFFFFFFFFFFFFFFFFFFFFFFFFFFFFFFFFFFFFFF AND DUP2 MSTORE PUSH1 0x20 ADD SWAP1 DUP2 MSTORE PUSH1 0x20 ADD PUSH0 KECCAK256 PUSH0 ADD PUSH0 SWAP1 SLOAD SWAP1 PUSH2 0x100 EXP SWAP1 DIV PUSH1 0xFF AND PUSH2 0x1179 JUMPI CALLER PUSH1 0x40 MLOAD PUSH32 0xAFFA818A00000000000000000000000000000000000000000000000000000000 DUP2 MSTORE PUSH1 0x4 ADD PUSH2 0x1170 SWAP2 SWAP1 PUSH2 0x1FAE JUMP JUMPDEST PUSH1 0x40 MLOAD DUP1 SWAP2 SUB SWAP1 REVERT JUMPDEST PUSH0 PUSH1 0x5 DUP2 GT ISZERO PUSH2 0x118C JUMPI PUSH2 0x118B PUSH2 0x2338 JUMP JUMPDEST JUMPDEST PUSH1 0x1 PUSH0 ADD PUSH0 SWAP1 SLOAD SWAP1 PUSH2 0x100 EXP SWAP1 DIV PUSH1 0xFF AND PUSH1 0x5 DUP2 GT ISZERO PUSH2 0x11AF JUMPI PUSH2 0x11AE PUSH2 0x2338 JUMP JUMPDEST JUMPDEST SUB PUSH2 0x11EF JUMPI PUSH1 0x40 MLOAD PUSH32 0x8C379A000000000000000000000000000000000000000000000000000000000 DUP2 MSTORE PUSH1 0x4 ADD PUSH2 0x11E6 SWAP1 PUSH2 0x271B JUMP JUMPDEST PUSH1 0x40 MLOAD DUP1 SWAP2 SUB SWAP1 REVERT JUMPDEST PUSH1 0x1 PUSH1 0x3 ADD DUP1 SLOAD DUP1 PUSH1 0x20 MUL PUSH1 0x20 ADD PUSH1 0x40 MLOAD SWAP1 DUP2 ADD PUSH1 0x40 MSTORE DUP1 SWAP3 SWAP2 SWAP1 DUP2 DUP2 MSTORE PUSH1 0x20 ADD PUSH0 SWAP1 JUMPDEST DUP3 DUP3 LT ISZERO PUSH2 0x12DC JUMPI DUP4 DUP3 SWAP1 PUSH0 MSTORE PUSH1 0x20 PUSH0 KECCAK256 SWAP1 PUSH1 0x2 MUL ADD PUSH1 0x40 MLOAD DUP1 PUSH1 0x40 ADD PUSH1 0x40 MSTORE SWAP1 DUP2 PUSH0 DUP3 ADD DUP1 SLOAD PUSH2 0x1243 SWAP1 PUSH2 0x23FF JUMP JUMPDEST DUP1 PUSH1 0x1F ADD PUSH1 0x20 DUP1 SWAP2 DIV MUL PUSH1 0x20 ADD PUSH1 0x40 MLOAD SWAP1 DUP2 ADD PUSH1 0x40 MSTORE DUP1 SWAP3 SWAP2 SWAP1 DUP2 DUP2 MSTORE PUSH1 0x20 ADD DUP3 DUP1 SLOAD PUSH2 0x126F SWAP1 PUSH2 0x23FF JUMP JUMPDEST DUP1 ISZERO PUSH2 0x12BA JUMPI DUP1 PUSH1 0x1F LT PUSH2 0x1291 JUMPI PUSH2 0x100 DUP1 DUP4 SLOAD DIV MUL DUP4 MSTORE SWAP2 PUSH1 0x20 ADD SWAP2 PUSH2 0x12BA JUMP JUMPDEST DUP3 ADD SWAP2 SWAP1 PUSH0 MSTORE PUSH1 0x20 PUSH0 KECCAK256 SWAP1 JUMPDEST DUP2 SLOAD DUP2 MSTORE SWAP1 PUSH1 0x1 ADD SWAP1 PUSH1 0x20 ADD DUP1 DUP4 GT PUSH2 0x129D JUMPI DUP3 SWAP1 SUB PUSH1 0x1F AND DUP3 ADD SWAP2 JUMPDEST POP POP POP POP POP DUP2 MSTORE PUSH1 0x20 ADD PUSH1 0x1 DUP3 ADD SLOAD DUP2 MSTORE POP POP DUP2 MSTORE PUSH1 0x20 ADD SWAP1 PUSH1 0x1 ADD SWAP1 PUSH2 0x1213 JUMP JUMPDEST POP POP POP POP SWAP1 POP SWAP1 JUMP JUMPDEST PUSH2 0x12ED PUSH2 0x1593 JUMP JUMPDEST PUSH2 0x12F6 PUSH0 PUSH2 0x176D JUMP JUMPDEST PUSH0 JUMPDEST DUP2 MLOAD DUP2 GT PUSH2 0x1336 JUMPI PUSH2 0x1323 DUP3 DUP3 DUP2 MLOAD DUP2 LT PUSH2 0x1316 JUMPI PUSH2 0x1315 PUSH2 0x2270 JUMP JUMPDEST JUMPDEST PUSH1 0x20 MUL PUSH1 0x20 ADD ADD MLOAD PUSH2 0xA8E JUMP JUMPDEST DUP1 DUP1 PUSH2 0x132E SWAP1 PUSH2 0x22CA JUMP JUMPDEST SWAP2 POP POP PUSH2 0x12F8 JUMP JUMPDEST POP POP JUMP JUMPDEST PUSH2 0x1342 PUSH2 0x1593 JUMP JUMPDEST PUSH2 0x134C PUSH1 0x1 PUSH2 0x176D JUMP JUMPDEST PUSH0 PUSH1 0x1 PUSH0 ADD PUSH0 SWAP1 SLOAD SWAP1 PUSH2 0x100 EXP SWAP1 DIV PUSH1 0xFF AND SWAP1 POP PUSH1 0x2 PUSH1 0x1 PUSH0 ADD PUSH0 PUSH2 0x100 EXP DUP2 SLOAD DUP2 PUSH1 0xFF MUL NOT AND SWAP1 DUP4 PUSH1 0x5 DUP2 GT ISZERO PUSH2 0x1387 JUMPI PUSH2 0x1386 PUSH2 0x2338 JUMP JUMPDEST JUMPDEST MUL OR SWAP1 SSTORE POP PUSH32 0xA97A4EE45751E2ABF3E4FC8946939630B11B371EA8AE39CCDC3056E98F5CC3F DUP2 PUSH1 0x1 PUSH0 ADD PUSH0 SWAP1 SLOAD SWAP1 PUSH2 0x100 EXP SWAP1 DIV PUSH1 0xFF AND PUSH1 0x40 MLOAD PUSH2 0x13CD SWAP3 SWAP2 SWAP1 PUSH2 0x23AB JUMP JUMPDEST PUSH1 0x40 MLOAD DUP1 SWAP2 SUB SWAP1 LOG1 POP JUMP JUMPDEST PUSH2 0x13E0 PUSH2 0x1593 JUMP JUMPDEST PUSH0 PUSH20 0xFFFFFFFFFFFFFFFFFFFFFFFFFFFFFFFFFFFFFFFF AND DUP2 PUSH20 0xFFFFFFFFFFFFFFFFFFFFFFFFFFFFFFFFFFFFFFFF AND SUB PUSH2 0x144E JUMPI PUSH1 0x40 MLOAD PUSH32 0x8C379A000000000000000000000000000000000000000000000000000000000 DUP2 MSTORE PUSH1 0x4 ADD PUSH2 0x1445 SWAP1 PUSH2 0x27A9 JUMP JUMPDEST PUSH1 0x40 MLOAD DUP1 SWAP2 SUB SWAP1 REVERT JUMPDEST PUSH2 0x1457 DUP2 PUSH2 0x17FA JUMP JUMPDEST POP JUMP JUMPDEST PUSH2 0x1462 PUSH2 0x1593 JUMP JUMPDEST PUSH2 0x146C PUSH1 0x3 PUSH2 0x176D JUMP JUMPDEST PUSH0 PUSH1 0x1 PUSH0 ADD PUSH0 SWAP1 SLOAD SWAP1 PUSH2 0x100 EXP SWAP1 DIV PUSH1 0xFF AND SWAP1 POP PUSH1 0x4 PUSH1 0x1 PUSH0 ADD PUSH0 PUSH2 0x100 EXP DUP2 SLOAD DUP2 PUSH1 0xFF MUL NOT AND SWAP1 DUP4 PUSH1 0x5 DUP2 GT ISZERO PUSH2 0x14A7 JUMPI PUSH2 0x14A6 PUSH2 0x2338 JUMP JUMPDEST JUMPDEST MUL OR SWAP1 SSTORE POP PUSH32 0xA97A4EE45751E2ABF3E4FC8946939630B11B371EA8AE39CCDC3056E98F5CC3F DUP2 PUSH1 0x1 PUSH0 ADD PUSH0 SWAP1 SLOAD SWAP1 PUSH2 0x100 EXP SWAP1 DIV PUSH1 0xFF AND PUSH1 0x40 MLOAD PUSH2 0x14ED SWAP3 SWAP2 SWAP1 PUSH2 0x23AB JUMP JUMPDEST PUSH1 0x40 MLOAD DUP1 SWAP2 SUB SWAP1 LOG1 POP JUMP JUMPDEST PUSH2 0x1500 PUSH2 0x1593 JUMP JUMPDEST PUSH0 PUSH1 0x1 PUSH0 ADD PUSH0 SWAP1 SLOAD SWAP1 PUSH2 0x100 EXP SWAP1 DIV PUSH1 0xFF AND SWAP1 POP PUSH0 PUSH1 0x1 PUSH0 ADD PUSH0 PUSH2 0x100 EXP DUP2 SLOAD DUP2 PUSH1 0xFF MUL NOT AND SWAP1 DUP4 PUSH1 0x5 DUP2 GT ISZERO PUSH2 0x153A JUMPI PUSH2 0x1539 PUSH2 0x2338 JUMP JUMPDEST JUMPDEST MUL OR SWAP1 SSTORE POP PUSH2 0x1547 PUSH2 0x1A58 JUMP JUMPDEST PUSH32 0xA97A4EE45751E2ABF3E4FC8946939630B11B371EA8AE39CCDC3056E98F5CC3F DUP2 PUSH1 0x1 PUSH0 ADD PUSH0 SWAP1 SLOAD SWAP1 PUSH2 0x100 EXP SWAP1 DIV PUSH1 0xFF AND PUSH1 0x40 MLOAD PUSH2 0x1588 SWAP3 SWAP2 SWAP1 PUSH2 0x23AB JUMP JUMPDEST PUSH1 0x40 MLOAD DUP1 SWAP2 SUB SWAP1 LOG1 POP JUMP JUMPDEST PUSH2 0x159B PUSH2 0x1B7D JUMP JUMPDEST PUSH20 0xFFFFFFFFFFFFFFFFFFFFFFFFFFFFFFFFFFFFFFFF AND PUSH2 0x15B9 PUSH2 0xEE2 JUMP JUMPDEST PUSH20 0xFFFFFFFFFFFFFFFFFFFFFFFFFFFFFFFFFFFFFFFF AND EQ PUSH2 0x160F JUMPI PUSH1 0x40 MLOAD PUSH32 0x8C379A000000000000000000000000000000000000000000000000000000000 DUP2 MSTORE PUSH1 0x4 ADD PUSH2 0x1606 SWAP1 PUSH2 0x2811 JUMP JUMPDEST PUSH1 0x40 MLOAD DUP1 SWAP2 SUB SWAP1 REVERT JUMPDEST JUMP JUMPDEST PUSH2 0x1619 PUSH2 0x1593 JUMP JUMPDEST PUSH1 0x1 PUSH1 0x3 ADD PUSH0 PUSH2 0x1629 SWAP2 SWAP1 PUSH2 0x1B84 JUMP JUMPDEST PUSH0 JUMPDEST PUSH1 0x1 PUSH1 0x2 ADD DUP1 SLOAD SWAP1 POP DUP2 LT ISZERO PUSH2 0x176A JUMPI PUSH0 PUSH1 0x1 DUP1 ADD PUSH0 PUSH1 0x1 PUSH1 0x2 ADD DUP5 DUP2 SLOAD DUP2 LT PUSH2 0x1658 JUMPI PUSH2 0x1657 PUSH2 0x2270 JUMP JUMPDEST JUMPDEST SWAP1 PUSH0 MSTORE PUSH1 0x20 PUSH0 KECCAK256 ADD PUSH0 SWAP1 SLOAD SWAP1 PUSH2 0x100 EXP SWAP1 DIV PUSH20 0xFFFFFFFFFFFFFFFFFFFFFFFFFFFFFFFFFFFFFFFF AND PUSH20 0xFFFFFFFFFFFFFFFFFFFFFFFFFFFFFFFFFFFFFFFF AND PUSH20 0xFFFFFFFFFFFFFFFFFFFFFFFFFFFFFFFFFFFFFFFF AND DUP2 MSTORE PUSH1 0x20 ADD SWAP1 DUP2 MSTORE PUSH1 0x20 ADD PUSH0 KECCAK256 PUSH0 ADD PUSH1 0x1 PUSH2 0x100 EXP DUP2 SLOAD DUP2 PUSH1 0xFF MUL NOT AND SWAP1 DUP4 ISZERO ISZERO MUL OR SWAP1 SSTORE POP PUSH0 PUSH1 0x1 DUP1 ADD PUSH0 PUSH1 0x1 PUSH1 0x2 ADD DUP5 DUP2 SLOAD DUP2 LT PUSH2 0x16EF JUMPI PUSH2 0x16EE PUSH2 0x2270 JUMP JUMPDEST JUMPDEST SWAP1 PUSH0 MSTORE PUSH1 0x20 PUSH0 KECCAK256 ADD PUSH0 SWAP1 SLOAD SWAP1 PUSH2 0x100 EXP SWAP1 DIV PUSH20 0xFFFFFFFFFFFFFFFFFFFFFFFFFFFFFFFFFFFFFFFF AND PUSH20 0xFFFFFFFFFFFFFFFFFFFFFFFFFFFFFFFFFFFFFFFF AND PUSH20 0xFFFFFFFFFFFFFFFFFFFFFFFFFFFFFFFFFFFFFFFF AND DUP2 MSTORE PUSH1 0x20 ADD SWAP1 DUP2 MSTORE PUSH1 0x20 ADD PUSH0 KECCAK256 PUSH1 0x1 ADD DUP2 SWAP1 SSTORE POP DUP1 DUP1 PUSH2 0x1762 SWAP1 PUSH2 0x22CA JUMP JUMPDEST SWAP2 POP POP PUSH2 0x162B JUMP JUMPDEST POP JUMP JUMPDEST DUP1 PUSH1 0x5 DUP2 GT ISZERO PUSH2 0x1780 JUMPI PUSH2 0x177F PUSH2 0x2338 JUMP JUMPDEST JUMPDEST PUSH1 0x1 PUSH0 ADD PUSH0 SWAP1 SLOAD SWAP1 PUSH2 0x100 EXP SWAP1 DIV PUSH1 0xFF AND PUSH1 0x5 DUP2 GT ISZERO PUSH2 0x17A3 JUMPI PUSH2 0x17A2 PUSH2 0x2338 JUMP JUMPDEST JUMPDEST EQ PUSH2 0x17F7 JUMPI DUP1 PUSH1 0x1 PUSH0 ADD PUSH0 SWAP1 SLOAD SWAP1 PUSH2 0x100 EXP SWAP1 DIV PUSH1 0xFF AND PUSH1 0x40 MLOAD PUSH32 0x586A712D00000000000000000000000000000000000000000000000000000000 DUP2 MSTORE PUSH1 0x4 ADD PUSH2 0x17EE SWAP3 SWAP2 SWAP1 PUSH2 0x23AB JUMP JUMPDEST PUSH1 0x40 MLOAD DUP1 SWAP2 SUB SWAP1 REVERT JUMPDEST POP JUMP JUMPDEST PUSH0 DUP1 PUSH0 SWAP1 SLOAD SWAP1 PUSH2 0x100 EXP SWAP1 DIV PUSH20 0xFFFFFFFFFFFFFFFFFFFFFFFFFFFFFFFFFFFFFFFF AND SWAP1 POP DUP2 PUSH0 DUP1 PUSH2 0x100 EXP DUP2 SLOAD DUP2 PUSH20 0xFFFFFFFFFFFFFFFFFFFFFFFFFFFFFFFFFFFFFFFF MUL NOT AND SWAP1 DUP4 PUSH20 0xFFFFFFFFFFFFFFFFFFFFFFFFFFFFFFFFFFFFFFFF AND MUL OR SWAP1 SSTORE POP DUP2 PUSH20 0xFFFFFFFFFFFFFFFFFFFFFFFFFFFFFFFFFFFFFFFF AND DUP2 PUSH20 0xFFFFFFFFFFFFFFFFFFFFFFFFFFFFFFFFFFFFFFFF AND PUSH32 0x8BE0079C531659141344CD1FD0A4F28419497F9722A3DAAFE3B4186F6B6457E0 PUSH1 0x40 MLOAD PUSH1 0x40 MLOAD DUP1 SWAP2 SUB SWAP1 LOG3 POP POP JUMP JUMPDEST PUSH2 0x18C3 PUSH2 0x1593 JUMP JUMPDEST PUSH0 JUMPDEST PUSH1 0x1 PUSH1 0x2 ADD DUP1 SLOAD SWAP1 POP DUP2 LT ISZERO PUSH2 0x1A04 JUMPI PUSH0 PUSH1 0x1 DUP1 ADD PUSH0 PUSH1 0x1 PUSH1 0x2 ADD DUP5 DUP2 SLOAD DUP2 LT PUSH2 0x18F2 JUMPI PUSH2 0x18F1 PUSH2 0x2270 JUMP JUMPDEST JUMPDEST SWAP1 PUSH0 MSTORE PUSH1 0x20 PUSH0 KECCAK256 ADD PUSH0 SWAP1 SLOAD SWAP1 PUSH2 0x100 EXP SWAP1 DIV PUSH20 0xFFFFFFFFFFFFFFFFFFFFFFFFFFFFFFFFFFFFFFFF AND PUSH20 0xFFFFFFFFFFFFFFFFFFFFFFFFFFFFFFFFFFFFFFFF AND PUSH20 0xFFFFFFFFFFFFFFFFFFFFFFFFFFFFFFFFFFFFFFFF AND DUP2 MSTORE PUSH1 0x20 ADD SWAP1 DUP2 MSTORE PUSH1 0x20 ADD PUSH0 KECCAK256 PUSH0 ADD PUSH1 0x1 PUSH2 0x100 EXP DUP2 SLOAD DUP2 PUSH1 0xFF MUL NOT AND SWAP1 DUP4 ISZERO ISZERO MUL OR SWAP1 SSTORE POP PUSH0 PUSH1 0x1 DUP1 ADD PUSH0 PUSH1 0x1 PUSH1 0x2 ADD DUP5 DUP2 SLOAD DUP2 LT PUSH2 0x1989 JUMPI PUSH2 0x1988 PUSH2 0x2270 JUMP JUMPDEST JUMPDEST SWAP1 PUSH0 MSTORE PUSH1 0x20 PUSH0 KECCAK256 ADD PUSH0 SWAP1 SLOAD SWAP1 PUSH2 0x100 EXP SWAP1 DIV PUSH20 0xFFFFFFFFFFFFFFFFFFFFFFFFFFFFFFFFFFFFFFFF AND PUSH20 0xFFFFFFFFFFFFFFFFFFFFFFFFFFFFFFFFFFFFFFFF AND PUSH20 0xFFFFFFFFFFFFFFFFFFFFFFFFFFFFFFFFFFFFFFFF AND DUP2 MSTORE PUSH1 0x20 ADD SWAP1 DUP2 MSTORE PUSH1 0x20 ADD PUSH0 KECCAK256 PUSH1 0x1 ADD DUP2 SWAP1 SSTORE POP DUP1 DUP1 PUSH2 0x19FC SWAP1 PUSH2 0x22CA JUMP JUMPDEST SWAP2 POP POP PUSH2 0x18C5 JUMP JUMPDEST POP PUSH0 JUMPDEST PUSH1 0x1 PUSH1 0x3 ADD DUP1 SLOAD SWAP1 POP DUP2 LT ISZERO PUSH2 0x1A55 JUMPI PUSH0 PUSH1 0x1 PUSH1 0x3 ADD DUP3 DUP2 SLOAD DUP2 LT PUSH2 0x1A2F JUMPI PUSH2 0x1A2E PUSH2 0x2270 JUMP JUMPDEST JUMPDEST SWAP1 PUSH0 MSTORE PUSH1 0x20 PUSH0 KECCAK256 SWAP1 PUSH1 0x2 MUL ADD PUSH1 0x1 ADD DUP2 SWAP1 SSTORE POP DUP1 DUP1 PUSH2 0x1A4D SWAP1 PUSH2 0x22CA JUMP JUMPDEST SWAP2 POP POP PUSH2 0x1A07 JUMP JUMPDEST POP JUMP JUMPDEST PUSH2 0x1A60 PUSH2 0x1593 JUMP JUMPDEST PUSH1 0x1 PUSH1 0x3 ADD PUSH0 PUSH2 0x1A70 SWAP2 SWAP1 PUSH2 0x1B84 JUMP JUMPDEST PUSH0 JUMPDEST PUSH1 0x1 PUSH1 0x2 ADD DUP1 SLOAD SWAP1 POP DUP2 LT ISZERO PUSH2 0x1B7A JUMPI PUSH1 0x40 MLOAD DUP1 PUSH1 0x60 ADD PUSH1 0x40 MSTORE DUP1 PUSH0 ISZERO ISZERO DUP2 MSTORE PUSH1 0x20 ADD PUSH0 ISZERO ISZERO DUP2 MSTORE PUSH1 0x20 ADD PUSH0 DUP2 MSTORE POP PUSH1 0x1 DUP1 ADD PUSH0 PUSH1 0x1 PUSH1 0x2 ADD DUP5 DUP2 SLOAD DUP2 LT PUSH2 0x1ABD JUMPI PUSH2 0x1ABC PUSH2 0x2270 JUMP JUMPDEST JUMPDEST SWAP1 PUSH0 MSTORE PUSH1 0x20 PUSH0 KECCAK256 ADD PUSH0 SWAP1 SLOAD SWAP1 PUSH2 0x100 EXP SWAP1 DIV PUSH20 0xFFFFFFFFFFFFFFFFFFFFFFFFFFFFFFFFFFFFFFFF AND PUSH20 0xFFFFFFFFFFFFFFFFFFFFFFFFFFFFFFFFFFFFFFFF AND PUSH20 0xFFFFFFFFFFFFFFFFFFFFFFFFFFFFFFFFFFFFFFFF AND DUP2 MSTORE PUSH1 0x20 ADD SWAP1 DUP2 MSTORE PUSH1 0x20 ADD PUSH0 KECCAK256 PUSH0 DUP3 ADD MLOAD DUP2 PUSH0 ADD PUSH0 PUSH2 0x100 EXP DUP2 SLOAD DUP2 PUSH1 0xFF MUL NOT AND SWAP1 DUP4 ISZERO ISZERO MUL OR SWAP1 SSTORE POP PUSH1 0x20 DUP3 ADD MLOAD DUP2 PUSH0 ADD PUSH1 0x1 PUSH2 0x100 EXP DUP2 SLOAD DUP2 PUSH1 0xFF MUL NOT AND SWAP1 DUP4 ISZERO ISZERO MUL OR SWAP1 SSTORE POP PUSH1 0x40 DUP3 ADD MLOAD DUP2 PUSH1 0x1 ADD SSTORE SWAP1 POP POP DUP1 DUP1 PUSH2 0x1B72 SWAP1 PUSH2 0x22CA JUMP JUMPDEST SWAP2 POP POP PUSH2 0x1A72 JUMP JUMPDEST POP JUMP JUMPDEST PUSH0 CALLER SWAP1 POP SWAP1 JUMP JUMPDEST POP DUP1 SLOAD PUSH0 DUP3 SSTORE PUSH1 0x2 MUL SWAP1 PUSH0 MSTORE PUSH1 0x20 PUSH0 KECCAK256 SWAP1 DUP2 ADD SWAP1 PUSH2 0x1BA2 SWAP2 SWAP1 PUSH2 0x1BA5 JUMP JUMPDEST POP JUMP JUMPDEST JUMPDEST DUP1 DUP3 GT ISZERO PUSH2 0x1BCD JUMPI PUSH0 DUP1 DUP3 ADD PUSH0 PUSH2 0x1BBD SWAP2 SWAP1 PUSH2 0x1BD1 JUMP JUMPDEST PUSH1 0x1 DUP3 ADD PUSH0 SWAP1 SSTORE POP PUSH1 0x2 ADD PUSH2 0x1BA6 JUMP JUMPDEST POP SWAP1 JUMP JUMPDEST POP DUP1 SLOAD PUSH2 0x1BDD SWAP1 PUSH2 0x23FF JUMP JUMPDEST PUSH0 DUP3 SSTORE DUP1 PUSH1 0x1F LT PUSH2 0x1BEE JUMPI POP PUSH2 0x1C0B JUMP JUMPDEST PUSH1 0x1F ADD PUSH1 0x20 SWAP1 DIV SWAP1 PUSH0 MSTORE PUSH1 0x20 PUSH0 KECCAK256 SWAP1 DUP2 ADD SWAP1 PUSH2 0x1C0A SWAP2 SWAP1 PUSH2 0x1C0E JUMP JUMPDEST JUMPDEST POP JUMP JUMPDEST JUMPDEST DUP1 DUP3 GT ISZERO PUSH2 0x1C25 JUMPI PUSH0 DUP2 PUSH0 SWAP1 SSTORE POP PUSH1 0x1 ADD PUSH2 0x1C0F JUMP JUMPDEST POP SWAP1 JUMP JUMPDEST PUSH0 PUSH1 0x40 MLOAD SWAP1 POP SWAP1 JUMP JUMPDEST PUSH0 DUP1 REVERT JUMPDEST PUSH0 DUP1 REVERT JUMPDEST PUSH0 DUP2 SWAP1 POP SWAP2 SWAP1 POP JUMP JUMPDEST PUSH2 0x1C4C DUP2 PUSH2 0x1C3A JUMP JUMPDEST DUP2 EQ PUSH2 0x1C56 JUMPI PUSH0 DUP1 REVERT JUMPDEST POP JUMP JUMPDEST PUSH0 DUP2 CALLDATALOAD SWAP1 POP PUSH2 0x1C67 DUP2 PUSH2 0x1C43 JUMP JUMPDEST SWAP3 SWAP2 POP POP JUMP JUMPDEST PUSH0 PUSH1 0x20 DUP3 DUP5 SUB SLT ISZERO PUSH2 0x1C82 JUMPI PUSH2 0x1C81 PUSH2 0x1C32 JUMP JUMPDEST JUMPDEST PUSH0 PUSH2 0x1C8F DUP5 DUP3 DUP6 ADD PUSH2 0x1C59 JUMP JUMPDEST SWAP2 POP POP SWAP3 SWAP2 POP POP JUMP JUMPDEST PUSH0 DUP1 REVERT JUMPDEST PUSH0 DUP1 REVERT JUMPDEST PUSH0 PUSH1 0x1F NOT PUSH1 0x1F DUP4 ADD AND SWAP1 POP SWAP2 SWAP1 POP JUMP JUMPDEST PUSH32 0x4E487B7100000000000000000000000000000000000000000000000000000000 PUSH0 MSTORE PUSH1 0x41 PUSH1 0x4 MSTORE PUSH1 0x24 PUSH0 REVERT JUMPDEST PUSH2 0x1CE6 DUP3 PUSH2 0x1CA0 JUMP JUMPDEST DUP2 ADD DUP2 DUP2 LT PUSH8 0xFFFFFFFFFFFFFFFF DUP3 GT OR ISZERO PUSH2 0x1D05 JUMPI PUSH2 0x1D04 PUSH2 0x1CB0 JUMP JUMPDEST JUMPDEST DUP1 PUSH1 0x40 MSTORE POP POP POP JUMP JUMPDEST PUSH0 PUSH2 0x1D17 PUSH2 0x1C29 JUMP JUMPDEST SWAP1 POP PUSH2 0x1D23 DUP3 DUP3 PUSH2 0x1CDD JUMP JUMPDEST SWAP2 SWAP1 POP JUMP JUMPDEST PUSH0 PUSH8 0xFFFFFFFFFFFFFFFF DUP3 GT ISZERO PUSH2 0x1D42 JUMPI PUSH2 0x1D41 PUSH2 0x1CB0 JUMP JUMPDEST JUMPDEST PUSH2 0x1D4B DUP3 PUSH2 0x1CA0 JUMP JUMPDEST SWAP1 POP PUSH1 0x20 DUP2 ADD SWAP1 POP SWAP2 SWAP1 POP JUMP JUMPDEST DUP3 DUP2 DUP4 CALLDATACOPY PUSH0 DUP4 DUP4 ADD MSTORE POP POP POP JUMP JUMPDEST PUSH0 PUSH2 0x1D78 PUSH2 0x1D73 DUP5 PUSH2 0x1D28 JUMP JUMPDEST PUSH2 0x1D0E JUMP JUMPDEST SWAP1 POP DUP3 DUP2 MSTORE PUSH1 0x20 DUP2 ADD DUP5 DUP5 DUP5 ADD GT ISZERO PUSH2 0x1D94 JUMPI PUSH2 0x1D93 PUSH2 0x1C9C JUMP JUMPDEST JUMPDEST PUSH2 0x1D9F DUP5 DUP3 DUP6 PUSH2 0x1D58 JUMP JUMPDEST POP SWAP4 SWAP3 POP POP POP JUMP JUMPDEST PUSH0 DUP3 PUSH1 0x1F DUP4 ADD SLT PUSH2 0x1DBB JUMPI PUSH2 0x1DBA PUSH2 0x1C98 JUMP JUMPDEST JUMPDEST DUP2 CALLDATALOAD PUSH2 0x1DCB DUP5 DUP3 PUSH1 0x20 DUP7 ADD PUSH2 0x1D66 JUMP JUMPDEST SWAP2 POP POP SWAP3 SWAP2 POP POP JUMP JUMPDEST PUSH0 PUSH1 0x20 DUP3 DUP5 SUB SLT ISZERO PUSH2 0x1DE9 JUMPI PUSH2 0x1DE8 PUSH2 0x1C32 JUMP JUMPDEST JUMPDEST PUSH0 DUP3 ADD CALLDATALOAD PUSH8 0xFFFFFFFFFFFFFFFF DUP2 GT ISZERO PUSH2 0x1E06 JUMPI PUSH2 0x1E05 PUSH2 0x1C36 JUMP JUMPDEST JUMPDEST PUSH2 0x1E12 DUP5 DUP3 DUP6 ADD PUSH2 0x1DA7 JUMP JUMPDEST SWAP2 POP POP SWAP3 SWAP2 POP POP JUMP JUMPDEST PUSH0 DUP2 MLOAD SWAP1 POP SWAP2 SWAP1 POP JUMP JUMPDEST PUSH0 DUP3 DUP3 MSTORE PUSH1 0x20 DUP3 ADD SWAP1 POP SWAP3 SWAP2 POP POP JUMP JUMPDEST PUSH0 DUP2 SWAP1 POP PUSH1 0x20 DUP3 ADD SWAP1 POP SWAP2 SWAP1 POP JUMP JUMPDEST PUSH0 PUSH20 0xFFFFFFFFFFFFFFFFFFFFFFFFFFFFFFFFFFFFFFFF DUP3 AND SWAP1 POP SWAP2 SWAP1 POP JUMP JUMPDEST PUSH0 PUSH2 0x1E6D DUP3 PUSH2 0x1E44 JUMP JUMPDEST SWAP1 POP SWAP2 SWAP1 POP JUMP JUMPDEST PUSH2 0x1E7D DUP2 PUSH2 0x1E63 JUMP JUMPDEST DUP3 MSTORE POP POP JUMP JUMPDEST PUSH0 PUSH2 0x1E8E DUP4 DUP4 PUSH2 0x1E74 JUMP JUMPDEST PUSH1 0x20 DUP4 ADD SWAP1 POP SWAP3 SWAP2 POP POP JUMP JUMPDEST PUSH0 PUSH1 0x20 DUP3 ADD SWAP1 POP SWAP2 SWAP1 POP JUMP JUMPDEST PUSH0 PUSH2 0x1EB0 DUP3 PUSH2 0x1E1B JUMP JUMPDEST PUSH2 0x1EBA DUP2 DUP6 PUSH2 0x1E25 JUMP JUMPDEST SWAP4 POP PUSH2 0x1EC5 DUP4 PUSH2 0x1E35 JUMP JUMPDEST DUP1 PUSH0 JUMPDEST DUP4 DUP2 LT ISZERO PUSH2 0x1EF5 JUMPI DUP2 MLOAD PUSH2 0x1EDC DUP9 DUP3 PUSH2 0x1E83 JUMP JUMPDEST SWAP8 POP PUSH2 0x1EE7 DUP4 PUSH2 0x1E9A JUMP JUMPDEST SWAP3 POP POP PUSH1 0x1 DUP2 ADD SWAP1 POP PUSH2 0x1EC8 JUMP JUMPDEST POP DUP6 SWAP4 POP POP POP POP SWAP3 SWAP2 POP POP JUMP JUMPDEST PUSH0 PUSH1 0x20 DUP3 ADD SWAP1 POP DUP2 DUP2 SUB PUSH0 DUP4 ADD MSTORE PUSH2 0x1F1A DUP2 DUP5 PUSH2 0x1EA6 JUMP JUMPDEST SWAP1 POP SWAP3 SWAP2 POP POP JUMP JUMPDEST PUSH2 0x1F2B DUP2 PUSH2 0x1E63 JUMP JUMPDEST DUP2 EQ PUSH2 0x1F35 JUMPI PUSH0 DUP1 REVERT JUMPDEST POP JUMP JUMPDEST PUSH0 DUP2 CALLDATALOAD SWAP1 POP PUSH2 0x1F46 DUP2 PUSH2 0x1F22 JUMP JUMPDEST SWAP3 SWAP2 POP POP JUMP JUMPDEST PUSH0 PUSH1 0x20 DUP3 DUP5 SUB SLT ISZERO PUSH2 0x1F61 JUMPI PUSH2 0x1F60 PUSH2 0x1C32 JUMP JUMPDEST JUMPDEST PUSH0 PUSH2 0x1F6E DUP5 DUP3 DUP6 ADD PUSH2 0x1F38 JUMP JUMPDEST SWAP2 POP POP SWAP3 SWAP2 POP POP JUMP JUMPDEST PUSH2 0x1F80 DUP2 PUSH2 0x1C3A JUMP JUMPDEST DUP3 MSTORE POP POP JUMP JUMPDEST PUSH0 PUSH1 0x20 DUP3 ADD SWAP1 POP PUSH2 0x1F99 PUSH0 DUP4 ADD DUP5 PUSH2 0x1F77 JUMP JUMPDEST SWAP3 SWAP2 POP POP JUMP JUMPDEST PUSH2 0x1FA8 DUP2 PUSH2 0x1E63 JUMP JUMPDEST DUP3 MSTORE POP POP JUMP JUMPDEST PUSH0 PUSH1 0x20 DUP3 ADD SWAP1 POP PUSH2 0x1FC1 PUSH0 DUP4 ADD DUP5 PUSH2 0x1F9F JUMP JUMPDEST SWAP3 SWAP2 POP POP JUMP JUMPDEST PUSH0 DUP2 MLOAD SWAP1 POP SWAP2 SWAP1 POP JUMP JUMPDEST PUSH0 DUP3 DUP3 MSTORE PUSH1 0x20 DUP3 ADD SWAP1 POP SWAP3 SWAP2 POP POP JUMP JUMPDEST PUSH0 DUP2 SWAP1 POP PUSH1 0x20 DUP3 ADD SWAP1 POP SWAP2 SWAP1 POP JUMP JUMPDEST PUSH0 DUP2 MLOAD SWAP1 POP SWAP2 SWAP1 POP JUMP JUMPDEST PUSH0 DUP3 DUP3 MSTORE PUSH1 0x20 DUP3 ADD SWAP1 POP SWAP3 SWAP2 POP POP JUMP JUMPDEST PUSH0 JUMPDEST DUP4 DUP2 LT ISZERO PUSH2 0x2027 JUMPI DUP1 DUP3 ADD MLOAD DUP2 DUP5 ADD MSTORE PUSH1 0x20 DUP2 ADD SWAP1 POP PUSH2 0x200C JUMP JUMPDEST PUSH0 DUP5 DUP5 ADD MSTORE POP POP POP POP JUMP JUMPDEST PUSH0 PUSH2 0x203C DUP3 PUSH2 0x1FF0 JUMP JUMPDEST PUSH2 0x2046 DUP2 DUP6 PUSH2 0x1FFA JUMP JUMPDEST SWAP4 POP PUSH2 0x2056 DUP2 DUP6 PUSH1 0x20 DUP7 ADD PUSH2 0x200A JUMP JUMPDEST PUSH2 0x205F DUP2 PUSH2 0x1CA0 JUMP JUMPDEST DUP5 ADD SWAP2 POP POP SWAP3 SWAP2 POP POP JUMP JUMPDEST PUSH2 0x2073 DUP2 PUSH2 0x1C3A JUMP JUMPDEST DUP3 MSTORE POP POP JUMP JUMPDEST PUSH0 PUSH1 0x40 DUP4 ADD PUSH0 DUP4 ADD MLOAD DUP5 DUP3 SUB PUSH0 DUP7 ADD MSTORE PUSH2 0x2093 DUP3 DUP3 PUSH2 0x2032 JUMP JUMPDEST SWAP2 POP POP PUSH1 0x20 DUP4 ADD MLOAD PUSH2 0x20A8 PUSH1 0x20 DUP7 ADD DUP3 PUSH2 0x206A JUMP JUMPDEST POP DUP1 SWAP2 POP POP SWAP3 SWAP2 POP POP JUMP JUMPDEST PUSH0 PUSH2 0x20BE DUP4 DUP4 PUSH2 0x2079 JUMP JUMPDEST SWAP1 POP SWAP3 SWAP2 POP POP JUMP JUMPDEST PUSH0 PUSH1 0x20 DUP3 ADD SWAP1 POP SWAP2 SWAP1 POP JUMP JUMPDEST PUSH0 PUSH2 0x20DC DUP3 PUSH2 0x1FC7 JUMP JUMPDEST PUSH2 0x20E6 DUP2 DUP6 PUSH2 0x1FD1 JUMP JUMPDEST SWAP4 POP DUP4 PUSH1 0x20 DUP3 MUL DUP6 ADD PUSH2 0x20F8 DUP6 PUSH2 0x1FE1 JUMP JUMPDEST DUP1 PUSH0 JUMPDEST DUP6 DUP2 LT ISZERO PUSH2 0x2133 JUMPI DUP5 DUP5 SUB DUP10 MSTORE DUP2 MLOAD PUSH2 0x2114 DUP6 DUP3 PUSH2 0x20B3 JUMP JUMPDEST SWAP5 POP PUSH2 0x211F DUP4 PUSH2 0x20C6 JUMP JUMPDEST SWAP3 POP PUSH1 0x20 DUP11 ADD SWAP10 POP POP PUSH1 0x1 DUP2 ADD SWAP1 POP PUSH2 0x20FB JUMP JUMPDEST POP DUP3 SWAP8 POP DUP8 SWAP6 POP POP POP POP POP POP SWAP3 SWAP2 POP POP JUMP JUMPDEST PUSH0 PUSH1 0x20 DUP3 ADD SWAP1 POP DUP2 DUP2 SUB PUSH0 DUP4 ADD MSTORE PUSH2 0x215D DUP2 DUP5 PUSH2 0x20D2 JUMP JUMPDEST SWAP1 POP SWAP3 SWAP2 POP POP JUMP JUMPDEST PUSH0 PUSH8 0xFFFFFFFFFFFFFFFF DUP3 GT ISZERO PUSH2 0x217F JUMPI PUSH2 0x217E PUSH2 0x1CB0 JUMP JUMPDEST JUMPDEST PUSH1 0x20 DUP3 MUL SWAP1 POP PUSH1 0x20 DUP2 ADD SWAP1 POP SWAP2 SWAP1 POP JUMP JUMPDEST PUSH0 DUP1 REVERT JUMPDEST PUSH0 PUSH2 0x21A6 PUSH2 0x21A1 DUP5 PUSH2 0x2165 JUMP JUMPDEST PUSH2 0x1D0E JUMP JUMPDEST SWAP1 POP DUP1 DUP4 DUP3 MSTORE PUSH1 0x20 DUP3 ADD SWAP1 POP PUSH1 0x20 DUP5 MUL DUP4 ADD DUP6 DUP2 GT ISZERO PUSH2 0x21C9 JUMPI PUSH2 0x21C8 PUSH2 0x2190 JUMP JUMPDEST JUMPDEST DUP4 JUMPDEST DUP2 DUP2 LT ISZERO PUSH2 0x21F2 JUMPI DUP1 PUSH2 0x21DE DUP9 DUP3 PUSH2 0x1F38 JUMP JUMPDEST DUP5 MSTORE PUSH1 0x20 DUP5 ADD SWAP4 POP POP PUSH1 0x20 DUP2 ADD SWAP1 POP PUSH2 0x21CB JUMP JUMPDEST POP POP POP SWAP4 SWAP3 POP POP POP JUMP JUMPDEST PUSH0 DUP3 PUSH1 0x1F DUP4 ADD SLT PUSH2 0x2210 JUMPI PUSH2 0x220F PUSH2 0x1C98 JUMP JUMPDEST JUMPDEST DUP2 CALLDATALOAD PUSH2 0x2220 DUP5 DUP3 PUSH1 0x20 DUP7 ADD PUSH2 0x2194 JUMP JUMPDEST SWAP2 POP POP SWAP3 SWAP2 POP POP JUMP JUMPDEST PUSH0 PUSH1 0x20 DUP3 DUP5 SUB SLT ISZERO PUSH2 0x223E JUMPI PUSH2 0x223D PUSH2 0x1C32 JUMP JUMPDEST JUMPDEST PUSH0 DUP3 ADD CALLDATALOAD PUSH8 0xFFFFFFFFFFFFFFFF DUP2 GT ISZERO PUSH2 0x225B JUMPI PUSH2 0x225A PUSH2 0x1C36 JUMP JUMPDEST JUMPDEST PUSH2 0x2267 DUP5 DUP3 DUP6 ADD PUSH2 0x21FC JUMP JUMPDEST SWAP2 POP POP SWAP3 SWAP2 POP POP JUMP JUMPDEST PUSH32 0x4E487B7100000000000000000000000000000000000000000000000000000000 PUSH0 MSTORE PUSH1 0x32 PUSH1 0x4 MSTORE PUSH1 0x24 PUSH0 REVERT JUMPDEST PUSH32 0x4E487B7100000000000000000000000000000000000000000000000000000000 PUSH0 MSTORE PUSH1 0x11 PUSH1 0x4 MSTORE PUSH1 0x24 PUSH0 REVERT JUMPDEST PUSH0 PUSH2 0x22D4 DUP3 PUSH2 0x1C3A JUMP JUMPDEST SWAP2 POP PUSH32 0xFFFFFFFFFFFFFFFFFFFFFFFFFFFFFFFFFFFFFFFFFFFFFFFFFFFFFFFFFFFFFFFF DUP3 SUB PUSH2 0x2306 JUMPI PUSH2 0x2305 PUSH2 0x229D JUMP JUMPDEST JUMPDEST PUSH1 0x1 DUP3 ADD SWAP1 POP SWAP2 SWAP1 POP JUMP JUMPDEST PUSH0 PUSH1 0x40 DUP3 ADD SWAP1 POP PUSH2 0x2324 PUSH0 DUP4 ADD DUP6 PUSH2 0x1F9F JUMP JUMPDEST PUSH2 0x2331 PUSH1 0x20 DUP4 ADD DUP5 PUSH2 0x1F77 JUMP JUMPDEST SWAP4 SWAP3 POP POP POP JUMP JUMPDEST PUSH32 0x4E487B7100000000000000000000000000000000000000000000000000000000 PUSH0 MSTORE PUSH1 0x21 PUSH1 0x4 MSTORE PUSH1 0x24 PUSH0 REVERT JUMPDEST PUSH1 0x6 DUP2 LT PUSH2 0x2376 JUMPI PUSH2 0x2375 PUSH2 0x2338 JUMP JUMPDEST JUMPDEST POP JUMP JUMPDEST PUSH0 DUP2 SWAP1 POP PUSH2 0x2386 DUP3 PUSH2 0x2365 JUMP JUMPDEST SWAP2 SWAP1 POP JUMP JUMPDEST PUSH0 PUSH2 0x2395 DUP3 PUSH2 0x2379 JUMP JUMPDEST SWAP1 POP SWAP2 SWAP1 POP JUMP JUMPDEST PUSH2 0x23A5 DUP2 PUSH2 0x238B JUMP JUMPDEST DUP3 MSTORE POP POP JUMP JUMPDEST PUSH0 PUSH1 0x40 DUP3 ADD SWAP1 POP PUSH2 0x23BE PUSH0 DUP4 ADD DUP6 PUSH2 0x239C JUMP JUMPDEST PUSH2 0x23CB PUSH1 0x20 DUP4 ADD DUP5 PUSH2 0x239C JUMP JUMPDEST SWAP4 SWAP3 POP POP POP JUMP JUMPDEST PUSH32 0x4E487B7100000000000000000000000000000000000000000000000000000000 PUSH0 MSTORE PUSH1 0x22 PUSH1 0x4 MSTORE PUSH1 0x24 PUSH0 REVERT JUMPDEST PUSH0 PUSH1 0x2 DUP3 DIV SWAP1 POP PUSH1 0x1 DUP3 AND DUP1 PUSH2 0x2416 JUMPI PUSH1 0x7F DUP3 AND SWAP2 POP JUMPDEST PUSH1 0x20 DUP3 LT DUP2 SUB PUSH2 0x2429 JUMPI PUSH2 0x2428 PUSH2 0x23D2 JUMP JUMPDEST JUMPDEST POP SWAP2 SWAP1 POP JUMP JUMPDEST PUSH0 DUP2 SWAP1 POP DUP2 PUSH0 MSTORE PUSH1 0x20 PUSH0 KECCAK256 SWAP1 POP SWAP2 SWAP1 POP JUMP JUMPDEST PUSH0 PUSH1 0x20 PUSH1 0x1F DUP4 ADD DIV SWAP1 POP SWAP2 SWAP1 POP JUMP JUMPDEST PUSH0 DUP3 DUP3 SHL SWAP1 POP SWAP3 SWAP2 POP POP JUMP JUMPDEST PUSH0 PUSH1 0x8 DUP4 MUL PUSH2 0x248B PUSH32 0xFFFFFFFFFFFFFFFFFFFFFFFFFFFFFFFFFFFFFFFFFFFFFFFFFFFFFFFFFFFFFFFF DUP3 PUSH2 0x2450 JUMP JUMPDEST PUSH2 0x2495 DUP7 DUP4 PUSH2 0x2450 JUMP JUMPDEST SWAP6 POP DUP1 NOT DUP5 AND SWAP4 POP DUP1 DUP7 AND DUP5 OR SWAP3 POP POP POP SWAP4 SWAP3 POP POP POP JUMP JUMPDEST PUSH0 DUP2 SWAP1 POP SWAP2 SWAP1 POP JUMP JUMPDEST PUSH0 PUSH2 0x24D0 PUSH2 0x24CB PUSH2 0x24C6 DUP5 PUSH2 0x1C3A JUMP JUMPDEST PUSH2 0x24AD JUMP JUMPDEST PUSH2 0x1C3A JUMP JUMPDEST SWAP1 POP SWAP2 SWAP1 POP JUMP JUMPDEST PUSH0 DUP2 SWAP1 POP SWAP2 SWAP1 POP JUMP JUMPDEST PUSH2 0x24E9 DUP4 PUSH2 0x24B6 JUMP JUMPDEST PUSH2 0x24FD PUSH2 0x24F5 DUP3 PUSH2 0x24D7 JUMP JUMPDEST DUP5 DUP5 SLOAD PUSH2 0x245C JUMP JUMPDEST DUP3 SSTORE POP POP POP POP JUMP JUMPDEST PUSH0 SWAP1 JUMP JUMPDEST PUSH2 0x2511 PUSH2 0x2505 JUMP JUMPDEST PUSH2 0x251C DUP2 DUP5 DUP5 PUSH2 0x24E0 JUMP JUMPDEST POP POP POP JUMP JUMPDEST JUMPDEST DUP2 DUP2 LT ISZERO PUSH2 0x253F JUMPI PUSH2 0x2534 PUSH0 DUP3 PUSH2 0x2509 JUMP JUMPDEST PUSH1 0x1 DUP2 ADD SWAP1 POP PUSH2 0x2522 JUMP JUMPDEST POP POP JUMP JUMPDEST PUSH1 0x1F DUP3 GT ISZERO PUSH2 0x2584 JUMPI PUSH2 0x2555 DUP2 PUSH2 0x242F JUMP JUMPDEST PUSH2 0x255E DUP5 PUSH2 0x2441 JUMP JUMPDEST DUP2 ADD PUSH1 0x20 DUP6 LT ISZERO PUSH2 0x256D JUMPI DUP2 SWAP1 POP JUMPDEST PUSH2 0x2581 PUSH2 0x2579 DUP6 PUSH2 0x2441 JUMP JUMPDEST DUP4 ADD DUP3 PUSH2 0x2521 JUMP JUMPDEST POP POP JUMPDEST POP POP POP JUMP JUMPDEST PUSH0 DUP3 DUP3 SHR SWAP1 POP SWAP3 SWAP2 POP POP JUMP JUMPDEST PUSH0 PUSH2 0x25A4 PUSH0 NOT DUP5 PUSH1 0x8 MUL PUSH2 0x2589 JUMP JUMPDEST NOT DUP1 DUP4 AND SWAP2 POP POP SWAP3 SWAP2 POP POP JUMP JUMPDEST PUSH0 PUSH2 0x25BC DUP4 DUP4 PUSH2 0x2595 JUMP JUMPDEST SWAP2 POP DUP3 PUSH1 0x2 MUL DUP3 OR SWAP1 POP SWAP3 SWAP2 POP POP JUMP JUMPDEST PUSH2 0x25D5 DUP3 PUSH2 0x1FF0 JUMP JUMPDEST PUSH8 0xFFFFFFFFFFFFFFFF DUP2 GT ISZERO PUSH2 0x25EE JUMPI PUSH2 0x25ED PUSH2 0x1CB0 JUMP JUMPDEST JUMPDEST PUSH2 0x25F8 DUP3 SLOAD PUSH2 0x23FF JUMP JUMPDEST PUSH2 0x2603 DUP3 DUP3 DUP6 PUSH2 0x2543 JUMP JUMPDEST PUSH0 PUSH1 0x20 SWAP1 POP PUSH1 0x1F DUP4 GT PUSH1 0x1 DUP2 EQ PUSH2 0x2634 JUMPI PUSH0 DUP5 ISZERO PUSH2 0x2622 JUMPI DUP3 DUP8 ADD MLOAD SWAP1 POP JUMPDEST PUSH2 0x262C DUP6 DUP3 PUSH2 0x25B1 JUMP JUMPDEST DUP7 SSTORE POP PUSH2 0x2693 JUMP JUMPDEST PUSH1 0x1F NOT DUP5 AND PUSH2 0x2642 DUP7 PUSH2 0x242F JUMP JUMPDEST PUSH0 JUMPDEST DUP3 DUP2 LT ISZERO PUSH2 0x2669 JUMPI DUP5 DUP10 ADD MLOAD DUP3 SSTORE PUSH1 0x1 DUP3 ADD SWAP2 POP PUSH1 0x20 DUP6 ADD SWAP5 POP PUSH1 0x20 DUP2 ADD SWAP1 POP PUSH2 0x2644 JUMP JUMPDEST DUP7 DUP4 LT ISZERO PUSH2 0x2686 JUMPI DUP5 DUP10 ADD MLOAD PUSH2 0x2682 PUSH1 0x1F DUP10 AND DUP3 PUSH2 0x2595 JUMP JUMPDEST DUP4 SSTORE POP JUMPDEST PUSH1 0x1 PUSH1 0x2 DUP9 MUL ADD DUP9 SSTORE POP POP POP JUMPDEST POP POP POP POP POP POP JUMP JUMPDEST PUSH0 DUP3 DUP3 MSTORE PUSH1 0x20 DUP3 ADD SWAP1 POP SWAP3 SWAP2 POP POP JUMP JUMPDEST PUSH32 0x506C65617365207761697420766F746572732720726567697374726174696F6E PUSH0 DUP3 ADD MSTORE PUSH32 0x20746F20626520636C6F73656400000000000000000000000000000000000000 PUSH1 0x20 DUP3 ADD MSTORE POP JUMP JUMPDEST PUSH0 PUSH2 0x2705 PUSH1 0x2D DUP4 PUSH2 0x269B JUMP JUMPDEST SWAP2 POP PUSH2 0x2710 DUP3 PUSH2 0x26AB JUMP JUMPDEST PUSH1 0x40 DUP3 ADD SWAP1 POP SWAP2 SWAP1 POP JUMP JUMPDEST PUSH0 PUSH1 0x20 DUP3 ADD SWAP1 POP DUP2 DUP2 SUB PUSH0 DUP4 ADD MSTORE PUSH2 0x2732 DUP2 PUSH2 0x26F9 JUMP JUMPDEST SWAP1 POP SWAP2 SWAP1 POP JUMP JUMPDEST PUSH32 0x4F776E61626C653A206E6577206F776E657220697320746865207A65726F2061 PUSH0 DUP3 ADD MSTORE PUSH32 0x6464726573730000000000000000000000000000000000000000000000000000 PUSH1 0x20 DUP3 ADD MSTORE POP JUMP JUMPDEST PUSH0 PUSH2 0x2793 PUSH1 0x26 DUP4 PUSH2 0x269B JUMP JUMPDEST SWAP2 POP PUSH2 0x279E DUP3 PUSH2 0x2739 JUMP JUMPDEST PUSH1 0x40 DUP3 ADD SWAP1 POP SWAP2 SWAP1 POP JUMP JUMPDEST PUSH0 PUSH1 0x20 DUP3 ADD SWAP1 POP DUP2 DUP2 SUB PUSH0 DUP4 ADD MSTORE PUSH2 0x27C0 DUP2 PUSH2 0x2787 JUMP JUMPDEST SWAP1 POP SWAP2 SWAP1 POP JUMP JUMPDEST PUSH32 0x4F776E61626C653A2063616C6C6572206973206E6F7420746865206F776E6572 PUSH0 DUP3 ADD MSTORE POP JUMP JUMPDEST PUSH0 PUSH2 0x27FB PUSH1 0x20 DUP4 PUSH2 0x269B JUMP JUMPDEST SWAP2 POP PUSH2 0x2806 DUP3 PUSH2 0x27C7 JUMP JUMPDEST PUSH1 0x20 DUP3 ADD SWAP1 POP SWAP2 SWAP1 POP JUMP JUMPDEST PUSH0 PUSH1 0x20 DUP3 ADD SWAP1 POP DUP2 DUP2 SUB PUSH0 DUP4 ADD MSTORE PUSH2 0x2828 DUP2 PUSH2 0x27EF JUMP JUMPDEST SWAP1 POP SWAP2 SWAP1 POP JUMP INVALID LOG2 PUSH5 0x6970667358 0x22 SLT KECCAK256 DUP2 0xC8 SDIV 0x29 0xFB 0xD6 0xB7 PUSH23 0x7A82CCBD48AA2EA72F9F0DF8DB14F62A0D26060ED6A162 BALANCE PUSH5 0x736F6C6343 STOP ADDMOD EQ STOP CALLER "
				},
				"gasEstimates": {
					"creation": {
						"codeDepositCost": "2068200",
						"executionCost": "infinite",
						"totalCost": "infinite"
					},
					"external": {
						"endProposalRegistration()": "infinite",
						"endVoteSession()": "infinite",
						"getAllProposals()": "infinite",
						"getAllVoters()": "infinite",
						"getVoteOfVoter(address)": "infinite",
						"getWinner()": "infinite",
						"owner()": "2538",
						"registerProposal(string)": "infinite",
						"registerVoter(address)": "infinite",
						"registerVoters(address[])": "infinite",
						"renounceOwnership()": "30501",
						"resetProposals()": "infinite",
						"resetSession()": "infinite",
						"resetVotes()": "infinite",
						"startProposalRegistration()": "infinite",
						"startVoteSession()": "infinite",
						"tallyVotes()": "infinite",
						"transferOwnership(address)": "30797",
						"vote(uint256)": "infinite"
					},
					"internal": {
						"_resetProposals()": "infinite",
						"_resetVoters()": "infinite",
						"_resetVotes()": "infinite",
						"_wrongPhase(enum WorkflowStatus)": "infinite"
					}
				},
				"methodIdentifiers": {
					"endProposalRegistration()": "e85a8f2a",
					"endVoteSession()": "f74c168d",
					"getAllProposals()": "cceb68f5",
					"getAllVoters()": "35bbe70e",
					"getVoteOfVoter(address)": "6edb2860",
					"getWinner()": "8e7ea5b2",
					"owner()": "8da5cb5b",
					"registerProposal(string)": "2f95355b",
					"registerVoter(address)": "38db6dd3",
					"registerVoters(address[])": "d55ec9c1",
					"renounceOwnership()": "715018a6",
					"resetProposals()": "0b9bc2a0",
					"resetSession()": "f8a3ce82",
					"resetVotes()": "b9830ff1",
					"startProposalRegistration()": "0f7e2838",
					"startVoteSession()": "aaa98346",
					"tallyVotes()": "378a2178",
					"transferOwnership(address)": "f2fde38b",
					"vote(uint256)": "0121b93f"
				}
			},
			"storageLayout": {
				"storage": [
					{
						"astId": 7,
						"contract": "Voting.sol:Voting",
						"label": "_owner",
						"offset": 0,
						"slot": "0",
						"type": "t_address"
					},
					{
						"astId": 231,
						"contract": "Voting.sol:Voting",
						"label": "session",
						"offset": 0,
						"slot": "1",
						"type": "t_struct(Session)228_storage"
					}
				],
				"types": {
					"t_address": {
						"encoding": "inplace",
						"label": "address",
						"numberOfBytes": "20"
					},
					"t_array(t_address)dyn_storage": {
						"base": "t_address",
						"encoding": "dynamic_array",
						"label": "address[]",
						"numberOfBytes": "32"
					},
					"t_array(t_struct(Proposal)210_storage)dyn_storage": {
						"base": "t_struct(Proposal)210_storage",
						"encoding": "dynamic_array",
						"label": "struct Voting.Proposal[]",
						"numberOfBytes": "32"
					},
					"t_bool": {
						"encoding": "inplace",
						"label": "bool",
						"numberOfBytes": "1"
					},
					"t_enum(WorkflowStatus)144": {
						"encoding": "inplace",
						"label": "enum WorkflowStatus",
						"numberOfBytes": "1"
					},
					"t_mapping(t_address,t_struct(Voter)205_storage)": {
						"encoding": "mapping",
						"key": "t_address",
						"label": "mapping(address => struct Voting.Voter)",
						"numberOfBytes": "32",
						"value": "t_struct(Voter)205_storage"
					},
					"t_string_storage": {
						"encoding": "bytes",
						"label": "string",
						"numberOfBytes": "32"
					},
					"t_struct(Proposal)210_storage": {
						"encoding": "inplace",
						"label": "struct Voting.Proposal",
						"members": [
							{
								"astId": 207,
								"contract": "Voting.sol:Voting",
								"label": "description",
								"offset": 0,
								"slot": "0",
								"type": "t_string_storage"
							},
							{
								"astId": 209,
								"contract": "Voting.sol:Voting",
								"label": "voteCount",
								"offset": 0,
								"slot": "1",
								"type": "t_uint256"
							}
						],
						"numberOfBytes": "64"
					},
					"t_struct(Session)228_storage": {
						"encoding": "inplace",
						"label": "struct Voting.Session",
						"members": [
							{
								"astId": 213,
								"contract": "Voting.sol:Voting",
								"label": "status",
								"offset": 0,
								"slot": "0",
								"type": "t_enum(WorkflowStatus)144"
							},
							{
								"astId": 218,
								"contract": "Voting.sol:Voting",
								"label": "voters",
								"offset": 0,
								"slot": "1",
								"type": "t_mapping(t_address,t_struct(Voter)205_storage)"
							},
							{
								"astId": 221,
								"contract": "Voting.sol:Voting",
								"label": "idxVoters",
								"offset": 0,
								"slot": "2",
								"type": "t_array(t_address)dyn_storage"
							},
							{
								"astId": 225,
								"contract": "Voting.sol:Voting",
								"label": "proposals",
								"offset": 0,
								"slot": "3",
								"type": "t_array(t_struct(Proposal)210_storage)dyn_storage"
							},
							{
								"astId": 227,
								"contract": "Voting.sol:Voting",
								"label": "winningProposalId",
								"offset": 0,
								"slot": "4",
								"type": "t_uint256"
							}
						],
						"numberOfBytes": "160"
					},
					"t_struct(Voter)205_storage": {
						"encoding": "inplace",
						"label": "struct Voting.Voter",
						"members": [
							{
								"astId": 200,
								"contract": "Voting.sol:Voting",
								"label": "isRegistered",
								"offset": 0,
								"slot": "0",
								"type": "t_bool"
							},
							{
								"astId": 202,
								"contract": "Voting.sol:Voting",
								"label": "hasVoted",
								"offset": 1,
								"slot": "0",
								"type": "t_bool"
							},
							{
								"astId": 204,
								"contract": "Voting.sol:Voting",
								"label": "votedProposalId",
								"offset": 0,
								"slot": "1",
								"type": "t_uint256"
							}
						],
						"numberOfBytes": "64"
					},
					"t_uint256": {
						"encoding": "inplace",
						"label": "uint256",
						"numberOfBytes": "32"
					}
				}
			},
			"userdoc": {
				"kind": "user",
				"methods": {},
				"version": 1
			}
		}
	}
}