{
	"Voting.sol": {
		"Voting": {
			"abi": [
				{
					"inputs": [],
					"stateMutability": "nonpayable",
					"type": "constructor"
				},
				{
					"inputs": [
						{
							"internalType": "address",
							"name": "invalidVoter",
							"type": "address"
						}
					],
					"name": "AlreadyRegisterVoter",
					"type": "error"
				},
				{
					"inputs": [
						{
							"internalType": "address",
							"name": "invalidVote",
							"type": "address"
						}
					],
					"name": "AlreadyVoted",
					"type": "error"
				},
				{
					"inputs": [
						{
							"internalType": "address",
							"name": "invalidVoter",
							"type": "address"
						}
					],
					"name": "UnRegisteredVoter",
					"type": "error"
				},
				{
					"inputs": [
						{
							"internalType": "enum WorkflowStatus",
							"name": "requiredStatus",
							"type": "uint8"
						},
						{
							"internalType": "enum WorkflowStatus",
							"name": "status",
							"type": "uint8"
						}
					],
					"name": "WrongPhaseStatus",
					"type": "error"
				},
				{
					"inputs": [
						{
							"internalType": "uint256",
							"name": "invalidProposal",
							"type": "uint256"
						}
					],
					"name": "WrongProposal",
					"type": "error"
				},
				{
					"anonymous": false,
					"inputs": [
						{
							"indexed": true,
							"internalType": "address",
							"name": "previousOwner",
							"type": "address"
						},
						{
							"indexed": true,
							"internalType": "address",
							"name": "newOwner",
							"type": "address"
						}
					],
					"name": "OwnershipTransferred",
					"type": "event"
				},
				{
					"anonymous": false,
					"inputs": [
						{
							"indexed": false,
							"internalType": "uint256",
							"name": "proposalId",
							"type": "uint256"
						}
					],
					"name": "ProposalRegistered",
					"type": "event"
				},
				{
					"anonymous": false,
					"inputs": [
						{
							"indexed": false,
							"internalType": "address",
							"name": "voter",
							"type": "address"
						},
						{
							"indexed": false,
							"internalType": "uint256",
							"name": "proposalId",
							"type": "uint256"
						}
					],
					"name": "Voted",
					"type": "event"
				},
				{
					"anonymous": false,
					"inputs": [
						{
							"indexed": false,
							"internalType": "address",
							"name": "voterAddress",
							"type": "address"
						}
					],
					"name": "VoterRegistered",
					"type": "event"
				},
				{
					"anonymous": false,
					"inputs": [
						{
							"indexed": false,
							"internalType": "enum WorkflowStatus",
							"name": "previousStatus",
							"type": "uint8"
						},
						{
							"indexed": false,
							"internalType": "enum WorkflowStatus",
							"name": "newStatus",
							"type": "uint8"
						}
					],
					"name": "WorkflowStatusChange",
					"type": "event"
				},
				{
					"inputs": [],
					"name": "endProposalRegistration",
					"outputs": [],
					"stateMutability": "nonpayable",
					"type": "function"
				},
				{
					"inputs": [],
					"name": "endVoteSession",
					"outputs": [],
					"stateMutability": "nonpayable",
					"type": "function"
				},
				{
					"inputs": [],
					"name": "getVoteDetails",
					"outputs": [
						{
							"components": [
								{
									"internalType": "string",
									"name": "description",
									"type": "string"
								},
								{
									"internalType": "uint256",
									"name": "voteCount",
									"type": "uint256"
								}
							],
							"internalType": "struct Voting.Proposal[]",
							"name": "",
							"type": "tuple[]"
						}
					],
					"stateMutability": "view",
					"type": "function"
				},
				{
					"inputs": [],
					"name": "getWinner",
					"outputs": [
						{
							"internalType": "address",
							"name": "",
							"type": "address"
						}
					],
					"stateMutability": "view",
					"type": "function"
				},
				{
					"inputs": [],
					"name": "owner",
					"outputs": [
						{
							"internalType": "address",
							"name": "",
							"type": "address"
						}
					],
					"stateMutability": "view",
					"type": "function"
				},
				{
					"inputs": [
						{
							"internalType": "string",
							"name": "description",
							"type": "string"
						}
					],
					"name": "registerProposal",
					"outputs": [],
					"stateMutability": "nonpayable",
					"type": "function"
				},
				{
					"inputs": [
						{
							"internalType": "address",
							"name": "_voter",
							"type": "address"
						}
					],
					"name": "registerVoter",
					"outputs": [],
					"stateMutability": "nonpayable",
					"type": "function"
				},
				{
					"inputs": [
						{
							"internalType": "address[]",
							"name": "_voters",
							"type": "address[]"
						}
					],
					"name": "registerVoters",
					"outputs": [],
					"stateMutability": "nonpayable",
					"type": "function"
				},
				{
					"inputs": [],
					"name": "renounceOwnership",
					"outputs": [],
					"stateMutability": "nonpayable",
					"type": "function"
				},
				{
					"inputs": [],
					"name": "resetProposal",
					"outputs": [],
					"stateMutability": "nonpayable",
					"type": "function"
				},
				{
					"inputs": [],
					"name": "resetSession",
					"outputs": [],
					"stateMutability": "nonpayable",
					"type": "function"
				},
				{
					"inputs": [],
					"name": "resetVote",
					"outputs": [],
					"stateMutability": "nonpayable",
					"type": "function"
				},
				{
					"inputs": [],
					"name": "resetVoters",
					"outputs": [],
					"stateMutability": "nonpayable",
					"type": "function"
				},
				{
					"inputs": [],
					"name": "startProposalRegistration",
					"outputs": [],
					"stateMutability": "nonpayable",
					"type": "function"
				},
				{
					"inputs": [],
					"name": "startVoteSession",
					"outputs": [],
					"stateMutability": "nonpayable",
					"type": "function"
				},
				{
					"inputs": [],
					"name": "tallyVotes",
					"outputs": [],
					"stateMutability": "nonpayable",
					"type": "function"
				},
				{
					"inputs": [
						{
							"internalType": "address",
							"name": "newOwner",
							"type": "address"
						}
					],
					"name": "transferOwnership",
					"outputs": [],
					"stateMutability": "nonpayable",
					"type": "function"
				},
				{
					"inputs": [
						{
							"internalType": "uint256",
							"name": "proposalId",
							"type": "uint256"
						}
					],
					"name": "vote",
					"outputs": [],
					"stateMutability": "nonpayable",
					"type": "function"
				}
			],
			"devdoc": {
				"kind": "dev",
				"methods": {
					"owner()": {
						"details": "Returns the address of the current owner."
					},
					"renounceOwnership()": {
						"details": "Leaves the contract without owner. It will not be possible to call `onlyOwner` functions. Can only be called by the current owner. NOTE: Renouncing ownership will leave the contract without an owner, thereby disabling any functionality that is only available to the owner."
					},
					"transferOwnership(address)": {
						"details": "Transfers ownership of the contract to a new account (`newOwner`). Can only be called by the current owner."
					}
				},
				"version": 1
			},
			"evm": {
				"assembly": "    /* \"Voting.sol\":560:5965  contract Voting is Ownable {... */\n  mstore(0x40, 0x80)\n    /* \"Voting.sol\":1309:1354  constructor() {... */\n  callvalue\n  dup1\n  iszero\n  tag_1\n  jumpi\n  0x00\n  dup1\n  revert\ntag_1:\n  pop\n    /* \"@openzeppelin/contracts/access/Ownable.sol\":936:968  _transferOwnership(_msgSender()) */\n  tag_5\n    /* \"@openzeppelin/contracts/access/Ownable.sol\":955:967  _msgSender() */\n  tag_6\n    /* \"@openzeppelin/contracts/access/Ownable.sol\":955:965  _msgSender */\n  shl(0x20, tag_7)\n    /* \"@openzeppelin/contracts/access/Ownable.sol\":955:967  _msgSender() */\n  0x20\n  shr\n  jump\t// in\ntag_6:\n    /* \"@openzeppelin/contracts/access/Ownable.sol\":936:954  _transferOwnership */\n  shl(0x20, tag_8)\n    /* \"@openzeppelin/contracts/access/Ownable.sol\":936:968  _transferOwnership(_msgSender()) */\n  0x20\n  shr\n  jump\t// in\ntag_5:\n    /* \"Voting.sol\":1333:1347  _resetVoting() */\n  tag_10\n    /* \"Voting.sol\":1333:1345  _resetVoting */\n  shl(0x20, tag_11)\n    /* \"Voting.sol\":1333:1347  _resetVoting() */\n  0x20\n  shr\n  jump\t// in\ntag_10:\n    /* \"Voting.sol\":560:5965  contract Voting is Ownable {... */\n  jump(tag_12)\n    /* \"@openzeppelin/contracts/utils/Context.sol\":640:736  function _msgSender() internal view virtual returns (address) {... */\ntag_7:\n    /* \"@openzeppelin/contracts/utils/Context.sol\":693:700  address */\n  0x00\n    /* \"@openzeppelin/contracts/utils/Context.sol\":719:729  msg.sender */\n  caller\n    /* \"@openzeppelin/contracts/utils/Context.sol\":712:729  return msg.sender */\n  swap1\n  pop\n    /* \"@openzeppelin/contracts/utils/Context.sol\":640:736  function _msgSender() internal view virtual returns (address) {... */\n  swap1\n  jump\t// out\n    /* \"@openzeppelin/contracts/access/Ownable.sol\":2426:2613  function _transferOwnership(address newOwner) internal virtual {... */\ntag_8:\n    /* \"@openzeppelin/contracts/access/Ownable.sol\":2499:2515  address oldOwner */\n  0x00\n    /* \"@openzeppelin/contracts/access/Ownable.sol\":2518:2524  _owner */\n  dup1\n  0x00\n  swap1\n  sload\n  swap1\n  0x0100\n  exp\n  swap1\n  div\n  0xffffffffffffffffffffffffffffffffffffffff\n  and\n    /* \"@openzeppelin/contracts/access/Ownable.sol\":2499:2524  address oldOwner = _owner */\n  swap1\n  pop\n    /* \"@openzeppelin/contracts/access/Ownable.sol\":2543:2551  newOwner */\n  dup2\n    /* \"@openzeppelin/contracts/access/Ownable.sol\":2534:2540  _owner */\n  0x00\n  dup1\n    /* \"@openzeppelin/contracts/access/Ownable.sol\":2534:2551  _owner = newOwner */\n  0x0100\n  exp\n  dup2\n  sload\n  dup2\n  0xffffffffffffffffffffffffffffffffffffffff\n  mul\n  not\n  and\n  swap1\n  dup4\n  0xffffffffffffffffffffffffffffffffffffffff\n  and\n  mul\n  or\n  swap1\n  sstore\n  pop\n    /* \"@openzeppelin/contracts/access/Ownable.sol\":2597:2605  newOwner */\n  dup2\n    /* \"@openzeppelin/contracts/access/Ownable.sol\":2566:2606  OwnershipTransferred(oldOwner, newOwner) */\n  0xffffffffffffffffffffffffffffffffffffffff\n  and\n    /* \"@openzeppelin/contracts/access/Ownable.sol\":2587:2595  oldOwner */\n  dup2\n    /* \"@openzeppelin/contracts/access/Ownable.sol\":2566:2606  OwnershipTransferred(oldOwner, newOwner) */\n  0xffffffffffffffffffffffffffffffffffffffff\n  and\n  0x8be0079c531659141344cd1fd0a4f28419497f9722a3daafe3b4186f6b6457e0\n  mload(0x40)\n  mload(0x40)\n  dup1\n  swap2\n  sub\n  swap1\n  log3\n    /* \"@openzeppelin/contracts/access/Ownable.sol\":2489:2613  {... */\n  pop\n    /* \"@openzeppelin/contracts/access/Ownable.sol\":2426:2613  function _transferOwnership(address newOwner) internal virtual {... */\n  pop\n  jump\t// out\n    /* \"Voting.sol\":1360:1497  function _resetVoting() private onlyOwner {... */\ntag_11:\n    /* \"@openzeppelin/contracts/access/Ownable.sol\":1094:1107  _checkOwner() */\n  tag_16\n    /* \"@openzeppelin/contracts/access/Ownable.sol\":1094:1105  _checkOwner */\n  shl(0x20, tag_17)\n    /* \"@openzeppelin/contracts/access/Ownable.sol\":1094:1107  _checkOwner() */\n  0x20\n  shr\n  jump\t// in\ntag_16:\n    /* \"Voting.sol\":1429:1461  WorkflowStatus.RegisteringVoters */\n  0x00\n    /* \"Voting.sol\":1412:1419  session */\n  0x01\n    /* \"Voting.sol\":1412:1426  session.status */\n  0x00\n  add\n  0x00\n    /* \"Voting.sol\":1412:1461  session.status = WorkflowStatus.RegisteringVoters */\n  0x0100\n  exp\n  dup2\n  sload\n  dup2\n  0xff\n  mul\n  not\n  and\n  swap1\n  dup4\n  0x05\n  dup2\n  gt\n  iszero\n  tag_19\n  jumpi\n  tag_20\n  tag_21\n  jump\t// in\ntag_20:\ntag_19:\n  mul\n  or\n  swap1\n  sstore\n  pop\n    /* \"Voting.sol\":1471:1486  resetProposal() */\n  tag_22\n    /* \"Voting.sol\":1471:1484  resetProposal */\n  shl(0x20, tag_23)\n    /* \"Voting.sol\":1471:1486  resetProposal() */\n  0x20\n  shr\n  jump\t// in\ntag_22:\n    /* \"Voting.sol\":1360:1497  function _resetVoting() private onlyOwner {... */\n  jump\t// out\n    /* \"@openzeppelin/contracts/access/Ownable.sol\":1359:1489  function _checkOwner() internal view virtual {... */\ntag_17:\n    /* \"@openzeppelin/contracts/access/Ownable.sol\":1433:1445  _msgSender() */\n  tag_25\n    /* \"@openzeppelin/contracts/access/Ownable.sol\":1433:1443  _msgSender */\n  shl(0x20, tag_7)\n    /* \"@openzeppelin/contracts/access/Ownable.sol\":1433:1445  _msgSender() */\n  0x20\n  shr\n  jump\t// in\ntag_25:\n    /* \"@openzeppelin/contracts/access/Ownable.sol\":1422:1445  owner() == _msgSender() */\n  0xffffffffffffffffffffffffffffffffffffffff\n  and\n    /* \"@openzeppelin/contracts/access/Ownable.sol\":1422:1429  owner() */\n  tag_26\n    /* \"@openzeppelin/contracts/access/Ownable.sol\":1422:1427  owner */\n  shl(0x20, tag_27)\n    /* \"@openzeppelin/contracts/access/Ownable.sol\":1422:1429  owner() */\n  0x20\n  shr\n  jump\t// in\ntag_26:\n    /* \"@openzeppelin/contracts/access/Ownable.sol\":1422:1445  owner() == _msgSender() */\n  0xffffffffffffffffffffffffffffffffffffffff\n  and\n  eq\n    /* \"@openzeppelin/contracts/access/Ownable.sol\":1414:1482  require(owner() == _msgSender(), \"Ownable: caller is not the owner\") */\n  tag_28\n  jumpi\n  mload(0x40)\n  0x08c379a000000000000000000000000000000000000000000000000000000000\n  dup2\n  mstore\n  0x04\n  add\n  tag_29\n  swap1\n  tag_30\n  jump\t// in\ntag_29:\n  mload(0x40)\n  dup1\n  swap2\n  sub\n  swap1\n  revert\ntag_28:\n    /* \"@openzeppelin/contracts/access/Ownable.sol\":1359:1489  function _checkOwner() internal view virtual {... */\n  jump\t// out\n    /* \"Voting.sol\":5879:5962  function resetProposal() public onlyOwner {... */\ntag_23:\n    /* \"@openzeppelin/contracts/access/Ownable.sol\":1094:1107  _checkOwner() */\n  tag_32\n    /* \"@openzeppelin/contracts/access/Ownable.sol\":1094:1105  _checkOwner */\n  shl(0x20, tag_17)\n    /* \"@openzeppelin/contracts/access/Ownable.sol\":1094:1107  _checkOwner() */\n  0x20\n  shr\n  jump\t// in\ntag_32:\n    /* \"Voting.sol\":5938:5945  session */\n  0x01\n    /* \"Voting.sol\":5938:5955  session.proposals */\n  0x03\n  add\n  0x00\n    /* \"Voting.sol\":5931:5955  delete session.proposals */\n  tag_34\n  swap2\n  swap1\n  tag_35\n  jump\t// in\ntag_34:\n    /* \"Voting.sol\":5879:5962  function resetProposal() public onlyOwner {... */\n  jump\t// out\n    /* \"@openzeppelin/contracts/access/Ownable.sol\":1201:1286  function owner() public view virtual returns (address) {... */\ntag_27:\n    /* \"@openzeppelin/contracts/access/Ownable.sol\":1247:1254  address */\n  0x00\n    /* \"@openzeppelin/contracts/access/Ownable.sol\":1273:1279  _owner */\n  dup1\n  0x00\n  swap1\n  sload\n  swap1\n  0x0100\n  exp\n  swap1\n  div\n  0xffffffffffffffffffffffffffffffffffffffff\n  and\n    /* \"@openzeppelin/contracts/access/Ownable.sol\":1266:1279  return _owner */\n  swap1\n  pop\n    /* \"@openzeppelin/contracts/access/Ownable.sol\":1201:1286  function owner() public view virtual returns (address) {... */\n  swap1\n  jump\t// out\n    /* \"Voting.sol\":560:5965  contract Voting is Ownable {... */\ntag_35:\n  pop\n  dup1\n  sload\n  0x00\n  dup3\n  sstore\n  0x02\n  mul\n  swap1\n  0x00\n  mstore\n  keccak256(0x00, 0x20)\n  swap1\n  dup2\n  add\n  swap1\n  tag_38\n  swap2\n  swap1\n  tag_39\n  jump\t// in\ntag_38:\n  pop\n  jump\t// out\ntag_39:\ntag_40:\n  dup1\n  dup3\n  gt\n  iszero\n  tag_41\n  jumpi\n  0x00\n  dup1\n  dup3\n  add\n  0x00\n  tag_42\n  swap2\n  swap1\n  tag_43\n  jump\t// in\ntag_42:\n  0x01\n  dup3\n  add\n  0x00\n  swap1\n  sstore\n  pop\n  0x02\n  add\n  jump(tag_40)\ntag_41:\n  pop\n  swap1\n  jump\t// out\ntag_43:\n  pop\n  dup1\n  sload\n  tag_44\n  swap1\n  tag_45\n  jump\t// in\ntag_44:\n  0x00\n  dup3\n  sstore\n  dup1\n  0x1f\n  lt\n  tag_47\n  jumpi\n  pop\n  jump(tag_46)\ntag_47:\n  0x1f\n  add\n  0x20\n  swap1\n  div\n  swap1\n  0x00\n  mstore\n  keccak256(0x00, 0x20)\n  swap1\n  dup2\n  add\n  swap1\n  tag_48\n  swap2\n  swap1\n  tag_49\n  jump\t// in\ntag_48:\ntag_46:\n  pop\n  jump\t// out\ntag_49:\ntag_50:\n  dup1\n  dup3\n  gt\n  iszero\n  tag_51\n  jumpi\n  0x00\n  dup2\n  0x00\n  swap1\n  sstore\n  pop\n  0x01\n  add\n  jump(tag_50)\ntag_51:\n  pop\n  swap1\n  jump\t// out\n    /* \"#utility.yul\":7:187   */\ntag_21:\n    /* \"#utility.yul\":55:132   */\n  0x4e487b7100000000000000000000000000000000000000000000000000000000\n    /* \"#utility.yul\":52:53   */\n  0x00\n    /* \"#utility.yul\":45:133   */\n  mstore\n    /* \"#utility.yul\":152:156   */\n  0x21\n    /* \"#utility.yul\":149:150   */\n  0x04\n    /* \"#utility.yul\":142:157   */\n  mstore\n    /* \"#utility.yul\":176:180   */\n  0x24\n    /* \"#utility.yul\":173:174   */\n  0x00\n    /* \"#utility.yul\":166:181   */\n  revert\n    /* \"#utility.yul\":193:362   */\ntag_52:\n    /* \"#utility.yul\":277:288   */\n  0x00\n    /* \"#utility.yul\":311:317   */\n  dup3\n    /* \"#utility.yul\":306:309   */\n  dup3\n    /* \"#utility.yul\":299:318   */\n  mstore\n    /* \"#utility.yul\":351:355   */\n  0x20\n    /* \"#utility.yul\":346:349   */\n  dup3\n    /* \"#utility.yul\":342:356   */\n  add\n    /* \"#utility.yul\":327:356   */\n  swap1\n  pop\n    /* \"#utility.yul\":193:362   */\n  swap3\n  swap2\n  pop\n  pop\n  jump\t// out\n    /* \"#utility.yul\":368:550   */\ntag_53:\n    /* \"#utility.yul\":508:542   */\n  0x4f776e61626c653a2063616c6c6572206973206e6f7420746865206f776e6572\n    /* \"#utility.yul\":504:505   */\n  0x00\n    /* \"#utility.yul\":496:502   */\n  dup3\n    /* \"#utility.yul\":492:506   */\n  add\n    /* \"#utility.yul\":485:543   */\n  mstore\n    /* \"#utility.yul\":368:550   */\n  pop\n  jump\t// out\n    /* \"#utility.yul\":556:922   */\ntag_54:\n    /* \"#utility.yul\":698:701   */\n  0x00\n    /* \"#utility.yul\":719:786   */\n  tag_61\n    /* \"#utility.yul\":783:785   */\n  0x20\n    /* \"#utility.yul\":778:781   */\n  dup4\n    /* \"#utility.yul\":719:786   */\n  tag_52\n  jump\t// in\ntag_61:\n    /* \"#utility.yul\":712:786   */\n  swap2\n  pop\n    /* \"#utility.yul\":795:888   */\n  tag_62\n    /* \"#utility.yul\":884:887   */\n  dup3\n    /* \"#utility.yul\":795:888   */\n  tag_53\n  jump\t// in\ntag_62:\n    /* \"#utility.yul\":913:915   */\n  0x20\n    /* \"#utility.yul\":908:911   */\n  dup3\n    /* \"#utility.yul\":904:916   */\n  add\n    /* \"#utility.yul\":897:916   */\n  swap1\n  pop\n    /* \"#utility.yul\":556:922   */\n  swap2\n  swap1\n  pop\n  jump\t// out\n    /* \"#utility.yul\":928:1347   */\ntag_30:\n    /* \"#utility.yul\":1094:1098   */\n  0x00\n    /* \"#utility.yul\":1132:1134   */\n  0x20\n    /* \"#utility.yul\":1121:1130   */\n  dup3\n    /* \"#utility.yul\":1117:1135   */\n  add\n    /* \"#utility.yul\":1109:1135   */\n  swap1\n  pop\n    /* \"#utility.yul\":1181:1190   */\n  dup2\n    /* \"#utility.yul\":1175:1179   */\n  dup2\n    /* \"#utility.yul\":1171:1191   */\n  sub\n    /* \"#utility.yul\":1167:1168   */\n  0x00\n    /* \"#utility.yul\":1156:1165   */\n  dup4\n    /* \"#utility.yul\":1152:1169   */\n  add\n    /* \"#utility.yul\":1145:1192   */\n  mstore\n    /* \"#utility.yul\":1209:1340   */\n  tag_64\n    /* \"#utility.yul\":1335:1339   */\n  dup2\n    /* \"#utility.yul\":1209:1340   */\n  tag_54\n  jump\t// in\ntag_64:\n    /* \"#utility.yul\":1201:1340   */\n  swap1\n  pop\n    /* \"#utility.yul\":928:1347   */\n  swap2\n  swap1\n  pop\n  jump\t// out\n    /* \"#utility.yul\":1353:1533   */\ntag_55:\n    /* \"#utility.yul\":1401:1478   */\n  0x4e487b7100000000000000000000000000000000000000000000000000000000\n    /* \"#utility.yul\":1398:1399   */\n  0x00\n    /* \"#utility.yul\":1391:1479   */\n  mstore\n    /* \"#utility.yul\":1498:1502   */\n  0x22\n    /* \"#utility.yul\":1495:1496   */\n  0x04\n    /* \"#utility.yul\":1488:1503   */\n  mstore\n    /* \"#utility.yul\":1522:1526   */\n  0x24\n    /* \"#utility.yul\":1519:1520   */\n  0x00\n    /* \"#utility.yul\":1512:1527   */\n  revert\n    /* \"#utility.yul\":1539:1859   */\ntag_45:\n    /* \"#utility.yul\":1583:1589   */\n  0x00\n    /* \"#utility.yul\":1620:1621   */\n  0x02\n    /* \"#utility.yul\":1614:1618   */\n  dup3\n    /* \"#utility.yul\":1610:1622   */\n  div\n    /* \"#utility.yul\":1600:1622   */\n  swap1\n  pop\n    /* \"#utility.yul\":1667:1668   */\n  0x01\n    /* \"#utility.yul\":1661:1665   */\n  dup3\n    /* \"#utility.yul\":1657:1669   */\n  and\n    /* \"#utility.yul\":1688:1706   */\n  dup1\n    /* \"#utility.yul\":1678:1759   */\n  tag_67\n  jumpi\n    /* \"#utility.yul\":1744:1748   */\n  0x7f\n    /* \"#utility.yul\":1736:1742   */\n  dup3\n    /* \"#utility.yul\":1732:1749   */\n  and\n    /* \"#utility.yul\":1722:1749   */\n  swap2\n  pop\n    /* \"#utility.yul\":1678:1759   */\ntag_67:\n    /* \"#utility.yul\":1806:1808   */\n  0x20\n    /* \"#utility.yul\":1798:1804   */\n  dup3\n    /* \"#utility.yul\":1795:1809   */\n  lt\n    /* \"#utility.yul\":1775:1793   */\n  dup2\n    /* \"#utility.yul\":1772:1810   */\n  sub\n    /* \"#utility.yul\":1769:1853   */\n  tag_68\n  jumpi\n    /* \"#utility.yul\":1825:1843   */\n  tag_69\n  tag_55\n  jump\t// in\ntag_69:\n    /* \"#utility.yul\":1769:1853   */\ntag_68:\n    /* \"#utility.yul\":1590:1859   */\n  pop\n    /* \"#utility.yul\":1539:1859   */\n  swap2\n  swap1\n  pop\n  jump\t// out\n    /* \"Voting.sol\":560:5965  contract Voting is Ownable {... */\ntag_12:\n  dataSize(sub_0)\n  dup1\n  dataOffset(sub_0)\n  0x00\n  codecopy\n  0x00\n  return\nstop\n\nsub_0: assembly {\n        /* \"Voting.sol\":560:5965  contract Voting is Ownable {... */\n      mstore(0x40, 0x80)\n      callvalue\n      dup1\n      iszero\n      tag_1\n      jumpi\n      0x00\n      dup1\n      revert\n    tag_1:\n      pop\n      jumpi(tag_2, lt(calldatasize, 0x04))\n      shr(0xe0, calldataload(0x00))\n      dup1\n      0x715018a6\n      gt\n      tag_21\n      jumpi\n      dup1\n      0xd55ec9c1\n      gt\n      tag_22\n      jumpi\n      dup1\n      0xd55ec9c1\n      eq\n      tag_16\n      jumpi\n      dup1\n      0xe85a8f2a\n      eq\n      tag_17\n      jumpi\n      dup1\n      0xf2fde38b\n      eq\n      tag_18\n      jumpi\n      dup1\n      0xf74c168d\n      eq\n      tag_19\n      jumpi\n      dup1\n      0xf8a3ce82\n      eq\n      tag_20\n      jumpi\n      jump(tag_2)\n    tag_22:\n      dup1\n      0x715018a6\n      eq\n      tag_12\n      jumpi\n      dup1\n      0x8da5cb5b\n      eq\n      tag_13\n      jumpi\n      dup1\n      0x8e7ea5b2\n      eq\n      tag_14\n      jumpi\n      dup1\n      0xaaa98346\n      eq\n      tag_15\n      jumpi\n      jump(tag_2)\n    tag_21:\n      dup1\n      0x329a8cfa\n      gt\n      tag_23\n      jumpi\n      dup1\n      0x329a8cfa\n      eq\n      tag_7\n      jumpi\n      dup1\n      0x378a2178\n      eq\n      tag_8\n      jumpi\n      dup1\n      0x38db6dd3\n      eq\n      tag_9\n      jumpi\n      dup1\n      0x4a2f00c7\n      eq\n      tag_10\n      jumpi\n      dup1\n      0x553bd397\n      eq\n      tag_11\n      jumpi\n      jump(tag_2)\n    tag_23:\n      dup1\n      0x0121b93f\n      eq\n      tag_3\n      jumpi\n      dup1\n      0x0f7e2838\n      eq\n      tag_4\n      jumpi\n      dup1\n      0x134c39cc\n      eq\n      tag_5\n      jumpi\n      dup1\n      0x2f95355b\n      eq\n      tag_6\n      jumpi\n    tag_2:\n      0x00\n      dup1\n      revert\n        /* \"Voting.sol\":4488:4972  function vote(uint proposalId) external onlyVoters {... */\n    tag_3:\n      tag_24\n      0x04\n      dup1\n      calldatasize\n      sub\n      dup2\n      add\n      swap1\n      tag_25\n      swap2\n      swap1\n      tag_26\n      jump\t// in\n    tag_25:\n      tag_27\n      jump\t// in\n    tag_24:\n      stop\n        /* \"Voting.sol\":3142:3402  function startProposalRegistration() external onlyOwner registerVoterActive {... */\n    tag_4:\n      tag_28\n      tag_29\n      jump\t// in\n    tag_28:\n      stop\n        /* \"Voting.sol\":5334:5443  function getVoteDetails() external view returns (Proposal[] memory) {... */\n    tag_5:\n      tag_30\n      tag_31\n      jump\t// in\n    tag_30:\n      mload(0x40)\n      tag_32\n      swap2\n      swap1\n      tag_33\n      jump\t// in\n    tag_32:\n      mload(0x40)\n      dup1\n      swap2\n      sub\n      swap1\n      return\n        /* \"Voting.sol\":3673:3966  function registerProposal(string memory description) external onlyVoters registerProposalActive { ... */\n    tag_6:\n      tag_34\n      0x04\n      dup1\n      calldatasize\n      sub\n      dup2\n      add\n      swap1\n      tag_35\n      swap2\n      swap1\n      tag_36\n      jump\t// in\n    tag_35:\n      tag_37\n      jump\t// in\n    tag_34:\n      stop\n        /* \"Voting.sol\":5825:5873  function resetVote() external onlyOwner {... */\n    tag_7:\n      tag_38\n      tag_39\n      jump\t// in\n    tag_38:\n      stop\n        /* \"Voting.sol\":5008:5225  function tallyVotes () external voteSessionDone {... */\n    tag_8:\n      tag_40\n      tag_41\n      jump\t// in\n    tag_40:\n      stop\n        /* \"Voting.sol\":2515:2868  function registerVoter(address _voter)... */\n    tag_9:\n      tag_42\n      0x04\n      dup1\n      calldatasize\n      sub\n      dup2\n      add\n      swap1\n      tag_43\n      swap2\n      swap1\n      tag_44\n      jump\t// in\n    tag_43:\n      tag_45\n      jump\t// in\n    tag_42:\n      stop\n        /* \"Voting.sol\":5879:5962  function resetProposal() public onlyOwner {... */\n    tag_10:\n      tag_46\n      tag_47\n      jump\t// in\n    tag_46:\n      stop\n        /* \"Voting.sol\":5474:5740  function resetVoters() external onlyOwner {... */\n    tag_11:\n      tag_48\n      tag_49\n      jump\t// in\n    tag_48:\n      stop\n        /* \"@openzeppelin/contracts/access/Ownable.sol\":1824:1925  function renounceOwnership() public virtual onlyOwner {... */\n    tag_12:\n      tag_50\n      tag_51\n      jump\t// in\n    tag_50:\n      stop\n        /* \"@openzeppelin/contracts/access/Ownable.sol\":1201:1286  function owner() public view virtual returns (address) {... */\n    tag_13:\n      tag_52\n      tag_53\n      jump\t// in\n    tag_52:\n      mload(0x40)\n      tag_54\n      swap2\n      swap1\n      tag_55\n      jump\t// in\n    tag_54:\n      mload(0x40)\n      dup1\n      swap2\n      sub\n      swap1\n      return\n        /* \"Voting.sol\":5231:5328  function getWinner() external view returns (address) {... */\n    tag_14:\n      tag_56\n      tag_57\n      jump\t// in\n    tag_56:\n      mload(0x40)\n      tag_58\n      swap2\n      swap1\n      tag_55\n      jump\t// in\n    tag_58:\n      mload(0x40)\n      dup1\n      swap2\n      sub\n      swap1\n      return\n        /* \"Voting.sol\":3995:4239  function startVoteSession() external onlyOwner registerProposalDone {... */\n    tag_15:\n      tag_59\n      tag_60\n      jump\t// in\n    tag_59:\n      stop\n        /* \"Voting.sol\":2874:3103  function registerVoters(address[] memory _voters)... */\n    tag_16:\n      tag_61\n      0x04\n      dup1\n      calldatasize\n      sub\n      dup2\n      add\n      swap1\n      tag_62\n      swap2\n      swap1\n      tag_63\n      jump\t// in\n    tag_62:\n      tag_64\n      jump\t// in\n    tag_61:\n      stop\n        /* \"Voting.sol\":3408:3667  function endProposalRegistration() external onlyOwner registerProposalActive {... */\n    tag_17:\n      tag_65\n      tag_66\n      jump\t// in\n    tag_65:\n      stop\n        /* \"@openzeppelin/contracts/access/Ownable.sol\":2074:2272  function transferOwnership(address newOwner) public virtual onlyOwner {... */\n    tag_18:\n      tag_67\n      0x04\n      dup1\n      calldatasize\n      sub\n      dup2\n      add\n      swap1\n      tag_68\n      swap2\n      swap1\n      tag_44\n      jump\t// in\n    tag_68:\n      tag_69\n      jump\t// in\n    tag_67:\n      stop\n        /* \"Voting.sol\":4245:4482  function endVoteSession() external onlyOwner voteSessionActive {... */\n    tag_19:\n      tag_70\n      tag_71\n      jump\t// in\n    tag_70:\n      stop\n        /* \"Voting.sol\":5745:5819  function resetSession() external onlyOwner {... */\n    tag_20:\n      tag_72\n      tag_73\n      jump\t// in\n    tag_72:\n      stop\n        /* \"Voting.sol\":4488:4972  function vote(uint proposalId) external onlyVoters {... */\n    tag_27:\n        /* \"Voting.sol\":1576:1583  session */\n      0x01\n        /* \"Voting.sol\":1576:1590  session.voters */\n      dup1\n      add\n        /* \"Voting.sol\":1576:1602  session.voters[msg.sender] */\n      0x00\n        /* \"Voting.sol\":1591:1601  msg.sender */\n      caller\n        /* \"Voting.sol\":1576:1602  session.voters[msg.sender] */\n      0xffffffffffffffffffffffffffffffffffffffff\n      and\n      0xffffffffffffffffffffffffffffffffffffffff\n      and\n      dup2\n      mstore\n      0x20\n      add\n      swap1\n      dup2\n      mstore\n      0x20\n      add\n      0x00\n      keccak256\n        /* \"Voting.sol\":1576:1615  session.voters[msg.sender].isRegistered */\n      0x00\n      add\n      0x00\n      swap1\n      sload\n      swap1\n      0x0100\n      exp\n      swap1\n      div\n      0xff\n      and\n        /* \"Voting.sol\":1571:1678  if (!session.voters[msg.sender].isRegistered) {... */\n      tag_75\n      jumpi\n        /* \"Voting.sol\":1656:1666  msg.sender */\n      caller\n        /* \"Voting.sol\":1638:1667  UnRegisteredVoter(msg.sender) */\n      mload(0x40)\n      0xaffa818a00000000000000000000000000000000000000000000000000000000\n      dup2\n      mstore\n      0x04\n      add\n      tag_76\n      swap2\n      swap1\n      tag_55\n      jump\t// in\n    tag_76:\n      mload(0x40)\n      dup1\n      swap2\n      sub\n      swap1\n      revert\n        /* \"Voting.sol\":1571:1678  if (!session.voters[msg.sender].isRegistered) {... */\n    tag_75:\n        /* \"Voting.sol\":4566:4573  session */\n      0x01\n        /* \"Voting.sol\":4566:4583  session.proposals */\n      0x03\n      add\n        /* \"Voting.sol\":4566:4590  session.proposals.length */\n      dup1\n      sload\n      swap1\n      pop\n        /* \"Voting.sol\":4552:4562  proposalId */\n      dup2\n        /* \"Voting.sol\":4552:4590  proposalId >= session.proposals.length */\n      lt\n        /* \"Voting.sol\":4549:4649  if(proposalId >= session.proposals.length) {... */\n      tag_78\n      jumpi\n        /* \"Voting.sol\":4627:4637  proposalId */\n      dup1\n        /* \"Voting.sol\":4613:4638  WrongProposal(proposalId) */\n      mload(0x40)\n      0x442633c800000000000000000000000000000000000000000000000000000000\n      dup2\n      mstore\n      0x04\n      add\n      tag_79\n      swap2\n      swap1\n      tag_80\n      jump\t// in\n    tag_79:\n      mload(0x40)\n      dup1\n      swap2\n      sub\n      swap1\n      revert\n        /* \"Voting.sol\":4549:4649  if(proposalId >= session.proposals.length) {... */\n    tag_78:\n        /* \"Voting.sol\":4661:4668  session */\n      0x01\n        /* \"Voting.sol\":4661:4675  session.voters */\n      dup1\n      add\n        /* \"Voting.sol\":4661:4687  session.voters[msg.sender] */\n      0x00\n        /* \"Voting.sol\":4676:4686  msg.sender */\n      caller\n        /* \"Voting.sol\":4661:4687  session.voters[msg.sender] */\n      0xffffffffffffffffffffffffffffffffffffffff\n      and\n      0xffffffffffffffffffffffffffffffffffffffff\n      and\n      dup2\n      mstore\n      0x20\n      add\n      swap1\n      dup2\n      mstore\n      0x20\n      add\n      0x00\n      keccak256\n        /* \"Voting.sol\":4661:4696  session.voters[msg.sender].hasVoted */\n      0x00\n      add\n      0x01\n      swap1\n      sload\n      swap1\n      0x0100\n      exp\n      swap1\n      div\n      0xff\n      and\n        /* \"Voting.sol\":4658:4754  if(session.voters[msg.sender].hasVoted) {... */\n      iszero\n      tag_81\n      jumpi\n        /* \"Voting.sol\":4732:4742  msg.sender */\n      caller\n        /* \"Voting.sol\":4719:4743  AlreadyVoted(msg.sender) */\n      mload(0x40)\n      0xd449d67400000000000000000000000000000000000000000000000000000000\n      dup2\n      mstore\n      0x04\n      add\n      tag_82\n      swap2\n      swap1\n      tag_55\n      jump\t// in\n    tag_82:\n      mload(0x40)\n      dup1\n      swap2\n      sub\n      swap1\n      revert\n        /* \"Voting.sol\":4658:4754  if(session.voters[msg.sender].hasVoted) {... */\n    tag_81:\n        /* \"Voting.sol\":4801:4805  true */\n      0x01\n        /* \"Voting.sol\":4763:4770  session */\n      dup1\n        /* \"Voting.sol\":4763:4777  session.voters */\n      0x01\n      add\n        /* \"Voting.sol\":4763:4789  session.voters[msg.sender] */\n      0x00\n        /* \"Voting.sol\":4778:4788  msg.sender */\n      caller\n        /* \"Voting.sol\":4763:4789  session.voters[msg.sender] */\n      0xffffffffffffffffffffffffffffffffffffffff\n      and\n      0xffffffffffffffffffffffffffffffffffffffff\n      and\n      dup2\n      mstore\n      0x20\n      add\n      swap1\n      dup2\n      mstore\n      0x20\n      add\n      0x00\n      keccak256\n        /* \"Voting.sol\":4763:4798  session.voters[msg.sender].hasVoted */\n      0x00\n      add\n      0x01\n        /* \"Voting.sol\":4763:4805  session.voters[msg.sender].hasVoted = true */\n      0x0100\n      exp\n      dup2\n      sload\n      dup2\n      0xff\n      mul\n      not\n      and\n      swap1\n      dup4\n      iszero\n      iszero\n      mul\n      or\n      swap1\n      sstore\n      pop\n        /* \"Voting.sol\":4860:4870  proposalId */\n      dup1\n        /* \"Voting.sol\":4815:4822  session */\n      0x01\n        /* \"Voting.sol\":4815:4829  session.voters */\n      dup1\n      add\n        /* \"Voting.sol\":4815:4841  session.voters[msg.sender] */\n      0x00\n        /* \"Voting.sol\":4830:4840  msg.sender */\n      caller\n        /* \"Voting.sol\":4815:4841  session.voters[msg.sender] */\n      0xffffffffffffffffffffffffffffffffffffffff\n      and\n      0xffffffffffffffffffffffffffffffffffffffff\n      and\n      dup2\n      mstore\n      0x20\n      add\n      swap1\n      dup2\n      mstore\n      0x20\n      add\n      0x00\n      keccak256\n        /* \"Voting.sol\":4815:4857  session.voters[msg.sender].votedProposalId */\n      0x01\n      add\n        /* \"Voting.sol\":4815:4870  session.voters[msg.sender].votedProposalId = proposalId */\n      dup2\n      swap1\n      sstore\n      pop\n        /* \"Voting.sol\":4880:4887  session */\n      0x01\n        /* \"Voting.sol\":4880:4897  session.proposals */\n      0x03\n      add\n        /* \"Voting.sol\":4898:4908  proposalId */\n      dup2\n        /* \"Voting.sol\":4880:4909  session.proposals[proposalId] */\n      dup2\n      sload\n      dup2\n      lt\n      tag_83\n      jumpi\n      tag_84\n      tag_85\n      jump\t// in\n    tag_84:\n    tag_83:\n      swap1\n      0x00\n      mstore\n      keccak256(0x00, 0x20)\n      swap1\n      0x02\n      mul\n      add\n        /* \"Voting.sol\":4880:4919  session.proposals[proposalId].voteCount */\n      0x01\n      add\n      0x00\n        /* \"Voting.sol\":4880:4921  session.proposals[proposalId].voteCount++ */\n      dup2\n      sload\n      dup1\n      swap3\n      swap2\n      swap1\n      tag_87\n      swap1\n      tag_88\n      jump\t// in\n    tag_87:\n      swap2\n      swap1\n      pop\n      sstore\n      pop\n        /* \"Voting.sol\":4936:4965  Voted(msg.sender, proposalId) */\n      0x4d99b957a2bc29a30ebd96a7be8e68fe50a3c701db28a91436490b7d53870ca4\n        /* \"Voting.sol\":4942:4952  msg.sender */\n      caller\n        /* \"Voting.sol\":4954:4964  proposalId */\n      dup3\n        /* \"Voting.sol\":4936:4965  Voted(msg.sender, proposalId) */\n      mload(0x40)\n      tag_89\n      swap3\n      swap2\n      swap1\n      tag_90\n      jump\t// in\n    tag_89:\n      mload(0x40)\n      dup1\n      swap2\n      sub\n      swap1\n      log1\n        /* \"Voting.sol\":4488:4972  function vote(uint proposalId) external onlyVoters {... */\n      pop\n      jump\t// out\n        /* \"Voting.sol\":3142:3402  function startProposalRegistration() external onlyOwner registerVoterActive {... */\n    tag_29:\n        /* \"@openzeppelin/contracts/access/Ownable.sol\":1094:1107  _checkOwner() */\n      tag_92\n        /* \"@openzeppelin/contracts/access/Ownable.sol\":1094:1105  _checkOwner */\n      tag_93\n        /* \"@openzeppelin/contracts/access/Ownable.sol\":1094:1107  _checkOwner() */\n      jump\t// in\n    tag_92:\n        /* \"Voting.sol\":1927:1972  _wrongPhase(WorkflowStatus.RegisteringVoters) */\n      tag_95\n        /* \"Voting.sol\":1939:1971  WorkflowStatus.RegisteringVoters */\n      0x00\n        /* \"Voting.sol\":1927:1938  _wrongPhase */\n      tag_96\n        /* \"Voting.sol\":1927:1972  _wrongPhase(WorkflowStatus.RegisteringVoters) */\n      jump\t// in\n    tag_95:\n        /* \"Voting.sol\":3228:3249  WorkflowStatus status */\n      0x00\n        /* \"Voting.sol\":3252:3259  session */\n      0x01\n        /* \"Voting.sol\":3252:3266  session.status */\n      0x00\n      add\n      0x00\n      swap1\n      sload\n      swap1\n      0x0100\n      exp\n      swap1\n      div\n      0xff\n      and\n        /* \"Voting.sol\":3228:3266  WorkflowStatus status = session.status */\n      swap1\n      pop\n        /* \"Voting.sol\":3293:3336  WorkflowStatus.ProposalsRegistrationStarted */\n      0x01\n        /* \"Voting.sol\":3276:3283  session */\n      dup1\n        /* \"Voting.sol\":3276:3290  session.status */\n      0x00\n      add\n      0x00\n        /* \"Voting.sol\":3276:3336  session.status = WorkflowStatus.ProposalsRegistrationStarted */\n      0x0100\n      exp\n      dup2\n      sload\n      dup2\n      0xff\n      mul\n      not\n      and\n      swap1\n      dup4\n      0x05\n      dup2\n      gt\n      iszero\n      tag_98\n      jumpi\n      tag_99\n      tag_100\n      jump\t// in\n    tag_99:\n    tag_98:\n      mul\n      or\n      swap1\n      sstore\n      pop\n        /* \"Voting.sol\":3351:3395  WorkflowStatusChange(status, session.status) */\n      0x0a97a4ee45751e2abf3e4fc8946939630b11b371ea8ae39ccdc3056e98f5cc3f\n        /* \"Voting.sol\":3372:3378  status */\n      dup2\n        /* \"Voting.sol\":3380:3387  session */\n      0x01\n        /* \"Voting.sol\":3380:3394  session.status */\n      0x00\n      add\n      0x00\n      swap1\n      sload\n      swap1\n      0x0100\n      exp\n      swap1\n      div\n      0xff\n      and\n        /* \"Voting.sol\":3351:3395  WorkflowStatusChange(status, session.status) */\n      mload(0x40)\n      tag_101\n      swap3\n      swap2\n      swap1\n      tag_102\n      jump\t// in\n    tag_101:\n      mload(0x40)\n      dup1\n      swap2\n      sub\n      swap1\n      log1\n        /* \"Voting.sol\":3218:3402  {... */\n      pop\n        /* \"Voting.sol\":3142:3402  function startProposalRegistration() external onlyOwner registerVoterActive {... */\n      jump\t// out\n        /* \"Voting.sol\":5334:5443  function getVoteDetails() external view returns (Proposal[] memory) {... */\n    tag_31:\n        /* \"Voting.sol\":5383:5400  Proposal[] memory */\n      0x60\n        /* \"Voting.sol\":5419:5426  session */\n      0x01\n        /* \"Voting.sol\":5419:5436  session.proposals */\n      0x03\n      add\n        /* \"Voting.sol\":5412:5436  return session.proposals */\n      dup1\n      sload\n      dup1\n      0x20\n      mul\n      0x20\n      add\n      mload(0x40)\n      swap1\n      dup2\n      add\n      0x40\n      mstore\n      dup1\n      swap3\n      swap2\n      swap1\n      dup2\n      dup2\n      mstore\n      0x20\n      add\n      0x00\n      swap1\n    tag_104:\n      dup3\n      dup3\n      lt\n      iszero\n      tag_105\n      jumpi\n      dup4\n      dup3\n      swap1\n      0x00\n      mstore\n      keccak256(0x00, 0x20)\n      swap1\n      0x02\n      mul\n      add\n      mload(0x40)\n      dup1\n      0x40\n      add\n      0x40\n      mstore\n      swap1\n      dup2\n      0x00\n      dup3\n      add\n      dup1\n      sload\n      tag_107\n      swap1\n      tag_108\n      jump\t// in\n    tag_107:\n      dup1\n      0x1f\n      add\n      0x20\n      dup1\n      swap2\n      div\n      mul\n      0x20\n      add\n      mload(0x40)\n      swap1\n      dup2\n      add\n      0x40\n      mstore\n      dup1\n      swap3\n      swap2\n      swap1\n      dup2\n      dup2\n      mstore\n      0x20\n      add\n      dup3\n      dup1\n      sload\n      tag_109\n      swap1\n      tag_108\n      jump\t// in\n    tag_109:\n      dup1\n      iszero\n      tag_110\n      jumpi\n      dup1\n      0x1f\n      lt\n      tag_111\n      jumpi\n      0x0100\n      dup1\n      dup4\n      sload\n      div\n      mul\n      dup4\n      mstore\n      swap2\n      0x20\n      add\n      swap2\n      jump(tag_110)\n    tag_111:\n      dup3\n      add\n      swap2\n      swap1\n      0x00\n      mstore\n      keccak256(0x00, 0x20)\n      swap1\n    tag_112:\n      dup2\n      sload\n      dup2\n      mstore\n      swap1\n      0x01\n      add\n      swap1\n      0x20\n      add\n      dup1\n      dup4\n      gt\n      tag_112\n      jumpi\n      dup3\n      swap1\n      sub\n      0x1f\n      and\n      dup3\n      add\n      swap2\n    tag_110:\n      pop\n      pop\n      pop\n      pop\n      pop\n      dup2\n      mstore\n      0x20\n      add\n      0x01\n      dup3\n      add\n      sload\n      dup2\n      mstore\n      pop\n      pop\n      dup2\n      mstore\n      0x20\n      add\n      swap1\n      0x01\n      add\n      swap1\n      jump(tag_104)\n    tag_105:\n      pop\n      pop\n      pop\n      pop\n      swap1\n      pop\n        /* \"Voting.sol\":5334:5443  function getVoteDetails() external view returns (Proposal[] memory) {... */\n      swap1\n      jump\t// out\n        /* \"Voting.sol\":3673:3966  function registerProposal(string memory description) external onlyVoters registerProposalActive { ... */\n    tag_37:\n        /* \"Voting.sol\":1576:1583  session */\n      0x01\n        /* \"Voting.sol\":1576:1590  session.voters */\n      dup1\n      add\n        /* \"Voting.sol\":1576:1602  session.voters[msg.sender] */\n      0x00\n        /* \"Voting.sol\":1591:1601  msg.sender */\n      caller\n        /* \"Voting.sol\":1576:1602  session.voters[msg.sender] */\n      0xffffffffffffffffffffffffffffffffffffffff\n      and\n      0xffffffffffffffffffffffffffffffffffffffff\n      and\n      dup2\n      mstore\n      0x20\n      add\n      swap1\n      dup2\n      mstore\n      0x20\n      add\n      0x00\n      keccak256\n        /* \"Voting.sol\":1576:1615  session.voters[msg.sender].isRegistered */\n      0x00\n      add\n      0x00\n      swap1\n      sload\n      swap1\n      0x0100\n      exp\n      swap1\n      div\n      0xff\n      and\n        /* \"Voting.sol\":1571:1678  if (!session.voters[msg.sender].isRegistered) {... */\n      tag_114\n      jumpi\n        /* \"Voting.sol\":1656:1666  msg.sender */\n      caller\n        /* \"Voting.sol\":1638:1667  UnRegisteredVoter(msg.sender) */\n      mload(0x40)\n      0xaffa818a00000000000000000000000000000000000000000000000000000000\n      dup2\n      mstore\n      0x04\n      add\n      tag_115\n      swap2\n      swap1\n      tag_55\n      jump\t// in\n    tag_115:\n      mload(0x40)\n      dup1\n      swap2\n      sub\n      swap1\n      revert\n        /* \"Voting.sol\":1571:1678  if (!session.voters[msg.sender].isRegistered) {... */\n    tag_114:\n        /* \"Voting.sol\":2040:2096  _wrongPhase(WorkflowStatus.ProposalsRegistrationStarted) */\n      tag_117\n        /* \"Voting.sol\":2052:2095  WorkflowStatus.ProposalsRegistrationStarted */\n      0x01\n        /* \"Voting.sol\":2040:2051  _wrongPhase */\n      tag_96\n        /* \"Voting.sol\":2040:2096  _wrongPhase(WorkflowStatus.ProposalsRegistrationStarted) */\n      jump\t// in\n    tag_117:\n        /* \"Voting.sol\":3814:3829  uint proposalId */\n      0x00\n        /* \"Voting.sol\":3832:3839  session */\n      0x01\n        /* \"Voting.sol\":3832:3849  session.proposals */\n      0x03\n      add\n        /* \"Voting.sol\":3832:3856  session.proposals.length */\n      dup1\n      sload\n      swap1\n      pop\n        /* \"Voting.sol\":3814:3856  uint proposalId = session.proposals.length */\n      swap1\n      pop\n        /* \"Voting.sol\":3866:3873  session */\n      0x01\n        /* \"Voting.sol\":3866:3883  session.proposals */\n      0x03\n      add\n        /* \"Voting.sol\":3889:3913  Proposal(description, 0) */\n      mload(0x40)\n      dup1\n      0x40\n      add\n      0x40\n      mstore\n      dup1\n        /* \"Voting.sol\":3898:3909  description */\n      dup5\n        /* \"Voting.sol\":3889:3913  Proposal(description, 0) */\n      dup2\n      mstore\n      0x20\n      add\n        /* \"Voting.sol\":3911:3912  0 */\n      0x00\n        /* \"Voting.sol\":3889:3913  Proposal(description, 0) */\n      dup2\n      mstore\n      pop\n        /* \"Voting.sol\":3866:3914  session.proposals.push(Proposal(description, 0)) */\n      swap1\n      dup1\n      0x01\n      dup2\n      sload\n      add\n      dup1\n      dup3\n      sstore\n      dup1\n      swap2\n      pop\n      pop\n      0x01\n      swap1\n      sub\n      swap1\n      0x00\n      mstore\n      keccak256(0x00, 0x20)\n      swap1\n      0x02\n      mul\n      add\n      0x00\n      swap1\n      swap2\n      swap1\n      swap2\n      swap1\n      swap2\n      pop\n      0x00\n      dup3\n      add\n      mload\n      dup2\n      0x00\n      add\n      swap1\n      dup2\n      tag_120\n      swap2\n      swap1\n      tag_121\n      jump\t// in\n    tag_120:\n      pop\n      0x20\n      dup3\n      add\n      mload\n      dup2\n      0x01\n      add\n      sstore\n      pop\n      pop\n        /* \"Voting.sol\":3929:3959  ProposalRegistered(proposalId) */\n      0x92e393e9b54e2f801d3ea4beb0c5e71a21cc34a5d34b77d0fb8a3aa1650dc18f\n        /* \"Voting.sol\":3948:3958  proposalId */\n      dup2\n        /* \"Voting.sol\":3929:3959  ProposalRegistered(proposalId) */\n      mload(0x40)\n      tag_122\n      swap2\n      swap1\n      tag_80\n      jump\t// in\n    tag_122:\n      mload(0x40)\n      dup1\n      swap2\n      sub\n      swap1\n      log1\n        /* \"Voting.sol\":3769:3966  { ... */\n      pop\n        /* \"Voting.sol\":3673:3966  function registerProposal(string memory description) external onlyVoters registerProposalActive { ... */\n      pop\n      jump\t// out\n        /* \"Voting.sol\":5825:5873  function resetVote() external onlyOwner {... */\n    tag_39:\n        /* \"@openzeppelin/contracts/access/Ownable.sol\":1094:1107  _checkOwner() */\n      tag_124\n        /* \"@openzeppelin/contracts/access/Ownable.sol\":1094:1105  _checkOwner */\n      tag_93\n        /* \"@openzeppelin/contracts/access/Ownable.sol\":1094:1107  _checkOwner() */\n      jump\t// in\n    tag_124:\n        /* \"Voting.sol\":5825:5873  function resetVote() external onlyOwner {... */\n      jump\t// out\n        /* \"Voting.sol\":5008:5225  function tallyVotes () external voteSessionDone {... */\n    tag_41:\n        /* \"Voting.sol\":2391:2439  _wrongPhase(WorkflowStatus.VotingSessionStarted) */\n      tag_127\n        /* \"Voting.sol\":2403:2438  WorkflowStatus.VotingSessionStarted */\n      0x03\n        /* \"Voting.sol\":2391:2402  _wrongPhase */\n      tag_96\n        /* \"Voting.sol\":2391:2439  _wrongPhase(WorkflowStatus.VotingSessionStarted) */\n      jump\t// in\n    tag_127:\n        /* \"Voting.sol\":5067:5088  WorkflowStatus status */\n      0x00\n        /* \"Voting.sol\":5091:5098  session */\n      0x01\n        /* \"Voting.sol\":5091:5105  session.status */\n      0x00\n      add\n      0x00\n      swap1\n      sload\n      swap1\n      0x0100\n      exp\n      swap1\n      div\n      0xff\n      and\n        /* \"Voting.sol\":5067:5105  WorkflowStatus status = session.status */\n      swap1\n      pop\n        /* \"Voting.sol\":5132:5159  WorkflowStatus.VotesTallied */\n      0x05\n        /* \"Voting.sol\":5115:5122  session */\n      0x01\n        /* \"Voting.sol\":5115:5129  session.status */\n      0x00\n      add\n      0x00\n        /* \"Voting.sol\":5115:5159  session.status = WorkflowStatus.VotesTallied */\n      0x0100\n      exp\n      dup2\n      sload\n      dup2\n      0xff\n      mul\n      not\n      and\n      swap1\n      dup4\n      0x05\n      dup2\n      gt\n      iszero\n      tag_129\n      jumpi\n      tag_130\n      tag_100\n      jump\t// in\n    tag_130:\n    tag_129:\n      mul\n      or\n      swap1\n      sstore\n      pop\n        /* \"Voting.sol\":5174:5218  WorkflowStatusChange(status, session.status) */\n      0x0a97a4ee45751e2abf3e4fc8946939630b11b371ea8ae39ccdc3056e98f5cc3f\n        /* \"Voting.sol\":5195:5201  status */\n      dup2\n        /* \"Voting.sol\":5203:5210  session */\n      0x01\n        /* \"Voting.sol\":5203:5217  session.status */\n      0x00\n      add\n      0x00\n      swap1\n      sload\n      swap1\n      0x0100\n      exp\n      swap1\n      div\n      0xff\n      and\n        /* \"Voting.sol\":5174:5218  WorkflowStatusChange(status, session.status) */\n      mload(0x40)\n      tag_131\n      swap3\n      swap2\n      swap1\n      tag_102\n      jump\t// in\n    tag_131:\n      mload(0x40)\n      dup1\n      swap2\n      sub\n      swap1\n      log1\n        /* \"Voting.sol\":5056:5225  {... */\n      pop\n        /* \"Voting.sol\":5008:5225  function tallyVotes () external voteSessionDone {... */\n      jump\t// out\n        /* \"Voting.sol\":2515:2868  function registerVoter(address _voter)... */\n    tag_45:\n        /* \"@openzeppelin/contracts/access/Ownable.sol\":1094:1107  _checkOwner() */\n      tag_133\n        /* \"@openzeppelin/contracts/access/Ownable.sol\":1094:1105  _checkOwner */\n      tag_93\n        /* \"@openzeppelin/contracts/access/Ownable.sol\":1094:1107  _checkOwner() */\n      jump\t// in\n    tag_133:\n        /* \"Voting.sol\":1927:1972  _wrongPhase(WorkflowStatus.RegisteringVoters) */\n      tag_135\n        /* \"Voting.sol\":1939:1971  WorkflowStatus.RegisteringVoters */\n      0x00\n        /* \"Voting.sol\":1927:1938  _wrongPhase */\n      tag_96\n        /* \"Voting.sol\":1927:1972  _wrongPhase(WorkflowStatus.RegisteringVoters) */\n      jump\t// in\n    tag_135:\n        /* \"Voting.sol\":2634:2641  session */\n      0x01\n        /* \"Voting.sol\":2634:2648  session.voters */\n      dup1\n      add\n        /* \"Voting.sol\":2634:2656  session.voters[_voter] */\n      0x00\n        /* \"Voting.sol\":2649:2655  _voter */\n      dup3\n        /* \"Voting.sol\":2634:2656  session.voters[_voter] */\n      0xffffffffffffffffffffffffffffffffffffffff\n      and\n      0xffffffffffffffffffffffffffffffffffffffff\n      and\n      dup2\n      mstore\n      0x20\n      add\n      swap1\n      dup2\n      mstore\n      0x20\n      add\n      0x00\n      keccak256\n        /* \"Voting.sol\":2634:2669  session.voters[_voter].isRegistered */\n      0x00\n      add\n      0x00\n      swap1\n      sload\n      swap1\n      0x0100\n      exp\n      swap1\n      div\n      0xff\n      and\n        /* \"Voting.sol\":2629:2731  if (!session.voters[_voter].isRegistered) {... */\n      tag_137\n      jumpi\n        /* \"Voting.sol\":2713:2719  _voter */\n      dup1\n        /* \"Voting.sol\":2692:2720  AlreadyRegisterVoter(_voter) */\n      mload(0x40)\n      0x7ecf313d00000000000000000000000000000000000000000000000000000000\n      dup2\n      mstore\n      0x04\n      add\n      tag_138\n      swap2\n      swap1\n      tag_55\n      jump\t// in\n    tag_138:\n      mload(0x40)\n      dup1\n      swap2\n      sub\n      swap1\n      revert\n        /* \"Voting.sol\":2629:2731  if (!session.voters[_voter].isRegistered) {... */\n    tag_137:\n        /* \"Voting.sol\":2741:2748  session */\n      0x01\n        /* \"Voting.sol\":2741:2758  session.idxVoters */\n      0x02\n      add\n        /* \"Voting.sol\":2764:2770  _voter */\n      dup2\n        /* \"Voting.sol\":2741:2771  session.idxVoters.push(_voter) */\n      swap1\n      dup1\n      0x01\n      dup2\n      sload\n      add\n      dup1\n      dup3\n      sstore\n      dup1\n      swap2\n      pop\n      pop\n      0x01\n      swap1\n      sub\n      swap1\n      0x00\n      mstore\n      keccak256(0x00, 0x20)\n      add\n      0x00\n      swap1\n      swap2\n      swap1\n      swap2\n      swap1\n      swap2\n      0x0100\n      exp\n      dup2\n      sload\n      dup2\n      0xffffffffffffffffffffffffffffffffffffffff\n      mul\n      not\n      and\n      swap1\n      dup4\n      0xffffffffffffffffffffffffffffffffffffffff\n      and\n      mul\n      or\n      swap1\n      sstore\n      pop\n        /* \"Voting.sol\":2819:2823  true */\n      0x01\n        /* \"Voting.sol\":2781:2788  session */\n      dup1\n        /* \"Voting.sol\":2781:2795  session.voters */\n      0x01\n      add\n        /* \"Voting.sol\":2781:2803  session.voters[_voter] */\n      0x00\n        /* \"Voting.sol\":2796:2802  _voter */\n      dup4\n        /* \"Voting.sol\":2781:2803  session.voters[_voter] */\n      0xffffffffffffffffffffffffffffffffffffffff\n      and\n      0xffffffffffffffffffffffffffffffffffffffff\n      and\n      dup2\n      mstore\n      0x20\n      add\n      swap1\n      dup2\n      mstore\n      0x20\n      add\n      0x00\n      keccak256\n        /* \"Voting.sol\":2781:2816  session.voters[_voter].isRegistered */\n      0x00\n      add\n      0x00\n        /* \"Voting.sol\":2781:2823  session.voters[_voter].isRegistered = true */\n      0x0100\n      exp\n      dup2\n      sload\n      dup2\n      0xff\n      mul\n      not\n      and\n      swap1\n      dup4\n      iszero\n      iszero\n      mul\n      or\n      swap1\n      sstore\n      pop\n        /* \"Voting.sol\":2838:2861  VoterRegistered(_voter) */\n      0xb6be2187d059cc2a55fe29e0e503b566e1e0f8c8780096e185429350acffd3dd\n        /* \"Voting.sol\":2854:2860  _voter */\n      dup2\n        /* \"Voting.sol\":2838:2861  VoterRegistered(_voter) */\n      mload(0x40)\n      tag_140\n      swap2\n      swap1\n      tag_55\n      jump\t// in\n    tag_140:\n      mload(0x40)\n      dup1\n      swap2\n      sub\n      swap1\n      log1\n        /* \"Voting.sol\":2515:2868  function registerVoter(address _voter)... */\n      pop\n      jump\t// out\n        /* \"Voting.sol\":5879:5962  function resetProposal() public onlyOwner {... */\n    tag_47:\n        /* \"@openzeppelin/contracts/access/Ownable.sol\":1094:1107  _checkOwner() */\n      tag_142\n        /* \"@openzeppelin/contracts/access/Ownable.sol\":1094:1105  _checkOwner */\n      tag_93\n        /* \"@openzeppelin/contracts/access/Ownable.sol\":1094:1107  _checkOwner() */\n      jump\t// in\n    tag_142:\n        /* \"Voting.sol\":5938:5945  session */\n      0x01\n        /* \"Voting.sol\":5938:5955  session.proposals */\n      0x03\n      add\n      0x00\n        /* \"Voting.sol\":5931:5955  delete session.proposals */\n      tag_144\n      swap2\n      swap1\n      tag_145\n      jump\t// in\n    tag_144:\n        /* \"Voting.sol\":5879:5962  function resetProposal() public onlyOwner {... */\n      jump\t// out\n        /* \"Voting.sol\":5474:5740  function resetVoters() external onlyOwner {... */\n    tag_49:\n        /* \"@openzeppelin/contracts/access/Ownable.sol\":1094:1107  _checkOwner() */\n      tag_147\n        /* \"@openzeppelin/contracts/access/Ownable.sol\":1094:1105  _checkOwner */\n      tag_93\n        /* \"@openzeppelin/contracts/access/Ownable.sol\":1094:1107  _checkOwner() */\n      jump\t// in\n    tag_147:\n        /* \"Voting.sol\":5562:5563  0 */\n      0x00\n        /* \"Voting.sol\":5535:5542  session */\n      0x01\n        /* \"Voting.sol\":5535:5552  session.idxVoters */\n      0x02\n      add\n        /* \"Voting.sol\":5535:5559  session.idxVoters.length */\n      dup1\n      sload\n      swap1\n      pop\n        /* \"Voting.sol\":5535:5563  session.idxVoters.length > 0 */\n      gt\n        /* \"Voting.sol\":5531:5734  if (session.idxVoters.length > 0) {... */\n      iszero\n      tag_149\n      jumpi\n        /* \"Voting.sol\":5584:5593  uint256 i */\n      0x00\n        /* \"Voting.sol\":5579:5724  for (uint256 i = 0; i < session.idxVoters.length; i++) {... */\n    tag_150:\n        /* \"Voting.sol\":5603:5610  session */\n      0x01\n        /* \"Voting.sol\":5603:5620  session.idxVoters */\n      0x02\n      add\n        /* \"Voting.sol\":5603:5627  session.idxVoters.length */\n      dup1\n      sload\n      swap1\n      pop\n        /* \"Voting.sol\":5599:5600  i */\n      dup2\n        /* \"Voting.sol\":5599:5627  i < session.idxVoters.length */\n      lt\n        /* \"Voting.sol\":5579:5724  for (uint256 i = 0; i < session.idxVoters.length; i++) {... */\n      iszero\n      tag_151\n      jumpi\n        /* \"Voting.sol\":5704:5709  false */\n      0x00\n        /* \"Voting.sol\":5652:5659  session */\n      0x01\n        /* \"Voting.sol\":5652:5666  session.voters */\n      dup1\n      add\n        /* \"Voting.sol\":5652:5688  session.voters[session.idxVoters[i]] */\n      0x00\n        /* \"Voting.sol\":5667:5674  session */\n      0x01\n        /* \"Voting.sol\":5667:5684  session.idxVoters */\n      0x02\n      add\n        /* \"Voting.sol\":5685:5686  i */\n      dup5\n        /* \"Voting.sol\":5667:5687  session.idxVoters[i] */\n      dup2\n      sload\n      dup2\n      lt\n      tag_153\n      jumpi\n      tag_154\n      tag_85\n      jump\t// in\n    tag_154:\n    tag_153:\n      swap1\n      0x00\n      mstore\n      keccak256(0x00, 0x20)\n      add\n      0x00\n      swap1\n      sload\n      swap1\n      0x0100\n      exp\n      swap1\n      div\n      0xffffffffffffffffffffffffffffffffffffffff\n      and\n        /* \"Voting.sol\":5652:5688  session.voters[session.idxVoters[i]] */\n      0xffffffffffffffffffffffffffffffffffffffff\n      and\n      0xffffffffffffffffffffffffffffffffffffffff\n      and\n      dup2\n      mstore\n      0x20\n      add\n      swap1\n      dup2\n      mstore\n      0x20\n      add\n      0x00\n      keccak256\n        /* \"Voting.sol\":5652:5701  session.voters[session.idxVoters[i]].isRegistered */\n      0x00\n      add\n      0x00\n        /* \"Voting.sol\":5652:5709  session.voters[session.idxVoters[i]].isRegistered = false */\n      0x0100\n      exp\n      dup2\n      sload\n      dup2\n      0xff\n      mul\n      not\n      and\n      swap1\n      dup4\n      iszero\n      iszero\n      mul\n      or\n      swap1\n      sstore\n      pop\n        /* \"Voting.sol\":5629:5632  i++ */\n      dup1\n      dup1\n      tag_156\n      swap1\n      tag_88\n      jump\t// in\n    tag_156:\n      swap2\n      pop\n      pop\n        /* \"Voting.sol\":5579:5724  for (uint256 i = 0; i < session.idxVoters.length; i++) {... */\n      jump(tag_150)\n    tag_151:\n      pop\n        /* \"Voting.sol\":5531:5734  if (session.idxVoters.length > 0) {... */\n    tag_149:\n        /* \"Voting.sol\":5474:5740  function resetVoters() external onlyOwner {... */\n      jump\t// out\n        /* \"@openzeppelin/contracts/access/Ownable.sol\":1824:1925  function renounceOwnership() public virtual onlyOwner {... */\n    tag_51:\n        /* \"@openzeppelin/contracts/access/Ownable.sol\":1094:1107  _checkOwner() */\n      tag_158\n        /* \"@openzeppelin/contracts/access/Ownable.sol\":1094:1105  _checkOwner */\n      tag_93\n        /* \"@openzeppelin/contracts/access/Ownable.sol\":1094:1107  _checkOwner() */\n      jump\t// in\n    tag_158:\n        /* \"@openzeppelin/contracts/access/Ownable.sol\":1888:1918  _transferOwnership(address(0)) */\n      tag_160\n        /* \"@openzeppelin/contracts/access/Ownable.sol\":1915:1916  0 */\n      0x00\n        /* \"@openzeppelin/contracts/access/Ownable.sol\":1888:1906  _transferOwnership */\n      tag_161\n        /* \"@openzeppelin/contracts/access/Ownable.sol\":1888:1918  _transferOwnership(address(0)) */\n      jump\t// in\n    tag_160:\n        /* \"@openzeppelin/contracts/access/Ownable.sol\":1824:1925  function renounceOwnership() public virtual onlyOwner {... */\n      jump\t// out\n        /* \"@openzeppelin/contracts/access/Ownable.sol\":1201:1286  function owner() public view virtual returns (address) {... */\n    tag_53:\n        /* \"@openzeppelin/contracts/access/Ownable.sol\":1247:1254  address */\n      0x00\n        /* \"@openzeppelin/contracts/access/Ownable.sol\":1273:1279  _owner */\n      dup1\n      0x00\n      swap1\n      sload\n      swap1\n      0x0100\n      exp\n      swap1\n      div\n      0xffffffffffffffffffffffffffffffffffffffff\n      and\n        /* \"@openzeppelin/contracts/access/Ownable.sol\":1266:1279  return _owner */\n      swap1\n      pop\n        /* \"@openzeppelin/contracts/access/Ownable.sol\":1201:1286  function owner() public view virtual returns (address) {... */\n      swap1\n      jump\t// out\n        /* \"Voting.sol\":5231:5328  function getWinner() external view returns (address) {... */\n    tag_57:\n        /* \"Voting.sol\":5275:5282  address */\n      0x00\n        /* \"Voting.sol\":5309:5313  this */\n      address\n        /* \"Voting.sol\":5294:5314  return address(this) */\n      swap1\n      pop\n        /* \"Voting.sol\":5231:5328  function getWinner() external view returns (address) {... */\n      swap1\n      jump\t// out\n        /* \"Voting.sol\":3995:4239  function startVoteSession() external onlyOwner registerProposalDone {... */\n    tag_60:\n        /* \"@openzeppelin/contracts/access/Ownable.sol\":1094:1107  _checkOwner() */\n      tag_165\n        /* \"@openzeppelin/contracts/access/Ownable.sol\":1094:1105  _checkOwner */\n      tag_93\n        /* \"@openzeppelin/contracts/access/Ownable.sol\":1094:1107  _checkOwner() */\n      jump\t// in\n    tag_165:\n        /* \"Voting.sol\":2163:2217  _wrongPhase(WorkflowStatus.ProposalsRegistrationEnded) */\n      tag_167\n        /* \"Voting.sol\":2175:2216  WorkflowStatus.ProposalsRegistrationEnded */\n      0x02\n        /* \"Voting.sol\":2163:2174  _wrongPhase */\n      tag_96\n        /* \"Voting.sol\":2163:2217  _wrongPhase(WorkflowStatus.ProposalsRegistrationEnded) */\n      jump\t// in\n    tag_167:\n        /* \"Voting.sol\":4073:4094  WorkflowStatus status */\n      0x00\n        /* \"Voting.sol\":4097:4104  session */\n      0x01\n        /* \"Voting.sol\":4097:4111  session.status */\n      0x00\n      add\n      0x00\n      swap1\n      sload\n      swap1\n      0x0100\n      exp\n      swap1\n      div\n      0xff\n      and\n        /* \"Voting.sol\":4073:4111  WorkflowStatus status = session.status */\n      swap1\n      pop\n        /* \"Voting.sol\":4138:4173  WorkflowStatus.VotingSessionStarted */\n      0x03\n        /* \"Voting.sol\":4121:4128  session */\n      0x01\n        /* \"Voting.sol\":4121:4135  session.status */\n      0x00\n      add\n      0x00\n        /* \"Voting.sol\":4121:4173  session.status = WorkflowStatus.VotingSessionStarted */\n      0x0100\n      exp\n      dup2\n      sload\n      dup2\n      0xff\n      mul\n      not\n      and\n      swap1\n      dup4\n      0x05\n      dup2\n      gt\n      iszero\n      tag_169\n      jumpi\n      tag_170\n      tag_100\n      jump\t// in\n    tag_170:\n    tag_169:\n      mul\n      or\n      swap1\n      sstore\n      pop\n        /* \"Voting.sol\":4188:4232  WorkflowStatusChange(status, session.status) */\n      0x0a97a4ee45751e2abf3e4fc8946939630b11b371ea8ae39ccdc3056e98f5cc3f\n        /* \"Voting.sol\":4209:4215  status */\n      dup2\n        /* \"Voting.sol\":4217:4224  session */\n      0x01\n        /* \"Voting.sol\":4217:4231  session.status */\n      0x00\n      add\n      0x00\n      swap1\n      sload\n      swap1\n      0x0100\n      exp\n      swap1\n      div\n      0xff\n      and\n        /* \"Voting.sol\":4188:4232  WorkflowStatusChange(status, session.status) */\n      mload(0x40)\n      tag_171\n      swap3\n      swap2\n      swap1\n      tag_102\n      jump\t// in\n    tag_171:\n      mload(0x40)\n      dup1\n      swap2\n      sub\n      swap1\n      log1\n        /* \"Voting.sol\":4063:4239  {... */\n      pop\n        /* \"Voting.sol\":3995:4239  function startVoteSession() external onlyOwner registerProposalDone {... */\n      jump\t// out\n        /* \"Voting.sol\":2874:3103  function registerVoters(address[] memory _voters)... */\n    tag_64:\n        /* \"@openzeppelin/contracts/access/Ownable.sol\":1094:1107  _checkOwner() */\n      tag_173\n        /* \"@openzeppelin/contracts/access/Ownable.sol\":1094:1105  _checkOwner */\n      tag_93\n        /* \"@openzeppelin/contracts/access/Ownable.sol\":1094:1107  _checkOwner() */\n      jump\t// in\n    tag_173:\n        /* \"Voting.sol\":1927:1972  _wrongPhase(WorkflowStatus.RegisteringVoters) */\n      tag_175\n        /* \"Voting.sol\":1939:1971  WorkflowStatus.RegisteringVoters */\n      0x00\n        /* \"Voting.sol\":1927:1938  _wrongPhase */\n      tag_96\n        /* \"Voting.sol\":1927:1972  _wrongPhase(WorkflowStatus.RegisteringVoters) */\n      jump\t// in\n    tag_175:\n        /* \"Voting.sol\":3006:3015  uint256 i */\n      0x00\n        /* \"Voting.sol\":3001:3097  for (uint256 i = 0; i <= _voters.length; i++) {... */\n    tag_177:\n        /* \"Voting.sol\":3026:3033  _voters */\n      dup2\n        /* \"Voting.sol\":3026:3040  _voters.length */\n      mload\n        /* \"Voting.sol\":3021:3022  i */\n      dup2\n        /* \"Voting.sol\":3021:3040  i <= _voters.length */\n      gt\n        /* \"Voting.sol\":3001:3097  for (uint256 i = 0; i <= _voters.length; i++) {... */\n      tag_178\n      jumpi\n        /* \"Voting.sol\":3061:3086  registerVoter(_voters[i]) */\n      tag_180\n        /* \"Voting.sol\":3075:3082  _voters */\n      dup3\n        /* \"Voting.sol\":3083:3084  i */\n      dup3\n        /* \"Voting.sol\":3075:3085  _voters[i] */\n      dup2\n      mload\n      dup2\n      lt\n      tag_181\n      jumpi\n      tag_182\n      tag_85\n      jump\t// in\n    tag_182:\n    tag_181:\n      0x20\n      mul\n      0x20\n      add\n      add\n      mload\n        /* \"Voting.sol\":3061:3074  registerVoter */\n      tag_45\n        /* \"Voting.sol\":3061:3086  registerVoter(_voters[i]) */\n      jump\t// in\n    tag_180:\n        /* \"Voting.sol\":3042:3045  i++ */\n      dup1\n      dup1\n      tag_183\n      swap1\n      tag_88\n      jump\t// in\n    tag_183:\n      swap2\n      pop\n      pop\n        /* \"Voting.sol\":3001:3097  for (uint256 i = 0; i <= _voters.length; i++) {... */\n      jump(tag_177)\n    tag_178:\n      pop\n        /* \"Voting.sol\":2874:3103  function registerVoters(address[] memory _voters)... */\n      pop\n      jump\t// out\n        /* \"Voting.sol\":3408:3667  function endProposalRegistration() external onlyOwner registerProposalActive {... */\n    tag_66:\n        /* \"@openzeppelin/contracts/access/Ownable.sol\":1094:1107  _checkOwner() */\n      tag_185\n        /* \"@openzeppelin/contracts/access/Ownable.sol\":1094:1105  _checkOwner */\n      tag_93\n        /* \"@openzeppelin/contracts/access/Ownable.sol\":1094:1107  _checkOwner() */\n      jump\t// in\n    tag_185:\n        /* \"Voting.sol\":2040:2096  _wrongPhase(WorkflowStatus.ProposalsRegistrationStarted) */\n      tag_187\n        /* \"Voting.sol\":2052:2095  WorkflowStatus.ProposalsRegistrationStarted */\n      0x01\n        /* \"Voting.sol\":2040:2051  _wrongPhase */\n      tag_96\n        /* \"Voting.sol\":2040:2096  _wrongPhase(WorkflowStatus.ProposalsRegistrationStarted) */\n      jump\t// in\n    tag_187:\n        /* \"Voting.sol\":3495:3516  WorkflowStatus status */\n      0x00\n        /* \"Voting.sol\":3519:3526  session */\n      0x01\n        /* \"Voting.sol\":3519:3533  session.status */\n      0x00\n      add\n      0x00\n      swap1\n      sload\n      swap1\n      0x0100\n      exp\n      swap1\n      div\n      0xff\n      and\n        /* \"Voting.sol\":3495:3533  WorkflowStatus status = session.status */\n      swap1\n      pop\n        /* \"Voting.sol\":3560:3601  WorkflowStatus.ProposalsRegistrationEnded */\n      0x02\n        /* \"Voting.sol\":3543:3550  session */\n      0x01\n        /* \"Voting.sol\":3543:3557  session.status */\n      0x00\n      add\n      0x00\n        /* \"Voting.sol\":3543:3601  session.status = WorkflowStatus.ProposalsRegistrationEnded */\n      0x0100\n      exp\n      dup2\n      sload\n      dup2\n      0xff\n      mul\n      not\n      and\n      swap1\n      dup4\n      0x05\n      dup2\n      gt\n      iszero\n      tag_189\n      jumpi\n      tag_190\n      tag_100\n      jump\t// in\n    tag_190:\n    tag_189:\n      mul\n      or\n      swap1\n      sstore\n      pop\n        /* \"Voting.sol\":3616:3660  WorkflowStatusChange(status, session.status) */\n      0x0a97a4ee45751e2abf3e4fc8946939630b11b371ea8ae39ccdc3056e98f5cc3f\n        /* \"Voting.sol\":3637:3643  status */\n      dup2\n        /* \"Voting.sol\":3645:3652  session */\n      0x01\n        /* \"Voting.sol\":3645:3659  session.status */\n      0x00\n      add\n      0x00\n      swap1\n      sload\n      swap1\n      0x0100\n      exp\n      swap1\n      div\n      0xff\n      and\n        /* \"Voting.sol\":3616:3660  WorkflowStatusChange(status, session.status) */\n      mload(0x40)\n      tag_191\n      swap3\n      swap2\n      swap1\n      tag_102\n      jump\t// in\n    tag_191:\n      mload(0x40)\n      dup1\n      swap2\n      sub\n      swap1\n      log1\n        /* \"Voting.sol\":3485:3667  {... */\n      pop\n        /* \"Voting.sol\":3408:3667  function endProposalRegistration() external onlyOwner registerProposalActive {... */\n      jump\t// out\n        /* \"@openzeppelin/contracts/access/Ownable.sol\":2074:2272  function transferOwnership(address newOwner) public virtual onlyOwner {... */\n    tag_69:\n        /* \"@openzeppelin/contracts/access/Ownable.sol\":1094:1107  _checkOwner() */\n      tag_193\n        /* \"@openzeppelin/contracts/access/Ownable.sol\":1094:1105  _checkOwner */\n      tag_93\n        /* \"@openzeppelin/contracts/access/Ownable.sol\":1094:1107  _checkOwner() */\n      jump\t// in\n    tag_193:\n        /* \"@openzeppelin/contracts/access/Ownable.sol\":2182:2183  0 */\n      0x00\n        /* \"@openzeppelin/contracts/access/Ownable.sol\":2162:2184  newOwner != address(0) */\n      0xffffffffffffffffffffffffffffffffffffffff\n      and\n        /* \"@openzeppelin/contracts/access/Ownable.sol\":2162:2170  newOwner */\n      dup2\n        /* \"@openzeppelin/contracts/access/Ownable.sol\":2162:2184  newOwner != address(0) */\n      0xffffffffffffffffffffffffffffffffffffffff\n      and\n      sub\n        /* \"@openzeppelin/contracts/access/Ownable.sol\":2154:2227  require(newOwner != address(0), \"Ownable: new owner is the zero address\") */\n      tag_195\n      jumpi\n      mload(0x40)\n      0x08c379a000000000000000000000000000000000000000000000000000000000\n      dup2\n      mstore\n      0x04\n      add\n      tag_196\n      swap1\n      tag_197\n      jump\t// in\n    tag_196:\n      mload(0x40)\n      dup1\n      swap2\n      sub\n      swap1\n      revert\n    tag_195:\n        /* \"@openzeppelin/contracts/access/Ownable.sol\":2237:2265  _transferOwnership(newOwner) */\n      tag_198\n        /* \"@openzeppelin/contracts/access/Ownable.sol\":2256:2264  newOwner */\n      dup2\n        /* \"@openzeppelin/contracts/access/Ownable.sol\":2237:2255  _transferOwnership */\n      tag_161\n        /* \"@openzeppelin/contracts/access/Ownable.sol\":2237:2265  _transferOwnership(newOwner) */\n      jump\t// in\n    tag_198:\n        /* \"@openzeppelin/contracts/access/Ownable.sol\":2074:2272  function transferOwnership(address newOwner) public virtual onlyOwner {... */\n      pop\n      jump\t// out\n        /* \"Voting.sol\":4245:4482  function endVoteSession() external onlyOwner voteSessionActive {... */\n    tag_71:\n        /* \"@openzeppelin/contracts/access/Ownable.sol\":1094:1107  _checkOwner() */\n      tag_200\n        /* \"@openzeppelin/contracts/access/Ownable.sol\":1094:1105  _checkOwner */\n      tag_93\n        /* \"@openzeppelin/contracts/access/Ownable.sol\":1094:1107  _checkOwner() */\n      jump\t// in\n    tag_200:\n        /* \"Voting.sol\":2281:2329  _wrongPhase(WorkflowStatus.VotingSessionStarted) */\n      tag_202\n        /* \"Voting.sol\":2293:2328  WorkflowStatus.VotingSessionStarted */\n      0x03\n        /* \"Voting.sol\":2281:2292  _wrongPhase */\n      tag_96\n        /* \"Voting.sol\":2281:2329  _wrongPhase(WorkflowStatus.VotingSessionStarted) */\n      jump\t// in\n    tag_202:\n        /* \"Voting.sol\":4318:4339  WorkflowStatus status */\n      0x00\n        /* \"Voting.sol\":4342:4349  session */\n      0x01\n        /* \"Voting.sol\":4342:4356  session.status */\n      0x00\n      add\n      0x00\n      swap1\n      sload\n      swap1\n      0x0100\n      exp\n      swap1\n      div\n      0xff\n      and\n        /* \"Voting.sol\":4318:4356  WorkflowStatus status = session.status */\n      swap1\n      pop\n        /* \"Voting.sol\":4383:4416  WorkflowStatus.VotingSessionEnded */\n      0x04\n        /* \"Voting.sol\":4366:4373  session */\n      0x01\n        /* \"Voting.sol\":4366:4380  session.status */\n      0x00\n      add\n      0x00\n        /* \"Voting.sol\":4366:4416  session.status = WorkflowStatus.VotingSessionEnded */\n      0x0100\n      exp\n      dup2\n      sload\n      dup2\n      0xff\n      mul\n      not\n      and\n      swap1\n      dup4\n      0x05\n      dup2\n      gt\n      iszero\n      tag_204\n      jumpi\n      tag_205\n      tag_100\n      jump\t// in\n    tag_205:\n    tag_204:\n      mul\n      or\n      swap1\n      sstore\n      pop\n        /* \"Voting.sol\":4431:4475  WorkflowStatusChange(status, session.status) */\n      0x0a97a4ee45751e2abf3e4fc8946939630b11b371ea8ae39ccdc3056e98f5cc3f\n        /* \"Voting.sol\":4452:4458  status */\n      dup2\n        /* \"Voting.sol\":4460:4467  session */\n      0x01\n        /* \"Voting.sol\":4460:4474  session.status */\n      0x00\n      add\n      0x00\n      swap1\n      sload\n      swap1\n      0x0100\n      exp\n      swap1\n      div\n      0xff\n      and\n        /* \"Voting.sol\":4431:4475  WorkflowStatusChange(status, session.status) */\n      mload(0x40)\n      tag_206\n      swap3\n      swap2\n      swap1\n      tag_102\n      jump\t// in\n    tag_206:\n      mload(0x40)\n      dup1\n      swap2\n      sub\n      swap1\n      log1\n        /* \"Voting.sol\":4308:4482  {... */\n      pop\n        /* \"Voting.sol\":4245:4482  function endVoteSession() external onlyOwner voteSessionActive {... */\n      jump\t// out\n        /* \"Voting.sol\":5745:5819  function resetSession() external onlyOwner {... */\n    tag_73:\n        /* \"@openzeppelin/contracts/access/Ownable.sol\":1094:1107  _checkOwner() */\n      tag_208\n        /* \"@openzeppelin/contracts/access/Ownable.sol\":1094:1105  _checkOwner */\n      tag_93\n        /* \"@openzeppelin/contracts/access/Ownable.sol\":1094:1107  _checkOwner() */\n      jump\t// in\n    tag_208:\n        /* \"Voting.sol\":5798:5812  _resetVoting() */\n      tag_210\n        /* \"Voting.sol\":5798:5810  _resetVoting */\n      tag_211\n        /* \"Voting.sol\":5798:5812  _resetVoting() */\n      jump\t// in\n    tag_210:\n        /* \"Voting.sol\":5745:5819  function resetSession() external onlyOwner {... */\n      jump\t// out\n        /* \"@openzeppelin/contracts/access/Ownable.sol\":1359:1489  function _checkOwner() internal view virtual {... */\n    tag_93:\n        /* \"@openzeppelin/contracts/access/Ownable.sol\":1433:1445  _msgSender() */\n      tag_213\n        /* \"@openzeppelin/contracts/access/Ownable.sol\":1433:1443  _msgSender */\n      tag_214\n        /* \"@openzeppelin/contracts/access/Ownable.sol\":1433:1445  _msgSender() */\n      jump\t// in\n    tag_213:\n        /* \"@openzeppelin/contracts/access/Ownable.sol\":1422:1445  owner() == _msgSender() */\n      0xffffffffffffffffffffffffffffffffffffffff\n      and\n        /* \"@openzeppelin/contracts/access/Ownable.sol\":1422:1429  owner() */\n      tag_215\n        /* \"@openzeppelin/contracts/access/Ownable.sol\":1422:1427  owner */\n      tag_53\n        /* \"@openzeppelin/contracts/access/Ownable.sol\":1422:1429  owner() */\n      jump\t// in\n    tag_215:\n        /* \"@openzeppelin/contracts/access/Ownable.sol\":1422:1445  owner() == _msgSender() */\n      0xffffffffffffffffffffffffffffffffffffffff\n      and\n      eq\n        /* \"@openzeppelin/contracts/access/Ownable.sol\":1414:1482  require(owner() == _msgSender(), \"Ownable: caller is not the owner\") */\n      tag_216\n      jumpi\n      mload(0x40)\n      0x08c379a000000000000000000000000000000000000000000000000000000000\n      dup2\n      mstore\n      0x04\n      add\n      tag_217\n      swap1\n      tag_218\n      jump\t// in\n    tag_217:\n      mload(0x40)\n      dup1\n      swap2\n      sub\n      swap1\n      revert\n    tag_216:\n        /* \"@openzeppelin/contracts/access/Ownable.sol\":1359:1489  function _checkOwner() internal view virtual {... */\n      jump\t// out\n        /* \"Voting.sol\":1701:1880  function _wrongPhase(WorkflowStatus _status) internal view {... */\n    tag_96:\n        /* \"Voting.sol\":1792:1799  _status */\n      dup1\n        /* \"Voting.sol\":1774:1799  session.status != _status */\n      0x05\n      dup2\n      gt\n      iszero\n      tag_220\n      jumpi\n      tag_221\n      tag_100\n      jump\t// in\n    tag_221:\n    tag_220:\n        /* \"Voting.sol\":1774:1781  session */\n      0x01\n        /* \"Voting.sol\":1774:1788  session.status */\n      0x00\n      add\n      0x00\n      swap1\n      sload\n      swap1\n      0x0100\n      exp\n      swap1\n      div\n      0xff\n      and\n        /* \"Voting.sol\":1774:1799  session.status != _status */\n      0x05\n      dup2\n      gt\n      iszero\n      tag_222\n      jumpi\n      tag_223\n      tag_100\n      jump\t// in\n    tag_223:\n    tag_222:\n      eq\n        /* \"Voting.sol\":1770:1874  if (session.status != _status) {... */\n      tag_224\n      jumpi\n        /* \"Voting.sol\":1839:1846  _status */\n      dup1\n        /* \"Voting.sol\":1848:1855  session */\n      0x01\n        /* \"Voting.sol\":1848:1862  session.status */\n      0x00\n      add\n      0x00\n      swap1\n      sload\n      swap1\n      0x0100\n      exp\n      swap1\n      div\n      0xff\n      and\n        /* \"Voting.sol\":1822:1863  WrongPhaseStatus(_status, session.status) */\n      mload(0x40)\n      0x586a712d00000000000000000000000000000000000000000000000000000000\n      dup2\n      mstore\n      0x04\n      add\n      tag_225\n      swap3\n      swap2\n      swap1\n      tag_102\n      jump\t// in\n    tag_225:\n      mload(0x40)\n      dup1\n      swap2\n      sub\n      swap1\n      revert\n        /* \"Voting.sol\":1770:1874  if (session.status != _status) {... */\n    tag_224:\n        /* \"Voting.sol\":1701:1880  function _wrongPhase(WorkflowStatus _status) internal view {... */\n      pop\n      jump\t// out\n        /* \"@openzeppelin/contracts/access/Ownable.sol\":2426:2613  function _transferOwnership(address newOwner) internal virtual {... */\n    tag_161:\n        /* \"@openzeppelin/contracts/access/Ownable.sol\":2499:2515  address oldOwner */\n      0x00\n        /* \"@openzeppelin/contracts/access/Ownable.sol\":2518:2524  _owner */\n      dup1\n      0x00\n      swap1\n      sload\n      swap1\n      0x0100\n      exp\n      swap1\n      div\n      0xffffffffffffffffffffffffffffffffffffffff\n      and\n        /* \"@openzeppelin/contracts/access/Ownable.sol\":2499:2524  address oldOwner = _owner */\n      swap1\n      pop\n        /* \"@openzeppelin/contracts/access/Ownable.sol\":2543:2551  newOwner */\n      dup2\n        /* \"@openzeppelin/contracts/access/Ownable.sol\":2534:2540  _owner */\n      0x00\n      dup1\n        /* \"@openzeppelin/contracts/access/Ownable.sol\":2534:2551  _owner = newOwner */\n      0x0100\n      exp\n      dup2\n      sload\n      dup2\n      0xffffffffffffffffffffffffffffffffffffffff\n      mul\n      not\n      and\n      swap1\n      dup4\n      0xffffffffffffffffffffffffffffffffffffffff\n      and\n      mul\n      or\n      swap1\n      sstore\n      pop\n        /* \"@openzeppelin/contracts/access/Ownable.sol\":2597:2605  newOwner */\n      dup2\n        /* \"@openzeppelin/contracts/access/Ownable.sol\":2566:2606  OwnershipTransferred(oldOwner, newOwner) */\n      0xffffffffffffffffffffffffffffffffffffffff\n      and\n        /* \"@openzeppelin/contracts/access/Ownable.sol\":2587:2595  oldOwner */\n      dup2\n        /* \"@openzeppelin/contracts/access/Ownable.sol\":2566:2606  OwnershipTransferred(oldOwner, newOwner) */\n      0xffffffffffffffffffffffffffffffffffffffff\n      and\n      0x8be0079c531659141344cd1fd0a4f28419497f9722a3daafe3b4186f6b6457e0\n      mload(0x40)\n      mload(0x40)\n      dup1\n      swap2\n      sub\n      swap1\n      log3\n        /* \"@openzeppelin/contracts/access/Ownable.sol\":2489:2613  {... */\n      pop\n        /* \"@openzeppelin/contracts/access/Ownable.sol\":2426:2613  function _transferOwnership(address newOwner) internal virtual {... */\n      pop\n      jump\t// out\n        /* \"Voting.sol\":1360:1497  function _resetVoting() private onlyOwner {... */\n    tag_211:\n        /* \"@openzeppelin/contracts/access/Ownable.sol\":1094:1107  _checkOwner() */\n      tag_228\n        /* \"@openzeppelin/contracts/access/Ownable.sol\":1094:1105  _checkOwner */\n      tag_93\n        /* \"@openzeppelin/contracts/access/Ownable.sol\":1094:1107  _checkOwner() */\n      jump\t// in\n    tag_228:\n        /* \"Voting.sol\":1429:1461  WorkflowStatus.RegisteringVoters */\n      0x00\n        /* \"Voting.sol\":1412:1419  session */\n      0x01\n        /* \"Voting.sol\":1412:1426  session.status */\n      0x00\n      add\n      0x00\n        /* \"Voting.sol\":1412:1461  session.status = WorkflowStatus.RegisteringVoters */\n      0x0100\n      exp\n      dup2\n      sload\n      dup2\n      0xff\n      mul\n      not\n      and\n      swap1\n      dup4\n      0x05\n      dup2\n      gt\n      iszero\n      tag_230\n      jumpi\n      tag_231\n      tag_100\n      jump\t// in\n    tag_231:\n    tag_230:\n      mul\n      or\n      swap1\n      sstore\n      pop\n        /* \"Voting.sol\":1471:1486  resetProposal() */\n      tag_232\n        /* \"Voting.sol\":1471:1484  resetProposal */\n      tag_47\n        /* \"Voting.sol\":1471:1486  resetProposal() */\n      jump\t// in\n    tag_232:\n        /* \"Voting.sol\":1360:1497  function _resetVoting() private onlyOwner {... */\n      jump\t// out\n        /* \"@openzeppelin/contracts/utils/Context.sol\":640:736  function _msgSender() internal view virtual returns (address) {... */\n    tag_214:\n        /* \"@openzeppelin/contracts/utils/Context.sol\":693:700  address */\n      0x00\n        /* \"@openzeppelin/contracts/utils/Context.sol\":719:729  msg.sender */\n      caller\n        /* \"@openzeppelin/contracts/utils/Context.sol\":712:729  return msg.sender */\n      swap1\n      pop\n        /* \"@openzeppelin/contracts/utils/Context.sol\":640:736  function _msgSender() internal view virtual returns (address) {... */\n      swap1\n      jump\t// out\n    tag_145:\n      pop\n      dup1\n      sload\n      0x00\n      dup3\n      sstore\n      0x02\n      mul\n      swap1\n      0x00\n      mstore\n      keccak256(0x00, 0x20)\n      swap1\n      dup2\n      add\n      swap1\n      tag_235\n      swap2\n      swap1\n      tag_236\n      jump\t// in\n    tag_235:\n      pop\n      jump\t// out\n    tag_236:\n    tag_237:\n      dup1\n      dup3\n      gt\n      iszero\n      tag_238\n      jumpi\n      0x00\n      dup1\n      dup3\n      add\n      0x00\n      tag_239\n      swap2\n      swap1\n      tag_240\n      jump\t// in\n    tag_239:\n      0x01\n      dup3\n      add\n      0x00\n      swap1\n      sstore\n      pop\n      0x02\n      add\n      jump(tag_237)\n    tag_238:\n      pop\n      swap1\n      jump\t// out\n    tag_240:\n      pop\n      dup1\n      sload\n      tag_241\n      swap1\n      tag_108\n      jump\t// in\n    tag_241:\n      0x00\n      dup3\n      sstore\n      dup1\n      0x1f\n      lt\n      tag_243\n      jumpi\n      pop\n      jump(tag_242)\n    tag_243:\n      0x1f\n      add\n      0x20\n      swap1\n      div\n      swap1\n      0x00\n      mstore\n      keccak256(0x00, 0x20)\n      swap1\n      dup2\n      add\n      swap1\n      tag_244\n      swap2\n      swap1\n      tag_245\n      jump\t// in\n    tag_244:\n    tag_242:\n      pop\n      jump\t// out\n    tag_245:\n    tag_246:\n      dup1\n      dup3\n      gt\n      iszero\n      tag_247\n      jumpi\n      0x00\n      dup2\n      0x00\n      swap1\n      sstore\n      pop\n      0x01\n      add\n      jump(tag_246)\n    tag_247:\n      pop\n      swap1\n      jump\t// out\n        /* \"#utility.yul\":7:82   */\n    tag_248:\n        /* \"#utility.yul\":40:46   */\n      0x00\n        /* \"#utility.yul\":73:75   */\n      0x40\n        /* \"#utility.yul\":67:76   */\n      mload\n        /* \"#utility.yul\":57:76   */\n      swap1\n      pop\n        /* \"#utility.yul\":7:82   */\n      swap1\n      jump\t// out\n        /* \"#utility.yul\":88:205   */\n    tag_249:\n        /* \"#utility.yul\":197:198   */\n      0x00\n        /* \"#utility.yul\":194:195   */\n      dup1\n        /* \"#utility.yul\":187:199   */\n      revert\n        /* \"#utility.yul\":211:328   */\n    tag_250:\n        /* \"#utility.yul\":320:321   */\n      0x00\n        /* \"#utility.yul\":317:318   */\n      dup1\n        /* \"#utility.yul\":310:322   */\n      revert\n        /* \"#utility.yul\":334:411   */\n    tag_251:\n        /* \"#utility.yul\":371:378   */\n      0x00\n        /* \"#utility.yul\":400:405   */\n      dup2\n        /* \"#utility.yul\":389:405   */\n      swap1\n      pop\n        /* \"#utility.yul\":334:411   */\n      swap2\n      swap1\n      pop\n      jump\t// out\n        /* \"#utility.yul\":417:539   */\n    tag_252:\n        /* \"#utility.yul\":490:514   */\n      tag_318\n        /* \"#utility.yul\":508:513   */\n      dup2\n        /* \"#utility.yul\":490:514   */\n      tag_251\n      jump\t// in\n    tag_318:\n        /* \"#utility.yul\":483:488   */\n      dup2\n        /* \"#utility.yul\":480:515   */\n      eq\n        /* \"#utility.yul\":470:533   */\n      tag_319\n      jumpi\n        /* \"#utility.yul\":529:530   */\n      0x00\n        /* \"#utility.yul\":526:527   */\n      dup1\n        /* \"#utility.yul\":519:531   */\n      revert\n        /* \"#utility.yul\":470:533   */\n    tag_319:\n        /* \"#utility.yul\":417:539   */\n      pop\n      jump\t// out\n        /* \"#utility.yul\":545:684   */\n    tag_253:\n        /* \"#utility.yul\":591:596   */\n      0x00\n        /* \"#utility.yul\":629:635   */\n      dup2\n        /* \"#utility.yul\":616:636   */\n      calldataload\n        /* \"#utility.yul\":607:636   */\n      swap1\n      pop\n        /* \"#utility.yul\":645:678   */\n      tag_321\n        /* \"#utility.yul\":672:677   */\n      dup2\n        /* \"#utility.yul\":645:678   */\n      tag_252\n      jump\t// in\n    tag_321:\n        /* \"#utility.yul\":545:684   */\n      swap3\n      swap2\n      pop\n      pop\n      jump\t// out\n        /* \"#utility.yul\":690:1019   */\n    tag_26:\n        /* \"#utility.yul\":749:755   */\n      0x00\n        /* \"#utility.yul\":798:800   */\n      0x20\n        /* \"#utility.yul\":786:795   */\n      dup3\n        /* \"#utility.yul\":777:784   */\n      dup5\n        /* \"#utility.yul\":773:796   */\n      sub\n        /* \"#utility.yul\":769:801   */\n      slt\n        /* \"#utility.yul\":766:885   */\n      iszero\n      tag_323\n      jumpi\n        /* \"#utility.yul\":804:883   */\n      tag_324\n      tag_249\n      jump\t// in\n    tag_324:\n        /* \"#utility.yul\":766:885   */\n    tag_323:\n        /* \"#utility.yul\":924:925   */\n      0x00\n        /* \"#utility.yul\":949:1002   */\n      tag_325\n        /* \"#utility.yul\":994:1001   */\n      dup5\n        /* \"#utility.yul\":985:991   */\n      dup3\n        /* \"#utility.yul\":974:983   */\n      dup6\n        /* \"#utility.yul\":970:992   */\n      add\n        /* \"#utility.yul\":949:1002   */\n      tag_253\n      jump\t// in\n    tag_325:\n        /* \"#utility.yul\":939:1002   */\n      swap2\n      pop\n        /* \"#utility.yul\":895:1012   */\n      pop\n        /* \"#utility.yul\":690:1019   */\n      swap3\n      swap2\n      pop\n      pop\n      jump\t// out\n        /* \"#utility.yul\":1025:1164   */\n    tag_254:\n        /* \"#utility.yul\":1117:1123   */\n      0x00\n        /* \"#utility.yul\":1151:1156   */\n      dup2\n        /* \"#utility.yul\":1145:1157   */\n      mload\n        /* \"#utility.yul\":1135:1157   */\n      swap1\n      pop\n        /* \"#utility.yul\":1025:1164   */\n      swap2\n      swap1\n      pop\n      jump\t// out\n        /* \"#utility.yul\":1170:1379   */\n    tag_255:\n        /* \"#utility.yul\":1294:1305   */\n      0x00\n        /* \"#utility.yul\":1328:1334   */\n      dup3\n        /* \"#utility.yul\":1323:1326   */\n      dup3\n        /* \"#utility.yul\":1316:1335   */\n      mstore\n        /* \"#utility.yul\":1368:1372   */\n      0x20\n        /* \"#utility.yul\":1363:1366   */\n      dup3\n        /* \"#utility.yul\":1359:1373   */\n      add\n        /* \"#utility.yul\":1344:1373   */\n      swap1\n      pop\n        /* \"#utility.yul\":1170:1379   */\n      swap3\n      swap2\n      pop\n      pop\n      jump\t// out\n        /* \"#utility.yul\":1385:1542   */\n    tag_256:\n        /* \"#utility.yul\":1477:1481   */\n      0x00\n        /* \"#utility.yul\":1500:1503   */\n      dup2\n        /* \"#utility.yul\":1492:1503   */\n      swap1\n      pop\n        /* \"#utility.yul\":1530:1534   */\n      0x20\n        /* \"#utility.yul\":1525:1528   */\n      dup3\n        /* \"#utility.yul\":1521:1535   */\n      add\n        /* \"#utility.yul\":1513:1535   */\n      swap1\n      pop\n        /* \"#utility.yul\":1385:1542   */\n      swap2\n      swap1\n      pop\n      jump\t// out\n        /* \"#utility.yul\":1548:1647   */\n    tag_257:\n        /* \"#utility.yul\":1600:1606   */\n      0x00\n        /* \"#utility.yul\":1634:1639   */\n      dup2\n        /* \"#utility.yul\":1628:1640   */\n      mload\n        /* \"#utility.yul\":1618:1640   */\n      swap1\n      pop\n        /* \"#utility.yul\":1548:1647   */\n      swap2\n      swap1\n      pop\n      jump\t// out\n        /* \"#utility.yul\":1653:1812   */\n    tag_258:\n        /* \"#utility.yul\":1727:1738   */\n      0x00\n        /* \"#utility.yul\":1761:1767   */\n      dup3\n        /* \"#utility.yul\":1756:1759   */\n      dup3\n        /* \"#utility.yul\":1749:1768   */\n      mstore\n        /* \"#utility.yul\":1801:1805   */\n      0x20\n        /* \"#utility.yul\":1796:1799   */\n      dup3\n        /* \"#utility.yul\":1792:1806   */\n      add\n        /* \"#utility.yul\":1777:1806   */\n      swap1\n      pop\n        /* \"#utility.yul\":1653:1812   */\n      swap3\n      swap2\n      pop\n      pop\n      jump\t// out\n        /* \"#utility.yul\":1818:2064   */\n    tag_259:\n        /* \"#utility.yul\":1899:1900   */\n      0x00\n        /* \"#utility.yul\":1909:2022   */\n    tag_332:\n        /* \"#utility.yul\":1923:1929   */\n      dup4\n        /* \"#utility.yul\":1920:1921   */\n      dup2\n        /* \"#utility.yul\":1917:1930   */\n      lt\n        /* \"#utility.yul\":1909:2022   */\n      iszero\n      tag_334\n      jumpi\n        /* \"#utility.yul\":2008:2009   */\n      dup1\n        /* \"#utility.yul\":2003:2006   */\n      dup3\n        /* \"#utility.yul\":1999:2010   */\n      add\n        /* \"#utility.yul\":1993:2011   */\n      mload\n        /* \"#utility.yul\":1989:1990   */\n      dup2\n        /* \"#utility.yul\":1984:1987   */\n      dup5\n        /* \"#utility.yul\":1980:1991   */\n      add\n        /* \"#utility.yul\":1973:2012   */\n      mstore\n        /* \"#utility.yul\":1945:1947   */\n      0x20\n        /* \"#utility.yul\":1942:1943   */\n      dup2\n        /* \"#utility.yul\":1938:1948   */\n      add\n        /* \"#utility.yul\":1933:1948   */\n      swap1\n      pop\n        /* \"#utility.yul\":1909:2022   */\n      jump(tag_332)\n    tag_334:\n        /* \"#utility.yul\":2056:2057   */\n      0x00\n        /* \"#utility.yul\":2047:2053   */\n      dup5\n        /* \"#utility.yul\":2042:2045   */\n      dup5\n        /* \"#utility.yul\":2038:2054   */\n      add\n        /* \"#utility.yul\":2031:2058   */\n      mstore\n        /* \"#utility.yul\":1880:2064   */\n      pop\n        /* \"#utility.yul\":1818:2064   */\n      pop\n      pop\n      pop\n      jump\t// out\n        /* \"#utility.yul\":2070:2172   */\n    tag_260:\n        /* \"#utility.yul\":2111:2117   */\n      0x00\n        /* \"#utility.yul\":2162:2164   */\n      0x1f\n        /* \"#utility.yul\":2158:2165   */\n      not\n        /* \"#utility.yul\":2153:2155   */\n      0x1f\n        /* \"#utility.yul\":2146:2151   */\n      dup4\n        /* \"#utility.yul\":2142:2156   */\n      add\n        /* \"#utility.yul\":2138:2166   */\n      and\n        /* \"#utility.yul\":2128:2166   */\n      swap1\n      pop\n        /* \"#utility.yul\":2070:2172   */\n      swap2\n      swap1\n      pop\n      jump\t// out\n        /* \"#utility.yul\":2178:2535   */\n    tag_261:\n        /* \"#utility.yul\":2256:2259   */\n      0x00\n        /* \"#utility.yul\":2284:2323   */\n      tag_337\n        /* \"#utility.yul\":2317:2322   */\n      dup3\n        /* \"#utility.yul\":2284:2323   */\n      tag_257\n      jump\t// in\n    tag_337:\n        /* \"#utility.yul\":2339:2400   */\n      tag_338\n        /* \"#utility.yul\":2393:2399   */\n      dup2\n        /* \"#utility.yul\":2388:2391   */\n      dup6\n        /* \"#utility.yul\":2339:2400   */\n      tag_258\n      jump\t// in\n    tag_338:\n        /* \"#utility.yul\":2332:2400   */\n      swap4\n      pop\n        /* \"#utility.yul\":2409:2474   */\n      tag_339\n        /* \"#utility.yul\":2467:2473   */\n      dup2\n        /* \"#utility.yul\":2462:2465   */\n      dup6\n        /* \"#utility.yul\":2455:2459   */\n      0x20\n        /* \"#utility.yul\":2448:2453   */\n      dup7\n        /* \"#utility.yul\":2444:2460   */\n      add\n        /* \"#utility.yul\":2409:2474   */\n      tag_259\n      jump\t// in\n    tag_339:\n        /* \"#utility.yul\":2499:2528   */\n      tag_340\n        /* \"#utility.yul\":2521:2527   */\n      dup2\n        /* \"#utility.yul\":2499:2528   */\n      tag_260\n      jump\t// in\n    tag_340:\n        /* \"#utility.yul\":2494:2497   */\n      dup5\n        /* \"#utility.yul\":2490:2529   */\n      add\n        /* \"#utility.yul\":2483:2529   */\n      swap2\n      pop\n        /* \"#utility.yul\":2260:2535   */\n      pop\n        /* \"#utility.yul\":2178:2535   */\n      swap3\n      swap2\n      pop\n      pop\n      jump\t// out\n        /* \"#utility.yul\":2541:2649   */\n    tag_262:\n        /* \"#utility.yul\":2618:2642   */\n      tag_342\n        /* \"#utility.yul\":2636:2641   */\n      dup2\n        /* \"#utility.yul\":2618:2642   */\n      tag_251\n      jump\t// in\n    tag_342:\n        /* \"#utility.yul\":2613:2616   */\n      dup3\n        /* \"#utility.yul\":2606:2643   */\n      mstore\n        /* \"#utility.yul\":2541:2649   */\n      pop\n      pop\n      jump\t// out\n        /* \"#utility.yul\":2711:3319   */\n    tag_263:\n        /* \"#utility.yul\":2820:2823   */\n      0x00\n        /* \"#utility.yul\":2856:2860   */\n      0x40\n        /* \"#utility.yul\":2851:2854   */\n      dup4\n        /* \"#utility.yul\":2847:2861   */\n      add\n        /* \"#utility.yul\":2950:2954   */\n      0x00\n        /* \"#utility.yul\":2943:2948   */\n      dup4\n        /* \"#utility.yul\":2939:2955   */\n      add\n        /* \"#utility.yul\":2933:2956   */\n      mload\n        /* \"#utility.yul\":3003:3006   */\n      dup5\n        /* \"#utility.yul\":2997:3001   */\n      dup3\n        /* \"#utility.yul\":2993:3007   */\n      sub\n        /* \"#utility.yul\":2986:2990   */\n      0x00\n        /* \"#utility.yul\":2981:2984   */\n      dup7\n        /* \"#utility.yul\":2977:2991   */\n      add\n        /* \"#utility.yul\":2970:3008   */\n      mstore\n        /* \"#utility.yul\":3029:3102   */\n      tag_344\n        /* \"#utility.yul\":3097:3101   */\n      dup3\n        /* \"#utility.yul\":3083:3095   */\n      dup3\n        /* \"#utility.yul\":3029:3102   */\n      tag_261\n      jump\t// in\n    tag_344:\n        /* \"#utility.yul\":3021:3102   */\n      swap2\n      pop\n        /* \"#utility.yul\":2871:3113   */\n      pop\n        /* \"#utility.yul\":3200:3204   */\n      0x20\n        /* \"#utility.yul\":3193:3198   */\n      dup4\n        /* \"#utility.yul\":3189:3205   */\n      add\n        /* \"#utility.yul\":3183:3206   */\n      mload\n        /* \"#utility.yul\":3219:3282   */\n      tag_345\n        /* \"#utility.yul\":3276:3280   */\n      0x20\n        /* \"#utility.yul\":3271:3274   */\n      dup7\n        /* \"#utility.yul\":3267:3281   */\n      add\n        /* \"#utility.yul\":3253:3265   */\n      dup3\n        /* \"#utility.yul\":3219:3282   */\n      tag_262\n      jump\t// in\n    tag_345:\n        /* \"#utility.yul\":3123:3292   */\n      pop\n        /* \"#utility.yul\":3309:3313   */\n      dup1\n        /* \"#utility.yul\":3302:3313   */\n      swap2\n      pop\n        /* \"#utility.yul\":2825:3319   */\n      pop\n        /* \"#utility.yul\":2711:3319   */\n      swap3\n      swap2\n      pop\n      pop\n      jump\t// out\n        /* \"#utility.yul\":3325:3581   */\n    tag_264:\n        /* \"#utility.yul\":3444:3454   */\n      0x00\n        /* \"#utility.yul\":3479:3575   */\n      tag_347\n        /* \"#utility.yul\":3571:3574   */\n      dup4\n        /* \"#utility.yul\":3563:3569   */\n      dup4\n        /* \"#utility.yul\":3479:3575   */\n      tag_263\n      jump\t// in\n    tag_347:\n        /* \"#utility.yul\":3465:3575   */\n      swap1\n      pop\n        /* \"#utility.yul\":3325:3581   */\n      swap3\n      swap2\n      pop\n      pop\n      jump\t// out\n        /* \"#utility.yul\":3587:3725   */\n    tag_265:\n        /* \"#utility.yul\":3682:3686   */\n      0x00\n        /* \"#utility.yul\":3714:3718   */\n      0x20\n        /* \"#utility.yul\":3709:3712   */\n      dup3\n        /* \"#utility.yul\":3705:3719   */\n      add\n        /* \"#utility.yul\":3697:3719   */\n      swap1\n      pop\n        /* \"#utility.yul\":3587:3725   */\n      swap2\n      swap1\n      pop\n      jump\t// out\n        /* \"#utility.yul\":3791:4902   */\n    tag_266:\n        /* \"#utility.yul\":3960:3963   */\n      0x00\n        /* \"#utility.yul\":3989:4068   */\n      tag_350\n        /* \"#utility.yul\":4062:4067   */\n      dup3\n        /* \"#utility.yul\":3989:4068   */\n      tag_254\n      jump\t// in\n    tag_350:\n        /* \"#utility.yul\":4084:4195   */\n      tag_351\n        /* \"#utility.yul\":4188:4194   */\n      dup2\n        /* \"#utility.yul\":4183:4186   */\n      dup6\n        /* \"#utility.yul\":4084:4195   */\n      tag_255\n      jump\t// in\n    tag_351:\n        /* \"#utility.yul\":4077:4195   */\n      swap4\n      pop\n        /* \"#utility.yul\":4221:4224   */\n      dup4\n        /* \"#utility.yul\":4266:4270   */\n      0x20\n        /* \"#utility.yul\":4258:4264   */\n      dup3\n        /* \"#utility.yul\":4254:4271   */\n      mul\n        /* \"#utility.yul\":4249:4252   */\n      dup6\n        /* \"#utility.yul\":4245:4272   */\n      add\n        /* \"#utility.yul\":4296:4377   */\n      tag_352\n        /* \"#utility.yul\":4371:4376   */\n      dup6\n        /* \"#utility.yul\":4296:4377   */\n      tag_256\n      jump\t// in\n    tag_352:\n        /* \"#utility.yul\":4400:4407   */\n      dup1\n        /* \"#utility.yul\":4431:4432   */\n      0x00\n        /* \"#utility.yul\":4416:4857   */\n    tag_353:\n        /* \"#utility.yul\":4441:4447   */\n      dup6\n        /* \"#utility.yul\":4438:4439   */\n      dup2\n        /* \"#utility.yul\":4435:4448   */\n      lt\n        /* \"#utility.yul\":4416:4857   */\n      iszero\n      tag_355\n      jumpi\n        /* \"#utility.yul\":4512:4521   */\n      dup5\n        /* \"#utility.yul\":4506:4510   */\n      dup5\n        /* \"#utility.yul\":4502:4522   */\n      sub\n        /* \"#utility.yul\":4497:4500   */\n      dup10\n        /* \"#utility.yul\":4490:4523   */\n      mstore\n        /* \"#utility.yul\":4563:4569   */\n      dup2\n        /* \"#utility.yul\":4557:4570   */\n      mload\n        /* \"#utility.yul\":4591:4705   */\n      tag_356\n        /* \"#utility.yul\":4700:4704   */\n      dup6\n        /* \"#utility.yul\":4685:4698   */\n      dup3\n        /* \"#utility.yul\":4591:4705   */\n      tag_264\n      jump\t// in\n    tag_356:\n        /* \"#utility.yul\":4583:4705   */\n      swap5\n      pop\n        /* \"#utility.yul\":4728:4813   */\n      tag_357\n        /* \"#utility.yul\":4806:4812   */\n      dup4\n        /* \"#utility.yul\":4728:4813   */\n      tag_265\n      jump\t// in\n    tag_357:\n        /* \"#utility.yul\":4718:4813   */\n      swap3\n      pop\n        /* \"#utility.yul\":4842:4846   */\n      0x20\n        /* \"#utility.yul\":4837:4840   */\n      dup11\n        /* \"#utility.yul\":4833:4847   */\n      add\n        /* \"#utility.yul\":4826:4847   */\n      swap10\n      pop\n        /* \"#utility.yul\":4476:4857   */\n      pop\n        /* \"#utility.yul\":4463:4464   */\n      0x01\n        /* \"#utility.yul\":4460:4461   */\n      dup2\n        /* \"#utility.yul\":4456:4465   */\n      add\n        /* \"#utility.yul\":4451:4465   */\n      swap1\n      pop\n        /* \"#utility.yul\":4416:4857   */\n      jump(tag_353)\n    tag_355:\n        /* \"#utility.yul\":4420:4434   */\n      pop\n        /* \"#utility.yul\":4873:4877   */\n      dup3\n        /* \"#utility.yul\":4866:4877   */\n      swap8\n      pop\n        /* \"#utility.yul\":4893:4896   */\n      dup8\n        /* \"#utility.yul\":4886:4896   */\n      swap6\n      pop\n        /* \"#utility.yul\":3965:4902   */\n      pop\n      pop\n      pop\n      pop\n      pop\n        /* \"#utility.yul\":3791:4902   */\n      swap3\n      swap2\n      pop\n      pop\n      jump\t// out\n        /* \"#utility.yul\":4908:5381   */\n    tag_33:\n        /* \"#utility.yul\":5101:5105   */\n      0x00\n        /* \"#utility.yul\":5139:5141   */\n      0x20\n        /* \"#utility.yul\":5128:5137   */\n      dup3\n        /* \"#utility.yul\":5124:5142   */\n      add\n        /* \"#utility.yul\":5116:5142   */\n      swap1\n      pop\n        /* \"#utility.yul\":5188:5197   */\n      dup2\n        /* \"#utility.yul\":5182:5186   */\n      dup2\n        /* \"#utility.yul\":5178:5198   */\n      sub\n        /* \"#utility.yul\":5174:5175   */\n      0x00\n        /* \"#utility.yul\":5163:5172   */\n      dup4\n        /* \"#utility.yul\":5159:5176   */\n      add\n        /* \"#utility.yul\":5152:5199   */\n      mstore\n        /* \"#utility.yul\":5216:5374   */\n      tag_359\n        /* \"#utility.yul\":5369:5373   */\n      dup2\n        /* \"#utility.yul\":5360:5366   */\n      dup5\n        /* \"#utility.yul\":5216:5374   */\n      tag_266\n      jump\t// in\n    tag_359:\n        /* \"#utility.yul\":5208:5374   */\n      swap1\n      pop\n        /* \"#utility.yul\":4908:5381   */\n      swap3\n      swap2\n      pop\n      pop\n      jump\t// out\n        /* \"#utility.yul\":5387:5504   */\n    tag_267:\n        /* \"#utility.yul\":5496:5497   */\n      0x00\n        /* \"#utility.yul\":5493:5494   */\n      dup1\n        /* \"#utility.yul\":5486:5498   */\n      revert\n        /* \"#utility.yul\":5510:5627   */\n    tag_268:\n        /* \"#utility.yul\":5619:5620   */\n      0x00\n        /* \"#utility.yul\":5616:5617   */\n      dup1\n        /* \"#utility.yul\":5609:5621   */\n      revert\n        /* \"#utility.yul\":5633:5813   */\n    tag_269:\n        /* \"#utility.yul\":5681:5758   */\n      0x4e487b7100000000000000000000000000000000000000000000000000000000\n        /* \"#utility.yul\":5678:5679   */\n      0x00\n        /* \"#utility.yul\":5671:5759   */\n      mstore\n        /* \"#utility.yul\":5778:5782   */\n      0x41\n        /* \"#utility.yul\":5775:5776   */\n      0x04\n        /* \"#utility.yul\":5768:5783   */\n      mstore\n        /* \"#utility.yul\":5802:5806   */\n      0x24\n        /* \"#utility.yul\":5799:5800   */\n      0x00\n        /* \"#utility.yul\":5792:5807   */\n      revert\n        /* \"#utility.yul\":5819:6100   */\n    tag_270:\n        /* \"#utility.yul\":5902:5929   */\n      tag_364\n        /* \"#utility.yul\":5924:5928   */\n      dup3\n        /* \"#utility.yul\":5902:5929   */\n      tag_260\n      jump\t// in\n    tag_364:\n        /* \"#utility.yul\":5894:5900   */\n      dup2\n        /* \"#utility.yul\":5890:5930   */\n      add\n        /* \"#utility.yul\":6032:6038   */\n      dup2\n        /* \"#utility.yul\":6020:6030   */\n      dup2\n        /* \"#utility.yul\":6017:6039   */\n      lt\n        /* \"#utility.yul\":5996:6014   */\n      0xffffffffffffffff\n        /* \"#utility.yul\":5984:5994   */\n      dup3\n        /* \"#utility.yul\":5981:6015   */\n      gt\n        /* \"#utility.yul\":5978:6040   */\n      or\n        /* \"#utility.yul\":5975:6063   */\n      iszero\n      tag_365\n      jumpi\n        /* \"#utility.yul\":6043:6061   */\n      tag_366\n      tag_269\n      jump\t// in\n    tag_366:\n        /* \"#utility.yul\":5975:6063   */\n    tag_365:\n        /* \"#utility.yul\":6083:6093   */\n      dup1\n        /* \"#utility.yul\":6079:6081   */\n      0x40\n        /* \"#utility.yul\":6072:6094   */\n      mstore\n        /* \"#utility.yul\":5862:6100   */\n      pop\n        /* \"#utility.yul\":5819:6100   */\n      pop\n      pop\n      jump\t// out\n        /* \"#utility.yul\":6106:6235   */\n    tag_271:\n        /* \"#utility.yul\":6140:6146   */\n      0x00\n        /* \"#utility.yul\":6167:6187   */\n      tag_368\n      tag_248\n      jump\t// in\n    tag_368:\n        /* \"#utility.yul\":6157:6187   */\n      swap1\n      pop\n        /* \"#utility.yul\":6196:6229   */\n      tag_369\n        /* \"#utility.yul\":6224:6228   */\n      dup3\n        /* \"#utility.yul\":6216:6222   */\n      dup3\n        /* \"#utility.yul\":6196:6229   */\n      tag_270\n      jump\t// in\n    tag_369:\n        /* \"#utility.yul\":6106:6235   */\n      swap2\n      swap1\n      pop\n      jump\t// out\n        /* \"#utility.yul\":6241:6549   */\n    tag_272:\n        /* \"#utility.yul\":6303:6307   */\n      0x00\n        /* \"#utility.yul\":6393:6411   */\n      0xffffffffffffffff\n        /* \"#utility.yul\":6385:6391   */\n      dup3\n        /* \"#utility.yul\":6382:6412   */\n      gt\n        /* \"#utility.yul\":6379:6435   */\n      iszero\n      tag_371\n      jumpi\n        /* \"#utility.yul\":6415:6433   */\n      tag_372\n      tag_269\n      jump\t// in\n    tag_372:\n        /* \"#utility.yul\":6379:6435   */\n    tag_371:\n        /* \"#utility.yul\":6453:6482   */\n      tag_373\n        /* \"#utility.yul\":6475:6481   */\n      dup3\n        /* \"#utility.yul\":6453:6482   */\n      tag_260\n      jump\t// in\n    tag_373:\n        /* \"#utility.yul\":6445:6482   */\n      swap1\n      pop\n        /* \"#utility.yul\":6537:6541   */\n      0x20\n        /* \"#utility.yul\":6531:6535   */\n      dup2\n        /* \"#utility.yul\":6527:6542   */\n      add\n        /* \"#utility.yul\":6519:6542   */\n      swap1\n      pop\n        /* \"#utility.yul\":6241:6549   */\n      swap2\n      swap1\n      pop\n      jump\t// out\n        /* \"#utility.yul\":6555:6701   */\n    tag_273:\n        /* \"#utility.yul\":6652:6658   */\n      dup3\n        /* \"#utility.yul\":6647:6650   */\n      dup2\n        /* \"#utility.yul\":6642:6645   */\n      dup4\n        /* \"#utility.yul\":6629:6659   */\n      calldatacopy\n        /* \"#utility.yul\":6693:6694   */\n      0x00\n        /* \"#utility.yul\":6684:6690   */\n      dup4\n        /* \"#utility.yul\":6679:6682   */\n      dup4\n        /* \"#utility.yul\":6675:6691   */\n      add\n        /* \"#utility.yul\":6668:6695   */\n      mstore\n        /* \"#utility.yul\":6555:6701   */\n      pop\n      pop\n      pop\n      jump\t// out\n        /* \"#utility.yul\":6707:7132   */\n    tag_274:\n        /* \"#utility.yul\":6785:6790   */\n      0x00\n        /* \"#utility.yul\":6810:6876   */\n      tag_376\n        /* \"#utility.yul\":6826:6875   */\n      tag_377\n        /* \"#utility.yul\":6868:6874   */\n      dup5\n        /* \"#utility.yul\":6826:6875   */\n      tag_272\n      jump\t// in\n    tag_377:\n        /* \"#utility.yul\":6810:6876   */\n      tag_271\n      jump\t// in\n    tag_376:\n        /* \"#utility.yul\":6801:6876   */\n      swap1\n      pop\n        /* \"#utility.yul\":6899:6905   */\n      dup3\n        /* \"#utility.yul\":6892:6897   */\n      dup2\n        /* \"#utility.yul\":6885:6906   */\n      mstore\n        /* \"#utility.yul\":6937:6941   */\n      0x20\n        /* \"#utility.yul\":6930:6935   */\n      dup2\n        /* \"#utility.yul\":6926:6942   */\n      add\n        /* \"#utility.yul\":6975:6978   */\n      dup5\n        /* \"#utility.yul\":6966:6972   */\n      dup5\n        /* \"#utility.yul\":6961:6964   */\n      dup5\n        /* \"#utility.yul\":6957:6973   */\n      add\n        /* \"#utility.yul\":6954:6979   */\n      gt\n        /* \"#utility.yul\":6951:7063   */\n      iszero\n      tag_378\n      jumpi\n        /* \"#utility.yul\":6982:7061   */\n      tag_379\n      tag_268\n      jump\t// in\n    tag_379:\n        /* \"#utility.yul\":6951:7063   */\n    tag_378:\n        /* \"#utility.yul\":7072:7126   */\n      tag_380\n        /* \"#utility.yul\":7119:7125   */\n      dup5\n        /* \"#utility.yul\":7114:7117   */\n      dup3\n        /* \"#utility.yul\":7109:7112   */\n      dup6\n        /* \"#utility.yul\":7072:7126   */\n      tag_273\n      jump\t// in\n    tag_380:\n        /* \"#utility.yul\":6791:7132   */\n      pop\n        /* \"#utility.yul\":6707:7132   */\n      swap4\n      swap3\n      pop\n      pop\n      pop\n      jump\t// out\n        /* \"#utility.yul\":7152:7492   */\n    tag_275:\n        /* \"#utility.yul\":7208:7213   */\n      0x00\n        /* \"#utility.yul\":7257:7260   */\n      dup3\n        /* \"#utility.yul\":7250:7254   */\n      0x1f\n        /* \"#utility.yul\":7242:7248   */\n      dup4\n        /* \"#utility.yul\":7238:7255   */\n      add\n        /* \"#utility.yul\":7234:7261   */\n      slt\n        /* \"#utility.yul\":7224:7346   */\n      tag_382\n      jumpi\n        /* \"#utility.yul\":7265:7344   */\n      tag_383\n      tag_267\n      jump\t// in\n    tag_383:\n        /* \"#utility.yul\":7224:7346   */\n    tag_382:\n        /* \"#utility.yul\":7382:7388   */\n      dup2\n        /* \"#utility.yul\":7369:7389   */\n      calldataload\n        /* \"#utility.yul\":7407:7486   */\n      tag_384\n        /* \"#utility.yul\":7482:7485   */\n      dup5\n        /* \"#utility.yul\":7474:7480   */\n      dup3\n        /* \"#utility.yul\":7467:7471   */\n      0x20\n        /* \"#utility.yul\":7459:7465   */\n      dup7\n        /* \"#utility.yul\":7455:7472   */\n      add\n        /* \"#utility.yul\":7407:7486   */\n      tag_274\n      jump\t// in\n    tag_384:\n        /* \"#utility.yul\":7398:7486   */\n      swap2\n      pop\n        /* \"#utility.yul\":7214:7492   */\n      pop\n        /* \"#utility.yul\":7152:7492   */\n      swap3\n      swap2\n      pop\n      pop\n      jump\t// out\n        /* \"#utility.yul\":7498:8007   */\n    tag_36:\n        /* \"#utility.yul\":7567:7573   */\n      0x00\n        /* \"#utility.yul\":7616:7618   */\n      0x20\n        /* \"#utility.yul\":7604:7613   */\n      dup3\n        /* \"#utility.yul\":7595:7602   */\n      dup5\n        /* \"#utility.yul\":7591:7614   */\n      sub\n        /* \"#utility.yul\":7587:7619   */\n      slt\n        /* \"#utility.yul\":7584:7703   */\n      iszero\n      tag_386\n      jumpi\n        /* \"#utility.yul\":7622:7701   */\n      tag_387\n      tag_249\n      jump\t// in\n    tag_387:\n        /* \"#utility.yul\":7584:7703   */\n    tag_386:\n        /* \"#utility.yul\":7770:7771   */\n      0x00\n        /* \"#utility.yul\":7759:7768   */\n      dup3\n        /* \"#utility.yul\":7755:7772   */\n      add\n        /* \"#utility.yul\":7742:7773   */\n      calldataload\n        /* \"#utility.yul\":7800:7818   */\n      0xffffffffffffffff\n        /* \"#utility.yul\":7792:7798   */\n      dup2\n        /* \"#utility.yul\":7789:7819   */\n      gt\n        /* \"#utility.yul\":7786:7903   */\n      iszero\n      tag_388\n      jumpi\n        /* \"#utility.yul\":7822:7901   */\n      tag_389\n      tag_250\n      jump\t// in\n    tag_389:\n        /* \"#utility.yul\":7786:7903   */\n    tag_388:\n        /* \"#utility.yul\":7927:7990   */\n      tag_390\n        /* \"#utility.yul\":7982:7989   */\n      dup5\n        /* \"#utility.yul\":7973:7979   */\n      dup3\n        /* \"#utility.yul\":7962:7971   */\n      dup6\n        /* \"#utility.yul\":7958:7980   */\n      add\n        /* \"#utility.yul\":7927:7990   */\n      tag_275\n      jump\t// in\n    tag_390:\n        /* \"#utility.yul\":7917:7990   */\n      swap2\n      pop\n        /* \"#utility.yul\":7713:8000   */\n      pop\n        /* \"#utility.yul\":7498:8007   */\n      swap3\n      swap2\n      pop\n      pop\n      jump\t// out\n        /* \"#utility.yul\":8013:8139   */\n    tag_276:\n        /* \"#utility.yul\":8050:8057   */\n      0x00\n        /* \"#utility.yul\":8090:8132   */\n      0xffffffffffffffffffffffffffffffffffffffff\n        /* \"#utility.yul\":8083:8088   */\n      dup3\n        /* \"#utility.yul\":8079:8133   */\n      and\n        /* \"#utility.yul\":8068:8133   */\n      swap1\n      pop\n        /* \"#utility.yul\":8013:8139   */\n      swap2\n      swap1\n      pop\n      jump\t// out\n        /* \"#utility.yul\":8145:8241   */\n    tag_277:\n        /* \"#utility.yul\":8182:8189   */\n      0x00\n        /* \"#utility.yul\":8211:8235   */\n      tag_393\n        /* \"#utility.yul\":8229:8234   */\n      dup3\n        /* \"#utility.yul\":8211:8235   */\n      tag_276\n      jump\t// in\n    tag_393:\n        /* \"#utility.yul\":8200:8235   */\n      swap1\n      pop\n        /* \"#utility.yul\":8145:8241   */\n      swap2\n      swap1\n      pop\n      jump\t// out\n        /* \"#utility.yul\":8247:8369   */\n    tag_278:\n        /* \"#utility.yul\":8320:8344   */\n      tag_395\n        /* \"#utility.yul\":8338:8343   */\n      dup2\n        /* \"#utility.yul\":8320:8344   */\n      tag_277\n      jump\t// in\n    tag_395:\n        /* \"#utility.yul\":8313:8318   */\n      dup2\n        /* \"#utility.yul\":8310:8345   */\n      eq\n        /* \"#utility.yul\":8300:8363   */\n      tag_396\n      jumpi\n        /* \"#utility.yul\":8359:8360   */\n      0x00\n        /* \"#utility.yul\":8356:8357   */\n      dup1\n        /* \"#utility.yul\":8349:8361   */\n      revert\n        /* \"#utility.yul\":8300:8363   */\n    tag_396:\n        /* \"#utility.yul\":8247:8369   */\n      pop\n      jump\t// out\n        /* \"#utility.yul\":8375:8514   */\n    tag_279:\n        /* \"#utility.yul\":8421:8426   */\n      0x00\n        /* \"#utility.yul\":8459:8465   */\n      dup2\n        /* \"#utility.yul\":8446:8466   */\n      calldataload\n        /* \"#utility.yul\":8437:8466   */\n      swap1\n      pop\n        /* \"#utility.yul\":8475:8508   */\n      tag_398\n        /* \"#utility.yul\":8502:8507   */\n      dup2\n        /* \"#utility.yul\":8475:8508   */\n      tag_278\n      jump\t// in\n    tag_398:\n        /* \"#utility.yul\":8375:8514   */\n      swap3\n      swap2\n      pop\n      pop\n      jump\t// out\n        /* \"#utility.yul\":8520:8849   */\n    tag_44:\n        /* \"#utility.yul\":8579:8585   */\n      0x00\n        /* \"#utility.yul\":8628:8630   */\n      0x20\n        /* \"#utility.yul\":8616:8625   */\n      dup3\n        /* \"#utility.yul\":8607:8614   */\n      dup5\n        /* \"#utility.yul\":8603:8626   */\n      sub\n        /* \"#utility.yul\":8599:8631   */\n      slt\n        /* \"#utility.yul\":8596:8715   */\n      iszero\n      tag_400\n      jumpi\n        /* \"#utility.yul\":8634:8713   */\n      tag_401\n      tag_249\n      jump\t// in\n    tag_401:\n        /* \"#utility.yul\":8596:8715   */\n    tag_400:\n        /* \"#utility.yul\":8754:8755   */\n      0x00\n        /* \"#utility.yul\":8779:8832   */\n      tag_402\n        /* \"#utility.yul\":8824:8831   */\n      dup5\n        /* \"#utility.yul\":8815:8821   */\n      dup3\n        /* \"#utility.yul\":8804:8813   */\n      dup6\n        /* \"#utility.yul\":8800:8822   */\n      add\n        /* \"#utility.yul\":8779:8832   */\n      tag_279\n      jump\t// in\n    tag_402:\n        /* \"#utility.yul\":8769:8832   */\n      swap2\n      pop\n        /* \"#utility.yul\":8725:8842   */\n      pop\n        /* \"#utility.yul\":8520:8849   */\n      swap3\n      swap2\n      pop\n      pop\n      jump\t// out\n        /* \"#utility.yul\":8855:8973   */\n    tag_280:\n        /* \"#utility.yul\":8942:8966   */\n      tag_404\n        /* \"#utility.yul\":8960:8965   */\n      dup2\n        /* \"#utility.yul\":8942:8966   */\n      tag_277\n      jump\t// in\n    tag_404:\n        /* \"#utility.yul\":8937:8940   */\n      dup3\n        /* \"#utility.yul\":8930:8967   */\n      mstore\n        /* \"#utility.yul\":8855:8973   */\n      pop\n      pop\n      jump\t// out\n        /* \"#utility.yul\":8979:9201   */\n    tag_55:\n        /* \"#utility.yul\":9072:9076   */\n      0x00\n        /* \"#utility.yul\":9110:9112   */\n      0x20\n        /* \"#utility.yul\":9099:9108   */\n      dup3\n        /* \"#utility.yul\":9095:9113   */\n      add\n        /* \"#utility.yul\":9087:9113   */\n      swap1\n      pop\n        /* \"#utility.yul\":9123:9194   */\n      tag_406\n        /* \"#utility.yul\":9191:9192   */\n      0x00\n        /* \"#utility.yul\":9180:9189   */\n      dup4\n        /* \"#utility.yul\":9176:9193   */\n      add\n        /* \"#utility.yul\":9167:9173   */\n      dup5\n        /* \"#utility.yul\":9123:9194   */\n      tag_280\n      jump\t// in\n    tag_406:\n        /* \"#utility.yul\":8979:9201   */\n      swap3\n      swap2\n      pop\n      pop\n      jump\t// out\n        /* \"#utility.yul\":9207:9518   */\n    tag_281:\n        /* \"#utility.yul\":9284:9288   */\n      0x00\n        /* \"#utility.yul\":9374:9392   */\n      0xffffffffffffffff\n        /* \"#utility.yul\":9366:9372   */\n      dup3\n        /* \"#utility.yul\":9363:9393   */\n      gt\n        /* \"#utility.yul\":9360:9416   */\n      iszero\n      tag_408\n      jumpi\n        /* \"#utility.yul\":9396:9414   */\n      tag_409\n      tag_269\n      jump\t// in\n    tag_409:\n        /* \"#utility.yul\":9360:9416   */\n    tag_408:\n        /* \"#utility.yul\":9446:9450   */\n      0x20\n        /* \"#utility.yul\":9438:9444   */\n      dup3\n        /* \"#utility.yul\":9434:9451   */\n      mul\n        /* \"#utility.yul\":9426:9451   */\n      swap1\n      pop\n        /* \"#utility.yul\":9506:9510   */\n      0x20\n        /* \"#utility.yul\":9500:9504   */\n      dup2\n        /* \"#utility.yul\":9496:9511   */\n      add\n        /* \"#utility.yul\":9488:9511   */\n      swap1\n      pop\n        /* \"#utility.yul\":9207:9518   */\n      swap2\n      swap1\n      pop\n      jump\t// out\n        /* \"#utility.yul\":9524:9641   */\n    tag_282:\n        /* \"#utility.yul\":9633:9634   */\n      0x00\n        /* \"#utility.yul\":9630:9631   */\n      dup1\n        /* \"#utility.yul\":9623:9635   */\n      revert\n        /* \"#utility.yul\":9664:10374   */\n    tag_283:\n        /* \"#utility.yul\":9760:9765   */\n      0x00\n        /* \"#utility.yul\":9785:9866   */\n      tag_412\n        /* \"#utility.yul\":9801:9865   */\n      tag_413\n        /* \"#utility.yul\":9858:9864   */\n      dup5\n        /* \"#utility.yul\":9801:9865   */\n      tag_281\n      jump\t// in\n    tag_413:\n        /* \"#utility.yul\":9785:9866   */\n      tag_271\n      jump\t// in\n    tag_412:\n        /* \"#utility.yul\":9776:9866   */\n      swap1\n      pop\n        /* \"#utility.yul\":9886:9891   */\n      dup1\n        /* \"#utility.yul\":9915:9921   */\n      dup4\n        /* \"#utility.yul\":9908:9913   */\n      dup3\n        /* \"#utility.yul\":9901:9922   */\n      mstore\n        /* \"#utility.yul\":9949:9953   */\n      0x20\n        /* \"#utility.yul\":9942:9947   */\n      dup3\n        /* \"#utility.yul\":9938:9954   */\n      add\n        /* \"#utility.yul\":9931:9954   */\n      swap1\n      pop\n        /* \"#utility.yul\":10002:10006   */\n      0x20\n        /* \"#utility.yul\":9994:10000   */\n      dup5\n        /* \"#utility.yul\":9990:10007   */\n      mul\n        /* \"#utility.yul\":9982:9988   */\n      dup4\n        /* \"#utility.yul\":9978:10008   */\n      add\n        /* \"#utility.yul\":10031:10034   */\n      dup6\n        /* \"#utility.yul\":10023:10029   */\n      dup2\n        /* \"#utility.yul\":10020:10035   */\n      gt\n        /* \"#utility.yul\":10017:10139   */\n      iszero\n      tag_414\n      jumpi\n        /* \"#utility.yul\":10050:10129   */\n      tag_415\n      tag_282\n      jump\t// in\n    tag_415:\n        /* \"#utility.yul\":10017:10139   */\n    tag_414:\n        /* \"#utility.yul\":10165:10171   */\n      dup4\n        /* \"#utility.yul\":10148:10368   */\n    tag_416:\n        /* \"#utility.yul\":10182:10188   */\n      dup2\n        /* \"#utility.yul\":10177:10180   */\n      dup2\n        /* \"#utility.yul\":10174:10189   */\n      lt\n        /* \"#utility.yul\":10148:10368   */\n      iszero\n      tag_418\n      jumpi\n        /* \"#utility.yul\":10257:10260   */\n      dup1\n        /* \"#utility.yul\":10286:10323   */\n      tag_419\n        /* \"#utility.yul\":10319:10322   */\n      dup9\n        /* \"#utility.yul\":10307:10317   */\n      dup3\n        /* \"#utility.yul\":10286:10323   */\n      tag_279\n      jump\t// in\n    tag_419:\n        /* \"#utility.yul\":10281:10284   */\n      dup5\n        /* \"#utility.yul\":10274:10324   */\n      mstore\n        /* \"#utility.yul\":10353:10357   */\n      0x20\n        /* \"#utility.yul\":10348:10351   */\n      dup5\n        /* \"#utility.yul\":10344:10358   */\n      add\n        /* \"#utility.yul\":10337:10358   */\n      swap4\n      pop\n        /* \"#utility.yul\":10224:10368   */\n      pop\n        /* \"#utility.yul\":10208:10212   */\n      0x20\n        /* \"#utility.yul\":10203:10206   */\n      dup2\n        /* \"#utility.yul\":10199:10213   */\n      add\n        /* \"#utility.yul\":10192:10213   */\n      swap1\n      pop\n        /* \"#utility.yul\":10148:10368   */\n      jump(tag_416)\n    tag_418:\n        /* \"#utility.yul\":10152:10173   */\n      pop\n        /* \"#utility.yul\":9766:10374   */\n      pop\n      pop\n        /* \"#utility.yul\":9664:10374   */\n      swap4\n      swap3\n      pop\n      pop\n      pop\n      jump\t// out\n        /* \"#utility.yul\":10397:10767   */\n    tag_284:\n        /* \"#utility.yul\":10468:10473   */\n      0x00\n        /* \"#utility.yul\":10517:10520   */\n      dup3\n        /* \"#utility.yul\":10510:10514   */\n      0x1f\n        /* \"#utility.yul\":10502:10508   */\n      dup4\n        /* \"#utility.yul\":10498:10515   */\n      add\n        /* \"#utility.yul\":10494:10521   */\n      slt\n        /* \"#utility.yul\":10484:10606   */\n      tag_421\n      jumpi\n        /* \"#utility.yul\":10525:10604   */\n      tag_422\n      tag_267\n      jump\t// in\n    tag_422:\n        /* \"#utility.yul\":10484:10606   */\n    tag_421:\n        /* \"#utility.yul\":10642:10648   */\n      dup2\n        /* \"#utility.yul\":10629:10649   */\n      calldataload\n        /* \"#utility.yul\":10667:10761   */\n      tag_423\n        /* \"#utility.yul\":10757:10760   */\n      dup5\n        /* \"#utility.yul\":10749:10755   */\n      dup3\n        /* \"#utility.yul\":10742:10746   */\n      0x20\n        /* \"#utility.yul\":10734:10740   */\n      dup7\n        /* \"#utility.yul\":10730:10747   */\n      add\n        /* \"#utility.yul\":10667:10761   */\n      tag_283\n      jump\t// in\n    tag_423:\n        /* \"#utility.yul\":10658:10761   */\n      swap2\n      pop\n        /* \"#utility.yul\":10474:10767   */\n      pop\n        /* \"#utility.yul\":10397:10767   */\n      swap3\n      swap2\n      pop\n      pop\n      jump\t// out\n        /* \"#utility.yul\":10773:11312   */\n    tag_63:\n        /* \"#utility.yul\":10857:10863   */\n      0x00\n        /* \"#utility.yul\":10906:10908   */\n      0x20\n        /* \"#utility.yul\":10894:10903   */\n      dup3\n        /* \"#utility.yul\":10885:10892   */\n      dup5\n        /* \"#utility.yul\":10881:10904   */\n      sub\n        /* \"#utility.yul\":10877:10909   */\n      slt\n        /* \"#utility.yul\":10874:10993   */\n      iszero\n      tag_425\n      jumpi\n        /* \"#utility.yul\":10912:10991   */\n      tag_426\n      tag_249\n      jump\t// in\n    tag_426:\n        /* \"#utility.yul\":10874:10993   */\n    tag_425:\n        /* \"#utility.yul\":11060:11061   */\n      0x00\n        /* \"#utility.yul\":11049:11058   */\n      dup3\n        /* \"#utility.yul\":11045:11062   */\n      add\n        /* \"#utility.yul\":11032:11063   */\n      calldataload\n        /* \"#utility.yul\":11090:11108   */\n      0xffffffffffffffff\n        /* \"#utility.yul\":11082:11088   */\n      dup2\n        /* \"#utility.yul\":11079:11109   */\n      gt\n        /* \"#utility.yul\":11076:11193   */\n      iszero\n      tag_427\n      jumpi\n        /* \"#utility.yul\":11112:11191   */\n      tag_428\n      tag_250\n      jump\t// in\n    tag_428:\n        /* \"#utility.yul\":11076:11193   */\n    tag_427:\n        /* \"#utility.yul\":11217:11295   */\n      tag_429\n        /* \"#utility.yul\":11287:11294   */\n      dup5\n        /* \"#utility.yul\":11278:11284   */\n      dup3\n        /* \"#utility.yul\":11267:11276   */\n      dup6\n        /* \"#utility.yul\":11263:11285   */\n      add\n        /* \"#utility.yul\":11217:11295   */\n      tag_284\n      jump\t// in\n    tag_429:\n        /* \"#utility.yul\":11207:11295   */\n      swap2\n      pop\n        /* \"#utility.yul\":11003:11305   */\n      pop\n        /* \"#utility.yul\":10773:11312   */\n      swap3\n      swap2\n      pop\n      pop\n      jump\t// out\n        /* \"#utility.yul\":11318:11436   */\n    tag_285:\n        /* \"#utility.yul\":11405:11429   */\n      tag_431\n        /* \"#utility.yul\":11423:11428   */\n      dup2\n        /* \"#utility.yul\":11405:11429   */\n      tag_251\n      jump\t// in\n    tag_431:\n        /* \"#utility.yul\":11400:11403   */\n      dup3\n        /* \"#utility.yul\":11393:11430   */\n      mstore\n        /* \"#utility.yul\":11318:11436   */\n      pop\n      pop\n      jump\t// out\n        /* \"#utility.yul\":11442:11664   */\n    tag_80:\n        /* \"#utility.yul\":11535:11539   */\n      0x00\n        /* \"#utility.yul\":11573:11575   */\n      0x20\n        /* \"#utility.yul\":11562:11571   */\n      dup3\n        /* \"#utility.yul\":11558:11576   */\n      add\n        /* \"#utility.yul\":11550:11576   */\n      swap1\n      pop\n        /* \"#utility.yul\":11586:11657   */\n      tag_433\n        /* \"#utility.yul\":11654:11655   */\n      0x00\n        /* \"#utility.yul\":11643:11652   */\n      dup4\n        /* \"#utility.yul\":11639:11656   */\n      add\n        /* \"#utility.yul\":11630:11636   */\n      dup5\n        /* \"#utility.yul\":11586:11657   */\n      tag_285\n      jump\t// in\n    tag_433:\n        /* \"#utility.yul\":11442:11664   */\n      swap3\n      swap2\n      pop\n      pop\n      jump\t// out\n        /* \"#utility.yul\":11670:11850   */\n    tag_85:\n        /* \"#utility.yul\":11718:11795   */\n      0x4e487b7100000000000000000000000000000000000000000000000000000000\n        /* \"#utility.yul\":11715:11716   */\n      0x00\n        /* \"#utility.yul\":11708:11796   */\n      mstore\n        /* \"#utility.yul\":11815:11819   */\n      0x32\n        /* \"#utility.yul\":11812:11813   */\n      0x04\n        /* \"#utility.yul\":11805:11820   */\n      mstore\n        /* \"#utility.yul\":11839:11843   */\n      0x24\n        /* \"#utility.yul\":11836:11837   */\n      0x00\n        /* \"#utility.yul\":11829:11844   */\n      revert\n        /* \"#utility.yul\":11856:12036   */\n    tag_286:\n        /* \"#utility.yul\":11904:11981   */\n      0x4e487b7100000000000000000000000000000000000000000000000000000000\n        /* \"#utility.yul\":11901:11902   */\n      0x00\n        /* \"#utility.yul\":11894:11982   */\n      mstore\n        /* \"#utility.yul\":12001:12005   */\n      0x11\n        /* \"#utility.yul\":11998:11999   */\n      0x04\n        /* \"#utility.yul\":11991:12006   */\n      mstore\n        /* \"#utility.yul\":12025:12029   */\n      0x24\n        /* \"#utility.yul\":12022:12023   */\n      0x00\n        /* \"#utility.yul\":12015:12030   */\n      revert\n        /* \"#utility.yul\":12042:12275   */\n    tag_88:\n        /* \"#utility.yul\":12081:12084   */\n      0x00\n        /* \"#utility.yul\":12104:12128   */\n      tag_437\n        /* \"#utility.yul\":12122:12127   */\n      dup3\n        /* \"#utility.yul\":12104:12128   */\n      tag_251\n      jump\t// in\n    tag_437:\n        /* \"#utility.yul\":12095:12128   */\n      swap2\n      pop\n        /* \"#utility.yul\":12150:12216   */\n      0xffffffffffffffffffffffffffffffffffffffffffffffffffffffffffffffff\n        /* \"#utility.yul\":12143:12148   */\n      dup3\n        /* \"#utility.yul\":12140:12217   */\n      sub\n        /* \"#utility.yul\":12137:12240   */\n      tag_438\n      jumpi\n        /* \"#utility.yul\":12220:12238   */\n      tag_439\n      tag_286\n      jump\t// in\n    tag_439:\n        /* \"#utility.yul\":12137:12240   */\n    tag_438:\n        /* \"#utility.yul\":12267:12268   */\n      0x01\n        /* \"#utility.yul\":12260:12265   */\n      dup3\n        /* \"#utility.yul\":12256:12269   */\n      add\n        /* \"#utility.yul\":12249:12269   */\n      swap1\n      pop\n        /* \"#utility.yul\":12042:12275   */\n      swap2\n      swap1\n      pop\n      jump\t// out\n        /* \"#utility.yul\":12281:12613   */\n    tag_90:\n        /* \"#utility.yul\":12402:12406   */\n      0x00\n        /* \"#utility.yul\":12440:12442   */\n      0x40\n        /* \"#utility.yul\":12429:12438   */\n      dup3\n        /* \"#utility.yul\":12425:12443   */\n      add\n        /* \"#utility.yul\":12417:12443   */\n      swap1\n      pop\n        /* \"#utility.yul\":12453:12524   */\n      tag_441\n        /* \"#utility.yul\":12521:12522   */\n      0x00\n        /* \"#utility.yul\":12510:12519   */\n      dup4\n        /* \"#utility.yul\":12506:12523   */\n      add\n        /* \"#utility.yul\":12497:12503   */\n      dup6\n        /* \"#utility.yul\":12453:12524   */\n      tag_280\n      jump\t// in\n    tag_441:\n        /* \"#utility.yul\":12534:12606   */\n      tag_442\n        /* \"#utility.yul\":12602:12604   */\n      0x20\n        /* \"#utility.yul\":12591:12600   */\n      dup4\n        /* \"#utility.yul\":12587:12605   */\n      add\n        /* \"#utility.yul\":12578:12584   */\n      dup5\n        /* \"#utility.yul\":12534:12606   */\n      tag_285\n      jump\t// in\n    tag_442:\n        /* \"#utility.yul\":12281:12613   */\n      swap4\n      swap3\n      pop\n      pop\n      pop\n      jump\t// out\n        /* \"#utility.yul\":12619:12799   */\n    tag_100:\n        /* \"#utility.yul\":12667:12744   */\n      0x4e487b7100000000000000000000000000000000000000000000000000000000\n        /* \"#utility.yul\":12664:12665   */\n      0x00\n        /* \"#utility.yul\":12657:12745   */\n      mstore\n        /* \"#utility.yul\":12764:12768   */\n      0x21\n        /* \"#utility.yul\":12761:12762   */\n      0x04\n        /* \"#utility.yul\":12754:12769   */\n      mstore\n        /* \"#utility.yul\":12788:12792   */\n      0x24\n        /* \"#utility.yul\":12785:12786   */\n      0x00\n        /* \"#utility.yul\":12778:12793   */\n      revert\n        /* \"#utility.yul\":12805:12928   */\n    tag_287:\n        /* \"#utility.yul\":12896:12897   */\n      0x06\n        /* \"#utility.yul\":12889:12894   */\n      dup2\n        /* \"#utility.yul\":12886:12898   */\n      lt\n        /* \"#utility.yul\":12876:12922   */\n      tag_445\n      jumpi\n        /* \"#utility.yul\":12902:12920   */\n      tag_446\n      tag_100\n      jump\t// in\n    tag_446:\n        /* \"#utility.yul\":12876:12922   */\n    tag_445:\n        /* \"#utility.yul\":12805:12928   */\n      pop\n      jump\t// out\n        /* \"#utility.yul\":12934:13081   */\n    tag_288:\n        /* \"#utility.yul\":12989:12996   */\n      0x00\n        /* \"#utility.yul\":13018:13023   */\n      dup2\n        /* \"#utility.yul\":13007:13023   */\n      swap1\n      pop\n        /* \"#utility.yul\":13024:13075   */\n      tag_448\n        /* \"#utility.yul\":13069:13074   */\n      dup3\n        /* \"#utility.yul\":13024:13075   */\n      tag_287\n      jump\t// in\n    tag_448:\n        /* \"#utility.yul\":12934:13081   */\n      swap2\n      swap1\n      pop\n      jump\t// out\n        /* \"#utility.yul\":13087:13234   */\n    tag_289:\n        /* \"#utility.yul\":13153:13162   */\n      0x00\n        /* \"#utility.yul\":13186:13228   */\n      tag_450\n        /* \"#utility.yul\":13222:13227   */\n      dup3\n        /* \"#utility.yul\":13186:13228   */\n      tag_288\n      jump\t// in\n    tag_450:\n        /* \"#utility.yul\":13173:13228   */\n      swap1\n      pop\n        /* \"#utility.yul\":13087:13234   */\n      swap2\n      swap1\n      pop\n      jump\t// out\n        /* \"#utility.yul\":13240:13403   */\n    tag_290:\n        /* \"#utility.yul\":13343:13396   */\n      tag_452\n        /* \"#utility.yul\":13390:13395   */\n      dup2\n        /* \"#utility.yul\":13343:13396   */\n      tag_289\n      jump\t// in\n    tag_452:\n        /* \"#utility.yul\":13338:13341   */\n      dup3\n        /* \"#utility.yul\":13331:13397   */\n      mstore\n        /* \"#utility.yul\":13240:13403   */\n      pop\n      pop\n      jump\t// out\n        /* \"#utility.yul\":13409:13805   */\n    tag_102:\n        /* \"#utility.yul\":13562:13566   */\n      0x00\n        /* \"#utility.yul\":13600:13602   */\n      0x40\n        /* \"#utility.yul\":13589:13598   */\n      dup3\n        /* \"#utility.yul\":13585:13603   */\n      add\n        /* \"#utility.yul\":13577:13603   */\n      swap1\n      pop\n        /* \"#utility.yul\":13613:13700   */\n      tag_454\n        /* \"#utility.yul\":13697:13698   */\n      0x00\n        /* \"#utility.yul\":13686:13695   */\n      dup4\n        /* \"#utility.yul\":13682:13699   */\n      add\n        /* \"#utility.yul\":13673:13679   */\n      dup6\n        /* \"#utility.yul\":13613:13700   */\n      tag_290\n      jump\t// in\n    tag_454:\n        /* \"#utility.yul\":13710:13798   */\n      tag_455\n        /* \"#utility.yul\":13794:13796   */\n      0x20\n        /* \"#utility.yul\":13783:13792   */\n      dup4\n        /* \"#utility.yul\":13779:13797   */\n      add\n        /* \"#utility.yul\":13770:13776   */\n      dup5\n        /* \"#utility.yul\":13710:13798   */\n      tag_290\n      jump\t// in\n    tag_455:\n        /* \"#utility.yul\":13409:13805   */\n      swap4\n      swap3\n      pop\n      pop\n      pop\n      jump\t// out\n        /* \"#utility.yul\":13811:13991   */\n    tag_291:\n        /* \"#utility.yul\":13859:13936   */\n      0x4e487b7100000000000000000000000000000000000000000000000000000000\n        /* \"#utility.yul\":13856:13857   */\n      0x00\n        /* \"#utility.yul\":13849:13937   */\n      mstore\n        /* \"#utility.yul\":13956:13960   */\n      0x22\n        /* \"#utility.yul\":13953:13954   */\n      0x04\n        /* \"#utility.yul\":13946:13961   */\n      mstore\n        /* \"#utility.yul\":13980:13984   */\n      0x24\n        /* \"#utility.yul\":13977:13978   */\n      0x00\n        /* \"#utility.yul\":13970:13985   */\n      revert\n        /* \"#utility.yul\":13997:14317   */\n    tag_108:\n        /* \"#utility.yul\":14041:14047   */\n      0x00\n        /* \"#utility.yul\":14078:14079   */\n      0x02\n        /* \"#utility.yul\":14072:14076   */\n      dup3\n        /* \"#utility.yul\":14068:14080   */\n      div\n        /* \"#utility.yul\":14058:14080   */\n      swap1\n      pop\n        /* \"#utility.yul\":14125:14126   */\n      0x01\n        /* \"#utility.yul\":14119:14123   */\n      dup3\n        /* \"#utility.yul\":14115:14127   */\n      and\n        /* \"#utility.yul\":14146:14164   */\n      dup1\n        /* \"#utility.yul\":14136:14217   */\n      tag_458\n      jumpi\n        /* \"#utility.yul\":14202:14206   */\n      0x7f\n        /* \"#utility.yul\":14194:14200   */\n      dup3\n        /* \"#utility.yul\":14190:14207   */\n      and\n        /* \"#utility.yul\":14180:14207   */\n      swap2\n      pop\n        /* \"#utility.yul\":14136:14217   */\n    tag_458:\n        /* \"#utility.yul\":14264:14266   */\n      0x20\n        /* \"#utility.yul\":14256:14262   */\n      dup3\n        /* \"#utility.yul\":14253:14267   */\n      lt\n        /* \"#utility.yul\":14233:14251   */\n      dup2\n        /* \"#utility.yul\":14230:14268   */\n      sub\n        /* \"#utility.yul\":14227:14311   */\n      tag_459\n      jumpi\n        /* \"#utility.yul\":14283:14301   */\n      tag_460\n      tag_291\n      jump\t// in\n    tag_460:\n        /* \"#utility.yul\":14227:14311   */\n    tag_459:\n        /* \"#utility.yul\":14048:14317   */\n      pop\n        /* \"#utility.yul\":13997:14317   */\n      swap2\n      swap1\n      pop\n      jump\t// out\n        /* \"#utility.yul\":14323:14464   */\n    tag_292:\n        /* \"#utility.yul\":14372:14376   */\n      0x00\n        /* \"#utility.yul\":14395:14398   */\n      dup2\n        /* \"#utility.yul\":14387:14398   */\n      swap1\n      pop\n        /* \"#utility.yul\":14418:14421   */\n      dup2\n        /* \"#utility.yul\":14415:14416   */\n      0x00\n        /* \"#utility.yul\":14408:14422   */\n      mstore\n        /* \"#utility.yul\":14452:14456   */\n      0x20\n        /* \"#utility.yul\":14449:14450   */\n      0x00\n        /* \"#utility.yul\":14439:14457   */\n      keccak256\n        /* \"#utility.yul\":14431:14457   */\n      swap1\n      pop\n        /* \"#utility.yul\":14323:14464   */\n      swap2\n      swap1\n      pop\n      jump\t// out\n        /* \"#utility.yul\":14470:14563   */\n    tag_293:\n        /* \"#utility.yul\":14507:14513   */\n      0x00\n        /* \"#utility.yul\":14554:14556   */\n      0x20\n        /* \"#utility.yul\":14549:14551   */\n      0x1f\n        /* \"#utility.yul\":14542:14547   */\n      dup4\n        /* \"#utility.yul\":14538:14552   */\n      add\n        /* \"#utility.yul\":14534:14557   */\n      div\n        /* \"#utility.yul\":14524:14557   */\n      swap1\n      pop\n        /* \"#utility.yul\":14470:14563   */\n      swap2\n      swap1\n      pop\n      jump\t// out\n        /* \"#utility.yul\":14569:14676   */\n    tag_294:\n        /* \"#utility.yul\":14613:14621   */\n      0x00\n        /* \"#utility.yul\":14663:14668   */\n      dup3\n        /* \"#utility.yul\":14657:14661   */\n      dup3\n        /* \"#utility.yul\":14653:14669   */\n      shl\n        /* \"#utility.yul\":14632:14669   */\n      swap1\n      pop\n        /* \"#utility.yul\":14569:14676   */\n      swap3\n      swap2\n      pop\n      pop\n      jump\t// out\n        /* \"#utility.yul\":14682:15075   */\n    tag_295:\n        /* \"#utility.yul\":14751:14757   */\n      0x00\n        /* \"#utility.yul\":14801:14802   */\n      0x08\n        /* \"#utility.yul\":14789:14799   */\n      dup4\n        /* \"#utility.yul\":14785:14803   */\n      mul\n        /* \"#utility.yul\":14824:14921   */\n      tag_465\n        /* \"#utility.yul\":14854:14920   */\n      0xffffffffffffffffffffffffffffffffffffffffffffffffffffffffffffffff\n        /* \"#utility.yul\":14843:14852   */\n      dup3\n        /* \"#utility.yul\":14824:14921   */\n      tag_294\n      jump\t// in\n    tag_465:\n        /* \"#utility.yul\":14942:14981   */\n      tag_466\n        /* \"#utility.yul\":14972:14980   */\n      dup7\n        /* \"#utility.yul\":14961:14970   */\n      dup4\n        /* \"#utility.yul\":14942:14981   */\n      tag_294\n      jump\t// in\n    tag_466:\n        /* \"#utility.yul\":14930:14981   */\n      swap6\n      pop\n        /* \"#utility.yul\":15014:15018   */\n      dup1\n        /* \"#utility.yul\":15010:15019   */\n      not\n        /* \"#utility.yul\":15003:15008   */\n      dup5\n        /* \"#utility.yul\":14999:15020   */\n      and\n        /* \"#utility.yul\":14990:15020   */\n      swap4\n      pop\n        /* \"#utility.yul\":15063:15067   */\n      dup1\n        /* \"#utility.yul\":15053:15061   */\n      dup7\n        /* \"#utility.yul\":15049:15068   */\n      and\n        /* \"#utility.yul\":15042:15047   */\n      dup5\n        /* \"#utility.yul\":15039:15069   */\n      or\n        /* \"#utility.yul\":15029:15069   */\n      swap3\n      pop\n        /* \"#utility.yul\":14758:15075   */\n      pop\n      pop\n        /* \"#utility.yul\":14682:15075   */\n      swap4\n      swap3\n      pop\n      pop\n      pop\n      jump\t// out\n        /* \"#utility.yul\":15081:15141   */\n    tag_296:\n        /* \"#utility.yul\":15109:15112   */\n      0x00\n        /* \"#utility.yul\":15130:15135   */\n      dup2\n        /* \"#utility.yul\":15123:15135   */\n      swap1\n      pop\n        /* \"#utility.yul\":15081:15141   */\n      swap2\n      swap1\n      pop\n      jump\t// out\n        /* \"#utility.yul\":15147:15289   */\n    tag_297:\n        /* \"#utility.yul\":15197:15206   */\n      0x00\n        /* \"#utility.yul\":15230:15283   */\n      tag_469\n        /* \"#utility.yul\":15248:15282   */\n      tag_470\n        /* \"#utility.yul\":15257:15281   */\n      tag_471\n        /* \"#utility.yul\":15275:15280   */\n      dup5\n        /* \"#utility.yul\":15257:15281   */\n      tag_251\n      jump\t// in\n    tag_471:\n        /* \"#utility.yul\":15248:15282   */\n      tag_296\n      jump\t// in\n    tag_470:\n        /* \"#utility.yul\":15230:15283   */\n      tag_251\n      jump\t// in\n    tag_469:\n        /* \"#utility.yul\":15217:15283   */\n      swap1\n      pop\n        /* \"#utility.yul\":15147:15289   */\n      swap2\n      swap1\n      pop\n      jump\t// out\n        /* \"#utility.yul\":15295:15370   */\n    tag_298:\n        /* \"#utility.yul\":15338:15341   */\n      0x00\n        /* \"#utility.yul\":15359:15364   */\n      dup2\n        /* \"#utility.yul\":15352:15364   */\n      swap1\n      pop\n        /* \"#utility.yul\":15295:15370   */\n      swap2\n      swap1\n      pop\n      jump\t// out\n        /* \"#utility.yul\":15376:15645   */\n    tag_299:\n        /* \"#utility.yul\":15486:15525   */\n      tag_474\n        /* \"#utility.yul\":15517:15524   */\n      dup4\n        /* \"#utility.yul\":15486:15525   */\n      tag_297\n      jump\t// in\n    tag_474:\n        /* \"#utility.yul\":15547:15638   */\n      tag_475\n        /* \"#utility.yul\":15596:15637   */\n      tag_476\n        /* \"#utility.yul\":15620:15636   */\n      dup3\n        /* \"#utility.yul\":15596:15637   */\n      tag_298\n      jump\t// in\n    tag_476:\n        /* \"#utility.yul\":15588:15594   */\n      dup5\n        /* \"#utility.yul\":15581:15585   */\n      dup5\n        /* \"#utility.yul\":15575:15586   */\n      sload\n        /* \"#utility.yul\":15547:15638   */\n      tag_295\n      jump\t// in\n    tag_475:\n        /* \"#utility.yul\":15541:15545   */\n      dup3\n        /* \"#utility.yul\":15534:15639   */\n      sstore\n        /* \"#utility.yul\":15452:15645   */\n      pop\n        /* \"#utility.yul\":15376:15645   */\n      pop\n      pop\n      pop\n      jump\t// out\n        /* \"#utility.yul\":15651:15724   */\n    tag_300:\n        /* \"#utility.yul\":15696:15699   */\n      0x00\n        /* \"#utility.yul\":15651:15724   */\n      swap1\n      jump\t// out\n        /* \"#utility.yul\":15730:15919   */\n    tag_301:\n        /* \"#utility.yul\":15807:15839   */\n      tag_479\n      tag_300\n      jump\t// in\n    tag_479:\n        /* \"#utility.yul\":15848:15913   */\n      tag_480\n        /* \"#utility.yul\":15906:15912   */\n      dup2\n        /* \"#utility.yul\":15898:15904   */\n      dup5\n        /* \"#utility.yul\":15892:15896   */\n      dup5\n        /* \"#utility.yul\":15848:15913   */\n      tag_299\n      jump\t// in\n    tag_480:\n        /* \"#utility.yul\":15783:15919   */\n      pop\n        /* \"#utility.yul\":15730:15919   */\n      pop\n      pop\n      jump\t// out\n        /* \"#utility.yul\":15925:16111   */\n    tag_302:\n        /* \"#utility.yul\":15985:16105   */\n    tag_482:\n        /* \"#utility.yul\":16002:16005   */\n      dup2\n        /* \"#utility.yul\":15995:16000   */\n      dup2\n        /* \"#utility.yul\":15992:16006   */\n      lt\n        /* \"#utility.yul\":15985:16105   */\n      iszero\n      tag_484\n      jumpi\n        /* \"#utility.yul\":16056:16095   */\n      tag_485\n        /* \"#utility.yul\":16093:16094   */\n      0x00\n        /* \"#utility.yul\":16086:16091   */\n      dup3\n        /* \"#utility.yul\":16056:16095   */\n      tag_301\n      jump\t// in\n    tag_485:\n        /* \"#utility.yul\":16029:16030   */\n      0x01\n        /* \"#utility.yul\":16022:16027   */\n      dup2\n        /* \"#utility.yul\":16018:16031   */\n      add\n        /* \"#utility.yul\":16009:16031   */\n      swap1\n      pop\n        /* \"#utility.yul\":15985:16105   */\n      jump(tag_482)\n    tag_484:\n        /* \"#utility.yul\":15925:16111   */\n      pop\n      pop\n      jump\t// out\n        /* \"#utility.yul\":16117:16660   */\n    tag_303:\n        /* \"#utility.yul\":16218:16220   */\n      0x1f\n        /* \"#utility.yul\":16213:16216   */\n      dup3\n        /* \"#utility.yul\":16210:16221   */\n      gt\n        /* \"#utility.yul\":16207:16653   */\n      iszero\n      tag_487\n      jumpi\n        /* \"#utility.yul\":16252:16290   */\n      tag_488\n        /* \"#utility.yul\":16284:16289   */\n      dup2\n        /* \"#utility.yul\":16252:16290   */\n      tag_292\n      jump\t// in\n    tag_488:\n        /* \"#utility.yul\":16336:16365   */\n      tag_489\n        /* \"#utility.yul\":16354:16364   */\n      dup5\n        /* \"#utility.yul\":16336:16365   */\n      tag_293\n      jump\t// in\n    tag_489:\n        /* \"#utility.yul\":16326:16334   */\n      dup2\n        /* \"#utility.yul\":16322:16366   */\n      add\n        /* \"#utility.yul\":16519:16521   */\n      0x20\n        /* \"#utility.yul\":16507:16517   */\n      dup6\n        /* \"#utility.yul\":16504:16522   */\n      lt\n        /* \"#utility.yul\":16501:16550   */\n      iszero\n      tag_490\n      jumpi\n        /* \"#utility.yul\":16540:16548   */\n      dup2\n        /* \"#utility.yul\":16525:16548   */\n      swap1\n      pop\n        /* \"#utility.yul\":16501:16550   */\n    tag_490:\n        /* \"#utility.yul\":16563:16643   */\n      tag_491\n        /* \"#utility.yul\":16619:16641   */\n      tag_492\n        /* \"#utility.yul\":16637:16640   */\n      dup6\n        /* \"#utility.yul\":16619:16641   */\n      tag_293\n      jump\t// in\n    tag_492:\n        /* \"#utility.yul\":16609:16617   */\n      dup4\n        /* \"#utility.yul\":16605:16642   */\n      add\n        /* \"#utility.yul\":16592:16603   */\n      dup3\n        /* \"#utility.yul\":16563:16643   */\n      tag_302\n      jump\t// in\n    tag_491:\n        /* \"#utility.yul\":16222:16653   */\n      pop\n      pop\n        /* \"#utility.yul\":16207:16653   */\n    tag_487:\n        /* \"#utility.yul\":16117:16660   */\n      pop\n      pop\n      pop\n      jump\t// out\n        /* \"#utility.yul\":16666:16783   */\n    tag_304:\n        /* \"#utility.yul\":16720:16728   */\n      0x00\n        /* \"#utility.yul\":16770:16775   */\n      dup3\n        /* \"#utility.yul\":16764:16768   */\n      dup3\n        /* \"#utility.yul\":16760:16776   */\n      shr\n        /* \"#utility.yul\":16739:16776   */\n      swap1\n      pop\n        /* \"#utility.yul\":16666:16783   */\n      swap3\n      swap2\n      pop\n      pop\n      jump\t// out\n        /* \"#utility.yul\":16789:16958   */\n    tag_305:\n        /* \"#utility.yul\":16833:16839   */\n      0x00\n        /* \"#utility.yul\":16866:16917   */\n      tag_495\n        /* \"#utility.yul\":16914:16915   */\n      0x00\n        /* \"#utility.yul\":16910:16916   */\n      not\n        /* \"#utility.yul\":16902:16907   */\n      dup5\n        /* \"#utility.yul\":16899:16900   */\n      0x08\n        /* \"#utility.yul\":16895:16908   */\n      mul\n        /* \"#utility.yul\":16866:16917   */\n      tag_304\n      jump\t// in\n    tag_495:\n        /* \"#utility.yul\":16862:16918   */\n      not\n        /* \"#utility.yul\":16947:16951   */\n      dup1\n        /* \"#utility.yul\":16941:16945   */\n      dup4\n        /* \"#utility.yul\":16937:16952   */\n      and\n        /* \"#utility.yul\":16927:16952   */\n      swap2\n      pop\n        /* \"#utility.yul\":16840:16958   */\n      pop\n        /* \"#utility.yul\":16789:16958   */\n      swap3\n      swap2\n      pop\n      pop\n      jump\t// out\n        /* \"#utility.yul\":16963:17258   */\n    tag_306:\n        /* \"#utility.yul\":17039:17043   */\n      0x00\n        /* \"#utility.yul\":17185:17214   */\n      tag_497\n        /* \"#utility.yul\":17210:17213   */\n      dup4\n        /* \"#utility.yul\":17204:17208   */\n      dup4\n        /* \"#utility.yul\":17185:17214   */\n      tag_305\n      jump\t// in\n    tag_497:\n        /* \"#utility.yul\":17177:17214   */\n      swap2\n      pop\n        /* \"#utility.yul\":17247:17250   */\n      dup3\n        /* \"#utility.yul\":17244:17245   */\n      0x02\n        /* \"#utility.yul\":17240:17251   */\n      mul\n        /* \"#utility.yul\":17234:17238   */\n      dup3\n        /* \"#utility.yul\":17231:17252   */\n      or\n        /* \"#utility.yul\":17223:17252   */\n      swap1\n      pop\n        /* \"#utility.yul\":16963:17258   */\n      swap3\n      swap2\n      pop\n      pop\n      jump\t// out\n        /* \"#utility.yul\":17263:18658   */\n    tag_121:\n        /* \"#utility.yul\":17380:17417   */\n      tag_499\n        /* \"#utility.yul\":17413:17416   */\n      dup3\n        /* \"#utility.yul\":17380:17417   */\n      tag_257\n      jump\t// in\n    tag_499:\n        /* \"#utility.yul\":17482:17500   */\n      0xffffffffffffffff\n        /* \"#utility.yul\":17474:17480   */\n      dup2\n        /* \"#utility.yul\":17471:17501   */\n      gt\n        /* \"#utility.yul\":17468:17524   */\n      iszero\n      tag_500\n      jumpi\n        /* \"#utility.yul\":17504:17522   */\n      tag_501\n      tag_269\n      jump\t// in\n    tag_501:\n        /* \"#utility.yul\":17468:17524   */\n    tag_500:\n        /* \"#utility.yul\":17548:17586   */\n      tag_502\n        /* \"#utility.yul\":17580:17584   */\n      dup3\n        /* \"#utility.yul\":17574:17585   */\n      sload\n        /* \"#utility.yul\":17548:17586   */\n      tag_108\n      jump\t// in\n    tag_502:\n        /* \"#utility.yul\":17633:17700   */\n      tag_503\n        /* \"#utility.yul\":17693:17699   */\n      dup3\n        /* \"#utility.yul\":17685:17691   */\n      dup3\n        /* \"#utility.yul\":17679:17683   */\n      dup6\n        /* \"#utility.yul\":17633:17700   */\n      tag_303\n      jump\t// in\n    tag_503:\n        /* \"#utility.yul\":17727:17728   */\n      0x00\n        /* \"#utility.yul\":17751:17755   */\n      0x20\n        /* \"#utility.yul\":17738:17755   */\n      swap1\n      pop\n        /* \"#utility.yul\":17783:17785   */\n      0x1f\n        /* \"#utility.yul\":17775:17781   */\n      dup4\n        /* \"#utility.yul\":17772:17786   */\n      gt\n        /* \"#utility.yul\":17800:17801   */\n      0x01\n        /* \"#utility.yul\":17795:18413   */\n      dup2\n      eq\n      tag_505\n      jumpi\n        /* \"#utility.yul\":18457:18458   */\n      0x00\n        /* \"#utility.yul\":18474:18480   */\n      dup5\n        /* \"#utility.yul\":18471:18548   */\n      iszero\n      tag_506\n      jumpi\n        /* \"#utility.yul\":18523:18532   */\n      dup3\n        /* \"#utility.yul\":18518:18521   */\n      dup8\n        /* \"#utility.yul\":18514:18533   */\n      add\n        /* \"#utility.yul\":18508:18534   */\n      mload\n        /* \"#utility.yul\":18499:18534   */\n      swap1\n      pop\n        /* \"#utility.yul\":18471:18548   */\n    tag_506:\n        /* \"#utility.yul\":18574:18641   */\n      tag_507\n        /* \"#utility.yul\":18634:18640   */\n      dup6\n        /* \"#utility.yul\":18627:18632   */\n      dup3\n        /* \"#utility.yul\":18574:18641   */\n      tag_306\n      jump\t// in\n    tag_507:\n        /* \"#utility.yul\":18568:18572   */\n      dup7\n        /* \"#utility.yul\":18561:18642   */\n      sstore\n        /* \"#utility.yul\":18430:18652   */\n      pop\n        /* \"#utility.yul\":17765:18652   */\n      jump(tag_504)\n        /* \"#utility.yul\":17795:18413   */\n    tag_505:\n        /* \"#utility.yul\":17847:17851   */\n      0x1f\n        /* \"#utility.yul\":17843:17852   */\n      not\n        /* \"#utility.yul\":17835:17841   */\n      dup5\n        /* \"#utility.yul\":17831:17853   */\n      and\n        /* \"#utility.yul\":17881:17918   */\n      tag_508\n        /* \"#utility.yul\":17913:17917   */\n      dup7\n        /* \"#utility.yul\":17881:17918   */\n      tag_292\n      jump\t// in\n    tag_508:\n        /* \"#utility.yul\":17940:17941   */\n      0x00\n        /* \"#utility.yul\":17954:18162   */\n    tag_509:\n        /* \"#utility.yul\":17968:17975   */\n      dup3\n        /* \"#utility.yul\":17965:17966   */\n      dup2\n        /* \"#utility.yul\":17962:17976   */\n      lt\n        /* \"#utility.yul\":17954:18162   */\n      iszero\n      tag_511\n      jumpi\n        /* \"#utility.yul\":18047:18056   */\n      dup5\n        /* \"#utility.yul\":18042:18045   */\n      dup10\n        /* \"#utility.yul\":18038:18057   */\n      add\n        /* \"#utility.yul\":18032:18058   */\n      mload\n        /* \"#utility.yul\":18024:18030   */\n      dup3\n        /* \"#utility.yul\":18017:18059   */\n      sstore\n        /* \"#utility.yul\":18098:18099   */\n      0x01\n        /* \"#utility.yul\":18090:18096   */\n      dup3\n        /* \"#utility.yul\":18086:18100   */\n      add\n        /* \"#utility.yul\":18076:18100   */\n      swap2\n      pop\n        /* \"#utility.yul\":18145:18147   */\n      0x20\n        /* \"#utility.yul\":18134:18143   */\n      dup6\n        /* \"#utility.yul\":18130:18148   */\n      add\n        /* \"#utility.yul\":18117:18148   */\n      swap5\n      pop\n        /* \"#utility.yul\":17991:17995   */\n      0x20\n        /* \"#utility.yul\":17988:17989   */\n      dup2\n        /* \"#utility.yul\":17984:17996   */\n      add\n        /* \"#utility.yul\":17979:17996   */\n      swap1\n      pop\n        /* \"#utility.yul\":17954:18162   */\n      jump(tag_509)\n    tag_511:\n        /* \"#utility.yul\":18190:18196   */\n      dup7\n        /* \"#utility.yul\":18181:18188   */\n      dup4\n        /* \"#utility.yul\":18178:18197   */\n      lt\n        /* \"#utility.yul\":18175:18354   */\n      iszero\n      tag_512\n      jumpi\n        /* \"#utility.yul\":18248:18257   */\n      dup5\n        /* \"#utility.yul\":18243:18246   */\n      dup10\n        /* \"#utility.yul\":18239:18258   */\n      add\n        /* \"#utility.yul\":18233:18259   */\n      mload\n        /* \"#utility.yul\":18291:18339   */\n      tag_513\n        /* \"#utility.yul\":18333:18337   */\n      0x1f\n        /* \"#utility.yul\":18325:18331   */\n      dup10\n        /* \"#utility.yul\":18321:18338   */\n      and\n        /* \"#utility.yul\":18310:18319   */\n      dup3\n        /* \"#utility.yul\":18291:18339   */\n      tag_305\n      jump\t// in\n    tag_513:\n        /* \"#utility.yul\":18283:18289   */\n      dup4\n        /* \"#utility.yul\":18276:18340   */\n      sstore\n        /* \"#utility.yul\":18198:18354   */\n      pop\n        /* \"#utility.yul\":18175:18354   */\n    tag_512:\n        /* \"#utility.yul\":18400:18401   */\n      0x01\n        /* \"#utility.yul\":18396:18397   */\n      0x02\n        /* \"#utility.yul\":18388:18394   */\n      dup9\n        /* \"#utility.yul\":18384:18398   */\n      mul\n        /* \"#utility.yul\":18380:18402   */\n      add\n        /* \"#utility.yul\":18374:18378   */\n      dup9\n        /* \"#utility.yul\":18367:18403   */\n      sstore\n        /* \"#utility.yul\":17802:18413   */\n      pop\n      pop\n      pop\n        /* \"#utility.yul\":17765:18652   */\n    tag_504:\n      pop\n        /* \"#utility.yul\":17355:18658   */\n      pop\n      pop\n      pop\n        /* \"#utility.yul\":17263:18658   */\n      pop\n      pop\n      jump\t// out\n        /* \"#utility.yul\":18664:18833   */\n    tag_307:\n        /* \"#utility.yul\":18748:18759   */\n      0x00\n        /* \"#utility.yul\":18782:18788   */\n      dup3\n        /* \"#utility.yul\":18777:18780   */\n      dup3\n        /* \"#utility.yul\":18770:18789   */\n      mstore\n        /* \"#utility.yul\":18822:18826   */\n      0x20\n        /* \"#utility.yul\":18817:18820   */\n      dup3\n        /* \"#utility.yul\":18813:18827   */\n      add\n        /* \"#utility.yul\":18798:18827   */\n      swap1\n      pop\n        /* \"#utility.yul\":18664:18833   */\n      swap3\n      swap2\n      pop\n      pop\n      jump\t// out\n        /* \"#utility.yul\":18839:19064   */\n    tag_308:\n        /* \"#utility.yul\":18979:19013   */\n      0x4f776e61626c653a206e6577206f776e657220697320746865207a65726f2061\n        /* \"#utility.yul\":18975:18976   */\n      0x00\n        /* \"#utility.yul\":18967:18973   */\n      dup3\n        /* \"#utility.yul\":18963:18977   */\n      add\n        /* \"#utility.yul\":18956:19014   */\n      mstore\n        /* \"#utility.yul\":19048:19056   */\n      0x6464726573730000000000000000000000000000000000000000000000000000\n        /* \"#utility.yul\":19043:19045   */\n      0x20\n        /* \"#utility.yul\":19035:19041   */\n      dup3\n        /* \"#utility.yul\":19031:19046   */\n      add\n        /* \"#utility.yul\":19024:19057   */\n      mstore\n        /* \"#utility.yul\":18839:19064   */\n      pop\n      jump\t// out\n        /* \"#utility.yul\":19070:19436   */\n    tag_309:\n        /* \"#utility.yul\":19212:19215   */\n      0x00\n        /* \"#utility.yul\":19233:19300   */\n      tag_517\n        /* \"#utility.yul\":19297:19299   */\n      0x26\n        /* \"#utility.yul\":19292:19295   */\n      dup4\n        /* \"#utility.yul\":19233:19300   */\n      tag_307\n      jump\t// in\n    tag_517:\n        /* \"#utility.yul\":19226:19300   */\n      swap2\n      pop\n        /* \"#utility.yul\":19309:19402   */\n      tag_518\n        /* \"#utility.yul\":19398:19401   */\n      dup3\n        /* \"#utility.yul\":19309:19402   */\n      tag_308\n      jump\t// in\n    tag_518:\n        /* \"#utility.yul\":19427:19429   */\n      0x40\n        /* \"#utility.yul\":19422:19425   */\n      dup3\n        /* \"#utility.yul\":19418:19430   */\n      add\n        /* \"#utility.yul\":19411:19430   */\n      swap1\n      pop\n        /* \"#utility.yul\":19070:19436   */\n      swap2\n      swap1\n      pop\n      jump\t// out\n        /* \"#utility.yul\":19442:19861   */\n    tag_197:\n        /* \"#utility.yul\":19608:19612   */\n      0x00\n        /* \"#utility.yul\":19646:19648   */\n      0x20\n        /* \"#utility.yul\":19635:19644   */\n      dup3\n        /* \"#utility.yul\":19631:19649   */\n      add\n        /* \"#utility.yul\":19623:19649   */\n      swap1\n      pop\n        /* \"#utility.yul\":19695:19704   */\n      dup2\n        /* \"#utility.yul\":19689:19693   */\n      dup2\n        /* \"#utility.yul\":19685:19705   */\n      sub\n        /* \"#utility.yul\":19681:19682   */\n      0x00\n        /* \"#utility.yul\":19670:19679   */\n      dup4\n        /* \"#utility.yul\":19666:19683   */\n      add\n        /* \"#utility.yul\":19659:19706   */\n      mstore\n        /* \"#utility.yul\":19723:19854   */\n      tag_520\n        /* \"#utility.yul\":19849:19853   */\n      dup2\n        /* \"#utility.yul\":19723:19854   */\n      tag_309\n      jump\t// in\n    tag_520:\n        /* \"#utility.yul\":19715:19854   */\n      swap1\n      pop\n        /* \"#utility.yul\":19442:19861   */\n      swap2\n      swap1\n      pop\n      jump\t// out\n        /* \"#utility.yul\":19867:20049   */\n    tag_310:\n        /* \"#utility.yul\":20007:20041   */\n      0x4f776e61626c653a2063616c6c6572206973206e6f7420746865206f776e6572\n        /* \"#utility.yul\":20003:20004   */\n      0x00\n        /* \"#utility.yul\":19995:20001   */\n      dup3\n        /* \"#utility.yul\":19991:20005   */\n      add\n        /* \"#utility.yul\":19984:20042   */\n      mstore\n        /* \"#utility.yul\":19867:20049   */\n      pop\n      jump\t// out\n        /* \"#utility.yul\":20055:20421   */\n    tag_311:\n        /* \"#utility.yul\":20197:20200   */\n      0x00\n        /* \"#utility.yul\":20218:20285   */\n      tag_523\n        /* \"#utility.yul\":20282:20284   */\n      0x20\n        /* \"#utility.yul\":20277:20280   */\n      dup4\n        /* \"#utility.yul\":20218:20285   */\n      tag_307\n      jump\t// in\n    tag_523:\n        /* \"#utility.yul\":20211:20285   */\n      swap2\n      pop\n        /* \"#utility.yul\":20294:20387   */\n      tag_524\n        /* \"#utility.yul\":20383:20386   */\n      dup3\n        /* \"#utility.yul\":20294:20387   */\n      tag_310\n      jump\t// in\n    tag_524:\n        /* \"#utility.yul\":20412:20414   */\n      0x20\n        /* \"#utility.yul\":20407:20410   */\n      dup3\n        /* \"#utility.yul\":20403:20415   */\n      add\n        /* \"#utility.yul\":20396:20415   */\n      swap1\n      pop\n        /* \"#utility.yul\":20055:20421   */\n      swap2\n      swap1\n      pop\n      jump\t// out\n        /* \"#utility.yul\":20427:20846   */\n    tag_218:\n        /* \"#utility.yul\":20593:20597   */\n      0x00\n        /* \"#utility.yul\":20631:20633   */\n      0x20\n        /* \"#utility.yul\":20620:20629   */\n      dup3\n        /* \"#utility.yul\":20616:20634   */\n      add\n        /* \"#utility.yul\":20608:20634   */\n      swap1\n      pop\n        /* \"#utility.yul\":20680:20689   */\n      dup2\n        /* \"#utility.yul\":20674:20678   */\n      dup2\n        /* \"#utility.yul\":20670:20690   */\n      sub\n        /* \"#utility.yul\":20666:20667   */\n      0x00\n        /* \"#utility.yul\":20655:20664   */\n      dup4\n        /* \"#utility.yul\":20651:20668   */\n      add\n        /* \"#utility.yul\":20644:20691   */\n      mstore\n        /* \"#utility.yul\":20708:20839   */\n      tag_526\n        /* \"#utility.yul\":20834:20838   */\n      dup2\n        /* \"#utility.yul\":20708:20839   */\n      tag_311\n      jump\t// in\n    tag_526:\n        /* \"#utility.yul\":20700:20839   */\n      swap1\n      pop\n        /* \"#utility.yul\":20427:20846   */\n      swap2\n      swap1\n      pop\n      jump\t// out\n\n    auxdata: 0xa2646970667358221220c00c8d5582c398d4bde91cfceb147ff6c952a1d5cd69dd70d0e64c47bac2908364736f6c63430008140033\n}\n",
				"bytecode": {
					"linkReferences": {},
					"object": "608060405234801562000010575f80fd5b5062000031620000256200004760201b60201c565b6200004e60201b60201c565b620000416200010f60201b60201c565b620003fa565b5f33905090565b5f805f9054906101000a900473ffffffffffffffffffffffffffffffffffffffff169050815f806101000a81548173ffffffffffffffffffffffffffffffffffffffff021916908373ffffffffffffffffffffffffffffffffffffffff1602179055508173ffffffffffffffffffffffffffffffffffffffff168173ffffffffffffffffffffffffffffffffffffffff167f8be0079c531659141344cd1fd0a4f28419497f9722a3daafe3b4186f6b6457e060405160405180910390a35050565b6200011f6200015f60201b60201c565b5f60015f015f6101000a81548160ff02191690836005811115620001485762000147620002ee565b5b02179055506200015d620001f060201b60201c565b565b6200016f6200004760201b60201c565b73ffffffffffffffffffffffffffffffffffffffff16620001956200021460201b60201c565b73ffffffffffffffffffffffffffffffffffffffff1614620001ee576040517f08c379a0000000000000000000000000000000000000000000000000000000008152600401620001e59062000379565b60405180910390fd5b565b620002006200015f60201b60201c565b60016003015f6200021291906200023b565b565b5f805f9054906101000a900473ffffffffffffffffffffffffffffffffffffffff16905090565b5080545f8255600202905f5260205f20908101906200025b91906200025e565b50565b5b808211156200028a575f8082015f6200027991906200028e565b600182015f9055506002016200025f565b5090565b5080546200029c90620003c6565b5f825580601f10620002af5750620002ce565b601f0160209004905f5260205f2090810190620002cd9190620002d1565b5b50565b5b80821115620002ea575f815f905550600101620002d2565b5090565b7f4e487b71000000000000000000000000000000000000000000000000000000005f52602160045260245ffd5b5f82825260208201905092915050565b7f4f776e61626c653a2063616c6c6572206973206e6f7420746865206f776e65725f82015250565b5f620003616020836200031b565b91506200036e826200032b565b602082019050919050565b5f6020820190508181035f830152620003928162000353565b9050919050565b7f4e487b71000000000000000000000000000000000000000000000000000000005f52602260045260245ffd5b5f6002820490506001821680620003de57607f821691505b602082108103620003f457620003f362000399565b5b50919050565b611b7180620004085f395ff3fe608060405234801561000f575f80fd5b5060043610610114575f3560e01c8063715018a6116100a0578063d55ec9c11161006f578063d55ec9c11461020c578063e85a8f2a14610228578063f2fde38b14610232578063f74c168d1461024e578063f8a3ce821461025857610114565b8063715018a6146101bc5780638da5cb5b146101c65780638e7ea5b2146101e4578063aaa983461461020257610114565b8063329a8cfa116100e7578063329a8cfa14610178578063378a21781461018257806338db6dd31461018c5780634a2f00c7146101a8578063553bd397146101b257610114565b80630121b93f146101185780630f7e283814610134578063134c39cc1461013e5780632f95355b1461015c575b5f80fd5b610132600480360381019061012d91906110de565b610262565b005b61013c6104e6565b005b610146610582565b6040516101539190611297565b60405180910390f35b610176600480360381019061017191906113e3565b61067a565b005b6101806107ba565b005b61018a6107c4565b005b6101a660048036038101906101a19190611484565b61085a565b005b6101b06109f0565b005b6101ba610a0a565b005b6101c4610ae1565b005b6101ce610af4565b6040516101db91906114be565b60405180910390f35b6101ec610b1b565b6040516101f991906114be565b60405180910390f35b61020a610b22565b005b6102266004803603810190610221919061159b565b610bc0565b005b610230610c15565b005b61024c60048036038101906102479190611484565b610cb3565b005b610256610d35565b005b610260610dd3565b005b600180015f3373ffffffffffffffffffffffffffffffffffffffff1673ffffffffffffffffffffffffffffffffffffffff1681526020019081526020015f205f015f9054906101000a900460ff166102f157336040517faffa818a0000000000000000000000000000000000000000000000000000000081526004016102e891906114be565b60405180910390fd5b600160030180549050811061033d57806040517f442633c800000000000000000000000000000000000000000000000000000000815260040161033491906115f1565b60405180910390fd5b600180015f3373ffffffffffffffffffffffffffffffffffffffff1673ffffffffffffffffffffffffffffffffffffffff1681526020019081526020015f205f0160019054906101000a900460ff16156103ce57336040517fd449d6740000000000000000000000000000000000000000000000000000000081526004016103c591906114be565b60405180910390fd5b6001806001015f3373ffffffffffffffffffffffffffffffffffffffff1673ffffffffffffffffffffffffffffffffffffffff1681526020019081526020015f205f0160016101000a81548160ff02191690831515021790555080600180015f3373ffffffffffffffffffffffffffffffffffffffff1673ffffffffffffffffffffffffffffffffffffffff1681526020019081526020015f2060010181905550600160030181815481106104865761048561160a565b5b905f5260205f2090600202016001015f8154809291906104a590611664565b91905055507f4d99b957a2bc29a30ebd96a7be8e68fe50a3c701db28a91436490b7d53870ca433826040516104db9291906116ab565b60405180910390a150565b6104ee610de5565b6104f75f610e63565b5f60015f015f9054906101000a900460ff1690506001805f015f6101000a81548160ff02191690836005811115610531576105306116d2565b5b02179055507f0a97a4ee45751e2abf3e4fc8946939630b11b371ea8ae39ccdc3056e98f5cc3f8160015f015f9054906101000a900460ff16604051610577929190611745565b60405180910390a150565b60606001600301805480602002602001604051908101604052809291908181526020015f905b82821015610671578382905f5260205f2090600202016040518060400160405290815f820180546105d890611799565b80601f016020809104026020016040519081016040528092919081815260200182805461060490611799565b801561064f5780601f106106265761010080835404028352916020019161064f565b820191905f5260205f20905b81548152906001019060200180831161063257829003601f168201915b50505050508152602001600182015481525050815260200190600101906105a8565b50505050905090565b600180015f3373ffffffffffffffffffffffffffffffffffffffff1673ffffffffffffffffffffffffffffffffffffffff1681526020019081526020015f205f015f9054906101000a900460ff1661070957336040517faffa818a00000000000000000000000000000000000000000000000000000000815260040161070091906114be565b60405180910390fd5b6107136001610e63565b5f6001600301805490509050600160030160405180604001604052808481526020015f815250908060018154018082558091505060019003905f5260205f2090600202015f909190919091505f820151815f0190816107729190611966565b506020820151816001015550507f92e393e9b54e2f801d3ea4beb0c5e71a21cc34a5d34b77d0fb8a3aa1650dc18f816040516107ae91906115f1565b60405180910390a15050565b6107c2610de5565b565b6107ce6003610e63565b5f60015f015f9054906101000a900460ff169050600560015f015f6101000a81548160ff02191690836005811115610809576108086116d2565b5b02179055507f0a97a4ee45751e2abf3e4fc8946939630b11b371ea8ae39ccdc3056e98f5cc3f8160015f015f9054906101000a900460ff1660405161084f929190611745565b60405180910390a150565b610862610de5565b61086b5f610e63565b600180015f8273ffffffffffffffffffffffffffffffffffffffff1673ffffffffffffffffffffffffffffffffffffffff1681526020019081526020015f205f015f9054906101000a900460ff166108fa57806040517f7ecf313d0000000000000000000000000000000000000000000000000000000081526004016108f191906114be565b60405180910390fd5b600160020181908060018154018082558091505060019003905f5260205f20015f9091909190916101000a81548173ffffffffffffffffffffffffffffffffffffffff021916908373ffffffffffffffffffffffffffffffffffffffff1602179055506001806001015f8373ffffffffffffffffffffffffffffffffffffffff1673ffffffffffffffffffffffffffffffffffffffff1681526020019081526020015f205f015f6101000a81548160ff0219169083151502179055507fb6be2187d059cc2a55fe29e0e503b566e1e0f8c8780096e185429350acffd3dd816040516109e591906114be565b60405180910390a150565b6109f8610de5565b60016003015f610a089190610ff5565b565b610a12610de5565b5f6001600201805490501115610adf575f5b600160020180549050811015610add575f600180015f60016002018481548110610a5157610a5061160a565b5b905f5260205f20015f9054906101000a900473ffffffffffffffffffffffffffffffffffffffff1673ffffffffffffffffffffffffffffffffffffffff1673ffffffffffffffffffffffffffffffffffffffff1681526020019081526020015f205f015f6101000a81548160ff0219169083151502179055508080610ad590611664565b915050610a24565b505b565b610ae9610de5565b610af25f610ef0565b565b5f805f9054906101000a900473ffffffffffffffffffffffffffffffffffffffff16905090565b5f30905090565b610b2a610de5565b610b346002610e63565b5f60015f015f9054906101000a900460ff169050600360015f015f6101000a81548160ff02191690836005811115610b6f57610b6e6116d2565b5b02179055507f0a97a4ee45751e2abf3e4fc8946939630b11b371ea8ae39ccdc3056e98f5cc3f8160015f015f9054906101000a900460ff16604051610bb5929190611745565b60405180910390a150565b610bc8610de5565b610bd15f610e63565b5f5b81518111610c1157610bfe828281518110610bf157610bf061160a565b5b602002602001015161085a565b8080610c0990611664565b915050610bd3565b5050565b610c1d610de5565b610c276001610e63565b5f60015f015f9054906101000a900460ff169050600260015f015f6101000a81548160ff02191690836005811115610c6257610c616116d2565b5b02179055507f0a97a4ee45751e2abf3e4fc8946939630b11b371ea8ae39ccdc3056e98f5cc3f8160015f015f9054906101000a900460ff16604051610ca8929190611745565b60405180910390a150565b610cbb610de5565b5f73ffffffffffffffffffffffffffffffffffffffff168173ffffffffffffffffffffffffffffffffffffffff1603610d29576040517f08c379a0000000000000000000000000000000000000000000000000000000008152600401610d2090611ab5565b60405180910390fd5b610d3281610ef0565b50565b610d3d610de5565b610d476003610e63565b5f60015f015f9054906101000a900460ff169050600460015f015f6101000a81548160ff02191690836005811115610d8257610d816116d2565b5b02179055507f0a97a4ee45751e2abf3e4fc8946939630b11b371ea8ae39ccdc3056e98f5cc3f8160015f015f9054906101000a900460ff16604051610dc8929190611745565b60405180910390a150565b610ddb610de5565b610de3610fb1565b565b610ded610fee565b73ffffffffffffffffffffffffffffffffffffffff16610e0b610af4565b73ffffffffffffffffffffffffffffffffffffffff1614610e61576040517f08c379a0000000000000000000000000000000000000000000000000000000008152600401610e5890611b1d565b60405180910390fd5b565b806005811115610e7657610e756116d2565b5b60015f015f9054906101000a900460ff166005811115610e9957610e986116d2565b5b14610eed578060015f015f9054906101000a900460ff166040517f586a712d000000000000000000000000000000000000000000000000000000008152600401610ee4929190611745565b60405180910390fd5b50565b5f805f9054906101000a900473ffffffffffffffffffffffffffffffffffffffff169050815f806101000a81548173ffffffffffffffffffffffffffffffffffffffff021916908373ffffffffffffffffffffffffffffffffffffffff1602179055508173ffffffffffffffffffffffffffffffffffffffff168173ffffffffffffffffffffffffffffffffffffffff167f8be0079c531659141344cd1fd0a4f28419497f9722a3daafe3b4186f6b6457e060405160405180910390a35050565b610fb9610de5565b5f60015f015f6101000a81548160ff02191690836005811115610fdf57610fde6116d2565b5b0217905550610fec6109f0565b565b5f33905090565b5080545f8255600202905f5260205f20908101906110139190611016565b50565b5b8082111561103e575f8082015f61102e9190611042565b600182015f905550600201611017565b5090565b50805461104e90611799565b5f825580601f1061105f575061107c565b601f0160209004905f5260205f209081019061107b919061107f565b5b50565b5b80821115611096575f815f905550600101611080565b5090565b5f604051905090565b5f80fd5b5f80fd5b5f819050919050565b6110bd816110ab565b81146110c7575f80fd5b50565b5f813590506110d8816110b4565b92915050565b5f602082840312156110f3576110f26110a3565b5b5f611100848285016110ca565b91505092915050565b5f81519050919050565b5f82825260208201905092915050565b5f819050602082019050919050565b5f81519050919050565b5f82825260208201905092915050565b5f5b8381101561116957808201518184015260208101905061114e565b5f8484015250505050565b5f601f19601f8301169050919050565b5f61118e82611132565b611198818561113c565b93506111a881856020860161114c565b6111b181611174565b840191505092915050565b6111c5816110ab565b82525050565b5f604083015f8301518482035f8601526111e58282611184565b91505060208301516111fa60208601826111bc565b508091505092915050565b5f61121083836111cb565b905092915050565b5f602082019050919050565b5f61122e82611109565b6112388185611113565b93508360208202850161124a85611123565b805f5b8581101561128557848403895281516112668582611205565b945061127183611218565b925060208a0199505060018101905061124d565b50829750879550505050505092915050565b5f6020820190508181035f8301526112af8184611224565b905092915050565b5f80fd5b5f80fd5b7f4e487b71000000000000000000000000000000000000000000000000000000005f52604160045260245ffd5b6112f582611174565b810181811067ffffffffffffffff82111715611314576113136112bf565b5b80604052505050565b5f61132661109a565b905061133282826112ec565b919050565b5f67ffffffffffffffff821115611351576113506112bf565b5b61135a82611174565b9050602081019050919050565b828183375f83830152505050565b5f61138761138284611337565b61131d565b9050828152602081018484840111156113a3576113a26112bb565b5b6113ae848285611367565b509392505050565b5f82601f8301126113ca576113c96112b7565b5b81356113da848260208601611375565b91505092915050565b5f602082840312156113f8576113f76110a3565b5b5f82013567ffffffffffffffff811115611415576114146110a7565b5b611421848285016113b6565b91505092915050565b5f73ffffffffffffffffffffffffffffffffffffffff82169050919050565b5f6114538261142a565b9050919050565b61146381611449565b811461146d575f80fd5b50565b5f8135905061147e8161145a565b92915050565b5f60208284031215611499576114986110a3565b5b5f6114a684828501611470565b91505092915050565b6114b881611449565b82525050565b5f6020820190506114d15f8301846114af565b92915050565b5f67ffffffffffffffff8211156114f1576114f06112bf565b5b602082029050602081019050919050565b5f80fd5b5f611518611513846114d7565b61131d565b9050808382526020820190506020840283018581111561153b5761153a611502565b5b835b8181101561156457806115508882611470565b84526020840193505060208101905061153d565b5050509392505050565b5f82601f830112611582576115816112b7565b5b8135611592848260208601611506565b91505092915050565b5f602082840312156115b0576115af6110a3565b5b5f82013567ffffffffffffffff8111156115cd576115cc6110a7565b5b6115d98482850161156e565b91505092915050565b6115eb816110ab565b82525050565b5f6020820190506116045f8301846115e2565b92915050565b7f4e487b71000000000000000000000000000000000000000000000000000000005f52603260045260245ffd5b7f4e487b71000000000000000000000000000000000000000000000000000000005f52601160045260245ffd5b5f61166e826110ab565b91507fffffffffffffffffffffffffffffffffffffffffffffffffffffffffffffffff82036116a05761169f611637565b5b600182019050919050565b5f6040820190506116be5f8301856114af565b6116cb60208301846115e2565b9392505050565b7f4e487b71000000000000000000000000000000000000000000000000000000005f52602160045260245ffd5b600681106117105761170f6116d2565b5b50565b5f819050611720826116ff565b919050565b5f61172f82611713565b9050919050565b61173f81611725565b82525050565b5f6040820190506117585f830185611736565b6117656020830184611736565b9392505050565b7f4e487b71000000000000000000000000000000000000000000000000000000005f52602260045260245ffd5b5f60028204905060018216806117b057607f821691505b6020821081036117c3576117c261176c565b5b50919050565b5f819050815f5260205f209050919050565b5f6020601f8301049050919050565b5f82821b905092915050565b5f600883026118257fffffffffffffffffffffffffffffffffffffffffffffffffffffffffffffffff826117ea565b61182f86836117ea565b95508019841693508086168417925050509392505050565b5f819050919050565b5f61186a611865611860846110ab565b611847565b6110ab565b9050919050565b5f819050919050565b61188383611850565b61189761188f82611871565b8484546117f6565b825550505050565b5f90565b6118ab61189f565b6118b681848461187a565b505050565b5b818110156118d9576118ce5f826118a3565b6001810190506118bc565b5050565b601f82111561191e576118ef816117c9565b6118f8846117db565b81016020851015611907578190505b61191b611913856117db565b8301826118bb565b50505b505050565b5f82821c905092915050565b5f61193e5f1984600802611923565b1980831691505092915050565b5f611956838361192f565b9150826002028217905092915050565b61196f82611132565b67ffffffffffffffff811115611988576119876112bf565b5b6119928254611799565b61199d8282856118dd565b5f60209050601f8311600181146119ce575f84156119bc578287015190505b6119c6858261194b565b865550611a2d565b601f1984166119dc866117c9565b5f5b82811015611a03578489015182556001820191506020850194506020810190506119de565b86831015611a205784890151611a1c601f89168261192f565b8355505b6001600288020188555050505b505050505050565b5f82825260208201905092915050565b7f4f776e61626c653a206e6577206f776e657220697320746865207a65726f20615f8201527f6464726573730000000000000000000000000000000000000000000000000000602082015250565b5f611a9f602683611a35565b9150611aaa82611a45565b604082019050919050565b5f6020820190508181035f830152611acc81611a93565b9050919050565b7f4f776e61626c653a2063616c6c6572206973206e6f7420746865206f776e65725f82015250565b5f611b07602083611a35565b9150611b1282611ad3565b602082019050919050565b5f6020820190508181035f830152611b3481611afb565b905091905056fea2646970667358221220c00c8d5582c398d4bde91cfceb147ff6c952a1d5cd69dd70d0e64c47bac2908364736f6c63430008140033",
					"opcodes": "PUSH1 0x80 PUSH1 0x40 MSTORE CALLVALUE DUP1 ISZERO PUSH3 0x10 JUMPI PUSH0 DUP1 REVERT JUMPDEST POP PUSH3 0x31 PUSH3 0x25 PUSH3 0x47 PUSH1 0x20 SHL PUSH1 0x20 SHR JUMP JUMPDEST PUSH3 0x4E PUSH1 0x20 SHL PUSH1 0x20 SHR JUMP JUMPDEST PUSH3 0x41 PUSH3 0x10F PUSH1 0x20 SHL PUSH1 0x20 SHR JUMP JUMPDEST PUSH3 0x3FA JUMP JUMPDEST PUSH0 CALLER SWAP1 POP SWAP1 JUMP JUMPDEST PUSH0 DUP1 PUSH0 SWAP1 SLOAD SWAP1 PUSH2 0x100 EXP SWAP1 DIV PUSH20 0xFFFFFFFFFFFFFFFFFFFFFFFFFFFFFFFFFFFFFFFF AND SWAP1 POP DUP2 PUSH0 DUP1 PUSH2 0x100 EXP DUP2 SLOAD DUP2 PUSH20 0xFFFFFFFFFFFFFFFFFFFFFFFFFFFFFFFFFFFFFFFF MUL NOT AND SWAP1 DUP4 PUSH20 0xFFFFFFFFFFFFFFFFFFFFFFFFFFFFFFFFFFFFFFFF AND MUL OR SWAP1 SSTORE POP DUP2 PUSH20 0xFFFFFFFFFFFFFFFFFFFFFFFFFFFFFFFFFFFFFFFF AND DUP2 PUSH20 0xFFFFFFFFFFFFFFFFFFFFFFFFFFFFFFFFFFFFFFFF AND PUSH32 0x8BE0079C531659141344CD1FD0A4F28419497F9722A3DAAFE3B4186F6B6457E0 PUSH1 0x40 MLOAD PUSH1 0x40 MLOAD DUP1 SWAP2 SUB SWAP1 LOG3 POP POP JUMP JUMPDEST PUSH3 0x11F PUSH3 0x15F PUSH1 0x20 SHL PUSH1 0x20 SHR JUMP JUMPDEST PUSH0 PUSH1 0x1 PUSH0 ADD PUSH0 PUSH2 0x100 EXP DUP2 SLOAD DUP2 PUSH1 0xFF MUL NOT AND SWAP1 DUP4 PUSH1 0x5 DUP2 GT ISZERO PUSH3 0x148 JUMPI PUSH3 0x147 PUSH3 0x2EE JUMP JUMPDEST JUMPDEST MUL OR SWAP1 SSTORE POP PUSH3 0x15D PUSH3 0x1F0 PUSH1 0x20 SHL PUSH1 0x20 SHR JUMP JUMPDEST JUMP JUMPDEST PUSH3 0x16F PUSH3 0x47 PUSH1 0x20 SHL PUSH1 0x20 SHR JUMP JUMPDEST PUSH20 0xFFFFFFFFFFFFFFFFFFFFFFFFFFFFFFFFFFFFFFFF AND PUSH3 0x195 PUSH3 0x214 PUSH1 0x20 SHL PUSH1 0x20 SHR JUMP JUMPDEST PUSH20 0xFFFFFFFFFFFFFFFFFFFFFFFFFFFFFFFFFFFFFFFF AND EQ PUSH3 0x1EE JUMPI PUSH1 0x40 MLOAD PUSH32 0x8C379A000000000000000000000000000000000000000000000000000000000 DUP2 MSTORE PUSH1 0x4 ADD PUSH3 0x1E5 SWAP1 PUSH3 0x379 JUMP JUMPDEST PUSH1 0x40 MLOAD DUP1 SWAP2 SUB SWAP1 REVERT JUMPDEST JUMP JUMPDEST PUSH3 0x200 PUSH3 0x15F PUSH1 0x20 SHL PUSH1 0x20 SHR JUMP JUMPDEST PUSH1 0x1 PUSH1 0x3 ADD PUSH0 PUSH3 0x212 SWAP2 SWAP1 PUSH3 0x23B JUMP JUMPDEST JUMP JUMPDEST PUSH0 DUP1 PUSH0 SWAP1 SLOAD SWAP1 PUSH2 0x100 EXP SWAP1 DIV PUSH20 0xFFFFFFFFFFFFFFFFFFFFFFFFFFFFFFFFFFFFFFFF AND SWAP1 POP SWAP1 JUMP JUMPDEST POP DUP1 SLOAD PUSH0 DUP3 SSTORE PUSH1 0x2 MUL SWAP1 PUSH0 MSTORE PUSH1 0x20 PUSH0 KECCAK256 SWAP1 DUP2 ADD SWAP1 PUSH3 0x25B SWAP2 SWAP1 PUSH3 0x25E JUMP JUMPDEST POP JUMP JUMPDEST JUMPDEST DUP1 DUP3 GT ISZERO PUSH3 0x28A JUMPI PUSH0 DUP1 DUP3 ADD PUSH0 PUSH3 0x279 SWAP2 SWAP1 PUSH3 0x28E JUMP JUMPDEST PUSH1 0x1 DUP3 ADD PUSH0 SWAP1 SSTORE POP PUSH1 0x2 ADD PUSH3 0x25F JUMP JUMPDEST POP SWAP1 JUMP JUMPDEST POP DUP1 SLOAD PUSH3 0x29C SWAP1 PUSH3 0x3C6 JUMP JUMPDEST PUSH0 DUP3 SSTORE DUP1 PUSH1 0x1F LT PUSH3 0x2AF JUMPI POP PUSH3 0x2CE JUMP JUMPDEST PUSH1 0x1F ADD PUSH1 0x20 SWAP1 DIV SWAP1 PUSH0 MSTORE PUSH1 0x20 PUSH0 KECCAK256 SWAP1 DUP2 ADD SWAP1 PUSH3 0x2CD SWAP2 SWAP1 PUSH3 0x2D1 JUMP JUMPDEST JUMPDEST POP JUMP JUMPDEST JUMPDEST DUP1 DUP3 GT ISZERO PUSH3 0x2EA JUMPI PUSH0 DUP2 PUSH0 SWAP1 SSTORE POP PUSH1 0x1 ADD PUSH3 0x2D2 JUMP JUMPDEST POP SWAP1 JUMP JUMPDEST PUSH32 0x4E487B7100000000000000000000000000000000000000000000000000000000 PUSH0 MSTORE PUSH1 0x21 PUSH1 0x4 MSTORE PUSH1 0x24 PUSH0 REVERT JUMPDEST PUSH0 DUP3 DUP3 MSTORE PUSH1 0x20 DUP3 ADD SWAP1 POP SWAP3 SWAP2 POP POP JUMP JUMPDEST PUSH32 0x4F776E61626C653A2063616C6C6572206973206E6F7420746865206F776E6572 PUSH0 DUP3 ADD MSTORE POP JUMP JUMPDEST PUSH0 PUSH3 0x361 PUSH1 0x20 DUP4 PUSH3 0x31B JUMP JUMPDEST SWAP2 POP PUSH3 0x36E DUP3 PUSH3 0x32B JUMP JUMPDEST PUSH1 0x20 DUP3 ADD SWAP1 POP SWAP2 SWAP1 POP JUMP JUMPDEST PUSH0 PUSH1 0x20 DUP3 ADD SWAP1 POP DUP2 DUP2 SUB PUSH0 DUP4 ADD MSTORE PUSH3 0x392 DUP2 PUSH3 0x353 JUMP JUMPDEST SWAP1 POP SWAP2 SWAP1 POP JUMP JUMPDEST PUSH32 0x4E487B7100000000000000000000000000000000000000000000000000000000 PUSH0 MSTORE PUSH1 0x22 PUSH1 0x4 MSTORE PUSH1 0x24 PUSH0 REVERT JUMPDEST PUSH0 PUSH1 0x2 DUP3 DIV SWAP1 POP PUSH1 0x1 DUP3 AND DUP1 PUSH3 0x3DE JUMPI PUSH1 0x7F DUP3 AND SWAP2 POP JUMPDEST PUSH1 0x20 DUP3 LT DUP2 SUB PUSH3 0x3F4 JUMPI PUSH3 0x3F3 PUSH3 0x399 JUMP JUMPDEST JUMPDEST POP SWAP2 SWAP1 POP JUMP JUMPDEST PUSH2 0x1B71 DUP1 PUSH3 0x408 PUSH0 CODECOPY PUSH0 RETURN INVALID PUSH1 0x80 PUSH1 0x40 MSTORE CALLVALUE DUP1 ISZERO PUSH2 0xF JUMPI PUSH0 DUP1 REVERT JUMPDEST POP PUSH1 0x4 CALLDATASIZE LT PUSH2 0x114 JUMPI PUSH0 CALLDATALOAD PUSH1 0xE0 SHR DUP1 PUSH4 0x715018A6 GT PUSH2 0xA0 JUMPI DUP1 PUSH4 0xD55EC9C1 GT PUSH2 0x6F JUMPI DUP1 PUSH4 0xD55EC9C1 EQ PUSH2 0x20C JUMPI DUP1 PUSH4 0xE85A8F2A EQ PUSH2 0x228 JUMPI DUP1 PUSH4 0xF2FDE38B EQ PUSH2 0x232 JUMPI DUP1 PUSH4 0xF74C168D EQ PUSH2 0x24E JUMPI DUP1 PUSH4 0xF8A3CE82 EQ PUSH2 0x258 JUMPI PUSH2 0x114 JUMP JUMPDEST DUP1 PUSH4 0x715018A6 EQ PUSH2 0x1BC JUMPI DUP1 PUSH4 0x8DA5CB5B EQ PUSH2 0x1C6 JUMPI DUP1 PUSH4 0x8E7EA5B2 EQ PUSH2 0x1E4 JUMPI DUP1 PUSH4 0xAAA98346 EQ PUSH2 0x202 JUMPI PUSH2 0x114 JUMP JUMPDEST DUP1 PUSH4 0x329A8CFA GT PUSH2 0xE7 JUMPI DUP1 PUSH4 0x329A8CFA EQ PUSH2 0x178 JUMPI DUP1 PUSH4 0x378A2178 EQ PUSH2 0x182 JUMPI DUP1 PUSH4 0x38DB6DD3 EQ PUSH2 0x18C JUMPI DUP1 PUSH4 0x4A2F00C7 EQ PUSH2 0x1A8 JUMPI DUP1 PUSH4 0x553BD397 EQ PUSH2 0x1B2 JUMPI PUSH2 0x114 JUMP JUMPDEST DUP1 PUSH4 0x121B93F EQ PUSH2 0x118 JUMPI DUP1 PUSH4 0xF7E2838 EQ PUSH2 0x134 JUMPI DUP1 PUSH4 0x134C39CC EQ PUSH2 0x13E JUMPI DUP1 PUSH4 0x2F95355B EQ PUSH2 0x15C JUMPI JUMPDEST PUSH0 DUP1 REVERT JUMPDEST PUSH2 0x132 PUSH1 0x4 DUP1 CALLDATASIZE SUB DUP2 ADD SWAP1 PUSH2 0x12D SWAP2 SWAP1 PUSH2 0x10DE JUMP JUMPDEST PUSH2 0x262 JUMP JUMPDEST STOP JUMPDEST PUSH2 0x13C PUSH2 0x4E6 JUMP JUMPDEST STOP JUMPDEST PUSH2 0x146 PUSH2 0x582 JUMP JUMPDEST PUSH1 0x40 MLOAD PUSH2 0x153 SWAP2 SWAP1 PUSH2 0x1297 JUMP JUMPDEST PUSH1 0x40 MLOAD DUP1 SWAP2 SUB SWAP1 RETURN JUMPDEST PUSH2 0x176 PUSH1 0x4 DUP1 CALLDATASIZE SUB DUP2 ADD SWAP1 PUSH2 0x171 SWAP2 SWAP1 PUSH2 0x13E3 JUMP JUMPDEST PUSH2 0x67A JUMP JUMPDEST STOP JUMPDEST PUSH2 0x180 PUSH2 0x7BA JUMP JUMPDEST STOP JUMPDEST PUSH2 0x18A PUSH2 0x7C4 JUMP JUMPDEST STOP JUMPDEST PUSH2 0x1A6 PUSH1 0x4 DUP1 CALLDATASIZE SUB DUP2 ADD SWAP1 PUSH2 0x1A1 SWAP2 SWAP1 PUSH2 0x1484 JUMP JUMPDEST PUSH2 0x85A JUMP JUMPDEST STOP JUMPDEST PUSH2 0x1B0 PUSH2 0x9F0 JUMP JUMPDEST STOP JUMPDEST PUSH2 0x1BA PUSH2 0xA0A JUMP JUMPDEST STOP JUMPDEST PUSH2 0x1C4 PUSH2 0xAE1 JUMP JUMPDEST STOP JUMPDEST PUSH2 0x1CE PUSH2 0xAF4 JUMP JUMPDEST PUSH1 0x40 MLOAD PUSH2 0x1DB SWAP2 SWAP1 PUSH2 0x14BE JUMP JUMPDEST PUSH1 0x40 MLOAD DUP1 SWAP2 SUB SWAP1 RETURN JUMPDEST PUSH2 0x1EC PUSH2 0xB1B JUMP JUMPDEST PUSH1 0x40 MLOAD PUSH2 0x1F9 SWAP2 SWAP1 PUSH2 0x14BE JUMP JUMPDEST PUSH1 0x40 MLOAD DUP1 SWAP2 SUB SWAP1 RETURN JUMPDEST PUSH2 0x20A PUSH2 0xB22 JUMP JUMPDEST STOP JUMPDEST PUSH2 0x226 PUSH1 0x4 DUP1 CALLDATASIZE SUB DUP2 ADD SWAP1 PUSH2 0x221 SWAP2 SWAP1 PUSH2 0x159B JUMP JUMPDEST PUSH2 0xBC0 JUMP JUMPDEST STOP JUMPDEST PUSH2 0x230 PUSH2 0xC15 JUMP JUMPDEST STOP JUMPDEST PUSH2 0x24C PUSH1 0x4 DUP1 CALLDATASIZE SUB DUP2 ADD SWAP1 PUSH2 0x247 SWAP2 SWAP1 PUSH2 0x1484 JUMP JUMPDEST PUSH2 0xCB3 JUMP JUMPDEST STOP JUMPDEST PUSH2 0x256 PUSH2 0xD35 JUMP JUMPDEST STOP JUMPDEST PUSH2 0x260 PUSH2 0xDD3 JUMP JUMPDEST STOP JUMPDEST PUSH1 0x1 DUP1 ADD PUSH0 CALLER PUSH20 0xFFFFFFFFFFFFFFFFFFFFFFFFFFFFFFFFFFFFFFFF AND PUSH20 0xFFFFFFFFFFFFFFFFFFFFFFFFFFFFFFFFFFFFFFFF AND DUP2 MSTORE PUSH1 0x20 ADD SWAP1 DUP2 MSTORE PUSH1 0x20 ADD PUSH0 KECCAK256 PUSH0 ADD PUSH0 SWAP1 SLOAD SWAP1 PUSH2 0x100 EXP SWAP1 DIV PUSH1 0xFF AND PUSH2 0x2F1 JUMPI CALLER PUSH1 0x40 MLOAD PUSH32 0xAFFA818A00000000000000000000000000000000000000000000000000000000 DUP2 MSTORE PUSH1 0x4 ADD PUSH2 0x2E8 SWAP2 SWAP1 PUSH2 0x14BE JUMP JUMPDEST PUSH1 0x40 MLOAD DUP1 SWAP2 SUB SWAP1 REVERT JUMPDEST PUSH1 0x1 PUSH1 0x3 ADD DUP1 SLOAD SWAP1 POP DUP2 LT PUSH2 0x33D JUMPI DUP1 PUSH1 0x40 MLOAD PUSH32 0x442633C800000000000000000000000000000000000000000000000000000000 DUP2 MSTORE PUSH1 0x4 ADD PUSH2 0x334 SWAP2 SWAP1 PUSH2 0x15F1 JUMP JUMPDEST PUSH1 0x40 MLOAD DUP1 SWAP2 SUB SWAP1 REVERT JUMPDEST PUSH1 0x1 DUP1 ADD PUSH0 CALLER PUSH20 0xFFFFFFFFFFFFFFFFFFFFFFFFFFFFFFFFFFFFFFFF AND PUSH20 0xFFFFFFFFFFFFFFFFFFFFFFFFFFFFFFFFFFFFFFFF AND DUP2 MSTORE PUSH1 0x20 ADD SWAP1 DUP2 MSTORE PUSH1 0x20 ADD PUSH0 KECCAK256 PUSH0 ADD PUSH1 0x1 SWAP1 SLOAD SWAP1 PUSH2 0x100 EXP SWAP1 DIV PUSH1 0xFF AND ISZERO PUSH2 0x3CE JUMPI CALLER PUSH1 0x40 MLOAD PUSH32 0xD449D67400000000000000000000000000000000000000000000000000000000 DUP2 MSTORE PUSH1 0x4 ADD PUSH2 0x3C5 SWAP2 SWAP1 PUSH2 0x14BE JUMP JUMPDEST PUSH1 0x40 MLOAD DUP1 SWAP2 SUB SWAP1 REVERT JUMPDEST PUSH1 0x1 DUP1 PUSH1 0x1 ADD PUSH0 CALLER PUSH20 0xFFFFFFFFFFFFFFFFFFFFFFFFFFFFFFFFFFFFFFFF AND PUSH20 0xFFFFFFFFFFFFFFFFFFFFFFFFFFFFFFFFFFFFFFFF AND DUP2 MSTORE PUSH1 0x20 ADD SWAP1 DUP2 MSTORE PUSH1 0x20 ADD PUSH0 KECCAK256 PUSH0 ADD PUSH1 0x1 PUSH2 0x100 EXP DUP2 SLOAD DUP2 PUSH1 0xFF MUL NOT AND SWAP1 DUP4 ISZERO ISZERO MUL OR SWAP1 SSTORE POP DUP1 PUSH1 0x1 DUP1 ADD PUSH0 CALLER PUSH20 0xFFFFFFFFFFFFFFFFFFFFFFFFFFFFFFFFFFFFFFFF AND PUSH20 0xFFFFFFFFFFFFFFFFFFFFFFFFFFFFFFFFFFFFFFFF AND DUP2 MSTORE PUSH1 0x20 ADD SWAP1 DUP2 MSTORE PUSH1 0x20 ADD PUSH0 KECCAK256 PUSH1 0x1 ADD DUP2 SWAP1 SSTORE POP PUSH1 0x1 PUSH1 0x3 ADD DUP2 DUP2 SLOAD DUP2 LT PUSH2 0x486 JUMPI PUSH2 0x485 PUSH2 0x160A JUMP JUMPDEST JUMPDEST SWAP1 PUSH0 MSTORE PUSH1 0x20 PUSH0 KECCAK256 SWAP1 PUSH1 0x2 MUL ADD PUSH1 0x1 ADD PUSH0 DUP2 SLOAD DUP1 SWAP3 SWAP2 SWAP1 PUSH2 0x4A5 SWAP1 PUSH2 0x1664 JUMP JUMPDEST SWAP2 SWAP1 POP SSTORE POP PUSH32 0x4D99B957A2BC29A30EBD96A7BE8E68FE50A3C701DB28A91436490B7D53870CA4 CALLER DUP3 PUSH1 0x40 MLOAD PUSH2 0x4DB SWAP3 SWAP2 SWAP1 PUSH2 0x16AB JUMP JUMPDEST PUSH1 0x40 MLOAD DUP1 SWAP2 SUB SWAP1 LOG1 POP JUMP JUMPDEST PUSH2 0x4EE PUSH2 0xDE5 JUMP JUMPDEST PUSH2 0x4F7 PUSH0 PUSH2 0xE63 JUMP JUMPDEST PUSH0 PUSH1 0x1 PUSH0 ADD PUSH0 SWAP1 SLOAD SWAP1 PUSH2 0x100 EXP SWAP1 DIV PUSH1 0xFF AND SWAP1 POP PUSH1 0x1 DUP1 PUSH0 ADD PUSH0 PUSH2 0x100 EXP DUP2 SLOAD DUP2 PUSH1 0xFF MUL NOT AND SWAP1 DUP4 PUSH1 0x5 DUP2 GT ISZERO PUSH2 0x531 JUMPI PUSH2 0x530 PUSH2 0x16D2 JUMP JUMPDEST JUMPDEST MUL OR SWAP1 SSTORE POP PUSH32 0xA97A4EE45751E2ABF3E4FC8946939630B11B371EA8AE39CCDC3056E98F5CC3F DUP2 PUSH1 0x1 PUSH0 ADD PUSH0 SWAP1 SLOAD SWAP1 PUSH2 0x100 EXP SWAP1 DIV PUSH1 0xFF AND PUSH1 0x40 MLOAD PUSH2 0x577 SWAP3 SWAP2 SWAP1 PUSH2 0x1745 JUMP JUMPDEST PUSH1 0x40 MLOAD DUP1 SWAP2 SUB SWAP1 LOG1 POP JUMP JUMPDEST PUSH1 0x60 PUSH1 0x1 PUSH1 0x3 ADD DUP1 SLOAD DUP1 PUSH1 0x20 MUL PUSH1 0x20 ADD PUSH1 0x40 MLOAD SWAP1 DUP2 ADD PUSH1 0x40 MSTORE DUP1 SWAP3 SWAP2 SWAP1 DUP2 DUP2 MSTORE PUSH1 0x20 ADD PUSH0 SWAP1 JUMPDEST DUP3 DUP3 LT ISZERO PUSH2 0x671 JUMPI DUP4 DUP3 SWAP1 PUSH0 MSTORE PUSH1 0x20 PUSH0 KECCAK256 SWAP1 PUSH1 0x2 MUL ADD PUSH1 0x40 MLOAD DUP1 PUSH1 0x40 ADD PUSH1 0x40 MSTORE SWAP1 DUP2 PUSH0 DUP3 ADD DUP1 SLOAD PUSH2 0x5D8 SWAP1 PUSH2 0x1799 JUMP JUMPDEST DUP1 PUSH1 0x1F ADD PUSH1 0x20 DUP1 SWAP2 DIV MUL PUSH1 0x20 ADD PUSH1 0x40 MLOAD SWAP1 DUP2 ADD PUSH1 0x40 MSTORE DUP1 SWAP3 SWAP2 SWAP1 DUP2 DUP2 MSTORE PUSH1 0x20 ADD DUP3 DUP1 SLOAD PUSH2 0x604 SWAP1 PUSH2 0x1799 JUMP JUMPDEST DUP1 ISZERO PUSH2 0x64F JUMPI DUP1 PUSH1 0x1F LT PUSH2 0x626 JUMPI PUSH2 0x100 DUP1 DUP4 SLOAD DIV MUL DUP4 MSTORE SWAP2 PUSH1 0x20 ADD SWAP2 PUSH2 0x64F JUMP JUMPDEST DUP3 ADD SWAP2 SWAP1 PUSH0 MSTORE PUSH1 0x20 PUSH0 KECCAK256 SWAP1 JUMPDEST DUP2 SLOAD DUP2 MSTORE SWAP1 PUSH1 0x1 ADD SWAP1 PUSH1 0x20 ADD DUP1 DUP4 GT PUSH2 0x632 JUMPI DUP3 SWAP1 SUB PUSH1 0x1F AND DUP3 ADD SWAP2 JUMPDEST POP POP POP POP POP DUP2 MSTORE PUSH1 0x20 ADD PUSH1 0x1 DUP3 ADD SLOAD DUP2 MSTORE POP POP DUP2 MSTORE PUSH1 0x20 ADD SWAP1 PUSH1 0x1 ADD SWAP1 PUSH2 0x5A8 JUMP JUMPDEST POP POP POP POP SWAP1 POP SWAP1 JUMP JUMPDEST PUSH1 0x1 DUP1 ADD PUSH0 CALLER PUSH20 0xFFFFFFFFFFFFFFFFFFFFFFFFFFFFFFFFFFFFFFFF AND PUSH20 0xFFFFFFFFFFFFFFFFFFFFFFFFFFFFFFFFFFFFFFFF AND DUP2 MSTORE PUSH1 0x20 ADD SWAP1 DUP2 MSTORE PUSH1 0x20 ADD PUSH0 KECCAK256 PUSH0 ADD PUSH0 SWAP1 SLOAD SWAP1 PUSH2 0x100 EXP SWAP1 DIV PUSH1 0xFF AND PUSH2 0x709 JUMPI CALLER PUSH1 0x40 MLOAD PUSH32 0xAFFA818A00000000000000000000000000000000000000000000000000000000 DUP2 MSTORE PUSH1 0x4 ADD PUSH2 0x700 SWAP2 SWAP1 PUSH2 0x14BE JUMP JUMPDEST PUSH1 0x40 MLOAD DUP1 SWAP2 SUB SWAP1 REVERT JUMPDEST PUSH2 0x713 PUSH1 0x1 PUSH2 0xE63 JUMP JUMPDEST PUSH0 PUSH1 0x1 PUSH1 0x3 ADD DUP1 SLOAD SWAP1 POP SWAP1 POP PUSH1 0x1 PUSH1 0x3 ADD PUSH1 0x40 MLOAD DUP1 PUSH1 0x40 ADD PUSH1 0x40 MSTORE DUP1 DUP5 DUP2 MSTORE PUSH1 0x20 ADD PUSH0 DUP2 MSTORE POP SWAP1 DUP1 PUSH1 0x1 DUP2 SLOAD ADD DUP1 DUP3 SSTORE DUP1 SWAP2 POP POP PUSH1 0x1 SWAP1 SUB SWAP1 PUSH0 MSTORE PUSH1 0x20 PUSH0 KECCAK256 SWAP1 PUSH1 0x2 MUL ADD PUSH0 SWAP1 SWAP2 SWAP1 SWAP2 SWAP1 SWAP2 POP PUSH0 DUP3 ADD MLOAD DUP2 PUSH0 ADD SWAP1 DUP2 PUSH2 0x772 SWAP2 SWAP1 PUSH2 0x1966 JUMP JUMPDEST POP PUSH1 0x20 DUP3 ADD MLOAD DUP2 PUSH1 0x1 ADD SSTORE POP POP PUSH32 0x92E393E9B54E2F801D3EA4BEB0C5E71A21CC34A5D34B77D0FB8A3AA1650DC18F DUP2 PUSH1 0x40 MLOAD PUSH2 0x7AE SWAP2 SWAP1 PUSH2 0x15F1 JUMP JUMPDEST PUSH1 0x40 MLOAD DUP1 SWAP2 SUB SWAP1 LOG1 POP POP JUMP JUMPDEST PUSH2 0x7C2 PUSH2 0xDE5 JUMP JUMPDEST JUMP JUMPDEST PUSH2 0x7CE PUSH1 0x3 PUSH2 0xE63 JUMP JUMPDEST PUSH0 PUSH1 0x1 PUSH0 ADD PUSH0 SWAP1 SLOAD SWAP1 PUSH2 0x100 EXP SWAP1 DIV PUSH1 0xFF AND SWAP1 POP PUSH1 0x5 PUSH1 0x1 PUSH0 ADD PUSH0 PUSH2 0x100 EXP DUP2 SLOAD DUP2 PUSH1 0xFF MUL NOT AND SWAP1 DUP4 PUSH1 0x5 DUP2 GT ISZERO PUSH2 0x809 JUMPI PUSH2 0x808 PUSH2 0x16D2 JUMP JUMPDEST JUMPDEST MUL OR SWAP1 SSTORE POP PUSH32 0xA97A4EE45751E2ABF3E4FC8946939630B11B371EA8AE39CCDC3056E98F5CC3F DUP2 PUSH1 0x1 PUSH0 ADD PUSH0 SWAP1 SLOAD SWAP1 PUSH2 0x100 EXP SWAP1 DIV PUSH1 0xFF AND PUSH1 0x40 MLOAD PUSH2 0x84F SWAP3 SWAP2 SWAP1 PUSH2 0x1745 JUMP JUMPDEST PUSH1 0x40 MLOAD DUP1 SWAP2 SUB SWAP1 LOG1 POP JUMP JUMPDEST PUSH2 0x862 PUSH2 0xDE5 JUMP JUMPDEST PUSH2 0x86B PUSH0 PUSH2 0xE63 JUMP JUMPDEST PUSH1 0x1 DUP1 ADD PUSH0 DUP3 PUSH20 0xFFFFFFFFFFFFFFFFFFFFFFFFFFFFFFFFFFFFFFFF AND PUSH20 0xFFFFFFFFFFFFFFFFFFFFFFFFFFFFFFFFFFFFFFFF AND DUP2 MSTORE PUSH1 0x20 ADD SWAP1 DUP2 MSTORE PUSH1 0x20 ADD PUSH0 KECCAK256 PUSH0 ADD PUSH0 SWAP1 SLOAD SWAP1 PUSH2 0x100 EXP SWAP1 DIV PUSH1 0xFF AND PUSH2 0x8FA JUMPI DUP1 PUSH1 0x40 MLOAD PUSH32 0x7ECF313D00000000000000000000000000000000000000000000000000000000 DUP2 MSTORE PUSH1 0x4 ADD PUSH2 0x8F1 SWAP2 SWAP1 PUSH2 0x14BE JUMP JUMPDEST PUSH1 0x40 MLOAD DUP1 SWAP2 SUB SWAP1 REVERT JUMPDEST PUSH1 0x1 PUSH1 0x2 ADD DUP2 SWAP1 DUP1 PUSH1 0x1 DUP2 SLOAD ADD DUP1 DUP3 SSTORE DUP1 SWAP2 POP POP PUSH1 0x1 SWAP1 SUB SWAP1 PUSH0 MSTORE PUSH1 0x20 PUSH0 KECCAK256 ADD PUSH0 SWAP1 SWAP2 SWAP1 SWAP2 SWAP1 SWAP2 PUSH2 0x100 EXP DUP2 SLOAD DUP2 PUSH20 0xFFFFFFFFFFFFFFFFFFFFFFFFFFFFFFFFFFFFFFFF MUL NOT AND SWAP1 DUP4 PUSH20 0xFFFFFFFFFFFFFFFFFFFFFFFFFFFFFFFFFFFFFFFF AND MUL OR SWAP1 SSTORE POP PUSH1 0x1 DUP1 PUSH1 0x1 ADD PUSH0 DUP4 PUSH20 0xFFFFFFFFFFFFFFFFFFFFFFFFFFFFFFFFFFFFFFFF AND PUSH20 0xFFFFFFFFFFFFFFFFFFFFFFFFFFFFFFFFFFFFFFFF AND DUP2 MSTORE PUSH1 0x20 ADD SWAP1 DUP2 MSTORE PUSH1 0x20 ADD PUSH0 KECCAK256 PUSH0 ADD PUSH0 PUSH2 0x100 EXP DUP2 SLOAD DUP2 PUSH1 0xFF MUL NOT AND SWAP1 DUP4 ISZERO ISZERO MUL OR SWAP1 SSTORE POP PUSH32 0xB6BE2187D059CC2A55FE29E0E503B566E1E0F8C8780096E185429350ACFFD3DD DUP2 PUSH1 0x40 MLOAD PUSH2 0x9E5 SWAP2 SWAP1 PUSH2 0x14BE JUMP JUMPDEST PUSH1 0x40 MLOAD DUP1 SWAP2 SUB SWAP1 LOG1 POP JUMP JUMPDEST PUSH2 0x9F8 PUSH2 0xDE5 JUMP JUMPDEST PUSH1 0x1 PUSH1 0x3 ADD PUSH0 PUSH2 0xA08 SWAP2 SWAP1 PUSH2 0xFF5 JUMP JUMPDEST JUMP JUMPDEST PUSH2 0xA12 PUSH2 0xDE5 JUMP JUMPDEST PUSH0 PUSH1 0x1 PUSH1 0x2 ADD DUP1 SLOAD SWAP1 POP GT ISZERO PUSH2 0xADF JUMPI PUSH0 JUMPDEST PUSH1 0x1 PUSH1 0x2 ADD DUP1 SLOAD SWAP1 POP DUP2 LT ISZERO PUSH2 0xADD JUMPI PUSH0 PUSH1 0x1 DUP1 ADD PUSH0 PUSH1 0x1 PUSH1 0x2 ADD DUP5 DUP2 SLOAD DUP2 LT PUSH2 0xA51 JUMPI PUSH2 0xA50 PUSH2 0x160A JUMP JUMPDEST JUMPDEST SWAP1 PUSH0 MSTORE PUSH1 0x20 PUSH0 KECCAK256 ADD PUSH0 SWAP1 SLOAD SWAP1 PUSH2 0x100 EXP SWAP1 DIV PUSH20 0xFFFFFFFFFFFFFFFFFFFFFFFFFFFFFFFFFFFFFFFF AND PUSH20 0xFFFFFFFFFFFFFFFFFFFFFFFFFFFFFFFFFFFFFFFF AND PUSH20 0xFFFFFFFFFFFFFFFFFFFFFFFFFFFFFFFFFFFFFFFF AND DUP2 MSTORE PUSH1 0x20 ADD SWAP1 DUP2 MSTORE PUSH1 0x20 ADD PUSH0 KECCAK256 PUSH0 ADD PUSH0 PUSH2 0x100 EXP DUP2 SLOAD DUP2 PUSH1 0xFF MUL NOT AND SWAP1 DUP4 ISZERO ISZERO MUL OR SWAP1 SSTORE POP DUP1 DUP1 PUSH2 0xAD5 SWAP1 PUSH2 0x1664 JUMP JUMPDEST SWAP2 POP POP PUSH2 0xA24 JUMP JUMPDEST POP JUMPDEST JUMP JUMPDEST PUSH2 0xAE9 PUSH2 0xDE5 JUMP JUMPDEST PUSH2 0xAF2 PUSH0 PUSH2 0xEF0 JUMP JUMPDEST JUMP JUMPDEST PUSH0 DUP1 PUSH0 SWAP1 SLOAD SWAP1 PUSH2 0x100 EXP SWAP1 DIV PUSH20 0xFFFFFFFFFFFFFFFFFFFFFFFFFFFFFFFFFFFFFFFF AND SWAP1 POP SWAP1 JUMP JUMPDEST PUSH0 ADDRESS SWAP1 POP SWAP1 JUMP JUMPDEST PUSH2 0xB2A PUSH2 0xDE5 JUMP JUMPDEST PUSH2 0xB34 PUSH1 0x2 PUSH2 0xE63 JUMP JUMPDEST PUSH0 PUSH1 0x1 PUSH0 ADD PUSH0 SWAP1 SLOAD SWAP1 PUSH2 0x100 EXP SWAP1 DIV PUSH1 0xFF AND SWAP1 POP PUSH1 0x3 PUSH1 0x1 PUSH0 ADD PUSH0 PUSH2 0x100 EXP DUP2 SLOAD DUP2 PUSH1 0xFF MUL NOT AND SWAP1 DUP4 PUSH1 0x5 DUP2 GT ISZERO PUSH2 0xB6F JUMPI PUSH2 0xB6E PUSH2 0x16D2 JUMP JUMPDEST JUMPDEST MUL OR SWAP1 SSTORE POP PUSH32 0xA97A4EE45751E2ABF3E4FC8946939630B11B371EA8AE39CCDC3056E98F5CC3F DUP2 PUSH1 0x1 PUSH0 ADD PUSH0 SWAP1 SLOAD SWAP1 PUSH2 0x100 EXP SWAP1 DIV PUSH1 0xFF AND PUSH1 0x40 MLOAD PUSH2 0xBB5 SWAP3 SWAP2 SWAP1 PUSH2 0x1745 JUMP JUMPDEST PUSH1 0x40 MLOAD DUP1 SWAP2 SUB SWAP1 LOG1 POP JUMP JUMPDEST PUSH2 0xBC8 PUSH2 0xDE5 JUMP JUMPDEST PUSH2 0xBD1 PUSH0 PUSH2 0xE63 JUMP JUMPDEST PUSH0 JUMPDEST DUP2 MLOAD DUP2 GT PUSH2 0xC11 JUMPI PUSH2 0xBFE DUP3 DUP3 DUP2 MLOAD DUP2 LT PUSH2 0xBF1 JUMPI PUSH2 0xBF0 PUSH2 0x160A JUMP JUMPDEST JUMPDEST PUSH1 0x20 MUL PUSH1 0x20 ADD ADD MLOAD PUSH2 0x85A JUMP JUMPDEST DUP1 DUP1 PUSH2 0xC09 SWAP1 PUSH2 0x1664 JUMP JUMPDEST SWAP2 POP POP PUSH2 0xBD3 JUMP JUMPDEST POP POP JUMP JUMPDEST PUSH2 0xC1D PUSH2 0xDE5 JUMP JUMPDEST PUSH2 0xC27 PUSH1 0x1 PUSH2 0xE63 JUMP JUMPDEST PUSH0 PUSH1 0x1 PUSH0 ADD PUSH0 SWAP1 SLOAD SWAP1 PUSH2 0x100 EXP SWAP1 DIV PUSH1 0xFF AND SWAP1 POP PUSH1 0x2 PUSH1 0x1 PUSH0 ADD PUSH0 PUSH2 0x100 EXP DUP2 SLOAD DUP2 PUSH1 0xFF MUL NOT AND SWAP1 DUP4 PUSH1 0x5 DUP2 GT ISZERO PUSH2 0xC62 JUMPI PUSH2 0xC61 PUSH2 0x16D2 JUMP JUMPDEST JUMPDEST MUL OR SWAP1 SSTORE POP PUSH32 0xA97A4EE45751E2ABF3E4FC8946939630B11B371EA8AE39CCDC3056E98F5CC3F DUP2 PUSH1 0x1 PUSH0 ADD PUSH0 SWAP1 SLOAD SWAP1 PUSH2 0x100 EXP SWAP1 DIV PUSH1 0xFF AND PUSH1 0x40 MLOAD PUSH2 0xCA8 SWAP3 SWAP2 SWAP1 PUSH2 0x1745 JUMP JUMPDEST PUSH1 0x40 MLOAD DUP1 SWAP2 SUB SWAP1 LOG1 POP JUMP JUMPDEST PUSH2 0xCBB PUSH2 0xDE5 JUMP JUMPDEST PUSH0 PUSH20 0xFFFFFFFFFFFFFFFFFFFFFFFFFFFFFFFFFFFFFFFF AND DUP2 PUSH20 0xFFFFFFFFFFFFFFFFFFFFFFFFFFFFFFFFFFFFFFFF AND SUB PUSH2 0xD29 JUMPI PUSH1 0x40 MLOAD PUSH32 0x8C379A000000000000000000000000000000000000000000000000000000000 DUP2 MSTORE PUSH1 0x4 ADD PUSH2 0xD20 SWAP1 PUSH2 0x1AB5 JUMP JUMPDEST PUSH1 0x40 MLOAD DUP1 SWAP2 SUB SWAP1 REVERT JUMPDEST PUSH2 0xD32 DUP2 PUSH2 0xEF0 JUMP JUMPDEST POP JUMP JUMPDEST PUSH2 0xD3D PUSH2 0xDE5 JUMP JUMPDEST PUSH2 0xD47 PUSH1 0x3 PUSH2 0xE63 JUMP JUMPDEST PUSH0 PUSH1 0x1 PUSH0 ADD PUSH0 SWAP1 SLOAD SWAP1 PUSH2 0x100 EXP SWAP1 DIV PUSH1 0xFF AND SWAP1 POP PUSH1 0x4 PUSH1 0x1 PUSH0 ADD PUSH0 PUSH2 0x100 EXP DUP2 SLOAD DUP2 PUSH1 0xFF MUL NOT AND SWAP1 DUP4 PUSH1 0x5 DUP2 GT ISZERO PUSH2 0xD82 JUMPI PUSH2 0xD81 PUSH2 0x16D2 JUMP JUMPDEST JUMPDEST MUL OR SWAP1 SSTORE POP PUSH32 0xA97A4EE45751E2ABF3E4FC8946939630B11B371EA8AE39CCDC3056E98F5CC3F DUP2 PUSH1 0x1 PUSH0 ADD PUSH0 SWAP1 SLOAD SWAP1 PUSH2 0x100 EXP SWAP1 DIV PUSH1 0xFF AND PUSH1 0x40 MLOAD PUSH2 0xDC8 SWAP3 SWAP2 SWAP1 PUSH2 0x1745 JUMP JUMPDEST PUSH1 0x40 MLOAD DUP1 SWAP2 SUB SWAP1 LOG1 POP JUMP JUMPDEST PUSH2 0xDDB PUSH2 0xDE5 JUMP JUMPDEST PUSH2 0xDE3 PUSH2 0xFB1 JUMP JUMPDEST JUMP JUMPDEST PUSH2 0xDED PUSH2 0xFEE JUMP JUMPDEST PUSH20 0xFFFFFFFFFFFFFFFFFFFFFFFFFFFFFFFFFFFFFFFF AND PUSH2 0xE0B PUSH2 0xAF4 JUMP JUMPDEST PUSH20 0xFFFFFFFFFFFFFFFFFFFFFFFFFFFFFFFFFFFFFFFF AND EQ PUSH2 0xE61 JUMPI PUSH1 0x40 MLOAD PUSH32 0x8C379A000000000000000000000000000000000000000000000000000000000 DUP2 MSTORE PUSH1 0x4 ADD PUSH2 0xE58 SWAP1 PUSH2 0x1B1D JUMP JUMPDEST PUSH1 0x40 MLOAD DUP1 SWAP2 SUB SWAP1 REVERT JUMPDEST JUMP JUMPDEST DUP1 PUSH1 0x5 DUP2 GT ISZERO PUSH2 0xE76 JUMPI PUSH2 0xE75 PUSH2 0x16D2 JUMP JUMPDEST JUMPDEST PUSH1 0x1 PUSH0 ADD PUSH0 SWAP1 SLOAD SWAP1 PUSH2 0x100 EXP SWAP1 DIV PUSH1 0xFF AND PUSH1 0x5 DUP2 GT ISZERO PUSH2 0xE99 JUMPI PUSH2 0xE98 PUSH2 0x16D2 JUMP JUMPDEST JUMPDEST EQ PUSH2 0xEED JUMPI DUP1 PUSH1 0x1 PUSH0 ADD PUSH0 SWAP1 SLOAD SWAP1 PUSH2 0x100 EXP SWAP1 DIV PUSH1 0xFF AND PUSH1 0x40 MLOAD PUSH32 0x586A712D00000000000000000000000000000000000000000000000000000000 DUP2 MSTORE PUSH1 0x4 ADD PUSH2 0xEE4 SWAP3 SWAP2 SWAP1 PUSH2 0x1745 JUMP JUMPDEST PUSH1 0x40 MLOAD DUP1 SWAP2 SUB SWAP1 REVERT JUMPDEST POP JUMP JUMPDEST PUSH0 DUP1 PUSH0 SWAP1 SLOAD SWAP1 PUSH2 0x100 EXP SWAP1 DIV PUSH20 0xFFFFFFFFFFFFFFFFFFFFFFFFFFFFFFFFFFFFFFFF AND SWAP1 POP DUP2 PUSH0 DUP1 PUSH2 0x100 EXP DUP2 SLOAD DUP2 PUSH20 0xFFFFFFFFFFFFFFFFFFFFFFFFFFFFFFFFFFFFFFFF MUL NOT AND SWAP1 DUP4 PUSH20 0xFFFFFFFFFFFFFFFFFFFFFFFFFFFFFFFFFFFFFFFF AND MUL OR SWAP1 SSTORE POP DUP2 PUSH20 0xFFFFFFFFFFFFFFFFFFFFFFFFFFFFFFFFFFFFFFFF AND DUP2 PUSH20 0xFFFFFFFFFFFFFFFFFFFFFFFFFFFFFFFFFFFFFFFF AND PUSH32 0x8BE0079C531659141344CD1FD0A4F28419497F9722A3DAAFE3B4186F6B6457E0 PUSH1 0x40 MLOAD PUSH1 0x40 MLOAD DUP1 SWAP2 SUB SWAP1 LOG3 POP POP JUMP JUMPDEST PUSH2 0xFB9 PUSH2 0xDE5 JUMP JUMPDEST PUSH0 PUSH1 0x1 PUSH0 ADD PUSH0 PUSH2 0x100 EXP DUP2 SLOAD DUP2 PUSH1 0xFF MUL NOT AND SWAP1 DUP4 PUSH1 0x5 DUP2 GT ISZERO PUSH2 0xFDF JUMPI PUSH2 0xFDE PUSH2 0x16D2 JUMP JUMPDEST JUMPDEST MUL OR SWAP1 SSTORE POP PUSH2 0xFEC PUSH2 0x9F0 JUMP JUMPDEST JUMP JUMPDEST PUSH0 CALLER SWAP1 POP SWAP1 JUMP JUMPDEST POP DUP1 SLOAD PUSH0 DUP3 SSTORE PUSH1 0x2 MUL SWAP1 PUSH0 MSTORE PUSH1 0x20 PUSH0 KECCAK256 SWAP1 DUP2 ADD SWAP1 PUSH2 0x1013 SWAP2 SWAP1 PUSH2 0x1016 JUMP JUMPDEST POP JUMP JUMPDEST JUMPDEST DUP1 DUP3 GT ISZERO PUSH2 0x103E JUMPI PUSH0 DUP1 DUP3 ADD PUSH0 PUSH2 0x102E SWAP2 SWAP1 PUSH2 0x1042 JUMP JUMPDEST PUSH1 0x1 DUP3 ADD PUSH0 SWAP1 SSTORE POP PUSH1 0x2 ADD PUSH2 0x1017 JUMP JUMPDEST POP SWAP1 JUMP JUMPDEST POP DUP1 SLOAD PUSH2 0x104E SWAP1 PUSH2 0x1799 JUMP JUMPDEST PUSH0 DUP3 SSTORE DUP1 PUSH1 0x1F LT PUSH2 0x105F JUMPI POP PUSH2 0x107C JUMP JUMPDEST PUSH1 0x1F ADD PUSH1 0x20 SWAP1 DIV SWAP1 PUSH0 MSTORE PUSH1 0x20 PUSH0 KECCAK256 SWAP1 DUP2 ADD SWAP1 PUSH2 0x107B SWAP2 SWAP1 PUSH2 0x107F JUMP JUMPDEST JUMPDEST POP JUMP JUMPDEST JUMPDEST DUP1 DUP3 GT ISZERO PUSH2 0x1096 JUMPI PUSH0 DUP2 PUSH0 SWAP1 SSTORE POP PUSH1 0x1 ADD PUSH2 0x1080 JUMP JUMPDEST POP SWAP1 JUMP JUMPDEST PUSH0 PUSH1 0x40 MLOAD SWAP1 POP SWAP1 JUMP JUMPDEST PUSH0 DUP1 REVERT JUMPDEST PUSH0 DUP1 REVERT JUMPDEST PUSH0 DUP2 SWAP1 POP SWAP2 SWAP1 POP JUMP JUMPDEST PUSH2 0x10BD DUP2 PUSH2 0x10AB JUMP JUMPDEST DUP2 EQ PUSH2 0x10C7 JUMPI PUSH0 DUP1 REVERT JUMPDEST POP JUMP JUMPDEST PUSH0 DUP2 CALLDATALOAD SWAP1 POP PUSH2 0x10D8 DUP2 PUSH2 0x10B4 JUMP JUMPDEST SWAP3 SWAP2 POP POP JUMP JUMPDEST PUSH0 PUSH1 0x20 DUP3 DUP5 SUB SLT ISZERO PUSH2 0x10F3 JUMPI PUSH2 0x10F2 PUSH2 0x10A3 JUMP JUMPDEST JUMPDEST PUSH0 PUSH2 0x1100 DUP5 DUP3 DUP6 ADD PUSH2 0x10CA JUMP JUMPDEST SWAP2 POP POP SWAP3 SWAP2 POP POP JUMP JUMPDEST PUSH0 DUP2 MLOAD SWAP1 POP SWAP2 SWAP1 POP JUMP JUMPDEST PUSH0 DUP3 DUP3 MSTORE PUSH1 0x20 DUP3 ADD SWAP1 POP SWAP3 SWAP2 POP POP JUMP JUMPDEST PUSH0 DUP2 SWAP1 POP PUSH1 0x20 DUP3 ADD SWAP1 POP SWAP2 SWAP1 POP JUMP JUMPDEST PUSH0 DUP2 MLOAD SWAP1 POP SWAP2 SWAP1 POP JUMP JUMPDEST PUSH0 DUP3 DUP3 MSTORE PUSH1 0x20 DUP3 ADD SWAP1 POP SWAP3 SWAP2 POP POP JUMP JUMPDEST PUSH0 JUMPDEST DUP4 DUP2 LT ISZERO PUSH2 0x1169 JUMPI DUP1 DUP3 ADD MLOAD DUP2 DUP5 ADD MSTORE PUSH1 0x20 DUP2 ADD SWAP1 POP PUSH2 0x114E JUMP JUMPDEST PUSH0 DUP5 DUP5 ADD MSTORE POP POP POP POP JUMP JUMPDEST PUSH0 PUSH1 0x1F NOT PUSH1 0x1F DUP4 ADD AND SWAP1 POP SWAP2 SWAP1 POP JUMP JUMPDEST PUSH0 PUSH2 0x118E DUP3 PUSH2 0x1132 JUMP JUMPDEST PUSH2 0x1198 DUP2 DUP6 PUSH2 0x113C JUMP JUMPDEST SWAP4 POP PUSH2 0x11A8 DUP2 DUP6 PUSH1 0x20 DUP7 ADD PUSH2 0x114C JUMP JUMPDEST PUSH2 0x11B1 DUP2 PUSH2 0x1174 JUMP JUMPDEST DUP5 ADD SWAP2 POP POP SWAP3 SWAP2 POP POP JUMP JUMPDEST PUSH2 0x11C5 DUP2 PUSH2 0x10AB JUMP JUMPDEST DUP3 MSTORE POP POP JUMP JUMPDEST PUSH0 PUSH1 0x40 DUP4 ADD PUSH0 DUP4 ADD MLOAD DUP5 DUP3 SUB PUSH0 DUP7 ADD MSTORE PUSH2 0x11E5 DUP3 DUP3 PUSH2 0x1184 JUMP JUMPDEST SWAP2 POP POP PUSH1 0x20 DUP4 ADD MLOAD PUSH2 0x11FA PUSH1 0x20 DUP7 ADD DUP3 PUSH2 0x11BC JUMP JUMPDEST POP DUP1 SWAP2 POP POP SWAP3 SWAP2 POP POP JUMP JUMPDEST PUSH0 PUSH2 0x1210 DUP4 DUP4 PUSH2 0x11CB JUMP JUMPDEST SWAP1 POP SWAP3 SWAP2 POP POP JUMP JUMPDEST PUSH0 PUSH1 0x20 DUP3 ADD SWAP1 POP SWAP2 SWAP1 POP JUMP JUMPDEST PUSH0 PUSH2 0x122E DUP3 PUSH2 0x1109 JUMP JUMPDEST PUSH2 0x1238 DUP2 DUP6 PUSH2 0x1113 JUMP JUMPDEST SWAP4 POP DUP4 PUSH1 0x20 DUP3 MUL DUP6 ADD PUSH2 0x124A DUP6 PUSH2 0x1123 JUMP JUMPDEST DUP1 PUSH0 JUMPDEST DUP6 DUP2 LT ISZERO PUSH2 0x1285 JUMPI DUP5 DUP5 SUB DUP10 MSTORE DUP2 MLOAD PUSH2 0x1266 DUP6 DUP3 PUSH2 0x1205 JUMP JUMPDEST SWAP5 POP PUSH2 0x1271 DUP4 PUSH2 0x1218 JUMP JUMPDEST SWAP3 POP PUSH1 0x20 DUP11 ADD SWAP10 POP POP PUSH1 0x1 DUP2 ADD SWAP1 POP PUSH2 0x124D JUMP JUMPDEST POP DUP3 SWAP8 POP DUP8 SWAP6 POP POP POP POP POP POP SWAP3 SWAP2 POP POP JUMP JUMPDEST PUSH0 PUSH1 0x20 DUP3 ADD SWAP1 POP DUP2 DUP2 SUB PUSH0 DUP4 ADD MSTORE PUSH2 0x12AF DUP2 DUP5 PUSH2 0x1224 JUMP JUMPDEST SWAP1 POP SWAP3 SWAP2 POP POP JUMP JUMPDEST PUSH0 DUP1 REVERT JUMPDEST PUSH0 DUP1 REVERT JUMPDEST PUSH32 0x4E487B7100000000000000000000000000000000000000000000000000000000 PUSH0 MSTORE PUSH1 0x41 PUSH1 0x4 MSTORE PUSH1 0x24 PUSH0 REVERT JUMPDEST PUSH2 0x12F5 DUP3 PUSH2 0x1174 JUMP JUMPDEST DUP2 ADD DUP2 DUP2 LT PUSH8 0xFFFFFFFFFFFFFFFF DUP3 GT OR ISZERO PUSH2 0x1314 JUMPI PUSH2 0x1313 PUSH2 0x12BF JUMP JUMPDEST JUMPDEST DUP1 PUSH1 0x40 MSTORE POP POP POP JUMP JUMPDEST PUSH0 PUSH2 0x1326 PUSH2 0x109A JUMP JUMPDEST SWAP1 POP PUSH2 0x1332 DUP3 DUP3 PUSH2 0x12EC JUMP JUMPDEST SWAP2 SWAP1 POP JUMP JUMPDEST PUSH0 PUSH8 0xFFFFFFFFFFFFFFFF DUP3 GT ISZERO PUSH2 0x1351 JUMPI PUSH2 0x1350 PUSH2 0x12BF JUMP JUMPDEST JUMPDEST PUSH2 0x135A DUP3 PUSH2 0x1174 JUMP JUMPDEST SWAP1 POP PUSH1 0x20 DUP2 ADD SWAP1 POP SWAP2 SWAP1 POP JUMP JUMPDEST DUP3 DUP2 DUP4 CALLDATACOPY PUSH0 DUP4 DUP4 ADD MSTORE POP POP POP JUMP JUMPDEST PUSH0 PUSH2 0x1387 PUSH2 0x1382 DUP5 PUSH2 0x1337 JUMP JUMPDEST PUSH2 0x131D JUMP JUMPDEST SWAP1 POP DUP3 DUP2 MSTORE PUSH1 0x20 DUP2 ADD DUP5 DUP5 DUP5 ADD GT ISZERO PUSH2 0x13A3 JUMPI PUSH2 0x13A2 PUSH2 0x12BB JUMP JUMPDEST JUMPDEST PUSH2 0x13AE DUP5 DUP3 DUP6 PUSH2 0x1367 JUMP JUMPDEST POP SWAP4 SWAP3 POP POP POP JUMP JUMPDEST PUSH0 DUP3 PUSH1 0x1F DUP4 ADD SLT PUSH2 0x13CA JUMPI PUSH2 0x13C9 PUSH2 0x12B7 JUMP JUMPDEST JUMPDEST DUP2 CALLDATALOAD PUSH2 0x13DA DUP5 DUP3 PUSH1 0x20 DUP7 ADD PUSH2 0x1375 JUMP JUMPDEST SWAP2 POP POP SWAP3 SWAP2 POP POP JUMP JUMPDEST PUSH0 PUSH1 0x20 DUP3 DUP5 SUB SLT ISZERO PUSH2 0x13F8 JUMPI PUSH2 0x13F7 PUSH2 0x10A3 JUMP JUMPDEST JUMPDEST PUSH0 DUP3 ADD CALLDATALOAD PUSH8 0xFFFFFFFFFFFFFFFF DUP2 GT ISZERO PUSH2 0x1415 JUMPI PUSH2 0x1414 PUSH2 0x10A7 JUMP JUMPDEST JUMPDEST PUSH2 0x1421 DUP5 DUP3 DUP6 ADD PUSH2 0x13B6 JUMP JUMPDEST SWAP2 POP POP SWAP3 SWAP2 POP POP JUMP JUMPDEST PUSH0 PUSH20 0xFFFFFFFFFFFFFFFFFFFFFFFFFFFFFFFFFFFFFFFF DUP3 AND SWAP1 POP SWAP2 SWAP1 POP JUMP JUMPDEST PUSH0 PUSH2 0x1453 DUP3 PUSH2 0x142A JUMP JUMPDEST SWAP1 POP SWAP2 SWAP1 POP JUMP JUMPDEST PUSH2 0x1463 DUP2 PUSH2 0x1449 JUMP JUMPDEST DUP2 EQ PUSH2 0x146D JUMPI PUSH0 DUP1 REVERT JUMPDEST POP JUMP JUMPDEST PUSH0 DUP2 CALLDATALOAD SWAP1 POP PUSH2 0x147E DUP2 PUSH2 0x145A JUMP JUMPDEST SWAP3 SWAP2 POP POP JUMP JUMPDEST PUSH0 PUSH1 0x20 DUP3 DUP5 SUB SLT ISZERO PUSH2 0x1499 JUMPI PUSH2 0x1498 PUSH2 0x10A3 JUMP JUMPDEST JUMPDEST PUSH0 PUSH2 0x14A6 DUP5 DUP3 DUP6 ADD PUSH2 0x1470 JUMP JUMPDEST SWAP2 POP POP SWAP3 SWAP2 POP POP JUMP JUMPDEST PUSH2 0x14B8 DUP2 PUSH2 0x1449 JUMP JUMPDEST DUP3 MSTORE POP POP JUMP JUMPDEST PUSH0 PUSH1 0x20 DUP3 ADD SWAP1 POP PUSH2 0x14D1 PUSH0 DUP4 ADD DUP5 PUSH2 0x14AF JUMP JUMPDEST SWAP3 SWAP2 POP POP JUMP JUMPDEST PUSH0 PUSH8 0xFFFFFFFFFFFFFFFF DUP3 GT ISZERO PUSH2 0x14F1 JUMPI PUSH2 0x14F0 PUSH2 0x12BF JUMP JUMPDEST JUMPDEST PUSH1 0x20 DUP3 MUL SWAP1 POP PUSH1 0x20 DUP2 ADD SWAP1 POP SWAP2 SWAP1 POP JUMP JUMPDEST PUSH0 DUP1 REVERT JUMPDEST PUSH0 PUSH2 0x1518 PUSH2 0x1513 DUP5 PUSH2 0x14D7 JUMP JUMPDEST PUSH2 0x131D JUMP JUMPDEST SWAP1 POP DUP1 DUP4 DUP3 MSTORE PUSH1 0x20 DUP3 ADD SWAP1 POP PUSH1 0x20 DUP5 MUL DUP4 ADD DUP6 DUP2 GT ISZERO PUSH2 0x153B JUMPI PUSH2 0x153A PUSH2 0x1502 JUMP JUMPDEST JUMPDEST DUP4 JUMPDEST DUP2 DUP2 LT ISZERO PUSH2 0x1564 JUMPI DUP1 PUSH2 0x1550 DUP9 DUP3 PUSH2 0x1470 JUMP JUMPDEST DUP5 MSTORE PUSH1 0x20 DUP5 ADD SWAP4 POP POP PUSH1 0x20 DUP2 ADD SWAP1 POP PUSH2 0x153D JUMP JUMPDEST POP POP POP SWAP4 SWAP3 POP POP POP JUMP JUMPDEST PUSH0 DUP3 PUSH1 0x1F DUP4 ADD SLT PUSH2 0x1582 JUMPI PUSH2 0x1581 PUSH2 0x12B7 JUMP JUMPDEST JUMPDEST DUP2 CALLDATALOAD PUSH2 0x1592 DUP5 DUP3 PUSH1 0x20 DUP7 ADD PUSH2 0x1506 JUMP JUMPDEST SWAP2 POP POP SWAP3 SWAP2 POP POP JUMP JUMPDEST PUSH0 PUSH1 0x20 DUP3 DUP5 SUB SLT ISZERO PUSH2 0x15B0 JUMPI PUSH2 0x15AF PUSH2 0x10A3 JUMP JUMPDEST JUMPDEST PUSH0 DUP3 ADD CALLDATALOAD PUSH8 0xFFFFFFFFFFFFFFFF DUP2 GT ISZERO PUSH2 0x15CD JUMPI PUSH2 0x15CC PUSH2 0x10A7 JUMP JUMPDEST JUMPDEST PUSH2 0x15D9 DUP5 DUP3 DUP6 ADD PUSH2 0x156E JUMP JUMPDEST SWAP2 POP POP SWAP3 SWAP2 POP POP JUMP JUMPDEST PUSH2 0x15EB DUP2 PUSH2 0x10AB JUMP JUMPDEST DUP3 MSTORE POP POP JUMP JUMPDEST PUSH0 PUSH1 0x20 DUP3 ADD SWAP1 POP PUSH2 0x1604 PUSH0 DUP4 ADD DUP5 PUSH2 0x15E2 JUMP JUMPDEST SWAP3 SWAP2 POP POP JUMP JUMPDEST PUSH32 0x4E487B7100000000000000000000000000000000000000000000000000000000 PUSH0 MSTORE PUSH1 0x32 PUSH1 0x4 MSTORE PUSH1 0x24 PUSH0 REVERT JUMPDEST PUSH32 0x4E487B7100000000000000000000000000000000000000000000000000000000 PUSH0 MSTORE PUSH1 0x11 PUSH1 0x4 MSTORE PUSH1 0x24 PUSH0 REVERT JUMPDEST PUSH0 PUSH2 0x166E DUP3 PUSH2 0x10AB JUMP JUMPDEST SWAP2 POP PUSH32 0xFFFFFFFFFFFFFFFFFFFFFFFFFFFFFFFFFFFFFFFFFFFFFFFFFFFFFFFFFFFFFFFF DUP3 SUB PUSH2 0x16A0 JUMPI PUSH2 0x169F PUSH2 0x1637 JUMP JUMPDEST JUMPDEST PUSH1 0x1 DUP3 ADD SWAP1 POP SWAP2 SWAP1 POP JUMP JUMPDEST PUSH0 PUSH1 0x40 DUP3 ADD SWAP1 POP PUSH2 0x16BE PUSH0 DUP4 ADD DUP6 PUSH2 0x14AF JUMP JUMPDEST PUSH2 0x16CB PUSH1 0x20 DUP4 ADD DUP5 PUSH2 0x15E2 JUMP JUMPDEST SWAP4 SWAP3 POP POP POP JUMP JUMPDEST PUSH32 0x4E487B7100000000000000000000000000000000000000000000000000000000 PUSH0 MSTORE PUSH1 0x21 PUSH1 0x4 MSTORE PUSH1 0x24 PUSH0 REVERT JUMPDEST PUSH1 0x6 DUP2 LT PUSH2 0x1710 JUMPI PUSH2 0x170F PUSH2 0x16D2 JUMP JUMPDEST JUMPDEST POP JUMP JUMPDEST PUSH0 DUP2 SWAP1 POP PUSH2 0x1720 DUP3 PUSH2 0x16FF JUMP JUMPDEST SWAP2 SWAP1 POP JUMP JUMPDEST PUSH0 PUSH2 0x172F DUP3 PUSH2 0x1713 JUMP JUMPDEST SWAP1 POP SWAP2 SWAP1 POP JUMP JUMPDEST PUSH2 0x173F DUP2 PUSH2 0x1725 JUMP JUMPDEST DUP3 MSTORE POP POP JUMP JUMPDEST PUSH0 PUSH1 0x40 DUP3 ADD SWAP1 POP PUSH2 0x1758 PUSH0 DUP4 ADD DUP6 PUSH2 0x1736 JUMP JUMPDEST PUSH2 0x1765 PUSH1 0x20 DUP4 ADD DUP5 PUSH2 0x1736 JUMP JUMPDEST SWAP4 SWAP3 POP POP POP JUMP JUMPDEST PUSH32 0x4E487B7100000000000000000000000000000000000000000000000000000000 PUSH0 MSTORE PUSH1 0x22 PUSH1 0x4 MSTORE PUSH1 0x24 PUSH0 REVERT JUMPDEST PUSH0 PUSH1 0x2 DUP3 DIV SWAP1 POP PUSH1 0x1 DUP3 AND DUP1 PUSH2 0x17B0 JUMPI PUSH1 0x7F DUP3 AND SWAP2 POP JUMPDEST PUSH1 0x20 DUP3 LT DUP2 SUB PUSH2 0x17C3 JUMPI PUSH2 0x17C2 PUSH2 0x176C JUMP JUMPDEST JUMPDEST POP SWAP2 SWAP1 POP JUMP JUMPDEST PUSH0 DUP2 SWAP1 POP DUP2 PUSH0 MSTORE PUSH1 0x20 PUSH0 KECCAK256 SWAP1 POP SWAP2 SWAP1 POP JUMP JUMPDEST PUSH0 PUSH1 0x20 PUSH1 0x1F DUP4 ADD DIV SWAP1 POP SWAP2 SWAP1 POP JUMP JUMPDEST PUSH0 DUP3 DUP3 SHL SWAP1 POP SWAP3 SWAP2 POP POP JUMP JUMPDEST PUSH0 PUSH1 0x8 DUP4 MUL PUSH2 0x1825 PUSH32 0xFFFFFFFFFFFFFFFFFFFFFFFFFFFFFFFFFFFFFFFFFFFFFFFFFFFFFFFFFFFFFFFF DUP3 PUSH2 0x17EA JUMP JUMPDEST PUSH2 0x182F DUP7 DUP4 PUSH2 0x17EA JUMP JUMPDEST SWAP6 POP DUP1 NOT DUP5 AND SWAP4 POP DUP1 DUP7 AND DUP5 OR SWAP3 POP POP POP SWAP4 SWAP3 POP POP POP JUMP JUMPDEST PUSH0 DUP2 SWAP1 POP SWAP2 SWAP1 POP JUMP JUMPDEST PUSH0 PUSH2 0x186A PUSH2 0x1865 PUSH2 0x1860 DUP5 PUSH2 0x10AB JUMP JUMPDEST PUSH2 0x1847 JUMP JUMPDEST PUSH2 0x10AB JUMP JUMPDEST SWAP1 POP SWAP2 SWAP1 POP JUMP JUMPDEST PUSH0 DUP2 SWAP1 POP SWAP2 SWAP1 POP JUMP JUMPDEST PUSH2 0x1883 DUP4 PUSH2 0x1850 JUMP JUMPDEST PUSH2 0x1897 PUSH2 0x188F DUP3 PUSH2 0x1871 JUMP JUMPDEST DUP5 DUP5 SLOAD PUSH2 0x17F6 JUMP JUMPDEST DUP3 SSTORE POP POP POP POP JUMP JUMPDEST PUSH0 SWAP1 JUMP JUMPDEST PUSH2 0x18AB PUSH2 0x189F JUMP JUMPDEST PUSH2 0x18B6 DUP2 DUP5 DUP5 PUSH2 0x187A JUMP JUMPDEST POP POP POP JUMP JUMPDEST JUMPDEST DUP2 DUP2 LT ISZERO PUSH2 0x18D9 JUMPI PUSH2 0x18CE PUSH0 DUP3 PUSH2 0x18A3 JUMP JUMPDEST PUSH1 0x1 DUP2 ADD SWAP1 POP PUSH2 0x18BC JUMP JUMPDEST POP POP JUMP JUMPDEST PUSH1 0x1F DUP3 GT ISZERO PUSH2 0x191E JUMPI PUSH2 0x18EF DUP2 PUSH2 0x17C9 JUMP JUMPDEST PUSH2 0x18F8 DUP5 PUSH2 0x17DB JUMP JUMPDEST DUP2 ADD PUSH1 0x20 DUP6 LT ISZERO PUSH2 0x1907 JUMPI DUP2 SWAP1 POP JUMPDEST PUSH2 0x191B PUSH2 0x1913 DUP6 PUSH2 0x17DB JUMP JUMPDEST DUP4 ADD DUP3 PUSH2 0x18BB JUMP JUMPDEST POP POP JUMPDEST POP POP POP JUMP JUMPDEST PUSH0 DUP3 DUP3 SHR SWAP1 POP SWAP3 SWAP2 POP POP JUMP JUMPDEST PUSH0 PUSH2 0x193E PUSH0 NOT DUP5 PUSH1 0x8 MUL PUSH2 0x1923 JUMP JUMPDEST NOT DUP1 DUP4 AND SWAP2 POP POP SWAP3 SWAP2 POP POP JUMP JUMPDEST PUSH0 PUSH2 0x1956 DUP4 DUP4 PUSH2 0x192F JUMP JUMPDEST SWAP2 POP DUP3 PUSH1 0x2 MUL DUP3 OR SWAP1 POP SWAP3 SWAP2 POP POP JUMP JUMPDEST PUSH2 0x196F DUP3 PUSH2 0x1132 JUMP JUMPDEST PUSH8 0xFFFFFFFFFFFFFFFF DUP2 GT ISZERO PUSH2 0x1988 JUMPI PUSH2 0x1987 PUSH2 0x12BF JUMP JUMPDEST JUMPDEST PUSH2 0x1992 DUP3 SLOAD PUSH2 0x1799 JUMP JUMPDEST PUSH2 0x199D DUP3 DUP3 DUP6 PUSH2 0x18DD JUMP JUMPDEST PUSH0 PUSH1 0x20 SWAP1 POP PUSH1 0x1F DUP4 GT PUSH1 0x1 DUP2 EQ PUSH2 0x19CE JUMPI PUSH0 DUP5 ISZERO PUSH2 0x19BC JUMPI DUP3 DUP8 ADD MLOAD SWAP1 POP JUMPDEST PUSH2 0x19C6 DUP6 DUP3 PUSH2 0x194B JUMP JUMPDEST DUP7 SSTORE POP PUSH2 0x1A2D JUMP JUMPDEST PUSH1 0x1F NOT DUP5 AND PUSH2 0x19DC DUP7 PUSH2 0x17C9 JUMP JUMPDEST PUSH0 JUMPDEST DUP3 DUP2 LT ISZERO PUSH2 0x1A03 JUMPI DUP5 DUP10 ADD MLOAD DUP3 SSTORE PUSH1 0x1 DUP3 ADD SWAP2 POP PUSH1 0x20 DUP6 ADD SWAP5 POP PUSH1 0x20 DUP2 ADD SWAP1 POP PUSH2 0x19DE JUMP JUMPDEST DUP7 DUP4 LT ISZERO PUSH2 0x1A20 JUMPI DUP5 DUP10 ADD MLOAD PUSH2 0x1A1C PUSH1 0x1F DUP10 AND DUP3 PUSH2 0x192F JUMP JUMPDEST DUP4 SSTORE POP JUMPDEST PUSH1 0x1 PUSH1 0x2 DUP9 MUL ADD DUP9 SSTORE POP POP POP JUMPDEST POP POP POP POP POP POP JUMP JUMPDEST PUSH0 DUP3 DUP3 MSTORE PUSH1 0x20 DUP3 ADD SWAP1 POP SWAP3 SWAP2 POP POP JUMP JUMPDEST PUSH32 0x4F776E61626C653A206E6577206F776E657220697320746865207A65726F2061 PUSH0 DUP3 ADD MSTORE PUSH32 0x6464726573730000000000000000000000000000000000000000000000000000 PUSH1 0x20 DUP3 ADD MSTORE POP JUMP JUMPDEST PUSH0 PUSH2 0x1A9F PUSH1 0x26 DUP4 PUSH2 0x1A35 JUMP JUMPDEST SWAP2 POP PUSH2 0x1AAA DUP3 PUSH2 0x1A45 JUMP JUMPDEST PUSH1 0x40 DUP3 ADD SWAP1 POP SWAP2 SWAP1 POP JUMP JUMPDEST PUSH0 PUSH1 0x20 DUP3 ADD SWAP1 POP DUP2 DUP2 SUB PUSH0 DUP4 ADD MSTORE PUSH2 0x1ACC DUP2 PUSH2 0x1A93 JUMP JUMPDEST SWAP1 POP SWAP2 SWAP1 POP JUMP JUMPDEST PUSH32 0x4F776E61626C653A2063616C6C6572206973206E6F7420746865206F776E6572 PUSH0 DUP3 ADD MSTORE POP JUMP JUMPDEST PUSH0 PUSH2 0x1B07 PUSH1 0x20 DUP4 PUSH2 0x1A35 JUMP JUMPDEST SWAP2 POP PUSH2 0x1B12 DUP3 PUSH2 0x1AD3 JUMP JUMPDEST PUSH1 0x20 DUP3 ADD SWAP1 POP SWAP2 SWAP1 POP JUMP JUMPDEST PUSH0 PUSH1 0x20 DUP3 ADD SWAP1 POP DUP2 DUP2 SUB PUSH0 DUP4 ADD MSTORE PUSH2 0x1B34 DUP2 PUSH2 0x1AFB JUMP JUMPDEST SWAP1 POP SWAP2 SWAP1 POP JUMP INVALID LOG2 PUSH5 0x6970667358 0x22 SLT KECCAK256 0xC0 0xC DUP14 SSTORE DUP3 0xC3 SWAP9 0xD4 0xBD 0xE9 SHR 0xFC 0xEB EQ PUSH32 0xF6C952A1D5CD69DD70D0E64C47BAC2908364736F6C6343000814003300000000 "
				},
				"gasEstimates": {
					"creation": {
						"codeDepositCost": "1405000",
						"executionCost": "infinite",
						"totalCost": "infinite"
					},
					"external": {
						"endProposalRegistration()": "infinite",
						"endVoteSession()": "infinite",
						"getVoteDetails()": "infinite",
						"getWinner()": "446",
						"owner()": "2560",
						"registerProposal(string)": "infinite",
						"registerVoter(address)": "infinite",
						"registerVoters(address[])": "infinite",
						"renounceOwnership()": "30413",
						"resetProposal()": "infinite",
						"resetSession()": "infinite",
						"resetVote()": "2702",
						"resetVoters()": "infinite",
						"startProposalRegistration()": "infinite",
						"startVoteSession()": "infinite",
						"tallyVotes()": "infinite",
						"transferOwnership(address)": "30797",
						"vote(uint256)": "infinite"
					},
					"internal": {
						"_resetVoting()": "infinite",
						"_wrongPhase(enum WorkflowStatus)": "infinite"
					}
				},
				"methodIdentifiers": {
					"endProposalRegistration()": "e85a8f2a",
					"endVoteSession()": "f74c168d",
					"getVoteDetails()": "134c39cc",
					"getWinner()": "8e7ea5b2",
					"owner()": "8da5cb5b",
					"registerProposal(string)": "2f95355b",
					"registerVoter(address)": "38db6dd3",
					"registerVoters(address[])": "d55ec9c1",
					"renounceOwnership()": "715018a6",
					"resetProposal()": "4a2f00c7",
					"resetSession()": "f8a3ce82",
					"resetVote()": "329a8cfa",
					"resetVoters()": "553bd397",
					"startProposalRegistration()": "0f7e2838",
					"startVoteSession()": "aaa98346",
					"tallyVotes()": "378a2178",
					"transferOwnership(address)": "f2fde38b",
					"vote(uint256)": "0121b93f"
				}
			},
			"storageLayout": {
				"storage": [
					{
						"astId": 7,
						"contract": "Voting.sol:Voting",
						"label": "_owner",
						"offset": 0,
						"slot": "0",
						"type": "t_address"
					},
					{
						"astId": 225,
						"contract": "Voting.sol:Voting",
						"label": "session",
						"offset": 0,
						"slot": "1",
						"type": "t_struct(Session)222_storage"
					}
				],
				"types": {
					"t_address": {
						"encoding": "inplace",
						"label": "address",
						"numberOfBytes": "20"
					},
					"t_array(t_address)dyn_storage": {
						"base": "t_address",
						"encoding": "dynamic_array",
						"label": "address[]",
						"numberOfBytes": "32"
					},
					"t_array(t_struct(Proposal)204_storage)dyn_storage": {
						"base": "t_struct(Proposal)204_storage",
						"encoding": "dynamic_array",
						"label": "struct Voting.Proposal[]",
						"numberOfBytes": "32"
					},
					"t_bool": {
						"encoding": "inplace",
						"label": "bool",
						"numberOfBytes": "1"
					},
					"t_enum(WorkflowStatus)144": {
						"encoding": "inplace",
						"label": "enum WorkflowStatus",
						"numberOfBytes": "1"
					},
					"t_mapping(t_address,t_struct(Voter)199_storage)": {
						"encoding": "mapping",
						"key": "t_address",
						"label": "mapping(address => struct Voting.Voter)",
						"numberOfBytes": "32",
						"value": "t_struct(Voter)199_storage"
					},
					"t_string_storage": {
						"encoding": "bytes",
						"label": "string",
						"numberOfBytes": "32"
					},
					"t_struct(Proposal)204_storage": {
						"encoding": "inplace",
						"label": "struct Voting.Proposal",
						"members": [
							{
								"astId": 201,
								"contract": "Voting.sol:Voting",
								"label": "description",
								"offset": 0,
								"slot": "0",
								"type": "t_string_storage"
							},
							{
								"astId": 203,
								"contract": "Voting.sol:Voting",
								"label": "voteCount",
								"offset": 0,
								"slot": "1",
								"type": "t_uint256"
							}
						],
						"numberOfBytes": "64"
					},
					"t_struct(Session)222_storage": {
						"encoding": "inplace",
						"label": "struct Voting.Session",
						"members": [
							{
								"astId": 207,
								"contract": "Voting.sol:Voting",
								"label": "status",
								"offset": 0,
								"slot": "0",
								"type": "t_enum(WorkflowStatus)144"
							},
							{
								"astId": 212,
								"contract": "Voting.sol:Voting",
								"label": "voters",
								"offset": 0,
								"slot": "1",
								"type": "t_mapping(t_address,t_struct(Voter)199_storage)"
							},
							{
								"astId": 215,
								"contract": "Voting.sol:Voting",
								"label": "idxVoters",
								"offset": 0,
								"slot": "2",
								"type": "t_array(t_address)dyn_storage"
							},
							{
								"astId": 219,
								"contract": "Voting.sol:Voting",
								"label": "proposals",
								"offset": 0,
								"slot": "3",
								"type": "t_array(t_struct(Proposal)204_storage)dyn_storage"
							},
							{
								"astId": 221,
								"contract": "Voting.sol:Voting",
								"label": "winningProposalId",
								"offset": 0,
								"slot": "4",
								"type": "t_uint256"
							}
						],
						"numberOfBytes": "160"
					},
					"t_struct(Voter)199_storage": {
						"encoding": "inplace",
						"label": "struct Voting.Voter",
						"members": [
							{
								"astId": 194,
								"contract": "Voting.sol:Voting",
								"label": "isRegistered",
								"offset": 0,
								"slot": "0",
								"type": "t_bool"
							},
							{
								"astId": 196,
								"contract": "Voting.sol:Voting",
								"label": "hasVoted",
								"offset": 1,
								"slot": "0",
								"type": "t_bool"
							},
							{
								"astId": 198,
								"contract": "Voting.sol:Voting",
								"label": "votedProposalId",
								"offset": 0,
								"slot": "1",
								"type": "t_uint256"
							}
						],
						"numberOfBytes": "64"
					},
					"t_uint256": {
						"encoding": "inplace",
						"label": "uint256",
						"numberOfBytes": "32"
					}
				}
			},
			"userdoc": {
				"kind": "user",
				"methods": {},
				"version": 1
			}
		}
	}
}