{
	"Voting.sol": {
		"Voting": {
			"abi": [
				{
					"inputs": [],
					"stateMutability": "nonpayable",
					"type": "constructor"
				},
				{
					"inputs": [
						{
							"internalType": "address",
							"name": "invalidVoter",
							"type": "address"
						}
					],
					"name": "AlreadyRegisterVoter",
					"type": "error"
				},
				{
					"inputs": [
						{
							"internalType": "address",
							"name": "invalidVote",
							"type": "address"
						}
					],
					"name": "AlreadyVoted",
					"type": "error"
				},
				{
					"inputs": [
						{
							"internalType": "address",
							"name": "invalidVoter",
							"type": "address"
						}
					],
					"name": "UnRegisteredVoter",
					"type": "error"
				},
				{
					"inputs": [
						{
							"internalType": "enum WorkflowStatus",
							"name": "requiredStatus",
							"type": "uint8"
						},
						{
							"internalType": "enum WorkflowStatus",
							"name": "status",
							"type": "uint8"
						}
					],
					"name": "WrongPhaseStatus",
					"type": "error"
				},
				{
					"inputs": [
						{
							"internalType": "uint256",
							"name": "invalidProposal",
							"type": "uint256"
						}
					],
					"name": "WrongProposal",
					"type": "error"
				},
				{
					"anonymous": false,
					"inputs": [
						{
							"indexed": true,
							"internalType": "address",
							"name": "previousOwner",
							"type": "address"
						},
						{
							"indexed": true,
							"internalType": "address",
							"name": "newOwner",
							"type": "address"
						}
					],
					"name": "OwnershipTransferred",
					"type": "event"
				},
				{
					"anonymous": false,
					"inputs": [
						{
							"indexed": false,
							"internalType": "uint256",
							"name": "proposalId",
							"type": "uint256"
						}
					],
					"name": "ProposalRegistered",
					"type": "event"
				},
				{
					"anonymous": false,
					"inputs": [
						{
							"indexed": false,
							"internalType": "address",
							"name": "voter",
							"type": "address"
						},
						{
							"indexed": false,
							"internalType": "uint256",
							"name": "proposalId",
							"type": "uint256"
						}
					],
					"name": "Voted",
					"type": "event"
				},
				{
					"anonymous": false,
					"inputs": [
						{
							"indexed": false,
							"internalType": "address",
							"name": "voterAddress",
							"type": "address"
						}
					],
					"name": "VoterRegistered",
					"type": "event"
				},
				{
					"anonymous": false,
					"inputs": [
						{
							"indexed": false,
							"internalType": "enum WorkflowStatus",
							"name": "previousStatus",
							"type": "uint8"
						},
						{
							"indexed": false,
							"internalType": "enum WorkflowStatus",
							"name": "newStatus",
							"type": "uint8"
						}
					],
					"name": "WorkflowStatusChange",
					"type": "event"
				},
				{
					"inputs": [],
					"name": "endProposalRegistration",
					"outputs": [],
					"stateMutability": "nonpayable",
					"type": "function"
				},
				{
					"inputs": [],
					"name": "endVoteSession",
					"outputs": [],
					"stateMutability": "nonpayable",
					"type": "function"
				},
				{
					"inputs": [],
					"name": "getAllProposals",
					"outputs": [
						{
							"components": [
								{
									"internalType": "string",
									"name": "description",
									"type": "string"
								},
								{
									"internalType": "uint256",
									"name": "voteCount",
									"type": "uint256"
								}
							],
							"internalType": "struct Voting.Proposal[]",
							"name": "",
							"type": "tuple[]"
						}
					],
					"stateMutability": "view",
					"type": "function"
				},
				{
					"inputs": [],
					"name": "getAllVoters",
					"outputs": [
						{
							"internalType": "address[]",
							"name": "",
							"type": "address[]"
						}
					],
					"stateMutability": "view",
					"type": "function"
				},
				{
					"inputs": [
						{
							"internalType": "address",
							"name": "_voters",
							"type": "address"
						}
					],
					"name": "getVoteOfVoter",
					"outputs": [
						{
							"internalType": "uint256",
							"name": "",
							"type": "uint256"
						}
					],
					"stateMutability": "view",
					"type": "function"
				},
				{
					"inputs": [],
					"name": "getWinner",
					"outputs": [
						{
							"internalType": "uint256",
							"name": "",
							"type": "uint256"
						}
					],
					"stateMutability": "view",
					"type": "function"
				},
				{
					"inputs": [],
					"name": "owner",
					"outputs": [
						{
							"internalType": "address",
							"name": "",
							"type": "address"
						}
					],
					"stateMutability": "view",
					"type": "function"
				},
				{
					"inputs": [
						{
							"internalType": "string",
							"name": "description",
							"type": "string"
						}
					],
					"name": "registerProposal",
					"outputs": [],
					"stateMutability": "nonpayable",
					"type": "function"
				},
				{
					"inputs": [
						{
							"internalType": "address",
							"name": "_voter",
							"type": "address"
						}
					],
					"name": "registerVoter",
					"outputs": [],
					"stateMutability": "nonpayable",
					"type": "function"
				},
				{
					"inputs": [
						{
							"internalType": "address[]",
							"name": "_voters",
							"type": "address[]"
						}
					],
					"name": "registerVoters",
					"outputs": [],
					"stateMutability": "nonpayable",
					"type": "function"
				},
				{
					"inputs": [],
					"name": "renounceOwnership",
					"outputs": [],
					"stateMutability": "nonpayable",
					"type": "function"
				},
				{
					"inputs": [],
					"name": "resetProposals",
					"outputs": [],
					"stateMutability": "nonpayable",
					"type": "function"
				},
				{
					"inputs": [],
					"name": "resetSession",
					"outputs": [],
					"stateMutability": "nonpayable",
					"type": "function"
				},
				{
					"inputs": [],
					"name": "resetVotes",
					"outputs": [],
					"stateMutability": "nonpayable",
					"type": "function"
				},
				{
					"inputs": [],
					"name": "startProposalRegistration",
					"outputs": [],
					"stateMutability": "nonpayable",
					"type": "function"
				},
				{
					"inputs": [],
					"name": "startVoteSession",
					"outputs": [],
					"stateMutability": "nonpayable",
					"type": "function"
				},
				{
					"inputs": [],
					"name": "tallyVotes",
					"outputs": [],
					"stateMutability": "nonpayable",
					"type": "function"
				},
				{
					"inputs": [
						{
							"internalType": "address",
							"name": "newOwner",
							"type": "address"
						}
					],
					"name": "transferOwnership",
					"outputs": [],
					"stateMutability": "nonpayable",
					"type": "function"
				},
				{
					"inputs": [
						{
							"internalType": "uint256",
							"name": "proposalId",
							"type": "uint256"
						}
					],
					"name": "vote",
					"outputs": [],
					"stateMutability": "nonpayable",
					"type": "function"
				}
			],
			"devdoc": {
				"kind": "dev",
				"methods": {
					"owner()": {
						"details": "Returns the address of the current owner."
					},
					"renounceOwnership()": {
						"details": "Leaves the contract without owner. It will not be possible to call `onlyOwner` functions. Can only be called by the current owner. NOTE: Renouncing ownership will leave the contract without an owner, thereby disabling any functionality that is only available to the owner."
					},
					"transferOwnership(address)": {
						"details": "Transfers ownership of the contract to a new account (`newOwner`). Can only be called by the current owner."
					}
				},
				"version": 1
			},
			"evm": {
				"assembly": "    /* \"Voting.sol\":573:8424  contract Voting is Ownable {... */\n  mstore(0x40, 0x80)\n    /* \"Voting.sol\":1394:1474  constructor() {... */\n  callvalue\n  dup1\n  iszero\n  tag_1\n  jumpi\n  0x00\n  dup1\n  revert\ntag_1:\n  pop\n    /* \"@openzeppelin/contracts/access/Ownable.sol\":936:968  _transferOwnership(_msgSender()) */\n  tag_5\n    /* \"@openzeppelin/contracts/access/Ownable.sol\":955:967  _msgSender() */\n  tag_6\n    /* \"@openzeppelin/contracts/access/Ownable.sol\":955:965  _msgSender */\n  shl(0x20, tag_7)\n    /* \"@openzeppelin/contracts/access/Ownable.sol\":955:967  _msgSender() */\n  0x20\n  shr\n  jump\t// in\ntag_6:\n    /* \"@openzeppelin/contracts/access/Ownable.sol\":936:954  _transferOwnership */\n  shl(0x20, tag_8)\n    /* \"@openzeppelin/contracts/access/Ownable.sol\":936:968  _transferOwnership(_msgSender()) */\n  0x20\n  shr\n  jump\t// in\ntag_5:\n    /* \"Voting.sol\":1435:1467  WorkflowStatus.RegisteringVoters */\n  0x00\n    /* \"Voting.sol\":1418:1425  session */\n  0x01\n    /* \"Voting.sol\":1418:1432  session.status */\n  0x00\n  add\n  0x00\n    /* \"Voting.sol\":1418:1467  session.status = WorkflowStatus.RegisteringVoters */\n  0x0100\n  exp\n  dup2\n  sload\n  dup2\n  0xff\n  mul\n  not\n  and\n  swap1\n  dup4\n  0x05\n  dup2\n  gt\n  iszero\n  tag_10\n  jumpi\n  tag_11\n  tag_12\n  jump\t// in\ntag_11:\ntag_10:\n  mul\n  or\n  swap1\n  sstore\n  pop\n    /* \"Voting.sol\":573:8424  contract Voting is Ownable {... */\n  jump(tag_13)\n    /* \"@openzeppelin/contracts/utils/Context.sol\":640:736  function _msgSender() internal view virtual returns (address) {... */\ntag_7:\n    /* \"@openzeppelin/contracts/utils/Context.sol\":693:700  address */\n  0x00\n    /* \"@openzeppelin/contracts/utils/Context.sol\":719:729  msg.sender */\n  caller\n    /* \"@openzeppelin/contracts/utils/Context.sol\":712:729  return msg.sender */\n  swap1\n  pop\n    /* \"@openzeppelin/contracts/utils/Context.sol\":640:736  function _msgSender() internal view virtual returns (address) {... */\n  swap1\n  jump\t// out\n    /* \"@openzeppelin/contracts/access/Ownable.sol\":2426:2613  function _transferOwnership(address newOwner) internal virtual {... */\ntag_8:\n    /* \"@openzeppelin/contracts/access/Ownable.sol\":2499:2515  address oldOwner */\n  0x00\n    /* \"@openzeppelin/contracts/access/Ownable.sol\":2518:2524  _owner */\n  dup1\n  0x00\n  swap1\n  sload\n  swap1\n  0x0100\n  exp\n  swap1\n  div\n  0xffffffffffffffffffffffffffffffffffffffff\n  and\n    /* \"@openzeppelin/contracts/access/Ownable.sol\":2499:2524  address oldOwner = _owner */\n  swap1\n  pop\n    /* \"@openzeppelin/contracts/access/Ownable.sol\":2543:2551  newOwner */\n  dup2\n    /* \"@openzeppelin/contracts/access/Ownable.sol\":2534:2540  _owner */\n  0x00\n  dup1\n    /* \"@openzeppelin/contracts/access/Ownable.sol\":2534:2551  _owner = newOwner */\n  0x0100\n  exp\n  dup2\n  sload\n  dup2\n  0xffffffffffffffffffffffffffffffffffffffff\n  mul\n  not\n  and\n  swap1\n  dup4\n  0xffffffffffffffffffffffffffffffffffffffff\n  and\n  mul\n  or\n  swap1\n  sstore\n  pop\n    /* \"@openzeppelin/contracts/access/Ownable.sol\":2597:2605  newOwner */\n  dup2\n    /* \"@openzeppelin/contracts/access/Ownable.sol\":2566:2606  OwnershipTransferred(oldOwner, newOwner) */\n  0xffffffffffffffffffffffffffffffffffffffff\n  and\n    /* \"@openzeppelin/contracts/access/Ownable.sol\":2587:2595  oldOwner */\n  dup2\n    /* \"@openzeppelin/contracts/access/Ownable.sol\":2566:2606  OwnershipTransferred(oldOwner, newOwner) */\n  0xffffffffffffffffffffffffffffffffffffffff\n  and\n  0x8be0079c531659141344cd1fd0a4f28419497f9722a3daafe3b4186f6b6457e0\n  mload(0x40)\n  mload(0x40)\n  dup1\n  swap2\n  sub\n  swap1\n  log3\n    /* \"@openzeppelin/contracts/access/Ownable.sol\":2489:2613  {... */\n  pop\n    /* \"@openzeppelin/contracts/access/Ownable.sol\":2426:2613  function _transferOwnership(address newOwner) internal virtual {... */\n  pop\n  jump\t// out\n    /* \"#utility.yul\":7:187   */\ntag_12:\n    /* \"#utility.yul\":55:132   */\n  0x4e487b7100000000000000000000000000000000000000000000000000000000\n    /* \"#utility.yul\":52:53   */\n  0x00\n    /* \"#utility.yul\":45:133   */\n  mstore\n    /* \"#utility.yul\":152:156   */\n  0x21\n    /* \"#utility.yul\":149:150   */\n  0x04\n    /* \"#utility.yul\":142:157   */\n  mstore\n    /* \"#utility.yul\":176:180   */\n  0x24\n    /* \"#utility.yul\":173:174   */\n  0x00\n    /* \"#utility.yul\":166:181   */\n  revert\n    /* \"Voting.sol\":573:8424  contract Voting is Ownable {... */\ntag_13:\n  dataSize(sub_0)\n  dup1\n  dataOffset(sub_0)\n  0x00\n  codecopy\n  0x00\n  return\nstop\n\nsub_0: assembly {\n        /* \"Voting.sol\":573:8424  contract Voting is Ownable {... */\n      mstore(0x40, 0x80)\n      callvalue\n      dup1\n      iszero\n      tag_1\n      jumpi\n      0x00\n      dup1\n      revert\n    tag_1:\n      pop\n      jumpi(tag_2, lt(calldatasize, 0x04))\n      shr(0xe0, calldataload(0x00))\n      dup1\n      0x8da5cb5b\n      gt\n      tag_22\n      jumpi\n      dup1\n      0xd55ec9c1\n      gt\n      tag_23\n      jumpi\n      dup1\n      0xd55ec9c1\n      eq\n      tag_17\n      jumpi\n      dup1\n      0xe85a8f2a\n      eq\n      tag_18\n      jumpi\n      dup1\n      0xf2fde38b\n      eq\n      tag_19\n      jumpi\n      dup1\n      0xf74c168d\n      eq\n      tag_20\n      jumpi\n      dup1\n      0xf8a3ce82\n      eq\n      tag_21\n      jumpi\n      jump(tag_2)\n    tag_23:\n      dup1\n      0x8da5cb5b\n      eq\n      tag_12\n      jumpi\n      dup1\n      0x8e7ea5b2\n      eq\n      tag_13\n      jumpi\n      dup1\n      0xaaa98346\n      eq\n      tag_14\n      jumpi\n      dup1\n      0xb9830ff1\n      eq\n      tag_15\n      jumpi\n      dup1\n      0xcceb68f5\n      eq\n      tag_16\n      jumpi\n      jump(tag_2)\n    tag_22:\n      dup1\n      0x35bbe70e\n      gt\n      tag_24\n      jumpi\n      dup1\n      0x35bbe70e\n      eq\n      tag_7\n      jumpi\n      dup1\n      0x378a2178\n      eq\n      tag_8\n      jumpi\n      dup1\n      0x38db6dd3\n      eq\n      tag_9\n      jumpi\n      dup1\n      0x6edb2860\n      eq\n      tag_10\n      jumpi\n      dup1\n      0x715018a6\n      eq\n      tag_11\n      jumpi\n      jump(tag_2)\n    tag_24:\n      dup1\n      0x0121b93f\n      eq\n      tag_3\n      jumpi\n      dup1\n      0x0b9bc2a0\n      eq\n      tag_4\n      jumpi\n      dup1\n      0x0f7e2838\n      eq\n      tag_5\n      jumpi\n      dup1\n      0x2f95355b\n      eq\n      tag_6\n      jumpi\n    tag_2:\n      0x00\n      dup1\n      revert\n        /* \"Voting.sol\":5673:6181  function vote(uint256 proposalId) external onlyVoters {... */\n    tag_3:\n      tag_25\n      0x04\n      dup1\n      calldatasize\n      sub\n      dup2\n      add\n      swap1\n      tag_26\n      swap2\n      swap1\n      tag_27\n      jump\t// in\n    tag_26:\n      tag_28\n      jump\t// in\n    tag_25:\n      stop\n        /* \"Voting.sol\":7924:8174  function resetProposals() external onlyOwner {... */\n    tag_4:\n      tag_29\n      tag_30\n      jump\t// in\n    tag_29:\n      stop\n        /* \"Voting.sol\":4132:4527  function startProposalRegistration()... */\n    tag_5:\n      tag_31\n      tag_32\n      jump\t// in\n    tag_31:\n      stop\n        /* \"Voting.sol\":4826:5149  function registerProposal(string memory description)... */\n    tag_6:\n      tag_33\n      0x04\n      dup1\n      calldatasize\n      sub\n      dup2\n      add\n      swap1\n      tag_34\n      swap2\n      swap1\n      tag_35\n      jump\t// in\n    tag_34:\n      tag_36\n      jump\t// in\n    tag_33:\n      stop\n        /* \"Voting.sol\":7028:7181  function getAllVoters()... */\n    tag_7:\n      tag_37\n      tag_38\n      jump\t// in\n    tag_37:\n      mload(0x40)\n      tag_39\n      swap2\n      swap1\n      tag_40\n      jump\t// in\n    tag_39:\n      mload(0x40)\n      dup1\n      swap2\n      sub\n      swap1\n      return\n        /* \"Voting.sol\":6217:6804  function tallyVotes() external voteSessionDone {... */\n    tag_8:\n      tag_41\n      tag_42\n      jump\t// in\n    tag_41:\n      stop\n        /* \"Voting.sol\":3501:3858  function registerVoter(address _voter)... */\n    tag_9:\n      tag_43\n      0x04\n      dup1\n      calldatasize\n      sub\n      dup2\n      add\n      swap1\n      tag_44\n      swap2\n      swap1\n      tag_45\n      jump\t// in\n    tag_44:\n      tag_46\n      jump\t// in\n    tag_43:\n      stop\n        /* \"Voting.sol\":7509:7645  function getVoteOfVoter(address _voters) external view returns (uint256) {... */\n    tag_10:\n      tag_47\n      0x04\n      dup1\n      calldatasize\n      sub\n      dup2\n      add\n      swap1\n      tag_48\n      swap2\n      swap1\n      tag_45\n      jump\t// in\n    tag_48:\n      tag_49\n      jump\t// in\n    tag_47:\n      mload(0x40)\n      tag_50\n      swap2\n      swap1\n      tag_51\n      jump\t// in\n    tag_50:\n      mload(0x40)\n      dup1\n      swap2\n      sub\n      swap1\n      return\n        /* \"@openzeppelin/contracts/access/Ownable.sol\":1824:1925  function renounceOwnership() public virtual onlyOwner {... */\n    tag_11:\n      tag_52\n      tag_53\n      jump\t// in\n    tag_52:\n      stop\n        /* \"@openzeppelin/contracts/access/Ownable.sol\":1201:1286  function owner() public view virtual returns (address) {... */\n    tag_12:\n      tag_54\n      tag_55\n      jump\t// in\n    tag_54:\n      mload(0x40)\n      tag_56\n      swap2\n      swap1\n      tag_57\n      jump\t// in\n    tag_56:\n      mload(0x40)\n      dup1\n      swap2\n      sub\n      swap1\n      return\n        /* \"Voting.sol\":6810:6980  function getWinner()... */\n    tag_13:\n      tag_58\n      tag_59\n      jump\t// in\n    tag_58:\n      mload(0x40)\n      tag_60\n      swap2\n      swap1\n      tag_51\n      jump\t// in\n    tag_60:\n      mload(0x40)\n      dup1\n      swap2\n      sub\n      swap1\n      return\n        /* \"Voting.sol\":5180:5424  function startVoteSession() external onlyOwner registerProposalDone {... */\n    tag_14:\n      tag_61\n      tag_62\n      jump\t// in\n    tag_61:\n      stop\n        /* \"Voting.sol\":8180:8422  function resetVotes() external onlyOwner {... */\n    tag_15:\n      tag_63\n      tag_64\n      jump\t// in\n    tag_63:\n      stop\n        /* \"Voting.sol\":7187:7503  function getAllProposals()... */\n    tag_16:\n      tag_65\n      tag_66\n      jump\t// in\n    tag_65:\n      mload(0x40)\n      tag_67\n      swap2\n      swap1\n      tag_68\n      jump\t// in\n    tag_67:\n      mload(0x40)\n      dup1\n      swap2\n      sub\n      swap1\n      return\n        /* \"Voting.sol\":3864:4093  function registerVoters(address[] memory _voters)... */\n    tag_17:\n      tag_69\n      0x04\n      dup1\n      calldatasize\n      sub\n      dup2\n      add\n      swap1\n      tag_70\n      swap2\n      swap1\n      tag_71\n      jump\t// in\n    tag_70:\n      tag_72\n      jump\t// in\n    tag_69:\n      stop\n        /* \"Voting.sol\":4533:4820  function endProposalRegistration()... */\n    tag_18:\n      tag_73\n      tag_74\n      jump\t// in\n    tag_73:\n      stop\n        /* \"@openzeppelin/contracts/access/Ownable.sol\":2074:2272  function transferOwnership(address newOwner) public virtual onlyOwner {... */\n    tag_19:\n      tag_75\n      0x04\n      dup1\n      calldatasize\n      sub\n      dup2\n      add\n      swap1\n      tag_76\n      swap2\n      swap1\n      tag_45\n      jump\t// in\n    tag_76:\n      tag_77\n      jump\t// in\n    tag_75:\n      stop\n        /* \"Voting.sol\":5430:5667  function endVoteSession() external onlyOwner voteSessionActive {... */\n    tag_20:\n      tag_78\n      tag_79\n      jump\t// in\n    tag_78:\n      stop\n        /* \"Voting.sol\":7676:7918  function resetSession() external onlyOwner {... */\n    tag_21:\n      tag_80\n      tag_81\n      jump\t// in\n    tag_80:\n      stop\n        /* \"Voting.sol\":5673:6181  function vote(uint256 proposalId) external onlyVoters {... */\n    tag_28:\n        /* \"Voting.sol\":2488:2495  session */\n      0x01\n        /* \"Voting.sol\":2488:2502  session.voters */\n      dup1\n      add\n        /* \"Voting.sol\":2488:2514  session.voters[msg.sender] */\n      0x00\n        /* \"Voting.sol\":2503:2513  msg.sender */\n      caller\n        /* \"Voting.sol\":2488:2514  session.voters[msg.sender] */\n      0xffffffffffffffffffffffffffffffffffffffff\n      and\n      0xffffffffffffffffffffffffffffffffffffffff\n      and\n      dup2\n      mstore\n      0x20\n      add\n      swap1\n      dup2\n      mstore\n      0x20\n      add\n      0x00\n      keccak256\n        /* \"Voting.sol\":2488:2527  session.voters[msg.sender].isRegistered */\n      0x00\n      add\n      0x00\n      swap1\n      sload\n      swap1\n      0x0100\n      exp\n      swap1\n      div\n      0xff\n      and\n        /* \"Voting.sol\":2483:2590  if (!session.voters[msg.sender].isRegistered) {... */\n      tag_83\n      jumpi\n        /* \"Voting.sol\":2568:2578  msg.sender */\n      caller\n        /* \"Voting.sol\":2550:2579  UnRegisteredVoter(msg.sender) */\n      mload(0x40)\n      0xaffa818a00000000000000000000000000000000000000000000000000000000\n      dup2\n      mstore\n      0x04\n      add\n      tag_84\n      swap2\n      swap1\n      tag_57\n      jump\t// in\n    tag_84:\n      mload(0x40)\n      dup1\n      swap2\n      sub\n      swap1\n      revert\n        /* \"Voting.sol\":2483:2590  if (!session.voters[msg.sender].isRegistered) {... */\n    tag_83:\n        /* \"Voting.sol\":5755:5762  session */\n      0x01\n        /* \"Voting.sol\":5755:5772  session.proposals */\n      0x03\n      add\n        /* \"Voting.sol\":5755:5779  session.proposals.length */\n      dup1\n      sload\n      swap1\n      pop\n        /* \"Voting.sol\":5741:5751  proposalId */\n      dup2\n        /* \"Voting.sol\":5741:5779  proposalId >= session.proposals.length */\n      lt\n      iszero\n        /* \"Voting.sol\":5741:5798  proposalId >= session.proposals.length && proposalId == 0 */\n      dup1\n      iszero\n      tag_86\n      jumpi\n      pop\n        /* \"Voting.sol\":5797:5798  0 */\n      0x00\n        /* \"Voting.sol\":5783:5793  proposalId */\n      dup2\n        /* \"Voting.sol\":5783:5798  proposalId == 0 */\n      eq\n        /* \"Voting.sol\":5741:5798  proposalId >= session.proposals.length && proposalId == 0 */\n    tag_86:\n        /* \"Voting.sol\":5737:5857  if (proposalId >= session.proposals.length && proposalId == 0) {... */\n      iszero\n      tag_87\n      jumpi\n        /* \"Voting.sol\":5835:5845  proposalId */\n      dup1\n        /* \"Voting.sol\":5821:5846  WrongProposal(proposalId) */\n      mload(0x40)\n      0x442633c800000000000000000000000000000000000000000000000000000000\n      dup2\n      mstore\n      0x04\n      add\n      tag_88\n      swap2\n      swap1\n      tag_51\n      jump\t// in\n    tag_88:\n      mload(0x40)\n      dup1\n      swap2\n      sub\n      swap1\n      revert\n        /* \"Voting.sol\":5737:5857  if (proposalId >= session.proposals.length && proposalId == 0) {... */\n    tag_87:\n        /* \"Voting.sol\":5870:5877  session */\n      0x01\n        /* \"Voting.sol\":5870:5884  session.voters */\n      dup1\n      add\n        /* \"Voting.sol\":5870:5896  session.voters[msg.sender] */\n      0x00\n        /* \"Voting.sol\":5885:5895  msg.sender */\n      caller\n        /* \"Voting.sol\":5870:5896  session.voters[msg.sender] */\n      0xffffffffffffffffffffffffffffffffffffffff\n      and\n      0xffffffffffffffffffffffffffffffffffffffff\n      and\n      dup2\n      mstore\n      0x20\n      add\n      swap1\n      dup2\n      mstore\n      0x20\n      add\n      0x00\n      keccak256\n        /* \"Voting.sol\":5870:5905  session.voters[msg.sender].hasVoted */\n      0x00\n      add\n      0x01\n      swap1\n      sload\n      swap1\n      0x0100\n      exp\n      swap1\n      div\n      0xff\n      and\n        /* \"Voting.sol\":5866:5963  if (session.voters[msg.sender].hasVoted) {... */\n      iszero\n      tag_89\n      jumpi\n        /* \"Voting.sol\":5941:5951  msg.sender */\n      caller\n        /* \"Voting.sol\":5928:5952  AlreadyVoted(msg.sender) */\n      mload(0x40)\n      0xd449d67400000000000000000000000000000000000000000000000000000000\n      dup2\n      mstore\n      0x04\n      add\n      tag_90\n      swap2\n      swap1\n      tag_57\n      jump\t// in\n    tag_90:\n      mload(0x40)\n      dup1\n      swap2\n      sub\n      swap1\n      revert\n        /* \"Voting.sol\":5866:5963  if (session.voters[msg.sender].hasVoted) {... */\n    tag_89:\n        /* \"Voting.sol\":6010:6014  true */\n      0x01\n        /* \"Voting.sol\":5972:5979  session */\n      dup1\n        /* \"Voting.sol\":5972:5986  session.voters */\n      0x01\n      add\n        /* \"Voting.sol\":5972:5998  session.voters[msg.sender] */\n      0x00\n        /* \"Voting.sol\":5987:5997  msg.sender */\n      caller\n        /* \"Voting.sol\":5972:5998  session.voters[msg.sender] */\n      0xffffffffffffffffffffffffffffffffffffffff\n      and\n      0xffffffffffffffffffffffffffffffffffffffff\n      and\n      dup2\n      mstore\n      0x20\n      add\n      swap1\n      dup2\n      mstore\n      0x20\n      add\n      0x00\n      keccak256\n        /* \"Voting.sol\":5972:6007  session.voters[msg.sender].hasVoted */\n      0x00\n      add\n      0x01\n        /* \"Voting.sol\":5972:6014  session.voters[msg.sender].hasVoted = true */\n      0x0100\n      exp\n      dup2\n      sload\n      dup2\n      0xff\n      mul\n      not\n      and\n      swap1\n      dup4\n      iszero\n      iszero\n      mul\n      or\n      swap1\n      sstore\n      pop\n        /* \"Voting.sol\":6069:6079  proposalId */\n      dup1\n        /* \"Voting.sol\":6024:6031  session */\n      0x01\n        /* \"Voting.sol\":6024:6038  session.voters */\n      dup1\n      add\n        /* \"Voting.sol\":6024:6050  session.voters[msg.sender] */\n      0x00\n        /* \"Voting.sol\":6039:6049  msg.sender */\n      caller\n        /* \"Voting.sol\":6024:6050  session.voters[msg.sender] */\n      0xffffffffffffffffffffffffffffffffffffffff\n      and\n      0xffffffffffffffffffffffffffffffffffffffff\n      and\n      dup2\n      mstore\n      0x20\n      add\n      swap1\n      dup2\n      mstore\n      0x20\n      add\n      0x00\n      keccak256\n        /* \"Voting.sol\":6024:6066  session.voters[msg.sender].votedProposalId */\n      0x01\n      add\n        /* \"Voting.sol\":6024:6079  session.voters[msg.sender].votedProposalId = proposalId */\n      dup2\n      swap1\n      sstore\n      pop\n        /* \"Voting.sol\":6089:6096  session */\n      0x01\n        /* \"Voting.sol\":6089:6106  session.proposals */\n      0x03\n      add\n        /* \"Voting.sol\":6107:6117  proposalId */\n      dup2\n        /* \"Voting.sol\":6089:6118  session.proposals[proposalId] */\n      dup2\n      sload\n      dup2\n      lt\n      tag_91\n      jumpi\n      tag_92\n      tag_93\n      jump\t// in\n    tag_92:\n    tag_91:\n      swap1\n      0x00\n      mstore\n      keccak256(0x00, 0x20)\n      swap1\n      0x02\n      mul\n      add\n        /* \"Voting.sol\":6089:6128  session.proposals[proposalId].voteCount */\n      0x01\n      add\n      0x00\n        /* \"Voting.sol\":6089:6130  session.proposals[proposalId].voteCount++ */\n      dup2\n      sload\n      dup1\n      swap3\n      swap2\n      swap1\n      tag_95\n      swap1\n      tag_96\n      jump\t// in\n    tag_95:\n      swap2\n      swap1\n      pop\n      sstore\n      pop\n        /* \"Voting.sol\":6145:6174  Voted(msg.sender, proposalId) */\n      0x4d99b957a2bc29a30ebd96a7be8e68fe50a3c701db28a91436490b7d53870ca4\n        /* \"Voting.sol\":6151:6161  msg.sender */\n      caller\n        /* \"Voting.sol\":6163:6173  proposalId */\n      dup3\n        /* \"Voting.sol\":6145:6174  Voted(msg.sender, proposalId) */\n      mload(0x40)\n      tag_97\n      swap3\n      swap2\n      swap1\n      tag_98\n      jump\t// in\n    tag_97:\n      mload(0x40)\n      dup1\n      swap2\n      sub\n      swap1\n      log1\n        /* \"Voting.sol\":5673:6181  function vote(uint256 proposalId) external onlyVoters {... */\n      pop\n      jump\t// out\n        /* \"Voting.sol\":7924:8174  function resetProposals() external onlyOwner {... */\n    tag_30:\n        /* \"@openzeppelin/contracts/access/Ownable.sol\":1094:1107  _checkOwner() */\n      tag_100\n        /* \"@openzeppelin/contracts/access/Ownable.sol\":1094:1105  _checkOwner */\n      tag_101\n        /* \"@openzeppelin/contracts/access/Ownable.sol\":1094:1107  _checkOwner() */\n      jump\t// in\n    tag_100:\n        /* \"Voting.sol\":7979:8000  WorkflowStatus status */\n      0x00\n        /* \"Voting.sol\":8003:8010  session */\n      0x01\n        /* \"Voting.sol\":8003:8017  session.status */\n      0x00\n      add\n      0x00\n      swap1\n      sload\n      swap1\n      0x0100\n      exp\n      swap1\n      div\n      0xff\n      and\n        /* \"Voting.sol\":7979:8017  WorkflowStatus status = session.status */\n      swap1\n      pop\n        /* \"Voting.sol\":8044:8079  WorkflowStatus.VotingSessionStarted */\n      0x03\n        /* \"Voting.sol\":8027:8034  session */\n      0x01\n        /* \"Voting.sol\":8027:8041  session.status */\n      0x00\n      add\n      0x00\n        /* \"Voting.sol\":8027:8079  session.status = WorkflowStatus.VotingSessionStarted */\n      0x0100\n      exp\n      dup2\n      sload\n      dup2\n      0xff\n      mul\n      not\n      and\n      swap1\n      dup4\n      0x05\n      dup2\n      gt\n      iszero\n      tag_103\n      jumpi\n      tag_104\n      tag_105\n      jump\t// in\n    tag_104:\n    tag_103:\n      mul\n      or\n      swap1\n      sstore\n      pop\n        /* \"Voting.sol\":8090:8107  _resetProposals() */\n      tag_106\n        /* \"Voting.sol\":8090:8105  _resetProposals */\n      tag_107\n        /* \"Voting.sol\":8090:8107  _resetProposals() */\n      jump\t// in\n    tag_106:\n        /* \"Voting.sol\":8123:8167  WorkflowStatusChange(status, session.status) */\n      0x0a97a4ee45751e2abf3e4fc8946939630b11b371ea8ae39ccdc3056e98f5cc3f\n        /* \"Voting.sol\":8144:8150  status */\n      dup2\n        /* \"Voting.sol\":8152:8159  session */\n      0x01\n        /* \"Voting.sol\":8152:8166  session.status */\n      0x00\n      add\n      0x00\n      swap1\n      sload\n      swap1\n      0x0100\n      exp\n      swap1\n      div\n      0xff\n      and\n        /* \"Voting.sol\":8123:8167  WorkflowStatusChange(status, session.status) */\n      mload(0x40)\n      tag_108\n      swap3\n      swap2\n      swap1\n      tag_109\n      jump\t// in\n    tag_108:\n      mload(0x40)\n      dup1\n      swap2\n      sub\n      swap1\n      log1\n        /* \"Voting.sol\":7969:8174  {... */\n      pop\n        /* \"Voting.sol\":7924:8174  function resetProposals() external onlyOwner {... */\n      jump\t// out\n        /* \"Voting.sol\":4132:4527  function startProposalRegistration()... */\n    tag_32:\n        /* \"@openzeppelin/contracts/access/Ownable.sol\":1094:1107  _checkOwner() */\n      tag_111\n        /* \"@openzeppelin/contracts/access/Ownable.sol\":1094:1105  _checkOwner */\n      tag_101\n        /* \"@openzeppelin/contracts/access/Ownable.sol\":1094:1107  _checkOwner() */\n      jump\t// in\n    tag_111:\n        /* \"Voting.sol\":2839:2884  _wrongPhase(WorkflowStatus.RegisteringVoters) */\n      tag_113\n        /* \"Voting.sol\":2851:2883  WorkflowStatus.RegisteringVoters */\n      0x00\n        /* \"Voting.sol\":2839:2850  _wrongPhase */\n      tag_114\n        /* \"Voting.sol\":2839:2884  _wrongPhase(WorkflowStatus.RegisteringVoters) */\n      jump\t// in\n    tag_113:\n        /* \"Voting.sol\":4246:4267  WorkflowStatus status */\n      0x00\n        /* \"Voting.sol\":4270:4277  session */\n      0x01\n        /* \"Voting.sol\":4270:4284  session.status */\n      0x00\n      add\n      0x00\n      swap1\n      sload\n      swap1\n      0x0100\n      exp\n      swap1\n      div\n      0xff\n      and\n        /* \"Voting.sol\":4246:4284  WorkflowStatus status = session.status */\n      swap1\n      pop\n        /* \"Voting.sol\":4311:4354  WorkflowStatus.ProposalsRegistrationStarted */\n      0x01\n        /* \"Voting.sol\":4294:4301  session */\n      dup1\n        /* \"Voting.sol\":4294:4308  session.status */\n      0x00\n      add\n      0x00\n        /* \"Voting.sol\":4294:4354  session.status = WorkflowStatus.ProposalsRegistrationStarted */\n      0x0100\n      exp\n      dup2\n      sload\n      dup2\n      0xff\n      mul\n      not\n      and\n      swap1\n      dup4\n      0x05\n      dup2\n      gt\n      iszero\n      tag_116\n      jumpi\n      tag_117\n      tag_105\n      jump\t// in\n    tag_117:\n    tag_116:\n      mul\n      or\n      swap1\n      sstore\n      pop\n        /* \"Voting.sol\":4432:4460  Proposal(\"void bulletin\", 0) */\n      mload(0x40)\n      dup1\n      0x40\n      add\n      0x40\n      mstore\n      dup1\n      mload(0x40)\n      dup1\n      0x40\n      add\n      0x40\n      mstore\n      dup1\n      0x0d\n      dup2\n      mstore\n      0x20\n      add\n      0x766f69642062756c6c6574696e00000000000000000000000000000000000000\n      dup2\n      mstore\n      pop\n      dup2\n      mstore\n      0x20\n      add\n        /* \"Voting.sol\":4458:4459  0 */\n      0x00\n        /* \"Voting.sol\":4432:4460  Proposal(\"void bulletin\", 0) */\n      dup2\n      mstore\n      pop\n        /* \"Voting.sol\":4409:4416  session */\n      0x01\n        /* \"Voting.sol\":4409:4426  session.proposals */\n      0x03\n      add\n        /* \"Voting.sol\":4427:4428  0 */\n      0x00\n        /* \"Voting.sol\":4409:4429  session.proposals[0] */\n      dup2\n      sload\n      dup2\n      lt\n      tag_118\n      jumpi\n      tag_119\n      tag_93\n      jump\t// in\n    tag_119:\n    tag_118:\n      swap1\n      0x00\n      mstore\n      keccak256(0x00, 0x20)\n      swap1\n      0x02\n      mul\n      add\n        /* \"Voting.sol\":4409:4460  session.proposals[0] = Proposal(\"void bulletin\", 0) */\n      0x00\n      dup3\n      add\n      mload\n      dup2\n      0x00\n      add\n      swap1\n      dup2\n      tag_121\n      swap2\n      swap1\n      tag_122\n      jump\t// in\n    tag_121:\n      pop\n      0x20\n      dup3\n      add\n      mload\n      dup2\n      0x01\n      add\n      sstore\n      swap1\n      pop\n      pop\n        /* \"Voting.sol\":4476:4520  WorkflowStatusChange(status, session.status) */\n      0x0a97a4ee45751e2abf3e4fc8946939630b11b371ea8ae39ccdc3056e98f5cc3f\n        /* \"Voting.sol\":4497:4503  status */\n      dup2\n        /* \"Voting.sol\":4505:4512  session */\n      0x01\n        /* \"Voting.sol\":4505:4519  session.status */\n      0x00\n      add\n      0x00\n      swap1\n      sload\n      swap1\n      0x0100\n      exp\n      swap1\n      div\n      0xff\n      and\n        /* \"Voting.sol\":4476:4520  WorkflowStatusChange(status, session.status) */\n      mload(0x40)\n      tag_123\n      swap3\n      swap2\n      swap1\n      tag_109\n      jump\t// in\n    tag_123:\n      mload(0x40)\n      dup1\n      swap2\n      sub\n      swap1\n      log1\n        /* \"Voting.sol\":4236:4527  {... */\n      pop\n        /* \"Voting.sol\":4132:4527  function startProposalRegistration()... */\n      jump\t// out\n        /* \"Voting.sol\":4826:5149  function registerProposal(string memory description)... */\n    tag_36:\n        /* \"Voting.sol\":2488:2495  session */\n      0x01\n        /* \"Voting.sol\":2488:2502  session.voters */\n      dup1\n      add\n        /* \"Voting.sol\":2488:2514  session.voters[msg.sender] */\n      0x00\n        /* \"Voting.sol\":2503:2513  msg.sender */\n      caller\n        /* \"Voting.sol\":2488:2514  session.voters[msg.sender] */\n      0xffffffffffffffffffffffffffffffffffffffff\n      and\n      0xffffffffffffffffffffffffffffffffffffffff\n      and\n      dup2\n      mstore\n      0x20\n      add\n      swap1\n      dup2\n      mstore\n      0x20\n      add\n      0x00\n      keccak256\n        /* \"Voting.sol\":2488:2527  session.voters[msg.sender].isRegistered */\n      0x00\n      add\n      0x00\n      swap1\n      sload\n      swap1\n      0x0100\n      exp\n      swap1\n      div\n      0xff\n      and\n        /* \"Voting.sol\":2483:2590  if (!session.voters[msg.sender].isRegistered) {... */\n      tag_125\n      jumpi\n        /* \"Voting.sol\":2568:2578  msg.sender */\n      caller\n        /* \"Voting.sol\":2550:2579  UnRegisteredVoter(msg.sender) */\n      mload(0x40)\n      0xaffa818a00000000000000000000000000000000000000000000000000000000\n      dup2\n      mstore\n      0x04\n      add\n      tag_126\n      swap2\n      swap1\n      tag_57\n      jump\t// in\n    tag_126:\n      mload(0x40)\n      dup1\n      swap2\n      sub\n      swap1\n      revert\n        /* \"Voting.sol\":2483:2590  if (!session.voters[msg.sender].isRegistered) {... */\n    tag_125:\n        /* \"Voting.sol\":2951:3007  _wrongPhase(WorkflowStatus.ProposalsRegistrationStarted) */\n      tag_128\n        /* \"Voting.sol\":2963:3006  WorkflowStatus.ProposalsRegistrationStarted */\n      0x01\n        /* \"Voting.sol\":2951:2962  _wrongPhase */\n      tag_114\n        /* \"Voting.sol\":2951:3007  _wrongPhase(WorkflowStatus.ProposalsRegistrationStarted) */\n      jump\t// in\n    tag_128:\n        /* \"Voting.sol\":4994:5012  uint256 proposalId */\n      0x00\n        /* \"Voting.sol\":5015:5022  session */\n      0x01\n        /* \"Voting.sol\":5015:5032  session.proposals */\n      0x03\n      add\n        /* \"Voting.sol\":5015:5039  session.proposals.length */\n      dup1\n      sload\n      swap1\n      pop\n        /* \"Voting.sol\":4994:5039  uint256 proposalId = session.proposals.length */\n      swap1\n      pop\n        /* \"Voting.sol\":5049:5056  session */\n      0x01\n        /* \"Voting.sol\":5049:5066  session.proposals */\n      0x03\n      add\n        /* \"Voting.sol\":5072:5096  Proposal(description, 0) */\n      mload(0x40)\n      dup1\n      0x40\n      add\n      0x40\n      mstore\n      dup1\n        /* \"Voting.sol\":5081:5092  description */\n      dup5\n        /* \"Voting.sol\":5072:5096  Proposal(description, 0) */\n      dup2\n      mstore\n      0x20\n      add\n        /* \"Voting.sol\":5094:5095  0 */\n      0x00\n        /* \"Voting.sol\":5072:5096  Proposal(description, 0) */\n      dup2\n      mstore\n      pop\n        /* \"Voting.sol\":5049:5097  session.proposals.push(Proposal(description, 0)) */\n      swap1\n      dup1\n      0x01\n      dup2\n      sload\n      add\n      dup1\n      dup3\n      sstore\n      dup1\n      swap2\n      pop\n      pop\n      0x01\n      swap1\n      sub\n      swap1\n      0x00\n      mstore\n      keccak256(0x00, 0x20)\n      swap1\n      0x02\n      mul\n      add\n      0x00\n      swap1\n      swap2\n      swap1\n      swap2\n      swap1\n      swap2\n      pop\n      0x00\n      dup3\n      add\n      mload\n      dup2\n      0x00\n      add\n      swap1\n      dup2\n      tag_131\n      swap2\n      swap1\n      tag_122\n      jump\t// in\n    tag_131:\n      pop\n      0x20\n      dup3\n      add\n      mload\n      dup2\n      0x01\n      add\n      sstore\n      pop\n      pop\n        /* \"Voting.sol\":5112:5142  ProposalRegistered(proposalId) */\n      0x92e393e9b54e2f801d3ea4beb0c5e71a21cc34a5d34b77d0fb8a3aa1650dc18f\n        /* \"Voting.sol\":5131:5141  proposalId */\n      dup2\n        /* \"Voting.sol\":5112:5142  ProposalRegistered(proposalId) */\n      mload(0x40)\n      tag_132\n      swap2\n      swap1\n      tag_51\n      jump\t// in\n    tag_132:\n      mload(0x40)\n      dup1\n      swap2\n      sub\n      swap1\n      log1\n        /* \"Voting.sol\":4950:5149  {... */\n      pop\n        /* \"Voting.sol\":4826:5149  function registerProposal(string memory description)... */\n      pop\n      jump\t// out\n        /* \"Voting.sol\":7028:7181  function getAllVoters()... */\n    tag_38:\n        /* \"Voting.sol\":7118:7134  address[] memory */\n      0x60\n        /* \"Voting.sol\":2488:2495  session */\n      0x01\n        /* \"Voting.sol\":2488:2502  session.voters */\n      dup1\n      add\n        /* \"Voting.sol\":2488:2514  session.voters[msg.sender] */\n      0x00\n        /* \"Voting.sol\":2503:2513  msg.sender */\n      caller\n        /* \"Voting.sol\":2488:2514  session.voters[msg.sender] */\n      0xffffffffffffffffffffffffffffffffffffffff\n      and\n      0xffffffffffffffffffffffffffffffffffffffff\n      and\n      dup2\n      mstore\n      0x20\n      add\n      swap1\n      dup2\n      mstore\n      0x20\n      add\n      0x00\n      keccak256\n        /* \"Voting.sol\":2488:2527  session.voters[msg.sender].isRegistered */\n      0x00\n      add\n      0x00\n      swap1\n      sload\n      swap1\n      0x0100\n      exp\n      swap1\n      div\n      0xff\n      and\n        /* \"Voting.sol\":2483:2590  if (!session.voters[msg.sender].isRegistered) {... */\n      tag_134\n      jumpi\n        /* \"Voting.sol\":2568:2578  msg.sender */\n      caller\n        /* \"Voting.sol\":2550:2579  UnRegisteredVoter(msg.sender) */\n      mload(0x40)\n      0xaffa818a00000000000000000000000000000000000000000000000000000000\n      dup2\n      mstore\n      0x04\n      add\n      tag_135\n      swap2\n      swap1\n      tag_57\n      jump\t// in\n    tag_135:\n      mload(0x40)\n      dup1\n      swap2\n      sub\n      swap1\n      revert\n        /* \"Voting.sol\":2483:2590  if (!session.voters[msg.sender].isRegistered) {... */\n    tag_134:\n        /* \"Voting.sol\":7157:7164  session */\n      0x01\n        /* \"Voting.sol\":7157:7174  session.idxVoters */\n      0x02\n      add\n        /* \"Voting.sol\":7150:7174  return session.idxVoters */\n      dup1\n      sload\n      dup1\n      0x20\n      mul\n      0x20\n      add\n      mload(0x40)\n      swap1\n      dup2\n      add\n      0x40\n      mstore\n      dup1\n      swap3\n      swap2\n      swap1\n      dup2\n      dup2\n      mstore\n      0x20\n      add\n      dup3\n      dup1\n      sload\n      dup1\n      iszero\n      tag_137\n      jumpi\n      0x20\n      mul\n      dup3\n      add\n      swap2\n      swap1\n      0x00\n      mstore\n      keccak256(0x00, 0x20)\n      swap1\n    tag_138:\n      dup2\n      0x00\n      swap1\n      sload\n      swap1\n      0x0100\n      exp\n      swap1\n      div\n      0xffffffffffffffffffffffffffffffffffffffff\n      and\n      0xffffffffffffffffffffffffffffffffffffffff\n      and\n      dup2\n      mstore\n      0x20\n      add\n      swap1\n      0x01\n      add\n      swap1\n      dup1\n      dup4\n      gt\n      tag_138\n      jumpi\n    tag_137:\n      pop\n      pop\n      pop\n      pop\n      pop\n      swap1\n      pop\n        /* \"Voting.sol\":7028:7181  function getAllVoters()... */\n      swap1\n      jump\t// out\n        /* \"Voting.sol\":6217:6804  function tallyVotes() external voteSessionDone {... */\n    tag_42:\n        /* \"Voting.sol\":3299:3347  _wrongPhase(WorkflowStatus.VotingSessionStarted) */\n      tag_140\n        /* \"Voting.sol\":3311:3346  WorkflowStatus.VotingSessionStarted */\n      0x03\n        /* \"Voting.sol\":3299:3310  _wrongPhase */\n      tag_114\n        /* \"Voting.sol\":3299:3347  _wrongPhase(WorkflowStatus.VotingSessionStarted) */\n      jump\t// in\n    tag_140:\n        /* \"Voting.sol\":6274:6294  uint256 maxVoteCount */\n      0x00\n        /* \"Voting.sol\":6308:6328  uint256 mainProposal */\n      dup1\n        /* \"Voting.sol\":6347:6356  uint256 i */\n      0x00\n        /* \"Voting.sol\":6359:6360  1 */\n      0x01\n        /* \"Voting.sol\":6347:6360  uint256 i = 1 */\n      swap1\n      pop\n        /* \"Voting.sol\":6342:6584  for (uint256 i = 1; i < session.proposals.length; i++) {... */\n    tag_142:\n        /* \"Voting.sol\":6366:6373  session */\n      0x01\n        /* \"Voting.sol\":6366:6383  session.proposals */\n      0x03\n      add\n        /* \"Voting.sol\":6366:6390  session.proposals.length */\n      dup1\n      sload\n      swap1\n      pop\n        /* \"Voting.sol\":6362:6363  i */\n      dup2\n        /* \"Voting.sol\":6362:6390  i < session.proposals.length */\n      lt\n        /* \"Voting.sol\":6342:6584  for (uint256 i = 1; i < session.proposals.length; i++) {... */\n      iszero\n      tag_143\n      jumpi\n        /* \"Voting.sol\":6448:6460  maxVoteCount */\n      dup3\n        /* \"Voting.sol\":6415:6422  session */\n      0x01\n        /* \"Voting.sol\":6415:6432  session.proposals */\n      0x03\n      add\n        /* \"Voting.sol\":6433:6434  i */\n      dup3\n        /* \"Voting.sol\":6415:6435  session.proposals[i] */\n      dup2\n      sload\n      dup2\n      lt\n      tag_145\n      jumpi\n      tag_146\n      tag_93\n      jump\t// in\n    tag_146:\n    tag_145:\n      swap1\n      0x00\n      mstore\n      keccak256(0x00, 0x20)\n      swap1\n      0x02\n      mul\n      add\n        /* \"Voting.sol\":6415:6445  session.proposals[i].voteCount */\n      0x01\n      add\n      sload\n        /* \"Voting.sol\":6415:6460  session.proposals[i].voteCount > maxVoteCount */\n      gt\n        /* \"Voting.sol\":6411:6574  if (session.proposals[i].voteCount > maxVoteCount) {... */\n      iszero\n      tag_148\n      jumpi\n        /* \"Voting.sol\":6495:6502  session */\n      0x01\n        /* \"Voting.sol\":6495:6512  session.proposals */\n      0x03\n      add\n        /* \"Voting.sol\":6513:6514  i */\n      dup2\n        /* \"Voting.sol\":6495:6515  session.proposals[i] */\n      dup2\n      sload\n      dup2\n      lt\n      tag_149\n      jumpi\n      tag_150\n      tag_93\n      jump\t// in\n    tag_150:\n    tag_149:\n      swap1\n      0x00\n      mstore\n      keccak256(0x00, 0x20)\n      swap1\n      0x02\n      mul\n      add\n        /* \"Voting.sol\":6495:6525  session.proposals[i].voteCount */\n      0x01\n      add\n      sload\n        /* \"Voting.sol\":6480:6525  maxVoteCount = session.proposals[i].voteCount */\n      swap3\n      pop\n        /* \"Voting.sol\":6558:6559  i */\n      dup1\n        /* \"Voting.sol\":6543:6559  mainProposal = i */\n      swap2\n      pop\n        /* \"Voting.sol\":6411:6574  if (session.proposals[i].voteCount > maxVoteCount) {... */\n    tag_148:\n        /* \"Voting.sol\":6392:6395  i++ */\n      dup1\n      dup1\n      tag_152\n      swap1\n      tag_96\n      jump\t// in\n    tag_152:\n      swap2\n      pop\n      pop\n        /* \"Voting.sol\":6342:6584  for (uint256 i = 1; i < session.proposals.length; i++) {... */\n      jump(tag_142)\n    tag_143:\n      pop\n        /* \"Voting.sol\":6622:6634  mainProposal */\n      dup1\n        /* \"Voting.sol\":6594:6601  session */\n      0x01\n        /* \"Voting.sol\":6594:6619  session.winningProposalId */\n      0x04\n      add\n        /* \"Voting.sol\":6594:6634  session.winningProposalId = mainProposal */\n      dup2\n      swap1\n      sstore\n      pop\n        /* \"Voting.sol\":6645:6666  WorkflowStatus status */\n      0x00\n        /* \"Voting.sol\":6669:6676  session */\n      0x01\n        /* \"Voting.sol\":6669:6683  session.status */\n      0x00\n      add\n      0x00\n      swap1\n      sload\n      swap1\n      0x0100\n      exp\n      swap1\n      div\n      0xff\n      and\n        /* \"Voting.sol\":6645:6683  WorkflowStatus status = session.status */\n      swap1\n      pop\n        /* \"Voting.sol\":6710:6737  WorkflowStatus.VotesTallied */\n      0x05\n        /* \"Voting.sol\":6693:6700  session */\n      0x01\n        /* \"Voting.sol\":6693:6707  session.status */\n      0x00\n      add\n      0x00\n        /* \"Voting.sol\":6693:6737  session.status = WorkflowStatus.VotesTallied */\n      0x0100\n      exp\n      dup2\n      sload\n      dup2\n      0xff\n      mul\n      not\n      and\n      swap1\n      dup4\n      0x05\n      dup2\n      gt\n      iszero\n      tag_153\n      jumpi\n      tag_154\n      tag_105\n      jump\t// in\n    tag_154:\n    tag_153:\n      mul\n      or\n      swap1\n      sstore\n      pop\n        /* \"Voting.sol\":6753:6797  WorkflowStatusChange(status, session.status) */\n      0x0a97a4ee45751e2abf3e4fc8946939630b11b371ea8ae39ccdc3056e98f5cc3f\n        /* \"Voting.sol\":6774:6780  status */\n      dup2\n        /* \"Voting.sol\":6782:6789  session */\n      0x01\n        /* \"Voting.sol\":6782:6796  session.status */\n      0x00\n      add\n      0x00\n      swap1\n      sload\n      swap1\n      0x0100\n      exp\n      swap1\n      div\n      0xff\n      and\n        /* \"Voting.sol\":6753:6797  WorkflowStatusChange(status, session.status) */\n      mload(0x40)\n      tag_155\n      swap3\n      swap2\n      swap1\n      tag_109\n      jump\t// in\n    tag_155:\n      mload(0x40)\n      dup1\n      swap2\n      sub\n      swap1\n      log1\n        /* \"Voting.sol\":6264:6804  {... */\n      pop\n      pop\n      pop\n        /* \"Voting.sol\":6217:6804  function tallyVotes() external voteSessionDone {... */\n      jump\t// out\n        /* \"Voting.sol\":3501:3858  function registerVoter(address _voter)... */\n    tag_46:\n        /* \"@openzeppelin/contracts/access/Ownable.sol\":1094:1107  _checkOwner() */\n      tag_157\n        /* \"@openzeppelin/contracts/access/Ownable.sol\":1094:1105  _checkOwner */\n      tag_101\n        /* \"@openzeppelin/contracts/access/Ownable.sol\":1094:1107  _checkOwner() */\n      jump\t// in\n    tag_157:\n        /* \"Voting.sol\":2839:2884  _wrongPhase(WorkflowStatus.RegisteringVoters) */\n      tag_159\n        /* \"Voting.sol\":2851:2883  WorkflowStatus.RegisteringVoters */\n      0x00\n        /* \"Voting.sol\":2839:2850  _wrongPhase */\n      tag_114\n        /* \"Voting.sol\":2839:2884  _wrongPhase(WorkflowStatus.RegisteringVoters) */\n      jump\t// in\n    tag_159:\n        /* \"Voting.sol\":3620:3627  session */\n      0x01\n        /* \"Voting.sol\":3620:3634  session.voters */\n      dup1\n      add\n        /* \"Voting.sol\":3620:3642  session.voters[_voter] */\n      0x00\n        /* \"Voting.sol\":3635:3641  _voter */\n      dup3\n        /* \"Voting.sol\":3620:3642  session.voters[_voter] */\n      0xffffffffffffffffffffffffffffffffffffffff\n      and\n      0xffffffffffffffffffffffffffffffffffffffff\n      and\n      dup2\n      mstore\n      0x20\n      add\n      swap1\n      dup2\n      mstore\n      0x20\n      add\n      0x00\n      keccak256\n        /* \"Voting.sol\":3620:3655  session.voters[_voter].isRegistered */\n      0x00\n      add\n      0x00\n      swap1\n      sload\n      swap1\n      0x0100\n      exp\n      swap1\n      div\n      0xff\n      and\n        /* \"Voting.sol\":3615:3717  if (!session.voters[_voter].isRegistered) {... */\n      tag_161\n      jumpi\n        /* \"Voting.sol\":3699:3705  _voter */\n      dup1\n        /* \"Voting.sol\":3678:3706  AlreadyRegisterVoter(_voter) */\n      mload(0x40)\n      0x7ecf313d00000000000000000000000000000000000000000000000000000000\n      dup2\n      mstore\n      0x04\n      add\n      tag_162\n      swap2\n      swap1\n      tag_57\n      jump\t// in\n    tag_162:\n      mload(0x40)\n      dup1\n      swap2\n      sub\n      swap1\n      revert\n        /* \"Voting.sol\":3615:3717  if (!session.voters[_voter].isRegistered) {... */\n    tag_161:\n        /* \"Voting.sol\":3727:3734  session */\n      0x01\n        /* \"Voting.sol\":3727:3744  session.idxVoters */\n      0x02\n      add\n        /* \"Voting.sol\":3750:3756  _voter */\n      dup2\n        /* \"Voting.sol\":3727:3757  session.idxVoters.push(_voter) */\n      swap1\n      dup1\n      0x01\n      dup2\n      sload\n      add\n      dup1\n      dup3\n      sstore\n      dup1\n      swap2\n      pop\n      pop\n      0x01\n      swap1\n      sub\n      swap1\n      0x00\n      mstore\n      keccak256(0x00, 0x20)\n      add\n      0x00\n      swap1\n      swap2\n      swap1\n      swap2\n      swap1\n      swap2\n      0x0100\n      exp\n      dup2\n      sload\n      dup2\n      0xffffffffffffffffffffffffffffffffffffffff\n      mul\n      not\n      and\n      swap1\n      dup4\n      0xffffffffffffffffffffffffffffffffffffffff\n      and\n      mul\n      or\n      swap1\n      sstore\n      pop\n        /* \"Voting.sol\":3792:3813  Voter(true, false, 0) */\n      mload(0x40)\n      dup1\n      0x60\n      add\n      0x40\n      mstore\n      dup1\n        /* \"Voting.sol\":3798:3802  true */\n      0x01\n        /* \"Voting.sol\":3792:3813  Voter(true, false, 0) */\n      iszero\n      iszero\n      dup2\n      mstore\n      0x20\n      add\n        /* \"Voting.sol\":3804:3809  false */\n      0x00\n        /* \"Voting.sol\":3792:3813  Voter(true, false, 0) */\n      iszero\n      iszero\n      dup2\n      mstore\n      0x20\n      add\n        /* \"Voting.sol\":3811:3812  0 */\n      0x00\n        /* \"Voting.sol\":3792:3813  Voter(true, false, 0) */\n      dup2\n      mstore\n      pop\n        /* \"Voting.sol\":3767:3774  session */\n      0x01\n        /* \"Voting.sol\":3767:3781  session.voters */\n      dup1\n      add\n        /* \"Voting.sol\":3767:3789  session.voters[_voter] */\n      0x00\n        /* \"Voting.sol\":3782:3788  _voter */\n      dup4\n        /* \"Voting.sol\":3767:3789  session.voters[_voter] */\n      0xffffffffffffffffffffffffffffffffffffffff\n      and\n      0xffffffffffffffffffffffffffffffffffffffff\n      and\n      dup2\n      mstore\n      0x20\n      add\n      swap1\n      dup2\n      mstore\n      0x20\n      add\n      0x00\n      keccak256\n        /* \"Voting.sol\":3767:3813  session.voters[_voter] = Voter(true, false, 0) */\n      0x00\n      dup3\n      add\n      mload\n      dup2\n      0x00\n      add\n      exp(0x0100, 0x00)\n      dup2\n      sload\n      dup2\n      0xff\n      mul\n      not\n      and\n      swap1\n      dup4\n      iszero\n      iszero\n      mul\n      or\n      swap1\n      sstore\n      pop\n      0x20\n      dup3\n      add\n      mload\n      dup2\n      0x00\n      add\n      exp(0x0100, 0x01)\n      dup2\n      sload\n      dup2\n      0xff\n      mul\n      not\n      and\n      swap1\n      dup4\n      iszero\n      iszero\n      mul\n      or\n      swap1\n      sstore\n      pop\n      0x40\n      dup3\n      add\n      mload\n      dup2\n      0x01\n      add\n      sstore\n      swap1\n      pop\n      pop\n        /* \"Voting.sol\":3828:3851  VoterRegistered(_voter) */\n      0xb6be2187d059cc2a55fe29e0e503b566e1e0f8c8780096e185429350acffd3dd\n        /* \"Voting.sol\":3844:3850  _voter */\n      dup2\n        /* \"Voting.sol\":3828:3851  VoterRegistered(_voter) */\n      mload(0x40)\n      tag_164\n      swap2\n      swap1\n      tag_57\n      jump\t// in\n    tag_164:\n      mload(0x40)\n      dup1\n      swap2\n      sub\n      swap1\n      log1\n        /* \"Voting.sol\":3501:3858  function registerVoter(address _voter)... */\n      pop\n      jump\t// out\n        /* \"Voting.sol\":7509:7645  function getVoteOfVoter(address _voters) external view returns (uint256) {... */\n    tag_49:\n        /* \"Voting.sol\":7573:7580  uint256 */\n      0x00\n        /* \"Voting.sol\":7599:7606  session */\n      0x01\n        /* \"Voting.sol\":7599:7613  session.voters */\n      dup1\n      add\n        /* \"Voting.sol\":7599:7622  session.voters[_voters] */\n      0x00\n        /* \"Voting.sol\":7614:7621  _voters */\n      dup4\n        /* \"Voting.sol\":7599:7622  session.voters[_voters] */\n      0xffffffffffffffffffffffffffffffffffffffff\n      and\n      0xffffffffffffffffffffffffffffffffffffffff\n      and\n      dup2\n      mstore\n      0x20\n      add\n      swap1\n      dup2\n      mstore\n      0x20\n      add\n      0x00\n      keccak256\n        /* \"Voting.sol\":7599:7638  session.voters[_voters].votedProposalId */\n      0x01\n      add\n      sload\n        /* \"Voting.sol\":7592:7638  return session.voters[_voters].votedProposalId */\n      swap1\n      pop\n        /* \"Voting.sol\":7509:7645  function getVoteOfVoter(address _voters) external view returns (uint256) {... */\n      swap2\n      swap1\n      pop\n      jump\t// out\n        /* \"@openzeppelin/contracts/access/Ownable.sol\":1824:1925  function renounceOwnership() public virtual onlyOwner {... */\n    tag_53:\n        /* \"@openzeppelin/contracts/access/Ownable.sol\":1094:1107  _checkOwner() */\n      tag_167\n        /* \"@openzeppelin/contracts/access/Ownable.sol\":1094:1105  _checkOwner */\n      tag_101\n        /* \"@openzeppelin/contracts/access/Ownable.sol\":1094:1107  _checkOwner() */\n      jump\t// in\n    tag_167:\n        /* \"@openzeppelin/contracts/access/Ownable.sol\":1888:1918  _transferOwnership(address(0)) */\n      tag_169\n        /* \"@openzeppelin/contracts/access/Ownable.sol\":1915:1916  0 */\n      0x00\n        /* \"@openzeppelin/contracts/access/Ownable.sol\":1888:1906  _transferOwnership */\n      tag_170\n        /* \"@openzeppelin/contracts/access/Ownable.sol\":1888:1918  _transferOwnership(address(0)) */\n      jump\t// in\n    tag_169:\n        /* \"@openzeppelin/contracts/access/Ownable.sol\":1824:1925  function renounceOwnership() public virtual onlyOwner {... */\n      jump\t// out\n        /* \"@openzeppelin/contracts/access/Ownable.sol\":1201:1286  function owner() public view virtual returns (address) {... */\n    tag_55:\n        /* \"@openzeppelin/contracts/access/Ownable.sol\":1247:1254  address */\n      0x00\n        /* \"@openzeppelin/contracts/access/Ownable.sol\":1273:1279  _owner */\n      dup1\n      0x00\n      swap1\n      sload\n      swap1\n      0x0100\n      exp\n      swap1\n      div\n      0xffffffffffffffffffffffffffffffffffffffff\n      and\n        /* \"@openzeppelin/contracts/access/Ownable.sol\":1266:1279  return _owner */\n      swap1\n      pop\n        /* \"@openzeppelin/contracts/access/Ownable.sol\":1201:1286  function owner() public view virtual returns (address) {... */\n      swap1\n      jump\t// out\n        /* \"Voting.sol\":6810:6980  function getWinner()... */\n    tag_59:\n        /* \"Voting.sol\":6918:6925  uint256 */\n      0x00\n        /* \"Voting.sol\":2488:2495  session */\n      0x01\n        /* \"Voting.sol\":2488:2502  session.voters */\n      dup1\n      add\n        /* \"Voting.sol\":2488:2514  session.voters[msg.sender] */\n      0x00\n        /* \"Voting.sol\":2503:2513  msg.sender */\n      caller\n        /* \"Voting.sol\":2488:2514  session.voters[msg.sender] */\n      0xffffffffffffffffffffffffffffffffffffffff\n      and\n      0xffffffffffffffffffffffffffffffffffffffff\n      and\n      dup2\n      mstore\n      0x20\n      add\n      swap1\n      dup2\n      mstore\n      0x20\n      add\n      0x00\n      keccak256\n        /* \"Voting.sol\":2488:2527  session.voters[msg.sender].isRegistered */\n      0x00\n      add\n      0x00\n      swap1\n      sload\n      swap1\n      0x0100\n      exp\n      swap1\n      div\n      0xff\n      and\n        /* \"Voting.sol\":2483:2590  if (!session.voters[msg.sender].isRegistered) {... */\n      tag_173\n      jumpi\n        /* \"Voting.sol\":2568:2578  msg.sender */\n      caller\n        /* \"Voting.sol\":2550:2579  UnRegisteredVoter(msg.sender) */\n      mload(0x40)\n      0xaffa818a00000000000000000000000000000000000000000000000000000000\n      dup2\n      mstore\n      0x04\n      add\n      tag_174\n      swap2\n      swap1\n      tag_57\n      jump\t// in\n    tag_174:\n      mload(0x40)\n      dup1\n      swap2\n      sub\n      swap1\n      revert\n        /* \"Voting.sol\":2483:2590  if (!session.voters[msg.sender].isRegistered) {... */\n    tag_173:\n        /* \"Voting.sol\":3405:3445  _wrongPhase(WorkflowStatus.VotesTallied) */\n      tag_176\n        /* \"Voting.sol\":3417:3444  WorkflowStatus.VotesTallied */\n      0x05\n        /* \"Voting.sol\":3405:3416  _wrongPhase */\n      tag_114\n        /* \"Voting.sol\":3405:3445  _wrongPhase(WorkflowStatus.VotesTallied) */\n      jump\t// in\n    tag_176:\n        /* \"Voting.sol\":6948:6955  session */\n      0x01\n        /* \"Voting.sol\":6948:6973  session.winningProposalId */\n      0x04\n      add\n      sload\n        /* \"Voting.sol\":6941:6973  return session.winningProposalId */\n      swap1\n      pop\n        /* \"Voting.sol\":6810:6980  function getWinner()... */\n      swap1\n      jump\t// out\n        /* \"Voting.sol\":5180:5424  function startVoteSession() external onlyOwner registerProposalDone {... */\n    tag_62:\n        /* \"@openzeppelin/contracts/access/Ownable.sol\":1094:1107  _checkOwner() */\n      tag_179\n        /* \"@openzeppelin/contracts/access/Ownable.sol\":1094:1105  _checkOwner */\n      tag_101\n        /* \"@openzeppelin/contracts/access/Ownable.sol\":1094:1107  _checkOwner() */\n      jump\t// in\n    tag_179:\n        /* \"Voting.sol\":3073:3127  _wrongPhase(WorkflowStatus.ProposalsRegistrationEnded) */\n      tag_181\n        /* \"Voting.sol\":3085:3126  WorkflowStatus.ProposalsRegistrationEnded */\n      0x02\n        /* \"Voting.sol\":3073:3084  _wrongPhase */\n      tag_114\n        /* \"Voting.sol\":3073:3127  _wrongPhase(WorkflowStatus.ProposalsRegistrationEnded) */\n      jump\t// in\n    tag_181:\n        /* \"Voting.sol\":5258:5279  WorkflowStatus status */\n      0x00\n        /* \"Voting.sol\":5282:5289  session */\n      0x01\n        /* \"Voting.sol\":5282:5296  session.status */\n      0x00\n      add\n      0x00\n      swap1\n      sload\n      swap1\n      0x0100\n      exp\n      swap1\n      div\n      0xff\n      and\n        /* \"Voting.sol\":5258:5296  WorkflowStatus status = session.status */\n      swap1\n      pop\n        /* \"Voting.sol\":5323:5358  WorkflowStatus.VotingSessionStarted */\n      0x03\n        /* \"Voting.sol\":5306:5313  session */\n      0x01\n        /* \"Voting.sol\":5306:5320  session.status */\n      0x00\n      add\n      0x00\n        /* \"Voting.sol\":5306:5358  session.status = WorkflowStatus.VotingSessionStarted */\n      0x0100\n      exp\n      dup2\n      sload\n      dup2\n      0xff\n      mul\n      not\n      and\n      swap1\n      dup4\n      0x05\n      dup2\n      gt\n      iszero\n      tag_183\n      jumpi\n      tag_184\n      tag_105\n      jump\t// in\n    tag_184:\n    tag_183:\n      mul\n      or\n      swap1\n      sstore\n      pop\n        /* \"Voting.sol\":5373:5417  WorkflowStatusChange(status, session.status) */\n      0x0a97a4ee45751e2abf3e4fc8946939630b11b371ea8ae39ccdc3056e98f5cc3f\n        /* \"Voting.sol\":5394:5400  status */\n      dup2\n        /* \"Voting.sol\":5402:5409  session */\n      0x01\n        /* \"Voting.sol\":5402:5416  session.status */\n      0x00\n      add\n      0x00\n      swap1\n      sload\n      swap1\n      0x0100\n      exp\n      swap1\n      div\n      0xff\n      and\n        /* \"Voting.sol\":5373:5417  WorkflowStatusChange(status, session.status) */\n      mload(0x40)\n      tag_185\n      swap3\n      swap2\n      swap1\n      tag_109\n      jump\t// in\n    tag_185:\n      mload(0x40)\n      dup1\n      swap2\n      sub\n      swap1\n      log1\n        /* \"Voting.sol\":5248:5424  {... */\n      pop\n        /* \"Voting.sol\":5180:5424  function startVoteSession() external onlyOwner registerProposalDone {... */\n      jump\t// out\n        /* \"Voting.sol\":8180:8422  function resetVotes() external onlyOwner {... */\n    tag_64:\n        /* \"@openzeppelin/contracts/access/Ownable.sol\":1094:1107  _checkOwner() */\n      tag_187\n        /* \"@openzeppelin/contracts/access/Ownable.sol\":1094:1105  _checkOwner */\n      tag_101\n        /* \"@openzeppelin/contracts/access/Ownable.sol\":1094:1107  _checkOwner() */\n      jump\t// in\n    tag_187:\n        /* \"Voting.sol\":8231:8252  WorkflowStatus status */\n      0x00\n        /* \"Voting.sol\":8255:8262  session */\n      0x01\n        /* \"Voting.sol\":8255:8269  session.status */\n      0x00\n      add\n      0x00\n      swap1\n      sload\n      swap1\n      0x0100\n      exp\n      swap1\n      div\n      0xff\n      and\n        /* \"Voting.sol\":8231:8269  WorkflowStatus status = session.status */\n      swap1\n      pop\n        /* \"Voting.sol\":8296:8331  WorkflowStatus.VotingSessionStarted */\n      0x03\n        /* \"Voting.sol\":8279:8286  session */\n      0x01\n        /* \"Voting.sol\":8279:8293  session.status */\n      0x00\n      add\n      0x00\n        /* \"Voting.sol\":8279:8331  session.status = WorkflowStatus.VotingSessionStarted */\n      0x0100\n      exp\n      dup2\n      sload\n      dup2\n      0xff\n      mul\n      not\n      and\n      swap1\n      dup4\n      0x05\n      dup2\n      gt\n      iszero\n      tag_189\n      jumpi\n      tag_190\n      tag_105\n      jump\t// in\n    tag_190:\n    tag_189:\n      mul\n      or\n      swap1\n      sstore\n      pop\n        /* \"Voting.sol\":8342:8355  _resetVotes() */\n      tag_191\n        /* \"Voting.sol\":8342:8353  _resetVotes */\n      tag_192\n        /* \"Voting.sol\":8342:8355  _resetVotes() */\n      jump\t// in\n    tag_191:\n        /* \"Voting.sol\":8371:8415  WorkflowStatusChange(status, session.status) */\n      0x0a97a4ee45751e2abf3e4fc8946939630b11b371ea8ae39ccdc3056e98f5cc3f\n        /* \"Voting.sol\":8392:8398  status */\n      dup2\n        /* \"Voting.sol\":8400:8407  session */\n      0x01\n        /* \"Voting.sol\":8400:8414  session.status */\n      0x00\n      add\n      0x00\n      swap1\n      sload\n      swap1\n      0x0100\n      exp\n      swap1\n      div\n      0xff\n      and\n        /* \"Voting.sol\":8371:8415  WorkflowStatusChange(status, session.status) */\n      mload(0x40)\n      tag_193\n      swap3\n      swap2\n      swap1\n      tag_109\n      jump\t// in\n    tag_193:\n      mload(0x40)\n      dup1\n      swap2\n      sub\n      swap1\n      log1\n        /* \"Voting.sol\":8221:8422  {... */\n      pop\n        /* \"Voting.sol\":8180:8422  function resetVotes() external onlyOwner {... */\n      jump\t// out\n        /* \"Voting.sol\":7187:7503  function getAllProposals()... */\n    tag_66:\n        /* \"Voting.sol\":7280:7297  Proposal[] memory */\n      0x60\n        /* \"Voting.sol\":2488:2495  session */\n      0x01\n        /* \"Voting.sol\":2488:2502  session.voters */\n      dup1\n      add\n        /* \"Voting.sol\":2488:2514  session.voters[msg.sender] */\n      0x00\n        /* \"Voting.sol\":2503:2513  msg.sender */\n      caller\n        /* \"Voting.sol\":2488:2514  session.voters[msg.sender] */\n      0xffffffffffffffffffffffffffffffffffffffff\n      and\n      0xffffffffffffffffffffffffffffffffffffffff\n      and\n      dup2\n      mstore\n      0x20\n      add\n      swap1\n      dup2\n      mstore\n      0x20\n      add\n      0x00\n      keccak256\n        /* \"Voting.sol\":2488:2527  session.voters[msg.sender].isRegistered */\n      0x00\n      add\n      0x00\n      swap1\n      sload\n      swap1\n      0x0100\n      exp\n      swap1\n      div\n      0xff\n      and\n        /* \"Voting.sol\":2483:2590  if (!session.voters[msg.sender].isRegistered) {... */\n      tag_195\n      jumpi\n        /* \"Voting.sol\":2568:2578  msg.sender */\n      caller\n        /* \"Voting.sol\":2550:2579  UnRegisteredVoter(msg.sender) */\n      mload(0x40)\n      0xaffa818a00000000000000000000000000000000000000000000000000000000\n      dup2\n      mstore\n      0x04\n      add\n      tag_196\n      swap2\n      swap1\n      tag_57\n      jump\t// in\n    tag_196:\n      mload(0x40)\n      dup1\n      swap2\n      sub\n      swap1\n      revert\n        /* \"Voting.sol\":2483:2590  if (!session.voters[msg.sender].isRegistered) {... */\n    tag_195:\n        /* \"Voting.sol\":7352:7384  WorkflowStatus.RegisteringVoters */\n      0x00\n        /* \"Voting.sol\":7334:7384  session.status != WorkflowStatus.RegisteringVoters */\n      0x05\n      dup2\n      gt\n      iszero\n      tag_198\n      jumpi\n      tag_199\n      tag_105\n      jump\t// in\n    tag_199:\n    tag_198:\n        /* \"Voting.sol\":7334:7341  session */\n      0x01\n        /* \"Voting.sol\":7334:7348  session.status */\n      0x00\n      add\n      0x00\n      swap1\n      sload\n      swap1\n      0x0100\n      exp\n      swap1\n      div\n      0xff\n      and\n        /* \"Voting.sol\":7334:7384  session.status != WorkflowStatus.RegisteringVoters */\n      0x05\n      dup2\n      gt\n      iszero\n      tag_200\n      jumpi\n      tag_201\n      tag_105\n      jump\t// in\n    tag_201:\n    tag_200:\n      sub\n        /* \"Voting.sol\":7313:7462  require(... */\n      tag_202\n      jumpi\n      mload(0x40)\n      0x08c379a000000000000000000000000000000000000000000000000000000000\n      dup2\n      mstore\n      0x04\n      add\n      tag_203\n      swap1\n      tag_204\n      jump\t// in\n    tag_203:\n      mload(0x40)\n      dup1\n      swap2\n      sub\n      swap1\n      revert\n    tag_202:\n        /* \"Voting.sol\":7479:7486  session */\n      0x01\n        /* \"Voting.sol\":7479:7496  session.proposals */\n      0x03\n      add\n        /* \"Voting.sol\":7472:7496  return session.proposals */\n      dup1\n      sload\n      dup1\n      0x20\n      mul\n      0x20\n      add\n      mload(0x40)\n      swap1\n      dup2\n      add\n      0x40\n      mstore\n      dup1\n      swap3\n      swap2\n      swap1\n      dup2\n      dup2\n      mstore\n      0x20\n      add\n      0x00\n      swap1\n    tag_205:\n      dup3\n      dup3\n      lt\n      iszero\n      tag_206\n      jumpi\n      dup4\n      dup3\n      swap1\n      0x00\n      mstore\n      keccak256(0x00, 0x20)\n      swap1\n      0x02\n      mul\n      add\n      mload(0x40)\n      dup1\n      0x40\n      add\n      0x40\n      mstore\n      swap1\n      dup2\n      0x00\n      dup3\n      add\n      dup1\n      sload\n      tag_208\n      swap1\n      tag_209\n      jump\t// in\n    tag_208:\n      dup1\n      0x1f\n      add\n      0x20\n      dup1\n      swap2\n      div\n      mul\n      0x20\n      add\n      mload(0x40)\n      swap1\n      dup2\n      add\n      0x40\n      mstore\n      dup1\n      swap3\n      swap2\n      swap1\n      dup2\n      dup2\n      mstore\n      0x20\n      add\n      dup3\n      dup1\n      sload\n      tag_210\n      swap1\n      tag_209\n      jump\t// in\n    tag_210:\n      dup1\n      iszero\n      tag_211\n      jumpi\n      dup1\n      0x1f\n      lt\n      tag_212\n      jumpi\n      0x0100\n      dup1\n      dup4\n      sload\n      div\n      mul\n      dup4\n      mstore\n      swap2\n      0x20\n      add\n      swap2\n      jump(tag_211)\n    tag_212:\n      dup3\n      add\n      swap2\n      swap1\n      0x00\n      mstore\n      keccak256(0x00, 0x20)\n      swap1\n    tag_213:\n      dup2\n      sload\n      dup2\n      mstore\n      swap1\n      0x01\n      add\n      swap1\n      0x20\n      add\n      dup1\n      dup4\n      gt\n      tag_213\n      jumpi\n      dup3\n      swap1\n      sub\n      0x1f\n      and\n      dup3\n      add\n      swap2\n    tag_211:\n      pop\n      pop\n      pop\n      pop\n      pop\n      dup2\n      mstore\n      0x20\n      add\n      0x01\n      dup3\n      add\n      sload\n      dup2\n      mstore\n      pop\n      pop\n      dup2\n      mstore\n      0x20\n      add\n      swap1\n      0x01\n      add\n      swap1\n      jump(tag_205)\n    tag_206:\n      pop\n      pop\n      pop\n      pop\n      swap1\n      pop\n        /* \"Voting.sol\":7187:7503  function getAllProposals()... */\n      swap1\n      jump\t// out\n        /* \"Voting.sol\":3864:4093  function registerVoters(address[] memory _voters)... */\n    tag_72:\n        /* \"@openzeppelin/contracts/access/Ownable.sol\":1094:1107  _checkOwner() */\n      tag_215\n        /* \"@openzeppelin/contracts/access/Ownable.sol\":1094:1105  _checkOwner */\n      tag_101\n        /* \"@openzeppelin/contracts/access/Ownable.sol\":1094:1107  _checkOwner() */\n      jump\t// in\n    tag_215:\n        /* \"Voting.sol\":2839:2884  _wrongPhase(WorkflowStatus.RegisteringVoters) */\n      tag_217\n        /* \"Voting.sol\":2851:2883  WorkflowStatus.RegisteringVoters */\n      0x00\n        /* \"Voting.sol\":2839:2850  _wrongPhase */\n      tag_114\n        /* \"Voting.sol\":2839:2884  _wrongPhase(WorkflowStatus.RegisteringVoters) */\n      jump\t// in\n    tag_217:\n        /* \"Voting.sol\":3996:4005  uint256 i */\n      0x00\n        /* \"Voting.sol\":3991:4087  for (uint256 i = 0; i <= _voters.length; i++) {... */\n    tag_219:\n        /* \"Voting.sol\":4016:4023  _voters */\n      dup2\n        /* \"Voting.sol\":4016:4030  _voters.length */\n      mload\n        /* \"Voting.sol\":4011:4012  i */\n      dup2\n        /* \"Voting.sol\":4011:4030  i <= _voters.length */\n      gt\n        /* \"Voting.sol\":3991:4087  for (uint256 i = 0; i <= _voters.length; i++) {... */\n      tag_220\n      jumpi\n        /* \"Voting.sol\":4051:4076  registerVoter(_voters[i]) */\n      tag_222\n        /* \"Voting.sol\":4065:4072  _voters */\n      dup3\n        /* \"Voting.sol\":4073:4074  i */\n      dup3\n        /* \"Voting.sol\":4065:4075  _voters[i] */\n      dup2\n      mload\n      dup2\n      lt\n      tag_223\n      jumpi\n      tag_224\n      tag_93\n      jump\t// in\n    tag_224:\n    tag_223:\n      0x20\n      mul\n      0x20\n      add\n      add\n      mload\n        /* \"Voting.sol\":4051:4064  registerVoter */\n      tag_46\n        /* \"Voting.sol\":4051:4076  registerVoter(_voters[i]) */\n      jump\t// in\n    tag_222:\n        /* \"Voting.sol\":4032:4035  i++ */\n      dup1\n      dup1\n      tag_225\n      swap1\n      tag_96\n      jump\t// in\n    tag_225:\n      swap2\n      pop\n      pop\n        /* \"Voting.sol\":3991:4087  for (uint256 i = 0; i <= _voters.length; i++) {... */\n      jump(tag_219)\n    tag_220:\n      pop\n        /* \"Voting.sol\":3864:4093  function registerVoters(address[] memory _voters)... */\n      pop\n      jump\t// out\n        /* \"Voting.sol\":4533:4820  function endProposalRegistration()... */\n    tag_74:\n        /* \"@openzeppelin/contracts/access/Ownable.sol\":1094:1107  _checkOwner() */\n      tag_227\n        /* \"@openzeppelin/contracts/access/Ownable.sol\":1094:1105  _checkOwner */\n      tag_101\n        /* \"@openzeppelin/contracts/access/Ownable.sol\":1094:1107  _checkOwner() */\n      jump\t// in\n    tag_227:\n        /* \"Voting.sol\":2951:3007  _wrongPhase(WorkflowStatus.ProposalsRegistrationStarted) */\n      tag_229\n        /* \"Voting.sol\":2963:3006  WorkflowStatus.ProposalsRegistrationStarted */\n      0x01\n        /* \"Voting.sol\":2951:2962  _wrongPhase */\n      tag_114\n        /* \"Voting.sol\":2951:3007  _wrongPhase(WorkflowStatus.ProposalsRegistrationStarted) */\n      jump\t// in\n    tag_229:\n        /* \"Voting.sol\":4648:4669  WorkflowStatus status */\n      0x00\n        /* \"Voting.sol\":4672:4679  session */\n      0x01\n        /* \"Voting.sol\":4672:4686  session.status */\n      0x00\n      add\n      0x00\n      swap1\n      sload\n      swap1\n      0x0100\n      exp\n      swap1\n      div\n      0xff\n      and\n        /* \"Voting.sol\":4648:4686  WorkflowStatus status = session.status */\n      swap1\n      pop\n        /* \"Voting.sol\":4713:4754  WorkflowStatus.ProposalsRegistrationEnded */\n      0x02\n        /* \"Voting.sol\":4696:4703  session */\n      0x01\n        /* \"Voting.sol\":4696:4710  session.status */\n      0x00\n      add\n      0x00\n        /* \"Voting.sol\":4696:4754  session.status = WorkflowStatus.ProposalsRegistrationEnded */\n      0x0100\n      exp\n      dup2\n      sload\n      dup2\n      0xff\n      mul\n      not\n      and\n      swap1\n      dup4\n      0x05\n      dup2\n      gt\n      iszero\n      tag_231\n      jumpi\n      tag_232\n      tag_105\n      jump\t// in\n    tag_232:\n    tag_231:\n      mul\n      or\n      swap1\n      sstore\n      pop\n        /* \"Voting.sol\":4769:4813  WorkflowStatusChange(status, session.status) */\n      0x0a97a4ee45751e2abf3e4fc8946939630b11b371ea8ae39ccdc3056e98f5cc3f\n        /* \"Voting.sol\":4790:4796  status */\n      dup2\n        /* \"Voting.sol\":4798:4805  session */\n      0x01\n        /* \"Voting.sol\":4798:4812  session.status */\n      0x00\n      add\n      0x00\n      swap1\n      sload\n      swap1\n      0x0100\n      exp\n      swap1\n      div\n      0xff\n      and\n        /* \"Voting.sol\":4769:4813  WorkflowStatusChange(status, session.status) */\n      mload(0x40)\n      tag_233\n      swap3\n      swap2\n      swap1\n      tag_109\n      jump\t// in\n    tag_233:\n      mload(0x40)\n      dup1\n      swap2\n      sub\n      swap1\n      log1\n        /* \"Voting.sol\":4638:4820  {... */\n      pop\n        /* \"Voting.sol\":4533:4820  function endProposalRegistration()... */\n      jump\t// out\n        /* \"@openzeppelin/contracts/access/Ownable.sol\":2074:2272  function transferOwnership(address newOwner) public virtual onlyOwner {... */\n    tag_77:\n        /* \"@openzeppelin/contracts/access/Ownable.sol\":1094:1107  _checkOwner() */\n      tag_235\n        /* \"@openzeppelin/contracts/access/Ownable.sol\":1094:1105  _checkOwner */\n      tag_101\n        /* \"@openzeppelin/contracts/access/Ownable.sol\":1094:1107  _checkOwner() */\n      jump\t// in\n    tag_235:\n        /* \"@openzeppelin/contracts/access/Ownable.sol\":2182:2183  0 */\n      0x00\n        /* \"@openzeppelin/contracts/access/Ownable.sol\":2162:2184  newOwner != address(0) */\n      0xffffffffffffffffffffffffffffffffffffffff\n      and\n        /* \"@openzeppelin/contracts/access/Ownable.sol\":2162:2170  newOwner */\n      dup2\n        /* \"@openzeppelin/contracts/access/Ownable.sol\":2162:2184  newOwner != address(0) */\n      0xffffffffffffffffffffffffffffffffffffffff\n      and\n      sub\n        /* \"@openzeppelin/contracts/access/Ownable.sol\":2154:2227  require(newOwner != address(0), \"Ownable: new owner is the zero address\") */\n      tag_237\n      jumpi\n      mload(0x40)\n      0x08c379a000000000000000000000000000000000000000000000000000000000\n      dup2\n      mstore\n      0x04\n      add\n      tag_238\n      swap1\n      tag_239\n      jump\t// in\n    tag_238:\n      mload(0x40)\n      dup1\n      swap2\n      sub\n      swap1\n      revert\n    tag_237:\n        /* \"@openzeppelin/contracts/access/Ownable.sol\":2237:2265  _transferOwnership(newOwner) */\n      tag_240\n        /* \"@openzeppelin/contracts/access/Ownable.sol\":2256:2264  newOwner */\n      dup2\n        /* \"@openzeppelin/contracts/access/Ownable.sol\":2237:2255  _transferOwnership */\n      tag_170\n        /* \"@openzeppelin/contracts/access/Ownable.sol\":2237:2265  _transferOwnership(newOwner) */\n      jump\t// in\n    tag_240:\n        /* \"@openzeppelin/contracts/access/Ownable.sol\":2074:2272  function transferOwnership(address newOwner) public virtual onlyOwner {... */\n      pop\n      jump\t// out\n        /* \"Voting.sol\":5430:5667  function endVoteSession() external onlyOwner voteSessionActive {... */\n    tag_79:\n        /* \"@openzeppelin/contracts/access/Ownable.sol\":1094:1107  _checkOwner() */\n      tag_242\n        /* \"@openzeppelin/contracts/access/Ownable.sol\":1094:1105  _checkOwner */\n      tag_101\n        /* \"@openzeppelin/contracts/access/Ownable.sol\":1094:1107  _checkOwner() */\n      jump\t// in\n    tag_242:\n        /* \"Voting.sol\":3190:3238  _wrongPhase(WorkflowStatus.VotingSessionStarted) */\n      tag_244\n        /* \"Voting.sol\":3202:3237  WorkflowStatus.VotingSessionStarted */\n      0x03\n        /* \"Voting.sol\":3190:3201  _wrongPhase */\n      tag_114\n        /* \"Voting.sol\":3190:3238  _wrongPhase(WorkflowStatus.VotingSessionStarted) */\n      jump\t// in\n    tag_244:\n        /* \"Voting.sol\":5503:5524  WorkflowStatus status */\n      0x00\n        /* \"Voting.sol\":5527:5534  session */\n      0x01\n        /* \"Voting.sol\":5527:5541  session.status */\n      0x00\n      add\n      0x00\n      swap1\n      sload\n      swap1\n      0x0100\n      exp\n      swap1\n      div\n      0xff\n      and\n        /* \"Voting.sol\":5503:5541  WorkflowStatus status = session.status */\n      swap1\n      pop\n        /* \"Voting.sol\":5568:5601  WorkflowStatus.VotingSessionEnded */\n      0x04\n        /* \"Voting.sol\":5551:5558  session */\n      0x01\n        /* \"Voting.sol\":5551:5565  session.status */\n      0x00\n      add\n      0x00\n        /* \"Voting.sol\":5551:5601  session.status = WorkflowStatus.VotingSessionEnded */\n      0x0100\n      exp\n      dup2\n      sload\n      dup2\n      0xff\n      mul\n      not\n      and\n      swap1\n      dup4\n      0x05\n      dup2\n      gt\n      iszero\n      tag_246\n      jumpi\n      tag_247\n      tag_105\n      jump\t// in\n    tag_247:\n    tag_246:\n      mul\n      or\n      swap1\n      sstore\n      pop\n        /* \"Voting.sol\":5616:5660  WorkflowStatusChange(status, session.status) */\n      0x0a97a4ee45751e2abf3e4fc8946939630b11b371ea8ae39ccdc3056e98f5cc3f\n        /* \"Voting.sol\":5637:5643  status */\n      dup2\n        /* \"Voting.sol\":5645:5652  session */\n      0x01\n        /* \"Voting.sol\":5645:5659  session.status */\n      0x00\n      add\n      0x00\n      swap1\n      sload\n      swap1\n      0x0100\n      exp\n      swap1\n      div\n      0xff\n      and\n        /* \"Voting.sol\":5616:5660  WorkflowStatusChange(status, session.status) */\n      mload(0x40)\n      tag_248\n      swap3\n      swap2\n      swap1\n      tag_109\n      jump\t// in\n    tag_248:\n      mload(0x40)\n      dup1\n      swap2\n      sub\n      swap1\n      log1\n        /* \"Voting.sol\":5493:5667  {... */\n      pop\n        /* \"Voting.sol\":5430:5667  function endVoteSession() external onlyOwner voteSessionActive {... */\n      jump\t// out\n        /* \"Voting.sol\":7676:7918  function resetSession() external onlyOwner {... */\n    tag_81:\n        /* \"@openzeppelin/contracts/access/Ownable.sol\":1094:1107  _checkOwner() */\n      tag_250\n        /* \"@openzeppelin/contracts/access/Ownable.sol\":1094:1105  _checkOwner */\n      tag_101\n        /* \"@openzeppelin/contracts/access/Ownable.sol\":1094:1107  _checkOwner() */\n      jump\t// in\n    tag_250:\n        /* \"Voting.sol\":7729:7750  WorkflowStatus status */\n      0x00\n        /* \"Voting.sol\":7753:7760  session */\n      0x01\n        /* \"Voting.sol\":7753:7767  session.status */\n      0x00\n      add\n      0x00\n      swap1\n      sload\n      swap1\n      0x0100\n      exp\n      swap1\n      div\n      0xff\n      and\n        /* \"Voting.sol\":7729:7767  WorkflowStatus status = session.status */\n      swap1\n      pop\n        /* \"Voting.sol\":7794:7826  WorkflowStatus.RegisteringVoters */\n      0x00\n        /* \"Voting.sol\":7777:7784  session */\n      0x01\n        /* \"Voting.sol\":7777:7791  session.status */\n      0x00\n      add\n      0x00\n        /* \"Voting.sol\":7777:7826  session.status = WorkflowStatus.RegisteringVoters */\n      0x0100\n      exp\n      dup2\n      sload\n      dup2\n      0xff\n      mul\n      not\n      and\n      swap1\n      dup4\n      0x05\n      dup2\n      gt\n      iszero\n      tag_252\n      jumpi\n      tag_253\n      tag_105\n      jump\t// in\n    tag_253:\n    tag_252:\n      mul\n      or\n      swap1\n      sstore\n      pop\n        /* \"Voting.sol\":7837:7851  _resetVoters() */\n      tag_254\n        /* \"Voting.sol\":7837:7849  _resetVoters */\n      tag_255\n        /* \"Voting.sol\":7837:7851  _resetVoters() */\n      jump\t// in\n    tag_254:\n        /* \"Voting.sol\":7867:7911  WorkflowStatusChange(status, session.status) */\n      0x0a97a4ee45751e2abf3e4fc8946939630b11b371ea8ae39ccdc3056e98f5cc3f\n        /* \"Voting.sol\":7888:7894  status */\n      dup2\n        /* \"Voting.sol\":7896:7903  session */\n      0x01\n        /* \"Voting.sol\":7896:7910  session.status */\n      0x00\n      add\n      0x00\n      swap1\n      sload\n      swap1\n      0x0100\n      exp\n      swap1\n      div\n      0xff\n      and\n        /* \"Voting.sol\":7867:7911  WorkflowStatusChange(status, session.status) */\n      mload(0x40)\n      tag_256\n      swap3\n      swap2\n      swap1\n      tag_109\n      jump\t// in\n    tag_256:\n      mload(0x40)\n      dup1\n      swap2\n      sub\n      swap1\n      log1\n        /* \"Voting.sol\":7719:7918  {... */\n      pop\n        /* \"Voting.sol\":7676:7918  function resetSession() external onlyOwner {... */\n      jump\t// out\n        /* \"@openzeppelin/contracts/access/Ownable.sol\":1359:1489  function _checkOwner() internal view virtual {... */\n    tag_101:\n        /* \"@openzeppelin/contracts/access/Ownable.sol\":1433:1445  _msgSender() */\n      tag_258\n        /* \"@openzeppelin/contracts/access/Ownable.sol\":1433:1443  _msgSender */\n      tag_259\n        /* \"@openzeppelin/contracts/access/Ownable.sol\":1433:1445  _msgSender() */\n      jump\t// in\n    tag_258:\n        /* \"@openzeppelin/contracts/access/Ownable.sol\":1422:1445  owner() == _msgSender() */\n      0xffffffffffffffffffffffffffffffffffffffff\n      and\n        /* \"@openzeppelin/contracts/access/Ownable.sol\":1422:1429  owner() */\n      tag_260\n        /* \"@openzeppelin/contracts/access/Ownable.sol\":1422:1427  owner */\n      tag_55\n        /* \"@openzeppelin/contracts/access/Ownable.sol\":1422:1429  owner() */\n      jump\t// in\n    tag_260:\n        /* \"@openzeppelin/contracts/access/Ownable.sol\":1422:1445  owner() == _msgSender() */\n      0xffffffffffffffffffffffffffffffffffffffff\n      and\n      eq\n        /* \"@openzeppelin/contracts/access/Ownable.sol\":1414:1482  require(owner() == _msgSender(), \"Ownable: caller is not the owner\") */\n      tag_261\n      jumpi\n      mload(0x40)\n      0x08c379a000000000000000000000000000000000000000000000000000000000\n      dup2\n      mstore\n      0x04\n      add\n      tag_262\n      swap1\n      tag_263\n      jump\t// in\n    tag_262:\n      mload(0x40)\n      dup1\n      swap2\n      sub\n      swap1\n      revert\n    tag_261:\n        /* \"@openzeppelin/contracts/access/Ownable.sol\":1359:1489  function _checkOwner() internal view virtual {... */\n      jump\t// out\n        /* \"Voting.sol\":1480:1779  function _resetProposals() internal onlyOwner {... */\n    tag_107:\n        /* \"@openzeppelin/contracts/access/Ownable.sol\":1094:1107  _checkOwner() */\n      tag_265\n        /* \"@openzeppelin/contracts/access/Ownable.sol\":1094:1105  _checkOwner */\n      tag_101\n        /* \"@openzeppelin/contracts/access/Ownable.sol\":1094:1107  _checkOwner() */\n      jump\t// in\n    tag_265:\n        /* \"Voting.sol\":1543:1550  session */\n      0x01\n        /* \"Voting.sol\":1543:1560  session.proposals */\n      0x03\n      add\n      0x00\n        /* \"Voting.sol\":1536:1560  delete session.proposals */\n      tag_267\n      swap2\n      swap1\n      tag_268\n      jump\t// in\n    tag_267:\n        /* \"Voting.sol\":1575:1584  uint256 i */\n      0x00\n        /* \"Voting.sol\":1570:1773  for (uint256 i = 0; i < session.idxVoters.length; i++) {... */\n    tag_269:\n        /* \"Voting.sol\":1594:1601  session */\n      0x01\n        /* \"Voting.sol\":1594:1611  session.idxVoters */\n      0x02\n      add\n        /* \"Voting.sol\":1594:1618  session.idxVoters.length */\n      dup1\n      sload\n      swap1\n      pop\n        /* \"Voting.sol\":1590:1591  i */\n      dup2\n        /* \"Voting.sol\":1590:1618  i < session.idxVoters.length */\n      lt\n        /* \"Voting.sol\":1570:1773  for (uint256 i = 0; i < session.idxVoters.length; i++) {... */\n      iszero\n      tag_270\n      jumpi\n        /* \"Voting.sol\":1687:1692  false */\n      0x00\n        /* \"Voting.sol\":1639:1646  session */\n      0x01\n        /* \"Voting.sol\":1639:1653  session.voters */\n      dup1\n      add\n        /* \"Voting.sol\":1639:1675  session.voters[session.idxVoters[i]] */\n      0x00\n        /* \"Voting.sol\":1654:1661  session */\n      0x01\n        /* \"Voting.sol\":1654:1671  session.idxVoters */\n      0x02\n      add\n        /* \"Voting.sol\":1672:1673  i */\n      dup5\n        /* \"Voting.sol\":1654:1674  session.idxVoters[i] */\n      dup2\n      sload\n      dup2\n      lt\n      tag_272\n      jumpi\n      tag_273\n      tag_93\n      jump\t// in\n    tag_273:\n    tag_272:\n      swap1\n      0x00\n      mstore\n      keccak256(0x00, 0x20)\n      add\n      0x00\n      swap1\n      sload\n      swap1\n      0x0100\n      exp\n      swap1\n      div\n      0xffffffffffffffffffffffffffffffffffffffff\n      and\n        /* \"Voting.sol\":1639:1675  session.voters[session.idxVoters[i]] */\n      0xffffffffffffffffffffffffffffffffffffffff\n      and\n      0xffffffffffffffffffffffffffffffffffffffff\n      and\n      dup2\n      mstore\n      0x20\n      add\n      swap1\n      dup2\n      mstore\n      0x20\n      add\n      0x00\n      keccak256\n        /* \"Voting.sol\":1639:1684  session.voters[session.idxVoters[i]].hasVoted */\n      0x00\n      add\n      0x01\n        /* \"Voting.sol\":1639:1692  session.voters[session.idxVoters[i]].hasVoted = false */\n      0x0100\n      exp\n      dup2\n      sload\n      dup2\n      0xff\n      mul\n      not\n      and\n      swap1\n      dup4\n      iszero\n      iszero\n      mul\n      or\n      swap1\n      sstore\n      pop\n        /* \"Voting.sol\":1761:1762  0 */\n      0x00\n        /* \"Voting.sol\":1706:1713  session */\n      0x01\n        /* \"Voting.sol\":1706:1720  session.voters */\n      dup1\n      add\n        /* \"Voting.sol\":1706:1742  session.voters[session.idxVoters[i]] */\n      0x00\n        /* \"Voting.sol\":1721:1728  session */\n      0x01\n        /* \"Voting.sol\":1721:1738  session.idxVoters */\n      0x02\n      add\n        /* \"Voting.sol\":1739:1740  i */\n      dup5\n        /* \"Voting.sol\":1721:1741  session.idxVoters[i] */\n      dup2\n      sload\n      dup2\n      lt\n      tag_275\n      jumpi\n      tag_276\n      tag_93\n      jump\t// in\n    tag_276:\n    tag_275:\n      swap1\n      0x00\n      mstore\n      keccak256(0x00, 0x20)\n      add\n      0x00\n      swap1\n      sload\n      swap1\n      0x0100\n      exp\n      swap1\n      div\n      0xffffffffffffffffffffffffffffffffffffffff\n      and\n        /* \"Voting.sol\":1706:1742  session.voters[session.idxVoters[i]] */\n      0xffffffffffffffffffffffffffffffffffffffff\n      and\n      0xffffffffffffffffffffffffffffffffffffffff\n      and\n      dup2\n      mstore\n      0x20\n      add\n      swap1\n      dup2\n      mstore\n      0x20\n      add\n      0x00\n      keccak256\n        /* \"Voting.sol\":1706:1758  session.voters[session.idxVoters[i]].votedProposalId */\n      0x01\n      add\n        /* \"Voting.sol\":1706:1762  session.voters[session.idxVoters[i]].votedProposalId = 0 */\n      dup2\n      swap1\n      sstore\n      pop\n        /* \"Voting.sol\":1620:1623  i++ */\n      dup1\n      dup1\n      tag_278\n      swap1\n      tag_96\n      jump\t// in\n    tag_278:\n      swap2\n      pop\n      pop\n        /* \"Voting.sol\":1570:1773  for (uint256 i = 0; i < session.idxVoters.length; i++) {... */\n      jump(tag_269)\n    tag_270:\n      pop\n        /* \"Voting.sol\":1480:1779  function _resetProposals() internal onlyOwner {... */\n      jump\t// out\n        /* \"Voting.sol\":2613:2792  function _wrongPhase(WorkflowStatus _status) internal view {... */\n    tag_114:\n        /* \"Voting.sol\":2704:2711  _status */\n      dup1\n        /* \"Voting.sol\":2686:2711  session.status != _status */\n      0x05\n      dup2\n      gt\n      iszero\n      tag_280\n      jumpi\n      tag_281\n      tag_105\n      jump\t// in\n    tag_281:\n    tag_280:\n        /* \"Voting.sol\":2686:2693  session */\n      0x01\n        /* \"Voting.sol\":2686:2700  session.status */\n      0x00\n      add\n      0x00\n      swap1\n      sload\n      swap1\n      0x0100\n      exp\n      swap1\n      div\n      0xff\n      and\n        /* \"Voting.sol\":2686:2711  session.status != _status */\n      0x05\n      dup2\n      gt\n      iszero\n      tag_282\n      jumpi\n      tag_283\n      tag_105\n      jump\t// in\n    tag_283:\n    tag_282:\n      eq\n        /* \"Voting.sol\":2682:2786  if (session.status != _status) {... */\n      tag_284\n      jumpi\n        /* \"Voting.sol\":2751:2758  _status */\n      dup1\n        /* \"Voting.sol\":2760:2767  session */\n      0x01\n        /* \"Voting.sol\":2760:2774  session.status */\n      0x00\n      add\n      0x00\n      swap1\n      sload\n      swap1\n      0x0100\n      exp\n      swap1\n      div\n      0xff\n      and\n        /* \"Voting.sol\":2734:2775  WrongPhaseStatus(_status, session.status) */\n      mload(0x40)\n      0x586a712d00000000000000000000000000000000000000000000000000000000\n      dup2\n      mstore\n      0x04\n      add\n      tag_285\n      swap3\n      swap2\n      swap1\n      tag_109\n      jump\t// in\n    tag_285:\n      mload(0x40)\n      dup1\n      swap2\n      sub\n      swap1\n      revert\n        /* \"Voting.sol\":2682:2786  if (session.status != _status) {... */\n    tag_284:\n        /* \"Voting.sol\":2613:2792  function _wrongPhase(WorkflowStatus _status) internal view {... */\n      pop\n      jump\t// out\n        /* \"@openzeppelin/contracts/access/Ownable.sol\":2426:2613  function _transferOwnership(address newOwner) internal virtual {... */\n    tag_170:\n        /* \"@openzeppelin/contracts/access/Ownable.sol\":2499:2515  address oldOwner */\n      0x00\n        /* \"@openzeppelin/contracts/access/Ownable.sol\":2518:2524  _owner */\n      dup1\n      0x00\n      swap1\n      sload\n      swap1\n      0x0100\n      exp\n      swap1\n      div\n      0xffffffffffffffffffffffffffffffffffffffff\n      and\n        /* \"@openzeppelin/contracts/access/Ownable.sol\":2499:2524  address oldOwner = _owner */\n      swap1\n      pop\n        /* \"@openzeppelin/contracts/access/Ownable.sol\":2543:2551  newOwner */\n      dup2\n        /* \"@openzeppelin/contracts/access/Ownable.sol\":2534:2540  _owner */\n      0x00\n      dup1\n        /* \"@openzeppelin/contracts/access/Ownable.sol\":2534:2551  _owner = newOwner */\n      0x0100\n      exp\n      dup2\n      sload\n      dup2\n      0xffffffffffffffffffffffffffffffffffffffff\n      mul\n      not\n      and\n      swap1\n      dup4\n      0xffffffffffffffffffffffffffffffffffffffff\n      and\n      mul\n      or\n      swap1\n      sstore\n      pop\n        /* \"@openzeppelin/contracts/access/Ownable.sol\":2597:2605  newOwner */\n      dup2\n        /* \"@openzeppelin/contracts/access/Ownable.sol\":2566:2606  OwnershipTransferred(oldOwner, newOwner) */\n      0xffffffffffffffffffffffffffffffffffffffff\n      and\n        /* \"@openzeppelin/contracts/access/Ownable.sol\":2587:2595  oldOwner */\n      dup2\n        /* \"@openzeppelin/contracts/access/Ownable.sol\":2566:2606  OwnershipTransferred(oldOwner, newOwner) */\n      0xffffffffffffffffffffffffffffffffffffffff\n      and\n      0x8be0079c531659141344cd1fd0a4f28419497f9722a3daafe3b4186f6b6457e0\n      mload(0x40)\n      mload(0x40)\n      dup1\n      swap2\n      sub\n      swap1\n      log3\n        /* \"@openzeppelin/contracts/access/Ownable.sol\":2489:2613  {... */\n      pop\n        /* \"@openzeppelin/contracts/access/Ownable.sol\":2426:2613  function _transferOwnership(address newOwner) internal virtual {... */\n      pop\n      jump\t// out\n        /* \"Voting.sol\":2025:2409  function _resetVotes() internal onlyOwner {... */\n    tag_192:\n        /* \"@openzeppelin/contracts/access/Ownable.sol\":1094:1107  _checkOwner() */\n      tag_288\n        /* \"@openzeppelin/contracts/access/Ownable.sol\":1094:1105  _checkOwner */\n      tag_101\n        /* \"@openzeppelin/contracts/access/Ownable.sol\":1094:1107  _checkOwner() */\n      jump\t// in\n    tag_288:\n        /* \"Voting.sol\":2082:2091  uint256 i */\n      0x00\n        /* \"Voting.sol\":2077:2280  for (uint256 i = 0; i < session.idxVoters.length; i++) {... */\n    tag_290:\n        /* \"Voting.sol\":2101:2108  session */\n      0x01\n        /* \"Voting.sol\":2101:2118  session.idxVoters */\n      0x02\n      add\n        /* \"Voting.sol\":2101:2125  session.idxVoters.length */\n      dup1\n      sload\n      swap1\n      pop\n        /* \"Voting.sol\":2097:2098  i */\n      dup2\n        /* \"Voting.sol\":2097:2125  i < session.idxVoters.length */\n      lt\n        /* \"Voting.sol\":2077:2280  for (uint256 i = 0; i < session.idxVoters.length; i++) {... */\n      iszero\n      tag_291\n      jumpi\n        /* \"Voting.sol\":2194:2199  false */\n      0x00\n        /* \"Voting.sol\":2146:2153  session */\n      0x01\n        /* \"Voting.sol\":2146:2160  session.voters */\n      dup1\n      add\n        /* \"Voting.sol\":2146:2182  session.voters[session.idxVoters[i]] */\n      0x00\n        /* \"Voting.sol\":2161:2168  session */\n      0x01\n        /* \"Voting.sol\":2161:2178  session.idxVoters */\n      0x02\n      add\n        /* \"Voting.sol\":2179:2180  i */\n      dup5\n        /* \"Voting.sol\":2161:2181  session.idxVoters[i] */\n      dup2\n      sload\n      dup2\n      lt\n      tag_293\n      jumpi\n      tag_294\n      tag_93\n      jump\t// in\n    tag_294:\n    tag_293:\n      swap1\n      0x00\n      mstore\n      keccak256(0x00, 0x20)\n      add\n      0x00\n      swap1\n      sload\n      swap1\n      0x0100\n      exp\n      swap1\n      div\n      0xffffffffffffffffffffffffffffffffffffffff\n      and\n        /* \"Voting.sol\":2146:2182  session.voters[session.idxVoters[i]] */\n      0xffffffffffffffffffffffffffffffffffffffff\n      and\n      0xffffffffffffffffffffffffffffffffffffffff\n      and\n      dup2\n      mstore\n      0x20\n      add\n      swap1\n      dup2\n      mstore\n      0x20\n      add\n      0x00\n      keccak256\n        /* \"Voting.sol\":2146:2191  session.voters[session.idxVoters[i]].hasVoted */\n      0x00\n      add\n      0x01\n        /* \"Voting.sol\":2146:2199  session.voters[session.idxVoters[i]].hasVoted = false */\n      0x0100\n      exp\n      dup2\n      sload\n      dup2\n      0xff\n      mul\n      not\n      and\n      swap1\n      dup4\n      iszero\n      iszero\n      mul\n      or\n      swap1\n      sstore\n      pop\n        /* \"Voting.sol\":2268:2269  0 */\n      0x00\n        /* \"Voting.sol\":2213:2220  session */\n      0x01\n        /* \"Voting.sol\":2213:2227  session.voters */\n      dup1\n      add\n        /* \"Voting.sol\":2213:2249  session.voters[session.idxVoters[i]] */\n      0x00\n        /* \"Voting.sol\":2228:2235  session */\n      0x01\n        /* \"Voting.sol\":2228:2245  session.idxVoters */\n      0x02\n      add\n        /* \"Voting.sol\":2246:2247  i */\n      dup5\n        /* \"Voting.sol\":2228:2248  session.idxVoters[i] */\n      dup2\n      sload\n      dup2\n      lt\n      tag_296\n      jumpi\n      tag_297\n      tag_93\n      jump\t// in\n    tag_297:\n    tag_296:\n      swap1\n      0x00\n      mstore\n      keccak256(0x00, 0x20)\n      add\n      0x00\n      swap1\n      sload\n      swap1\n      0x0100\n      exp\n      swap1\n      div\n      0xffffffffffffffffffffffffffffffffffffffff\n      and\n        /* \"Voting.sol\":2213:2249  session.voters[session.idxVoters[i]] */\n      0xffffffffffffffffffffffffffffffffffffffff\n      and\n      0xffffffffffffffffffffffffffffffffffffffff\n      and\n      dup2\n      mstore\n      0x20\n      add\n      swap1\n      dup2\n      mstore\n      0x20\n      add\n      0x00\n      keccak256\n        /* \"Voting.sol\":2213:2265  session.voters[session.idxVoters[i]].votedProposalId */\n      0x01\n      add\n        /* \"Voting.sol\":2213:2269  session.voters[session.idxVoters[i]].votedProposalId = 0 */\n      dup2\n      swap1\n      sstore\n      pop\n        /* \"Voting.sol\":2127:2130  i++ */\n      dup1\n      dup1\n      tag_299\n      swap1\n      tag_96\n      jump\t// in\n    tag_299:\n      swap2\n      pop\n      pop\n        /* \"Voting.sol\":2077:2280  for (uint256 i = 0; i < session.idxVoters.length; i++) {... */\n      jump(tag_290)\n    tag_291:\n      pop\n        /* \"Voting.sol\":2294:2303  uint256 j */\n      0x00\n        /* \"Voting.sol\":2289:2403  for (uint256 j = 0; j < session.proposals.length; j++) {... */\n    tag_300:\n        /* \"Voting.sol\":2313:2320  session */\n      0x01\n        /* \"Voting.sol\":2313:2330  session.proposals */\n      0x03\n      add\n        /* \"Voting.sol\":2313:2337  session.proposals.length */\n      dup1\n      sload\n      swap1\n      pop\n        /* \"Voting.sol\":2309:2310  j */\n      dup2\n        /* \"Voting.sol\":2309:2337  j < session.proposals.length */\n      lt\n        /* \"Voting.sol\":2289:2403  for (uint256 j = 0; j < session.proposals.length; j++) {... */\n      iszero\n      tag_301\n      jumpi\n        /* \"Voting.sol\":2391:2392  0 */\n      0x00\n        /* \"Voting.sol\":2358:2365  session */\n      0x01\n        /* \"Voting.sol\":2358:2375  session.proposals */\n      0x03\n      add\n        /* \"Voting.sol\":2376:2377  j */\n      dup3\n        /* \"Voting.sol\":2358:2378  session.proposals[j] */\n      dup2\n      sload\n      dup2\n      lt\n      tag_303\n      jumpi\n      tag_304\n      tag_93\n      jump\t// in\n    tag_304:\n    tag_303:\n      swap1\n      0x00\n      mstore\n      keccak256(0x00, 0x20)\n      swap1\n      0x02\n      mul\n      add\n        /* \"Voting.sol\":2358:2388  session.proposals[j].voteCount */\n      0x01\n      add\n        /* \"Voting.sol\":2358:2392  session.proposals[j].voteCount = 0 */\n      dup2\n      swap1\n      sstore\n      pop\n        /* \"Voting.sol\":2339:2342  j++ */\n      dup1\n      dup1\n      tag_306\n      swap1\n      tag_96\n      jump\t// in\n    tag_306:\n      swap2\n      pop\n      pop\n        /* \"Voting.sol\":2289:2403  for (uint256 j = 0; j < session.proposals.length; j++) {... */\n      jump(tag_300)\n    tag_301:\n      pop\n        /* \"Voting.sol\":2025:2409  function _resetVotes() internal onlyOwner {... */\n      jump\t// out\n        /* \"Voting.sol\":1785:2019  function _resetVoters() internal onlyOwner {... */\n    tag_255:\n        /* \"@openzeppelin/contracts/access/Ownable.sol\":1094:1107  _checkOwner() */\n      tag_308\n        /* \"@openzeppelin/contracts/access/Ownable.sol\":1094:1105  _checkOwner */\n      tag_101\n        /* \"@openzeppelin/contracts/access/Ownable.sol\":1094:1107  _checkOwner() */\n      jump\t// in\n    tag_308:\n        /* \"Voting.sol\":1845:1852  session */\n      0x01\n        /* \"Voting.sol\":1845:1862  session.proposals */\n      0x03\n      add\n      0x00\n        /* \"Voting.sol\":1838:1862  delete session.proposals */\n      tag_310\n      swap2\n      swap1\n      tag_268\n      jump\t// in\n    tag_310:\n        /* \"Voting.sol\":1877:1886  uint256 i */\n      0x00\n        /* \"Voting.sol\":1872:2013  for (uint256 i = 0; i < session.idxVoters.length; i++) {... */\n    tag_311:\n        /* \"Voting.sol\":1896:1903  session */\n      0x01\n        /* \"Voting.sol\":1896:1913  session.idxVoters */\n      0x02\n      add\n        /* \"Voting.sol\":1896:1920  session.idxVoters.length */\n      dup1\n      sload\n      swap1\n      pop\n        /* \"Voting.sol\":1892:1893  i */\n      dup2\n        /* \"Voting.sol\":1892:1920  i < session.idxVoters.length */\n      lt\n        /* \"Voting.sol\":1872:2013  for (uint256 i = 0; i < session.idxVoters.length; i++) {... */\n      iszero\n      tag_312\n      jumpi\n        /* \"Voting.sol\":1980:2002  Voter(false, false, 0) */\n      mload(0x40)\n      dup1\n      0x60\n      add\n      0x40\n      mstore\n      dup1\n        /* \"Voting.sol\":1986:1991  false */\n      0x00\n        /* \"Voting.sol\":1980:2002  Voter(false, false, 0) */\n      iszero\n      iszero\n      dup2\n      mstore\n      0x20\n      add\n        /* \"Voting.sol\":1993:1998  false */\n      0x00\n        /* \"Voting.sol\":1980:2002  Voter(false, false, 0) */\n      iszero\n      iszero\n      dup2\n      mstore\n      0x20\n      add\n        /* \"Voting.sol\":2000:2001  0 */\n      0x00\n        /* \"Voting.sol\":1980:2002  Voter(false, false, 0) */\n      dup2\n      mstore\n      pop\n        /* \"Voting.sol\":1941:1948  session */\n      0x01\n        /* \"Voting.sol\":1941:1955  session.voters */\n      dup1\n      add\n        /* \"Voting.sol\":1941:1977  session.voters[session.idxVoters[i]] */\n      0x00\n        /* \"Voting.sol\":1956:1963  session */\n      0x01\n        /* \"Voting.sol\":1956:1973  session.idxVoters */\n      0x02\n      add\n        /* \"Voting.sol\":1974:1975  i */\n      dup5\n        /* \"Voting.sol\":1956:1976  session.idxVoters[i] */\n      dup2\n      sload\n      dup2\n      lt\n      tag_314\n      jumpi\n      tag_315\n      tag_93\n      jump\t// in\n    tag_315:\n    tag_314:\n      swap1\n      0x00\n      mstore\n      keccak256(0x00, 0x20)\n      add\n      0x00\n      swap1\n      sload\n      swap1\n      0x0100\n      exp\n      swap1\n      div\n      0xffffffffffffffffffffffffffffffffffffffff\n      and\n        /* \"Voting.sol\":1941:1977  session.voters[session.idxVoters[i]] */\n      0xffffffffffffffffffffffffffffffffffffffff\n      and\n      0xffffffffffffffffffffffffffffffffffffffff\n      and\n      dup2\n      mstore\n      0x20\n      add\n      swap1\n      dup2\n      mstore\n      0x20\n      add\n      0x00\n      keccak256\n        /* \"Voting.sol\":1941:2002  session.voters[session.idxVoters[i]] = Voter(false, false, 0) */\n      0x00\n      dup3\n      add\n      mload\n      dup2\n      0x00\n      add\n      exp(0x0100, 0x00)\n      dup2\n      sload\n      dup2\n      0xff\n      mul\n      not\n      and\n      swap1\n      dup4\n      iszero\n      iszero\n      mul\n      or\n      swap1\n      sstore\n      pop\n      0x20\n      dup3\n      add\n      mload\n      dup2\n      0x00\n      add\n      exp(0x0100, 0x01)\n      dup2\n      sload\n      dup2\n      0xff\n      mul\n      not\n      and\n      swap1\n      dup4\n      iszero\n      iszero\n      mul\n      or\n      swap1\n      sstore\n      pop\n      0x40\n      dup3\n      add\n      mload\n      dup2\n      0x01\n      add\n      sstore\n      swap1\n      pop\n      pop\n        /* \"Voting.sol\":1922:1925  i++ */\n      dup1\n      dup1\n      tag_317\n      swap1\n      tag_96\n      jump\t// in\n    tag_317:\n      swap2\n      pop\n      pop\n        /* \"Voting.sol\":1872:2013  for (uint256 i = 0; i < session.idxVoters.length; i++) {... */\n      jump(tag_311)\n    tag_312:\n      pop\n        /* \"Voting.sol\":1785:2019  function _resetVoters() internal onlyOwner {... */\n      jump\t// out\n        /* \"@openzeppelin/contracts/utils/Context.sol\":640:736  function _msgSender() internal view virtual returns (address) {... */\n    tag_259:\n        /* \"@openzeppelin/contracts/utils/Context.sol\":693:700  address */\n      0x00\n        /* \"@openzeppelin/contracts/utils/Context.sol\":719:729  msg.sender */\n      caller\n        /* \"@openzeppelin/contracts/utils/Context.sol\":712:729  return msg.sender */\n      swap1\n      pop\n        /* \"@openzeppelin/contracts/utils/Context.sol\":640:736  function _msgSender() internal view virtual returns (address) {... */\n      swap1\n      jump\t// out\n    tag_268:\n      pop\n      dup1\n      sload\n      0x00\n      dup3\n      sstore\n      0x02\n      mul\n      swap1\n      0x00\n      mstore\n      keccak256(0x00, 0x20)\n      swap1\n      dup2\n      add\n      swap1\n      tag_320\n      swap2\n      swap1\n      tag_321\n      jump\t// in\n    tag_320:\n      pop\n      jump\t// out\n    tag_321:\n    tag_322:\n      dup1\n      dup3\n      gt\n      iszero\n      tag_323\n      jumpi\n      0x00\n      dup1\n      dup3\n      add\n      0x00\n      tag_324\n      swap2\n      swap1\n      tag_325\n      jump\t// in\n    tag_324:\n      0x01\n      dup3\n      add\n      0x00\n      swap1\n      sstore\n      pop\n      0x02\n      add\n      jump(tag_322)\n    tag_323:\n      pop\n      swap1\n      jump\t// out\n    tag_325:\n      pop\n      dup1\n      sload\n      tag_326\n      swap1\n      tag_209\n      jump\t// in\n    tag_326:\n      0x00\n      dup3\n      sstore\n      dup1\n      0x1f\n      lt\n      tag_328\n      jumpi\n      pop\n      jump(tag_327)\n    tag_328:\n      0x1f\n      add\n      0x20\n      swap1\n      div\n      swap1\n      0x00\n      mstore\n      keccak256(0x00, 0x20)\n      swap1\n      dup2\n      add\n      swap1\n      tag_329\n      swap2\n      swap1\n      tag_330\n      jump\t// in\n    tag_329:\n    tag_327:\n      pop\n      jump\t// out\n    tag_330:\n    tag_331:\n      dup1\n      dup3\n      gt\n      iszero\n      tag_332\n      jumpi\n      0x00\n      dup2\n      0x00\n      swap1\n      sstore\n      pop\n      0x01\n      add\n      jump(tag_331)\n    tag_332:\n      pop\n      swap1\n      jump\t// out\n        /* \"#utility.yul\":7:82   */\n    tag_333:\n        /* \"#utility.yul\":40:46   */\n      0x00\n        /* \"#utility.yul\":73:75   */\n      0x40\n        /* \"#utility.yul\":67:76   */\n      mload\n        /* \"#utility.yul\":57:76   */\n      swap1\n      pop\n        /* \"#utility.yul\":7:82   */\n      swap1\n      jump\t// out\n        /* \"#utility.yul\":88:205   */\n    tag_334:\n        /* \"#utility.yul\":197:198   */\n      0x00\n        /* \"#utility.yul\":194:195   */\n      dup1\n        /* \"#utility.yul\":187:199   */\n      revert\n        /* \"#utility.yul\":211:328   */\n    tag_335:\n        /* \"#utility.yul\":320:321   */\n      0x00\n        /* \"#utility.yul\":317:318   */\n      dup1\n        /* \"#utility.yul\":310:322   */\n      revert\n        /* \"#utility.yul\":334:411   */\n    tag_336:\n        /* \"#utility.yul\":371:378   */\n      0x00\n        /* \"#utility.yul\":400:405   */\n      dup2\n        /* \"#utility.yul\":389:405   */\n      swap1\n      pop\n        /* \"#utility.yul\":334:411   */\n      swap2\n      swap1\n      pop\n      jump\t// out\n        /* \"#utility.yul\":417:539   */\n    tag_337:\n        /* \"#utility.yul\":490:514   */\n      tag_412\n        /* \"#utility.yul\":508:513   */\n      dup2\n        /* \"#utility.yul\":490:514   */\n      tag_336\n      jump\t// in\n    tag_412:\n        /* \"#utility.yul\":483:488   */\n      dup2\n        /* \"#utility.yul\":480:515   */\n      eq\n        /* \"#utility.yul\":470:533   */\n      tag_413\n      jumpi\n        /* \"#utility.yul\":529:530   */\n      0x00\n        /* \"#utility.yul\":526:527   */\n      dup1\n        /* \"#utility.yul\":519:531   */\n      revert\n        /* \"#utility.yul\":470:533   */\n    tag_413:\n        /* \"#utility.yul\":417:539   */\n      pop\n      jump\t// out\n        /* \"#utility.yul\":545:684   */\n    tag_338:\n        /* \"#utility.yul\":591:596   */\n      0x00\n        /* \"#utility.yul\":629:635   */\n      dup2\n        /* \"#utility.yul\":616:636   */\n      calldataload\n        /* \"#utility.yul\":607:636   */\n      swap1\n      pop\n        /* \"#utility.yul\":645:678   */\n      tag_415\n        /* \"#utility.yul\":672:677   */\n      dup2\n        /* \"#utility.yul\":645:678   */\n      tag_337\n      jump\t// in\n    tag_415:\n        /* \"#utility.yul\":545:684   */\n      swap3\n      swap2\n      pop\n      pop\n      jump\t// out\n        /* \"#utility.yul\":690:1019   */\n    tag_27:\n        /* \"#utility.yul\":749:755   */\n      0x00\n        /* \"#utility.yul\":798:800   */\n      0x20\n        /* \"#utility.yul\":786:795   */\n      dup3\n        /* \"#utility.yul\":777:784   */\n      dup5\n        /* \"#utility.yul\":773:796   */\n      sub\n        /* \"#utility.yul\":769:801   */\n      slt\n        /* \"#utility.yul\":766:885   */\n      iszero\n      tag_417\n      jumpi\n        /* \"#utility.yul\":804:883   */\n      tag_418\n      tag_334\n      jump\t// in\n    tag_418:\n        /* \"#utility.yul\":766:885   */\n    tag_417:\n        /* \"#utility.yul\":924:925   */\n      0x00\n        /* \"#utility.yul\":949:1002   */\n      tag_419\n        /* \"#utility.yul\":994:1001   */\n      dup5\n        /* \"#utility.yul\":985:991   */\n      dup3\n        /* \"#utility.yul\":974:983   */\n      dup6\n        /* \"#utility.yul\":970:992   */\n      add\n        /* \"#utility.yul\":949:1002   */\n      tag_338\n      jump\t// in\n    tag_419:\n        /* \"#utility.yul\":939:1002   */\n      swap2\n      pop\n        /* \"#utility.yul\":895:1012   */\n      pop\n        /* \"#utility.yul\":690:1019   */\n      swap3\n      swap2\n      pop\n      pop\n      jump\t// out\n        /* \"#utility.yul\":1025:1142   */\n    tag_339:\n        /* \"#utility.yul\":1134:1135   */\n      0x00\n        /* \"#utility.yul\":1131:1132   */\n      dup1\n        /* \"#utility.yul\":1124:1136   */\n      revert\n        /* \"#utility.yul\":1148:1265   */\n    tag_340:\n        /* \"#utility.yul\":1257:1258   */\n      0x00\n        /* \"#utility.yul\":1254:1255   */\n      dup1\n        /* \"#utility.yul\":1247:1259   */\n      revert\n        /* \"#utility.yul\":1271:1373   */\n    tag_341:\n        /* \"#utility.yul\":1312:1318   */\n      0x00\n        /* \"#utility.yul\":1363:1365   */\n      0x1f\n        /* \"#utility.yul\":1359:1366   */\n      not\n        /* \"#utility.yul\":1354:1356   */\n      0x1f\n        /* \"#utility.yul\":1347:1352   */\n      dup4\n        /* \"#utility.yul\":1343:1357   */\n      add\n        /* \"#utility.yul\":1339:1367   */\n      and\n        /* \"#utility.yul\":1329:1367   */\n      swap1\n      pop\n        /* \"#utility.yul\":1271:1373   */\n      swap2\n      swap1\n      pop\n      jump\t// out\n        /* \"#utility.yul\":1379:1559   */\n    tag_342:\n        /* \"#utility.yul\":1427:1504   */\n      0x4e487b7100000000000000000000000000000000000000000000000000000000\n        /* \"#utility.yul\":1424:1425   */\n      0x00\n        /* \"#utility.yul\":1417:1505   */\n      mstore\n        /* \"#utility.yul\":1524:1528   */\n      0x41\n        /* \"#utility.yul\":1521:1522   */\n      0x04\n        /* \"#utility.yul\":1514:1529   */\n      mstore\n        /* \"#utility.yul\":1548:1552   */\n      0x24\n        /* \"#utility.yul\":1545:1546   */\n      0x00\n        /* \"#utility.yul\":1538:1553   */\n      revert\n        /* \"#utility.yul\":1565:1846   */\n    tag_343:\n        /* \"#utility.yul\":1648:1675   */\n      tag_425\n        /* \"#utility.yul\":1670:1674   */\n      dup3\n        /* \"#utility.yul\":1648:1675   */\n      tag_341\n      jump\t// in\n    tag_425:\n        /* \"#utility.yul\":1640:1646   */\n      dup2\n        /* \"#utility.yul\":1636:1676   */\n      add\n        /* \"#utility.yul\":1778:1784   */\n      dup2\n        /* \"#utility.yul\":1766:1776   */\n      dup2\n        /* \"#utility.yul\":1763:1785   */\n      lt\n        /* \"#utility.yul\":1742:1760   */\n      0xffffffffffffffff\n        /* \"#utility.yul\":1730:1740   */\n      dup3\n        /* \"#utility.yul\":1727:1761   */\n      gt\n        /* \"#utility.yul\":1724:1786   */\n      or\n        /* \"#utility.yul\":1721:1809   */\n      iszero\n      tag_426\n      jumpi\n        /* \"#utility.yul\":1789:1807   */\n      tag_427\n      tag_342\n      jump\t// in\n    tag_427:\n        /* \"#utility.yul\":1721:1809   */\n    tag_426:\n        /* \"#utility.yul\":1829:1839   */\n      dup1\n        /* \"#utility.yul\":1825:1827   */\n      0x40\n        /* \"#utility.yul\":1818:1840   */\n      mstore\n        /* \"#utility.yul\":1608:1846   */\n      pop\n        /* \"#utility.yul\":1565:1846   */\n      pop\n      pop\n      jump\t// out\n        /* \"#utility.yul\":1852:1981   */\n    tag_344:\n        /* \"#utility.yul\":1886:1892   */\n      0x00\n        /* \"#utility.yul\":1913:1933   */\n      tag_429\n      tag_333\n      jump\t// in\n    tag_429:\n        /* \"#utility.yul\":1903:1933   */\n      swap1\n      pop\n        /* \"#utility.yul\":1942:1975   */\n      tag_430\n        /* \"#utility.yul\":1970:1974   */\n      dup3\n        /* \"#utility.yul\":1962:1968   */\n      dup3\n        /* \"#utility.yul\":1942:1975   */\n      tag_343\n      jump\t// in\n    tag_430:\n        /* \"#utility.yul\":1852:1981   */\n      swap2\n      swap1\n      pop\n      jump\t// out\n        /* \"#utility.yul\":1987:2295   */\n    tag_345:\n        /* \"#utility.yul\":2049:2053   */\n      0x00\n        /* \"#utility.yul\":2139:2157   */\n      0xffffffffffffffff\n        /* \"#utility.yul\":2131:2137   */\n      dup3\n        /* \"#utility.yul\":2128:2158   */\n      gt\n        /* \"#utility.yul\":2125:2181   */\n      iszero\n      tag_432\n      jumpi\n        /* \"#utility.yul\":2161:2179   */\n      tag_433\n      tag_342\n      jump\t// in\n    tag_433:\n        /* \"#utility.yul\":2125:2181   */\n    tag_432:\n        /* \"#utility.yul\":2199:2228   */\n      tag_434\n        /* \"#utility.yul\":2221:2227   */\n      dup3\n        /* \"#utility.yul\":2199:2228   */\n      tag_341\n      jump\t// in\n    tag_434:\n        /* \"#utility.yul\":2191:2228   */\n      swap1\n      pop\n        /* \"#utility.yul\":2283:2287   */\n      0x20\n        /* \"#utility.yul\":2277:2281   */\n      dup2\n        /* \"#utility.yul\":2273:2288   */\n      add\n        /* \"#utility.yul\":2265:2288   */\n      swap1\n      pop\n        /* \"#utility.yul\":1987:2295   */\n      swap2\n      swap1\n      pop\n      jump\t// out\n        /* \"#utility.yul\":2301:2447   */\n    tag_346:\n        /* \"#utility.yul\":2398:2404   */\n      dup3\n        /* \"#utility.yul\":2393:2396   */\n      dup2\n        /* \"#utility.yul\":2388:2391   */\n      dup4\n        /* \"#utility.yul\":2375:2405   */\n      calldatacopy\n        /* \"#utility.yul\":2439:2440   */\n      0x00\n        /* \"#utility.yul\":2430:2436   */\n      dup4\n        /* \"#utility.yul\":2425:2428   */\n      dup4\n        /* \"#utility.yul\":2421:2437   */\n      add\n        /* \"#utility.yul\":2414:2441   */\n      mstore\n        /* \"#utility.yul\":2301:2447   */\n      pop\n      pop\n      pop\n      jump\t// out\n        /* \"#utility.yul\":2453:2878   */\n    tag_347:\n        /* \"#utility.yul\":2531:2536   */\n      0x00\n        /* \"#utility.yul\":2556:2622   */\n      tag_437\n        /* \"#utility.yul\":2572:2621   */\n      tag_438\n        /* \"#utility.yul\":2614:2620   */\n      dup5\n        /* \"#utility.yul\":2572:2621   */\n      tag_345\n      jump\t// in\n    tag_438:\n        /* \"#utility.yul\":2556:2622   */\n      tag_344\n      jump\t// in\n    tag_437:\n        /* \"#utility.yul\":2547:2622   */\n      swap1\n      pop\n        /* \"#utility.yul\":2645:2651   */\n      dup3\n        /* \"#utility.yul\":2638:2643   */\n      dup2\n        /* \"#utility.yul\":2631:2652   */\n      mstore\n        /* \"#utility.yul\":2683:2687   */\n      0x20\n        /* \"#utility.yul\":2676:2681   */\n      dup2\n        /* \"#utility.yul\":2672:2688   */\n      add\n        /* \"#utility.yul\":2721:2724   */\n      dup5\n        /* \"#utility.yul\":2712:2718   */\n      dup5\n        /* \"#utility.yul\":2707:2710   */\n      dup5\n        /* \"#utility.yul\":2703:2719   */\n      add\n        /* \"#utility.yul\":2700:2725   */\n      gt\n        /* \"#utility.yul\":2697:2809   */\n      iszero\n      tag_439\n      jumpi\n        /* \"#utility.yul\":2728:2807   */\n      tag_440\n      tag_340\n      jump\t// in\n    tag_440:\n        /* \"#utility.yul\":2697:2809   */\n    tag_439:\n        /* \"#utility.yul\":2818:2872   */\n      tag_441\n        /* \"#utility.yul\":2865:2871   */\n      dup5\n        /* \"#utility.yul\":2860:2863   */\n      dup3\n        /* \"#utility.yul\":2855:2858   */\n      dup6\n        /* \"#utility.yul\":2818:2872   */\n      tag_346\n      jump\t// in\n    tag_441:\n        /* \"#utility.yul\":2537:2878   */\n      pop\n        /* \"#utility.yul\":2453:2878   */\n      swap4\n      swap3\n      pop\n      pop\n      pop\n      jump\t// out\n        /* \"#utility.yul\":2898:3238   */\n    tag_348:\n        /* \"#utility.yul\":2954:2959   */\n      0x00\n        /* \"#utility.yul\":3003:3006   */\n      dup3\n        /* \"#utility.yul\":2996:3000   */\n      0x1f\n        /* \"#utility.yul\":2988:2994   */\n      dup4\n        /* \"#utility.yul\":2984:3001   */\n      add\n        /* \"#utility.yul\":2980:3007   */\n      slt\n        /* \"#utility.yul\":2970:3092   */\n      tag_443\n      jumpi\n        /* \"#utility.yul\":3011:3090   */\n      tag_444\n      tag_339\n      jump\t// in\n    tag_444:\n        /* \"#utility.yul\":2970:3092   */\n    tag_443:\n        /* \"#utility.yul\":3128:3134   */\n      dup2\n        /* \"#utility.yul\":3115:3135   */\n      calldataload\n        /* \"#utility.yul\":3153:3232   */\n      tag_445\n        /* \"#utility.yul\":3228:3231   */\n      dup5\n        /* \"#utility.yul\":3220:3226   */\n      dup3\n        /* \"#utility.yul\":3213:3217   */\n      0x20\n        /* \"#utility.yul\":3205:3211   */\n      dup7\n        /* \"#utility.yul\":3201:3218   */\n      add\n        /* \"#utility.yul\":3153:3232   */\n      tag_347\n      jump\t// in\n    tag_445:\n        /* \"#utility.yul\":3144:3232   */\n      swap2\n      pop\n        /* \"#utility.yul\":2960:3238   */\n      pop\n        /* \"#utility.yul\":2898:3238   */\n      swap3\n      swap2\n      pop\n      pop\n      jump\t// out\n        /* \"#utility.yul\":3244:3753   */\n    tag_35:\n        /* \"#utility.yul\":3313:3319   */\n      0x00\n        /* \"#utility.yul\":3362:3364   */\n      0x20\n        /* \"#utility.yul\":3350:3359   */\n      dup3\n        /* \"#utility.yul\":3341:3348   */\n      dup5\n        /* \"#utility.yul\":3337:3360   */\n      sub\n        /* \"#utility.yul\":3333:3365   */\n      slt\n        /* \"#utility.yul\":3330:3449   */\n      iszero\n      tag_447\n      jumpi\n        /* \"#utility.yul\":3368:3447   */\n      tag_448\n      tag_334\n      jump\t// in\n    tag_448:\n        /* \"#utility.yul\":3330:3449   */\n    tag_447:\n        /* \"#utility.yul\":3516:3517   */\n      0x00\n        /* \"#utility.yul\":3505:3514   */\n      dup3\n        /* \"#utility.yul\":3501:3518   */\n      add\n        /* \"#utility.yul\":3488:3519   */\n      calldataload\n        /* \"#utility.yul\":3546:3564   */\n      0xffffffffffffffff\n        /* \"#utility.yul\":3538:3544   */\n      dup2\n        /* \"#utility.yul\":3535:3565   */\n      gt\n        /* \"#utility.yul\":3532:3649   */\n      iszero\n      tag_449\n      jumpi\n        /* \"#utility.yul\":3568:3647   */\n      tag_450\n      tag_335\n      jump\t// in\n    tag_450:\n        /* \"#utility.yul\":3532:3649   */\n    tag_449:\n        /* \"#utility.yul\":3673:3736   */\n      tag_451\n        /* \"#utility.yul\":3728:3735   */\n      dup5\n        /* \"#utility.yul\":3719:3725   */\n      dup3\n        /* \"#utility.yul\":3708:3717   */\n      dup6\n        /* \"#utility.yul\":3704:3726   */\n      add\n        /* \"#utility.yul\":3673:3736   */\n      tag_348\n      jump\t// in\n    tag_451:\n        /* \"#utility.yul\":3663:3736   */\n      swap2\n      pop\n        /* \"#utility.yul\":3459:3746   */\n      pop\n        /* \"#utility.yul\":3244:3753   */\n      swap3\n      swap2\n      pop\n      pop\n      jump\t// out\n        /* \"#utility.yul\":3759:3873   */\n    tag_349:\n        /* \"#utility.yul\":3826:3832   */\n      0x00\n        /* \"#utility.yul\":3860:3865   */\n      dup2\n        /* \"#utility.yul\":3854:3866   */\n      mload\n        /* \"#utility.yul\":3844:3866   */\n      swap1\n      pop\n        /* \"#utility.yul\":3759:3873   */\n      swap2\n      swap1\n      pop\n      jump\t// out\n        /* \"#utility.yul\":3879:4063   */\n    tag_350:\n        /* \"#utility.yul\":3978:3989   */\n      0x00\n        /* \"#utility.yul\":4012:4018   */\n      dup3\n        /* \"#utility.yul\":4007:4010   */\n      dup3\n        /* \"#utility.yul\":4000:4019   */\n      mstore\n        /* \"#utility.yul\":4052:4056   */\n      0x20\n        /* \"#utility.yul\":4047:4050   */\n      dup3\n        /* \"#utility.yul\":4043:4057   */\n      add\n        /* \"#utility.yul\":4028:4057   */\n      swap1\n      pop\n        /* \"#utility.yul\":3879:4063   */\n      swap3\n      swap2\n      pop\n      pop\n      jump\t// out\n        /* \"#utility.yul\":4069:4201   */\n    tag_351:\n        /* \"#utility.yul\":4136:4140   */\n      0x00\n        /* \"#utility.yul\":4159:4162   */\n      dup2\n        /* \"#utility.yul\":4151:4162   */\n      swap1\n      pop\n        /* \"#utility.yul\":4189:4193   */\n      0x20\n        /* \"#utility.yul\":4184:4187   */\n      dup3\n        /* \"#utility.yul\":4180:4194   */\n      add\n        /* \"#utility.yul\":4172:4194   */\n      swap1\n      pop\n        /* \"#utility.yul\":4069:4201   */\n      swap2\n      swap1\n      pop\n      jump\t// out\n        /* \"#utility.yul\":4207:4333   */\n    tag_352:\n        /* \"#utility.yul\":4244:4251   */\n      0x00\n        /* \"#utility.yul\":4284:4326   */\n      0xffffffffffffffffffffffffffffffffffffffff\n        /* \"#utility.yul\":4277:4282   */\n      dup3\n        /* \"#utility.yul\":4273:4327   */\n      and\n        /* \"#utility.yul\":4262:4327   */\n      swap1\n      pop\n        /* \"#utility.yul\":4207:4333   */\n      swap2\n      swap1\n      pop\n      jump\t// out\n        /* \"#utility.yul\":4339:4435   */\n    tag_353:\n        /* \"#utility.yul\":4376:4383   */\n      0x00\n        /* \"#utility.yul\":4405:4429   */\n      tag_457\n        /* \"#utility.yul\":4423:4428   */\n      dup3\n        /* \"#utility.yul\":4405:4429   */\n      tag_352\n      jump\t// in\n    tag_457:\n        /* \"#utility.yul\":4394:4429   */\n      swap1\n      pop\n        /* \"#utility.yul\":4339:4435   */\n      swap2\n      swap1\n      pop\n      jump\t// out\n        /* \"#utility.yul\":4441:4549   */\n    tag_354:\n        /* \"#utility.yul\":4518:4542   */\n      tag_459\n        /* \"#utility.yul\":4536:4541   */\n      dup2\n        /* \"#utility.yul\":4518:4542   */\n      tag_353\n      jump\t// in\n    tag_459:\n        /* \"#utility.yul\":4513:4516   */\n      dup3\n        /* \"#utility.yul\":4506:4543   */\n      mstore\n        /* \"#utility.yul\":4441:4549   */\n      pop\n      pop\n      jump\t// out\n        /* \"#utility.yul\":4555:4734   */\n    tag_355:\n        /* \"#utility.yul\":4624:4634   */\n      0x00\n        /* \"#utility.yul\":4645:4691   */\n      tag_461\n        /* \"#utility.yul\":4687:4690   */\n      dup4\n        /* \"#utility.yul\":4679:4685   */\n      dup4\n        /* \"#utility.yul\":4645:4691   */\n      tag_354\n      jump\t// in\n    tag_461:\n        /* \"#utility.yul\":4723:4727   */\n      0x20\n        /* \"#utility.yul\":4718:4721   */\n      dup4\n        /* \"#utility.yul\":4714:4728   */\n      add\n        /* \"#utility.yul\":4700:4728   */\n      swap1\n      pop\n        /* \"#utility.yul\":4555:4734   */\n      swap3\n      swap2\n      pop\n      pop\n      jump\t// out\n        /* \"#utility.yul\":4740:4853   */\n    tag_356:\n        /* \"#utility.yul\":4810:4814   */\n      0x00\n        /* \"#utility.yul\":4842:4846   */\n      0x20\n        /* \"#utility.yul\":4837:4840   */\n      dup3\n        /* \"#utility.yul\":4833:4847   */\n      add\n        /* \"#utility.yul\":4825:4847   */\n      swap1\n      pop\n        /* \"#utility.yul\":4740:4853   */\n      swap2\n      swap1\n      pop\n      jump\t// out\n        /* \"#utility.yul\":4889:5621   */\n    tag_357:\n        /* \"#utility.yul\":5008:5011   */\n      0x00\n        /* \"#utility.yul\":5037:5091   */\n      tag_464\n        /* \"#utility.yul\":5085:5090   */\n      dup3\n        /* \"#utility.yul\":5037:5091   */\n      tag_349\n      jump\t// in\n    tag_464:\n        /* \"#utility.yul\":5107:5193   */\n      tag_465\n        /* \"#utility.yul\":5186:5192   */\n      dup2\n        /* \"#utility.yul\":5181:5184   */\n      dup6\n        /* \"#utility.yul\":5107:5193   */\n      tag_350\n      jump\t// in\n    tag_465:\n        /* \"#utility.yul\":5100:5193   */\n      swap4\n      pop\n        /* \"#utility.yul\":5217:5273   */\n      tag_466\n        /* \"#utility.yul\":5267:5272   */\n      dup4\n        /* \"#utility.yul\":5217:5273   */\n      tag_351\n      jump\t// in\n    tag_466:\n        /* \"#utility.yul\":5296:5303   */\n      dup1\n        /* \"#utility.yul\":5327:5328   */\n      0x00\n        /* \"#utility.yul\":5312:5596   */\n    tag_467:\n        /* \"#utility.yul\":5337:5343   */\n      dup4\n        /* \"#utility.yul\":5334:5335   */\n      dup2\n        /* \"#utility.yul\":5331:5344   */\n      lt\n        /* \"#utility.yul\":5312:5596   */\n      iszero\n      tag_469\n      jumpi\n        /* \"#utility.yul\":5413:5419   */\n      dup2\n        /* \"#utility.yul\":5407:5420   */\n      mload\n        /* \"#utility.yul\":5440:5503   */\n      tag_470\n        /* \"#utility.yul\":5499:5502   */\n      dup9\n        /* \"#utility.yul\":5484:5497   */\n      dup3\n        /* \"#utility.yul\":5440:5503   */\n      tag_355\n      jump\t// in\n    tag_470:\n        /* \"#utility.yul\":5433:5503   */\n      swap8\n      pop\n        /* \"#utility.yul\":5526:5586   */\n      tag_471\n        /* \"#utility.yul\":5579:5585   */\n      dup4\n        /* \"#utility.yul\":5526:5586   */\n      tag_356\n      jump\t// in\n    tag_471:\n        /* \"#utility.yul\":5516:5586   */\n      swap3\n      pop\n        /* \"#utility.yul\":5372:5596   */\n      pop\n        /* \"#utility.yul\":5359:5360   */\n      0x01\n        /* \"#utility.yul\":5356:5357   */\n      dup2\n        /* \"#utility.yul\":5352:5361   */\n      add\n        /* \"#utility.yul\":5347:5361   */\n      swap1\n      pop\n        /* \"#utility.yul\":5312:5596   */\n      jump(tag_467)\n    tag_469:\n        /* \"#utility.yul\":5316:5330   */\n      pop\n        /* \"#utility.yul\":5612:5615   */\n      dup6\n        /* \"#utility.yul\":5605:5615   */\n      swap4\n      pop\n        /* \"#utility.yul\":5013:5621   */\n      pop\n      pop\n      pop\n        /* \"#utility.yul\":4889:5621   */\n      swap3\n      swap2\n      pop\n      pop\n      jump\t// out\n        /* \"#utility.yul\":5627:6000   */\n    tag_40:\n        /* \"#utility.yul\":5770:5774   */\n      0x00\n        /* \"#utility.yul\":5808:5810   */\n      0x20\n        /* \"#utility.yul\":5797:5806   */\n      dup3\n        /* \"#utility.yul\":5793:5811   */\n      add\n        /* \"#utility.yul\":5785:5811   */\n      swap1\n      pop\n        /* \"#utility.yul\":5857:5866   */\n      dup2\n        /* \"#utility.yul\":5851:5855   */\n      dup2\n        /* \"#utility.yul\":5847:5867   */\n      sub\n        /* \"#utility.yul\":5843:5844   */\n      0x00\n        /* \"#utility.yul\":5832:5841   */\n      dup4\n        /* \"#utility.yul\":5828:5845   */\n      add\n        /* \"#utility.yul\":5821:5868   */\n      mstore\n        /* \"#utility.yul\":5885:5993   */\n      tag_473\n        /* \"#utility.yul\":5988:5992   */\n      dup2\n        /* \"#utility.yul\":5979:5985   */\n      dup5\n        /* \"#utility.yul\":5885:5993   */\n      tag_357\n      jump\t// in\n    tag_473:\n        /* \"#utility.yul\":5877:5993   */\n      swap1\n      pop\n        /* \"#utility.yul\":5627:6000   */\n      swap3\n      swap2\n      pop\n      pop\n      jump\t// out\n        /* \"#utility.yul\":6006:6128   */\n    tag_358:\n        /* \"#utility.yul\":6079:6103   */\n      tag_475\n        /* \"#utility.yul\":6097:6102   */\n      dup2\n        /* \"#utility.yul\":6079:6103   */\n      tag_353\n      jump\t// in\n    tag_475:\n        /* \"#utility.yul\":6072:6077   */\n      dup2\n        /* \"#utility.yul\":6069:6104   */\n      eq\n        /* \"#utility.yul\":6059:6122   */\n      tag_476\n      jumpi\n        /* \"#utility.yul\":6118:6119   */\n      0x00\n        /* \"#utility.yul\":6115:6116   */\n      dup1\n        /* \"#utility.yul\":6108:6120   */\n      revert\n        /* \"#utility.yul\":6059:6122   */\n    tag_476:\n        /* \"#utility.yul\":6006:6128   */\n      pop\n      jump\t// out\n        /* \"#utility.yul\":6134:6273   */\n    tag_359:\n        /* \"#utility.yul\":6180:6185   */\n      0x00\n        /* \"#utility.yul\":6218:6224   */\n      dup2\n        /* \"#utility.yul\":6205:6225   */\n      calldataload\n        /* \"#utility.yul\":6196:6225   */\n      swap1\n      pop\n        /* \"#utility.yul\":6234:6267   */\n      tag_478\n        /* \"#utility.yul\":6261:6266   */\n      dup2\n        /* \"#utility.yul\":6234:6267   */\n      tag_358\n      jump\t// in\n    tag_478:\n        /* \"#utility.yul\":6134:6273   */\n      swap3\n      swap2\n      pop\n      pop\n      jump\t// out\n        /* \"#utility.yul\":6279:6608   */\n    tag_45:\n        /* \"#utility.yul\":6338:6344   */\n      0x00\n        /* \"#utility.yul\":6387:6389   */\n      0x20\n        /* \"#utility.yul\":6375:6384   */\n      dup3\n        /* \"#utility.yul\":6366:6373   */\n      dup5\n        /* \"#utility.yul\":6362:6385   */\n      sub\n        /* \"#utility.yul\":6358:6390   */\n      slt\n        /* \"#utility.yul\":6355:6474   */\n      iszero\n      tag_480\n      jumpi\n        /* \"#utility.yul\":6393:6472   */\n      tag_481\n      tag_334\n      jump\t// in\n    tag_481:\n        /* \"#utility.yul\":6355:6474   */\n    tag_480:\n        /* \"#utility.yul\":6513:6514   */\n      0x00\n        /* \"#utility.yul\":6538:6591   */\n      tag_482\n        /* \"#utility.yul\":6583:6590   */\n      dup5\n        /* \"#utility.yul\":6574:6580   */\n      dup3\n        /* \"#utility.yul\":6563:6572   */\n      dup6\n        /* \"#utility.yul\":6559:6581   */\n      add\n        /* \"#utility.yul\":6538:6591   */\n      tag_359\n      jump\t// in\n    tag_482:\n        /* \"#utility.yul\":6528:6591   */\n      swap2\n      pop\n        /* \"#utility.yul\":6484:6601   */\n      pop\n        /* \"#utility.yul\":6279:6608   */\n      swap3\n      swap2\n      pop\n      pop\n      jump\t// out\n        /* \"#utility.yul\":6614:6732   */\n    tag_360:\n        /* \"#utility.yul\":6701:6725   */\n      tag_484\n        /* \"#utility.yul\":6719:6724   */\n      dup2\n        /* \"#utility.yul\":6701:6725   */\n      tag_336\n      jump\t// in\n    tag_484:\n        /* \"#utility.yul\":6696:6699   */\n      dup3\n        /* \"#utility.yul\":6689:6726   */\n      mstore\n        /* \"#utility.yul\":6614:6732   */\n      pop\n      pop\n      jump\t// out\n        /* \"#utility.yul\":6738:6960   */\n    tag_51:\n        /* \"#utility.yul\":6831:6835   */\n      0x00\n        /* \"#utility.yul\":6869:6871   */\n      0x20\n        /* \"#utility.yul\":6858:6867   */\n      dup3\n        /* \"#utility.yul\":6854:6872   */\n      add\n        /* \"#utility.yul\":6846:6872   */\n      swap1\n      pop\n        /* \"#utility.yul\":6882:6953   */\n      tag_486\n        /* \"#utility.yul\":6950:6951   */\n      0x00\n        /* \"#utility.yul\":6939:6948   */\n      dup4\n        /* \"#utility.yul\":6935:6952   */\n      add\n        /* \"#utility.yul\":6926:6932   */\n      dup5\n        /* \"#utility.yul\":6882:6953   */\n      tag_360\n      jump\t// in\n    tag_486:\n        /* \"#utility.yul\":6738:6960   */\n      swap3\n      swap2\n      pop\n      pop\n      jump\t// out\n        /* \"#utility.yul\":6966:7084   */\n    tag_361:\n        /* \"#utility.yul\":7053:7077   */\n      tag_488\n        /* \"#utility.yul\":7071:7076   */\n      dup2\n        /* \"#utility.yul\":7053:7077   */\n      tag_353\n      jump\t// in\n    tag_488:\n        /* \"#utility.yul\":7048:7051   */\n      dup3\n        /* \"#utility.yul\":7041:7078   */\n      mstore\n        /* \"#utility.yul\":6966:7084   */\n      pop\n      pop\n      jump\t// out\n        /* \"#utility.yul\":7090:7312   */\n    tag_57:\n        /* \"#utility.yul\":7183:7187   */\n      0x00\n        /* \"#utility.yul\":7221:7223   */\n      0x20\n        /* \"#utility.yul\":7210:7219   */\n      dup3\n        /* \"#utility.yul\":7206:7224   */\n      add\n        /* \"#utility.yul\":7198:7224   */\n      swap1\n      pop\n        /* \"#utility.yul\":7234:7305   */\n      tag_490\n        /* \"#utility.yul\":7302:7303   */\n      0x00\n        /* \"#utility.yul\":7291:7300   */\n      dup4\n        /* \"#utility.yul\":7287:7304   */\n      add\n        /* \"#utility.yul\":7278:7284   */\n      dup5\n        /* \"#utility.yul\":7234:7305   */\n      tag_361\n      jump\t// in\n    tag_490:\n        /* \"#utility.yul\":7090:7312   */\n      swap3\n      swap2\n      pop\n      pop\n      jump\t// out\n        /* \"#utility.yul\":7318:7457   */\n    tag_362:\n        /* \"#utility.yul\":7410:7416   */\n      0x00\n        /* \"#utility.yul\":7444:7449   */\n      dup2\n        /* \"#utility.yul\":7438:7450   */\n      mload\n        /* \"#utility.yul\":7428:7450   */\n      swap1\n      pop\n        /* \"#utility.yul\":7318:7457   */\n      swap2\n      swap1\n      pop\n      jump\t// out\n        /* \"#utility.yul\":7463:7672   */\n    tag_363:\n        /* \"#utility.yul\":7587:7598   */\n      0x00\n        /* \"#utility.yul\":7621:7627   */\n      dup3\n        /* \"#utility.yul\":7616:7619   */\n      dup3\n        /* \"#utility.yul\":7609:7628   */\n      mstore\n        /* \"#utility.yul\":7661:7665   */\n      0x20\n        /* \"#utility.yul\":7656:7659   */\n      dup3\n        /* \"#utility.yul\":7652:7666   */\n      add\n        /* \"#utility.yul\":7637:7666   */\n      swap1\n      pop\n        /* \"#utility.yul\":7463:7672   */\n      swap3\n      swap2\n      pop\n      pop\n      jump\t// out\n        /* \"#utility.yul\":7678:7835   */\n    tag_364:\n        /* \"#utility.yul\":7770:7774   */\n      0x00\n        /* \"#utility.yul\":7793:7796   */\n      dup2\n        /* \"#utility.yul\":7785:7796   */\n      swap1\n      pop\n        /* \"#utility.yul\":7823:7827   */\n      0x20\n        /* \"#utility.yul\":7818:7821   */\n      dup3\n        /* \"#utility.yul\":7814:7828   */\n      add\n        /* \"#utility.yul\":7806:7828   */\n      swap1\n      pop\n        /* \"#utility.yul\":7678:7835   */\n      swap2\n      swap1\n      pop\n      jump\t// out\n        /* \"#utility.yul\":7841:7940   */\n    tag_365:\n        /* \"#utility.yul\":7893:7899   */\n      0x00\n        /* \"#utility.yul\":7927:7932   */\n      dup2\n        /* \"#utility.yul\":7921:7933   */\n      mload\n        /* \"#utility.yul\":7911:7933   */\n      swap1\n      pop\n        /* \"#utility.yul\":7841:7940   */\n      swap2\n      swap1\n      pop\n      jump\t// out\n        /* \"#utility.yul\":7946:8105   */\n    tag_366:\n        /* \"#utility.yul\":8020:8031   */\n      0x00\n        /* \"#utility.yul\":8054:8060   */\n      dup3\n        /* \"#utility.yul\":8049:8052   */\n      dup3\n        /* \"#utility.yul\":8042:8061   */\n      mstore\n        /* \"#utility.yul\":8094:8098   */\n      0x20\n        /* \"#utility.yul\":8089:8092   */\n      dup3\n        /* \"#utility.yul\":8085:8099   */\n      add\n        /* \"#utility.yul\":8070:8099   */\n      swap1\n      pop\n        /* \"#utility.yul\":7946:8105   */\n      swap3\n      swap2\n      pop\n      pop\n      jump\t// out\n        /* \"#utility.yul\":8111:8357   */\n    tag_367:\n        /* \"#utility.yul\":8192:8193   */\n      0x00\n        /* \"#utility.yul\":8202:8315   */\n    tag_497:\n        /* \"#utility.yul\":8216:8222   */\n      dup4\n        /* \"#utility.yul\":8213:8214   */\n      dup2\n        /* \"#utility.yul\":8210:8223   */\n      lt\n        /* \"#utility.yul\":8202:8315   */\n      iszero\n      tag_499\n      jumpi\n        /* \"#utility.yul\":8301:8302   */\n      dup1\n        /* \"#utility.yul\":8296:8299   */\n      dup3\n        /* \"#utility.yul\":8292:8303   */\n      add\n        /* \"#utility.yul\":8286:8304   */\n      mload\n        /* \"#utility.yul\":8282:8283   */\n      dup2\n        /* \"#utility.yul\":8277:8280   */\n      dup5\n        /* \"#utility.yul\":8273:8284   */\n      add\n        /* \"#utility.yul\":8266:8305   */\n      mstore\n        /* \"#utility.yul\":8238:8240   */\n      0x20\n        /* \"#utility.yul\":8235:8236   */\n      dup2\n        /* \"#utility.yul\":8231:8241   */\n      add\n        /* \"#utility.yul\":8226:8241   */\n      swap1\n      pop\n        /* \"#utility.yul\":8202:8315   */\n      jump(tag_497)\n    tag_499:\n        /* \"#utility.yul\":8349:8350   */\n      0x00\n        /* \"#utility.yul\":8340:8346   */\n      dup5\n        /* \"#utility.yul\":8335:8338   */\n      dup5\n        /* \"#utility.yul\":8331:8347   */\n      add\n        /* \"#utility.yul\":8324:8351   */\n      mstore\n        /* \"#utility.yul\":8173:8357   */\n      pop\n        /* \"#utility.yul\":8111:8357   */\n      pop\n      pop\n      pop\n      jump\t// out\n        /* \"#utility.yul\":8363:8720   */\n    tag_368:\n        /* \"#utility.yul\":8441:8444   */\n      0x00\n        /* \"#utility.yul\":8469:8508   */\n      tag_501\n        /* \"#utility.yul\":8502:8507   */\n      dup3\n        /* \"#utility.yul\":8469:8508   */\n      tag_365\n      jump\t// in\n    tag_501:\n        /* \"#utility.yul\":8524:8585   */\n      tag_502\n        /* \"#utility.yul\":8578:8584   */\n      dup2\n        /* \"#utility.yul\":8573:8576   */\n      dup6\n        /* \"#utility.yul\":8524:8585   */\n      tag_366\n      jump\t// in\n    tag_502:\n        /* \"#utility.yul\":8517:8585   */\n      swap4\n      pop\n        /* \"#utility.yul\":8594:8659   */\n      tag_503\n        /* \"#utility.yul\":8652:8658   */\n      dup2\n        /* \"#utility.yul\":8647:8650   */\n      dup6\n        /* \"#utility.yul\":8640:8644   */\n      0x20\n        /* \"#utility.yul\":8633:8638   */\n      dup7\n        /* \"#utility.yul\":8629:8645   */\n      add\n        /* \"#utility.yul\":8594:8659   */\n      tag_367\n      jump\t// in\n    tag_503:\n        /* \"#utility.yul\":8684:8713   */\n      tag_504\n        /* \"#utility.yul\":8706:8712   */\n      dup2\n        /* \"#utility.yul\":8684:8713   */\n      tag_341\n      jump\t// in\n    tag_504:\n        /* \"#utility.yul\":8679:8682   */\n      dup5\n        /* \"#utility.yul\":8675:8714   */\n      add\n        /* \"#utility.yul\":8668:8714   */\n      swap2\n      pop\n        /* \"#utility.yul\":8445:8720   */\n      pop\n        /* \"#utility.yul\":8363:8720   */\n      swap3\n      swap2\n      pop\n      pop\n      jump\t// out\n        /* \"#utility.yul\":8726:8834   */\n    tag_369:\n        /* \"#utility.yul\":8803:8827   */\n      tag_506\n        /* \"#utility.yul\":8821:8826   */\n      dup2\n        /* \"#utility.yul\":8803:8827   */\n      tag_336\n      jump\t// in\n    tag_506:\n        /* \"#utility.yul\":8798:8801   */\n      dup3\n        /* \"#utility.yul\":8791:8828   */\n      mstore\n        /* \"#utility.yul\":8726:8834   */\n      pop\n      pop\n      jump\t// out\n        /* \"#utility.yul\":8896:9504   */\n    tag_370:\n        /* \"#utility.yul\":9005:9008   */\n      0x00\n        /* \"#utility.yul\":9041:9045   */\n      0x40\n        /* \"#utility.yul\":9036:9039   */\n      dup4\n        /* \"#utility.yul\":9032:9046   */\n      add\n        /* \"#utility.yul\":9135:9139   */\n      0x00\n        /* \"#utility.yul\":9128:9133   */\n      dup4\n        /* \"#utility.yul\":9124:9140   */\n      add\n        /* \"#utility.yul\":9118:9141   */\n      mload\n        /* \"#utility.yul\":9188:9191   */\n      dup5\n        /* \"#utility.yul\":9182:9186   */\n      dup3\n        /* \"#utility.yul\":9178:9192   */\n      sub\n        /* \"#utility.yul\":9171:9175   */\n      0x00\n        /* \"#utility.yul\":9166:9169   */\n      dup7\n        /* \"#utility.yul\":9162:9176   */\n      add\n        /* \"#utility.yul\":9155:9193   */\n      mstore\n        /* \"#utility.yul\":9214:9287   */\n      tag_508\n        /* \"#utility.yul\":9282:9286   */\n      dup3\n        /* \"#utility.yul\":9268:9280   */\n      dup3\n        /* \"#utility.yul\":9214:9287   */\n      tag_368\n      jump\t// in\n    tag_508:\n        /* \"#utility.yul\":9206:9287   */\n      swap2\n      pop\n        /* \"#utility.yul\":9056:9298   */\n      pop\n        /* \"#utility.yul\":9385:9389   */\n      0x20\n        /* \"#utility.yul\":9378:9383   */\n      dup4\n        /* \"#utility.yul\":9374:9390   */\n      add\n        /* \"#utility.yul\":9368:9391   */\n      mload\n        /* \"#utility.yul\":9404:9467   */\n      tag_509\n        /* \"#utility.yul\":9461:9465   */\n      0x20\n        /* \"#utility.yul\":9456:9459   */\n      dup7\n        /* \"#utility.yul\":9452:9466   */\n      add\n        /* \"#utility.yul\":9438:9450   */\n      dup3\n        /* \"#utility.yul\":9404:9467   */\n      tag_369\n      jump\t// in\n    tag_509:\n        /* \"#utility.yul\":9308:9477   */\n      pop\n        /* \"#utility.yul\":9494:9498   */\n      dup1\n        /* \"#utility.yul\":9487:9498   */\n      swap2\n      pop\n        /* \"#utility.yul\":9010:9504   */\n      pop\n        /* \"#utility.yul\":8896:9504   */\n      swap3\n      swap2\n      pop\n      pop\n      jump\t// out\n        /* \"#utility.yul\":9510:9766   */\n    tag_371:\n        /* \"#utility.yul\":9629:9639   */\n      0x00\n        /* \"#utility.yul\":9664:9760   */\n      tag_511\n        /* \"#utility.yul\":9756:9759   */\n      dup4\n        /* \"#utility.yul\":9748:9754   */\n      dup4\n        /* \"#utility.yul\":9664:9760   */\n      tag_370\n      jump\t// in\n    tag_511:\n        /* \"#utility.yul\":9650:9760   */\n      swap1\n      pop\n        /* \"#utility.yul\":9510:9766   */\n      swap3\n      swap2\n      pop\n      pop\n      jump\t// out\n        /* \"#utility.yul\":9772:9910   */\n    tag_372:\n        /* \"#utility.yul\":9867:9871   */\n      0x00\n        /* \"#utility.yul\":9899:9903   */\n      0x20\n        /* \"#utility.yul\":9894:9897   */\n      dup3\n        /* \"#utility.yul\":9890:9904   */\n      add\n        /* \"#utility.yul\":9882:9904   */\n      swap1\n      pop\n        /* \"#utility.yul\":9772:9910   */\n      swap2\n      swap1\n      pop\n      jump\t// out\n        /* \"#utility.yul\":9976:11087   */\n    tag_373:\n        /* \"#utility.yul\":10145:10148   */\n      0x00\n        /* \"#utility.yul\":10174:10253   */\n      tag_514\n        /* \"#utility.yul\":10247:10252   */\n      dup3\n        /* \"#utility.yul\":10174:10253   */\n      tag_362\n      jump\t// in\n    tag_514:\n        /* \"#utility.yul\":10269:10380   */\n      tag_515\n        /* \"#utility.yul\":10373:10379   */\n      dup2\n        /* \"#utility.yul\":10368:10371   */\n      dup6\n        /* \"#utility.yul\":10269:10380   */\n      tag_363\n      jump\t// in\n    tag_515:\n        /* \"#utility.yul\":10262:10380   */\n      swap4\n      pop\n        /* \"#utility.yul\":10406:10409   */\n      dup4\n        /* \"#utility.yul\":10451:10455   */\n      0x20\n        /* \"#utility.yul\":10443:10449   */\n      dup3\n        /* \"#utility.yul\":10439:10456   */\n      mul\n        /* \"#utility.yul\":10434:10437   */\n      dup6\n        /* \"#utility.yul\":10430:10457   */\n      add\n        /* \"#utility.yul\":10481:10562   */\n      tag_516\n        /* \"#utility.yul\":10556:10561   */\n      dup6\n        /* \"#utility.yul\":10481:10562   */\n      tag_364\n      jump\t// in\n    tag_516:\n        /* \"#utility.yul\":10585:10592   */\n      dup1\n        /* \"#utility.yul\":10616:10617   */\n      0x00\n        /* \"#utility.yul\":10601:11042   */\n    tag_517:\n        /* \"#utility.yul\":10626:10632   */\n      dup6\n        /* \"#utility.yul\":10623:10624   */\n      dup2\n        /* \"#utility.yul\":10620:10633   */\n      lt\n        /* \"#utility.yul\":10601:11042   */\n      iszero\n      tag_519\n      jumpi\n        /* \"#utility.yul\":10697:10706   */\n      dup5\n        /* \"#utility.yul\":10691:10695   */\n      dup5\n        /* \"#utility.yul\":10687:10707   */\n      sub\n        /* \"#utility.yul\":10682:10685   */\n      dup10\n        /* \"#utility.yul\":10675:10708   */\n      mstore\n        /* \"#utility.yul\":10748:10754   */\n      dup2\n        /* \"#utility.yul\":10742:10755   */\n      mload\n        /* \"#utility.yul\":10776:10890   */\n      tag_520\n        /* \"#utility.yul\":10885:10889   */\n      dup6\n        /* \"#utility.yul\":10870:10883   */\n      dup3\n        /* \"#utility.yul\":10776:10890   */\n      tag_371\n      jump\t// in\n    tag_520:\n        /* \"#utility.yul\":10768:10890   */\n      swap5\n      pop\n        /* \"#utility.yul\":10913:10998   */\n      tag_521\n        /* \"#utility.yul\":10991:10997   */\n      dup4\n        /* \"#utility.yul\":10913:10998   */\n      tag_372\n      jump\t// in\n    tag_521:\n        /* \"#utility.yul\":10903:10998   */\n      swap3\n      pop\n        /* \"#utility.yul\":11027:11031   */\n      0x20\n        /* \"#utility.yul\":11022:11025   */\n      dup11\n        /* \"#utility.yul\":11018:11032   */\n      add\n        /* \"#utility.yul\":11011:11032   */\n      swap10\n      pop\n        /* \"#utility.yul\":10661:11042   */\n      pop\n        /* \"#utility.yul\":10648:10649   */\n      0x01\n        /* \"#utility.yul\":10645:10646   */\n      dup2\n        /* \"#utility.yul\":10641:10650   */\n      add\n        /* \"#utility.yul\":10636:10650   */\n      swap1\n      pop\n        /* \"#utility.yul\":10601:11042   */\n      jump(tag_517)\n    tag_519:\n        /* \"#utility.yul\":10605:10619   */\n      pop\n        /* \"#utility.yul\":11058:11062   */\n      dup3\n        /* \"#utility.yul\":11051:11062   */\n      swap8\n      pop\n        /* \"#utility.yul\":11078:11081   */\n      dup8\n        /* \"#utility.yul\":11071:11081   */\n      swap6\n      pop\n        /* \"#utility.yul\":10150:11087   */\n      pop\n      pop\n      pop\n      pop\n      pop\n        /* \"#utility.yul\":9976:11087   */\n      swap3\n      swap2\n      pop\n      pop\n      jump\t// out\n        /* \"#utility.yul\":11093:11566   */\n    tag_68:\n        /* \"#utility.yul\":11286:11290   */\n      0x00\n        /* \"#utility.yul\":11324:11326   */\n      0x20\n        /* \"#utility.yul\":11313:11322   */\n      dup3\n        /* \"#utility.yul\":11309:11327   */\n      add\n        /* \"#utility.yul\":11301:11327   */\n      swap1\n      pop\n        /* \"#utility.yul\":11373:11382   */\n      dup2\n        /* \"#utility.yul\":11367:11371   */\n      dup2\n        /* \"#utility.yul\":11363:11383   */\n      sub\n        /* \"#utility.yul\":11359:11360   */\n      0x00\n        /* \"#utility.yul\":11348:11357   */\n      dup4\n        /* \"#utility.yul\":11344:11361   */\n      add\n        /* \"#utility.yul\":11337:11384   */\n      mstore\n        /* \"#utility.yul\":11401:11559   */\n      tag_523\n        /* \"#utility.yul\":11554:11558   */\n      dup2\n        /* \"#utility.yul\":11545:11551   */\n      dup5\n        /* \"#utility.yul\":11401:11559   */\n      tag_373\n      jump\t// in\n    tag_523:\n        /* \"#utility.yul\":11393:11559   */\n      swap1\n      pop\n        /* \"#utility.yul\":11093:11566   */\n      swap3\n      swap2\n      pop\n      pop\n      jump\t// out\n        /* \"#utility.yul\":11572:11883   */\n    tag_374:\n        /* \"#utility.yul\":11649:11653   */\n      0x00\n        /* \"#utility.yul\":11739:11757   */\n      0xffffffffffffffff\n        /* \"#utility.yul\":11731:11737   */\n      dup3\n        /* \"#utility.yul\":11728:11758   */\n      gt\n        /* \"#utility.yul\":11725:11781   */\n      iszero\n      tag_525\n      jumpi\n        /* \"#utility.yul\":11761:11779   */\n      tag_526\n      tag_342\n      jump\t// in\n    tag_526:\n        /* \"#utility.yul\":11725:11781   */\n    tag_525:\n        /* \"#utility.yul\":11811:11815   */\n      0x20\n        /* \"#utility.yul\":11803:11809   */\n      dup3\n        /* \"#utility.yul\":11799:11816   */\n      mul\n        /* \"#utility.yul\":11791:11816   */\n      swap1\n      pop\n        /* \"#utility.yul\":11871:11875   */\n      0x20\n        /* \"#utility.yul\":11865:11869   */\n      dup2\n        /* \"#utility.yul\":11861:11876   */\n      add\n        /* \"#utility.yul\":11853:11876   */\n      swap1\n      pop\n        /* \"#utility.yul\":11572:11883   */\n      swap2\n      swap1\n      pop\n      jump\t// out\n        /* \"#utility.yul\":11889:12006   */\n    tag_375:\n        /* \"#utility.yul\":11998:11999   */\n      0x00\n        /* \"#utility.yul\":11995:11996   */\n      dup1\n        /* \"#utility.yul\":11988:12000   */\n      revert\n        /* \"#utility.yul\":12029:12739   */\n    tag_376:\n        /* \"#utility.yul\":12125:12130   */\n      0x00\n        /* \"#utility.yul\":12150:12231   */\n      tag_529\n        /* \"#utility.yul\":12166:12230   */\n      tag_530\n        /* \"#utility.yul\":12223:12229   */\n      dup5\n        /* \"#utility.yul\":12166:12230   */\n      tag_374\n      jump\t// in\n    tag_530:\n        /* \"#utility.yul\":12150:12231   */\n      tag_344\n      jump\t// in\n    tag_529:\n        /* \"#utility.yul\":12141:12231   */\n      swap1\n      pop\n        /* \"#utility.yul\":12251:12256   */\n      dup1\n        /* \"#utility.yul\":12280:12286   */\n      dup4\n        /* \"#utility.yul\":12273:12278   */\n      dup3\n        /* \"#utility.yul\":12266:12287   */\n      mstore\n        /* \"#utility.yul\":12314:12318   */\n      0x20\n        /* \"#utility.yul\":12307:12312   */\n      dup3\n        /* \"#utility.yul\":12303:12319   */\n      add\n        /* \"#utility.yul\":12296:12319   */\n      swap1\n      pop\n        /* \"#utility.yul\":12367:12371   */\n      0x20\n        /* \"#utility.yul\":12359:12365   */\n      dup5\n        /* \"#utility.yul\":12355:12372   */\n      mul\n        /* \"#utility.yul\":12347:12353   */\n      dup4\n        /* \"#utility.yul\":12343:12373   */\n      add\n        /* \"#utility.yul\":12396:12399   */\n      dup6\n        /* \"#utility.yul\":12388:12394   */\n      dup2\n        /* \"#utility.yul\":12385:12400   */\n      gt\n        /* \"#utility.yul\":12382:12504   */\n      iszero\n      tag_531\n      jumpi\n        /* \"#utility.yul\":12415:12494   */\n      tag_532\n      tag_375\n      jump\t// in\n    tag_532:\n        /* \"#utility.yul\":12382:12504   */\n    tag_531:\n        /* \"#utility.yul\":12530:12536   */\n      dup4\n        /* \"#utility.yul\":12513:12733   */\n    tag_533:\n        /* \"#utility.yul\":12547:12553   */\n      dup2\n        /* \"#utility.yul\":12542:12545   */\n      dup2\n        /* \"#utility.yul\":12539:12554   */\n      lt\n        /* \"#utility.yul\":12513:12733   */\n      iszero\n      tag_535\n      jumpi\n        /* \"#utility.yul\":12622:12625   */\n      dup1\n        /* \"#utility.yul\":12651:12688   */\n      tag_536\n        /* \"#utility.yul\":12684:12687   */\n      dup9\n        /* \"#utility.yul\":12672:12682   */\n      dup3\n        /* \"#utility.yul\":12651:12688   */\n      tag_359\n      jump\t// in\n    tag_536:\n        /* \"#utility.yul\":12646:12649   */\n      dup5\n        /* \"#utility.yul\":12639:12689   */\n      mstore\n        /* \"#utility.yul\":12718:12722   */\n      0x20\n        /* \"#utility.yul\":12713:12716   */\n      dup5\n        /* \"#utility.yul\":12709:12723   */\n      add\n        /* \"#utility.yul\":12702:12723   */\n      swap4\n      pop\n        /* \"#utility.yul\":12589:12733   */\n      pop\n        /* \"#utility.yul\":12573:12577   */\n      0x20\n        /* \"#utility.yul\":12568:12571   */\n      dup2\n        /* \"#utility.yul\":12564:12578   */\n      add\n        /* \"#utility.yul\":12557:12578   */\n      swap1\n      pop\n        /* \"#utility.yul\":12513:12733   */\n      jump(tag_533)\n    tag_535:\n        /* \"#utility.yul\":12517:12538   */\n      pop\n        /* \"#utility.yul\":12131:12739   */\n      pop\n      pop\n        /* \"#utility.yul\":12029:12739   */\n      swap4\n      swap3\n      pop\n      pop\n      pop\n      jump\t// out\n        /* \"#utility.yul\":12762:13132   */\n    tag_377:\n        /* \"#utility.yul\":12833:12838   */\n      0x00\n        /* \"#utility.yul\":12882:12885   */\n      dup3\n        /* \"#utility.yul\":12875:12879   */\n      0x1f\n        /* \"#utility.yul\":12867:12873   */\n      dup4\n        /* \"#utility.yul\":12863:12880   */\n      add\n        /* \"#utility.yul\":12859:12886   */\n      slt\n        /* \"#utility.yul\":12849:12971   */\n      tag_538\n      jumpi\n        /* \"#utility.yul\":12890:12969   */\n      tag_539\n      tag_339\n      jump\t// in\n    tag_539:\n        /* \"#utility.yul\":12849:12971   */\n    tag_538:\n        /* \"#utility.yul\":13007:13013   */\n      dup2\n        /* \"#utility.yul\":12994:13014   */\n      calldataload\n        /* \"#utility.yul\":13032:13126   */\n      tag_540\n        /* \"#utility.yul\":13122:13125   */\n      dup5\n        /* \"#utility.yul\":13114:13120   */\n      dup3\n        /* \"#utility.yul\":13107:13111   */\n      0x20\n        /* \"#utility.yul\":13099:13105   */\n      dup7\n        /* \"#utility.yul\":13095:13112   */\n      add\n        /* \"#utility.yul\":13032:13126   */\n      tag_376\n      jump\t// in\n    tag_540:\n        /* \"#utility.yul\":13023:13126   */\n      swap2\n      pop\n        /* \"#utility.yul\":12839:13132   */\n      pop\n        /* \"#utility.yul\":12762:13132   */\n      swap3\n      swap2\n      pop\n      pop\n      jump\t// out\n        /* \"#utility.yul\":13138:13677   */\n    tag_71:\n        /* \"#utility.yul\":13222:13228   */\n      0x00\n        /* \"#utility.yul\":13271:13273   */\n      0x20\n        /* \"#utility.yul\":13259:13268   */\n      dup3\n        /* \"#utility.yul\":13250:13257   */\n      dup5\n        /* \"#utility.yul\":13246:13269   */\n      sub\n        /* \"#utility.yul\":13242:13274   */\n      slt\n        /* \"#utility.yul\":13239:13358   */\n      iszero\n      tag_542\n      jumpi\n        /* \"#utility.yul\":13277:13356   */\n      tag_543\n      tag_334\n      jump\t// in\n    tag_543:\n        /* \"#utility.yul\":13239:13358   */\n    tag_542:\n        /* \"#utility.yul\":13425:13426   */\n      0x00\n        /* \"#utility.yul\":13414:13423   */\n      dup3\n        /* \"#utility.yul\":13410:13427   */\n      add\n        /* \"#utility.yul\":13397:13428   */\n      calldataload\n        /* \"#utility.yul\":13455:13473   */\n      0xffffffffffffffff\n        /* \"#utility.yul\":13447:13453   */\n      dup2\n        /* \"#utility.yul\":13444:13474   */\n      gt\n        /* \"#utility.yul\":13441:13558   */\n      iszero\n      tag_544\n      jumpi\n        /* \"#utility.yul\":13477:13556   */\n      tag_545\n      tag_335\n      jump\t// in\n    tag_545:\n        /* \"#utility.yul\":13441:13558   */\n    tag_544:\n        /* \"#utility.yul\":13582:13660   */\n      tag_546\n        /* \"#utility.yul\":13652:13659   */\n      dup5\n        /* \"#utility.yul\":13643:13649   */\n      dup3\n        /* \"#utility.yul\":13632:13641   */\n      dup6\n        /* \"#utility.yul\":13628:13650   */\n      add\n        /* \"#utility.yul\":13582:13660   */\n      tag_377\n      jump\t// in\n    tag_546:\n        /* \"#utility.yul\":13572:13660   */\n      swap2\n      pop\n        /* \"#utility.yul\":13368:13670   */\n      pop\n        /* \"#utility.yul\":13138:13677   */\n      swap3\n      swap2\n      pop\n      pop\n      jump\t// out\n        /* \"#utility.yul\":13683:13863   */\n    tag_93:\n        /* \"#utility.yul\":13731:13808   */\n      0x4e487b7100000000000000000000000000000000000000000000000000000000\n        /* \"#utility.yul\":13728:13729   */\n      0x00\n        /* \"#utility.yul\":13721:13809   */\n      mstore\n        /* \"#utility.yul\":13828:13832   */\n      0x32\n        /* \"#utility.yul\":13825:13826   */\n      0x04\n        /* \"#utility.yul\":13818:13833   */\n      mstore\n        /* \"#utility.yul\":13852:13856   */\n      0x24\n        /* \"#utility.yul\":13849:13850   */\n      0x00\n        /* \"#utility.yul\":13842:13857   */\n      revert\n        /* \"#utility.yul\":13869:14049   */\n    tag_378:\n        /* \"#utility.yul\":13917:13994   */\n      0x4e487b7100000000000000000000000000000000000000000000000000000000\n        /* \"#utility.yul\":13914:13915   */\n      0x00\n        /* \"#utility.yul\":13907:13995   */\n      mstore\n        /* \"#utility.yul\":14014:14018   */\n      0x11\n        /* \"#utility.yul\":14011:14012   */\n      0x04\n        /* \"#utility.yul\":14004:14019   */\n      mstore\n        /* \"#utility.yul\":14038:14042   */\n      0x24\n        /* \"#utility.yul\":14035:14036   */\n      0x00\n        /* \"#utility.yul\":14028:14043   */\n      revert\n        /* \"#utility.yul\":14055:14288   */\n    tag_96:\n        /* \"#utility.yul\":14094:14097   */\n      0x00\n        /* \"#utility.yul\":14117:14141   */\n      tag_550\n        /* \"#utility.yul\":14135:14140   */\n      dup3\n        /* \"#utility.yul\":14117:14141   */\n      tag_336\n      jump\t// in\n    tag_550:\n        /* \"#utility.yul\":14108:14141   */\n      swap2\n      pop\n        /* \"#utility.yul\":14163:14229   */\n      0xffffffffffffffffffffffffffffffffffffffffffffffffffffffffffffffff\n        /* \"#utility.yul\":14156:14161   */\n      dup3\n        /* \"#utility.yul\":14153:14230   */\n      sub\n        /* \"#utility.yul\":14150:14253   */\n      tag_551\n      jumpi\n        /* \"#utility.yul\":14233:14251   */\n      tag_552\n      tag_378\n      jump\t// in\n    tag_552:\n        /* \"#utility.yul\":14150:14253   */\n    tag_551:\n        /* \"#utility.yul\":14280:14281   */\n      0x01\n        /* \"#utility.yul\":14273:14278   */\n      dup3\n        /* \"#utility.yul\":14269:14282   */\n      add\n        /* \"#utility.yul\":14262:14282   */\n      swap1\n      pop\n        /* \"#utility.yul\":14055:14288   */\n      swap2\n      swap1\n      pop\n      jump\t// out\n        /* \"#utility.yul\":14294:14626   */\n    tag_98:\n        /* \"#utility.yul\":14415:14419   */\n      0x00\n        /* \"#utility.yul\":14453:14455   */\n      0x40\n        /* \"#utility.yul\":14442:14451   */\n      dup3\n        /* \"#utility.yul\":14438:14456   */\n      add\n        /* \"#utility.yul\":14430:14456   */\n      swap1\n      pop\n        /* \"#utility.yul\":14466:14537   */\n      tag_554\n        /* \"#utility.yul\":14534:14535   */\n      0x00\n        /* \"#utility.yul\":14523:14532   */\n      dup4\n        /* \"#utility.yul\":14519:14536   */\n      add\n        /* \"#utility.yul\":14510:14516   */\n      dup6\n        /* \"#utility.yul\":14466:14537   */\n      tag_361\n      jump\t// in\n    tag_554:\n        /* \"#utility.yul\":14547:14619   */\n      tag_555\n        /* \"#utility.yul\":14615:14617   */\n      0x20\n        /* \"#utility.yul\":14604:14613   */\n      dup4\n        /* \"#utility.yul\":14600:14618   */\n      add\n        /* \"#utility.yul\":14591:14597   */\n      dup5\n        /* \"#utility.yul\":14547:14619   */\n      tag_360\n      jump\t// in\n    tag_555:\n        /* \"#utility.yul\":14294:14626   */\n      swap4\n      swap3\n      pop\n      pop\n      pop\n      jump\t// out\n        /* \"#utility.yul\":14632:14812   */\n    tag_105:\n        /* \"#utility.yul\":14680:14757   */\n      0x4e487b7100000000000000000000000000000000000000000000000000000000\n        /* \"#utility.yul\":14677:14678   */\n      0x00\n        /* \"#utility.yul\":14670:14758   */\n      mstore\n        /* \"#utility.yul\":14777:14781   */\n      0x21\n        /* \"#utility.yul\":14774:14775   */\n      0x04\n        /* \"#utility.yul\":14767:14782   */\n      mstore\n        /* \"#utility.yul\":14801:14805   */\n      0x24\n        /* \"#utility.yul\":14798:14799   */\n      0x00\n        /* \"#utility.yul\":14791:14806   */\n      revert\n        /* \"#utility.yul\":14818:14941   */\n    tag_379:\n        /* \"#utility.yul\":14909:14910   */\n      0x06\n        /* \"#utility.yul\":14902:14907   */\n      dup2\n        /* \"#utility.yul\":14899:14911   */\n      lt\n        /* \"#utility.yul\":14889:14935   */\n      tag_558\n      jumpi\n        /* \"#utility.yul\":14915:14933   */\n      tag_559\n      tag_105\n      jump\t// in\n    tag_559:\n        /* \"#utility.yul\":14889:14935   */\n    tag_558:\n        /* \"#utility.yul\":14818:14941   */\n      pop\n      jump\t// out\n        /* \"#utility.yul\":14947:15094   */\n    tag_380:\n        /* \"#utility.yul\":15002:15009   */\n      0x00\n        /* \"#utility.yul\":15031:15036   */\n      dup2\n        /* \"#utility.yul\":15020:15036   */\n      swap1\n      pop\n        /* \"#utility.yul\":15037:15088   */\n      tag_561\n        /* \"#utility.yul\":15082:15087   */\n      dup3\n        /* \"#utility.yul\":15037:15088   */\n      tag_379\n      jump\t// in\n    tag_561:\n        /* \"#utility.yul\":14947:15094   */\n      swap2\n      swap1\n      pop\n      jump\t// out\n        /* \"#utility.yul\":15100:15247   */\n    tag_381:\n        /* \"#utility.yul\":15166:15175   */\n      0x00\n        /* \"#utility.yul\":15199:15241   */\n      tag_563\n        /* \"#utility.yul\":15235:15240   */\n      dup3\n        /* \"#utility.yul\":15199:15241   */\n      tag_380\n      jump\t// in\n    tag_563:\n        /* \"#utility.yul\":15186:15241   */\n      swap1\n      pop\n        /* \"#utility.yul\":15100:15247   */\n      swap2\n      swap1\n      pop\n      jump\t// out\n        /* \"#utility.yul\":15253:15416   */\n    tag_382:\n        /* \"#utility.yul\":15356:15409   */\n      tag_565\n        /* \"#utility.yul\":15403:15408   */\n      dup2\n        /* \"#utility.yul\":15356:15409   */\n      tag_381\n      jump\t// in\n    tag_565:\n        /* \"#utility.yul\":15351:15354   */\n      dup3\n        /* \"#utility.yul\":15344:15410   */\n      mstore\n        /* \"#utility.yul\":15253:15416   */\n      pop\n      pop\n      jump\t// out\n        /* \"#utility.yul\":15422:15818   */\n    tag_109:\n        /* \"#utility.yul\":15575:15579   */\n      0x00\n        /* \"#utility.yul\":15613:15615   */\n      0x40\n        /* \"#utility.yul\":15602:15611   */\n      dup3\n        /* \"#utility.yul\":15598:15616   */\n      add\n        /* \"#utility.yul\":15590:15616   */\n      swap1\n      pop\n        /* \"#utility.yul\":15626:15713   */\n      tag_567\n        /* \"#utility.yul\":15710:15711   */\n      0x00\n        /* \"#utility.yul\":15699:15708   */\n      dup4\n        /* \"#utility.yul\":15695:15712   */\n      add\n        /* \"#utility.yul\":15686:15692   */\n      dup6\n        /* \"#utility.yul\":15626:15713   */\n      tag_382\n      jump\t// in\n    tag_567:\n        /* \"#utility.yul\":15723:15811   */\n      tag_568\n        /* \"#utility.yul\":15807:15809   */\n      0x20\n        /* \"#utility.yul\":15796:15805   */\n      dup4\n        /* \"#utility.yul\":15792:15810   */\n      add\n        /* \"#utility.yul\":15783:15789   */\n      dup5\n        /* \"#utility.yul\":15723:15811   */\n      tag_382\n      jump\t// in\n    tag_568:\n        /* \"#utility.yul\":15422:15818   */\n      swap4\n      swap3\n      pop\n      pop\n      pop\n      jump\t// out\n        /* \"#utility.yul\":15824:16004   */\n    tag_383:\n        /* \"#utility.yul\":15872:15949   */\n      0x4e487b7100000000000000000000000000000000000000000000000000000000\n        /* \"#utility.yul\":15869:15870   */\n      0x00\n        /* \"#utility.yul\":15862:15950   */\n      mstore\n        /* \"#utility.yul\":15969:15973   */\n      0x22\n        /* \"#utility.yul\":15966:15967   */\n      0x04\n        /* \"#utility.yul\":15959:15974   */\n      mstore\n        /* \"#utility.yul\":15993:15997   */\n      0x24\n        /* \"#utility.yul\":15990:15991   */\n      0x00\n        /* \"#utility.yul\":15983:15998   */\n      revert\n        /* \"#utility.yul\":16010:16330   */\n    tag_209:\n        /* \"#utility.yul\":16054:16060   */\n      0x00\n        /* \"#utility.yul\":16091:16092   */\n      0x02\n        /* \"#utility.yul\":16085:16089   */\n      dup3\n        /* \"#utility.yul\":16081:16093   */\n      div\n        /* \"#utility.yul\":16071:16093   */\n      swap1\n      pop\n        /* \"#utility.yul\":16138:16139   */\n      0x01\n        /* \"#utility.yul\":16132:16136   */\n      dup3\n        /* \"#utility.yul\":16128:16140   */\n      and\n        /* \"#utility.yul\":16159:16177   */\n      dup1\n        /* \"#utility.yul\":16149:16230   */\n      tag_571\n      jumpi\n        /* \"#utility.yul\":16215:16219   */\n      0x7f\n        /* \"#utility.yul\":16207:16213   */\n      dup3\n        /* \"#utility.yul\":16203:16220   */\n      and\n        /* \"#utility.yul\":16193:16220   */\n      swap2\n      pop\n        /* \"#utility.yul\":16149:16230   */\n    tag_571:\n        /* \"#utility.yul\":16277:16279   */\n      0x20\n        /* \"#utility.yul\":16269:16275   */\n      dup3\n        /* \"#utility.yul\":16266:16280   */\n      lt\n        /* \"#utility.yul\":16246:16264   */\n      dup2\n        /* \"#utility.yul\":16243:16281   */\n      sub\n        /* \"#utility.yul\":16240:16324   */\n      tag_572\n      jumpi\n        /* \"#utility.yul\":16296:16314   */\n      tag_573\n      tag_383\n      jump\t// in\n    tag_573:\n        /* \"#utility.yul\":16240:16324   */\n    tag_572:\n        /* \"#utility.yul\":16061:16330   */\n      pop\n        /* \"#utility.yul\":16010:16330   */\n      swap2\n      swap1\n      pop\n      jump\t// out\n        /* \"#utility.yul\":16336:16477   */\n    tag_384:\n        /* \"#utility.yul\":16385:16389   */\n      0x00\n        /* \"#utility.yul\":16408:16411   */\n      dup2\n        /* \"#utility.yul\":16400:16411   */\n      swap1\n      pop\n        /* \"#utility.yul\":16431:16434   */\n      dup2\n        /* \"#utility.yul\":16428:16429   */\n      0x00\n        /* \"#utility.yul\":16421:16435   */\n      mstore\n        /* \"#utility.yul\":16465:16469   */\n      0x20\n        /* \"#utility.yul\":16462:16463   */\n      0x00\n        /* \"#utility.yul\":16452:16470   */\n      keccak256\n        /* \"#utility.yul\":16444:16470   */\n      swap1\n      pop\n        /* \"#utility.yul\":16336:16477   */\n      swap2\n      swap1\n      pop\n      jump\t// out\n        /* \"#utility.yul\":16483:16576   */\n    tag_385:\n        /* \"#utility.yul\":16520:16526   */\n      0x00\n        /* \"#utility.yul\":16567:16569   */\n      0x20\n        /* \"#utility.yul\":16562:16564   */\n      0x1f\n        /* \"#utility.yul\":16555:16560   */\n      dup4\n        /* \"#utility.yul\":16551:16565   */\n      add\n        /* \"#utility.yul\":16547:16570   */\n      div\n        /* \"#utility.yul\":16537:16570   */\n      swap1\n      pop\n        /* \"#utility.yul\":16483:16576   */\n      swap2\n      swap1\n      pop\n      jump\t// out\n        /* \"#utility.yul\":16582:16689   */\n    tag_386:\n        /* \"#utility.yul\":16626:16634   */\n      0x00\n        /* \"#utility.yul\":16676:16681   */\n      dup3\n        /* \"#utility.yul\":16670:16674   */\n      dup3\n        /* \"#utility.yul\":16666:16682   */\n      shl\n        /* \"#utility.yul\":16645:16682   */\n      swap1\n      pop\n        /* \"#utility.yul\":16582:16689   */\n      swap3\n      swap2\n      pop\n      pop\n      jump\t// out\n        /* \"#utility.yul\":16695:17088   */\n    tag_387:\n        /* \"#utility.yul\":16764:16770   */\n      0x00\n        /* \"#utility.yul\":16814:16815   */\n      0x08\n        /* \"#utility.yul\":16802:16812   */\n      dup4\n        /* \"#utility.yul\":16798:16816   */\n      mul\n        /* \"#utility.yul\":16837:16934   */\n      tag_578\n        /* \"#utility.yul\":16867:16933   */\n      0xffffffffffffffffffffffffffffffffffffffffffffffffffffffffffffffff\n        /* \"#utility.yul\":16856:16865   */\n      dup3\n        /* \"#utility.yul\":16837:16934   */\n      tag_386\n      jump\t// in\n    tag_578:\n        /* \"#utility.yul\":16955:16994   */\n      tag_579\n        /* \"#utility.yul\":16985:16993   */\n      dup7\n        /* \"#utility.yul\":16974:16983   */\n      dup4\n        /* \"#utility.yul\":16955:16994   */\n      tag_386\n      jump\t// in\n    tag_579:\n        /* \"#utility.yul\":16943:16994   */\n      swap6\n      pop\n        /* \"#utility.yul\":17027:17031   */\n      dup1\n        /* \"#utility.yul\":17023:17032   */\n      not\n        /* \"#utility.yul\":17016:17021   */\n      dup5\n        /* \"#utility.yul\":17012:17033   */\n      and\n        /* \"#utility.yul\":17003:17033   */\n      swap4\n      pop\n        /* \"#utility.yul\":17076:17080   */\n      dup1\n        /* \"#utility.yul\":17066:17074   */\n      dup7\n        /* \"#utility.yul\":17062:17081   */\n      and\n        /* \"#utility.yul\":17055:17060   */\n      dup5\n        /* \"#utility.yul\":17052:17082   */\n      or\n        /* \"#utility.yul\":17042:17082   */\n      swap3\n      pop\n        /* \"#utility.yul\":16771:17088   */\n      pop\n      pop\n        /* \"#utility.yul\":16695:17088   */\n      swap4\n      swap3\n      pop\n      pop\n      pop\n      jump\t// out\n        /* \"#utility.yul\":17094:17154   */\n    tag_388:\n        /* \"#utility.yul\":17122:17125   */\n      0x00\n        /* \"#utility.yul\":17143:17148   */\n      dup2\n        /* \"#utility.yul\":17136:17148   */\n      swap1\n      pop\n        /* \"#utility.yul\":17094:17154   */\n      swap2\n      swap1\n      pop\n      jump\t// out\n        /* \"#utility.yul\":17160:17302   */\n    tag_389:\n        /* \"#utility.yul\":17210:17219   */\n      0x00\n        /* \"#utility.yul\":17243:17296   */\n      tag_582\n        /* \"#utility.yul\":17261:17295   */\n      tag_583\n        /* \"#utility.yul\":17270:17294   */\n      tag_584\n        /* \"#utility.yul\":17288:17293   */\n      dup5\n        /* \"#utility.yul\":17270:17294   */\n      tag_336\n      jump\t// in\n    tag_584:\n        /* \"#utility.yul\":17261:17295   */\n      tag_388\n      jump\t// in\n    tag_583:\n        /* \"#utility.yul\":17243:17296   */\n      tag_336\n      jump\t// in\n    tag_582:\n        /* \"#utility.yul\":17230:17296   */\n      swap1\n      pop\n        /* \"#utility.yul\":17160:17302   */\n      swap2\n      swap1\n      pop\n      jump\t// out\n        /* \"#utility.yul\":17308:17383   */\n    tag_390:\n        /* \"#utility.yul\":17351:17354   */\n      0x00\n        /* \"#utility.yul\":17372:17377   */\n      dup2\n        /* \"#utility.yul\":17365:17377   */\n      swap1\n      pop\n        /* \"#utility.yul\":17308:17383   */\n      swap2\n      swap1\n      pop\n      jump\t// out\n        /* \"#utility.yul\":17389:17658   */\n    tag_391:\n        /* \"#utility.yul\":17499:17538   */\n      tag_587\n        /* \"#utility.yul\":17530:17537   */\n      dup4\n        /* \"#utility.yul\":17499:17538   */\n      tag_389\n      jump\t// in\n    tag_587:\n        /* \"#utility.yul\":17560:17651   */\n      tag_588\n        /* \"#utility.yul\":17609:17650   */\n      tag_589\n        /* \"#utility.yul\":17633:17649   */\n      dup3\n        /* \"#utility.yul\":17609:17650   */\n      tag_390\n      jump\t// in\n    tag_589:\n        /* \"#utility.yul\":17601:17607   */\n      dup5\n        /* \"#utility.yul\":17594:17598   */\n      dup5\n        /* \"#utility.yul\":17588:17599   */\n      sload\n        /* \"#utility.yul\":17560:17651   */\n      tag_387\n      jump\t// in\n    tag_588:\n        /* \"#utility.yul\":17554:17558   */\n      dup3\n        /* \"#utility.yul\":17547:17652   */\n      sstore\n        /* \"#utility.yul\":17465:17658   */\n      pop\n        /* \"#utility.yul\":17389:17658   */\n      pop\n      pop\n      pop\n      jump\t// out\n        /* \"#utility.yul\":17664:17737   */\n    tag_392:\n        /* \"#utility.yul\":17709:17712   */\n      0x00\n        /* \"#utility.yul\":17664:17737   */\n      swap1\n      jump\t// out\n        /* \"#utility.yul\":17743:17932   */\n    tag_393:\n        /* \"#utility.yul\":17820:17852   */\n      tag_592\n      tag_392\n      jump\t// in\n    tag_592:\n        /* \"#utility.yul\":17861:17926   */\n      tag_593\n        /* \"#utility.yul\":17919:17925   */\n      dup2\n        /* \"#utility.yul\":17911:17917   */\n      dup5\n        /* \"#utility.yul\":17905:17909   */\n      dup5\n        /* \"#utility.yul\":17861:17926   */\n      tag_391\n      jump\t// in\n    tag_593:\n        /* \"#utility.yul\":17796:17932   */\n      pop\n        /* \"#utility.yul\":17743:17932   */\n      pop\n      pop\n      jump\t// out\n        /* \"#utility.yul\":17938:18124   */\n    tag_394:\n        /* \"#utility.yul\":17998:18118   */\n    tag_595:\n        /* \"#utility.yul\":18015:18018   */\n      dup2\n        /* \"#utility.yul\":18008:18013   */\n      dup2\n        /* \"#utility.yul\":18005:18019   */\n      lt\n        /* \"#utility.yul\":17998:18118   */\n      iszero\n      tag_597\n      jumpi\n        /* \"#utility.yul\":18069:18108   */\n      tag_598\n        /* \"#utility.yul\":18106:18107   */\n      0x00\n        /* \"#utility.yul\":18099:18104   */\n      dup3\n        /* \"#utility.yul\":18069:18108   */\n      tag_393\n      jump\t// in\n    tag_598:\n        /* \"#utility.yul\":18042:18043   */\n      0x01\n        /* \"#utility.yul\":18035:18040   */\n      dup2\n        /* \"#utility.yul\":18031:18044   */\n      add\n        /* \"#utility.yul\":18022:18044   */\n      swap1\n      pop\n        /* \"#utility.yul\":17998:18118   */\n      jump(tag_595)\n    tag_597:\n        /* \"#utility.yul\":17938:18124   */\n      pop\n      pop\n      jump\t// out\n        /* \"#utility.yul\":18130:18673   */\n    tag_395:\n        /* \"#utility.yul\":18231:18233   */\n      0x1f\n        /* \"#utility.yul\":18226:18229   */\n      dup3\n        /* \"#utility.yul\":18223:18234   */\n      gt\n        /* \"#utility.yul\":18220:18666   */\n      iszero\n      tag_600\n      jumpi\n        /* \"#utility.yul\":18265:18303   */\n      tag_601\n        /* \"#utility.yul\":18297:18302   */\n      dup2\n        /* \"#utility.yul\":18265:18303   */\n      tag_384\n      jump\t// in\n    tag_601:\n        /* \"#utility.yul\":18349:18378   */\n      tag_602\n        /* \"#utility.yul\":18367:18377   */\n      dup5\n        /* \"#utility.yul\":18349:18378   */\n      tag_385\n      jump\t// in\n    tag_602:\n        /* \"#utility.yul\":18339:18347   */\n      dup2\n        /* \"#utility.yul\":18335:18379   */\n      add\n        /* \"#utility.yul\":18532:18534   */\n      0x20\n        /* \"#utility.yul\":18520:18530   */\n      dup6\n        /* \"#utility.yul\":18517:18535   */\n      lt\n        /* \"#utility.yul\":18514:18563   */\n      iszero\n      tag_603\n      jumpi\n        /* \"#utility.yul\":18553:18561   */\n      dup2\n        /* \"#utility.yul\":18538:18561   */\n      swap1\n      pop\n        /* \"#utility.yul\":18514:18563   */\n    tag_603:\n        /* \"#utility.yul\":18576:18656   */\n      tag_604\n        /* \"#utility.yul\":18632:18654   */\n      tag_605\n        /* \"#utility.yul\":18650:18653   */\n      dup6\n        /* \"#utility.yul\":18632:18654   */\n      tag_385\n      jump\t// in\n    tag_605:\n        /* \"#utility.yul\":18622:18630   */\n      dup4\n        /* \"#utility.yul\":18618:18655   */\n      add\n        /* \"#utility.yul\":18605:18616   */\n      dup3\n        /* \"#utility.yul\":18576:18656   */\n      tag_394\n      jump\t// in\n    tag_604:\n        /* \"#utility.yul\":18235:18666   */\n      pop\n      pop\n        /* \"#utility.yul\":18220:18666   */\n    tag_600:\n        /* \"#utility.yul\":18130:18673   */\n      pop\n      pop\n      pop\n      jump\t// out\n        /* \"#utility.yul\":18679:18796   */\n    tag_396:\n        /* \"#utility.yul\":18733:18741   */\n      0x00\n        /* \"#utility.yul\":18783:18788   */\n      dup3\n        /* \"#utility.yul\":18777:18781   */\n      dup3\n        /* \"#utility.yul\":18773:18789   */\n      shr\n        /* \"#utility.yul\":18752:18789   */\n      swap1\n      pop\n        /* \"#utility.yul\":18679:18796   */\n      swap3\n      swap2\n      pop\n      pop\n      jump\t// out\n        /* \"#utility.yul\":18802:18971   */\n    tag_397:\n        /* \"#utility.yul\":18846:18852   */\n      0x00\n        /* \"#utility.yul\":18879:18930   */\n      tag_608\n        /* \"#utility.yul\":18927:18928   */\n      0x00\n        /* \"#utility.yul\":18923:18929   */\n      not\n        /* \"#utility.yul\":18915:18920   */\n      dup5\n        /* \"#utility.yul\":18912:18913   */\n      0x08\n        /* \"#utility.yul\":18908:18921   */\n      mul\n        /* \"#utility.yul\":18879:18930   */\n      tag_396\n      jump\t// in\n    tag_608:\n        /* \"#utility.yul\":18875:18931   */\n      not\n        /* \"#utility.yul\":18960:18964   */\n      dup1\n        /* \"#utility.yul\":18954:18958   */\n      dup4\n        /* \"#utility.yul\":18950:18965   */\n      and\n        /* \"#utility.yul\":18940:18965   */\n      swap2\n      pop\n        /* \"#utility.yul\":18853:18971   */\n      pop\n        /* \"#utility.yul\":18802:18971   */\n      swap3\n      swap2\n      pop\n      pop\n      jump\t// out\n        /* \"#utility.yul\":18976:19271   */\n    tag_398:\n        /* \"#utility.yul\":19052:19056   */\n      0x00\n        /* \"#utility.yul\":19198:19227   */\n      tag_610\n        /* \"#utility.yul\":19223:19226   */\n      dup4\n        /* \"#utility.yul\":19217:19221   */\n      dup4\n        /* \"#utility.yul\":19198:19227   */\n      tag_397\n      jump\t// in\n    tag_610:\n        /* \"#utility.yul\":19190:19227   */\n      swap2\n      pop\n        /* \"#utility.yul\":19260:19263   */\n      dup3\n        /* \"#utility.yul\":19257:19258   */\n      0x02\n        /* \"#utility.yul\":19253:19264   */\n      mul\n        /* \"#utility.yul\":19247:19251   */\n      dup3\n        /* \"#utility.yul\":19244:19265   */\n      or\n        /* \"#utility.yul\":19236:19265   */\n      swap1\n      pop\n        /* \"#utility.yul\":18976:19271   */\n      swap3\n      swap2\n      pop\n      pop\n      jump\t// out\n        /* \"#utility.yul\":19276:20671   */\n    tag_122:\n        /* \"#utility.yul\":19393:19430   */\n      tag_612\n        /* \"#utility.yul\":19426:19429   */\n      dup3\n        /* \"#utility.yul\":19393:19430   */\n      tag_365\n      jump\t// in\n    tag_612:\n        /* \"#utility.yul\":19495:19513   */\n      0xffffffffffffffff\n        /* \"#utility.yul\":19487:19493   */\n      dup2\n        /* \"#utility.yul\":19484:19514   */\n      gt\n        /* \"#utility.yul\":19481:19537   */\n      iszero\n      tag_613\n      jumpi\n        /* \"#utility.yul\":19517:19535   */\n      tag_614\n      tag_342\n      jump\t// in\n    tag_614:\n        /* \"#utility.yul\":19481:19537   */\n    tag_613:\n        /* \"#utility.yul\":19561:19599   */\n      tag_615\n        /* \"#utility.yul\":19593:19597   */\n      dup3\n        /* \"#utility.yul\":19587:19598   */\n      sload\n        /* \"#utility.yul\":19561:19599   */\n      tag_209\n      jump\t// in\n    tag_615:\n        /* \"#utility.yul\":19646:19713   */\n      tag_616\n        /* \"#utility.yul\":19706:19712   */\n      dup3\n        /* \"#utility.yul\":19698:19704   */\n      dup3\n        /* \"#utility.yul\":19692:19696   */\n      dup6\n        /* \"#utility.yul\":19646:19713   */\n      tag_395\n      jump\t// in\n    tag_616:\n        /* \"#utility.yul\":19740:19741   */\n      0x00\n        /* \"#utility.yul\":19764:19768   */\n      0x20\n        /* \"#utility.yul\":19751:19768   */\n      swap1\n      pop\n        /* \"#utility.yul\":19796:19798   */\n      0x1f\n        /* \"#utility.yul\":19788:19794   */\n      dup4\n        /* \"#utility.yul\":19785:19799   */\n      gt\n        /* \"#utility.yul\":19813:19814   */\n      0x01\n        /* \"#utility.yul\":19808:20426   */\n      dup2\n      eq\n      tag_618\n      jumpi\n        /* \"#utility.yul\":20470:20471   */\n      0x00\n        /* \"#utility.yul\":20487:20493   */\n      dup5\n        /* \"#utility.yul\":20484:20561   */\n      iszero\n      tag_619\n      jumpi\n        /* \"#utility.yul\":20536:20545   */\n      dup3\n        /* \"#utility.yul\":20531:20534   */\n      dup8\n        /* \"#utility.yul\":20527:20546   */\n      add\n        /* \"#utility.yul\":20521:20547   */\n      mload\n        /* \"#utility.yul\":20512:20547   */\n      swap1\n      pop\n        /* \"#utility.yul\":20484:20561   */\n    tag_619:\n        /* \"#utility.yul\":20587:20654   */\n      tag_620\n        /* \"#utility.yul\":20647:20653   */\n      dup6\n        /* \"#utility.yul\":20640:20645   */\n      dup3\n        /* \"#utility.yul\":20587:20654   */\n      tag_398\n      jump\t// in\n    tag_620:\n        /* \"#utility.yul\":20581:20585   */\n      dup7\n        /* \"#utility.yul\":20574:20655   */\n      sstore\n        /* \"#utility.yul\":20443:20665   */\n      pop\n        /* \"#utility.yul\":19778:20665   */\n      jump(tag_617)\n        /* \"#utility.yul\":19808:20426   */\n    tag_618:\n        /* \"#utility.yul\":19860:19864   */\n      0x1f\n        /* \"#utility.yul\":19856:19865   */\n      not\n        /* \"#utility.yul\":19848:19854   */\n      dup5\n        /* \"#utility.yul\":19844:19866   */\n      and\n        /* \"#utility.yul\":19894:19931   */\n      tag_621\n        /* \"#utility.yul\":19926:19930   */\n      dup7\n        /* \"#utility.yul\":19894:19931   */\n      tag_384\n      jump\t// in\n    tag_621:\n        /* \"#utility.yul\":19953:19954   */\n      0x00\n        /* \"#utility.yul\":19967:20175   */\n    tag_622:\n        /* \"#utility.yul\":19981:19988   */\n      dup3\n        /* \"#utility.yul\":19978:19979   */\n      dup2\n        /* \"#utility.yul\":19975:19989   */\n      lt\n        /* \"#utility.yul\":19967:20175   */\n      iszero\n      tag_624\n      jumpi\n        /* \"#utility.yul\":20060:20069   */\n      dup5\n        /* \"#utility.yul\":20055:20058   */\n      dup10\n        /* \"#utility.yul\":20051:20070   */\n      add\n        /* \"#utility.yul\":20045:20071   */\n      mload\n        /* \"#utility.yul\":20037:20043   */\n      dup3\n        /* \"#utility.yul\":20030:20072   */\n      sstore\n        /* \"#utility.yul\":20111:20112   */\n      0x01\n        /* \"#utility.yul\":20103:20109   */\n      dup3\n        /* \"#utility.yul\":20099:20113   */\n      add\n        /* \"#utility.yul\":20089:20113   */\n      swap2\n      pop\n        /* \"#utility.yul\":20158:20160   */\n      0x20\n        /* \"#utility.yul\":20147:20156   */\n      dup6\n        /* \"#utility.yul\":20143:20161   */\n      add\n        /* \"#utility.yul\":20130:20161   */\n      swap5\n      pop\n        /* \"#utility.yul\":20004:20008   */\n      0x20\n        /* \"#utility.yul\":20001:20002   */\n      dup2\n        /* \"#utility.yul\":19997:20009   */\n      add\n        /* \"#utility.yul\":19992:20009   */\n      swap1\n      pop\n        /* \"#utility.yul\":19967:20175   */\n      jump(tag_622)\n    tag_624:\n        /* \"#utility.yul\":20203:20209   */\n      dup7\n        /* \"#utility.yul\":20194:20201   */\n      dup4\n        /* \"#utility.yul\":20191:20210   */\n      lt\n        /* \"#utility.yul\":20188:20367   */\n      iszero\n      tag_625\n      jumpi\n        /* \"#utility.yul\":20261:20270   */\n      dup5\n        /* \"#utility.yul\":20256:20259   */\n      dup10\n        /* \"#utility.yul\":20252:20271   */\n      add\n        /* \"#utility.yul\":20246:20272   */\n      mload\n        /* \"#utility.yul\":20304:20352   */\n      tag_626\n        /* \"#utility.yul\":20346:20350   */\n      0x1f\n        /* \"#utility.yul\":20338:20344   */\n      dup10\n        /* \"#utility.yul\":20334:20351   */\n      and\n        /* \"#utility.yul\":20323:20332   */\n      dup3\n        /* \"#utility.yul\":20304:20352   */\n      tag_397\n      jump\t// in\n    tag_626:\n        /* \"#utility.yul\":20296:20302   */\n      dup4\n        /* \"#utility.yul\":20289:20353   */\n      sstore\n        /* \"#utility.yul\":20211:20367   */\n      pop\n        /* \"#utility.yul\":20188:20367   */\n    tag_625:\n        /* \"#utility.yul\":20413:20414   */\n      0x01\n        /* \"#utility.yul\":20409:20410   */\n      0x02\n        /* \"#utility.yul\":20401:20407   */\n      dup9\n        /* \"#utility.yul\":20397:20411   */\n      mul\n        /* \"#utility.yul\":20393:20415   */\n      add\n        /* \"#utility.yul\":20387:20391   */\n      dup9\n        /* \"#utility.yul\":20380:20416   */\n      sstore\n        /* \"#utility.yul\":19815:20426   */\n      pop\n      pop\n      pop\n        /* \"#utility.yul\":19778:20665   */\n    tag_617:\n      pop\n        /* \"#utility.yul\":19368:20671   */\n      pop\n      pop\n      pop\n        /* \"#utility.yul\":19276:20671   */\n      pop\n      pop\n      jump\t// out\n        /* \"#utility.yul\":20677:20846   */\n    tag_399:\n        /* \"#utility.yul\":20761:20772   */\n      0x00\n        /* \"#utility.yul\":20795:20801   */\n      dup3\n        /* \"#utility.yul\":20790:20793   */\n      dup3\n        /* \"#utility.yul\":20783:20802   */\n      mstore\n        /* \"#utility.yul\":20835:20839   */\n      0x20\n        /* \"#utility.yul\":20830:20833   */\n      dup3\n        /* \"#utility.yul\":20826:20840   */\n      add\n        /* \"#utility.yul\":20811:20840   */\n      swap1\n      pop\n        /* \"#utility.yul\":20677:20846   */\n      swap3\n      swap2\n      pop\n      pop\n      jump\t// out\n        /* \"#utility.yul\":20852:21084   */\n    tag_400:\n        /* \"#utility.yul\":20992:21026   */\n      0x506c65617365207761697420766f746572732720726567697374726174696f6e\n        /* \"#utility.yul\":20988:20989   */\n      0x00\n        /* \"#utility.yul\":20980:20986   */\n      dup3\n        /* \"#utility.yul\":20976:20990   */\n      add\n        /* \"#utility.yul\":20969:21027   */\n      mstore\n        /* \"#utility.yul\":21061:21076   */\n      0x20746f20626520636c6f73656400000000000000000000000000000000000000\n        /* \"#utility.yul\":21056:21058   */\n      0x20\n        /* \"#utility.yul\":21048:21054   */\n      dup3\n        /* \"#utility.yul\":21044:21059   */\n      add\n        /* \"#utility.yul\":21037:21077   */\n      mstore\n        /* \"#utility.yul\":20852:21084   */\n      pop\n      jump\t// out\n        /* \"#utility.yul\":21090:21456   */\n    tag_401:\n        /* \"#utility.yul\":21232:21235   */\n      0x00\n        /* \"#utility.yul\":21253:21320   */\n      tag_630\n        /* \"#utility.yul\":21317:21319   */\n      0x2d\n        /* \"#utility.yul\":21312:21315   */\n      dup4\n        /* \"#utility.yul\":21253:21320   */\n      tag_399\n      jump\t// in\n    tag_630:\n        /* \"#utility.yul\":21246:21320   */\n      swap2\n      pop\n        /* \"#utility.yul\":21329:21422   */\n      tag_631\n        /* \"#utility.yul\":21418:21421   */\n      dup3\n        /* \"#utility.yul\":21329:21422   */\n      tag_400\n      jump\t// in\n    tag_631:\n        /* \"#utility.yul\":21447:21449   */\n      0x40\n        /* \"#utility.yul\":21442:21445   */\n      dup3\n        /* \"#utility.yul\":21438:21450   */\n      add\n        /* \"#utility.yul\":21431:21450   */\n      swap1\n      pop\n        /* \"#utility.yul\":21090:21456   */\n      swap2\n      swap1\n      pop\n      jump\t// out\n        /* \"#utility.yul\":21462:21881   */\n    tag_204:\n        /* \"#utility.yul\":21628:21632   */\n      0x00\n        /* \"#utility.yul\":21666:21668   */\n      0x20\n        /* \"#utility.yul\":21655:21664   */\n      dup3\n        /* \"#utility.yul\":21651:21669   */\n      add\n        /* \"#utility.yul\":21643:21669   */\n      swap1\n      pop\n        /* \"#utility.yul\":21715:21724   */\n      dup2\n        /* \"#utility.yul\":21709:21713   */\n      dup2\n        /* \"#utility.yul\":21705:21725   */\n      sub\n        /* \"#utility.yul\":21701:21702   */\n      0x00\n        /* \"#utility.yul\":21690:21699   */\n      dup4\n        /* \"#utility.yul\":21686:21703   */\n      add\n        /* \"#utility.yul\":21679:21726   */\n      mstore\n        /* \"#utility.yul\":21743:21874   */\n      tag_633\n        /* \"#utility.yul\":21869:21873   */\n      dup2\n        /* \"#utility.yul\":21743:21874   */\n      tag_401\n      jump\t// in\n    tag_633:\n        /* \"#utility.yul\":21735:21874   */\n      swap1\n      pop\n        /* \"#utility.yul\":21462:21881   */\n      swap2\n      swap1\n      pop\n      jump\t// out\n        /* \"#utility.yul\":21887:22112   */\n    tag_402:\n        /* \"#utility.yul\":22027:22061   */\n      0x4f776e61626c653a206e6577206f776e657220697320746865207a65726f2061\n        /* \"#utility.yul\":22023:22024   */\n      0x00\n        /* \"#utility.yul\":22015:22021   */\n      dup3\n        /* \"#utility.yul\":22011:22025   */\n      add\n        /* \"#utility.yul\":22004:22062   */\n      mstore\n        /* \"#utility.yul\":22096:22104   */\n      0x6464726573730000000000000000000000000000000000000000000000000000\n        /* \"#utility.yul\":22091:22093   */\n      0x20\n        /* \"#utility.yul\":22083:22089   */\n      dup3\n        /* \"#utility.yul\":22079:22094   */\n      add\n        /* \"#utility.yul\":22072:22105   */\n      mstore\n        /* \"#utility.yul\":21887:22112   */\n      pop\n      jump\t// out\n        /* \"#utility.yul\":22118:22484   */\n    tag_403:\n        /* \"#utility.yul\":22260:22263   */\n      0x00\n        /* \"#utility.yul\":22281:22348   */\n      tag_636\n        /* \"#utility.yul\":22345:22347   */\n      0x26\n        /* \"#utility.yul\":22340:22343   */\n      dup4\n        /* \"#utility.yul\":22281:22348   */\n      tag_399\n      jump\t// in\n    tag_636:\n        /* \"#utility.yul\":22274:22348   */\n      swap2\n      pop\n        /* \"#utility.yul\":22357:22450   */\n      tag_637\n        /* \"#utility.yul\":22446:22449   */\n      dup3\n        /* \"#utility.yul\":22357:22450   */\n      tag_402\n      jump\t// in\n    tag_637:\n        /* \"#utility.yul\":22475:22477   */\n      0x40\n        /* \"#utility.yul\":22470:22473   */\n      dup3\n        /* \"#utility.yul\":22466:22478   */\n      add\n        /* \"#utility.yul\":22459:22478   */\n      swap1\n      pop\n        /* \"#utility.yul\":22118:22484   */\n      swap2\n      swap1\n      pop\n      jump\t// out\n        /* \"#utility.yul\":22490:22909   */\n    tag_239:\n        /* \"#utility.yul\":22656:22660   */\n      0x00\n        /* \"#utility.yul\":22694:22696   */\n      0x20\n        /* \"#utility.yul\":22683:22692   */\n      dup3\n        /* \"#utility.yul\":22679:22697   */\n      add\n        /* \"#utility.yul\":22671:22697   */\n      swap1\n      pop\n        /* \"#utility.yul\":22743:22752   */\n      dup2\n        /* \"#utility.yul\":22737:22741   */\n      dup2\n        /* \"#utility.yul\":22733:22753   */\n      sub\n        /* \"#utility.yul\":22729:22730   */\n      0x00\n        /* \"#utility.yul\":22718:22727   */\n      dup4\n        /* \"#utility.yul\":22714:22731   */\n      add\n        /* \"#utility.yul\":22707:22754   */\n      mstore\n        /* \"#utility.yul\":22771:22902   */\n      tag_639\n        /* \"#utility.yul\":22897:22901   */\n      dup2\n        /* \"#utility.yul\":22771:22902   */\n      tag_403\n      jump\t// in\n    tag_639:\n        /* \"#utility.yul\":22763:22902   */\n      swap1\n      pop\n        /* \"#utility.yul\":22490:22909   */\n      swap2\n      swap1\n      pop\n      jump\t// out\n        /* \"#utility.yul\":22915:23097   */\n    tag_404:\n        /* \"#utility.yul\":23055:23089   */\n      0x4f776e61626c653a2063616c6c6572206973206e6f7420746865206f776e6572\n        /* \"#utility.yul\":23051:23052   */\n      0x00\n        /* \"#utility.yul\":23043:23049   */\n      dup3\n        /* \"#utility.yul\":23039:23053   */\n      add\n        /* \"#utility.yul\":23032:23090   */\n      mstore\n        /* \"#utility.yul\":22915:23097   */\n      pop\n      jump\t// out\n        /* \"#utility.yul\":23103:23469   */\n    tag_405:\n        /* \"#utility.yul\":23245:23248   */\n      0x00\n        /* \"#utility.yul\":23266:23333   */\n      tag_642\n        /* \"#utility.yul\":23330:23332   */\n      0x20\n        /* \"#utility.yul\":23325:23328   */\n      dup4\n        /* \"#utility.yul\":23266:23333   */\n      tag_399\n      jump\t// in\n    tag_642:\n        /* \"#utility.yul\":23259:23333   */\n      swap2\n      pop\n        /* \"#utility.yul\":23342:23435   */\n      tag_643\n        /* \"#utility.yul\":23431:23434   */\n      dup3\n        /* \"#utility.yul\":23342:23435   */\n      tag_404\n      jump\t// in\n    tag_643:\n        /* \"#utility.yul\":23460:23462   */\n      0x20\n        /* \"#utility.yul\":23455:23458   */\n      dup3\n        /* \"#utility.yul\":23451:23463   */\n      add\n        /* \"#utility.yul\":23444:23463   */\n      swap1\n      pop\n        /* \"#utility.yul\":23103:23469   */\n      swap2\n      swap1\n      pop\n      jump\t// out\n        /* \"#utility.yul\":23475:23894   */\n    tag_263:\n        /* \"#utility.yul\":23641:23645   */\n      0x00\n        /* \"#utility.yul\":23679:23681   */\n      0x20\n        /* \"#utility.yul\":23668:23677   */\n      dup3\n        /* \"#utility.yul\":23664:23682   */\n      add\n        /* \"#utility.yul\":23656:23682   */\n      swap1\n      pop\n        /* \"#utility.yul\":23728:23737   */\n      dup2\n        /* \"#utility.yul\":23722:23726   */\n      dup2\n        /* \"#utility.yul\":23718:23738   */\n      sub\n        /* \"#utility.yul\":23714:23715   */\n      0x00\n        /* \"#utility.yul\":23703:23712   */\n      dup4\n        /* \"#utility.yul\":23699:23716   */\n      add\n        /* \"#utility.yul\":23692:23739   */\n      mstore\n        /* \"#utility.yul\":23756:23887   */\n      tag_645\n        /* \"#utility.yul\":23882:23886   */\n      dup2\n        /* \"#utility.yul\":23756:23887   */\n      tag_405\n      jump\t// in\n    tag_645:\n        /* \"#utility.yul\":23748:23887   */\n      swap1\n      pop\n        /* \"#utility.yul\":23475:23894   */\n      swap2\n      swap1\n      pop\n      jump\t// out\n\n    auxdata: 0xa2646970667358221220bc1657e9152325484b94897948e64bc62ec723be553331a8825c00c7c3d5622f64736f6c63430008140033\n}\n",
				"bytecode": {
					"linkReferences": {},
					"object": "608060405234801562000010575f80fd5b5062000031620000256200006560201b60201c565b6200006c60201b60201c565b5f60015f015f6101000a81548160ff021916908360058111156200005a57620000596200012d565b5b02179055506200015a565b5f33905090565b5f805f9054906101000a900473ffffffffffffffffffffffffffffffffffffffff169050815f806101000a81548173ffffffffffffffffffffffffffffffffffffffff021916908373ffffffffffffffffffffffffffffffffffffffff1602179055508173ffffffffffffffffffffffffffffffffffffffff168173ffffffffffffffffffffffffffffffffffffffff167f8be0079c531659141344cd1fd0a4f28419497f9722a3daafe3b4186f6b6457e060405160405180910390a35050565b7f4e487b71000000000000000000000000000000000000000000000000000000005f52602160045260245ffd5b61265480620001685f395ff3fe608060405234801561000f575f80fd5b506004361061011f575f3560e01c80638da5cb5b116100ab578063d55ec9c11161006f578063d55ec9c11461025b578063e85a8f2a14610277578063f2fde38b14610281578063f74c168d1461029d578063f8a3ce82146102a75761011f565b80638da5cb5b146101ed5780638e7ea5b21461020b578063aaa9834614610229578063b9830ff114610233578063cceb68f51461023d5761011f565b806335bbe70e116100f257806335bbe70e1461016f578063378a21781461018d57806338db6dd3146101975780636edb2860146101b3578063715018a6146101e35761011f565b80630121b93f146101235780630b9bc2a01461013f5780630f7e2838146101495780632f95355b14610153575b5f80fd5b61013d60048036038101906101389190611a5c565b6102b1565b005b610147610542565b005b6101516105de565b005b61016d60048036038101906101689190611bc3565b610708565b005b610177610848565b6040516101849190611cf1565b60405180910390f35b610195610965565b005b6101b160048036038101906101ac9190611d3b565b610a8e565b005b6101cd60048036038101906101c89190611d3b565b610c73565b6040516101da9190611d75565b60405180910390f35b6101eb610cbe565b005b6101f5610cd1565b6040516102029190611d9d565b60405180910390f35b610213610cf8565b6040516102209190611d75565b60405180910390f35b610231610d9d565b005b61023b610e3b565b005b610245610ed7565b6040516102529190611f34565b60405180910390f35b61027560048036038101906102709190612018565b6110d4565b005b61027f611129565b005b61029b60048036038101906102969190611d3b565b6111c7565b005b6102a5611249565b005b6102af6112e7565b005b600180015f3373ffffffffffffffffffffffffffffffffffffffff1673ffffffffffffffffffffffffffffffffffffffff1681526020019081526020015f205f015f9054906101000a900460ff1661034057336040517faffa818a0000000000000000000000000000000000000000000000000000000081526004016103379190611d9d565b60405180910390fd5b600160030180549050811015801561035757505f81145b1561039957806040517f442633c80000000000000000000000000000000000000000000000000000000081526004016103909190611d75565b60405180910390fd5b600180015f3373ffffffffffffffffffffffffffffffffffffffff1673ffffffffffffffffffffffffffffffffffffffff1681526020019081526020015f205f0160019054906101000a900460ff161561042a57336040517fd449d6740000000000000000000000000000000000000000000000000000000081526004016104219190611d9d565b60405180910390fd5b6001806001015f3373ffffffffffffffffffffffffffffffffffffffff1673ffffffffffffffffffffffffffffffffffffffff1681526020019081526020015f205f0160016101000a81548160ff02191690831515021790555080600180015f3373ffffffffffffffffffffffffffffffffffffffff1673ffffffffffffffffffffffffffffffffffffffff1681526020019081526020015f2060010181905550600160030181815481106104e2576104e161205f565b5b905f5260205f2090600202016001015f815480929190610501906120b9565b91905055507f4d99b957a2bc29a30ebd96a7be8e68fe50a3c701db28a91436490b7d53870ca43382604051610537929190612100565b60405180910390a150565b61054a611382565b5f60015f015f9054906101000a900460ff169050600360015f015f6101000a81548160ff0219169083600581111561058557610584612127565b5b0217905550610592611400565b7f0a97a4ee45751e2abf3e4fc8946939630b11b371ea8ae39ccdc3056e98f5cc3f8160015f015f9054906101000a900460ff166040516105d392919061219a565b60405180910390a150565b6105e6611382565b6105ef5f61155c565b5f60015f015f9054906101000a900460ff1690506001805f015f6101000a81548160ff0219169083600581111561062957610628612127565b5b021790555060405180604001604052806040518060400160405280600d81526020017f766f69642062756c6c6574696e0000000000000000000000000000000000000081525081526020015f81525060016003015f8154811061068f5761068e61205f565b5b905f5260205f2090600202015f820151815f0190816106ae91906123bb565b50602082015181600101559050507f0a97a4ee45751e2abf3e4fc8946939630b11b371ea8ae39ccdc3056e98f5cc3f8160015f015f9054906101000a900460ff166040516106fd92919061219a565b60405180910390a150565b600180015f3373ffffffffffffffffffffffffffffffffffffffff1673ffffffffffffffffffffffffffffffffffffffff1681526020019081526020015f205f015f9054906101000a900460ff1661079757336040517faffa818a00000000000000000000000000000000000000000000000000000000815260040161078e9190611d9d565b60405180910390fd5b6107a1600161155c565b5f6001600301805490509050600160030160405180604001604052808481526020015f815250908060018154018082558091505060019003905f5260205f2090600202015f909190919091505f820151815f01908161080091906123bb565b506020820151816001015550507f92e393e9b54e2f801d3ea4beb0c5e71a21cc34a5d34b77d0fb8a3aa1650dc18f8160405161083c9190611d75565b60405180910390a15050565b6060600180015f3373ffffffffffffffffffffffffffffffffffffffff1673ffffffffffffffffffffffffffffffffffffffff1681526020019081526020015f205f015f9054906101000a900460ff166108d957336040517faffa818a0000000000000000000000000000000000000000000000000000000081526004016108d09190611d9d565b60405180910390fd5b600160020180548060200260200160405190810160405280929190818152602001828054801561095b57602002820191905f5260205f20905b815f9054906101000a900473ffffffffffffffffffffffffffffffffffffffff1673ffffffffffffffffffffffffffffffffffffffff1681526020019060010190808311610912575b5050505050905090565b61096f600361155c565b5f805f600190505b6001600301805490508110156109f557826001600301828154811061099f5761099e61205f565b5b905f5260205f2090600202016001015411156109e257600160030181815481106109cc576109cb61205f565b5b905f5260205f2090600202016001015492508091505b80806109ed906120b9565b915050610977565b50806001600401819055505f60015f015f9054906101000a900460ff169050600560015f015f6101000a81548160ff02191690836005811115610a3b57610a3a612127565b5b02179055507f0a97a4ee45751e2abf3e4fc8946939630b11b371ea8ae39ccdc3056e98f5cc3f8160015f015f9054906101000a900460ff16604051610a8192919061219a565b60405180910390a1505050565b610a96611382565b610a9f5f61155c565b600180015f8273ffffffffffffffffffffffffffffffffffffffff1673ffffffffffffffffffffffffffffffffffffffff1681526020019081526020015f205f015f9054906101000a900460ff16610b2e57806040517f7ecf313d000000000000000000000000000000000000000000000000000000008152600401610b259190611d9d565b60405180910390fd5b600160020181908060018154018082558091505060019003905f5260205f20015f9091909190916101000a81548173ffffffffffffffffffffffffffffffffffffffff021916908373ffffffffffffffffffffffffffffffffffffffff16021790555060405180606001604052806001151581526020015f151581526020015f815250600180015f8373ffffffffffffffffffffffffffffffffffffffff1673ffffffffffffffffffffffffffffffffffffffff1681526020019081526020015f205f820151815f015f6101000a81548160ff0219169083151502179055506020820151815f0160016101000a81548160ff021916908315150217905550604082015181600101559050507fb6be2187d059cc2a55fe29e0e503b566e1e0f8c8780096e185429350acffd3dd81604051610c689190611d9d565b60405180910390a150565b5f600180015f8373ffffffffffffffffffffffffffffffffffffffff1673ffffffffffffffffffffffffffffffffffffffff1681526020019081526020015f20600101549050919050565b610cc6611382565b610ccf5f6115e9565b565b5f805f9054906101000a900473ffffffffffffffffffffffffffffffffffffffff16905090565b5f600180015f3373ffffffffffffffffffffffffffffffffffffffff1673ffffffffffffffffffffffffffffffffffffffff1681526020019081526020015f205f015f9054906101000a900460ff16610d8857336040517faffa818a000000000000000000000000000000000000000000000000000000008152600401610d7f9190611d9d565b60405180910390fd5b610d92600561155c565b600160040154905090565b610da5611382565b610daf600261155c565b5f60015f015f9054906101000a900460ff169050600360015f015f6101000a81548160ff02191690836005811115610dea57610de9612127565b5b02179055507f0a97a4ee45751e2abf3e4fc8946939630b11b371ea8ae39ccdc3056e98f5cc3f8160015f015f9054906101000a900460ff16604051610e3092919061219a565b60405180910390a150565b610e43611382565b5f60015f015f9054906101000a900460ff169050600360015f015f6101000a81548160ff02191690836005811115610e7e57610e7d612127565b5b0217905550610e8b6116aa565b7f0a97a4ee45751e2abf3e4fc8946939630b11b371ea8ae39ccdc3056e98f5cc3f8160015f015f9054906101000a900460ff16604051610ecc92919061219a565b60405180910390a150565b6060600180015f3373ffffffffffffffffffffffffffffffffffffffff1673ffffffffffffffffffffffffffffffffffffffff1681526020019081526020015f205f015f9054906101000a900460ff16610f6857336040517faffa818a000000000000000000000000000000000000000000000000000000008152600401610f5f9190611d9d565b60405180910390fd5b5f6005811115610f7b57610f7a612127565b5b60015f015f9054906101000a900460ff166005811115610f9e57610f9d612127565b5b03610fde576040517f08c379a0000000000000000000000000000000000000000000000000000000008152600401610fd59061250a565b60405180910390fd5b6001600301805480602002602001604051908101604052809291908181526020015f905b828210156110cb578382905f5260205f2090600202016040518060400160405290815f82018054611032906121ee565b80601f016020809104026020016040519081016040528092919081815260200182805461105e906121ee565b80156110a95780601f10611080576101008083540402835291602001916110a9565b820191905f5260205f20905b81548152906001019060200180831161108c57829003601f168201915b5050505050815260200160018201548152505081526020019060010190611002565b50505050905090565b6110dc611382565b6110e55f61155c565b5f5b81518111611125576111128282815181106111055761110461205f565b5b6020026020010151610a8e565b808061111d906120b9565b9150506110e7565b5050565b611131611382565b61113b600161155c565b5f60015f015f9054906101000a900460ff169050600260015f015f6101000a81548160ff0219169083600581111561117657611175612127565b5b02179055507f0a97a4ee45751e2abf3e4fc8946939630b11b371ea8ae39ccdc3056e98f5cc3f8160015f015f9054906101000a900460ff166040516111bc92919061219a565b60405180910390a150565b6111cf611382565b5f73ffffffffffffffffffffffffffffffffffffffff168173ffffffffffffffffffffffffffffffffffffffff160361123d576040517f08c379a000000000000000000000000000000000000000000000000000000000815260040161123490612598565b60405180910390fd5b611246816115e9565b50565b611251611382565b61125b600361155c565b5f60015f015f9054906101000a900460ff169050600460015f015f6101000a81548160ff0219169083600581111561129657611295612127565b5b02179055507f0a97a4ee45751e2abf3e4fc8946939630b11b371ea8ae39ccdc3056e98f5cc3f8160015f015f9054906101000a900460ff166040516112dc92919061219a565b60405180910390a150565b6112ef611382565b5f60015f015f9054906101000a900460ff1690505f60015f015f6101000a81548160ff0219169083600581111561132957611328612127565b5b0217905550611336611847565b7f0a97a4ee45751e2abf3e4fc8946939630b11b371ea8ae39ccdc3056e98f5cc3f8160015f015f9054906101000a900460ff1660405161137792919061219a565b60405180910390a150565b61138a61196c565b73ffffffffffffffffffffffffffffffffffffffff166113a8610cd1565b73ffffffffffffffffffffffffffffffffffffffff16146113fe576040517f08c379a00000000000000000000000000000000000000000000000000000000081526004016113f590612600565b60405180910390fd5b565b611408611382565b60016003015f6114189190611973565b5f5b600160020180549050811015611559575f600180015f600160020184815481106114475761144661205f565b5b905f5260205f20015f9054906101000a900473ffffffffffffffffffffffffffffffffffffffff1673ffffffffffffffffffffffffffffffffffffffff1673ffffffffffffffffffffffffffffffffffffffff1681526020019081526020015f205f0160016101000a81548160ff0219169083151502179055505f600180015f600160020184815481106114de576114dd61205f565b5b905f5260205f20015f9054906101000a900473ffffffffffffffffffffffffffffffffffffffff1673ffffffffffffffffffffffffffffffffffffffff1673ffffffffffffffffffffffffffffffffffffffff1681526020019081526020015f20600101819055508080611551906120b9565b91505061141a565b50565b80600581111561156f5761156e612127565b5b60015f015f9054906101000a900460ff16600581111561159257611591612127565b5b146115e6578060015f015f9054906101000a900460ff166040517f586a712d0000000000000000000000000000000000000000000000000000000081526004016115dd92919061219a565b60405180910390fd5b50565b5f805f9054906101000a900473ffffffffffffffffffffffffffffffffffffffff169050815f806101000a81548173ffffffffffffffffffffffffffffffffffffffff021916908373ffffffffffffffffffffffffffffffffffffffff1602179055508173ffffffffffffffffffffffffffffffffffffffff168173ffffffffffffffffffffffffffffffffffffffff167f8be0079c531659141344cd1fd0a4f28419497f9722a3daafe3b4186f6b6457e060405160405180910390a35050565b6116b2611382565b5f5b6001600201805490508110156117f3575f600180015f600160020184815481106116e1576116e061205f565b5b905f5260205f20015f9054906101000a900473ffffffffffffffffffffffffffffffffffffffff1673ffffffffffffffffffffffffffffffffffffffff1673ffffffffffffffffffffffffffffffffffffffff1681526020019081526020015f205f0160016101000a81548160ff0219169083151502179055505f600180015f600160020184815481106117785761177761205f565b5b905f5260205f20015f9054906101000a900473ffffffffffffffffffffffffffffffffffffffff1673ffffffffffffffffffffffffffffffffffffffff1673ffffffffffffffffffffffffffffffffffffffff1681526020019081526020015f206001018190555080806117eb906120b9565b9150506116b4565b505f5b600160030180549050811015611844575f6001600301828154811061181e5761181d61205f565b5b905f5260205f20906002020160010181905550808061183c906120b9565b9150506117f6565b50565b61184f611382565b60016003015f61185f9190611973565b5f5b6001600201805490508110156119695760405180606001604052805f151581526020015f151581526020015f815250600180015f600160020184815481106118ac576118ab61205f565b5b905f5260205f20015f9054906101000a900473ffffffffffffffffffffffffffffffffffffffff1673ffffffffffffffffffffffffffffffffffffffff1673ffffffffffffffffffffffffffffffffffffffff1681526020019081526020015f205f820151815f015f6101000a81548160ff0219169083151502179055506020820151815f0160016101000a81548160ff021916908315150217905550604082015181600101559050508080611961906120b9565b915050611861565b50565b5f33905090565b5080545f8255600202905f5260205f20908101906119919190611994565b50565b5b808211156119bc575f8082015f6119ac91906119c0565b600182015f905550600201611995565b5090565b5080546119cc906121ee565b5f825580601f106119dd57506119fa565b601f0160209004905f5260205f20908101906119f991906119fd565b5b50565b5b80821115611a14575f815f9055506001016119fe565b5090565b5f604051905090565b5f80fd5b5f80fd5b5f819050919050565b611a3b81611a29565b8114611a45575f80fd5b50565b5f81359050611a5681611a32565b92915050565b5f60208284031215611a7157611a70611a21565b5b5f611a7e84828501611a48565b91505092915050565b5f80fd5b5f80fd5b5f601f19601f8301169050919050565b7f4e487b71000000000000000000000000000000000000000000000000000000005f52604160045260245ffd5b611ad582611a8f565b810181811067ffffffffffffffff82111715611af457611af3611a9f565b5b80604052505050565b5f611b06611a18565b9050611b128282611acc565b919050565b5f67ffffffffffffffff821115611b3157611b30611a9f565b5b611b3a82611a8f565b9050602081019050919050565b828183375f83830152505050565b5f611b67611b6284611b17565b611afd565b905082815260208101848484011115611b8357611b82611a8b565b5b611b8e848285611b47565b509392505050565b5f82601f830112611baa57611ba9611a87565b5b8135611bba848260208601611b55565b91505092915050565b5f60208284031215611bd857611bd7611a21565b5b5f82013567ffffffffffffffff811115611bf557611bf4611a25565b5b611c0184828501611b96565b91505092915050565b5f81519050919050565b5f82825260208201905092915050565b5f819050602082019050919050565b5f73ffffffffffffffffffffffffffffffffffffffff82169050919050565b5f611c5c82611c33565b9050919050565b611c6c81611c52565b82525050565b5f611c7d8383611c63565b60208301905092915050565b5f602082019050919050565b5f611c9f82611c0a565b611ca98185611c14565b9350611cb483611c24565b805f5b83811015611ce4578151611ccb8882611c72565b9750611cd683611c89565b925050600181019050611cb7565b5085935050505092915050565b5f6020820190508181035f830152611d098184611c95565b905092915050565b611d1a81611c52565b8114611d24575f80fd5b50565b5f81359050611d3581611d11565b92915050565b5f60208284031215611d5057611d4f611a21565b5b5f611d5d84828501611d27565b91505092915050565b611d6f81611a29565b82525050565b5f602082019050611d885f830184611d66565b92915050565b611d9781611c52565b82525050565b5f602082019050611db05f830184611d8e565b92915050565b5f81519050919050565b5f82825260208201905092915050565b5f819050602082019050919050565b5f81519050919050565b5f82825260208201905092915050565b5f5b83811015611e16578082015181840152602081019050611dfb565b5f8484015250505050565b5f611e2b82611ddf565b611e358185611de9565b9350611e45818560208601611df9565b611e4e81611a8f565b840191505092915050565b611e6281611a29565b82525050565b5f604083015f8301518482035f860152611e828282611e21565b9150506020830151611e976020860182611e59565b508091505092915050565b5f611ead8383611e68565b905092915050565b5f602082019050919050565b5f611ecb82611db6565b611ed58185611dc0565b935083602082028501611ee785611dd0565b805f5b85811015611f225784840389528151611f038582611ea2565b9450611f0e83611eb5565b925060208a01995050600181019050611eea565b50829750879550505050505092915050565b5f6020820190508181035f830152611f4c8184611ec1565b905092915050565b5f67ffffffffffffffff821115611f6e57611f6d611a9f565b5b602082029050602081019050919050565b5f80fd5b5f611f95611f9084611f54565b611afd565b90508083825260208201905060208402830185811115611fb857611fb7611f7f565b5b835b81811015611fe15780611fcd8882611d27565b845260208401935050602081019050611fba565b5050509392505050565b5f82601f830112611fff57611ffe611a87565b5b813561200f848260208601611f83565b91505092915050565b5f6020828403121561202d5761202c611a21565b5b5f82013567ffffffffffffffff81111561204a57612049611a25565b5b61205684828501611feb565b91505092915050565b7f4e487b71000000000000000000000000000000000000000000000000000000005f52603260045260245ffd5b7f4e487b71000000000000000000000000000000000000000000000000000000005f52601160045260245ffd5b5f6120c382611a29565b91507fffffffffffffffffffffffffffffffffffffffffffffffffffffffffffffffff82036120f5576120f461208c565b5b600182019050919050565b5f6040820190506121135f830185611d8e565b6121206020830184611d66565b9392505050565b7f4e487b71000000000000000000000000000000000000000000000000000000005f52602160045260245ffd5b6006811061216557612164612127565b5b50565b5f81905061217582612154565b919050565b5f61218482612168565b9050919050565b6121948161217a565b82525050565b5f6040820190506121ad5f83018561218b565b6121ba602083018461218b565b9392505050565b7f4e487b71000000000000000000000000000000000000000000000000000000005f52602260045260245ffd5b5f600282049050600182168061220557607f821691505b602082108103612218576122176121c1565b5b50919050565b5f819050815f5260205f209050919050565b5f6020601f8301049050919050565b5f82821b905092915050565b5f6008830261227a7fffffffffffffffffffffffffffffffffffffffffffffffffffffffffffffffff8261223f565b612284868361223f565b95508019841693508086168417925050509392505050565b5f819050919050565b5f6122bf6122ba6122b584611a29565b61229c565b611a29565b9050919050565b5f819050919050565b6122d8836122a5565b6122ec6122e4826122c6565b84845461224b565b825550505050565b5f90565b6123006122f4565b61230b8184846122cf565b505050565b5b8181101561232e576123235f826122f8565b600181019050612311565b5050565b601f821115612373576123448161221e565b61234d84612230565b8101602085101561235c578190505b61237061236885612230565b830182612310565b50505b505050565b5f82821c905092915050565b5f6123935f1984600802612378565b1980831691505092915050565b5f6123ab8383612384565b9150826002028217905092915050565b6123c482611ddf565b67ffffffffffffffff8111156123dd576123dc611a9f565b5b6123e782546121ee565b6123f2828285612332565b5f60209050601f831160018114612423575f8415612411578287015190505b61241b85826123a0565b865550612482565b601f1984166124318661221e565b5f5b8281101561245857848901518255600182019150602085019450602081019050612433565b868310156124755784890151612471601f891682612384565b8355505b6001600288020188555050505b505050505050565b5f82825260208201905092915050565b7f506c65617365207761697420766f746572732720726567697374726174696f6e5f8201527f20746f20626520636c6f73656400000000000000000000000000000000000000602082015250565b5f6124f4602d8361248a565b91506124ff8261249a565b604082019050919050565b5f6020820190508181035f830152612521816124e8565b9050919050565b7f4f776e61626c653a206e6577206f776e657220697320746865207a65726f20615f8201527f6464726573730000000000000000000000000000000000000000000000000000602082015250565b5f61258260268361248a565b915061258d82612528565b604082019050919050565b5f6020820190508181035f8301526125af81612576565b9050919050565b7f4f776e61626c653a2063616c6c6572206973206e6f7420746865206f776e65725f82015250565b5f6125ea60208361248a565b91506125f5826125b6565b602082019050919050565b5f6020820190508181035f830152612617816125de565b905091905056fea2646970667358221220bc1657e9152325484b94897948e64bc62ec723be553331a8825c00c7c3d5622f64736f6c63430008140033",
					"opcodes": "PUSH1 0x80 PUSH1 0x40 MSTORE CALLVALUE DUP1 ISZERO PUSH3 0x10 JUMPI PUSH0 DUP1 REVERT JUMPDEST POP PUSH3 0x31 PUSH3 0x25 PUSH3 0x65 PUSH1 0x20 SHL PUSH1 0x20 SHR JUMP JUMPDEST PUSH3 0x6C PUSH1 0x20 SHL PUSH1 0x20 SHR JUMP JUMPDEST PUSH0 PUSH1 0x1 PUSH0 ADD PUSH0 PUSH2 0x100 EXP DUP2 SLOAD DUP2 PUSH1 0xFF MUL NOT AND SWAP1 DUP4 PUSH1 0x5 DUP2 GT ISZERO PUSH3 0x5A JUMPI PUSH3 0x59 PUSH3 0x12D JUMP JUMPDEST JUMPDEST MUL OR SWAP1 SSTORE POP PUSH3 0x15A JUMP JUMPDEST PUSH0 CALLER SWAP1 POP SWAP1 JUMP JUMPDEST PUSH0 DUP1 PUSH0 SWAP1 SLOAD SWAP1 PUSH2 0x100 EXP SWAP1 DIV PUSH20 0xFFFFFFFFFFFFFFFFFFFFFFFFFFFFFFFFFFFFFFFF AND SWAP1 POP DUP2 PUSH0 DUP1 PUSH2 0x100 EXP DUP2 SLOAD DUP2 PUSH20 0xFFFFFFFFFFFFFFFFFFFFFFFFFFFFFFFFFFFFFFFF MUL NOT AND SWAP1 DUP4 PUSH20 0xFFFFFFFFFFFFFFFFFFFFFFFFFFFFFFFFFFFFFFFF AND MUL OR SWAP1 SSTORE POP DUP2 PUSH20 0xFFFFFFFFFFFFFFFFFFFFFFFFFFFFFFFFFFFFFFFF AND DUP2 PUSH20 0xFFFFFFFFFFFFFFFFFFFFFFFFFFFFFFFFFFFFFFFF AND PUSH32 0x8BE0079C531659141344CD1FD0A4F28419497F9722A3DAAFE3B4186F6B6457E0 PUSH1 0x40 MLOAD PUSH1 0x40 MLOAD DUP1 SWAP2 SUB SWAP1 LOG3 POP POP JUMP JUMPDEST PUSH32 0x4E487B7100000000000000000000000000000000000000000000000000000000 PUSH0 MSTORE PUSH1 0x21 PUSH1 0x4 MSTORE PUSH1 0x24 PUSH0 REVERT JUMPDEST PUSH2 0x2654 DUP1 PUSH3 0x168 PUSH0 CODECOPY PUSH0 RETURN INVALID PUSH1 0x80 PUSH1 0x40 MSTORE CALLVALUE DUP1 ISZERO PUSH2 0xF JUMPI PUSH0 DUP1 REVERT JUMPDEST POP PUSH1 0x4 CALLDATASIZE LT PUSH2 0x11F JUMPI PUSH0 CALLDATALOAD PUSH1 0xE0 SHR DUP1 PUSH4 0x8DA5CB5B GT PUSH2 0xAB JUMPI DUP1 PUSH4 0xD55EC9C1 GT PUSH2 0x6F JUMPI DUP1 PUSH4 0xD55EC9C1 EQ PUSH2 0x25B JUMPI DUP1 PUSH4 0xE85A8F2A EQ PUSH2 0x277 JUMPI DUP1 PUSH4 0xF2FDE38B EQ PUSH2 0x281 JUMPI DUP1 PUSH4 0xF74C168D EQ PUSH2 0x29D JUMPI DUP1 PUSH4 0xF8A3CE82 EQ PUSH2 0x2A7 JUMPI PUSH2 0x11F JUMP JUMPDEST DUP1 PUSH4 0x8DA5CB5B EQ PUSH2 0x1ED JUMPI DUP1 PUSH4 0x8E7EA5B2 EQ PUSH2 0x20B JUMPI DUP1 PUSH4 0xAAA98346 EQ PUSH2 0x229 JUMPI DUP1 PUSH4 0xB9830FF1 EQ PUSH2 0x233 JUMPI DUP1 PUSH4 0xCCEB68F5 EQ PUSH2 0x23D JUMPI PUSH2 0x11F JUMP JUMPDEST DUP1 PUSH4 0x35BBE70E GT PUSH2 0xF2 JUMPI DUP1 PUSH4 0x35BBE70E EQ PUSH2 0x16F JUMPI DUP1 PUSH4 0x378A2178 EQ PUSH2 0x18D JUMPI DUP1 PUSH4 0x38DB6DD3 EQ PUSH2 0x197 JUMPI DUP1 PUSH4 0x6EDB2860 EQ PUSH2 0x1B3 JUMPI DUP1 PUSH4 0x715018A6 EQ PUSH2 0x1E3 JUMPI PUSH2 0x11F JUMP JUMPDEST DUP1 PUSH4 0x121B93F EQ PUSH2 0x123 JUMPI DUP1 PUSH4 0xB9BC2A0 EQ PUSH2 0x13F JUMPI DUP1 PUSH4 0xF7E2838 EQ PUSH2 0x149 JUMPI DUP1 PUSH4 0x2F95355B EQ PUSH2 0x153 JUMPI JUMPDEST PUSH0 DUP1 REVERT JUMPDEST PUSH2 0x13D PUSH1 0x4 DUP1 CALLDATASIZE SUB DUP2 ADD SWAP1 PUSH2 0x138 SWAP2 SWAP1 PUSH2 0x1A5C JUMP JUMPDEST PUSH2 0x2B1 JUMP JUMPDEST STOP JUMPDEST PUSH2 0x147 PUSH2 0x542 JUMP JUMPDEST STOP JUMPDEST PUSH2 0x151 PUSH2 0x5DE JUMP JUMPDEST STOP JUMPDEST PUSH2 0x16D PUSH1 0x4 DUP1 CALLDATASIZE SUB DUP2 ADD SWAP1 PUSH2 0x168 SWAP2 SWAP1 PUSH2 0x1BC3 JUMP JUMPDEST PUSH2 0x708 JUMP JUMPDEST STOP JUMPDEST PUSH2 0x177 PUSH2 0x848 JUMP JUMPDEST PUSH1 0x40 MLOAD PUSH2 0x184 SWAP2 SWAP1 PUSH2 0x1CF1 JUMP JUMPDEST PUSH1 0x40 MLOAD DUP1 SWAP2 SUB SWAP1 RETURN JUMPDEST PUSH2 0x195 PUSH2 0x965 JUMP JUMPDEST STOP JUMPDEST PUSH2 0x1B1 PUSH1 0x4 DUP1 CALLDATASIZE SUB DUP2 ADD SWAP1 PUSH2 0x1AC SWAP2 SWAP1 PUSH2 0x1D3B JUMP JUMPDEST PUSH2 0xA8E JUMP JUMPDEST STOP JUMPDEST PUSH2 0x1CD PUSH1 0x4 DUP1 CALLDATASIZE SUB DUP2 ADD SWAP1 PUSH2 0x1C8 SWAP2 SWAP1 PUSH2 0x1D3B JUMP JUMPDEST PUSH2 0xC73 JUMP JUMPDEST PUSH1 0x40 MLOAD PUSH2 0x1DA SWAP2 SWAP1 PUSH2 0x1D75 JUMP JUMPDEST PUSH1 0x40 MLOAD DUP1 SWAP2 SUB SWAP1 RETURN JUMPDEST PUSH2 0x1EB PUSH2 0xCBE JUMP JUMPDEST STOP JUMPDEST PUSH2 0x1F5 PUSH2 0xCD1 JUMP JUMPDEST PUSH1 0x40 MLOAD PUSH2 0x202 SWAP2 SWAP1 PUSH2 0x1D9D JUMP JUMPDEST PUSH1 0x40 MLOAD DUP1 SWAP2 SUB SWAP1 RETURN JUMPDEST PUSH2 0x213 PUSH2 0xCF8 JUMP JUMPDEST PUSH1 0x40 MLOAD PUSH2 0x220 SWAP2 SWAP1 PUSH2 0x1D75 JUMP JUMPDEST PUSH1 0x40 MLOAD DUP1 SWAP2 SUB SWAP1 RETURN JUMPDEST PUSH2 0x231 PUSH2 0xD9D JUMP JUMPDEST STOP JUMPDEST PUSH2 0x23B PUSH2 0xE3B JUMP JUMPDEST STOP JUMPDEST PUSH2 0x245 PUSH2 0xED7 JUMP JUMPDEST PUSH1 0x40 MLOAD PUSH2 0x252 SWAP2 SWAP1 PUSH2 0x1F34 JUMP JUMPDEST PUSH1 0x40 MLOAD DUP1 SWAP2 SUB SWAP1 RETURN JUMPDEST PUSH2 0x275 PUSH1 0x4 DUP1 CALLDATASIZE SUB DUP2 ADD SWAP1 PUSH2 0x270 SWAP2 SWAP1 PUSH2 0x2018 JUMP JUMPDEST PUSH2 0x10D4 JUMP JUMPDEST STOP JUMPDEST PUSH2 0x27F PUSH2 0x1129 JUMP JUMPDEST STOP JUMPDEST PUSH2 0x29B PUSH1 0x4 DUP1 CALLDATASIZE SUB DUP2 ADD SWAP1 PUSH2 0x296 SWAP2 SWAP1 PUSH2 0x1D3B JUMP JUMPDEST PUSH2 0x11C7 JUMP JUMPDEST STOP JUMPDEST PUSH2 0x2A5 PUSH2 0x1249 JUMP JUMPDEST STOP JUMPDEST PUSH2 0x2AF PUSH2 0x12E7 JUMP JUMPDEST STOP JUMPDEST PUSH1 0x1 DUP1 ADD PUSH0 CALLER PUSH20 0xFFFFFFFFFFFFFFFFFFFFFFFFFFFFFFFFFFFFFFFF AND PUSH20 0xFFFFFFFFFFFFFFFFFFFFFFFFFFFFFFFFFFFFFFFF AND DUP2 MSTORE PUSH1 0x20 ADD SWAP1 DUP2 MSTORE PUSH1 0x20 ADD PUSH0 KECCAK256 PUSH0 ADD PUSH0 SWAP1 SLOAD SWAP1 PUSH2 0x100 EXP SWAP1 DIV PUSH1 0xFF AND PUSH2 0x340 JUMPI CALLER PUSH1 0x40 MLOAD PUSH32 0xAFFA818A00000000000000000000000000000000000000000000000000000000 DUP2 MSTORE PUSH1 0x4 ADD PUSH2 0x337 SWAP2 SWAP1 PUSH2 0x1D9D JUMP JUMPDEST PUSH1 0x40 MLOAD DUP1 SWAP2 SUB SWAP1 REVERT JUMPDEST PUSH1 0x1 PUSH1 0x3 ADD DUP1 SLOAD SWAP1 POP DUP2 LT ISZERO DUP1 ISZERO PUSH2 0x357 JUMPI POP PUSH0 DUP2 EQ JUMPDEST ISZERO PUSH2 0x399 JUMPI DUP1 PUSH1 0x40 MLOAD PUSH32 0x442633C800000000000000000000000000000000000000000000000000000000 DUP2 MSTORE PUSH1 0x4 ADD PUSH2 0x390 SWAP2 SWAP1 PUSH2 0x1D75 JUMP JUMPDEST PUSH1 0x40 MLOAD DUP1 SWAP2 SUB SWAP1 REVERT JUMPDEST PUSH1 0x1 DUP1 ADD PUSH0 CALLER PUSH20 0xFFFFFFFFFFFFFFFFFFFFFFFFFFFFFFFFFFFFFFFF AND PUSH20 0xFFFFFFFFFFFFFFFFFFFFFFFFFFFFFFFFFFFFFFFF AND DUP2 MSTORE PUSH1 0x20 ADD SWAP1 DUP2 MSTORE PUSH1 0x20 ADD PUSH0 KECCAK256 PUSH0 ADD PUSH1 0x1 SWAP1 SLOAD SWAP1 PUSH2 0x100 EXP SWAP1 DIV PUSH1 0xFF AND ISZERO PUSH2 0x42A JUMPI CALLER PUSH1 0x40 MLOAD PUSH32 0xD449D67400000000000000000000000000000000000000000000000000000000 DUP2 MSTORE PUSH1 0x4 ADD PUSH2 0x421 SWAP2 SWAP1 PUSH2 0x1D9D JUMP JUMPDEST PUSH1 0x40 MLOAD DUP1 SWAP2 SUB SWAP1 REVERT JUMPDEST PUSH1 0x1 DUP1 PUSH1 0x1 ADD PUSH0 CALLER PUSH20 0xFFFFFFFFFFFFFFFFFFFFFFFFFFFFFFFFFFFFFFFF AND PUSH20 0xFFFFFFFFFFFFFFFFFFFFFFFFFFFFFFFFFFFFFFFF AND DUP2 MSTORE PUSH1 0x20 ADD SWAP1 DUP2 MSTORE PUSH1 0x20 ADD PUSH0 KECCAK256 PUSH0 ADD PUSH1 0x1 PUSH2 0x100 EXP DUP2 SLOAD DUP2 PUSH1 0xFF MUL NOT AND SWAP1 DUP4 ISZERO ISZERO MUL OR SWAP1 SSTORE POP DUP1 PUSH1 0x1 DUP1 ADD PUSH0 CALLER PUSH20 0xFFFFFFFFFFFFFFFFFFFFFFFFFFFFFFFFFFFFFFFF AND PUSH20 0xFFFFFFFFFFFFFFFFFFFFFFFFFFFFFFFFFFFFFFFF AND DUP2 MSTORE PUSH1 0x20 ADD SWAP1 DUP2 MSTORE PUSH1 0x20 ADD PUSH0 KECCAK256 PUSH1 0x1 ADD DUP2 SWAP1 SSTORE POP PUSH1 0x1 PUSH1 0x3 ADD DUP2 DUP2 SLOAD DUP2 LT PUSH2 0x4E2 JUMPI PUSH2 0x4E1 PUSH2 0x205F JUMP JUMPDEST JUMPDEST SWAP1 PUSH0 MSTORE PUSH1 0x20 PUSH0 KECCAK256 SWAP1 PUSH1 0x2 MUL ADD PUSH1 0x1 ADD PUSH0 DUP2 SLOAD DUP1 SWAP3 SWAP2 SWAP1 PUSH2 0x501 SWAP1 PUSH2 0x20B9 JUMP JUMPDEST SWAP2 SWAP1 POP SSTORE POP PUSH32 0x4D99B957A2BC29A30EBD96A7BE8E68FE50A3C701DB28A91436490B7D53870CA4 CALLER DUP3 PUSH1 0x40 MLOAD PUSH2 0x537 SWAP3 SWAP2 SWAP1 PUSH2 0x2100 JUMP JUMPDEST PUSH1 0x40 MLOAD DUP1 SWAP2 SUB SWAP1 LOG1 POP JUMP JUMPDEST PUSH2 0x54A PUSH2 0x1382 JUMP JUMPDEST PUSH0 PUSH1 0x1 PUSH0 ADD PUSH0 SWAP1 SLOAD SWAP1 PUSH2 0x100 EXP SWAP1 DIV PUSH1 0xFF AND SWAP1 POP PUSH1 0x3 PUSH1 0x1 PUSH0 ADD PUSH0 PUSH2 0x100 EXP DUP2 SLOAD DUP2 PUSH1 0xFF MUL NOT AND SWAP1 DUP4 PUSH1 0x5 DUP2 GT ISZERO PUSH2 0x585 JUMPI PUSH2 0x584 PUSH2 0x2127 JUMP JUMPDEST JUMPDEST MUL OR SWAP1 SSTORE POP PUSH2 0x592 PUSH2 0x1400 JUMP JUMPDEST PUSH32 0xA97A4EE45751E2ABF3E4FC8946939630B11B371EA8AE39CCDC3056E98F5CC3F DUP2 PUSH1 0x1 PUSH0 ADD PUSH0 SWAP1 SLOAD SWAP1 PUSH2 0x100 EXP SWAP1 DIV PUSH1 0xFF AND PUSH1 0x40 MLOAD PUSH2 0x5D3 SWAP3 SWAP2 SWAP1 PUSH2 0x219A JUMP JUMPDEST PUSH1 0x40 MLOAD DUP1 SWAP2 SUB SWAP1 LOG1 POP JUMP JUMPDEST PUSH2 0x5E6 PUSH2 0x1382 JUMP JUMPDEST PUSH2 0x5EF PUSH0 PUSH2 0x155C JUMP JUMPDEST PUSH0 PUSH1 0x1 PUSH0 ADD PUSH0 SWAP1 SLOAD SWAP1 PUSH2 0x100 EXP SWAP1 DIV PUSH1 0xFF AND SWAP1 POP PUSH1 0x1 DUP1 PUSH0 ADD PUSH0 PUSH2 0x100 EXP DUP2 SLOAD DUP2 PUSH1 0xFF MUL NOT AND SWAP1 DUP4 PUSH1 0x5 DUP2 GT ISZERO PUSH2 0x629 JUMPI PUSH2 0x628 PUSH2 0x2127 JUMP JUMPDEST JUMPDEST MUL OR SWAP1 SSTORE POP PUSH1 0x40 MLOAD DUP1 PUSH1 0x40 ADD PUSH1 0x40 MSTORE DUP1 PUSH1 0x40 MLOAD DUP1 PUSH1 0x40 ADD PUSH1 0x40 MSTORE DUP1 PUSH1 0xD DUP2 MSTORE PUSH1 0x20 ADD PUSH32 0x766F69642062756C6C6574696E00000000000000000000000000000000000000 DUP2 MSTORE POP DUP2 MSTORE PUSH1 0x20 ADD PUSH0 DUP2 MSTORE POP PUSH1 0x1 PUSH1 0x3 ADD PUSH0 DUP2 SLOAD DUP2 LT PUSH2 0x68F JUMPI PUSH2 0x68E PUSH2 0x205F JUMP JUMPDEST JUMPDEST SWAP1 PUSH0 MSTORE PUSH1 0x20 PUSH0 KECCAK256 SWAP1 PUSH1 0x2 MUL ADD PUSH0 DUP3 ADD MLOAD DUP2 PUSH0 ADD SWAP1 DUP2 PUSH2 0x6AE SWAP2 SWAP1 PUSH2 0x23BB JUMP JUMPDEST POP PUSH1 0x20 DUP3 ADD MLOAD DUP2 PUSH1 0x1 ADD SSTORE SWAP1 POP POP PUSH32 0xA97A4EE45751E2ABF3E4FC8946939630B11B371EA8AE39CCDC3056E98F5CC3F DUP2 PUSH1 0x1 PUSH0 ADD PUSH0 SWAP1 SLOAD SWAP1 PUSH2 0x100 EXP SWAP1 DIV PUSH1 0xFF AND PUSH1 0x40 MLOAD PUSH2 0x6FD SWAP3 SWAP2 SWAP1 PUSH2 0x219A JUMP JUMPDEST PUSH1 0x40 MLOAD DUP1 SWAP2 SUB SWAP1 LOG1 POP JUMP JUMPDEST PUSH1 0x1 DUP1 ADD PUSH0 CALLER PUSH20 0xFFFFFFFFFFFFFFFFFFFFFFFFFFFFFFFFFFFFFFFF AND PUSH20 0xFFFFFFFFFFFFFFFFFFFFFFFFFFFFFFFFFFFFFFFF AND DUP2 MSTORE PUSH1 0x20 ADD SWAP1 DUP2 MSTORE PUSH1 0x20 ADD PUSH0 KECCAK256 PUSH0 ADD PUSH0 SWAP1 SLOAD SWAP1 PUSH2 0x100 EXP SWAP1 DIV PUSH1 0xFF AND PUSH2 0x797 JUMPI CALLER PUSH1 0x40 MLOAD PUSH32 0xAFFA818A00000000000000000000000000000000000000000000000000000000 DUP2 MSTORE PUSH1 0x4 ADD PUSH2 0x78E SWAP2 SWAP1 PUSH2 0x1D9D JUMP JUMPDEST PUSH1 0x40 MLOAD DUP1 SWAP2 SUB SWAP1 REVERT JUMPDEST PUSH2 0x7A1 PUSH1 0x1 PUSH2 0x155C JUMP JUMPDEST PUSH0 PUSH1 0x1 PUSH1 0x3 ADD DUP1 SLOAD SWAP1 POP SWAP1 POP PUSH1 0x1 PUSH1 0x3 ADD PUSH1 0x40 MLOAD DUP1 PUSH1 0x40 ADD PUSH1 0x40 MSTORE DUP1 DUP5 DUP2 MSTORE PUSH1 0x20 ADD PUSH0 DUP2 MSTORE POP SWAP1 DUP1 PUSH1 0x1 DUP2 SLOAD ADD DUP1 DUP3 SSTORE DUP1 SWAP2 POP POP PUSH1 0x1 SWAP1 SUB SWAP1 PUSH0 MSTORE PUSH1 0x20 PUSH0 KECCAK256 SWAP1 PUSH1 0x2 MUL ADD PUSH0 SWAP1 SWAP2 SWAP1 SWAP2 SWAP1 SWAP2 POP PUSH0 DUP3 ADD MLOAD DUP2 PUSH0 ADD SWAP1 DUP2 PUSH2 0x800 SWAP2 SWAP1 PUSH2 0x23BB JUMP JUMPDEST POP PUSH1 0x20 DUP3 ADD MLOAD DUP2 PUSH1 0x1 ADD SSTORE POP POP PUSH32 0x92E393E9B54E2F801D3EA4BEB0C5E71A21CC34A5D34B77D0FB8A3AA1650DC18F DUP2 PUSH1 0x40 MLOAD PUSH2 0x83C SWAP2 SWAP1 PUSH2 0x1D75 JUMP JUMPDEST PUSH1 0x40 MLOAD DUP1 SWAP2 SUB SWAP1 LOG1 POP POP JUMP JUMPDEST PUSH1 0x60 PUSH1 0x1 DUP1 ADD PUSH0 CALLER PUSH20 0xFFFFFFFFFFFFFFFFFFFFFFFFFFFFFFFFFFFFFFFF AND PUSH20 0xFFFFFFFFFFFFFFFFFFFFFFFFFFFFFFFFFFFFFFFF AND DUP2 MSTORE PUSH1 0x20 ADD SWAP1 DUP2 MSTORE PUSH1 0x20 ADD PUSH0 KECCAK256 PUSH0 ADD PUSH0 SWAP1 SLOAD SWAP1 PUSH2 0x100 EXP SWAP1 DIV PUSH1 0xFF AND PUSH2 0x8D9 JUMPI CALLER PUSH1 0x40 MLOAD PUSH32 0xAFFA818A00000000000000000000000000000000000000000000000000000000 DUP2 MSTORE PUSH1 0x4 ADD PUSH2 0x8D0 SWAP2 SWAP1 PUSH2 0x1D9D JUMP JUMPDEST PUSH1 0x40 MLOAD DUP1 SWAP2 SUB SWAP1 REVERT JUMPDEST PUSH1 0x1 PUSH1 0x2 ADD DUP1 SLOAD DUP1 PUSH1 0x20 MUL PUSH1 0x20 ADD PUSH1 0x40 MLOAD SWAP1 DUP2 ADD PUSH1 0x40 MSTORE DUP1 SWAP3 SWAP2 SWAP1 DUP2 DUP2 MSTORE PUSH1 0x20 ADD DUP3 DUP1 SLOAD DUP1 ISZERO PUSH2 0x95B JUMPI PUSH1 0x20 MUL DUP3 ADD SWAP2 SWAP1 PUSH0 MSTORE PUSH1 0x20 PUSH0 KECCAK256 SWAP1 JUMPDEST DUP2 PUSH0 SWAP1 SLOAD SWAP1 PUSH2 0x100 EXP SWAP1 DIV PUSH20 0xFFFFFFFFFFFFFFFFFFFFFFFFFFFFFFFFFFFFFFFF AND PUSH20 0xFFFFFFFFFFFFFFFFFFFFFFFFFFFFFFFFFFFFFFFF AND DUP2 MSTORE PUSH1 0x20 ADD SWAP1 PUSH1 0x1 ADD SWAP1 DUP1 DUP4 GT PUSH2 0x912 JUMPI JUMPDEST POP POP POP POP POP SWAP1 POP SWAP1 JUMP JUMPDEST PUSH2 0x96F PUSH1 0x3 PUSH2 0x155C JUMP JUMPDEST PUSH0 DUP1 PUSH0 PUSH1 0x1 SWAP1 POP JUMPDEST PUSH1 0x1 PUSH1 0x3 ADD DUP1 SLOAD SWAP1 POP DUP2 LT ISZERO PUSH2 0x9F5 JUMPI DUP3 PUSH1 0x1 PUSH1 0x3 ADD DUP3 DUP2 SLOAD DUP2 LT PUSH2 0x99F JUMPI PUSH2 0x99E PUSH2 0x205F JUMP JUMPDEST JUMPDEST SWAP1 PUSH0 MSTORE PUSH1 0x20 PUSH0 KECCAK256 SWAP1 PUSH1 0x2 MUL ADD PUSH1 0x1 ADD SLOAD GT ISZERO PUSH2 0x9E2 JUMPI PUSH1 0x1 PUSH1 0x3 ADD DUP2 DUP2 SLOAD DUP2 LT PUSH2 0x9CC JUMPI PUSH2 0x9CB PUSH2 0x205F JUMP JUMPDEST JUMPDEST SWAP1 PUSH0 MSTORE PUSH1 0x20 PUSH0 KECCAK256 SWAP1 PUSH1 0x2 MUL ADD PUSH1 0x1 ADD SLOAD SWAP3 POP DUP1 SWAP2 POP JUMPDEST DUP1 DUP1 PUSH2 0x9ED SWAP1 PUSH2 0x20B9 JUMP JUMPDEST SWAP2 POP POP PUSH2 0x977 JUMP JUMPDEST POP DUP1 PUSH1 0x1 PUSH1 0x4 ADD DUP2 SWAP1 SSTORE POP PUSH0 PUSH1 0x1 PUSH0 ADD PUSH0 SWAP1 SLOAD SWAP1 PUSH2 0x100 EXP SWAP1 DIV PUSH1 0xFF AND SWAP1 POP PUSH1 0x5 PUSH1 0x1 PUSH0 ADD PUSH0 PUSH2 0x100 EXP DUP2 SLOAD DUP2 PUSH1 0xFF MUL NOT AND SWAP1 DUP4 PUSH1 0x5 DUP2 GT ISZERO PUSH2 0xA3B JUMPI PUSH2 0xA3A PUSH2 0x2127 JUMP JUMPDEST JUMPDEST MUL OR SWAP1 SSTORE POP PUSH32 0xA97A4EE45751E2ABF3E4FC8946939630B11B371EA8AE39CCDC3056E98F5CC3F DUP2 PUSH1 0x1 PUSH0 ADD PUSH0 SWAP1 SLOAD SWAP1 PUSH2 0x100 EXP SWAP1 DIV PUSH1 0xFF AND PUSH1 0x40 MLOAD PUSH2 0xA81 SWAP3 SWAP2 SWAP1 PUSH2 0x219A JUMP JUMPDEST PUSH1 0x40 MLOAD DUP1 SWAP2 SUB SWAP1 LOG1 POP POP POP JUMP JUMPDEST PUSH2 0xA96 PUSH2 0x1382 JUMP JUMPDEST PUSH2 0xA9F PUSH0 PUSH2 0x155C JUMP JUMPDEST PUSH1 0x1 DUP1 ADD PUSH0 DUP3 PUSH20 0xFFFFFFFFFFFFFFFFFFFFFFFFFFFFFFFFFFFFFFFF AND PUSH20 0xFFFFFFFFFFFFFFFFFFFFFFFFFFFFFFFFFFFFFFFF AND DUP2 MSTORE PUSH1 0x20 ADD SWAP1 DUP2 MSTORE PUSH1 0x20 ADD PUSH0 KECCAK256 PUSH0 ADD PUSH0 SWAP1 SLOAD SWAP1 PUSH2 0x100 EXP SWAP1 DIV PUSH1 0xFF AND PUSH2 0xB2E JUMPI DUP1 PUSH1 0x40 MLOAD PUSH32 0x7ECF313D00000000000000000000000000000000000000000000000000000000 DUP2 MSTORE PUSH1 0x4 ADD PUSH2 0xB25 SWAP2 SWAP1 PUSH2 0x1D9D JUMP JUMPDEST PUSH1 0x40 MLOAD DUP1 SWAP2 SUB SWAP1 REVERT JUMPDEST PUSH1 0x1 PUSH1 0x2 ADD DUP2 SWAP1 DUP1 PUSH1 0x1 DUP2 SLOAD ADD DUP1 DUP3 SSTORE DUP1 SWAP2 POP POP PUSH1 0x1 SWAP1 SUB SWAP1 PUSH0 MSTORE PUSH1 0x20 PUSH0 KECCAK256 ADD PUSH0 SWAP1 SWAP2 SWAP1 SWAP2 SWAP1 SWAP2 PUSH2 0x100 EXP DUP2 SLOAD DUP2 PUSH20 0xFFFFFFFFFFFFFFFFFFFFFFFFFFFFFFFFFFFFFFFF MUL NOT AND SWAP1 DUP4 PUSH20 0xFFFFFFFFFFFFFFFFFFFFFFFFFFFFFFFFFFFFFFFF AND MUL OR SWAP1 SSTORE POP PUSH1 0x40 MLOAD DUP1 PUSH1 0x60 ADD PUSH1 0x40 MSTORE DUP1 PUSH1 0x1 ISZERO ISZERO DUP2 MSTORE PUSH1 0x20 ADD PUSH0 ISZERO ISZERO DUP2 MSTORE PUSH1 0x20 ADD PUSH0 DUP2 MSTORE POP PUSH1 0x1 DUP1 ADD PUSH0 DUP4 PUSH20 0xFFFFFFFFFFFFFFFFFFFFFFFFFFFFFFFFFFFFFFFF AND PUSH20 0xFFFFFFFFFFFFFFFFFFFFFFFFFFFFFFFFFFFFFFFF AND DUP2 MSTORE PUSH1 0x20 ADD SWAP1 DUP2 MSTORE PUSH1 0x20 ADD PUSH0 KECCAK256 PUSH0 DUP3 ADD MLOAD DUP2 PUSH0 ADD PUSH0 PUSH2 0x100 EXP DUP2 SLOAD DUP2 PUSH1 0xFF MUL NOT AND SWAP1 DUP4 ISZERO ISZERO MUL OR SWAP1 SSTORE POP PUSH1 0x20 DUP3 ADD MLOAD DUP2 PUSH0 ADD PUSH1 0x1 PUSH2 0x100 EXP DUP2 SLOAD DUP2 PUSH1 0xFF MUL NOT AND SWAP1 DUP4 ISZERO ISZERO MUL OR SWAP1 SSTORE POP PUSH1 0x40 DUP3 ADD MLOAD DUP2 PUSH1 0x1 ADD SSTORE SWAP1 POP POP PUSH32 0xB6BE2187D059CC2A55FE29E0E503B566E1E0F8C8780096E185429350ACFFD3DD DUP2 PUSH1 0x40 MLOAD PUSH2 0xC68 SWAP2 SWAP1 PUSH2 0x1D9D JUMP JUMPDEST PUSH1 0x40 MLOAD DUP1 SWAP2 SUB SWAP1 LOG1 POP JUMP JUMPDEST PUSH0 PUSH1 0x1 DUP1 ADD PUSH0 DUP4 PUSH20 0xFFFFFFFFFFFFFFFFFFFFFFFFFFFFFFFFFFFFFFFF AND PUSH20 0xFFFFFFFFFFFFFFFFFFFFFFFFFFFFFFFFFFFFFFFF AND DUP2 MSTORE PUSH1 0x20 ADD SWAP1 DUP2 MSTORE PUSH1 0x20 ADD PUSH0 KECCAK256 PUSH1 0x1 ADD SLOAD SWAP1 POP SWAP2 SWAP1 POP JUMP JUMPDEST PUSH2 0xCC6 PUSH2 0x1382 JUMP JUMPDEST PUSH2 0xCCF PUSH0 PUSH2 0x15E9 JUMP JUMPDEST JUMP JUMPDEST PUSH0 DUP1 PUSH0 SWAP1 SLOAD SWAP1 PUSH2 0x100 EXP SWAP1 DIV PUSH20 0xFFFFFFFFFFFFFFFFFFFFFFFFFFFFFFFFFFFFFFFF AND SWAP1 POP SWAP1 JUMP JUMPDEST PUSH0 PUSH1 0x1 DUP1 ADD PUSH0 CALLER PUSH20 0xFFFFFFFFFFFFFFFFFFFFFFFFFFFFFFFFFFFFFFFF AND PUSH20 0xFFFFFFFFFFFFFFFFFFFFFFFFFFFFFFFFFFFFFFFF AND DUP2 MSTORE PUSH1 0x20 ADD SWAP1 DUP2 MSTORE PUSH1 0x20 ADD PUSH0 KECCAK256 PUSH0 ADD PUSH0 SWAP1 SLOAD SWAP1 PUSH2 0x100 EXP SWAP1 DIV PUSH1 0xFF AND PUSH2 0xD88 JUMPI CALLER PUSH1 0x40 MLOAD PUSH32 0xAFFA818A00000000000000000000000000000000000000000000000000000000 DUP2 MSTORE PUSH1 0x4 ADD PUSH2 0xD7F SWAP2 SWAP1 PUSH2 0x1D9D JUMP JUMPDEST PUSH1 0x40 MLOAD DUP1 SWAP2 SUB SWAP1 REVERT JUMPDEST PUSH2 0xD92 PUSH1 0x5 PUSH2 0x155C JUMP JUMPDEST PUSH1 0x1 PUSH1 0x4 ADD SLOAD SWAP1 POP SWAP1 JUMP JUMPDEST PUSH2 0xDA5 PUSH2 0x1382 JUMP JUMPDEST PUSH2 0xDAF PUSH1 0x2 PUSH2 0x155C JUMP JUMPDEST PUSH0 PUSH1 0x1 PUSH0 ADD PUSH0 SWAP1 SLOAD SWAP1 PUSH2 0x100 EXP SWAP1 DIV PUSH1 0xFF AND SWAP1 POP PUSH1 0x3 PUSH1 0x1 PUSH0 ADD PUSH0 PUSH2 0x100 EXP DUP2 SLOAD DUP2 PUSH1 0xFF MUL NOT AND SWAP1 DUP4 PUSH1 0x5 DUP2 GT ISZERO PUSH2 0xDEA JUMPI PUSH2 0xDE9 PUSH2 0x2127 JUMP JUMPDEST JUMPDEST MUL OR SWAP1 SSTORE POP PUSH32 0xA97A4EE45751E2ABF3E4FC8946939630B11B371EA8AE39CCDC3056E98F5CC3F DUP2 PUSH1 0x1 PUSH0 ADD PUSH0 SWAP1 SLOAD SWAP1 PUSH2 0x100 EXP SWAP1 DIV PUSH1 0xFF AND PUSH1 0x40 MLOAD PUSH2 0xE30 SWAP3 SWAP2 SWAP1 PUSH2 0x219A JUMP JUMPDEST PUSH1 0x40 MLOAD DUP1 SWAP2 SUB SWAP1 LOG1 POP JUMP JUMPDEST PUSH2 0xE43 PUSH2 0x1382 JUMP JUMPDEST PUSH0 PUSH1 0x1 PUSH0 ADD PUSH0 SWAP1 SLOAD SWAP1 PUSH2 0x100 EXP SWAP1 DIV PUSH1 0xFF AND SWAP1 POP PUSH1 0x3 PUSH1 0x1 PUSH0 ADD PUSH0 PUSH2 0x100 EXP DUP2 SLOAD DUP2 PUSH1 0xFF MUL NOT AND SWAP1 DUP4 PUSH1 0x5 DUP2 GT ISZERO PUSH2 0xE7E JUMPI PUSH2 0xE7D PUSH2 0x2127 JUMP JUMPDEST JUMPDEST MUL OR SWAP1 SSTORE POP PUSH2 0xE8B PUSH2 0x16AA JUMP JUMPDEST PUSH32 0xA97A4EE45751E2ABF3E4FC8946939630B11B371EA8AE39CCDC3056E98F5CC3F DUP2 PUSH1 0x1 PUSH0 ADD PUSH0 SWAP1 SLOAD SWAP1 PUSH2 0x100 EXP SWAP1 DIV PUSH1 0xFF AND PUSH1 0x40 MLOAD PUSH2 0xECC SWAP3 SWAP2 SWAP1 PUSH2 0x219A JUMP JUMPDEST PUSH1 0x40 MLOAD DUP1 SWAP2 SUB SWAP1 LOG1 POP JUMP JUMPDEST PUSH1 0x60 PUSH1 0x1 DUP1 ADD PUSH0 CALLER PUSH20 0xFFFFFFFFFFFFFFFFFFFFFFFFFFFFFFFFFFFFFFFF AND PUSH20 0xFFFFFFFFFFFFFFFFFFFFFFFFFFFFFFFFFFFFFFFF AND DUP2 MSTORE PUSH1 0x20 ADD SWAP1 DUP2 MSTORE PUSH1 0x20 ADD PUSH0 KECCAK256 PUSH0 ADD PUSH0 SWAP1 SLOAD SWAP1 PUSH2 0x100 EXP SWAP1 DIV PUSH1 0xFF AND PUSH2 0xF68 JUMPI CALLER PUSH1 0x40 MLOAD PUSH32 0xAFFA818A00000000000000000000000000000000000000000000000000000000 DUP2 MSTORE PUSH1 0x4 ADD PUSH2 0xF5F SWAP2 SWAP1 PUSH2 0x1D9D JUMP JUMPDEST PUSH1 0x40 MLOAD DUP1 SWAP2 SUB SWAP1 REVERT JUMPDEST PUSH0 PUSH1 0x5 DUP2 GT ISZERO PUSH2 0xF7B JUMPI PUSH2 0xF7A PUSH2 0x2127 JUMP JUMPDEST JUMPDEST PUSH1 0x1 PUSH0 ADD PUSH0 SWAP1 SLOAD SWAP1 PUSH2 0x100 EXP SWAP1 DIV PUSH1 0xFF AND PUSH1 0x5 DUP2 GT ISZERO PUSH2 0xF9E JUMPI PUSH2 0xF9D PUSH2 0x2127 JUMP JUMPDEST JUMPDEST SUB PUSH2 0xFDE JUMPI PUSH1 0x40 MLOAD PUSH32 0x8C379A000000000000000000000000000000000000000000000000000000000 DUP2 MSTORE PUSH1 0x4 ADD PUSH2 0xFD5 SWAP1 PUSH2 0x250A JUMP JUMPDEST PUSH1 0x40 MLOAD DUP1 SWAP2 SUB SWAP1 REVERT JUMPDEST PUSH1 0x1 PUSH1 0x3 ADD DUP1 SLOAD DUP1 PUSH1 0x20 MUL PUSH1 0x20 ADD PUSH1 0x40 MLOAD SWAP1 DUP2 ADD PUSH1 0x40 MSTORE DUP1 SWAP3 SWAP2 SWAP1 DUP2 DUP2 MSTORE PUSH1 0x20 ADD PUSH0 SWAP1 JUMPDEST DUP3 DUP3 LT ISZERO PUSH2 0x10CB JUMPI DUP4 DUP3 SWAP1 PUSH0 MSTORE PUSH1 0x20 PUSH0 KECCAK256 SWAP1 PUSH1 0x2 MUL ADD PUSH1 0x40 MLOAD DUP1 PUSH1 0x40 ADD PUSH1 0x40 MSTORE SWAP1 DUP2 PUSH0 DUP3 ADD DUP1 SLOAD PUSH2 0x1032 SWAP1 PUSH2 0x21EE JUMP JUMPDEST DUP1 PUSH1 0x1F ADD PUSH1 0x20 DUP1 SWAP2 DIV MUL PUSH1 0x20 ADD PUSH1 0x40 MLOAD SWAP1 DUP2 ADD PUSH1 0x40 MSTORE DUP1 SWAP3 SWAP2 SWAP1 DUP2 DUP2 MSTORE PUSH1 0x20 ADD DUP3 DUP1 SLOAD PUSH2 0x105E SWAP1 PUSH2 0x21EE JUMP JUMPDEST DUP1 ISZERO PUSH2 0x10A9 JUMPI DUP1 PUSH1 0x1F LT PUSH2 0x1080 JUMPI PUSH2 0x100 DUP1 DUP4 SLOAD DIV MUL DUP4 MSTORE SWAP2 PUSH1 0x20 ADD SWAP2 PUSH2 0x10A9 JUMP JUMPDEST DUP3 ADD SWAP2 SWAP1 PUSH0 MSTORE PUSH1 0x20 PUSH0 KECCAK256 SWAP1 JUMPDEST DUP2 SLOAD DUP2 MSTORE SWAP1 PUSH1 0x1 ADD SWAP1 PUSH1 0x20 ADD DUP1 DUP4 GT PUSH2 0x108C JUMPI DUP3 SWAP1 SUB PUSH1 0x1F AND DUP3 ADD SWAP2 JUMPDEST POP POP POP POP POP DUP2 MSTORE PUSH1 0x20 ADD PUSH1 0x1 DUP3 ADD SLOAD DUP2 MSTORE POP POP DUP2 MSTORE PUSH1 0x20 ADD SWAP1 PUSH1 0x1 ADD SWAP1 PUSH2 0x1002 JUMP JUMPDEST POP POP POP POP SWAP1 POP SWAP1 JUMP JUMPDEST PUSH2 0x10DC PUSH2 0x1382 JUMP JUMPDEST PUSH2 0x10E5 PUSH0 PUSH2 0x155C JUMP JUMPDEST PUSH0 JUMPDEST DUP2 MLOAD DUP2 GT PUSH2 0x1125 JUMPI PUSH2 0x1112 DUP3 DUP3 DUP2 MLOAD DUP2 LT PUSH2 0x1105 JUMPI PUSH2 0x1104 PUSH2 0x205F JUMP JUMPDEST JUMPDEST PUSH1 0x20 MUL PUSH1 0x20 ADD ADD MLOAD PUSH2 0xA8E JUMP JUMPDEST DUP1 DUP1 PUSH2 0x111D SWAP1 PUSH2 0x20B9 JUMP JUMPDEST SWAP2 POP POP PUSH2 0x10E7 JUMP JUMPDEST POP POP JUMP JUMPDEST PUSH2 0x1131 PUSH2 0x1382 JUMP JUMPDEST PUSH2 0x113B PUSH1 0x1 PUSH2 0x155C JUMP JUMPDEST PUSH0 PUSH1 0x1 PUSH0 ADD PUSH0 SWAP1 SLOAD SWAP1 PUSH2 0x100 EXP SWAP1 DIV PUSH1 0xFF AND SWAP1 POP PUSH1 0x2 PUSH1 0x1 PUSH0 ADD PUSH0 PUSH2 0x100 EXP DUP2 SLOAD DUP2 PUSH1 0xFF MUL NOT AND SWAP1 DUP4 PUSH1 0x5 DUP2 GT ISZERO PUSH2 0x1176 JUMPI PUSH2 0x1175 PUSH2 0x2127 JUMP JUMPDEST JUMPDEST MUL OR SWAP1 SSTORE POP PUSH32 0xA97A4EE45751E2ABF3E4FC8946939630B11B371EA8AE39CCDC3056E98F5CC3F DUP2 PUSH1 0x1 PUSH0 ADD PUSH0 SWAP1 SLOAD SWAP1 PUSH2 0x100 EXP SWAP1 DIV PUSH1 0xFF AND PUSH1 0x40 MLOAD PUSH2 0x11BC SWAP3 SWAP2 SWAP1 PUSH2 0x219A JUMP JUMPDEST PUSH1 0x40 MLOAD DUP1 SWAP2 SUB SWAP1 LOG1 POP JUMP JUMPDEST PUSH2 0x11CF PUSH2 0x1382 JUMP JUMPDEST PUSH0 PUSH20 0xFFFFFFFFFFFFFFFFFFFFFFFFFFFFFFFFFFFFFFFF AND DUP2 PUSH20 0xFFFFFFFFFFFFFFFFFFFFFFFFFFFFFFFFFFFFFFFF AND SUB PUSH2 0x123D JUMPI PUSH1 0x40 MLOAD PUSH32 0x8C379A000000000000000000000000000000000000000000000000000000000 DUP2 MSTORE PUSH1 0x4 ADD PUSH2 0x1234 SWAP1 PUSH2 0x2598 JUMP JUMPDEST PUSH1 0x40 MLOAD DUP1 SWAP2 SUB SWAP1 REVERT JUMPDEST PUSH2 0x1246 DUP2 PUSH2 0x15E9 JUMP JUMPDEST POP JUMP JUMPDEST PUSH2 0x1251 PUSH2 0x1382 JUMP JUMPDEST PUSH2 0x125B PUSH1 0x3 PUSH2 0x155C JUMP JUMPDEST PUSH0 PUSH1 0x1 PUSH0 ADD PUSH0 SWAP1 SLOAD SWAP1 PUSH2 0x100 EXP SWAP1 DIV PUSH1 0xFF AND SWAP1 POP PUSH1 0x4 PUSH1 0x1 PUSH0 ADD PUSH0 PUSH2 0x100 EXP DUP2 SLOAD DUP2 PUSH1 0xFF MUL NOT AND SWAP1 DUP4 PUSH1 0x5 DUP2 GT ISZERO PUSH2 0x1296 JUMPI PUSH2 0x1295 PUSH2 0x2127 JUMP JUMPDEST JUMPDEST MUL OR SWAP1 SSTORE POP PUSH32 0xA97A4EE45751E2ABF3E4FC8946939630B11B371EA8AE39CCDC3056E98F5CC3F DUP2 PUSH1 0x1 PUSH0 ADD PUSH0 SWAP1 SLOAD SWAP1 PUSH2 0x100 EXP SWAP1 DIV PUSH1 0xFF AND PUSH1 0x40 MLOAD PUSH2 0x12DC SWAP3 SWAP2 SWAP1 PUSH2 0x219A JUMP JUMPDEST PUSH1 0x40 MLOAD DUP1 SWAP2 SUB SWAP1 LOG1 POP JUMP JUMPDEST PUSH2 0x12EF PUSH2 0x1382 JUMP JUMPDEST PUSH0 PUSH1 0x1 PUSH0 ADD PUSH0 SWAP1 SLOAD SWAP1 PUSH2 0x100 EXP SWAP1 DIV PUSH1 0xFF AND SWAP1 POP PUSH0 PUSH1 0x1 PUSH0 ADD PUSH0 PUSH2 0x100 EXP DUP2 SLOAD DUP2 PUSH1 0xFF MUL NOT AND SWAP1 DUP4 PUSH1 0x5 DUP2 GT ISZERO PUSH2 0x1329 JUMPI PUSH2 0x1328 PUSH2 0x2127 JUMP JUMPDEST JUMPDEST MUL OR SWAP1 SSTORE POP PUSH2 0x1336 PUSH2 0x1847 JUMP JUMPDEST PUSH32 0xA97A4EE45751E2ABF3E4FC8946939630B11B371EA8AE39CCDC3056E98F5CC3F DUP2 PUSH1 0x1 PUSH0 ADD PUSH0 SWAP1 SLOAD SWAP1 PUSH2 0x100 EXP SWAP1 DIV PUSH1 0xFF AND PUSH1 0x40 MLOAD PUSH2 0x1377 SWAP3 SWAP2 SWAP1 PUSH2 0x219A JUMP JUMPDEST PUSH1 0x40 MLOAD DUP1 SWAP2 SUB SWAP1 LOG1 POP JUMP JUMPDEST PUSH2 0x138A PUSH2 0x196C JUMP JUMPDEST PUSH20 0xFFFFFFFFFFFFFFFFFFFFFFFFFFFFFFFFFFFFFFFF AND PUSH2 0x13A8 PUSH2 0xCD1 JUMP JUMPDEST PUSH20 0xFFFFFFFFFFFFFFFFFFFFFFFFFFFFFFFFFFFFFFFF AND EQ PUSH2 0x13FE JUMPI PUSH1 0x40 MLOAD PUSH32 0x8C379A000000000000000000000000000000000000000000000000000000000 DUP2 MSTORE PUSH1 0x4 ADD PUSH2 0x13F5 SWAP1 PUSH2 0x2600 JUMP JUMPDEST PUSH1 0x40 MLOAD DUP1 SWAP2 SUB SWAP1 REVERT JUMPDEST JUMP JUMPDEST PUSH2 0x1408 PUSH2 0x1382 JUMP JUMPDEST PUSH1 0x1 PUSH1 0x3 ADD PUSH0 PUSH2 0x1418 SWAP2 SWAP1 PUSH2 0x1973 JUMP JUMPDEST PUSH0 JUMPDEST PUSH1 0x1 PUSH1 0x2 ADD DUP1 SLOAD SWAP1 POP DUP2 LT ISZERO PUSH2 0x1559 JUMPI PUSH0 PUSH1 0x1 DUP1 ADD PUSH0 PUSH1 0x1 PUSH1 0x2 ADD DUP5 DUP2 SLOAD DUP2 LT PUSH2 0x1447 JUMPI PUSH2 0x1446 PUSH2 0x205F JUMP JUMPDEST JUMPDEST SWAP1 PUSH0 MSTORE PUSH1 0x20 PUSH0 KECCAK256 ADD PUSH0 SWAP1 SLOAD SWAP1 PUSH2 0x100 EXP SWAP1 DIV PUSH20 0xFFFFFFFFFFFFFFFFFFFFFFFFFFFFFFFFFFFFFFFF AND PUSH20 0xFFFFFFFFFFFFFFFFFFFFFFFFFFFFFFFFFFFFFFFF AND PUSH20 0xFFFFFFFFFFFFFFFFFFFFFFFFFFFFFFFFFFFFFFFF AND DUP2 MSTORE PUSH1 0x20 ADD SWAP1 DUP2 MSTORE PUSH1 0x20 ADD PUSH0 KECCAK256 PUSH0 ADD PUSH1 0x1 PUSH2 0x100 EXP DUP2 SLOAD DUP2 PUSH1 0xFF MUL NOT AND SWAP1 DUP4 ISZERO ISZERO MUL OR SWAP1 SSTORE POP PUSH0 PUSH1 0x1 DUP1 ADD PUSH0 PUSH1 0x1 PUSH1 0x2 ADD DUP5 DUP2 SLOAD DUP2 LT PUSH2 0x14DE JUMPI PUSH2 0x14DD PUSH2 0x205F JUMP JUMPDEST JUMPDEST SWAP1 PUSH0 MSTORE PUSH1 0x20 PUSH0 KECCAK256 ADD PUSH0 SWAP1 SLOAD SWAP1 PUSH2 0x100 EXP SWAP1 DIV PUSH20 0xFFFFFFFFFFFFFFFFFFFFFFFFFFFFFFFFFFFFFFFF AND PUSH20 0xFFFFFFFFFFFFFFFFFFFFFFFFFFFFFFFFFFFFFFFF AND PUSH20 0xFFFFFFFFFFFFFFFFFFFFFFFFFFFFFFFFFFFFFFFF AND DUP2 MSTORE PUSH1 0x20 ADD SWAP1 DUP2 MSTORE PUSH1 0x20 ADD PUSH0 KECCAK256 PUSH1 0x1 ADD DUP2 SWAP1 SSTORE POP DUP1 DUP1 PUSH2 0x1551 SWAP1 PUSH2 0x20B9 JUMP JUMPDEST SWAP2 POP POP PUSH2 0x141A JUMP JUMPDEST POP JUMP JUMPDEST DUP1 PUSH1 0x5 DUP2 GT ISZERO PUSH2 0x156F JUMPI PUSH2 0x156E PUSH2 0x2127 JUMP JUMPDEST JUMPDEST PUSH1 0x1 PUSH0 ADD PUSH0 SWAP1 SLOAD SWAP1 PUSH2 0x100 EXP SWAP1 DIV PUSH1 0xFF AND PUSH1 0x5 DUP2 GT ISZERO PUSH2 0x1592 JUMPI PUSH2 0x1591 PUSH2 0x2127 JUMP JUMPDEST JUMPDEST EQ PUSH2 0x15E6 JUMPI DUP1 PUSH1 0x1 PUSH0 ADD PUSH0 SWAP1 SLOAD SWAP1 PUSH2 0x100 EXP SWAP1 DIV PUSH1 0xFF AND PUSH1 0x40 MLOAD PUSH32 0x586A712D00000000000000000000000000000000000000000000000000000000 DUP2 MSTORE PUSH1 0x4 ADD PUSH2 0x15DD SWAP3 SWAP2 SWAP1 PUSH2 0x219A JUMP JUMPDEST PUSH1 0x40 MLOAD DUP1 SWAP2 SUB SWAP1 REVERT JUMPDEST POP JUMP JUMPDEST PUSH0 DUP1 PUSH0 SWAP1 SLOAD SWAP1 PUSH2 0x100 EXP SWAP1 DIV PUSH20 0xFFFFFFFFFFFFFFFFFFFFFFFFFFFFFFFFFFFFFFFF AND SWAP1 POP DUP2 PUSH0 DUP1 PUSH2 0x100 EXP DUP2 SLOAD DUP2 PUSH20 0xFFFFFFFFFFFFFFFFFFFFFFFFFFFFFFFFFFFFFFFF MUL NOT AND SWAP1 DUP4 PUSH20 0xFFFFFFFFFFFFFFFFFFFFFFFFFFFFFFFFFFFFFFFF AND MUL OR SWAP1 SSTORE POP DUP2 PUSH20 0xFFFFFFFFFFFFFFFFFFFFFFFFFFFFFFFFFFFFFFFF AND DUP2 PUSH20 0xFFFFFFFFFFFFFFFFFFFFFFFFFFFFFFFFFFFFFFFF AND PUSH32 0x8BE0079C531659141344CD1FD0A4F28419497F9722A3DAAFE3B4186F6B6457E0 PUSH1 0x40 MLOAD PUSH1 0x40 MLOAD DUP1 SWAP2 SUB SWAP1 LOG3 POP POP JUMP JUMPDEST PUSH2 0x16B2 PUSH2 0x1382 JUMP JUMPDEST PUSH0 JUMPDEST PUSH1 0x1 PUSH1 0x2 ADD DUP1 SLOAD SWAP1 POP DUP2 LT ISZERO PUSH2 0x17F3 JUMPI PUSH0 PUSH1 0x1 DUP1 ADD PUSH0 PUSH1 0x1 PUSH1 0x2 ADD DUP5 DUP2 SLOAD DUP2 LT PUSH2 0x16E1 JUMPI PUSH2 0x16E0 PUSH2 0x205F JUMP JUMPDEST JUMPDEST SWAP1 PUSH0 MSTORE PUSH1 0x20 PUSH0 KECCAK256 ADD PUSH0 SWAP1 SLOAD SWAP1 PUSH2 0x100 EXP SWAP1 DIV PUSH20 0xFFFFFFFFFFFFFFFFFFFFFFFFFFFFFFFFFFFFFFFF AND PUSH20 0xFFFFFFFFFFFFFFFFFFFFFFFFFFFFFFFFFFFFFFFF AND PUSH20 0xFFFFFFFFFFFFFFFFFFFFFFFFFFFFFFFFFFFFFFFF AND DUP2 MSTORE PUSH1 0x20 ADD SWAP1 DUP2 MSTORE PUSH1 0x20 ADD PUSH0 KECCAK256 PUSH0 ADD PUSH1 0x1 PUSH2 0x100 EXP DUP2 SLOAD DUP2 PUSH1 0xFF MUL NOT AND SWAP1 DUP4 ISZERO ISZERO MUL OR SWAP1 SSTORE POP PUSH0 PUSH1 0x1 DUP1 ADD PUSH0 PUSH1 0x1 PUSH1 0x2 ADD DUP5 DUP2 SLOAD DUP2 LT PUSH2 0x1778 JUMPI PUSH2 0x1777 PUSH2 0x205F JUMP JUMPDEST JUMPDEST SWAP1 PUSH0 MSTORE PUSH1 0x20 PUSH0 KECCAK256 ADD PUSH0 SWAP1 SLOAD SWAP1 PUSH2 0x100 EXP SWAP1 DIV PUSH20 0xFFFFFFFFFFFFFFFFFFFFFFFFFFFFFFFFFFFFFFFF AND PUSH20 0xFFFFFFFFFFFFFFFFFFFFFFFFFFFFFFFFFFFFFFFF AND PUSH20 0xFFFFFFFFFFFFFFFFFFFFFFFFFFFFFFFFFFFFFFFF AND DUP2 MSTORE PUSH1 0x20 ADD SWAP1 DUP2 MSTORE PUSH1 0x20 ADD PUSH0 KECCAK256 PUSH1 0x1 ADD DUP2 SWAP1 SSTORE POP DUP1 DUP1 PUSH2 0x17EB SWAP1 PUSH2 0x20B9 JUMP JUMPDEST SWAP2 POP POP PUSH2 0x16B4 JUMP JUMPDEST POP PUSH0 JUMPDEST PUSH1 0x1 PUSH1 0x3 ADD DUP1 SLOAD SWAP1 POP DUP2 LT ISZERO PUSH2 0x1844 JUMPI PUSH0 PUSH1 0x1 PUSH1 0x3 ADD DUP3 DUP2 SLOAD DUP2 LT PUSH2 0x181E JUMPI PUSH2 0x181D PUSH2 0x205F JUMP JUMPDEST JUMPDEST SWAP1 PUSH0 MSTORE PUSH1 0x20 PUSH0 KECCAK256 SWAP1 PUSH1 0x2 MUL ADD PUSH1 0x1 ADD DUP2 SWAP1 SSTORE POP DUP1 DUP1 PUSH2 0x183C SWAP1 PUSH2 0x20B9 JUMP JUMPDEST SWAP2 POP POP PUSH2 0x17F6 JUMP JUMPDEST POP JUMP JUMPDEST PUSH2 0x184F PUSH2 0x1382 JUMP JUMPDEST PUSH1 0x1 PUSH1 0x3 ADD PUSH0 PUSH2 0x185F SWAP2 SWAP1 PUSH2 0x1973 JUMP JUMPDEST PUSH0 JUMPDEST PUSH1 0x1 PUSH1 0x2 ADD DUP1 SLOAD SWAP1 POP DUP2 LT ISZERO PUSH2 0x1969 JUMPI PUSH1 0x40 MLOAD DUP1 PUSH1 0x60 ADD PUSH1 0x40 MSTORE DUP1 PUSH0 ISZERO ISZERO DUP2 MSTORE PUSH1 0x20 ADD PUSH0 ISZERO ISZERO DUP2 MSTORE PUSH1 0x20 ADD PUSH0 DUP2 MSTORE POP PUSH1 0x1 DUP1 ADD PUSH0 PUSH1 0x1 PUSH1 0x2 ADD DUP5 DUP2 SLOAD DUP2 LT PUSH2 0x18AC JUMPI PUSH2 0x18AB PUSH2 0x205F JUMP JUMPDEST JUMPDEST SWAP1 PUSH0 MSTORE PUSH1 0x20 PUSH0 KECCAK256 ADD PUSH0 SWAP1 SLOAD SWAP1 PUSH2 0x100 EXP SWAP1 DIV PUSH20 0xFFFFFFFFFFFFFFFFFFFFFFFFFFFFFFFFFFFFFFFF AND PUSH20 0xFFFFFFFFFFFFFFFFFFFFFFFFFFFFFFFFFFFFFFFF AND PUSH20 0xFFFFFFFFFFFFFFFFFFFFFFFFFFFFFFFFFFFFFFFF AND DUP2 MSTORE PUSH1 0x20 ADD SWAP1 DUP2 MSTORE PUSH1 0x20 ADD PUSH0 KECCAK256 PUSH0 DUP3 ADD MLOAD DUP2 PUSH0 ADD PUSH0 PUSH2 0x100 EXP DUP2 SLOAD DUP2 PUSH1 0xFF MUL NOT AND SWAP1 DUP4 ISZERO ISZERO MUL OR SWAP1 SSTORE POP PUSH1 0x20 DUP3 ADD MLOAD DUP2 PUSH0 ADD PUSH1 0x1 PUSH2 0x100 EXP DUP2 SLOAD DUP2 PUSH1 0xFF MUL NOT AND SWAP1 DUP4 ISZERO ISZERO MUL OR SWAP1 SSTORE POP PUSH1 0x40 DUP3 ADD MLOAD DUP2 PUSH1 0x1 ADD SSTORE SWAP1 POP POP DUP1 DUP1 PUSH2 0x1961 SWAP1 PUSH2 0x20B9 JUMP JUMPDEST SWAP2 POP POP PUSH2 0x1861 JUMP JUMPDEST POP JUMP JUMPDEST PUSH0 CALLER SWAP1 POP SWAP1 JUMP JUMPDEST POP DUP1 SLOAD PUSH0 DUP3 SSTORE PUSH1 0x2 MUL SWAP1 PUSH0 MSTORE PUSH1 0x20 PUSH0 KECCAK256 SWAP1 DUP2 ADD SWAP1 PUSH2 0x1991 SWAP2 SWAP1 PUSH2 0x1994 JUMP JUMPDEST POP JUMP JUMPDEST JUMPDEST DUP1 DUP3 GT ISZERO PUSH2 0x19BC JUMPI PUSH0 DUP1 DUP3 ADD PUSH0 PUSH2 0x19AC SWAP2 SWAP1 PUSH2 0x19C0 JUMP JUMPDEST PUSH1 0x1 DUP3 ADD PUSH0 SWAP1 SSTORE POP PUSH1 0x2 ADD PUSH2 0x1995 JUMP JUMPDEST POP SWAP1 JUMP JUMPDEST POP DUP1 SLOAD PUSH2 0x19CC SWAP1 PUSH2 0x21EE JUMP JUMPDEST PUSH0 DUP3 SSTORE DUP1 PUSH1 0x1F LT PUSH2 0x19DD JUMPI POP PUSH2 0x19FA JUMP JUMPDEST PUSH1 0x1F ADD PUSH1 0x20 SWAP1 DIV SWAP1 PUSH0 MSTORE PUSH1 0x20 PUSH0 KECCAK256 SWAP1 DUP2 ADD SWAP1 PUSH2 0x19F9 SWAP2 SWAP1 PUSH2 0x19FD JUMP JUMPDEST JUMPDEST POP JUMP JUMPDEST JUMPDEST DUP1 DUP3 GT ISZERO PUSH2 0x1A14 JUMPI PUSH0 DUP2 PUSH0 SWAP1 SSTORE POP PUSH1 0x1 ADD PUSH2 0x19FE JUMP JUMPDEST POP SWAP1 JUMP JUMPDEST PUSH0 PUSH1 0x40 MLOAD SWAP1 POP SWAP1 JUMP JUMPDEST PUSH0 DUP1 REVERT JUMPDEST PUSH0 DUP1 REVERT JUMPDEST PUSH0 DUP2 SWAP1 POP SWAP2 SWAP1 POP JUMP JUMPDEST PUSH2 0x1A3B DUP2 PUSH2 0x1A29 JUMP JUMPDEST DUP2 EQ PUSH2 0x1A45 JUMPI PUSH0 DUP1 REVERT JUMPDEST POP JUMP JUMPDEST PUSH0 DUP2 CALLDATALOAD SWAP1 POP PUSH2 0x1A56 DUP2 PUSH2 0x1A32 JUMP JUMPDEST SWAP3 SWAP2 POP POP JUMP JUMPDEST PUSH0 PUSH1 0x20 DUP3 DUP5 SUB SLT ISZERO PUSH2 0x1A71 JUMPI PUSH2 0x1A70 PUSH2 0x1A21 JUMP JUMPDEST JUMPDEST PUSH0 PUSH2 0x1A7E DUP5 DUP3 DUP6 ADD PUSH2 0x1A48 JUMP JUMPDEST SWAP2 POP POP SWAP3 SWAP2 POP POP JUMP JUMPDEST PUSH0 DUP1 REVERT JUMPDEST PUSH0 DUP1 REVERT JUMPDEST PUSH0 PUSH1 0x1F NOT PUSH1 0x1F DUP4 ADD AND SWAP1 POP SWAP2 SWAP1 POP JUMP JUMPDEST PUSH32 0x4E487B7100000000000000000000000000000000000000000000000000000000 PUSH0 MSTORE PUSH1 0x41 PUSH1 0x4 MSTORE PUSH1 0x24 PUSH0 REVERT JUMPDEST PUSH2 0x1AD5 DUP3 PUSH2 0x1A8F JUMP JUMPDEST DUP2 ADD DUP2 DUP2 LT PUSH8 0xFFFFFFFFFFFFFFFF DUP3 GT OR ISZERO PUSH2 0x1AF4 JUMPI PUSH2 0x1AF3 PUSH2 0x1A9F JUMP JUMPDEST JUMPDEST DUP1 PUSH1 0x40 MSTORE POP POP POP JUMP JUMPDEST PUSH0 PUSH2 0x1B06 PUSH2 0x1A18 JUMP JUMPDEST SWAP1 POP PUSH2 0x1B12 DUP3 DUP3 PUSH2 0x1ACC JUMP JUMPDEST SWAP2 SWAP1 POP JUMP JUMPDEST PUSH0 PUSH8 0xFFFFFFFFFFFFFFFF DUP3 GT ISZERO PUSH2 0x1B31 JUMPI PUSH2 0x1B30 PUSH2 0x1A9F JUMP JUMPDEST JUMPDEST PUSH2 0x1B3A DUP3 PUSH2 0x1A8F JUMP JUMPDEST SWAP1 POP PUSH1 0x20 DUP2 ADD SWAP1 POP SWAP2 SWAP1 POP JUMP JUMPDEST DUP3 DUP2 DUP4 CALLDATACOPY PUSH0 DUP4 DUP4 ADD MSTORE POP POP POP JUMP JUMPDEST PUSH0 PUSH2 0x1B67 PUSH2 0x1B62 DUP5 PUSH2 0x1B17 JUMP JUMPDEST PUSH2 0x1AFD JUMP JUMPDEST SWAP1 POP DUP3 DUP2 MSTORE PUSH1 0x20 DUP2 ADD DUP5 DUP5 DUP5 ADD GT ISZERO PUSH2 0x1B83 JUMPI PUSH2 0x1B82 PUSH2 0x1A8B JUMP JUMPDEST JUMPDEST PUSH2 0x1B8E DUP5 DUP3 DUP6 PUSH2 0x1B47 JUMP JUMPDEST POP SWAP4 SWAP3 POP POP POP JUMP JUMPDEST PUSH0 DUP3 PUSH1 0x1F DUP4 ADD SLT PUSH2 0x1BAA JUMPI PUSH2 0x1BA9 PUSH2 0x1A87 JUMP JUMPDEST JUMPDEST DUP2 CALLDATALOAD PUSH2 0x1BBA DUP5 DUP3 PUSH1 0x20 DUP7 ADD PUSH2 0x1B55 JUMP JUMPDEST SWAP2 POP POP SWAP3 SWAP2 POP POP JUMP JUMPDEST PUSH0 PUSH1 0x20 DUP3 DUP5 SUB SLT ISZERO PUSH2 0x1BD8 JUMPI PUSH2 0x1BD7 PUSH2 0x1A21 JUMP JUMPDEST JUMPDEST PUSH0 DUP3 ADD CALLDATALOAD PUSH8 0xFFFFFFFFFFFFFFFF DUP2 GT ISZERO PUSH2 0x1BF5 JUMPI PUSH2 0x1BF4 PUSH2 0x1A25 JUMP JUMPDEST JUMPDEST PUSH2 0x1C01 DUP5 DUP3 DUP6 ADD PUSH2 0x1B96 JUMP JUMPDEST SWAP2 POP POP SWAP3 SWAP2 POP POP JUMP JUMPDEST PUSH0 DUP2 MLOAD SWAP1 POP SWAP2 SWAP1 POP JUMP JUMPDEST PUSH0 DUP3 DUP3 MSTORE PUSH1 0x20 DUP3 ADD SWAP1 POP SWAP3 SWAP2 POP POP JUMP JUMPDEST PUSH0 DUP2 SWAP1 POP PUSH1 0x20 DUP3 ADD SWAP1 POP SWAP2 SWAP1 POP JUMP JUMPDEST PUSH0 PUSH20 0xFFFFFFFFFFFFFFFFFFFFFFFFFFFFFFFFFFFFFFFF DUP3 AND SWAP1 POP SWAP2 SWAP1 POP JUMP JUMPDEST PUSH0 PUSH2 0x1C5C DUP3 PUSH2 0x1C33 JUMP JUMPDEST SWAP1 POP SWAP2 SWAP1 POP JUMP JUMPDEST PUSH2 0x1C6C DUP2 PUSH2 0x1C52 JUMP JUMPDEST DUP3 MSTORE POP POP JUMP JUMPDEST PUSH0 PUSH2 0x1C7D DUP4 DUP4 PUSH2 0x1C63 JUMP JUMPDEST PUSH1 0x20 DUP4 ADD SWAP1 POP SWAP3 SWAP2 POP POP JUMP JUMPDEST PUSH0 PUSH1 0x20 DUP3 ADD SWAP1 POP SWAP2 SWAP1 POP JUMP JUMPDEST PUSH0 PUSH2 0x1C9F DUP3 PUSH2 0x1C0A JUMP JUMPDEST PUSH2 0x1CA9 DUP2 DUP6 PUSH2 0x1C14 JUMP JUMPDEST SWAP4 POP PUSH2 0x1CB4 DUP4 PUSH2 0x1C24 JUMP JUMPDEST DUP1 PUSH0 JUMPDEST DUP4 DUP2 LT ISZERO PUSH2 0x1CE4 JUMPI DUP2 MLOAD PUSH2 0x1CCB DUP9 DUP3 PUSH2 0x1C72 JUMP JUMPDEST SWAP8 POP PUSH2 0x1CD6 DUP4 PUSH2 0x1C89 JUMP JUMPDEST SWAP3 POP POP PUSH1 0x1 DUP2 ADD SWAP1 POP PUSH2 0x1CB7 JUMP JUMPDEST POP DUP6 SWAP4 POP POP POP POP SWAP3 SWAP2 POP POP JUMP JUMPDEST PUSH0 PUSH1 0x20 DUP3 ADD SWAP1 POP DUP2 DUP2 SUB PUSH0 DUP4 ADD MSTORE PUSH2 0x1D09 DUP2 DUP5 PUSH2 0x1C95 JUMP JUMPDEST SWAP1 POP SWAP3 SWAP2 POP POP JUMP JUMPDEST PUSH2 0x1D1A DUP2 PUSH2 0x1C52 JUMP JUMPDEST DUP2 EQ PUSH2 0x1D24 JUMPI PUSH0 DUP1 REVERT JUMPDEST POP JUMP JUMPDEST PUSH0 DUP2 CALLDATALOAD SWAP1 POP PUSH2 0x1D35 DUP2 PUSH2 0x1D11 JUMP JUMPDEST SWAP3 SWAP2 POP POP JUMP JUMPDEST PUSH0 PUSH1 0x20 DUP3 DUP5 SUB SLT ISZERO PUSH2 0x1D50 JUMPI PUSH2 0x1D4F PUSH2 0x1A21 JUMP JUMPDEST JUMPDEST PUSH0 PUSH2 0x1D5D DUP5 DUP3 DUP6 ADD PUSH2 0x1D27 JUMP JUMPDEST SWAP2 POP POP SWAP3 SWAP2 POP POP JUMP JUMPDEST PUSH2 0x1D6F DUP2 PUSH2 0x1A29 JUMP JUMPDEST DUP3 MSTORE POP POP JUMP JUMPDEST PUSH0 PUSH1 0x20 DUP3 ADD SWAP1 POP PUSH2 0x1D88 PUSH0 DUP4 ADD DUP5 PUSH2 0x1D66 JUMP JUMPDEST SWAP3 SWAP2 POP POP JUMP JUMPDEST PUSH2 0x1D97 DUP2 PUSH2 0x1C52 JUMP JUMPDEST DUP3 MSTORE POP POP JUMP JUMPDEST PUSH0 PUSH1 0x20 DUP3 ADD SWAP1 POP PUSH2 0x1DB0 PUSH0 DUP4 ADD DUP5 PUSH2 0x1D8E JUMP JUMPDEST SWAP3 SWAP2 POP POP JUMP JUMPDEST PUSH0 DUP2 MLOAD SWAP1 POP SWAP2 SWAP1 POP JUMP JUMPDEST PUSH0 DUP3 DUP3 MSTORE PUSH1 0x20 DUP3 ADD SWAP1 POP SWAP3 SWAP2 POP POP JUMP JUMPDEST PUSH0 DUP2 SWAP1 POP PUSH1 0x20 DUP3 ADD SWAP1 POP SWAP2 SWAP1 POP JUMP JUMPDEST PUSH0 DUP2 MLOAD SWAP1 POP SWAP2 SWAP1 POP JUMP JUMPDEST PUSH0 DUP3 DUP3 MSTORE PUSH1 0x20 DUP3 ADD SWAP1 POP SWAP3 SWAP2 POP POP JUMP JUMPDEST PUSH0 JUMPDEST DUP4 DUP2 LT ISZERO PUSH2 0x1E16 JUMPI DUP1 DUP3 ADD MLOAD DUP2 DUP5 ADD MSTORE PUSH1 0x20 DUP2 ADD SWAP1 POP PUSH2 0x1DFB JUMP JUMPDEST PUSH0 DUP5 DUP5 ADD MSTORE POP POP POP POP JUMP JUMPDEST PUSH0 PUSH2 0x1E2B DUP3 PUSH2 0x1DDF JUMP JUMPDEST PUSH2 0x1E35 DUP2 DUP6 PUSH2 0x1DE9 JUMP JUMPDEST SWAP4 POP PUSH2 0x1E45 DUP2 DUP6 PUSH1 0x20 DUP7 ADD PUSH2 0x1DF9 JUMP JUMPDEST PUSH2 0x1E4E DUP2 PUSH2 0x1A8F JUMP JUMPDEST DUP5 ADD SWAP2 POP POP SWAP3 SWAP2 POP POP JUMP JUMPDEST PUSH2 0x1E62 DUP2 PUSH2 0x1A29 JUMP JUMPDEST DUP3 MSTORE POP POP JUMP JUMPDEST PUSH0 PUSH1 0x40 DUP4 ADD PUSH0 DUP4 ADD MLOAD DUP5 DUP3 SUB PUSH0 DUP7 ADD MSTORE PUSH2 0x1E82 DUP3 DUP3 PUSH2 0x1E21 JUMP JUMPDEST SWAP2 POP POP PUSH1 0x20 DUP4 ADD MLOAD PUSH2 0x1E97 PUSH1 0x20 DUP7 ADD DUP3 PUSH2 0x1E59 JUMP JUMPDEST POP DUP1 SWAP2 POP POP SWAP3 SWAP2 POP POP JUMP JUMPDEST PUSH0 PUSH2 0x1EAD DUP4 DUP4 PUSH2 0x1E68 JUMP JUMPDEST SWAP1 POP SWAP3 SWAP2 POP POP JUMP JUMPDEST PUSH0 PUSH1 0x20 DUP3 ADD SWAP1 POP SWAP2 SWAP1 POP JUMP JUMPDEST PUSH0 PUSH2 0x1ECB DUP3 PUSH2 0x1DB6 JUMP JUMPDEST PUSH2 0x1ED5 DUP2 DUP6 PUSH2 0x1DC0 JUMP JUMPDEST SWAP4 POP DUP4 PUSH1 0x20 DUP3 MUL DUP6 ADD PUSH2 0x1EE7 DUP6 PUSH2 0x1DD0 JUMP JUMPDEST DUP1 PUSH0 JUMPDEST DUP6 DUP2 LT ISZERO PUSH2 0x1F22 JUMPI DUP5 DUP5 SUB DUP10 MSTORE DUP2 MLOAD PUSH2 0x1F03 DUP6 DUP3 PUSH2 0x1EA2 JUMP JUMPDEST SWAP5 POP PUSH2 0x1F0E DUP4 PUSH2 0x1EB5 JUMP JUMPDEST SWAP3 POP PUSH1 0x20 DUP11 ADD SWAP10 POP POP PUSH1 0x1 DUP2 ADD SWAP1 POP PUSH2 0x1EEA JUMP JUMPDEST POP DUP3 SWAP8 POP DUP8 SWAP6 POP POP POP POP POP POP SWAP3 SWAP2 POP POP JUMP JUMPDEST PUSH0 PUSH1 0x20 DUP3 ADD SWAP1 POP DUP2 DUP2 SUB PUSH0 DUP4 ADD MSTORE PUSH2 0x1F4C DUP2 DUP5 PUSH2 0x1EC1 JUMP JUMPDEST SWAP1 POP SWAP3 SWAP2 POP POP JUMP JUMPDEST PUSH0 PUSH8 0xFFFFFFFFFFFFFFFF DUP3 GT ISZERO PUSH2 0x1F6E JUMPI PUSH2 0x1F6D PUSH2 0x1A9F JUMP JUMPDEST JUMPDEST PUSH1 0x20 DUP3 MUL SWAP1 POP PUSH1 0x20 DUP2 ADD SWAP1 POP SWAP2 SWAP1 POP JUMP JUMPDEST PUSH0 DUP1 REVERT JUMPDEST PUSH0 PUSH2 0x1F95 PUSH2 0x1F90 DUP5 PUSH2 0x1F54 JUMP JUMPDEST PUSH2 0x1AFD JUMP JUMPDEST SWAP1 POP DUP1 DUP4 DUP3 MSTORE PUSH1 0x20 DUP3 ADD SWAP1 POP PUSH1 0x20 DUP5 MUL DUP4 ADD DUP6 DUP2 GT ISZERO PUSH2 0x1FB8 JUMPI PUSH2 0x1FB7 PUSH2 0x1F7F JUMP JUMPDEST JUMPDEST DUP4 JUMPDEST DUP2 DUP2 LT ISZERO PUSH2 0x1FE1 JUMPI DUP1 PUSH2 0x1FCD DUP9 DUP3 PUSH2 0x1D27 JUMP JUMPDEST DUP5 MSTORE PUSH1 0x20 DUP5 ADD SWAP4 POP POP PUSH1 0x20 DUP2 ADD SWAP1 POP PUSH2 0x1FBA JUMP JUMPDEST POP POP POP SWAP4 SWAP3 POP POP POP JUMP JUMPDEST PUSH0 DUP3 PUSH1 0x1F DUP4 ADD SLT PUSH2 0x1FFF JUMPI PUSH2 0x1FFE PUSH2 0x1A87 JUMP JUMPDEST JUMPDEST DUP2 CALLDATALOAD PUSH2 0x200F DUP5 DUP3 PUSH1 0x20 DUP7 ADD PUSH2 0x1F83 JUMP JUMPDEST SWAP2 POP POP SWAP3 SWAP2 POP POP JUMP JUMPDEST PUSH0 PUSH1 0x20 DUP3 DUP5 SUB SLT ISZERO PUSH2 0x202D JUMPI PUSH2 0x202C PUSH2 0x1A21 JUMP JUMPDEST JUMPDEST PUSH0 DUP3 ADD CALLDATALOAD PUSH8 0xFFFFFFFFFFFFFFFF DUP2 GT ISZERO PUSH2 0x204A JUMPI PUSH2 0x2049 PUSH2 0x1A25 JUMP JUMPDEST JUMPDEST PUSH2 0x2056 DUP5 DUP3 DUP6 ADD PUSH2 0x1FEB JUMP JUMPDEST SWAP2 POP POP SWAP3 SWAP2 POP POP JUMP JUMPDEST PUSH32 0x4E487B7100000000000000000000000000000000000000000000000000000000 PUSH0 MSTORE PUSH1 0x32 PUSH1 0x4 MSTORE PUSH1 0x24 PUSH0 REVERT JUMPDEST PUSH32 0x4E487B7100000000000000000000000000000000000000000000000000000000 PUSH0 MSTORE PUSH1 0x11 PUSH1 0x4 MSTORE PUSH1 0x24 PUSH0 REVERT JUMPDEST PUSH0 PUSH2 0x20C3 DUP3 PUSH2 0x1A29 JUMP JUMPDEST SWAP2 POP PUSH32 0xFFFFFFFFFFFFFFFFFFFFFFFFFFFFFFFFFFFFFFFFFFFFFFFFFFFFFFFFFFFFFFFF DUP3 SUB PUSH2 0x20F5 JUMPI PUSH2 0x20F4 PUSH2 0x208C JUMP JUMPDEST JUMPDEST PUSH1 0x1 DUP3 ADD SWAP1 POP SWAP2 SWAP1 POP JUMP JUMPDEST PUSH0 PUSH1 0x40 DUP3 ADD SWAP1 POP PUSH2 0x2113 PUSH0 DUP4 ADD DUP6 PUSH2 0x1D8E JUMP JUMPDEST PUSH2 0x2120 PUSH1 0x20 DUP4 ADD DUP5 PUSH2 0x1D66 JUMP JUMPDEST SWAP4 SWAP3 POP POP POP JUMP JUMPDEST PUSH32 0x4E487B7100000000000000000000000000000000000000000000000000000000 PUSH0 MSTORE PUSH1 0x21 PUSH1 0x4 MSTORE PUSH1 0x24 PUSH0 REVERT JUMPDEST PUSH1 0x6 DUP2 LT PUSH2 0x2165 JUMPI PUSH2 0x2164 PUSH2 0x2127 JUMP JUMPDEST JUMPDEST POP JUMP JUMPDEST PUSH0 DUP2 SWAP1 POP PUSH2 0x2175 DUP3 PUSH2 0x2154 JUMP JUMPDEST SWAP2 SWAP1 POP JUMP JUMPDEST PUSH0 PUSH2 0x2184 DUP3 PUSH2 0x2168 JUMP JUMPDEST SWAP1 POP SWAP2 SWAP1 POP JUMP JUMPDEST PUSH2 0x2194 DUP2 PUSH2 0x217A JUMP JUMPDEST DUP3 MSTORE POP POP JUMP JUMPDEST PUSH0 PUSH1 0x40 DUP3 ADD SWAP1 POP PUSH2 0x21AD PUSH0 DUP4 ADD DUP6 PUSH2 0x218B JUMP JUMPDEST PUSH2 0x21BA PUSH1 0x20 DUP4 ADD DUP5 PUSH2 0x218B JUMP JUMPDEST SWAP4 SWAP3 POP POP POP JUMP JUMPDEST PUSH32 0x4E487B7100000000000000000000000000000000000000000000000000000000 PUSH0 MSTORE PUSH1 0x22 PUSH1 0x4 MSTORE PUSH1 0x24 PUSH0 REVERT JUMPDEST PUSH0 PUSH1 0x2 DUP3 DIV SWAP1 POP PUSH1 0x1 DUP3 AND DUP1 PUSH2 0x2205 JUMPI PUSH1 0x7F DUP3 AND SWAP2 POP JUMPDEST PUSH1 0x20 DUP3 LT DUP2 SUB PUSH2 0x2218 JUMPI PUSH2 0x2217 PUSH2 0x21C1 JUMP JUMPDEST JUMPDEST POP SWAP2 SWAP1 POP JUMP JUMPDEST PUSH0 DUP2 SWAP1 POP DUP2 PUSH0 MSTORE PUSH1 0x20 PUSH0 KECCAK256 SWAP1 POP SWAP2 SWAP1 POP JUMP JUMPDEST PUSH0 PUSH1 0x20 PUSH1 0x1F DUP4 ADD DIV SWAP1 POP SWAP2 SWAP1 POP JUMP JUMPDEST PUSH0 DUP3 DUP3 SHL SWAP1 POP SWAP3 SWAP2 POP POP JUMP JUMPDEST PUSH0 PUSH1 0x8 DUP4 MUL PUSH2 0x227A PUSH32 0xFFFFFFFFFFFFFFFFFFFFFFFFFFFFFFFFFFFFFFFFFFFFFFFFFFFFFFFFFFFFFFFF DUP3 PUSH2 0x223F JUMP JUMPDEST PUSH2 0x2284 DUP7 DUP4 PUSH2 0x223F JUMP JUMPDEST SWAP6 POP DUP1 NOT DUP5 AND SWAP4 POP DUP1 DUP7 AND DUP5 OR SWAP3 POP POP POP SWAP4 SWAP3 POP POP POP JUMP JUMPDEST PUSH0 DUP2 SWAP1 POP SWAP2 SWAP1 POP JUMP JUMPDEST PUSH0 PUSH2 0x22BF PUSH2 0x22BA PUSH2 0x22B5 DUP5 PUSH2 0x1A29 JUMP JUMPDEST PUSH2 0x229C JUMP JUMPDEST PUSH2 0x1A29 JUMP JUMPDEST SWAP1 POP SWAP2 SWAP1 POP JUMP JUMPDEST PUSH0 DUP2 SWAP1 POP SWAP2 SWAP1 POP JUMP JUMPDEST PUSH2 0x22D8 DUP4 PUSH2 0x22A5 JUMP JUMPDEST PUSH2 0x22EC PUSH2 0x22E4 DUP3 PUSH2 0x22C6 JUMP JUMPDEST DUP5 DUP5 SLOAD PUSH2 0x224B JUMP JUMPDEST DUP3 SSTORE POP POP POP POP JUMP JUMPDEST PUSH0 SWAP1 JUMP JUMPDEST PUSH2 0x2300 PUSH2 0x22F4 JUMP JUMPDEST PUSH2 0x230B DUP2 DUP5 DUP5 PUSH2 0x22CF JUMP JUMPDEST POP POP POP JUMP JUMPDEST JUMPDEST DUP2 DUP2 LT ISZERO PUSH2 0x232E JUMPI PUSH2 0x2323 PUSH0 DUP3 PUSH2 0x22F8 JUMP JUMPDEST PUSH1 0x1 DUP2 ADD SWAP1 POP PUSH2 0x2311 JUMP JUMPDEST POP POP JUMP JUMPDEST PUSH1 0x1F DUP3 GT ISZERO PUSH2 0x2373 JUMPI PUSH2 0x2344 DUP2 PUSH2 0x221E JUMP JUMPDEST PUSH2 0x234D DUP5 PUSH2 0x2230 JUMP JUMPDEST DUP2 ADD PUSH1 0x20 DUP6 LT ISZERO PUSH2 0x235C JUMPI DUP2 SWAP1 POP JUMPDEST PUSH2 0x2370 PUSH2 0x2368 DUP6 PUSH2 0x2230 JUMP JUMPDEST DUP4 ADD DUP3 PUSH2 0x2310 JUMP JUMPDEST POP POP JUMPDEST POP POP POP JUMP JUMPDEST PUSH0 DUP3 DUP3 SHR SWAP1 POP SWAP3 SWAP2 POP POP JUMP JUMPDEST PUSH0 PUSH2 0x2393 PUSH0 NOT DUP5 PUSH1 0x8 MUL PUSH2 0x2378 JUMP JUMPDEST NOT DUP1 DUP4 AND SWAP2 POP POP SWAP3 SWAP2 POP POP JUMP JUMPDEST PUSH0 PUSH2 0x23AB DUP4 DUP4 PUSH2 0x2384 JUMP JUMPDEST SWAP2 POP DUP3 PUSH1 0x2 MUL DUP3 OR SWAP1 POP SWAP3 SWAP2 POP POP JUMP JUMPDEST PUSH2 0x23C4 DUP3 PUSH2 0x1DDF JUMP JUMPDEST PUSH8 0xFFFFFFFFFFFFFFFF DUP2 GT ISZERO PUSH2 0x23DD JUMPI PUSH2 0x23DC PUSH2 0x1A9F JUMP JUMPDEST JUMPDEST PUSH2 0x23E7 DUP3 SLOAD PUSH2 0x21EE JUMP JUMPDEST PUSH2 0x23F2 DUP3 DUP3 DUP6 PUSH2 0x2332 JUMP JUMPDEST PUSH0 PUSH1 0x20 SWAP1 POP PUSH1 0x1F DUP4 GT PUSH1 0x1 DUP2 EQ PUSH2 0x2423 JUMPI PUSH0 DUP5 ISZERO PUSH2 0x2411 JUMPI DUP3 DUP8 ADD MLOAD SWAP1 POP JUMPDEST PUSH2 0x241B DUP6 DUP3 PUSH2 0x23A0 JUMP JUMPDEST DUP7 SSTORE POP PUSH2 0x2482 JUMP JUMPDEST PUSH1 0x1F NOT DUP5 AND PUSH2 0x2431 DUP7 PUSH2 0x221E JUMP JUMPDEST PUSH0 JUMPDEST DUP3 DUP2 LT ISZERO PUSH2 0x2458 JUMPI DUP5 DUP10 ADD MLOAD DUP3 SSTORE PUSH1 0x1 DUP3 ADD SWAP2 POP PUSH1 0x20 DUP6 ADD SWAP5 POP PUSH1 0x20 DUP2 ADD SWAP1 POP PUSH2 0x2433 JUMP JUMPDEST DUP7 DUP4 LT ISZERO PUSH2 0x2475 JUMPI DUP5 DUP10 ADD MLOAD PUSH2 0x2471 PUSH1 0x1F DUP10 AND DUP3 PUSH2 0x2384 JUMP JUMPDEST DUP4 SSTORE POP JUMPDEST PUSH1 0x1 PUSH1 0x2 DUP9 MUL ADD DUP9 SSTORE POP POP POP JUMPDEST POP POP POP POP POP POP JUMP JUMPDEST PUSH0 DUP3 DUP3 MSTORE PUSH1 0x20 DUP3 ADD SWAP1 POP SWAP3 SWAP2 POP POP JUMP JUMPDEST PUSH32 0x506C65617365207761697420766F746572732720726567697374726174696F6E PUSH0 DUP3 ADD MSTORE PUSH32 0x20746F20626520636C6F73656400000000000000000000000000000000000000 PUSH1 0x20 DUP3 ADD MSTORE POP JUMP JUMPDEST PUSH0 PUSH2 0x24F4 PUSH1 0x2D DUP4 PUSH2 0x248A JUMP JUMPDEST SWAP2 POP PUSH2 0x24FF DUP3 PUSH2 0x249A JUMP JUMPDEST PUSH1 0x40 DUP3 ADD SWAP1 POP SWAP2 SWAP1 POP JUMP JUMPDEST PUSH0 PUSH1 0x20 DUP3 ADD SWAP1 POP DUP2 DUP2 SUB PUSH0 DUP4 ADD MSTORE PUSH2 0x2521 DUP2 PUSH2 0x24E8 JUMP JUMPDEST SWAP1 POP SWAP2 SWAP1 POP JUMP JUMPDEST PUSH32 0x4F776E61626C653A206E6577206F776E657220697320746865207A65726F2061 PUSH0 DUP3 ADD MSTORE PUSH32 0x6464726573730000000000000000000000000000000000000000000000000000 PUSH1 0x20 DUP3 ADD MSTORE POP JUMP JUMPDEST PUSH0 PUSH2 0x2582 PUSH1 0x26 DUP4 PUSH2 0x248A JUMP JUMPDEST SWAP2 POP PUSH2 0x258D DUP3 PUSH2 0x2528 JUMP JUMPDEST PUSH1 0x40 DUP3 ADD SWAP1 POP SWAP2 SWAP1 POP JUMP JUMPDEST PUSH0 PUSH1 0x20 DUP3 ADD SWAP1 POP DUP2 DUP2 SUB PUSH0 DUP4 ADD MSTORE PUSH2 0x25AF DUP2 PUSH2 0x2576 JUMP JUMPDEST SWAP1 POP SWAP2 SWAP1 POP JUMP JUMPDEST PUSH32 0x4F776E61626C653A2063616C6C6572206973206E6F7420746865206F776E6572 PUSH0 DUP3 ADD MSTORE POP JUMP JUMPDEST PUSH0 PUSH2 0x25EA PUSH1 0x20 DUP4 PUSH2 0x248A JUMP JUMPDEST SWAP2 POP PUSH2 0x25F5 DUP3 PUSH2 0x25B6 JUMP JUMPDEST PUSH1 0x20 DUP3 ADD SWAP1 POP SWAP2 SWAP1 POP JUMP JUMPDEST PUSH0 PUSH1 0x20 DUP3 ADD SWAP1 POP DUP2 DUP2 SUB PUSH0 DUP4 ADD MSTORE PUSH2 0x2617 DUP2 PUSH2 0x25DE JUMP JUMPDEST SWAP1 POP SWAP2 SWAP1 POP JUMP INVALID LOG2 PUSH5 0x6970667358 0x22 SLT KECCAK256 0xBC AND JUMPI 0xE9 ISZERO 0x23 0x25 BASEFEE 0x4B SWAP5 DUP10 PUSH26 0x48E64BC62EC723BE553331A8825C00C7C3D5622F64736F6C6343 STOP ADDMOD EQ STOP CALLER "
				},
				"gasEstimates": {
					"creation": {
						"codeDepositCost": "1962400",
						"executionCost": "infinite",
						"totalCost": "infinite"
					},
					"external": {
						"endProposalRegistration()": "infinite",
						"endVoteSession()": "infinite",
						"getAllProposals()": "infinite",
						"getAllVoters()": "infinite",
						"getVoteOfVoter(address)": "2930",
						"getWinner()": "infinite",
						"owner()": "2538",
						"registerProposal(string)": "infinite",
						"registerVoter(address)": "infinite",
						"registerVoters(address[])": "infinite",
						"renounceOwnership()": "30501",
						"resetProposals()": "infinite",
						"resetSession()": "infinite",
						"resetVotes()": "infinite",
						"startProposalRegistration()": "infinite",
						"startVoteSession()": "infinite",
						"tallyVotes()": "infinite",
						"transferOwnership(address)": "30797",
						"vote(uint256)": "infinite"
					},
					"internal": {
						"_resetProposals()": "infinite",
						"_resetVoters()": "infinite",
						"_resetVotes()": "infinite",
						"_wrongPhase(enum WorkflowStatus)": "infinite"
					}
				},
				"methodIdentifiers": {
					"endProposalRegistration()": "e85a8f2a",
					"endVoteSession()": "f74c168d",
					"getAllProposals()": "cceb68f5",
					"getAllVoters()": "35bbe70e",
					"getVoteOfVoter(address)": "6edb2860",
					"getWinner()": "8e7ea5b2",
					"owner()": "8da5cb5b",
					"registerProposal(string)": "2f95355b",
					"registerVoter(address)": "38db6dd3",
					"registerVoters(address[])": "d55ec9c1",
					"renounceOwnership()": "715018a6",
					"resetProposals()": "0b9bc2a0",
					"resetSession()": "f8a3ce82",
					"resetVotes()": "b9830ff1",
					"startProposalRegistration()": "0f7e2838",
					"startVoteSession()": "aaa98346",
					"tallyVotes()": "378a2178",
					"transferOwnership(address)": "f2fde38b",
					"vote(uint256)": "0121b93f"
				}
			},
			"storageLayout": {
				"storage": [
					{
						"astId": 7,
						"contract": "Voting.sol:Voting",
						"label": "_owner",
						"offset": 0,
						"slot": "0",
						"type": "t_address"
					},
					{
						"astId": 225,
						"contract": "Voting.sol:Voting",
						"label": "session",
						"offset": 0,
						"slot": "1",
						"type": "t_struct(Session)222_storage"
					}
				],
				"types": {
					"t_address": {
						"encoding": "inplace",
						"label": "address",
						"numberOfBytes": "20"
					},
					"t_array(t_address)dyn_storage": {
						"base": "t_address",
						"encoding": "dynamic_array",
						"label": "address[]",
						"numberOfBytes": "32"
					},
					"t_array(t_struct(Proposal)204_storage)dyn_storage": {
						"base": "t_struct(Proposal)204_storage",
						"encoding": "dynamic_array",
						"label": "struct Voting.Proposal[]",
						"numberOfBytes": "32"
					},
					"t_bool": {
						"encoding": "inplace",
						"label": "bool",
						"numberOfBytes": "1"
					},
					"t_enum(WorkflowStatus)144": {
						"encoding": "inplace",
						"label": "enum WorkflowStatus",
						"numberOfBytes": "1"
					},
					"t_mapping(t_address,t_struct(Voter)199_storage)": {
						"encoding": "mapping",
						"key": "t_address",
						"label": "mapping(address => struct Voting.Voter)",
						"numberOfBytes": "32",
						"value": "t_struct(Voter)199_storage"
					},
					"t_string_storage": {
						"encoding": "bytes",
						"label": "string",
						"numberOfBytes": "32"
					},
					"t_struct(Proposal)204_storage": {
						"encoding": "inplace",
						"label": "struct Voting.Proposal",
						"members": [
							{
								"astId": 201,
								"contract": "Voting.sol:Voting",
								"label": "description",
								"offset": 0,
								"slot": "0",
								"type": "t_string_storage"
							},
							{
								"astId": 203,
								"contract": "Voting.sol:Voting",
								"label": "voteCount",
								"offset": 0,
								"slot": "1",
								"type": "t_uint256"
							}
						],
						"numberOfBytes": "64"
					},
					"t_struct(Session)222_storage": {
						"encoding": "inplace",
						"label": "struct Voting.Session",
						"members": [
							{
								"astId": 207,
								"contract": "Voting.sol:Voting",
								"label": "status",
								"offset": 0,
								"slot": "0",
								"type": "t_enum(WorkflowStatus)144"
							},
							{
								"astId": 212,
								"contract": "Voting.sol:Voting",
								"label": "voters",
								"offset": 0,
								"slot": "1",
								"type": "t_mapping(t_address,t_struct(Voter)199_storage)"
							},
							{
								"astId": 215,
								"contract": "Voting.sol:Voting",
								"label": "idxVoters",
								"offset": 0,
								"slot": "2",
								"type": "t_array(t_address)dyn_storage"
							},
							{
								"astId": 219,
								"contract": "Voting.sol:Voting",
								"label": "proposals",
								"offset": 0,
								"slot": "3",
								"type": "t_array(t_struct(Proposal)204_storage)dyn_storage"
							},
							{
								"astId": 221,
								"contract": "Voting.sol:Voting",
								"label": "winningProposalId",
								"offset": 0,
								"slot": "4",
								"type": "t_uint256"
							}
						],
						"numberOfBytes": "160"
					},
					"t_struct(Voter)199_storage": {
						"encoding": "inplace",
						"label": "struct Voting.Voter",
						"members": [
							{
								"astId": 194,
								"contract": "Voting.sol:Voting",
								"label": "isRegistered",
								"offset": 0,
								"slot": "0",
								"type": "t_bool"
							},
							{
								"astId": 196,
								"contract": "Voting.sol:Voting",
								"label": "hasVoted",
								"offset": 1,
								"slot": "0",
								"type": "t_bool"
							},
							{
								"astId": 198,
								"contract": "Voting.sol:Voting",
								"label": "votedProposalId",
								"offset": 0,
								"slot": "1",
								"type": "t_uint256"
							}
						],
						"numberOfBytes": "64"
					},
					"t_uint256": {
						"encoding": "inplace",
						"label": "uint256",
						"numberOfBytes": "32"
					}
				}
			},
			"userdoc": {
				"kind": "user",
				"methods": {},
				"version": 1
			}
		}
	}
}